{
  "address": "0x44fE67AcD955B2A782fB3f1957b56b80b492030F",
  "abi": [
    {
      "anonymous": false,
      "inputs": [
        {
          "indexed": true,
          "internalType": "address",
          "name": "previousOwner",
          "type": "address"
        },
        {
          "indexed": true,
          "internalType": "address",
          "name": "newOwner",
          "type": "address"
        }
      ],
      "name": "OwnershipTransferred",
      "type": "event"
    },
    {
      "inputs": [
        {
          "internalType": "int128",
          "name": "i",
          "type": "int128"
        },
        {
          "internalType": "contract IERC20",
          "name": "token",
          "type": "address"
        }
      ],
      "name": "addToken",
      "outputs": [],
      "stateMutability": "nonpayable",
      "type": "function"
    },
    {
      "inputs": [
        {
          "internalType": "uint256",
          "name": "i",
          "type": "uint256"
        }
      ],
      "name": "coins",
      "outputs": [
        {
          "internalType": "address",
          "name": "",
          "type": "address"
        }
      ],
      "stateMutability": "view",
      "type": "function"
    },
    {
      "inputs": [
        {
          "internalType": "int128",
          "name": "i",
          "type": "int128"
        },
        {
          "internalType": "int128",
          "name": "j",
          "type": "int128"
        },
        {
          "internalType": "uint256",
          "name": "dx",
          "type": "uint256"
        },
        {
          "internalType": "uint256",
          "name": "min_dy",
          "type": "uint256"
        }
      ],
      "name": "exchange_underlying",
      "outputs": [
        {
          "internalType": "uint256",
          "name": "",
          "type": "uint256"
        }
      ],
      "stateMutability": "nonpayable",
      "type": "function"
    },
    {
      "inputs": [],
      "name": "owner",
      "outputs": [
        {
          "internalType": "address",
          "name": "",
          "type": "address"
        }
      ],
      "stateMutability": "view",
      "type": "function"
    },
    {
      "inputs": [
        {
          "internalType": "int128",
          "name": "",
          "type": "int128"
        },
        {
          "internalType": "int128",
          "name": "",
          "type": "int128"
        }
      ],
      "name": "rate",
      "outputs": [
        {
          "internalType": "uint256",
          "name": "",
          "type": "uint256"
        }
      ],
      "stateMutability": "view",
      "type": "function"
    },
    {
      "inputs": [],
      "name": "renounceOwnership",
      "outputs": [],
      "stateMutability": "nonpayable",
      "type": "function"
    },
    {
      "inputs": [
        {
          "internalType": "int128",
          "name": "",
          "type": "int128"
        }
      ],
      "name": "tokens",
      "outputs": [
        {
          "internalType": "contract IERC20",
          "name": "",
          "type": "address"
        }
      ],
      "stateMutability": "view",
      "type": "function"
    },
    {
      "inputs": [
        {
          "internalType": "address",
          "name": "newOwner",
          "type": "address"
        }
      ],
      "name": "transferOwnership",
      "outputs": [],
      "stateMutability": "nonpayable",
      "type": "function"
    },
    {
      "inputs": [
        {
          "internalType": "int128",
          "name": "i",
          "type": "int128"
        },
        {
          "internalType": "int128",
          "name": "j",
          "type": "int128"
        },
        {
          "internalType": "uint256",
          "name": "_rate",
          "type": "uint256"
        }
      ],
      "name": "updateRate",
      "outputs": [],
      "stateMutability": "nonpayable",
      "type": "function"
    },
    {
      "inputs": [
        {
          "internalType": "contract IERC20",
          "name": "token",
          "type": "address"
        },
        {
          "internalType": "uint256",
          "name": "amount",
          "type": "uint256"
        }
      ],
      "name": "withdraw",
      "outputs": [],
      "stateMutability": "nonpayable",
      "type": "function"
    }
  ],
  "transactionHash": "0x1dbe41cb9ed9cd1e0f41a16109f6318b25329dc1f2f971e32cbb51ab6afd063a",
  "args": [],
  "numDeployments": 1,
  "solcInputHash": "071c16d6024943c4719c5fd841d26d8d",
  "bytecode": "0x608060405234801561001057600080fd5b5061001a3361001f565b61006f565b600080546001600160a01b038381166001600160a01b0319831681178455604051919092169283917f8be0079c531659141344cd1fd0a4f28419497f9722a3daafe3b4186f6b6457e09190a35050565b610b928061007e6000396000f3fe608060405234801561001057600080fd5b50600436106100be5760003560e01c8063c661065711610076578063eed97efd1161005b578063eed97efd146101ab578063f2fde38b146101df578063f3fef3a3146101f257600080fd5b8063c66106571461016c578063e7bb02ec1461019857600080fd5b80639262c8dd116100a75780639262c8dd146100f757806398ad389d14610130578063a6417ed61461015957600080fd5b8063715018a6146100c35780638da5cb5b146100cd575b600080fd5b6100cb610205565b005b6000546001600160a01b03165b6040516001600160a01b0390911681526020015b60405180910390f35b6101226101053660046108f6565b600260209081526000928352604080842090915290825290205481565b6040519081526020016100ee565b6100da61013e366004610929565b6001602052600090815260409020546001600160a01b031681565b610122610167366004610944565b610270565b6100da61017a366004610986565b600f0b6000908152600160205260409020546001600160a01b031690565b6100cb6101a63660046109b4565b610319565b6100cb6101b93660046109eb565b600f92830b60009081526002602090815260408083209490950b82529290925291902055565b6100cb6101ed366004610a27565b6103b3565b6100cb610200366004610a44565b610495565b6000546001600160a01b031633146102645760405162461bcd60e51b815260206004820181905260248201527f4f776e61626c653a2063616c6c6572206973206e6f7420746865206f776e657260448201526064015b60405180910390fd5b61026e6000610507565b565b600f84900b600090815260016020526040812054610299906001600160a01b0316333086610564565b600f85810b60009081526002602090815260408083209388900b8352929052908120546102ce85670de0b6b3a7640000610a70565b6102d89190610a9d565b600f86900b600090815260016020526040902054909150610303906001600160a01b0316338361061b565b8281101561031057600080fd5b95945050505050565b6000546001600160a01b031633146103735760405162461bcd60e51b815260206004820181905260248201527f4f776e61626c653a2063616c6c6572206973206e6f7420746865206f776e6572604482015260640161025b565b600f9190910b6000908152600160205260409020805473ffffffffffffffffffffffffffffffffffffffff19166001600160a01b03909216919091179055565b6000546001600160a01b0316331461040d5760405162461bcd60e51b815260206004820181905260248201527f4f776e61626c653a2063616c6c6572206973206e6f7420746865206f776e6572604482015260640161025b565b6001600160a01b0381166104895760405162461bcd60e51b815260206004820152602660248201527f4f776e61626c653a206e6577206f776e657220697320746865207a65726f206160448201527f6464726573730000000000000000000000000000000000000000000000000000606482015260840161025b565b61049281610507565b50565b6000546001600160a01b031633146104ef5760405162461bcd60e51b815260206004820181905260248201527f4f776e61626c653a2063616c6c6572206973206e6f7420746865206f776e6572604482015260640161025b565b6105036001600160a01b038316338361061b565b5050565b600080546001600160a01b0383811673ffffffffffffffffffffffffffffffffffffffff19831681178455604051919092169283917f8be0079c531659141344cd1fd0a4f28419497f9722a3daafe3b4186f6b6457e09190a35050565b6040516001600160a01b03808516602483015283166044820152606481018290526106159085907f23b872dd00000000000000000000000000000000000000000000000000000000906084015b60408051601f198184030181529190526020810180517bffffffffffffffffffffffffffffffffffffffffffffffffffffffff167fffffffff0000000000000000000000000000000000000000000000000000000090931692909217909152610669565b50505050565b6040516001600160a01b0383166024820152604481018290526106649084907fa9059cbb00000000000000000000000000000000000000000000000000000000906064016105b1565b505050565b60006106be826040518060400160405280602081526020017f5361666545524332303a206c6f772d6c6576656c2063616c6c206661696c6564815250856001600160a01b031661074e9092919063ffffffff16565b80519091501561066457808060200190518101906106dc9190610abf565b6106645760405162461bcd60e51b815260206004820152602a60248201527f5361666545524332303a204552433230206f7065726174696f6e20646964206e60448201527f6f74207375636365656400000000000000000000000000000000000000000000606482015260840161025b565b606061075d8484600085610767565b90505b9392505050565b6060824710156107df5760405162461bcd60e51b815260206004820152602660248201527f416464726573733a20696e73756666696369656e742062616c616e636520666f60448201527f722063616c6c0000000000000000000000000000000000000000000000000000606482015260840161025b565b843b61082d5760405162461bcd60e51b815260206004820152601d60248201527f416464726573733a2063616c6c20746f206e6f6e2d636f6e7472616374000000604482015260640161025b565b600080866001600160a01b031685876040516108499190610b0d565b60006040518083038185875af1925050503d8060008114610886576040519150601f19603f3d011682016040523d82523d6000602084013e61088b565b606091505b509150915061089b8282866108a6565b979650505050505050565b606083156108b5575081610760565b8251156108c55782518084602001fd5b8160405162461bcd60e51b815260040161025b9190610b29565b8035600f81900b81146108f157600080fd5b919050565b6000806040838503121561090957600080fd5b610912836108df565b9150610920602084016108df565b90509250929050565b60006020828403121561093b57600080fd5b610760826108df565b6000806000806080858703121561095a57600080fd5b610963856108df565b9350610971602086016108df565b93969395505050506040820135916060013590565b60006020828403121561099857600080fd5b5035919050565b6001600160a01b038116811461049257600080fd5b600080604083850312156109c757600080fd5b6109d0836108df565b915060208301356109e08161099f565b809150509250929050565b600080600060608486031215610a0057600080fd5b610a09846108df565b9250610a17602085016108df565b9150604084013590509250925092565b600060208284031215610a3957600080fd5b81356107608161099f565b60008060408385031215610a5757600080fd5b8235610a628161099f565b946020939093013593505050565b6000816000190483118215151615610a9857634e487b7160e01b600052601160045260246000fd5b500290565b600082610aba57634e487b7160e01b600052601260045260246000fd5b500490565b600060208284031215610ad157600080fd5b8151801515811461076057600080fd5b60005b83811015610afc578181015183820152602001610ae4565b838111156106155750506000910152565b60008251610b1f818460208701610ae1565b9190910192915050565b6020815260008251806020840152610b48816040850160208701610ae1565b601f01601f1916919091016040019291505056fea26469706673582212206b6d8e9cc9e10161e2e2ebf7c16a1a44ffe57a9481975d7928e1f61ae6a7c7bf64736f6c634300080a0033",
  "devdoc": {
    "kind": "dev",
    "methods": {
      "owner()": {
        "details": "Returns the address of the current owner."
      },
      "renounceOwnership()": {
        "details": "Leaves the contract without owner. It will not be possible to call `onlyOwner` functions anymore. Can only be called by the current owner. NOTE: Renouncing ownership will leave the contract without an owner, thereby removing any functionality that is only available to the owner."
      },
      "transferOwnership(address)": {
        "details": "Transfers ownership of the contract to a new account (`newOwner`). Can only be called by the current owner."
      }
    },
    "version": 1
  },
  "userdoc": {
    "kind": "user",
    "methods": {},
    "version": 1
  },
  "storageLayout": {
    "storage": [
      {
        "astId": 442,
        "contract": "contracts/mock/MockCurvePool.sol:MockCurve",
        "label": "_owner",
        "offset": 0,
        "slot": "0",
        "type": "t_address"
      },
      {
        "astId": 8984,
        "contract": "contracts/mock/MockCurvePool.sol:MockCurve",
        "label": "tokens",
        "offset": 0,
        "slot": "1",
        "type": "t_mapping(t_int128,t_contract(IERC20)1295)"
      },
      {
        "astId": 8990,
        "contract": "contracts/mock/MockCurvePool.sol:MockCurve",
        "label": "rate",
        "offset": 0,
        "slot": "2",
        "type": "t_mapping(t_int128,t_mapping(t_int128,t_uint256))"
      }
    ],
    "types": {
      "t_address": {
        "encoding": "inplace",
        "label": "address",
        "numberOfBytes": "20"
      },
      "t_contract(IERC20)1295": {
        "encoding": "inplace",
        "label": "contract IERC20",
        "numberOfBytes": "20"
      },
      "t_int128": {
        "encoding": "inplace",
        "label": "int128",
        "numberOfBytes": "16"
      },
      "t_mapping(t_int128,t_contract(IERC20)1295)": {
        "encoding": "mapping",
        "key": "t_int128",
        "label": "mapping(int128 => contract IERC20)",
        "numberOfBytes": "32",
        "value": "t_contract(IERC20)1295"
      },
      "t_mapping(t_int128,t_mapping(t_int128,t_uint256))": {
        "encoding": "mapping",
        "key": "t_int128",
        "label": "mapping(int128 => mapping(int128 => uint256))",
        "numberOfBytes": "32",
        "value": "t_mapping(t_int128,t_uint256)"
      },
      "t_mapping(t_int128,t_uint256)": {
        "encoding": "mapping",
        "key": "t_int128",
        "label": "mapping(int128 => uint256)",
        "numberOfBytes": "32",
        "value": "t_uint256"
      },
      "t_uint256": {
        "encoding": "inplace",
        "label": "uint256",
        "numberOfBytes": "32"
      }
    }
  }
}