{
  "address": "0x74f9F75747550fbCa6510610450fe91B5Ed765fe",
  "abi": [
    {
      "inputs": [
        {
          "internalType": "uint8",
          "name": "_decimals",
          "type": "uint8"
        }
      ],
      "stateMutability": "nonpayable",
      "type": "constructor"
    },
    {
      "inputs": [],
      "name": "decimals",
      "outputs": [
        {
          "internalType": "uint8",
          "name": "",
          "type": "uint8"
        }
      ],
      "stateMutability": "view",
      "type": "function"
    },
    {
      "inputs": [],
      "name": "description",
      "outputs": [
        {
          "internalType": "string",
          "name": "",
          "type": "string"
        }
      ],
      "stateMutability": "view",
      "type": "function"
    },
    {
      "inputs": [
        {
          "internalType": "uint80",
          "name": "_roundId",
          "type": "uint80"
        }
      ],
      "name": "getRoundData",
      "outputs": [
        {
          "internalType": "uint80",
          "name": "roundId",
          "type": "uint80"
        },
        {
          "internalType": "int256",
          "name": "answer",
          "type": "int256"
        },
        {
          "internalType": "uint256",
          "name": "startedAt",
          "type": "uint256"
        },
        {
          "internalType": "uint256",
          "name": "updatedAt",
          "type": "uint256"
        },
        {
          "internalType": "uint80",
          "name": "answeredInRound",
          "type": "uint80"
        }
      ],
      "stateMutability": "view",
      "type": "function"
    },
    {
      "inputs": [],
      "name": "latestRoundData",
      "outputs": [
        {
          "internalType": "uint80",
          "name": "roundId",
          "type": "uint80"
        },
        {
          "internalType": "int256",
          "name": "answer",
          "type": "int256"
        },
        {
          "internalType": "uint256",
          "name": "startedAt",
          "type": "uint256"
        },
        {
          "internalType": "uint256",
          "name": "updatedAt",
          "type": "uint256"
        },
        {
          "internalType": "uint80",
          "name": "answeredInRound",
          "type": "uint80"
        }
      ],
      "stateMutability": "view",
      "type": "function"
    },
    {
      "inputs": [
        {
          "internalType": "int256",
          "name": "answer",
          "type": "int256"
        }
      ],
      "name": "setAnswer",
      "outputs": [],
      "stateMutability": "nonpayable",
      "type": "function"
    },
    {
      "inputs": [
        {
          "internalType": "uint80",
          "name": "roundId",
          "type": "uint80"
        },
        {
          "internalType": "int256",
          "name": "answer",
          "type": "int256"
        },
        {
          "internalType": "uint256",
          "name": "startedAt",
          "type": "uint256"
        },
        {
          "internalType": "uint256",
          "name": "updatedAt",
          "type": "uint256"
        },
        {
          "internalType": "uint80",
          "name": "answeredInRound",
          "type": "uint80"
        }
      ],
      "name": "setLatestRoundData",
      "outputs": [],
      "stateMutability": "nonpayable",
      "type": "function"
    },
    {
      "inputs": [],
      "name": "version",
      "outputs": [
        {
          "internalType": "uint256",
          "name": "",
          "type": "uint256"
        }
      ],
      "stateMutability": "view",
      "type": "function"
    }
  ],
  "transactionHash": "0x4af6f295c9695571d2e762eb192cd0b12a961dbbb07c50cd65c35bd3e6185a51",
  "args": [
    18
  ],
  "numDeployments": 1,
  "solcInputHash": "97371a37ae785b1e0799e5c0ab6c83f0",
  "bytecode": "0x608060405234801561001057600080fd5b506040516103ad3803806103ad83398101604081905261002f91610048565b6000805460ff191660ff92909216919091179055610072565b60006020828403121561005a57600080fd5b815160ff8116811461006b57600080fd5b9392505050565b61032c806100816000396000f3fe608060405234801561001057600080fd5b506004361061007d5760003560e01c80637284e4161161005b5780637284e4161461011557806399213cd81461012f5780639a6fc8f51461017b578063feaf968c146101ce57600080fd5b8063313ce567146100825780634005e681146100a657806354fd4d5014610106575b600080fd5b60005461008f9060ff1681565b60405160ff90911681526020015b60405180910390f35b6101046100b4366004610216565b600080546affffffffffffffffffff00191661010069ffffffffffffffffffff978816021790556001939093556002919091556003556004805469ffffffffffffffffffff191691909216179055565b005b6040516001815260200161009d565b6040805160208101825260008152905161009d9190610266565b61010461013d3660046102bb565b60008054610a006affffffffffffffffffff00199091161790556001554260028190556003556004805469ffffffffffffffffffff1916600a179055565b6101976101893660046102d4565b506000908190819081908190565b6040805169ffffffffffffffffffff968716815260208101959095528401929092526060830152909116608082015260a00161009d565b60005460015460025460035460045469ffffffffffffffffffff61010090950485169416610197565b803569ffffffffffffffffffff8116811461021157600080fd5b919050565b600080600080600060a0868803121561022e57600080fd5b610237866101f7565b945060208601359350604086013592506060860135915061025a608087016101f7565b90509295509295909350565b600060208083528351808285015260005b8181101561029357858101830151858201604001528201610277565b818111156102a5576000604083870101525b50601f01601f1916929092016040019392505050565b6000602082840312156102cd57600080fd5b5035919050565b6000602082840312156102e657600080fd5b6102ef826101f7565b939250505056fea2646970667358221220097107ad6d6b820679dd046a002acc1bd773ce8e9e73f016ff236c38546c671d64736f6c634300080a0033",
  "devdoc": {
    "kind": "dev",
    "methods": {},
    "version": 1
  },
  "userdoc": {
    "kind": "user",
    "methods": {},
    "version": 1
  },
  "storageLayout": {
    "storage": [
      {
        "astId": 6904,
        "contract": "contracts/mock/MockChainlinkPriceFeed.sol:MockChainlinkPriceFeed",
        "label": "decimals",
        "offset": 0,
        "slot": "0",
        "type": "t_uint8"
      },
      {
        "astId": 6906,
        "contract": "contracts/mock/MockChainlinkPriceFeed.sol:MockChainlinkPriceFeed",
        "label": "roundId_",
        "offset": 1,
        "slot": "0",
        "type": "t_uint80"
      },
      {
        "astId": 6908,
        "contract": "contracts/mock/MockChainlinkPriceFeed.sol:MockChainlinkPriceFeed",
        "label": "answer_",
        "offset": 0,
        "slot": "1",
        "type": "t_int256"
      },
      {
        "astId": 6910,
        "contract": "contracts/mock/MockChainlinkPriceFeed.sol:MockChainlinkPriceFeed",
        "label": "startedAt_",
        "offset": 0,
        "slot": "2",
        "type": "t_uint256"
      },
      {
        "astId": 6912,
        "contract": "contracts/mock/MockChainlinkPriceFeed.sol:MockChainlinkPriceFeed",
        "label": "updatedAt_",
        "offset": 0,
        "slot": "3",
        "type": "t_uint256"
      },
      {
        "astId": 6914,
        "contract": "contracts/mock/MockChainlinkPriceFeed.sol:MockChainlinkPriceFeed",
        "label": "answeredInRound_",
        "offset": 0,
        "slot": "4",
        "type": "t_uint80"
      }
    ],
    "types": {
      "t_int256": {
        "encoding": "inplace",
        "label": "int256",
        "numberOfBytes": "32"
      },
      "t_uint256": {
        "encoding": "inplace",
        "label": "uint256",
        "numberOfBytes": "32"
      },
      "t_uint8": {
        "encoding": "inplace",
        "label": "uint8",
        "numberOfBytes": "1"
      },
      "t_uint80": {
        "encoding": "inplace",
        "label": "uint80",
        "numberOfBytes": "10"
      }
    }
  }
}