{
  "address": "0x554DCc8bF737AcaC78Fe2F947430E0D46424db9c",
  "abi": [
    {
      "inputs": [
        {
          "internalType": "contract IERC20",
          "name": "_underlying",
          "type": "address"
        },
        {
          "internalType": "uint256",
          "name": "_minLockPeriod",
          "type": "uint256"
        },
        {
          "internalType": "uint256",
          "name": "_investPerc",
          "type": "uint256"
        },
        {
          "internalType": "address",
          "name": "_owner",
          "type": "address"
        }
      ],
      "stateMutability": "nonpayable",
      "type": "constructor"
    },
    {
      "anonymous": false,
      "inputs": [
        {
          "indexed": true,
          "internalType": "uint256",
          "name": "id",
          "type": "uint256"
        },
        {
          "indexed": false,
          "internalType": "uint256",
          "name": "shares",
          "type": "uint256"
        },
        {
          "indexed": true,
          "internalType": "address",
          "name": "to",
          "type": "address"
        }
      ],
      "name": "DepositBurned",
      "type": "event"
    },
    {
      "anonymous": false,
      "inputs": [
        {
          "indexed": true,
          "internalType": "uint256",
          "name": "id",
          "type": "uint256"
        },
        {
          "indexed": false,
          "internalType": "uint256",
          "name": "groupId",
          "type": "uint256"
        },
        {
          "indexed": false,
          "internalType": "uint256",
          "name": "amount",
          "type": "uint256"
        },
        {
          "indexed": false,
          "internalType": "uint256",
          "name": "shares",
          "type": "uint256"
        },
        {
          "indexed": true,
          "internalType": "address",
          "name": "depositor",
          "type": "address"
        },
        {
          "indexed": true,
          "internalType": "address",
          "name": "claimer",
          "type": "address"
        },
        {
          "indexed": false,
          "internalType": "uint256",
          "name": "claimerId",
          "type": "uint256"
        },
        {
          "indexed": false,
          "internalType": "uint256",
          "name": "lockedUntil",
          "type": "uint256"
        }
      ],
      "name": "DepositMinted",
      "type": "event"
    },
    {
      "anonymous": false,
      "inputs": [
        {
          "indexed": false,
          "internalType": "uint256",
          "name": "percentage",
          "type": "uint256"
        }
      ],
      "name": "InvestPercentageUpdated",
      "type": "event"
    },
    {
      "anonymous": false,
      "inputs": [
        {
          "indexed": false,
          "internalType": "uint256",
          "name": "amount",
          "type": "uint256"
        }
      ],
      "name": "Invested",
      "type": "event"
    },
    {
      "anonymous": false,
      "inputs": [
        {
          "indexed": true,
          "internalType": "uint256",
          "name": "id",
          "type": "uint256"
        },
        {
          "indexed": false,
          "internalType": "uint256",
          "name": "amount",
          "type": "uint256"
        },
        {
          "indexed": true,
          "internalType": "address",
          "name": "depositor",
          "type": "address"
        },
        {
          "indexed": false,
          "internalType": "uint256",
          "name": "lockedUntil",
          "type": "uint256"
        }
      ],
      "name": "Sponsored",
      "type": "event"
    },
    {
      "anonymous": false,
      "inputs": [
        {
          "indexed": true,
          "internalType": "address",
          "name": "strategy",
          "type": "address"
        }
      ],
      "name": "StrategyUpdated",
      "type": "event"
    },
    {
      "anonymous": false,
      "inputs": [
        {
          "indexed": true,
          "internalType": "uint256",
          "name": "id",
          "type": "uint256"
        }
      ],
      "name": "Unsponsored",
      "type": "event"
    },
    {
      "anonymous": false,
      "inputs": [
        {
          "indexed": true,
          "internalType": "address",
          "name": "user",
          "type": "address"
        },
        {
          "indexed": false,
          "internalType": "bool",
          "name": "trusted",
          "type": "bool"
        }
      ],
      "name": "UserTrustUpdated",
      "type": "event"
    },
    {
      "anonymous": false,
      "inputs": [
        {
          "indexed": false,
          "internalType": "uint256",
          "name": "claimerId",
          "type": "uint256"
        },
        {
          "indexed": true,
          "internalType": "address",
          "name": "to",
          "type": "address"
        },
        {
          "indexed": false,
          "internalType": "uint256",
          "name": "amount",
          "type": "uint256"
        },
        {
          "indexed": false,
          "internalType": "uint256",
          "name": "burnedShares",
          "type": "uint256"
        }
      ],
      "name": "YieldClaimed",
      "type": "event"
    },
    {
      "inputs": [],
      "name": "MIN_SPONSOR_LOCK_DURATION",
      "outputs": [
        {
          "internalType": "uint256",
          "name": "",
          "type": "uint256"
        }
      ],
      "stateMutability": "view",
      "type": "function"
    },
    {
      "inputs": [],
      "name": "SHARES_MULTIPLIER",
      "outputs": [
        {
          "internalType": "uint256",
          "name": "",
          "type": "uint256"
        }
      ],
      "stateMutability": "view",
      "type": "function"
    },
    {
      "inputs": [],
      "name": "_blockTimestamp",
      "outputs": [
        {
          "internalType": "uint64",
          "name": "",
          "type": "uint64"
        }
      ],
      "stateMutability": "view",
      "type": "function"
    },
    {
      "inputs": [
        {
          "internalType": "address",
          "name": "_to",
          "type": "address"
        }
      ],
      "name": "claimYield",
      "outputs": [],
      "stateMutability": "nonpayable",
      "type": "function"
    },
    {
      "inputs": [
        {
          "internalType": "uint256",
          "name": "",
          "type": "uint256"
        }
      ],
      "name": "claimer",
      "outputs": [
        {
          "internalType": "uint256",
          "name": "totalPrincipal",
          "type": "uint256"
        },
        {
          "internalType": "uint256",
          "name": "totalShares",
          "type": "uint256"
        }
      ],
      "stateMutability": "view",
      "type": "function"
    },
    {
      "inputs": [],
      "name": "claimers",
      "outputs": [
        {
          "internalType": "contract Claimers",
          "name": "",
          "type": "address"
        }
      ],
      "stateMutability": "view",
      "type": "function"
    },
    {
      "inputs": [
        {
          "components": [
            {
              "internalType": "uint256",
              "name": "amount",
              "type": "uint256"
            },
            {
              "components": [
                {
                  "internalType": "uint16",
                  "name": "pct",
                  "type": "uint16"
                },
                {
                  "internalType": "address",
                  "name": "beneficiary",
                  "type": "address"
                },
                {
                  "internalType": "bytes",
                  "name": "data",
                  "type": "bytes"
                }
              ],
              "internalType": "struct IVault.ClaimParams[]",
              "name": "claims",
              "type": "tuple[]"
            },
            {
              "internalType": "uint256",
              "name": "lockedUntil",
              "type": "uint256"
            }
          ],
          "internalType": "struct IVault.DepositParams",
          "name": "_params",
          "type": "tuple"
        }
      ],
      "name": "deposit",
      "outputs": [],
      "stateMutability": "nonpayable",
      "type": "function"
    },
    {
      "inputs": [],
      "name": "depositors",
      "outputs": [
        {
          "internalType": "contract Depositors",
          "name": "",
          "type": "address"
        }
      ],
      "stateMutability": "view",
      "type": "function"
    },
    {
      "inputs": [
        {
          "internalType": "uint256",
          "name": "",
          "type": "uint256"
        }
      ],
      "name": "deposits",
      "outputs": [
        {
          "internalType": "uint256",
          "name": "amount",
          "type": "uint256"
        },
        {
          "internalType": "uint256",
          "name": "claimerId",
          "type": "uint256"
        },
        {
          "internalType": "uint256",
          "name": "lockedUntil",
          "type": "uint256"
        },
        {
          "internalType": "uint256",
          "name": "shares",
          "type": "uint256"
        }
      ],
      "stateMutability": "view",
      "type": "function"
    },
    {
      "inputs": [
        {
          "internalType": "address",
          "name": "_to",
          "type": "address"
        },
        {
          "internalType": "uint256[]",
          "name": "_ids",
          "type": "uint256[]"
        }
      ],
      "name": "forceWithdraw",
      "outputs": [],
      "stateMutability": "nonpayable",
      "type": "function"
    },
    {
      "inputs": [],
      "name": "investPerc",
      "outputs": [
        {
          "internalType": "uint256",
          "name": "",
          "type": "uint256"
        }
      ],
      "stateMutability": "view",
      "type": "function"
    },
    {
      "inputs": [],
      "name": "investableAmount",
      "outputs": [
        {
          "internalType": "uint256",
          "name": "",
          "type": "uint256"
        }
      ],
      "stateMutability": "view",
      "type": "function"
    },
    {
      "inputs": [
        {
          "internalType": "address",
          "name": "",
          "type": "address"
        }
      ],
      "name": "isTrusted",
      "outputs": [
        {
          "internalType": "bool",
          "name": "",
          "type": "bool"
        }
      ],
      "stateMutability": "view",
      "type": "function"
    },
    {
      "inputs": [],
      "name": "minLockPeriod",
      "outputs": [
        {
          "internalType": "uint256",
          "name": "",
          "type": "uint256"
        }
      ],
      "stateMutability": "view",
      "type": "function"
    },
    {
      "inputs": [
        {
          "internalType": "uint256",
          "name": "claimerId",
          "type": "uint256"
        }
      ],
      "name": "principalOf",
      "outputs": [
        {
          "internalType": "uint256",
          "name": "",
          "type": "uint256"
        }
      ],
      "stateMutability": "view",
      "type": "function"
    },
    {
      "inputs": [
        {
          "internalType": "uint16",
          "name": "_investPerc",
          "type": "uint16"
        }
      ],
      "name": "setInvestPerc",
      "outputs": [],
      "stateMutability": "nonpayable",
      "type": "function"
    },
    {
      "inputs": [
        {
          "internalType": "address",
          "name": "user",
          "type": "address"
        },
        {
          "internalType": "bool",
          "name": "trusted",
          "type": "bool"
        }
      ],
      "name": "setIsTrusted",
      "outputs": [],
      "stateMutability": "nonpayable",
      "type": "function"
    },
    {
      "inputs": [
        {
          "internalType": "address",
          "name": "_strategy",
          "type": "address"
        }
      ],
      "name": "setStrategy",
      "outputs": [],
      "stateMutability": "nonpayable",
      "type": "function"
    },
    {
      "inputs": [
        {
          "internalType": "uint256",
          "name": "claimerId",
          "type": "uint256"
        }
      ],
      "name": "sharesOf",
      "outputs": [
        {
          "internalType": "uint256",
          "name": "",
          "type": "uint256"
        }
      ],
      "stateMutability": "view",
      "type": "function"
    },
    {
      "inputs": [
        {
          "internalType": "uint256",
          "name": "_amount",
          "type": "uint256"
        },
        {
          "internalType": "uint256",
          "name": "_lockedUntil",
          "type": "uint256"
        }
      ],
      "name": "sponsor",
      "outputs": [],
      "stateMutability": "nonpayable",
      "type": "function"
    },
    {
      "inputs": [],
      "name": "strategy",
      "outputs": [
        {
          "internalType": "contract IStrategy",
          "name": "",
          "type": "address"
        }
      ],
      "stateMutability": "view",
      "type": "function"
    },
    {
      "inputs": [
        {
          "internalType": "bytes4",
          "name": "interfaceId",
          "type": "bytes4"
        }
      ],
      "name": "supportsInterface",
      "outputs": [
        {
          "internalType": "bool",
          "name": "",
          "type": "bool"
        }
      ],
      "stateMutability": "view",
      "type": "function"
    },
    {
      "inputs": [],
      "name": "totalPrincipal",
      "outputs": [
        {
          "internalType": "uint256",
          "name": "",
          "type": "uint256"
        }
      ],
      "stateMutability": "view",
      "type": "function"
    },
    {
      "inputs": [],
      "name": "totalShares",
      "outputs": [
        {
          "internalType": "uint256",
          "name": "",
          "type": "uint256"
        }
      ],
      "stateMutability": "view",
      "type": "function"
    },
    {
      "inputs": [],
      "name": "totalSponsored",
      "outputs": [
        {
          "internalType": "uint256",
          "name": "",
          "type": "uint256"
        }
      ],
      "stateMutability": "view",
      "type": "function"
    },
    {
      "inputs": [],
      "name": "totalUnderlying",
      "outputs": [
        {
          "internalType": "uint256",
          "name": "",
          "type": "uint256"
        }
      ],
      "stateMutability": "view",
      "type": "function"
    },
    {
      "inputs": [],
      "name": "totalUnderlyingWithSponsor",
      "outputs": [
        {
          "internalType": "uint256",
          "name": "",
          "type": "uint256"
        }
      ],
      "stateMutability": "view",
      "type": "function"
    },
    {
      "inputs": [],
      "name": "underlying",
      "outputs": [
        {
          "internalType": "contract IERC20",
          "name": "",
          "type": "address"
        }
      ],
      "stateMutability": "view",
      "type": "function"
    },
    {
      "inputs": [
        {
          "internalType": "address",
          "name": "_to",
          "type": "address"
        },
        {
          "internalType": "uint256[]",
          "name": "_ids",
          "type": "uint256[]"
        }
      ],
      "name": "unsponsor",
      "outputs": [],
      "stateMutability": "nonpayable",
      "type": "function"
    },
    {
      "inputs": [],
      "name": "updateInvested",
      "outputs": [],
      "stateMutability": "nonpayable",
      "type": "function"
    },
    {
      "inputs": [
        {
          "internalType": "address",
          "name": "_to",
          "type": "address"
        },
        {
          "internalType": "uint256[]",
          "name": "_ids",
          "type": "uint256[]"
        }
      ],
      "name": "withdraw",
      "outputs": [],
      "stateMutability": "nonpayable",
      "type": "function"
    },
    {
      "inputs": [
        {
          "internalType": "address",
          "name": "_to",
          "type": "address"
        }
      ],
      "name": "yieldFor",
      "outputs": [
        {
          "internalType": "uint256",
          "name": "",
          "type": "uint256"
        }
      ],
      "stateMutability": "view",
      "type": "function"
    }
  ],
  "transactionHash": "0x7f024a57a77d84b428e3a9f58c14274d0c4ed87ec4fe89c6a9873efd7395479c",
  "args": [
    "0x6AF27a81cEb61073CCCA401Ca6b43064F369dc02",
    0,
    9000,
    "0x5641D433c027f9B40a3664752375245b274d1D7d"
  ],
  "numDeployments": 1,
  "solcInputHash": "8d8a008226a357c5d82abe889aeb8b57",
  "bytecode": "0x60a06040523480156200001157600080fd5b5060405162006740380380620067408339810160408190526200003491620002ca565b6001600160a01b03811660008181526020818152604091829020805460ff1916600190811790915591519182528392917fe95aec380cae16330d146d5499ef7db6f3657e477104a733e771bc09e500d986910160405180910390a25060018081905550620000ad826200028d60201b620015c31760201c565b620000ff5760405162461bcd60e51b815260206004820152601960248201527f5661756c743a20696e76616c696420696e76657374506572630000000000000060448201526064015b60405180910390fd5b6001600160a01b038416620001665760405162461bcd60e51b815260206004820152602660248201527f5661756c74436f6e746578743a20756e6465726c79696e672063616e6e6f742060448201526506265203078360d41b6064820152608401620000f6565b600b829055600980546001600160a01b0319166001600160a01b038616179055608083905260405130906200019b9062000295565b6001600160a01b039091168152606060208201819052600a90820152696465706f7369746f727360b01b608082015260a060408201819052600190820152600760fc1b60c082015260e001604051809103906000f08015801562000203573d6000803e3d6000fd5b50600d80546001600160a01b0319166001600160a01b039290921691909117905560405130906200023490620002a3565b6001600160a01b039091168152602001604051809103906000f08015801562000261573d6000803e3d6000fd5b50600e80546001600160a01b0319166001600160a01b0392909216919091179055506200031b92505050565b612710101590565b611b0a80620031b483390190565b611a828062004cbe83390190565b6001600160a01b0381168114620002c757600080fd5b50565b60008060008060808587031215620002e157600080fd5b8451620002ee81620002b1565b80945050602085015192506040850151915060608501516200031081620002b1565b939692955090935050565b608051612e6f62000345600039600081816102bd0152818161195001526119810152612e6f6000f3fe608060405234801561001057600080fd5b50600436106101f05760003560e01c8063947fdb8b1161010f578063bba97d33116100a2578063df6f9ba711610071578063df6f9ba7146104a2578063e4020fdf146104b5578063e84b25a2146104c8578063eb0ebfbc146104db57600080fd5b8063bba97d331461045c578063c63aa3e71461046f578063c70920bc14610487578063d812053f1461048f57600080fd5b8063a8c62e76116100de578063a8c62e76146103d7578063aaa46688146103ea578063b02c43d0146103fd578063b0c29efe1461045457600080fd5b8063947fdb8b1461038457806396d6487914610397578063999927df146103ba578063a164c25d146103cd57600080fd5b80634fc78d68116101875780638293744b116101565780638293744b1461031b578063878ecfec1461032e5780638b6ed67d14610351578063908de6c21461036457600080fd5b80634fc78d68146102855780636f307dc31461028d57806373ae54b5146102b85780637c2032e7146102df57600080fd5b806333a100ca116101c357806333a100ca146102575780633a98ef391461026a5780633c90a170146102735780634b1533b21461027c57600080fd5b806301ffc9a7146101f55780630bedf5c11461021d5780631325d5f1146102335780631393916a14610242575b600080fd5b6102086102033660046128f4565b6104e4565b60405190151581526020015b60405180910390f35b610225610581565b604051908152602001610214565b610225670de0b6b3a764000081565b610255610250366004612944565b6106f3565b005b61025561026536600461297d565b6107a0565b61022560075481565b610225600b5481565b61022560085481565b610255610a63565b6009546102a0906001600160a01b031681565b6040516001600160a01b039091168152602001610214565b6102257f000000000000000000000000000000000000000000000000000000000000000081565b6103066102ed36600461299a565b6005602052600090815260409020805460019091015482565b60408051928352602083019190915201610214565b610255610329366004612a23565b610bd4565b61022561033c36600461299a565b60009081526005602052604090206001015490565b600e546102a0906001600160a01b031681565b61022561037236600461299a565b60009081526005602052604090205490565b610255610392366004612ade565b610c96565b6102086103a536600461297d565b60006020819052908152604090205460ff1681565b6102556103c836600461297d565b610ef0565b6102256212750081565b600a546102a0906001600160a01b031681565b600d546102a0906001600160a01b031681565b61043461040b36600461299a565b600360208190526000918252604090912080546001820154600283015492909301549092919084565b604080519485526020850193909352918301526060820152608001610214565b6102256110ac565b61022561046a36600461297d565b611161565b60405167ffffffffffffffff42168152602001610214565b6102256111fe565b61025561049d366004612b00565b611215565b6102556104b0366004612a23565b611370565b6102556104c3366004612a23565b61142a565b6102556104d6366004612b52565b6114e2565b610225600c5481565b60006001600160e01b031982167fa8d2fb0600000000000000000000000000000000000000000000000000000000148061054757506001600160e01b031982167f9b736be800000000000000000000000000000000000000000000000000000000145b8061057b57507f01ffc9a7000000000000000000000000000000000000000000000000000000006001600160e01b03198316145b92915050565b600a546000906001600160a01b03161561068757600a60009054906101000a90046001600160a01b03166001600160a01b0316634ad0b6846040518163ffffffff1660e01b8152600401602060405180830381865afa1580156105e8573d6000803e3d6000fd5b505050506040513d601f19601f8201168201806040525081019061060c9190612b6d565b6009546040516370a0823160e01b81523060048201526001600160a01b03909116906370a0823190602401602060405180830381865afa158015610654573d6000803e3d6000fd5b505050506040513d601f19601f820116820180604052508101906106789190612b6d565b6106829190612b9c565b905090565b6009546040516370a0823160e01b81523060048201526001600160a01b03909116906370a0823190602401602060405180830381865afa1580156106cf573d6000803e3d6000fd5b505050506040513d601f19601f820116820180604052508101906106829190612b6d565b3360009081526020819052604090205460ff166107435760405162461bcd60e51b8152602060048201526009602482015268155395149554d5115160ba1b60448201526064015b60405180910390fd5b6001600160a01b03821660008181526020818152604091829020805460ff191685151590811790915591519182527fe95aec380cae16330d146d5499ef7db6f3657e477104a733e771bc09e500d986910160405180910390a25050565b3360009081526020819052604090205460ff166107eb5760405162461bcd60e51b8152602060048201526009602482015268155395149554d5115160ba1b604482015260640161073a565b6001600160a01b0381166108415760405162461bcd60e51b815260206004820152601260248201527f5661756c743a2073747261746567792030780000000000000000000000000000604482015260640161073a565b306001600160a01b0316816001600160a01b031663fbfa77cf6040518163ffffffff1660e01b8152600401602060405180830381865afa158015610889573d6000803e3d6000fd5b505050506040513d601f19601f820116820180604052508101906108ad9190612bb4565b6001600160a01b0316146109035760405162461bcd60e51b815260206004820152601460248201527f5661756c743a20696e76616c6964207661756c74000000000000000000000000604482015260640161073a565b600a546001600160a01b0316158061098f5750600a60009054906101000a90046001600160a01b03166001600160a01b0316634ad0b6846040518163ffffffff1660e01b8152600401602060405180830381865afa158015610969573d6000803e3d6000fd5b505050506040513d601f19601f8201168201806040525081019061098d9190612b6d565b155b610a015760405162461bcd60e51b815260206004820152602260248201527f5661756c743a2073747261746567792068617320696e7665737465642066756e60448201527f6473000000000000000000000000000000000000000000000000000000000000606482015260840161073a565b600a80547fffffffffffffffffffffffff0000000000000000000000000000000000000000166001600160a01b0383169081179091556040517f4da9c22c924692646a21cf1f423781ae3285198dc22e8a6912835d3272b90b3c90600090a250565b3360009081526020819052604090205460ff16610aae5760405162461bcd60e51b8152602060048201526009602482015268155395149554d5115160ba1b604482015260640161073a565b600a546001600160a01b0316610b065760405162461bcd60e51b815260206004820152601a60248201527f5661756c743a207374726174656779206973206e6f7420736574000000000000604482015260640161073a565b6000610b106110ac565b90508015610b6957600a54600954610b35916001600160a01b039182169116836115cb565b6040518181527fac9f7997c30b6a3cc9c74953898b5de154359339c7ec0d6d70ceb98e55db1a4b9060200160405180910390a15b600a60009054906101000a90046001600160a01b03166001600160a01b0316634fa5d8546040518163ffffffff1660e01b8152600401600060405180830381600087803b158015610bb957600080fd5b505af1158015610bcd573d6000803e3d6000fd5b5050505050565b60026001541415610c275760405162461bcd60e51b815260206004820152601f60248201527f5265656e7472616e637947756172643a207265656e7472616e742063616c6c00604482015260640161073a565b60026001556001600160a01b038216610c825760405162461bcd60e51b815260206004820181905260248201527f5661756c743a2064657374696e6174696f6e2061646472657373206973203078604482015260640161073a565b610c8e82826000611661565b505060018055565b60026001541415610ce95760405162461bcd60e51b815260206004820152601f60248201527f5265656e7472616e637947756172643a207265656e7472616e742063616c6c00604482015260640161073a565b600260015581610d3b5760405162461bcd60e51b815260206004820152601760248201527f5661756c743a2063616e6e6f742073706f6e736f722030000000000000000000604482015260640161073a565b80610d5457610d4d6212750042612b9c565b9050610db0565b610d616212750042612b9c565b811015610db05760405162461bcd60e51b815260206004820152601d60248201527f5661756c743a206c6f636b2074696d6520697320746f6f20736d616c6c000000604482015260640161073a565b600d546000906001600160a01b0316636a627842336040516001600160e01b031960e084901b1681526001600160a01b0390911660048201526024016020604051808303816000875af1158015610e0b573d6000803e3d6000fd5b505050506040513d601f19601f82011682018060405250810190610e2f9190612b6d565b60408051608081018252858152600060208083018281528385018881526060850184815287855260039384905295909320935184555160018401559051600283015591519101559050336001600160a01b0316817f7ca3497675c6d3ec00b1edc13b8e0b06169ee96a663ab25a74af7da53378f09e8585604051610ebd929190918252602082015260400190565b60405180910390a382600c6000828254610ed79190612b9c565b90915550610ee7905033846116eb565b50506001805550565b60026001541415610f435760405162461bcd60e51b815260206004820152601f60248201527f5265656e7472616e637947756172643a207265656e7472616e742063616c6c00604482015260640161073a565b60026001556001600160a01b038116610f9e5760405162461bcd60e51b815260206004820181905260248201527f5661756c743a2064657374696e6174696f6e2061646472657373206973203078604482015260640161073a565b600e546000906001600160a01b03166342ec38e2336040516001600160e01b031960e084901b1681526001600160a01b039091166004820152602401602060405180830381865afa158015610ff7573d6000803e3d6000fd5b505050506040513d601f19601f8201168201806040525081019061101b9190612b6d565b9050600080611029836117a0565b91509150806000141561103e575050506110a5565b600954611055906001600160a01b031685836115cb565b60408051848152602081018390529081018390526001600160a01b038516907fc64c05237373d420472e7259849c0a314d9c3424021920543562ceffa9b10f949060600160405180910390a25050505b5060018055565b6000806110c3600b546110bd610581565b90611840565b90506000600a60009054906101000a90046001600160a01b03166001600160a01b0316634ad0b6846040518163ffffffff1660e01b8152600401602060405180830381865afa15801561111a573d6000803e3d6000fd5b505050506040513d601f19601f8201168201806040525081019061113e9190612b6d565b90508181106111505760009250505090565b61115a8183612bd1565b9250505090565b600e546040517f42ec38e20000000000000000000000000000000000000000000000000000000081526001600160a01b03838116600483015260009283929116906342ec38e290602401602060405180830381865afa1580156111c8573d6000803e3d6000fd5b505050506040513d601f19601f820116820180604052508101906111ec9190612b6d565b90506111f781611859565b9392505050565b6000600c5461120b610581565b6106829190612bd1565b600260015414156112685760405162461bcd60e51b815260206004820152601f60248201527f5265656e7472616e637947756172643a207265656e7472616e742063616c6c00604482015260640161073a565b600260015560085460009061127c906118a9565b905081356112cc5760405162461bcd60e51b815260206004820152601760248201527f5661756c743a2063616e6e6f74206465706f7369742030000000000000000000604482015260640161073a565b6112d46111fe565b8111156113495760405162461bcd60e51b815260206004820152602c60248201527f5661756c743a2063616e6e6f74206465706f736974207768656e207969656c6460448201527f206973206e656761746976650000000000000000000000000000000000000000606482015260840161073a565b611365823560408401356113606020860186612be8565b611946565b610c8e3383356116eb565b600260015414156113c35760405162461bcd60e51b815260206004820152601f60248201527f5265656e7472616e637947756172643a207265656e7472616e742063616c6c00604482015260640161073a565b60026001556001600160a01b03821661141e5760405162461bcd60e51b815260206004820181905260248201527f5661756c743a2064657374696e6174696f6e2061646472657373206973203078604482015260640161073a565b610c8e82826001611661565b6002600154141561147d5760405162461bcd60e51b815260206004820152601f60248201527f5265656e7472616e637947756172643a207265656e7472616e742063616c6c00604482015260640161073a565b60026001556001600160a01b0382166114d85760405162461bcd60e51b815260206004820181905260248201527f5661756c743a2064657374696e6174696f6e2061646472657373206973203078604482015260640161073a565b610c8e8282611b8c565b3360009081526020819052604090205460ff1661152d5760405162461bcd60e51b8152602060048201526009602482015268155395149554d5115160ba1b604482015260640161073a565b61ffff811661271010156115835760405162461bcd60e51b815260206004820152601960248201527f5661756c743a20696e76616c696420696e766573745065726300000000000000604482015260640161073a565b60405161ffff821681527fdd970e7931ce785c1e52bab847c1a662f017c55c66edb76ddebbf61b5aa307859060200160405180910390a161ffff16600b55565b612710101590565b6040516001600160a01b03831660248201526044810182905261165c9084907fa9059cbb00000000000000000000000000000000000000000000000000000000906064015b60408051601f198184030181529190526020810180517bffffffffffffffffffffffffffffffffffffffffffffffffffffffff166001600160e01b031990931692909217909152611e89565b505050565b600754600061166e6111fe565b8451909150600090815b818160ff1610156116ca576116ac878260ff168151811061169b5761169b612c39565b602002602001015186868b8a611f6e565b6116b69084612b9c565b9250806116c281612c4f565b915050611678565b506009546116e2906001600160a01b031688846115cb565b50505050505050565b60006116f5610581565b600954909150611710906001600160a01b0316843085612204565b600061171a610581565b90506117268383612b9c565b811461179a5760405162461bcd60e51b815260206004820152602c60248201527f5661756c743a20616d6f756e7420726563656976656420646f6573206e6f742060448201527f6d6174636820706172616d730000000000000000000000000000000000000000606482015260840161073a565b50505050565b60008060006117ae84611859565b9050806117c15750600093849350915050565b60006117d7826007546117d26111fe565b612255565b905060006117ef826007546117ea6111fe565b612312565b9050816005600088815260200190815260200160002060010160008282546118179190612bd1565b9250508190555081600760008282546118309190612bd1565b9091555091969095509350505050565b600061271061184f8385612c6f565b6111f79190612c8e565b6000818152600560205260408120805460019091015460075483906118829083906117ea6111fe565b905082811161189657506000949350505050565b6118a08382612bd1565b95945050505050565b600a546000906001600160a01b03166118c0575090565b600a546040517f93c3a68f000000000000000000000000000000000000000000000000000000008152600481018490526001600160a01b03909116906393c3a68f90602401602060405180830381865afa158015611922573d6000803e3d6000fd5b505050506040513d601f19601f8201168201806040525081019061057b9190612b6d565b8261197c576119757f000000000000000000000000000000000000000000000000000000000000000042612b9c565b92506119f5565b6119a67f000000000000000000000000000000000000000000000000000000000000000042612b9c565b8310156119f55760405162461bcd60e51b815260206004820152601d60248201527f5661756c743a206c6f636b2074696d6520697320746f6f20736d616c6c000000604482015260640161073a565b6007546000611a026111fe565b90506000611a0f60025490565b9050600084611a22600280546001019055565b60005b81811015611b09576000888883818110611a4157611a41612c39565b9050602002810190611a539190612cb0565b611a5c90612cd0565b805190915061ffff16611ad75760405162461bcd60e51b815260206004820152602360248201527f5661756c743a20636c61696d2070657263656e746167652063616e6e6f74206260448201527f6520300000000000000000000000000000000000000000000000000000000000606482015260840161073a565b611ae5858c8c848b8b612341565b8051611af59061ffff1685612b9c565b93505080611b0290612d90565b9050611a25565b506127108214611b815760405162461bcd60e51b815260206004820152602260248201527f5661756c743a20636c61696d7320646f6e27742061646420757020746f20313060448201527f3025000000000000000000000000000000000000000000000000000000000000606482015260840161073a565b505050505050505050565b8051600090815b818160ff161015611e02576000848260ff1681518110611bb557611bb5612c39565b6020908102919091018101516000818152600390925260408083206002810154600190910154600d5492516331a9108f60e11b8152600481018590529395509093909290916001600160a01b031690636352211e90602401602060405180830381865afa158015611c2a573d6000803e3d6000fd5b505050506040513d601f19601f82011682018060405250810190611c4e9190612bb4565b6000858152600360205260409020549091506001600160a01b0382163314611cb85760405162461bcd60e51b815260206004820152601a60248201527f5661756c743a20796f7520617265206e6f7420616c6c6f776564000000000000604482015260640161073a565b42841115611d085760405162461bcd60e51b815260206004820152601760248201527f5661756c743a20616d6f756e74206973206c6f636b6564000000000000000000604482015260640161073a565b8215611d565760405162461bcd60e51b815260206004820181905260248201527f5661756c743a20746f6b656e206964206973206e6f7420612073706f6e736f72604482015260640161073a565b611d608189612b9c565b600d54604051630852cd8d60e31b8152600481018890529199506001600160a01b0316906342966c6890602401600060405180830381600087803b158015611da757600080fd5b505af1158015611dbb573d6000803e3d6000fd5b50506040518792507f05394e48d744e4a16d65f52f88cdaf0f60f5d18af259df878d44cb80826d221f9150600090a250505050508080611dfa90612c4f565b915050611b93565b5081611e0c610581565b811115611e5b5760405162461bcd60e51b815260206004820152601760248201527f5661756c743a206e6f7420656e6f7567682066756e6473000000000000000000604482015260640161073a565b82600c6000828254611e6d9190612bd1565b9091555050600954610bcd906001600160a01b031686836115cb565b6000611ede826040518060400160405280602081526020017f5361666545524332303a206c6f772d6c6576656c2063616c6c206661696c6564815250856001600160a01b03166124fd9092919063ffffffff16565b80519091501561165c5780806020019051810190611efc9190612dab565b61165c5760405162461bcd60e51b815260206004820152602a60248201527f5361666545524332303a204552433230206f7065726174696f6e20646964206e60448201527f6f74207375636365656400000000000000000000000000000000000000000000606482015260840161073a565b600033600d546040516331a9108f60e11b8152600481018990526001600160a01b039283169290911690636352211e90602401602060405180830381865afa158015611fbe573d6000803e3d6000fd5b505050506040513d601f19601f82011682018060405250810190611fe29190612bb4565b6001600160a01b03161461205e5760405162461bcd60e51b815260206004820152602960248201527f5661756c743a20796f7520617265206e6f7420746865206f776e6572206f662060448201527f61206465706f7369740000000000000000000000000000000000000000000000606482015260840161073a565b6000868152600360205260409020600201544210156120bf5760405162461bcd60e51b815260206004820152601860248201527f5661756c743a206465706f736974206973206c6f636b65640000000000000000604482015260640161073a565b6000868152600360205260409020600101546121435760405162461bcd60e51b815260206004820152602260248201527f5661756c743a206465706f736974206964206973206e6f742061206465706f7360448201527f6974000000000000000000000000000000000000000000000000000000000000606482015260840161073a565b600080612153888888888861250c565b600d54604051630852cd8d60e31b8152600481018c90529294509092506001600160a01b0316906342966c6890602401600060405180830381600087803b15801561219d57600080fd5b505af11580156121b1573d6000803e3d6000fd5b50505050846001600160a01b0316887f95fa98cd1a0b1d7d20d4f5d9f62889e8cfd8d172a99939d2a2f46bb668eb2f4f846040516121f191815260200190565b60405180910390a3979650505050505050565b6040516001600160a01b038085166024830152831660448201526064810182905261179a9085907f23b872dd0000000000000000000000000000000000000000000000000000000090608401611610565b600083612264575060006111f7565b826122825761227b670de0b6b3a764000085612c6f565b90506111f7565b816122f55760405162461bcd60e51b815260206004820152603660248201527f5661756c743a2063616e6e6f7420636f6d70757465207368617265732077686560448201527f6e2074686572652773206e6f207072696e636970616c00000000000000000000606482015260840161073a565b816123008486612c6f565b61230a9190612c8e565b949350505050565b600082158061231f575081155b1561232c575060006111f7565b826123378584612c6f565b61227b9190612c8e565b825160009061235590879061ffff16611840565b600e5460208601516040517f6a6278420000000000000000000000000000000000000000000000000000000081526001600160a01b039182166004820152929350600092911690636a627842906024016020604051808303816000875af11580156123c4573d6000803e3d6000fd5b505050506040513d601f19601f820116820180604052508101906123e89190612b6d565b600d549091506000906001600160a01b0316636a627842336040516001600160e01b031960e084901b1681526001600160a01b0390911660048201526024016020604051808303816000875af1158015612446573d6000803e3d6000fd5b505050506040513d601f19601f8201168201806040525081019061246a9190612b6d565b9050600061247c8383868b8a8a61269b565b905086602001516001600160a01b03166124933390565b604080518d81526020810188905290810184905260608101869052608081018b90526001600160a01b03919091169084907f98db8624761955d33737f627918f2b1198592f38bb40bbb0a46469b4fe1844b09060a00160405180910390a450505050505050505050565b606061230a848460008561277c565b600085815260036020818152604080842060018082015494820154915485875260059094529185209182015491548594939192908561254c848d8d612255565b905060008582118061255d57508382115b90508980156125695750805b1561258a57826125798587612c6f565b6125839190612c8e565b91506125fe565b80156125fe5760405162461bcd60e51b815260206004820152603560248201527f5661756c743a2063616e6e6f74207769746864726177206d6f7265207468616e60448201527f2074686520617661696c61626c6520616d6f756e740000000000000000000000606482015260840161073a565b6000878152600560205260408120600101805484929061261f908490612bd1565b909155505060008781526005602052604081208054879290612642908490612bd1565b92505081905550816007600082825461265b9190612bd1565b9250508190555084600860008282546126749190612bd1565b90915550829050612686818f8f612312565b98509850505050505050509550959350505050565b6000806126a9868585612255565b905080600560008a815260200190815260200160002060010160008282546126d19190612b9c565b9091555050600088815260056020526040812080548892906126f4908490612b9c565b92505081905550806007600082825461270d9190612b9c565b9250508190555085600860008282546127269190612b9c565b9091555050604080516080810182529687526020808801998a52878201968752606088018381526000998a5260039182905291909820965187559751600187015593516002860155505093519190920155919050565b6060824710156127f45760405162461bcd60e51b815260206004820152602660248201527f416464726573733a20696e73756666696369656e742062616c616e636520666f60448201527f722063616c6c0000000000000000000000000000000000000000000000000000606482015260840161073a565b843b6128425760405162461bcd60e51b815260206004820152601d60248201527f416464726573733a2063616c6c20746f206e6f6e2d636f6e7472616374000000604482015260640161073a565b600080866001600160a01b0316858760405161285e9190612df4565b60006040518083038185875af1925050503d806000811461289b576040519150601f19603f3d011682016040523d82523d6000602084013e6128a0565b606091505b50915091506128b08282866128bb565b979650505050505050565b606083156128ca5750816111f7565b8251156128da5782518084602001fd5b8160405162461bcd60e51b815260040161073a9190612e06565b60006020828403121561290657600080fd5b81356001600160e01b0319811681146111f757600080fd5b6001600160a01b038116811461293357600080fd5b50565b801515811461293357600080fd5b6000806040838503121561295757600080fd5b82356129628161291e565b9150602083013561297281612936565b809150509250929050565b60006020828403121561298f57600080fd5b81356111f78161291e565b6000602082840312156129ac57600080fd5b5035919050565b634e487b7160e01b600052604160045260246000fd5b6040516060810167ffffffffffffffff811182821017156129ec576129ec6129b3565b60405290565b604051601f8201601f1916810167ffffffffffffffff81118282101715612a1b57612a1b6129b3565b604052919050565b60008060408385031215612a3657600080fd5b8235612a418161291e565b915060208381013567ffffffffffffffff80821115612a5f57600080fd5b818601915086601f830112612a7357600080fd5b813581811115612a8557612a856129b3565b8060051b9150612a968483016129f2565b8181529183018401918481019089841115612ab057600080fd5b938501935b83851015612ace57843582529385019390850190612ab5565b8096505050505050509250929050565b60008060408385031215612af157600080fd5b50508035926020909101359150565b600060208284031215612b1257600080fd5b813567ffffffffffffffff811115612b2957600080fd5b8201606081850312156111f757600080fd5b803561ffff81168114612b4d57600080fd5b919050565b600060208284031215612b6457600080fd5b6111f782612b3b565b600060208284031215612b7f57600080fd5b5051919050565b634e487b7160e01b600052601160045260246000fd5b60008219821115612baf57612baf612b86565b500190565b600060208284031215612bc657600080fd5b81516111f78161291e565b600082821015612be357612be3612b86565b500390565b6000808335601e19843603018112612bff57600080fd5b83018035915067ffffffffffffffff821115612c1a57600080fd5b6020019150600581901b3603821315612c3257600080fd5b9250929050565b634e487b7160e01b600052603260045260246000fd5b600060ff821660ff811415612c6657612c66612b86565b60010192915050565b6000816000190483118215151615612c8957612c89612b86565b500290565b600082612cab57634e487b7160e01b600052601260045260246000fd5b500490565b60008235605e19833603018112612cc657600080fd5b9190910192915050565b600060608236031215612ce257600080fd5b612cea6129c9565b612cf383612b3b565b8152602080840135612d048161291e565b82820152604084013567ffffffffffffffff80821115612d2357600080fd5b9085019036601f830112612d3657600080fd5b813581811115612d4857612d486129b3565b612d5a601f8201601f191685016129f2565b91508082523684828501011115612d7057600080fd5b808484018584013760009082019093019290925250604082015292915050565b6000600019821415612da457612da4612b86565b5060010190565b600060208284031215612dbd57600080fd5b81516111f781612936565b60005b83811015612de3578181015183820152602001612dcb565b8381111561179a5750506000910152565b60008251612cc6818460208701612dc8565b6020815260008251806020840152612e25816040850160208701612dc8565b601f01601f1916919091016040019291505056fea2646970667358221220e777a772190d102f65e384a9b4f652a010777c9b5098467bb057e57b00634fb164736f6c634300080a003360806040523480156200001157600080fd5b5060405162001b0a38038062001b0a833981016040819052620000349162000203565b8151829082906200004d90600090602085019062000090565b5080516200006390600190602084019062000090565b5050600780546001600160a01b0319166001600160a01b03959095169490941790935550620002ca915050565b8280546200009e906200028d565b90600052602060002090601f016020900481019282620000c257600085556200010d565b82601f10620000dd57805160ff19168380011785556200010d565b828001600101855582156200010d579182015b828111156200010d578251825591602001919060010190620000f0565b506200011b9291506200011f565b5090565b5b808211156200011b576000815560010162000120565b634e487b7160e01b600052604160045260246000fd5b600082601f8301126200015e57600080fd5b81516001600160401b03808211156200017b576200017b62000136565b604051601f8301601f19908116603f01168101908282118183101715620001a657620001a662000136565b81604052838152602092508683858801011115620001c357600080fd5b600091505b83821015620001e75785820183015181830184015290820190620001c8565b83821115620001f95760008385830101525b9695505050505050565b6000806000606084860312156200021957600080fd5b83516001600160a01b03811681146200023157600080fd5b60208501519093506001600160401b03808211156200024f57600080fd5b6200025d878388016200014c565b935060408601519150808211156200027457600080fd5b5062000283868287016200014c565b9150509250925092565b600181811c90821680620002a257607f821691505b60208210811415620002c457634e487b7160e01b600052602260045260246000fd5b50919050565b61183080620002da6000396000f3fe608060405234801561001057600080fd5b506004361061011b5760003560e01c80636352211e116100b2578063a22cb46511610081578063c87b56dd11610066578063c87b56dd1461025e578063e985e9c514610271578063fbfa77cf146102ad57600080fd5b8063a22cb46514610238578063b88d4fde1461024b57600080fd5b80636352211e146101e95780636a627842146101fc57806370a082311461021d57806395d89b411461023057600080fd5b806323b872dd116100ee57806323b872dd1461019d57806342842e0e146101b057806342966c68146101c35780634f558e79146101d657600080fd5b806301ffc9a71461012057806306fdde0314610148578063081812fc1461015d578063095ea7b314610188575b600080fd5b61013361012e3660046113e9565b6102c0565b60405190151581526020015b60405180910390f35b61015061035d565b60405161013f919061145e565b61017061016b366004611471565b6103ef565b6040516001600160a01b03909116815260200161013f565b61019b6101963660046114a1565b610489565b005b61019b6101ab3660046114cb565b6105bb565b61019b6101be3660046114cb565b610642565b61019b6101d1366004611471565b61065d565b6101336101e4366004611471565b6106c3565b6101706101f7366004611471565b6106e2565b61020f61020a366004611507565b61076d565b60405190815260200161013f565b61020f61022b366004611507565b6107f4565b61015061088e565b61019b610246366004611522565b61089d565b61019b610259366004611574565b6108ac565b61015061026c366004611471565b61093a565b61013361027f366004611650565b6001600160a01b03918216600090815260056020908152604080832093909416825291909152205460ff1690565b600754610170906001600160a01b031681565b60006001600160e01b031982167f80ac58cd00000000000000000000000000000000000000000000000000000000148061032357506001600160e01b031982167f5b5e139f00000000000000000000000000000000000000000000000000000000145b8061035757507f01ffc9a7000000000000000000000000000000000000000000000000000000006001600160e01b03198316145b92915050565b60606000805461036c90611683565b80601f016020809104026020016040519081016040528092919081815260200182805461039890611683565b80156103e55780601f106103ba576101008083540402835291602001916103e5565b820191906000526020600020905b8154815290600101906020018083116103c857829003601f168201915b5050505050905090565b6000818152600260205260408120546001600160a01b031661046d5760405162461bcd60e51b815260206004820152602c60248201527f4552433732313a20617070726f76656420717565727920666f72206e6f6e657860448201526b34b9ba32b73a103a37b5b2b760a11b60648201526084015b60405180910390fd5b506000908152600460205260409020546001600160a01b031690565b6000610494826106e2565b9050806001600160a01b0316836001600160a01b0316141561051e5760405162461bcd60e51b815260206004820152602160248201527f4552433732313a20617070726f76616c20746f2063757272656e74206f776e6560448201527f72000000000000000000000000000000000000000000000000000000000000006064820152608401610464565b336001600160a01b038216148061053a575061053a813361027f565b6105ac5760405162461bcd60e51b815260206004820152603860248201527f4552433732313a20617070726f76652063616c6c6572206973206e6f74206f7760448201527f6e6572206e6f7220617070726f76656420666f7220616c6c00000000000000006064820152608401610464565b6105b68383610a30565b505050565b6105c53382610aab565b6106375760405162461bcd60e51b815260206004820152603160248201527f4552433732313a207472616e736665722063616c6c6572206973206e6f74206f60448201527f776e6572206e6f7220617070726f7665640000000000000000000000000000006064820152608401610464565b6105b6838383610ba2565b6105b6838383604051806020016040528060008152506108ac565b6007546001600160a01b031633146106b75760405162461bcd60e51b815260206004820152601a60248201527f4465706f7369746f72733a206e6f7420617574686f72697a65640000000000006044820152606401610464565b6106c081610d7c565b50565b6000818152600260205260408120546001600160a01b03161515610357565b6000818152600260205260408120546001600160a01b0316806103575760405162461bcd60e51b815260206004820152602960248201527f4552433732313a206f776e657220717565727920666f72206e6f6e657869737460448201527f656e7420746f6b656e00000000000000000000000000000000000000000000006064820152608401610464565b6007546000906001600160a01b031633146107ca5760405162461bcd60e51b815260206004820152601a60248201527f4465706f7369746f72733a206e6f7420617574686f72697a65640000000000006044820152606401610464565b60006107d560065490565b90506107e5600680546001019055565b6103578382610e24565b919050565b60006001600160a01b0382166108725760405162461bcd60e51b815260206004820152602a60248201527f4552433732313a2062616c616e636520717565727920666f7220746865207a6560448201527f726f2061646472657373000000000000000000000000000000000000000000006064820152608401610464565b506001600160a01b031660009081526003602052604090205490565b60606001805461036c90611683565b6108a8338383610e3e565b5050565b6108b63383610aab565b6109285760405162461bcd60e51b815260206004820152603160248201527f4552433732313a207472616e736665722063616c6c6572206973206e6f74206f60448201527f776e6572206e6f7220617070726f7665640000000000000000000000000000006064820152608401610464565b61093484848484610f0d565b50505050565b6000818152600260205260409020546060906001600160a01b03166109c75760405162461bcd60e51b815260206004820152602f60248201527f4552433732314d657461646174613a2055524920717565727920666f72206e6f60448201527f6e6578697374656e7420746f6b656e00000000000000000000000000000000006064820152608401610464565b60006109de60408051602081019091526000815290565b905060008151116109fe5760405180602001604052806000815250610a29565b80610a0884610f8b565b604051602001610a199291906116be565b6040516020818303038152906040525b9392505050565b6000818152600460205260409020805473ffffffffffffffffffffffffffffffffffffffff19166001600160a01b0384169081179091558190610a72826106e2565b6001600160a01b03167f8c5be1e5ebec7d5bd14f71427d1e84f3dd0314c0f7b2291e5b200ac8c7c3b92560405160405180910390a45050565b6000818152600260205260408120546001600160a01b0316610b245760405162461bcd60e51b815260206004820152602c60248201527f4552433732313a206f70657261746f7220717565727920666f72206e6f6e657860448201526b34b9ba32b73a103a37b5b2b760a11b6064820152608401610464565b6000610b2f836106e2565b9050806001600160a01b0316846001600160a01b03161480610b6a5750836001600160a01b0316610b5f846103ef565b6001600160a01b0316145b80610b9a57506001600160a01b0380821660009081526005602090815260408083209388168352929052205460ff165b949350505050565b826001600160a01b0316610bb5826106e2565b6001600160a01b031614610c315760405162461bcd60e51b815260206004820152602960248201527f4552433732313a207472616e73666572206f6620746f6b656e2074686174206960448201527f73206e6f74206f776e00000000000000000000000000000000000000000000006064820152608401610464565b6001600160a01b038216610cac5760405162461bcd60e51b8152602060048201526024808201527f4552433732313a207472616e7366657220746f20746865207a65726f2061646460448201527f72657373000000000000000000000000000000000000000000000000000000006064820152608401610464565b610cb7600082610a30565b6001600160a01b0383166000908152600360205260408120805460019290610ce0908490611703565b90915550506001600160a01b0382166000908152600360205260408120805460019290610d0e90849061171a565b9091555050600081815260026020526040808220805473ffffffffffffffffffffffffffffffffffffffff19166001600160a01b0386811691821790925591518493918716917fddf252ad1be2c89b69c2b068fc378daa952ba7f163c4a11628f55a4df523b3ef91a4505050565b6000610d87826106e2565b9050610d94600083610a30565b6001600160a01b0381166000908152600360205260408120805460019290610dbd908490611703565b9091555050600082815260026020526040808220805473ffffffffffffffffffffffffffffffffffffffff19169055518391906001600160a01b038416907fddf252ad1be2c89b69c2b068fc378daa952ba7f163c4a11628f55a4df523b3ef908390a45050565b6108a88282604051806020016040528060008152506110bd565b816001600160a01b0316836001600160a01b03161415610ea05760405162461bcd60e51b815260206004820152601960248201527f4552433732313a20617070726f766520746f2063616c6c6572000000000000006044820152606401610464565b6001600160a01b03838116600081815260056020908152604080832094871680845294825291829020805460ff191686151590811790915591519182527f17307eab39ab6107e8899845ad3d59bd9653f200f220920489ca2b5937696c31910160405180910390a3505050565b610f18848484610ba2565b610f248484848461113b565b6109345760405162461bcd60e51b815260206004820152603260248201527f4552433732313a207472616e7366657220746f206e6f6e20455243373231526560448201527131b2b4bb32b91034b6b83632b6b2b73a32b960711b6064820152608401610464565b606081610fcb57505060408051808201909152600181527f3000000000000000000000000000000000000000000000000000000000000000602082015290565b8160005b8115610ff55780610fdf81611732565b9150610fee9050600a83611763565b9150610fcf565b60008167ffffffffffffffff8111156110105761101061155e565b6040519080825280601f01601f19166020018201604052801561103a576020820181803683370190505b5090505b8415610b9a5761104f600183611703565b915061105c600a86611777565b61106790603061171a565b60f81b81838151811061107c5761107c61178b565b60200101907effffffffffffffffffffffffffffffffffffffffffffffffffffffffffffff1916908160001a9053506110b6600a86611763565b945061103e565b6110c78383611284565b6110d4600084848461113b565b6105b65760405162461bcd60e51b815260206004820152603260248201527f4552433732313a207472616e7366657220746f206e6f6e20455243373231526560448201527131b2b4bb32b91034b6b83632b6b2b73a32b960711b6064820152608401610464565b60006001600160a01b0384163b1561127957604051630a85bd0160e11b81526001600160a01b0385169063150b7a029061117f9033908990889088906004016117a1565b6020604051808303816000875af19250505080156111ba575060408051601f3d908101601f191682019092526111b7918101906117dd565b60015b61125f573d8080156111e8576040519150601f19603f3d011682016040523d82523d6000602084013e6111ed565b606091505b5080516112575760405162461bcd60e51b815260206004820152603260248201527f4552433732313a207472616e7366657220746f206e6f6e20455243373231526560448201527131b2b4bb32b91034b6b83632b6b2b73a32b960711b6064820152608401610464565b805181602001fd5b6001600160e01b031916630a85bd0160e11b149050610b9a565b506001949350505050565b6001600160a01b0382166112da5760405162461bcd60e51b815260206004820181905260248201527f4552433732313a206d696e7420746f20746865207a65726f20616464726573736044820152606401610464565b6000818152600260205260409020546001600160a01b03161561133f5760405162461bcd60e51b815260206004820152601c60248201527f4552433732313a20746f6b656e20616c7265616479206d696e746564000000006044820152606401610464565b6001600160a01b038216600090815260036020526040812080546001929061136890849061171a565b9091555050600081815260026020526040808220805473ffffffffffffffffffffffffffffffffffffffff19166001600160a01b03861690811790915590518392907fddf252ad1be2c89b69c2b068fc378daa952ba7f163c4a11628f55a4df523b3ef908290a45050565b6001600160e01b0319811681146106c057600080fd5b6000602082840312156113fb57600080fd5b8135610a29816113d3565b60005b83811015611421578181015183820152602001611409565b838111156109345750506000910152565b6000815180845261144a816020860160208601611406565b601f01601f19169290920160200192915050565b602081526000610a296020830184611432565b60006020828403121561148357600080fd5b5035919050565b80356001600160a01b03811681146107ef57600080fd5b600080604083850312156114b457600080fd5b6114bd8361148a565b946020939093013593505050565b6000806000606084860312156114e057600080fd5b6114e98461148a565b92506114f76020850161148a565b9150604084013590509250925092565b60006020828403121561151957600080fd5b610a298261148a565b6000806040838503121561153557600080fd5b61153e8361148a565b91506020830135801515811461155357600080fd5b809150509250929050565b634e487b7160e01b600052604160045260246000fd5b6000806000806080858703121561158a57600080fd5b6115938561148a565b93506115a16020860161148a565b925060408501359150606085013567ffffffffffffffff808211156115c557600080fd5b818701915087601f8301126115d957600080fd5b8135818111156115eb576115eb61155e565b604051601f8201601f19908116603f011681019083821181831017156116135761161361155e565b816040528281528a602084870101111561162c57600080fd5b82602086016020830137600060208483010152809550505050505092959194509250565b6000806040838503121561166357600080fd5b61166c8361148a565b915061167a6020840161148a565b90509250929050565b600181811c9082168061169757607f821691505b602082108114156116b857634e487b7160e01b600052602260045260246000fd5b50919050565b600083516116d0818460208801611406565b8351908301906116e4818360208801611406565b01949350505050565b634e487b7160e01b600052601160045260246000fd5b600082821015611715576117156116ed565b500390565b6000821982111561172d5761172d6116ed565b500190565b6000600019821415611746576117466116ed565b5060010190565b634e487b7160e01b600052601260045260246000fd5b6000826117725761177261174d565b500490565b6000826117865761178661174d565b500690565b634e487b7160e01b600052603260045260246000fd5b60006001600160a01b038087168352808616602084015250836040830152608060608301526117d36080830184611432565b9695505050505050565b6000602082840312156117ef57600080fd5b8151610a29816113d356fea26469706673582212204ce05328b10fc22c1662306f9850b1f3ca469951243d29374c9b8d6041e4033e64736f6c634300080a00336080604052600780546001600160a01b03191690553480156200002157600080fd5b5060405162001a8238038062001a82833981016040819052620000449162000178565b6040805180820182526008815267436c61696d65727360c01b602080830191825283518085019094526006845265534e44434c4d60d01b9084015281519192916200009291600091620000d2565b508051620000a8906001906020840190620000d2565b5050600780546001600160a01b0319166001600160a01b03939093169290921790915550620001e7565b828054620000e090620001aa565b90600052602060002090601f0160209004810192826200010457600085556200014f565b82601f106200011f57805160ff19168380011785556200014f565b828001600101855582156200014f579182015b828111156200014f57825182559160200191906001019062000132565b506200015d92915062000161565b5090565b5b808211156200015d576000815560010162000162565b6000602082840312156200018b57600080fd5b81516001600160a01b0381168114620001a357600080fd5b9392505050565b600181811c90821680620001bf57607f821691505b60208210811415620001e157634e487b7160e01b600052602260045260246000fd5b50919050565b61188b80620001f76000396000f3fe608060405234801561001057600080fd5b506004361061011b5760003560e01c80636a627842116100b2578063adde18b011610081578063c87b56dd11610066578063c87b56dd14610281578063e985e9c514610294578063fbfa77cf146102d057600080fd5b8063adde18b01461024e578063b88d4fde1461026e57600080fd5b80636a6278421461020d57806370a082311461022057806395d89b4114610233578063a22cb4651461023b57600080fd5b806323b872dd116100ee57806323b872dd1461019d57806342842e0e146101b057806342ec38e2146101c35780636352211e146101fa57600080fd5b806301ffc9a71461012057806306fdde0314610148578063081812fc1461015d578063095ea7b314610188575b600080fd5b61013361012e366004611444565b6102e3565b60405190151581526020015b60405180910390f35b610150610380565b60405161013f91906114b9565b61017061016b3660046114cc565b610412565b6040516001600160a01b03909116815260200161013f565b61019b6101963660046114fc565b6104ac565b005b61019b6101ab366004611526565b6105de565b61019b6101be366004611526565b610665565b6101ec6101d1366004611562565b6001600160a01b031660009081526008602052604090205490565b60405190815260200161013f565b6101706102083660046114cc565b610680565b6101ec61021b366004611562565b61070b565b6101ec61022e366004611562565b6107a7565b610150610841565b61019b61024936600461157d565b610850565b6101ec61025c366004611562565b60086020526000908152604090205481565b61019b61027c3660046115cf565b61085f565b61015061028f3660046114cc565b6108ed565b6101336102a23660046116ab565b6001600160a01b03918216600090815260056020908152604080832093909416825291909152205460ff1690565b600754610170906001600160a01b031681565b60006001600160e01b031982167f80ac58cd00000000000000000000000000000000000000000000000000000000148061034657506001600160e01b031982167f5b5e139f00000000000000000000000000000000000000000000000000000000145b8061037a57507f01ffc9a7000000000000000000000000000000000000000000000000000000006001600160e01b03198316145b92915050565b60606000805461038f906116de565b80601f01602080910402602001604051908101604052809291908181526020018280546103bb906116de565b80156104085780601f106103dd57610100808354040283529160200191610408565b820191906000526020600020905b8154815290600101906020018083116103eb57829003601f168201915b5050505050905090565b6000818152600260205260408120546001600160a01b03166104905760405162461bcd60e51b815260206004820152602c60248201527f4552433732313a20617070726f76656420717565727920666f72206e6f6e657860448201526b34b9ba32b73a103a37b5b2b760a11b60648201526084015b60405180910390fd5b506000908152600460205260409020546001600160a01b031690565b60006104b782610680565b9050806001600160a01b0316836001600160a01b031614156105415760405162461bcd60e51b815260206004820152602160248201527f4552433732313a20617070726f76616c20746f2063757272656e74206f776e6560448201527f72000000000000000000000000000000000000000000000000000000000000006064820152608401610487565b336001600160a01b038216148061055d575061055d81336102a2565b6105cf5760405162461bcd60e51b815260206004820152603860248201527f4552433732313a20617070726f76652063616c6c6572206973206e6f74206f7760448201527f6e6572206e6f7220617070726f76656420666f7220616c6c00000000000000006064820152608401610487565b6105d983836109e3565b505050565b6105e83382610a5e565b61065a5760405162461bcd60e51b815260206004820152603160248201527f4552433732313a207472616e736665722063616c6c6572206973206e6f74206f60448201527f776e6572206e6f7220617070726f7665640000000000000000000000000000006064820152608401610487565b6105d9838383610b55565b6105d98383836040518060200160405280600081525061085f565b6000818152600260205260408120546001600160a01b03168061037a5760405162461bcd60e51b815260206004820152602960248201527f4552433732313a206f776e657220717565727920666f72206e6f6e657869737460448201527f656e7420746f6b656e00000000000000000000000000000000000000000000006064820152608401610487565b6007546000906001600160a01b031633146107685760405162461bcd60e51b815260206004820152601860248201527f436c61696d6572733a206e6f7420617574686f72697a656400000000000000006044820152606401610487565b6001600160a01b0382166000908152600860205260409020548061037a57610794600680546001019055565b5060065461037a8382610d3a565b919050565b60006001600160a01b0382166108255760405162461bcd60e51b815260206004820152602a60248201527f4552433732313a2062616c616e636520717565727920666f7220746865207a6560448201527f726f2061646472657373000000000000000000000000000000000000000000006064820152608401610487565b506001600160a01b031660009081526003602052604090205490565b60606001805461038f906116de565b61085b338383610d54565b5050565b6108693383610a5e565b6108db5760405162461bcd60e51b815260206004820152603160248201527f4552433732313a207472616e736665722063616c6c6572206973206e6f74206f60448201527f776e6572206e6f7220617070726f7665640000000000000000000000000000006064820152608401610487565b6108e784848484610e23565b50505050565b6000818152600260205260409020546060906001600160a01b031661097a5760405162461bcd60e51b815260206004820152602f60248201527f4552433732314d657461646174613a2055524920717565727920666f72206e6f60448201527f6e6578697374656e7420746f6b656e00000000000000000000000000000000006064820152608401610487565b600061099160408051602081019091526000815290565b905060008151116109b157604051806020016040528060008152506109dc565b806109bb84610ea1565b6040516020016109cc929190611719565b6040516020818303038152906040525b9392505050565b6000818152600460205260409020805473ffffffffffffffffffffffffffffffffffffffff19166001600160a01b0384169081179091558190610a2582610680565b6001600160a01b03167f8c5be1e5ebec7d5bd14f71427d1e84f3dd0314c0f7b2291e5b200ac8c7c3b92560405160405180910390a45050565b6000818152600260205260408120546001600160a01b0316610ad75760405162461bcd60e51b815260206004820152602c60248201527f4552433732313a206f70657261746f7220717565727920666f72206e6f6e657860448201526b34b9ba32b73a103a37b5b2b760a11b6064820152608401610487565b6000610ae283610680565b9050806001600160a01b0316846001600160a01b03161480610b1d5750836001600160a01b0316610b1284610412565b6001600160a01b0316145b80610b4d57506001600160a01b0380821660009081526005602090815260408083209388168352929052205460ff165b949350505050565b826001600160a01b0316610b6882610680565b6001600160a01b031614610be45760405162461bcd60e51b815260206004820152602960248201527f4552433732313a207472616e73666572206f6620746f6b656e2074686174206960448201527f73206e6f74206f776e00000000000000000000000000000000000000000000006064820152608401610487565b6001600160a01b038216610c5f5760405162461bcd60e51b8152602060048201526024808201527f4552433732313a207472616e7366657220746f20746865207a65726f2061646460448201527f72657373000000000000000000000000000000000000000000000000000000006064820152608401610487565b610c6a838383610fd3565b610c756000826109e3565b6001600160a01b0383166000908152600360205260408120805460019290610c9e90849061175e565b90915550506001600160a01b0382166000908152600360205260408120805460019290610ccc908490611775565b9091555050600081815260026020526040808220805473ffffffffffffffffffffffffffffffffffffffff19166001600160a01b0386811691821790925591518493918716917fddf252ad1be2c89b69c2b068fc378daa952ba7f163c4a11628f55a4df523b3ef91a4505050565b61085b828260405180602001604052806000815250611109565b816001600160a01b0316836001600160a01b03161415610db65760405162461bcd60e51b815260206004820152601960248201527f4552433732313a20617070726f766520746f2063616c6c6572000000000000006044820152606401610487565b6001600160a01b03838116600081815260056020908152604080832094871680845294825291829020805460ff191686151590811790915591519182527f17307eab39ab6107e8899845ad3d59bd9653f200f220920489ca2b5937696c31910160405180910390a3505050565b610e2e848484610b55565b610e3a84848484611187565b6108e75760405162461bcd60e51b815260206004820152603260248201527f4552433732313a207472616e7366657220746f206e6f6e20455243373231526560448201527131b2b4bb32b91034b6b83632b6b2b73a32b960711b6064820152608401610487565b606081610ee157505060408051808201909152600181527f3000000000000000000000000000000000000000000000000000000000000000602082015290565b8160005b8115610f0b5780610ef58161178d565b9150610f049050600a836117be565b9150610ee5565b60008167ffffffffffffffff811115610f2657610f266115b9565b6040519080825280601f01601f191660200182016040528015610f50576020820181803683370190505b5090505b8415610b4d57610f6560018361175e565b9150610f72600a866117d2565b610f7d906030611775565b60f81b818381518110610f9257610f926117e6565b60200101907effffffffffffffffffffffffffffffffffffffffffffffffffffffffffffff1916908160001a905350610fcc600a866117be565b9450610f54565b6001600160a01b0382166110295760405162461bcd60e51b815260206004820152601e60248201527f436c61696d6572733a2063616e6e6f74206275726e2074686973204e465400006044820152606401610487565b6001600160a01b038316611055576001600160a01b039190911660009081526008602052604090205550565b6001600160a01b038216600090815260086020526040902054156110e15760405162461bcd60e51b815260206004820152602860248201527f436c61696d6572733a2064657374696e6174696f6e20616c726561647920686160448201527f7320616e204e46540000000000000000000000000000000000000000000000006064820152608401610487565b6001600160a01b03928316600090815260086020526040808220829055929093168352912055565b61111383836112d0565b6111206000848484611187565b6105d95760405162461bcd60e51b815260206004820152603260248201527f4552433732313a207472616e7366657220746f206e6f6e20455243373231526560448201527131b2b4bb32b91034b6b83632b6b2b73a32b960711b6064820152608401610487565b60006001600160a01b0384163b156112c557604051630a85bd0160e11b81526001600160a01b0385169063150b7a02906111cb9033908990889088906004016117fc565b6020604051808303816000875af1925050508015611206575060408051601f3d908101601f1916820190925261120391810190611838565b60015b6112ab573d808015611234576040519150601f19603f3d011682016040523d82523d6000602084013e611239565b606091505b5080516112a35760405162461bcd60e51b815260206004820152603260248201527f4552433732313a207472616e7366657220746f206e6f6e20455243373231526560448201527131b2b4bb32b91034b6b83632b6b2b73a32b960711b6064820152608401610487565b805181602001fd5b6001600160e01b031916630a85bd0160e11b149050610b4d565b506001949350505050565b6001600160a01b0382166113265760405162461bcd60e51b815260206004820181905260248201527f4552433732313a206d696e7420746f20746865207a65726f20616464726573736044820152606401610487565b6000818152600260205260409020546001600160a01b03161561138b5760405162461bcd60e51b815260206004820152601c60248201527f4552433732313a20746f6b656e20616c7265616479206d696e746564000000006044820152606401610487565b61139760008383610fd3565b6001600160a01b03821660009081526003602052604081208054600192906113c0908490611775565b9091555050600081815260026020526040808220805473ffffffffffffffffffffffffffffffffffffffff19166001600160a01b03861690811790915590518392907fddf252ad1be2c89b69c2b068fc378daa952ba7f163c4a11628f55a4df523b3ef908290a45050565b6001600160e01b03198116811461144157600080fd5b50565b60006020828403121561145657600080fd5b81356109dc8161142b565b60005b8381101561147c578181015183820152602001611464565b838111156108e75750506000910152565b600081518084526114a5816020860160208601611461565b601f01601f19169290920160200192915050565b6020815260006109dc602083018461148d565b6000602082840312156114de57600080fd5b5035919050565b80356001600160a01b03811681146107a257600080fd5b6000806040838503121561150f57600080fd5b611518836114e5565b946020939093013593505050565b60008060006060848603121561153b57600080fd5b611544846114e5565b9250611552602085016114e5565b9150604084013590509250925092565b60006020828403121561157457600080fd5b6109dc826114e5565b6000806040838503121561159057600080fd5b611599836114e5565b9150602083013580151581146115ae57600080fd5b809150509250929050565b634e487b7160e01b600052604160045260246000fd5b600080600080608085870312156115e557600080fd5b6115ee856114e5565b93506115fc602086016114e5565b925060408501359150606085013567ffffffffffffffff8082111561162057600080fd5b818701915087601f83011261163457600080fd5b813581811115611646576116466115b9565b604051601f8201601f19908116603f0116810190838211818310171561166e5761166e6115b9565b816040528281528a602084870101111561168757600080fd5b82602086016020830137600060208483010152809550505050505092959194509250565b600080604083850312156116be57600080fd5b6116c7836114e5565b91506116d5602084016114e5565b90509250929050565b600181811c908216806116f257607f821691505b6020821081141561171357634e487b7160e01b600052602260045260246000fd5b50919050565b6000835161172b818460208801611461565b83519083019061173f818360208801611461565b01949350505050565b634e487b7160e01b600052601160045260246000fd5b60008282101561177057611770611748565b500390565b6000821982111561178857611788611748565b500190565b60006000198214156117a1576117a1611748565b5060010190565b634e487b7160e01b600052601260045260246000fd5b6000826117cd576117cd6117a8565b500490565b6000826117e1576117e16117a8565b500690565b634e487b7160e01b600052603260045260246000fd5b60006001600160a01b0380871683528086166020840152508360408301526080606083015261182e608083018461148d565b9695505050505050565b60006020828403121561184a57600080fd5b81516109dc8161142b56fea26469706673582212206d57a0d07866a307f3ad18805bd988dc42882d44592e533796092675e0a8a4ee64736f6c634300080a0033",
  "devdoc": {
    "details": "Yield generation strategies not yet implemented",
    "kind": "dev",
    "methods": {
      "constructor": {
        "params": {
          "_underlying": "Underlying ERC20 token to use."
        }
      },
      "supportsInterface(bytes4)": {
        "details": "See {IERC165-supportsInterface}."
      },
      "totalUnderlying()": {
        "returns": {
          "_0": "Total amount of principal and yield help by the vault (not including sponsored amount)."
        }
      }
    },
    "version": 1
  },
  "userdoc": {
    "events": {
      "Sponsored(uint256,uint256,address,uint256)": {
        "notice": "Emitted when a new sponsor deposit is created"
      },
      "Unsponsored(uint256)": {
        "notice": "Emitted when an existing sponsor withdraws"
      }
    },
    "kind": "user",
    "methods": {
      "claimYield(address)": {
        "notice": "See {IVault}"
      },
      "claimers()": {
        "notice": "Yield allocation"
      },
      "deposit((uint256,(uint16,address,bytes)[],uint256))": {
        "notice": "See {IVault}"
      },
      "depositors()": {
        "notice": "Depositors, represented as an NFT per deposit"
      },
      "forceWithdraw(address,uint256[])": {
        "notice": "See {IVault}"
      },
      "investPerc()": {
        "notice": "See {IVault}"
      },
      "investableAmount()": {
        "notice": "See {IVault}"
      },
      "minLockPeriod()": {
        "notice": "See {IVault}"
      },
      "setInvestPerc(uint16)": {
        "notice": "See {IVault}"
      },
      "setStrategy(address)": {
        "notice": "See {IVault}"
      },
      "sponsor(uint256,uint256)": {
        "notice": "See {IVaultSponsoring}"
      },
      "strategy()": {
        "notice": "See {IVault}"
      },
      "totalSponsored()": {
        "notice": "See {IVaultSponsoring}"
      },
      "totalUnderlying()": {
        "notice": "Computes the total amount of principal + yield currently controlled by the vault and the strategy. The principal + yield is the total amount of underlying that can be claimed or withdrawn, excluding the sponsored amount."
      },
      "totalUnderlyingWithSponsor()": {
        "notice": "See {IVault}"
      },
      "underlying()": {
        "notice": "Underlying ERC20 token accepted by the vault See {IVault}"
      },
      "unsponsor(address,uint256[])": {
        "notice": "See {IVaultSponsoring}"
      },
      "updateInvested()": {
        "notice": "See {IVault}"
      },
      "withdraw(address,uint256[])": {
        "notice": "See {IVault}"
      },
      "yieldFor(address)": {
        "notice": "See {IVault}"
      }
    },
    "notice": "A vault where other accounts can deposit an underlying token currency and set distribution params for their principal and yield",
    "version": 1
  },
  "storageLayout": {
    "storage": [
      {
        "astId": 3576,
        "contract": "contracts/Vault.sol:Vault",
        "label": "isTrusted",
        "offset": 0,
        "slot": "0",
        "type": "t_mapping(t_address,t_bool)"
      },
      {
        "astId": 438,
        "contract": "contracts/Vault.sol:Vault",
        "label": "_status",
        "offset": 0,
        "slot": "1",
        "type": "t_uint256"
      },
      {
        "astId": 3667,
        "contract": "contracts/Vault.sol:Vault",
        "label": "depositGroupIds",
        "offset": 0,
        "slot": "2",
        "type": "t_struct(Counter)2657_storage"
      },
      {
        "astId": 3685,
        "contract": "contracts/Vault.sol:Vault",
        "label": "deposits",
        "offset": 0,
        "slot": "3",
        "type": "t_mapping(t_uint256,t_struct(Deposit)3680_storage)"
      },
      {
        "astId": 3688,
        "contract": "contracts/Vault.sol:Vault",
        "label": "_depositIds",
        "offset": 0,
        "slot": "4",
        "type": "t_struct(Counter)2657_storage"
      },
      {
        "astId": 3698,
        "contract": "contracts/Vault.sol:Vault",
        "label": "claimer",
        "offset": 0,
        "slot": "5",
        "type": "t_mapping(t_uint256,t_struct(Claimer)3693_storage)"
      },
      {
        "astId": 3701,
        "contract": "contracts/Vault.sol:Vault",
        "label": "_claimerIds",
        "offset": 0,
        "slot": "6",
        "type": "t_struct(Counter)2657_storage"
      },
      {
        "astId": 3703,
        "contract": "contracts/Vault.sol:Vault",
        "label": "totalShares",
        "offset": 0,
        "slot": "7",
        "type": "t_uint256"
      },
      {
        "astId": 3705,
        "contract": "contracts/Vault.sol:Vault",
        "label": "totalPrincipal",
        "offset": 0,
        "slot": "8",
        "type": "t_uint256"
      },
      {
        "astId": 4212,
        "contract": "contracts/Vault.sol:Vault",
        "label": "underlying",
        "offset": 0,
        "slot": "9",
        "type": "t_contract(IERC20)1091"
      },
      {
        "astId": 4216,
        "contract": "contracts/Vault.sol:Vault",
        "label": "strategy",
        "offset": 0,
        "slot": "10",
        "type": "t_contract(IStrategy)8691"
      },
      {
        "astId": 4219,
        "contract": "contracts/Vault.sol:Vault",
        "label": "investPerc",
        "offset": 0,
        "slot": "11",
        "type": "t_uint256"
      },
      {
        "astId": 4229,
        "contract": "contracts/Vault.sol:Vault",
        "label": "totalSponsored",
        "offset": 0,
        "slot": "12",
        "type": "t_uint256"
      },
      {
        "astId": 4233,
        "contract": "contracts/Vault.sol:Vault",
        "label": "depositors",
        "offset": 0,
        "slot": "13",
        "type": "t_contract(Depositors)10493"
      },
      {
        "astId": 4237,
        "contract": "contracts/Vault.sol:Vault",
        "label": "claimers",
        "offset": 0,
        "slot": "14",
        "type": "t_contract(Claimers)10392"
      }
    ],
    "types": {
      "t_address": {
        "encoding": "inplace",
        "label": "address",
        "numberOfBytes": "20"
      },
      "t_bool": {
        "encoding": "inplace",
        "label": "bool",
        "numberOfBytes": "1"
      },
      "t_contract(Claimers)10392": {
        "encoding": "inplace",
        "label": "contract Claimers",
        "numberOfBytes": "20"
      },
      "t_contract(Depositors)10493": {
        "encoding": "inplace",
        "label": "contract Depositors",
        "numberOfBytes": "20"
      },
      "t_contract(IERC20)1091": {
        "encoding": "inplace",
        "label": "contract IERC20",
        "numberOfBytes": "20"
      },
      "t_contract(IStrategy)8691": {
        "encoding": "inplace",
        "label": "contract IStrategy",
        "numberOfBytes": "20"
      },
      "t_mapping(t_address,t_bool)": {
        "encoding": "mapping",
        "key": "t_address",
        "label": "mapping(address => bool)",
        "numberOfBytes": "32",
        "value": "t_bool"
      },
      "t_mapping(t_uint256,t_struct(Claimer)3693_storage)": {
        "encoding": "mapping",
        "key": "t_uint256",
        "label": "mapping(uint256 => struct BaseVault.Claimer)",
        "numberOfBytes": "32",
        "value": "t_struct(Claimer)3693_storage"
      },
      "t_mapping(t_uint256,t_struct(Deposit)3680_storage)": {
        "encoding": "mapping",
        "key": "t_uint256",
        "label": "mapping(uint256 => struct BaseVault.Deposit)",
        "numberOfBytes": "32",
        "value": "t_struct(Deposit)3680_storage"
      },
      "t_struct(Claimer)3693_storage": {
        "encoding": "inplace",
        "label": "struct BaseVault.Claimer",
        "members": [
          {
            "astId": 3690,
            "contract": "contracts/Vault.sol:Vault",
            "label": "totalPrincipal",
            "offset": 0,
            "slot": "0",
            "type": "t_uint256"
          },
          {
            "astId": 3692,
            "contract": "contracts/Vault.sol:Vault",
            "label": "totalShares",
            "offset": 0,
            "slot": "1",
            "type": "t_uint256"
          }
        ],
        "numberOfBytes": "64"
      },
      "t_struct(Counter)2657_storage": {
        "encoding": "inplace",
        "label": "struct Counters.Counter",
        "members": [
          {
            "astId": 2656,
            "contract": "contracts/Vault.sol:Vault",
            "label": "_value",
            "offset": 0,
            "slot": "0",
            "type": "t_uint256"
          }
        ],
        "numberOfBytes": "32"
      },
      "t_struct(Deposit)3680_storage": {
        "encoding": "inplace",
        "label": "struct BaseVault.Deposit",
        "members": [
          {
            "astId": 3670,
            "contract": "contracts/Vault.sol:Vault",
            "label": "amount",
            "offset": 0,
            "slot": "0",
            "type": "t_uint256"
          },
          {
            "astId": 3673,
            "contract": "contracts/Vault.sol:Vault",
            "label": "claimerId",
            "offset": 0,
            "slot": "1",
            "type": "t_uint256"
          },
          {
            "astId": 3676,
            "contract": "contracts/Vault.sol:Vault",
            "label": "lockedUntil",
            "offset": 0,
            "slot": "2",
            "type": "t_uint256"
          },
          {
            "astId": 3679,
            "contract": "contracts/Vault.sol:Vault",
            "label": "shares",
            "offset": 0,
            "slot": "3",
            "type": "t_uint256"
          }
        ],
        "numberOfBytes": "128"
      },
      "t_uint256": {
        "encoding": "inplace",
        "label": "uint256",
        "numberOfBytes": "32"
      }
    }
  }
}