{
  "address": "0xD5984553718867ab6B266220bDDA6176Ab688f2e",
  "abi": [
    {
      "inputs": [
        {
          "internalType": "address",
          "name": "_vault",
          "type": "address"
        },
        {
          "internalType": "address",
          "name": "_treasury",
          "type": "address"
        },
        {
          "internalType": "address",
          "name": "_ethAnchorRouter",
          "type": "address"
        },
        {
          "internalType": "contract AggregatorV3Interface",
          "name": "_aUstToUstFeed",
          "type": "address"
        },
        {
          "internalType": "contract IExchangeRateFeeder",
          "name": "_exchangeRateFeeder",
          "type": "address"
        },
        {
          "internalType": "contract IERC20",
          "name": "_ustToken",
          "type": "address"
        },
        {
          "internalType": "contract IERC20",
          "name": "_aUstToken",
          "type": "address"
        },
        {
          "internalType": "uint16",
          "name": "_perfFeePct",
          "type": "uint16"
        },
        {
          "internalType": "address",
          "name": "_owner",
          "type": "address"
        },
        {
          "internalType": "address",
          "name": "_uniV2Router",
          "type": "address"
        }
      ],
      "stateMutability": "nonpayable",
      "type": "constructor"
    },
    {
      "anonymous": false,
      "inputs": [
        {
          "indexed": true,
          "internalType": "address",
          "name": "operator",
          "type": "address"
        },
        {
          "indexed": false,
          "internalType": "uint256",
          "name": "ustAmount",
          "type": "uint256"
        },
        {
          "indexed": false,
          "internalType": "uint256",
          "name": "aUstAmount",
          "type": "uint256"
        }
      ],
      "name": "FinishDepositStable",
      "type": "event"
    },
    {
      "anonymous": false,
      "inputs": [
        {
          "indexed": true,
          "internalType": "address",
          "name": "operator",
          "type": "address"
        },
        {
          "indexed": false,
          "internalType": "uint256",
          "name": "aUstAmount",
          "type": "uint256"
        },
        {
          "indexed": false,
          "internalType": "uint256",
          "name": "ustAmount",
          "type": "uint256"
        },
        {
          "indexed": false,
          "internalType": "uint256",
          "name": "underlyingAmount",
          "type": "uint256"
        }
      ],
      "name": "FinishRedeemStable",
      "type": "event"
    },
    {
      "anonymous": false,
      "inputs": [
        {
          "indexed": true,
          "internalType": "address",
          "name": "operator",
          "type": "address"
        },
        {
          "indexed": true,
          "internalType": "uint256",
          "name": "idx",
          "type": "uint256"
        },
        {
          "indexed": false,
          "internalType": "uint256",
          "name": "underlyingAmount",
          "type": "uint256"
        },
        {
          "indexed": false,
          "internalType": "uint256",
          "name": "ustAmount",
          "type": "uint256"
        }
      ],
      "name": "InitDepositStable",
      "type": "event"
    },
    {
      "anonymous": false,
      "inputs": [
        {
          "indexed": true,
          "internalType": "address",
          "name": "operator",
          "type": "address"
        },
        {
          "indexed": false,
          "internalType": "uint256",
          "name": "aUstAmount",
          "type": "uint256"
        }
      ],
      "name": "InitRedeemStable",
      "type": "event"
    },
    {
      "anonymous": false,
      "inputs": [],
      "name": "Initialized",
      "type": "event"
    },
    {
      "anonymous": false,
      "inputs": [
        {
          "indexed": false,
          "internalType": "uint256",
          "name": "amount",
          "type": "uint256"
        }
      ],
      "name": "PerfFeeClaimed",
      "type": "event"
    },
    {
      "anonymous": false,
      "inputs": [
        {
          "indexed": false,
          "internalType": "uint256",
          "name": "pct",
          "type": "uint256"
        }
      ],
      "name": "PerfFeePctUpdated",
      "type": "event"
    },
    {
      "anonymous": false,
      "inputs": [
        {
          "indexed": true,
          "internalType": "bytes32",
          "name": "role",
          "type": "bytes32"
        },
        {
          "indexed": true,
          "internalType": "bytes32",
          "name": "previousAdminRole",
          "type": "bytes32"
        },
        {
          "indexed": true,
          "internalType": "bytes32",
          "name": "newAdminRole",
          "type": "bytes32"
        }
      ],
      "name": "RoleAdminChanged",
      "type": "event"
    },
    {
      "anonymous": false,
      "inputs": [
        {
          "indexed": true,
          "internalType": "bytes32",
          "name": "role",
          "type": "bytes32"
        },
        {
          "indexed": true,
          "internalType": "address",
          "name": "account",
          "type": "address"
        },
        {
          "indexed": true,
          "internalType": "address",
          "name": "sender",
          "type": "address"
        }
      ],
      "name": "RoleGranted",
      "type": "event"
    },
    {
      "anonymous": false,
      "inputs": [
        {
          "indexed": true,
          "internalType": "bytes32",
          "name": "role",
          "type": "bytes32"
        },
        {
          "indexed": true,
          "internalType": "address",
          "name": "account",
          "type": "address"
        },
        {
          "indexed": true,
          "internalType": "address",
          "name": "sender",
          "type": "address"
        }
      ],
      "name": "RoleRevoked",
      "type": "event"
    },
    {
      "inputs": [],
      "name": "DEFAULT_ADMIN_ROLE",
      "outputs": [
        {
          "internalType": "bytes32",
          "name": "",
          "type": "bytes32"
        }
      ],
      "stateMutability": "view",
      "type": "function"
    },
    {
      "inputs": [],
      "name": "MANAGER_ROLE",
      "outputs": [
        {
          "internalType": "bytes32",
          "name": "",
          "type": "bytes32"
        }
      ],
      "stateMutability": "view",
      "type": "function"
    },
    {
      "inputs": [],
      "name": "aUstToUstFeed",
      "outputs": [
        {
          "internalType": "contract AggregatorV3Interface",
          "name": "",
          "type": "address"
        }
      ],
      "stateMutability": "view",
      "type": "function"
    },
    {
      "inputs": [],
      "name": "aUstToken",
      "outputs": [
        {
          "internalType": "contract IERC20",
          "name": "",
          "type": "address"
        }
      ],
      "stateMutability": "view",
      "type": "function"
    },
    {
      "inputs": [
        {
          "internalType": "uint256",
          "name": "_amount",
          "type": "uint256"
        }
      ],
      "name": "applyInvestmentFee",
      "outputs": [
        {
          "internalType": "uint256",
          "name": "",
          "type": "uint256"
        }
      ],
      "stateMutability": "view",
      "type": "function"
    },
    {
      "inputs": [],
      "name": "convertedUst",
      "outputs": [
        {
          "internalType": "uint256",
          "name": "",
          "type": "uint256"
        }
      ],
      "stateMutability": "view",
      "type": "function"
    },
    {
      "inputs": [],
      "name": "currentPerformanceFee",
      "outputs": [
        {
          "internalType": "uint256",
          "name": "",
          "type": "uint256"
        }
      ],
      "stateMutability": "view",
      "type": "function"
    },
    {
      "inputs": [],
      "name": "curvePool",
      "outputs": [
        {
          "internalType": "contract ICurve",
          "name": "",
          "type": "address"
        }
      ],
      "stateMutability": "view",
      "type": "function"
    },
    {
      "inputs": [],
      "name": "depositOperationLength",
      "outputs": [
        {
          "internalType": "uint256",
          "name": "",
          "type": "uint256"
        }
      ],
      "stateMutability": "view",
      "type": "function"
    },
    {
      "inputs": [
        {
          "internalType": "uint256",
          "name": "",
          "type": "uint256"
        }
      ],
      "name": "depositOperations",
      "outputs": [
        {
          "internalType": "address",
          "name": "operator",
          "type": "address"
        },
        {
          "internalType": "uint256",
          "name": "amount",
          "type": "uint256"
        }
      ],
      "stateMutability": "view",
      "type": "function"
    },
    {
      "inputs": [],
      "name": "doHardWork",
      "outputs": [],
      "stateMutability": "nonpayable",
      "type": "function"
    },
    {
      "inputs": [],
      "name": "ethAnchorRouter",
      "outputs": [
        {
          "internalType": "contract IEthAnchorRouter",
          "name": "",
          "type": "address"
        }
      ],
      "stateMutability": "view",
      "type": "function"
    },
    {
      "inputs": [],
      "name": "exchangeRateFeeder",
      "outputs": [
        {
          "internalType": "contract IExchangeRateFeeder",
          "name": "",
          "type": "address"
        }
      ],
      "stateMutability": "view",
      "type": "function"
    },
    {
      "inputs": [
        {
          "internalType": "uint256",
          "name": "idx",
          "type": "uint256"
        }
      ],
      "name": "finishDepositStable",
      "outputs": [],
      "stateMutability": "nonpayable",
      "type": "function"
    },
    {
      "inputs": [
        {
          "internalType": "uint256",
          "name": "idx",
          "type": "uint256"
        }
      ],
      "name": "finishRedeemStable",
      "outputs": [],
      "stateMutability": "nonpayable",
      "type": "function"
    },
    {
      "inputs": [
        {
          "internalType": "bytes32",
          "name": "role",
          "type": "bytes32"
        }
      ],
      "name": "getRoleAdmin",
      "outputs": [
        {
          "internalType": "bytes32",
          "name": "",
          "type": "bytes32"
        }
      ],
      "stateMutability": "view",
      "type": "function"
    },
    {
      "inputs": [
        {
          "internalType": "bytes32",
          "name": "role",
          "type": "bytes32"
        },
        {
          "internalType": "address",
          "name": "account",
          "type": "address"
        }
      ],
      "name": "grantRole",
      "outputs": [],
      "stateMutability": "nonpayable",
      "type": "function"
    },
    {
      "inputs": [
        {
          "internalType": "bytes32",
          "name": "role",
          "type": "bytes32"
        },
        {
          "internalType": "address",
          "name": "account",
          "type": "address"
        }
      ],
      "name": "hasRole",
      "outputs": [
        {
          "internalType": "bool",
          "name": "",
          "type": "bool"
        }
      ],
      "stateMutability": "view",
      "type": "function"
    },
    {
      "inputs": [
        {
          "internalType": "uint256",
          "name": "amount",
          "type": "uint256"
        }
      ],
      "name": "initRedeemStable",
      "outputs": [],
      "stateMutability": "nonpayable",
      "type": "function"
    },
    {
      "inputs": [
        {
          "internalType": "contract AggregatorV3Interface",
          "name": "_ustFeed",
          "type": "address"
        },
        {
          "internalType": "contract AggregatorV3Interface",
          "name": "_underlyingFeed",
          "type": "address"
        }
      ],
      "name": "initializeStrategy",
      "outputs": [],
      "stateMutability": "nonpayable",
      "type": "function"
    },
    {
      "inputs": [],
      "name": "initialized",
      "outputs": [
        {
          "internalType": "bool",
          "name": "",
          "type": "bool"
        }
      ],
      "stateMutability": "view",
      "type": "function"
    },
    {
      "inputs": [],
      "name": "investedAssets",
      "outputs": [
        {
          "internalType": "uint256",
          "name": "",
          "type": "uint256"
        }
      ],
      "stateMutability": "view",
      "type": "function"
    },
    {
      "inputs": [],
      "name": "pendingDeposits",
      "outputs": [
        {
          "internalType": "uint256",
          "name": "",
          "type": "uint256"
        }
      ],
      "stateMutability": "view",
      "type": "function"
    },
    {
      "inputs": [],
      "name": "pendingRedeems",
      "outputs": [
        {
          "internalType": "uint256",
          "name": "",
          "type": "uint256"
        }
      ],
      "stateMutability": "view",
      "type": "function"
    },
    {
      "inputs": [],
      "name": "perfFeePct",
      "outputs": [
        {
          "internalType": "uint16",
          "name": "",
          "type": "uint16"
        }
      ],
      "stateMutability": "view",
      "type": "function"
    },
    {
      "inputs": [],
      "name": "redeemOperationLength",
      "outputs": [
        {
          "internalType": "uint256",
          "name": "",
          "type": "uint256"
        }
      ],
      "stateMutability": "view",
      "type": "function"
    },
    {
      "inputs": [
        {
          "internalType": "uint256",
          "name": "",
          "type": "uint256"
        }
      ],
      "name": "redeemOperations",
      "outputs": [
        {
          "internalType": "address",
          "name": "operator",
          "type": "address"
        },
        {
          "internalType": "uint256",
          "name": "amount",
          "type": "uint256"
        }
      ],
      "stateMutability": "view",
      "type": "function"
    },
    {
      "inputs": [
        {
          "internalType": "bytes32",
          "name": "role",
          "type": "bytes32"
        },
        {
          "internalType": "address",
          "name": "account",
          "type": "address"
        }
      ],
      "name": "renounceRole",
      "outputs": [],
      "stateMutability": "nonpayable",
      "type": "function"
    },
    {
      "inputs": [
        {
          "internalType": "bytes32",
          "name": "role",
          "type": "bytes32"
        },
        {
          "internalType": "address",
          "name": "account",
          "type": "address"
        }
      ],
      "name": "revokeRole",
      "outputs": [],
      "stateMutability": "nonpayable",
      "type": "function"
    },
    {
      "inputs": [
        {
          "internalType": "uint16",
          "name": "_perfFeePct",
          "type": "uint16"
        }
      ],
      "name": "setPerfFeePct",
      "outputs": [],
      "stateMutability": "nonpayable",
      "type": "function"
    },
    {
      "inputs": [
        {
          "internalType": "bytes4",
          "name": "interfaceId",
          "type": "bytes4"
        }
      ],
      "name": "supportsInterface",
      "outputs": [
        {
          "internalType": "bool",
          "name": "",
          "type": "bool"
        }
      ],
      "stateMutability": "view",
      "type": "function"
    },
    {
      "inputs": [],
      "name": "treasury",
      "outputs": [
        {
          "internalType": "address",
          "name": "",
          "type": "address"
        }
      ],
      "stateMutability": "view",
      "type": "function"
    },
    {
      "inputs": [],
      "name": "underlying",
      "outputs": [
        {
          "internalType": "contract IERC20",
          "name": "",
          "type": "address"
        }
      ],
      "stateMutability": "view",
      "type": "function"
    },
    {
      "inputs": [],
      "name": "underlyingFeed",
      "outputs": [
        {
          "internalType": "contract AggregatorV3Interface",
          "name": "",
          "type": "address"
        }
      ],
      "stateMutability": "view",
      "type": "function"
    },
    {
      "inputs": [],
      "name": "underlyingI",
      "outputs": [
        {
          "internalType": "int128",
          "name": "",
          "type": "int128"
        }
      ],
      "stateMutability": "view",
      "type": "function"
    },
    {
      "inputs": [],
      "name": "uniV2Router",
      "outputs": [
        {
          "internalType": "contract IUniswapV2Router01",
          "name": "",
          "type": "address"
        }
      ],
      "stateMutability": "view",
      "type": "function"
    },
    {
      "inputs": [],
      "name": "ustFeed",
      "outputs": [
        {
          "internalType": "contract AggregatorV3Interface",
          "name": "",
          "type": "address"
        }
      ],
      "stateMutability": "view",
      "type": "function"
    },
    {
      "inputs": [],
      "name": "ustI",
      "outputs": [
        {
          "internalType": "int128",
          "name": "",
          "type": "int128"
        }
      ],
      "stateMutability": "view",
      "type": "function"
    },
    {
      "inputs": [],
      "name": "ustToken",
      "outputs": [
        {
          "internalType": "contract IERC20",
          "name": "",
          "type": "address"
        }
      ],
      "stateMutability": "view",
      "type": "function"
    },
    {
      "inputs": [],
      "name": "vault",
      "outputs": [
        {
          "internalType": "address",
          "name": "",
          "type": "address"
        }
      ],
      "stateMutability": "view",
      "type": "function"
    },
    {
      "inputs": [],
      "name": "withdrawAllToVault",
      "outputs": [],
      "stateMutability": "nonpayable",
      "type": "function"
    },
    {
      "inputs": [
        {
          "internalType": "uint256",
          "name": "amount",
          "type": "uint256"
        }
      ],
      "name": "withdrawToVault",
      "outputs": [],
      "stateMutability": "nonpayable",
      "type": "function"
    }
  ],
  "transactionHash": "0x9ac788c8541d235d46a1961e5a8dcdf3eadc83d5b895ea4bb5d05eb2ef7ae311",
  "args": [
    "0x554DCc8bF737AcaC78Fe2F947430E0D46424db9c",
    "0x5641D433c027f9B40a3664752375245b274d1D7d",
    "0x7537aC093cE1315BCE08bBF0bf6f9b86B7475008",
    "0x74f9F75747550fbCa6510610450fe91B5Ed765fe",
    "0x79E0d9bD65196Ead00EE75aB78733B8489E8C1fA",
    "0x6cA13a4ab78dd7D657226b155873A04DB929A3A4",
    "0x006479f75D6622AE6a21BE17C7F555B94c672342",
    300,
    "0x5641D433c027f9B40a3664752375245b274d1D7d",
    "0x7a250d5630B4cF539739dF2C5dAcb4c659F2488D"
  ],
  "numDeployments": 1,
  "solcInputHash": "8d8a008226a357c5d82abe889aeb8b57",
  "bytecode": "0x60806040523480156200001157600080fd5b5060405162003c8938038062003c898339810160408190526200003491620009f2565b898989898888888860016000818a8a8a8a8a8a8a8a6001600160a01b038116620000a55760405162461bcd60e51b815260206004820152601960248201527f4261736553747261746567793a206f776e65722069732030780000000000000060448201526064015b60405180910390fd5b6001600160a01b038616620000fd5760405162461bcd60e51b815260206004820152601a60248201527f4261736553747261746567793a20726f7574657220697320307800000000000060448201526064016200009c565b6001600160a01b038716620001555760405162461bcd60e51b815260206004820152601c60248201527f4261736553747261746567793a2074726561737572792069732030780000000060448201526064016200009c565b6200016f8261ffff16620005a760201b620017061760201c565b620001cb5760405162461bcd60e51b815260206004820152602560248201527f4261736553747261746567793a20696e76616c696420706572666f726d616e63604482015264652066656560d81b60648201526084016200009c565b620001d8600082620005af565b620002047f241ecf16d79d0f8dbfb92cbc07fe17840425976cf0667f022fe9877caa831b0889620005af565b600380546001600160a01b03808a166001600160a01b03199283161790925560028054928b16929091168217905560408051636f307dc360e01b81529051636f307dc3916004808201926020929091908290030181865afa1580156200026e573d6000803e3d6000fd5b505050506040513d601f19601f8201168201806040525081019062000294919062000ade565b600180546001600160a01b03199081166001600160a01b039384161790915560068054821689841617905560078054821688841690811790915560048054909216878416178255600580549387166001600160b01b031990941693909317600160a01b61ffff871602179092556040805163313ce56760e01b8152905163313ce567928281019260209291908290030181865afa1580156200033a573d6000803e3d6000fd5b505050506040513d601f19601f8201168201806040525081019062000360919062000afe565b6200036d90600a62000c36565b600d5550506001546001600160a01b038e8116911614159550620003e59450505050505760405162461bcd60e51b815260206004820152602260248201527f4e6f6e55535453747261746567793a20696e76616c696420756e6465726c79696044820152616e6760f01b60648201526084016200009c565b6001600160a01b0383166200043d5760405162461bcd60e51b815260206004820181905260248201527f4e6f6e55535453747261746567793a20637572766520706f6f6c20697320307860448201526064016200009c565b600e80546001600160a01b0319166001600160a01b03858116919091179091556001600160801b03838116600160801b9184169190910217600f5560045462000497911684600019620005bf602090811b6200170e17901c565b600154620004be906001600160a01b031684600019620005bf602090811b6200170e17901c565b505050505050505050505085601460006101000a8154816001600160a01b0302191690836001600160a01b03160217905550670de0b6b3a7640000600d8190555080601560006101000a8154816001600160a01b0302191690836001600160a01b031602179055506200056281600019600460009054906101000a90046001600160a01b03166001600160a01b0316620005bf60201b6200170e179092919060201c565b60015462000589906001600160a01b031682600019620005bf602090811b6200170e17901c565b50506010805460ff191660011790555062000d229650505050505050565b612710101590565b620005bb8282620006a5565b5050565b604051636eb1769f60e11b81523060048201526001600160a01b038381166024830152600091839186169063dd62ed3e90604401602060405180830381865afa15801562000611573d6000803e3d6000fd5b505050506040513d601f19601f8201168201806040525081019062000637919062000c47565b62000643919062000c61565b604080516001600160a01b038616602482015260448082018490528251808303909101815260649091019091526020810180516001600160e01b0390811663095ea7b360e01b179091529192506200069f918691906200072d16565b50505050565b620006b1828262000810565b620005bb576000828152602081815260408083206001600160a01b03851684529091529020805460ff19166001179055620006e93390565b6001600160a01b0316816001600160a01b0316837f2f8788117e7eff1d82e926ec794901d17c78024a50270940304540a733656f0d60405160405180910390a45050565b600062000789826040518060400160405280602081526020017f5361666545524332303a206c6f772d6c6576656c2063616c6c206661696c6564815250856001600160a01b03166200083b60201b62001840179092919060201c565b8051909150156200080b5780806020019051810190620007aa919062000c7c565b6200080b5760405162461bcd60e51b815260206004820152602a60248201527f5361666545524332303a204552433230206f7065726174696f6e20646964206e6044820152691bdd081cdd58d8d9595960b21b60648201526084016200009c565b505050565b6000828152602081815260408083206001600160a01b038516845290915290205460ff165b92915050565b60606200084c848460008562000856565b90505b9392505050565b606082471015620008b95760405162461bcd60e51b815260206004820152602660248201527f416464726573733a20696e73756666696369656e742062616c616e636520666f6044820152651c8818d85b1b60d21b60648201526084016200009c565b843b620009095760405162461bcd60e51b815260206004820152601d60248201527f416464726573733a2063616c6c20746f206e6f6e2d636f6e747261637400000060448201526064016200009c565b600080866001600160a01b0316858760405162000927919062000ccf565b60006040518083038185875af1925050503d806000811462000966576040519150601f19603f3d011682016040523d82523d6000602084013e6200096b565b606091505b5090925090506200097e82828662000989565b979650505050505050565b606083156200099a5750816200084f565b825115620009ab5782518084602001fd5b8160405162461bcd60e51b81526004016200009c919062000ced565b6001600160a01b0381168114620009dd57600080fd5b50565b8051620009ed81620009c7565b919050565b6000806000806000806000806000806101408b8d03121562000a1357600080fd5b8a5162000a2081620009c7565b60208c0151909a5062000a3381620009c7565b60408c015190995062000a4681620009c7565b60608c015190985062000a5981620009c7565b60808c015190975062000a6c81620009c7565b60a08c015190965062000a7f81620009c7565b60c08c015190955062000a9281620009c7565b60e08c015190945061ffff8116811462000aab57600080fd5b925062000abc6101008c01620009e0565b915062000acd6101208c01620009e0565b90509295989b9194979a5092959850565b60006020828403121562000af157600080fd5b81516200084f81620009c7565b60006020828403121562000b1157600080fd5b815160ff811681146200084f57600080fd5b634e487b7160e01b600052601160045260246000fd5b600181815b8085111562000b7a57816000190482111562000b5e5762000b5e62000b23565b8085161562000b6c57918102915b93841c939080029062000b3e565b509250929050565b60008262000b935750600162000835565b8162000ba25750600062000835565b816001811462000bbb576002811462000bc65762000be6565b600191505062000835565b60ff84111562000bda5762000bda62000b23565b50506001821b62000835565b5060208310610133831016604e8410600b841016171562000c0b575081810a62000835565b62000c17838362000b39565b806000190482111562000c2e5762000c2e62000b23565b029392505050565b60006200084f60ff84168362000b82565b60006020828403121562000c5a57600080fd5b5051919050565b6000821982111562000c775762000c7762000b23565b500190565b60006020828403121562000c8f57600080fd5b815180151581146200084f57600080fd5b60005b8381101562000cbd57818101518382015260200162000ca3565b838111156200069f5750506000910152565b6000825162000ce381846020870162000ca0565b9190910192915050565b602081526000825180602084015262000d0e81604085016020870162000ca0565b601f01601f19169190910160400192915050565b612f578062000d326000396000f3fe608060405234801561001057600080fd5b50600436106102de5760003560e01c806361d027b311610186578063958c2e52116100e3578063d547741f11610097578063eb0469e511610071578063eb0469e51461061c578063ec87621c1461062f578063fbfa77cf1461065657600080fd5b8063d547741f146105d5578063d9db2b77146105e8578063e622ce401461061057600080fd5b8063a354264d116100c8578063a354264d146105b2578063bfd131f1146105ba578063ce8c42e8146105c257600080fd5b8063958c2e5214610597578063a217fddf146105aa57600080fd5b8063781338c01161013a57806391d148541161011f57806391d148541461053a57806393c3a68f14610571578063958437ee1461058457600080fd5b8063781338c01461051e5780639119c0671461053157600080fd5b80636abc84251161016b5780636abc8425146104e55780636e612f9b146104f85780636f307dc31461050b57600080fd5b806361d027b3146104ca57806362eac09d146104dd57600080fd5b806336568abe1161023f5780634d352ab2116101f357806352473754116101cd578063524737541461049b578063563233f6146104ae5780635c074f44146104c157600080fd5b80634d352ab21461044b5780634d50a20b1461045e5780634fa5d8541461049357600080fd5b8063428eab1e11610224578063428eab1e146104325780634a614cf41461043b5780634ad0b6841461044357600080fd5b806336568abe1461040c57806342867f641461041f57600080fd5b80631ce6314711610296578063248a9ca31161027b578063248a9ca3146103b05780632f2ff15d146103e15780632f6556c7146103f457600080fd5b80631ce631471461038a578063218751b21461039d57600080fd5b80631312e0c5116102c75780631312e0c514610320578063158ef93e146103525780631bbec15e1461035f57600080fd5b806301ffc9a7146102e357806307caf9011461030b575b600080fd5b6102f66102f136600461295f565b610669565b60405190151581526020015b60405180910390f35b61031e610319366004612989565b6106d2565b005b61033361032e366004612989565b61094b565b604080516001600160a01b039093168352602083019190915201610302565b6010546102f69060ff1681565b600554610372906001600160a01b031681565b6040516001600160a01b039091168152602001610302565b600754610372906001600160a01b031681565b600e54610372906001600160a01b031681565b6103d36103be366004612989565b60009081526020819052604090206001015490565b604051908152602001610302565b61031e6103ef3660046129b7565b610983565b6010546103729061010090046001600160a01b031681565b61031e61041a3660046129b7565b6109ae565b601154610372906001600160a01b031681565b6103d3600c5481565b600a546103d3565b6103d3610a3a565b61031e6104593660046129e7565b610a5e565b600f805461048091700100000000000000000000000000000000909104900b81565b604051600f9190910b8152602001610302565b61031e610e28565b61031e6104a9366004612989565b610f78565b61031e6104bc366004612a15565b61109c565b6103d360085481565b600354610372906001600160a01b031681565b600b546103d3565b61031e6104f3366004612989565b611210565b601454610372906001600160a01b031681565b600154610372906001600160a01b031681565b600454610372906001600160a01b031681565b6103d360095481565b6102f66105483660046129b7565b6000918252602082815260408084206001600160a01b0393909316845291905290205460ff1690565b6103d361057f366004612989565b61154d565b610333610592366004612989565b61155b565b601554610372906001600160a01b031681565b6103d3600081565b6103d361156b565b61031e6115ae565b61031e6105d0366004612989565b611656565b61031e6105e33660046129b7565b6116e0565b6005546105fd90600160a01b900461ffff1681565b60405161ffff9091168152602001610302565b600f8054610480910b81565b600654610372906001600160a01b031681565b6103d37f241ecf16d79d0f8dbfb92cbc07fe17840425976cf0667f022fe9877caa831b0881565b600254610372906001600160a01b031681565b60006001600160e01b031982167f7965db0b0000000000000000000000000000000000000000000000000000000014806106cc57507f01ffc9a7000000000000000000000000000000000000000000000000000000006001600160e01b03198316145b92915050565b3360009081527fe84508f2c7fa9c351146748b3025cb78b45df37d868e48c6a75102fecdeee645602052604090205460ff166107615760405162461bcd60e51b815260206004820152602360248201527f4261736553747261746567793a2063616c6c6572206973206e6f74206d616e6160448201526233b2b960e91b60648201526084015b60405180910390fd5b600061076b611859565b9050600082116107bd5760405162461bcd60e51b815260206004820152601660248201527f4261736553747261746567793a20616d6f756e742030000000000000000000006044820152606401610758565b81600960008282546107cf9190612a4f565b90915550506006546005546107f1916001600160a01b0391821691168461170e565b6006546040517f07caf901000000000000000000000000000000000000000000000000000000008152600481018490526000916001600160a01b0316906307caf901906024016020604051808303816000875af1158015610856573d6000803e3d6000fd5b505050506040513d601f19601f8201168201806040525081019061087a9190612a67565b6040805180820182526001600160a01b038381168083526020808401898152600b805460018101825560009190915294517f0175b7a638427703f0dbe7bb9bbf987a2551717b34e79f33b5b1008d1fa01db9600290960295860180546001600160a01b031916919095161790935591517f0175b7a638427703f0dbe7bb9bbf987a2551717b34e79f33b5b1008d1fa01dba909301929092559151868152929350917f8ae1a29c2159df38e3ed55004e595d4a504c44b98951a0501db94b7d9dfa2113910160405180910390a2505050565b600a818154811061095b57600080fd5b6000918252602090912060029091020180546001909101546001600160a01b03909116915082565b60008281526020819052604090206001015461099f81336118c7565b6109a98383611945565b505050565b6001600160a01b0381163314610a2c5760405162461bcd60e51b815260206004820152602f60248201527f416363657373436f6e74726f6c3a2063616e206f6e6c792072656e6f756e636560448201527f20726f6c657320666f722073656c6600000000000000000000000000000000006064820152608401610758565b610a3682826119e3565b5050565b6000610a59610a47611a62565b600854610a549190612a4f565b611ac7565b905090565b3360009081527fad3228b676f7d3cd4284a5443f17f1962b36e491b30a40b2405849e597ba5fb5602052604090205460ff16610ae65760405162461bcd60e51b815260206004820152602160248201527f4261736553747261746567793a2063616c6c6572206973206e6f742061646d696044820152603760f91b6064820152608401610758565b60105460ff1615610b5f5760405162461bcd60e51b815260206004820152602360248201527f4e6f6e55535453747261746567793a20616c726561647920696e697469616c6960448201527f7a656400000000000000000000000000000000000000000000000000000000006064820152608401610758565b6010805460017fffffffffffffffffffffff0000000000000000000000000000000000000000009091166101006001600160a01b0386811691909102919091178217909255601180546001600160a01b03191684841617905554604080517f313ce5670000000000000000000000000000000000000000000000000000000081529051600093929092169163313ce567916004808201926020929091908290030181865afa158015610c15573d6000803e3d6000fd5b505050506040513d601f19601f82011682018060405250810190610c399190612a84565b826001600160a01b031663313ce5676040518163ffffffff1660e01b8152600401602060405180830381865afa158015610c77573d6000803e3d6000fd5b505050506040513d601f19601f82011682018060405250810190610c9b9190612a84565b610ca59190612aa7565b90506000600460009054906101000a90046001600160a01b03166001600160a01b031663313ce5676040518163ffffffff1660e01b8152600401602060405180830381865afa158015610cfc573d6000803e3d6000fd5b505050506040513d601f19601f82011682018060405250810190610d209190612a84565b846001600160a01b031663313ce5676040518163ffffffff1660e01b8152600401602060405180830381865afa158015610d5e573d6000803e3d6000fd5b505050506040513d601f19601f82011682018060405250810190610d829190612a84565b610d8c9190612aa7565b90508060ff168260ff161115610dbe57610da68183612acc565b610db190600a612bd3565b6012556001601355610df9565b8060ff168260ff161015610dee576001601255610ddb8282612acc565b610de690600a612bd3565b601355610df9565b600160128190556013555b6040517f5daa87a0e9463431830481fd4b6e3403442dfb9a12b9c07597e9f61d50b633c890600090a150505050565b3360009081527fe84508f2c7fa9c351146748b3025cb78b45df37d868e48c6a75102fecdeee645602052604090205460ff16610eb25760405162461bcd60e51b815260206004820152602360248201527f4261736553747261746567793a2063616c6c6572206973206e6f74206d616e6160448201526233b2b960e91b6064820152608401610758565b60105460ff16610f045760405162461bcd60e51b815260206004820152601f60248201527f4e6f6e55535453747261746567793a206e6f7420696e697469616c697a6564006044820152606401610758565b6000610f0e611c04565b9050600080610f1b611d8e565b600a549193509150610f2f90600190612be2565b60408051858152602081018490526001600160a01b038516917f6a038298ce6aeb4a287c53d57f807bbe0853812eb55b115ede849dc987cca495910160405180910390a3505050565b3360009081527fe84508f2c7fa9c351146748b3025cb78b45df37d868e48c6a75102fecdeee645602052604090205460ff166110025760405162461bcd60e51b815260206004820152602360248201527f4261736553747261746567793a2063616c6c6572206973206e6f74206d616e6160448201526233b2b960e91b6064820152608401610758565b600080600061101084611f47565b92509250925061101e612283565b5060006110296123a5565b600254600154919250611049916001600160a01b039081169116836123d6565b60408051848152602081018490529081018290526001600160a01b038516907f4920436e71acf3ae867da04d3ab39c11ff9414833c8404596505ccb64f47c2209060600160405180910390a25050505050565b3360009081527fad3228b676f7d3cd4284a5443f17f1962b36e491b30a40b2405849e597ba5fb5602052604090205460ff166111245760405162461bcd60e51b815260206004820152602160248201527f4261736553747261746567793a2063616c6c6572206973206e6f742061646d696044820152603760f91b6064820152608401610758565b61ffff811661271010156111a05760405162461bcd60e51b815260206004820152602560248201527f4261736553747261746567793a20696e76616c696420706572666f726d616e6360448201527f65206665650000000000000000000000000000000000000000000000000000006064820152608401610758565b600580547fffffffffffffffffffff0000ffffffffffffffffffffffffffffffffffffffff16600160a01b61ffff8416908102919091179091556040519081527f3c1be17360b5ce4015d5d5ddd50de6e7e9d53d49907f45d72a202e159306938c9060200160405180910390a150565b3360009081527fe84508f2c7fa9c351146748b3025cb78b45df37d868e48c6a75102fecdeee645602052604090205460ff1661129a5760405162461bcd60e51b815260206004820152602360248201527f4261736553747261746567793a2063616c6c6572206973206e6f74206d616e6160448201526233b2b960e91b6064820152608401610758565b600a5481106112eb5760405162461bcd60e51b815260206004820152601960248201527f4261736553747261746567793a206e6f742072756e6e696e67000000000000006044820152606401610758565b6000600a828154811061130057611300612bf9565b60009182526020822060029091020180549092506001600160a01b031690611326611859565b6006546040517fac1a23220000000000000000000000000000000000000000000000000000000081526001600160a01b03858116600483015292935091169063ac1a232290602401600060405180830381600087803b15801561138857600080fd5b505af115801561139c573d6000803e3d6000fd5b505050506000816113ab611859565b6113b59190612be2565b9050600081116114075760405162461bcd60e51b815260206004820152601e60248201527f4261736553747261746567793a206e6f20615553542072657475726e656400006044820152606401610758565b60008460010154905080600860008282546114229190612be2565b9250508190555080600c600082825461143b9190612a4f565b909155505060408051828152602081018490526001600160a01b038616917f225c081659607ca4ffa8d328c88b0c3d6c99d0ba75b002e377abf8b4ca2fdc79910160405180910390a2600a5461149390600190612be2565b86101561150b57600a8054600091906114ae90600190612be2565b815481106114be576114be612bf9565b60009182526020918290206040805180820190915260029092020180546001600160a01b03168083526001918201549290930182905288546001600160a01b031916909217885590870155505b600a80548061151c5761151c612c0f565b60008281526020812060026000199093019283020180546001600160a01b0319168155600101559055505050505050565b60006106cc8261264861241f565b600b818154811061095b57600080fd5b6000600c546000141561157e5750600090565b600060095461158b611859565b6115959190612a4f565b90506115a8816115a3612438565b612491565b91505090565b3360009081527fe84508f2c7fa9c351146748b3025cb78b45df37d868e48c6a75102fecdeee645602052604090205460ff166116385760405162461bcd60e51b815260206004820152602360248201527f4261736553747261746567793a2063616c6c6572206973206e6f74206d616e6160448201526233b2b960e91b6064820152608401610758565b6000611642611859565b9050801561165357611653816106d2565b50565b3360009081527fe84508f2c7fa9c351146748b3025cb78b45df37d868e48c6a75102fecdeee645602052604090205460ff166116535760405162461bcd60e51b815260206004820152602360248201527f4261736553747261746567793a2063616c6c6572206973206e6f74206d616e6160448201526233b2b960e91b6064820152608401610758565b6000828152602081905260409020600101546116fc81336118c7565b6109a983836119e3565b612710101590565b6040517fdd62ed3e0000000000000000000000000000000000000000000000000000000081523060048201526001600160a01b038381166024830152600091839186169063dd62ed3e90604401602060405180830381865afa158015611778573d6000803e3d6000fd5b505050506040513d601f19601f8201168201806040525081019061179c9190612c25565b6117a69190612a4f565b6040516001600160a01b03851660248201526044810182905290915061183a9085907f095ea7b300000000000000000000000000000000000000000000000000000000906064015b60408051601f198184030181529190526020810180517bffffffffffffffffffffffffffffffffffffffffffffffffffffffff166001600160e01b0319909316929092179091526124eb565b50505050565b606061184f84846000856125d0565b90505b9392505050565b6005546040516370a0823160e01b81523060048201526000916001600160a01b0316906370a08231906024015b602060405180830381865afa1580156118a3573d6000803e3d6000fd5b505050506040513d601f19601f82011682018060405250810190610a599190612c25565b6000828152602081815260408083206001600160a01b038516845290915290205460ff16610a3657611903816001600160a01b0316601461270f565b61190e83602061270f565b60405160200161191f929190612c6a565b60408051601f198184030181529082905262461bcd60e51b825261075891600401612ceb565b6000828152602081815260408083206001600160a01b038516845290915290205460ff16610a36576000828152602081815260408083206001600160a01b03851684529091529020805460ff1916600117905561199f3390565b6001600160a01b0316816001600160a01b0316837f2f8788117e7eff1d82e926ec794901d17c78024a50270940304540a733656f0d60405160405180910390a45050565b6000828152602081815260408083206001600160a01b038516845290915290205460ff1615610a36576000828152602081815260408083206001600160a01b0385168085529252808320805460ff1916905551339285917ff6391f5c32d9c69d2a47ea670b442974b53935d1edc7fd64eb21e047a839171b9190a45050565b600080600954611a70611859565b611a7a9190612a4f565b905080611a8957600091505090565b6000611a93612438565b9050611a9f8282612491565b600d54611aac8484612d1e565b611ab69190612d3d565b611ac09190612be2565b9250505090565b60408051600280825260608201835260009283929190602083019080368337505060045482519293506001600160a01b031691839150600090611b0c57611b0c612bf9565b6001600160a01b0392831660209182029290920101526001805483519216918391908110611b3c57611b3c612bf9565b6001600160a01b0392831660209182029290920101526015546040517fd06ca61f000000000000000000000000000000000000000000000000000000008152600092919091169063d06ca61f90611b999087908690600401612db9565b600060405180830381865afa158015611bb6573d6000803e3d6000fd5b505050506040513d6000823e601f3d908101601f19168201604052611bde9190810190612dd2565b905080600181518110611bf357611bf3612bf9565b602002602001015192505050919050565b600080611c0f6123a5565b905060008111611c875760405162461bcd60e51b815260206004820152602360248201527f4e6f6e55535453747261746567793a206e6f20756e6465726c79696e6720657860448201527f69737400000000000000000000000000000000000000000000000000000000006064820152608401610758565b604080516002808252606082018352600092602083019080368337505060015482519293506001600160a01b031691839150600090611cc857611cc8612bf9565b6001600160a01b039283166020918202929092010152600454825191169082906001908110611cf957611cf9612bf9565b6001600160a01b0392831660209182029290920101526015546040516338ed173960e01b81529116906338ed173990611d3f908590600090869030904290600401612e90565b6000604051808303816000875af1158015611d5e573d6000803e3d6000fd5b505050506040513d6000823e601f3d908101601f19168201604052611d869190810190612dd2565b509092915050565b6000806000611d9b6128f0565b905060008111611ded5760405162461bcd60e51b815260206004820152601a60248201527f4261736553747261746567793a206e6f207573742065786973740000000000006044820152606401610758565b8060086000828254611dff9190612a4f565b9091555050600654600454611e21916001600160a01b0391821691168361170e565b6006546040517fa8a15a21000000000000000000000000000000000000000000000000000000008152600481018390526000916001600160a01b03169063a8a15a21906024016020604051808303816000875af1158015611e86573d6000803e3d6000fd5b505050506040513d601f19601f82011682018060405250810190611eaa9190612a67565b604080518082019091526001600160a01b03828116825260208201858152600a805460018101825560009190915292517fc65a7bb8d6351c1cf70c95a316cc6a92839c986682d98bc35f958f4883f9d2a8600290940293840180546001600160a01b0319169190931617909155517fc65a7bb8d6351c1cf70c95a316cc6a92839c986682d98bc35f958f4883f9d2a9909101559491935090915050565b600080600083600b8054905011611fa05760405162461bcd60e51b815260206004820152601960248201527f4261736553747261746567793a206e6f742072756e6e696e67000000000000006044820152606401610758565b6000600b8581548110611fb557611fb5612bf9565b906000526020600020906002020190506000600954611fd2611859565b611fdc9190612a4f565b60018301548354600c5492935090916001600160a01b03909116906000908490612007908590612d1e565b6120119190612d3d565b6006546040517f7249abb90000000000000000000000000000000000000000000000000000000081526001600160a01b038581166004830152929350911690637249abb990602401600060405180830381600087803b15801561207357600080fd5b505af1158015612087573d6000803e3d6000fd5b5050505060006120956128f0565b9050600081116120e75760405162461bcd60e51b815260206004820152601e60248201527f4261736553747261746567793a206e6f7468696e672072656465656d656400006044820152606401610758565b60008282116120f7576000612119565b60055461211990600160a01b900461ffff166121138585612be2565b9061241f565b905080156121725760035460045461213e916001600160a01b039182169116836123d6565b6040518181527f400bdf25b31ddf5f320a4bc5dd19386740a74e689d95b01e02c4b499b51b99549060200160405180910390a15b82600c60008282546121849190612be2565b92505081905550846009600082825461219d9190612be2565b9091555050600b546121b190600190612be2565b8b101561222957600b8054600091906121cc90600190612be2565b815481106121dc576121dc612bf9565b60009182526020918290206040805180820190915260029092020180546001600160a01b0316808352600191820154929093018290528a546001600160a01b0319169092178a5590890155505b600b80548061223a5761223a612c0f565b60008281526020812060026000199093019283020180546001600160a01b0319168155600101559055838561226f8385612be2565b995099509950505050505050509193909250565b60008061228e6128f0565b9050801561239d57604080516002808252606082018352600092602083019080368337505060045482519293506001600160a01b0316918391506000906122d7576122d7612bf9565b6001600160a01b039283166020918202929092010152600180548351921691839190811061230757612307612bf9565b6001600160a01b0392831660209182029290920101526015546040516338ed173960e01b81529116906338ed17399061234d908590600090869030904290600401612e90565b6000604051808303816000875af115801561236c573d6000803e3d6000fd5b505050506040513d6000823e601f3d908101601f191682016040526123949190810190612dd2565b50611ac06123a5565b600091505090565b6001546040516370a0823160e01b81523060048201526000916001600160a01b0316906370a0823190602401611886565b6040516001600160a01b0383166024820152604481018290526109a99084907fa9059cbb00000000000000000000000000000000000000000000000000000000906064016117ee565b600061271061242e8385612d1e565b6118529190612d3d565b601454600480546040517fcdd219390000000000000000000000000000000000000000000000000000000081526001600160a01b039182169281019290925260016024830152600092169063cdd2193990604401611886565b600080600d5484846124a39190612d1e565b6124ad9190612d3d565b9050600c548111156124e157600554600c546124d991600160a01b900461ffff16906121139084612be2565b9150506106cc565b5060009392505050565b6000612540826040518060400160405280602081526020017f5361666545524332303a206c6f772d6c6576656c2063616c6c206661696c6564815250856001600160a01b03166118409092919063ffffffff16565b8051909150156109a9578080602001905181019061255e9190612ecc565b6109a95760405162461bcd60e51b815260206004820152602a60248201527f5361666545524332303a204552433230206f7065726174696f6e20646964206e60448201527f6f742073756363656564000000000000000000000000000000000000000000006064820152608401610758565b6060824710156126485760405162461bcd60e51b815260206004820152602660248201527f416464726573733a20696e73756666696369656e742062616c616e636520666f60448201527f722063616c6c00000000000000000000000000000000000000000000000000006064820152608401610758565b843b6126965760405162461bcd60e51b815260206004820152601d60248201527f416464726573733a2063616c6c20746f206e6f6e2d636f6e74726163740000006044820152606401610758565b600080866001600160a01b031685876040516126b29190612eee565b60006040518083038185875af1925050503d80600081146126ef576040519150601f19603f3d011682016040523d82523d6000602084013e6126f4565b606091505b5091509150612704828286612926565b979650505050505050565b6060600061271e836002612d1e565b612729906002612a4f565b67ffffffffffffffff81111561274157612741612d5f565b6040519080825280601f01601f19166020018201604052801561276b576020820181803683370190505b5090507f3000000000000000000000000000000000000000000000000000000000000000816000815181106127a2576127a2612bf9565b60200101906001600160f81b031916908160001a9053507f7800000000000000000000000000000000000000000000000000000000000000816001815181106127ed576127ed612bf9565b60200101906001600160f81b031916908160001a9053506000612811846002612d1e565b61281c906001612a4f565b90505b60018111156128a1577f303132333435363738396162636465660000000000000000000000000000000085600f166010811061285d5761285d612bf9565b1a60f81b82828151811061287357612873612bf9565b60200101906001600160f81b031916908160001a90535060049490941c9361289a81612f0a565b905061281f565b5083156118525760405162461bcd60e51b815260206004820181905260248201527f537472696e67733a20686578206c656e67746820696e73756666696369656e746044820152606401610758565b600480546040516370a0823160e01b815230928101929092526000916001600160a01b03909116906370a0823190602401611886565b60608315612935575081611852565b8251156129455782518084602001fd5b8160405162461bcd60e51b81526004016107589190612ceb565b60006020828403121561297157600080fd5b81356001600160e01b03198116811461185257600080fd5b60006020828403121561299b57600080fd5b5035919050565b6001600160a01b038116811461165357600080fd5b600080604083850312156129ca57600080fd5b8235915060208301356129dc816129a2565b809150509250929050565b600080604083850312156129fa57600080fd5b8235612a05816129a2565b915060208301356129dc816129a2565b600060208284031215612a2757600080fd5b813561ffff8116811461185257600080fd5b634e487b7160e01b600052601160045260246000fd5b60008219821115612a6257612a62612a39565b500190565b600060208284031215612a7957600080fd5b8151611852816129a2565b600060208284031215612a9657600080fd5b815160ff8116811461185257600080fd5b600060ff821660ff84168060ff03821115612ac457612ac4612a39565b019392505050565b600060ff821660ff841680821015612ae657612ae6612a39565b90039392505050565b600181815b80851115612b2a578160001904821115612b1057612b10612a39565b80851615612b1d57918102915b93841c9390800290612af4565b509250929050565b600082612b41575060016106cc565b81612b4e575060006106cc565b8160018114612b645760028114612b6e57612b8a565b60019150506106cc565b60ff841115612b7f57612b7f612a39565b50506001821b6106cc565b5060208310610133831016604e8410600b8410161715612bad575081810a6106cc565b612bb78383612aef565b8060001904821115612bcb57612bcb612a39565b029392505050565b600061185260ff841683612b32565b600082821015612bf457612bf4612a39565b500390565b634e487b7160e01b600052603260045260246000fd5b634e487b7160e01b600052603160045260246000fd5b600060208284031215612c3757600080fd5b5051919050565b60005b83811015612c59578181015183820152602001612c41565b8381111561183a5750506000910152565b7f416363657373436f6e74726f6c3a206163636f756e7420000000000000000000815260008351612ca2816017850160208801612c3e565b7f206973206d697373696e6720726f6c65200000000000000000000000000000006017918401918201528351612cdf816028840160208801612c3e565b01602801949350505050565b6020815260008251806020840152612d0a816040850160208701612c3e565b601f01601f19169190910160400192915050565b6000816000190483118215151615612d3857612d38612a39565b500290565b600082612d5a57634e487b7160e01b600052601260045260246000fd5b500490565b634e487b7160e01b600052604160045260246000fd5b600081518084526020808501945080840160005b83811015612dae5781516001600160a01b031687529582019590820190600101612d89565b509495945050505050565b82815260406020820152600061184f6040830184612d75565b60006020808385031215612de557600080fd5b825167ffffffffffffffff80821115612dfd57600080fd5b818501915085601f830112612e1157600080fd5b815181811115612e2357612e23612d5f565b8060051b604051601f19603f83011681018181108582111715612e4857612e48612d5f565b604052918252848201925083810185019188831115612e6657600080fd5b938501935b82851015612e8457845184529385019392850192612e6b565b98975050505050505050565b85815284602082015260a060408201526000612eaf60a0830186612d75565b6001600160a01b0394909416606083015250608001529392505050565b600060208284031215612ede57600080fd5b8151801515811461185257600080fd5b60008251612f00818460208701612c3e565b9190910192915050565b600081612f1957612f19612a39565b50600019019056fea264697066735822122032d82c020993102c2b63c802a85055ebd14721364479d3504dca4fe090a8d14c64736f6c634300080a0033",
  "devdoc": {
    "kind": "dev",
    "methods": {
      "currentPerformanceFee()": {
        "returns": {
          "_0": "current performance fee"
        }
      },
      "depositOperationLength()": {
        "returns": {
          "_0": "Length of pending deposit operations"
        }
      },
      "finishDepositStable(uint256)": {
        "params": {
          "idx": "Id of the pending deposit operation"
        }
      },
      "finishRedeemStable(uint256)": {
        "params": {
          "idx": "Id of the pending redeem operation"
        }
      },
      "getRoleAdmin(bytes32)": {
        "details": "Returns the admin role that controls `role`. See {grantRole} and {revokeRole}. To change a role's admin, use {_setRoleAdmin}."
      },
      "grantRole(bytes32,address)": {
        "details": "Grants `role` to `account`. If `account` had not been already granted `role`, emits a {RoleGranted} event. Requirements: - the caller must have ``role``'s admin role."
      },
      "hasRole(bytes32,address)": {
        "details": "Returns `true` if `account` has been granted `role`."
      },
      "initRedeemStable(uint256)": {
        "params": {
          "amount": "Amount of aUST to redeem"
        }
      },
      "investedAssets()": {
        "returns": {
          "_0": "The total amount of underlying"
        }
      },
      "redeemOperationLength()": {
        "returns": {
          "_0": "Length of pending redeem operations"
        }
      },
      "renounceRole(bytes32,address)": {
        "details": "Revokes `role` from the calling account. Roles are often managed via {grantRole} and {revokeRole}: this function's purpose is to provide a mechanism for accounts to lose their privileges if they are compromised (such as when a trusted device is misplaced). If the calling account had been revoked `role`, emits a {RoleRevoked} event. Requirements: - the caller must be `account`."
      },
      "revokeRole(bytes32,address)": {
        "details": "Revokes `role` from `account`. If `account` had been granted `role`, emits a {RoleRevoked} event. Requirements: - the caller must have ``role``'s admin role."
      },
      "setPerfFeePct(uint16)": {
        "params": {
          "_perfFeePct": "The new performance fee %"
        }
      },
      "supportsInterface(bytes4)": {
        "details": "See {IERC165-supportsInterface}."
      }
    },
    "version": 1
  },
  "userdoc": {
    "kind": "user",
    "methods": {
      "applyInvestmentFee(uint256)": {
        "notice": "See {IStrategy}"
      },
      "currentPerformanceFee()": {
        "notice": "Calculate current performance fee amountPerformance fee is in UST"
      },
      "doHardWork()": {
        "notice": "Swaps the underlying currency for UST, and initiates a deposit of all the converted UST into EthAnchorsince EthAnchor uses an asynchronous model, this function only starts the deposit process, but does not finish it."
      },
      "finishDepositStable(uint256)": {
        "notice": "Calls EthAnchor with a pending deposit ID, and attempts to finish it.Must be called some time after `_initDepositStable()`. Will only work if the EthAnchor bridge has finished processing the deposit."
      },
      "finishRedeemStable(uint256)": {
        "notice": "Calls EthAnchor with a pending redeem ID, and attempts to finish it. Once UST is retrieved, convert it back to underlying via Curve Then transfer underlying to vault.Must be called some time after `initRedeemStable()`. Will only work if the EthAnchor bridge has finished processing the deposit."
      },
      "initRedeemStable(uint256)": {
        "notice": "Initiates a withdrawal of UST from EthAnchorsince EthAnchor uses an asynchronous model, this function only starts the redeem process, but does not finish it."
      },
      "initializeStrategy(address,address)": {
        "notice": "Initialize UST / USD, and Underlying / USD chainlink feedSince constructor has too many variables, we initialize these feed in different function"
      },
      "investedAssets()": {
        "notice": "Amount, expressed in the underlying currency, currently in the strategyboth held and invested amounts are included here, using the latest known exchange rates to the underlying currency This will return value without performance fee."
      },
      "setPerfFeePct(uint16)": {
        "notice": "Updates the performance feeCan only be called by governance"
      },
      "underlying()": {
        "notice": "The underlying ERC20 token stored by the vault"
      },
      "vault()": {
        "notice": "The vault linked to this stragegy"
      },
      "withdrawAllToVault()": {
        "notice": "Request withdrawal from EthAnchorsince EthAnchor uses an asynchronous model, we can only request withdrawal for whole aUST"
      },
      "withdrawToVault(uint256)": {
        "notice": "Withdraws a specified amount back to the vaultsince EthAnchor uses an asynchronous model, and there is no underlying amount in the strategy, this function do nothing at all, However override interface of IStrategy."
      }
    },
    "notice": "NonUSTAnchorStrategy for testnet. Since aUST/UST chainlink does not exist on testnet, we use EthAnchorExchangeRateFeeder to get aUST/UST exchange rate. And we use uniswap V2 to swap underlying to UST and vice versa.",
    "version": 1
  },
  "storageLayout": {
    "storage": [
      {
        "astId": 70,
        "contract": "contracts/test/strategy/TestNonUSTAnchorStrategy.sol:TestNonUSTAnchorStrategy",
        "label": "_roles",
        "offset": 0,
        "slot": "0",
        "type": "t_mapping(t_bytes32,t_struct(RoleData)65_storage)"
      },
      {
        "astId": 7776,
        "contract": "contracts/test/strategy/TestNonUSTAnchorStrategy.sol:TestNonUSTAnchorStrategy",
        "label": "underlying",
        "offset": 0,
        "slot": "1",
        "type": "t_contract(IERC20)1091"
      },
      {
        "astId": 7780,
        "contract": "contracts/test/strategy/TestNonUSTAnchorStrategy.sol:TestNonUSTAnchorStrategy",
        "label": "vault",
        "offset": 0,
        "slot": "2",
        "type": "t_address"
      },
      {
        "astId": 7782,
        "contract": "contracts/test/strategy/TestNonUSTAnchorStrategy.sol:TestNonUSTAnchorStrategy",
        "label": "treasury",
        "offset": 0,
        "slot": "3",
        "type": "t_address"
      },
      {
        "astId": 7785,
        "contract": "contracts/test/strategy/TestNonUSTAnchorStrategy.sol:TestNonUSTAnchorStrategy",
        "label": "ustToken",
        "offset": 0,
        "slot": "4",
        "type": "t_contract(IERC20)1091"
      },
      {
        "astId": 7788,
        "contract": "contracts/test/strategy/TestNonUSTAnchorStrategy.sol:TestNonUSTAnchorStrategy",
        "label": "aUstToken",
        "offset": 0,
        "slot": "5",
        "type": "t_contract(IERC20)1091"
      },
      {
        "astId": 7790,
        "contract": "contracts/test/strategy/TestNonUSTAnchorStrategy.sol:TestNonUSTAnchorStrategy",
        "label": "perfFeePct",
        "offset": 20,
        "slot": "5",
        "type": "t_uint16"
      },
      {
        "astId": 7793,
        "contract": "contracts/test/strategy/TestNonUSTAnchorStrategy.sol:TestNonUSTAnchorStrategy",
        "label": "ethAnchorRouter",
        "offset": 0,
        "slot": "6",
        "type": "t_contract(IEthAnchorRouter)9322"
      },
      {
        "astId": 7796,
        "contract": "contracts/test/strategy/TestNonUSTAnchorStrategy.sol:TestNonUSTAnchorStrategy",
        "label": "aUstToUstFeed",
        "offset": 0,
        "slot": "7",
        "type": "t_contract(AggregatorV3Interface)45"
      },
      {
        "astId": 7798,
        "contract": "contracts/test/strategy/TestNonUSTAnchorStrategy.sol:TestNonUSTAnchorStrategy",
        "label": "pendingDeposits",
        "offset": 0,
        "slot": "8",
        "type": "t_uint256"
      },
      {
        "astId": 7800,
        "contract": "contracts/test/strategy/TestNonUSTAnchorStrategy.sol:TestNonUSTAnchorStrategy",
        "label": "pendingRedeems",
        "offset": 0,
        "slot": "9",
        "type": "t_uint256"
      },
      {
        "astId": 7804,
        "contract": "contracts/test/strategy/TestNonUSTAnchorStrategy.sol:TestNonUSTAnchorStrategy",
        "label": "depositOperations",
        "offset": 0,
        "slot": "10",
        "type": "t_array(t_struct(Operation)7768_storage)dyn_storage"
      },
      {
        "astId": 7808,
        "contract": "contracts/test/strategy/TestNonUSTAnchorStrategy.sol:TestNonUSTAnchorStrategy",
        "label": "redeemOperations",
        "offset": 0,
        "slot": "11",
        "type": "t_array(t_struct(Operation)7768_storage)dyn_storage"
      },
      {
        "astId": 7810,
        "contract": "contracts/test/strategy/TestNonUSTAnchorStrategy.sol:TestNonUSTAnchorStrategy",
        "label": "convertedUst",
        "offset": 0,
        "slot": "12",
        "type": "t_uint256"
      },
      {
        "astId": 7812,
        "contract": "contracts/test/strategy/TestNonUSTAnchorStrategy.sol:TestNonUSTAnchorStrategy",
        "label": "_aUstToUstFeedDecimals",
        "offset": 0,
        "slot": "13",
        "type": "t_uint256"
      },
      {
        "astId": 8714,
        "contract": "contracts/test/strategy/TestNonUSTAnchorStrategy.sol:TestNonUSTAnchorStrategy",
        "label": "curvePool",
        "offset": 0,
        "slot": "14",
        "type": "t_contract(ICurve)9350"
      },
      {
        "astId": 8716,
        "contract": "contracts/test/strategy/TestNonUSTAnchorStrategy.sol:TestNonUSTAnchorStrategy",
        "label": "underlyingI",
        "offset": 0,
        "slot": "15",
        "type": "t_int128"
      },
      {
        "astId": 8718,
        "contract": "contracts/test/strategy/TestNonUSTAnchorStrategy.sol:TestNonUSTAnchorStrategy",
        "label": "ustI",
        "offset": 16,
        "slot": "15",
        "type": "t_int128"
      },
      {
        "astId": 8720,
        "contract": "contracts/test/strategy/TestNonUSTAnchorStrategy.sol:TestNonUSTAnchorStrategy",
        "label": "initialized",
        "offset": 0,
        "slot": "16",
        "type": "t_bool"
      },
      {
        "astId": 8723,
        "contract": "contracts/test/strategy/TestNonUSTAnchorStrategy.sol:TestNonUSTAnchorStrategy",
        "label": "ustFeed",
        "offset": 1,
        "slot": "16",
        "type": "t_contract(AggregatorV3Interface)45"
      },
      {
        "astId": 8726,
        "contract": "contracts/test/strategy/TestNonUSTAnchorStrategy.sol:TestNonUSTAnchorStrategy",
        "label": "underlyingFeed",
        "offset": 0,
        "slot": "17",
        "type": "t_contract(AggregatorV3Interface)45"
      },
      {
        "astId": 8728,
        "contract": "contracts/test/strategy/TestNonUSTAnchorStrategy.sol:TestNonUSTAnchorStrategy",
        "label": "_underlyingDecimalsMultiplier",
        "offset": 0,
        "slot": "18",
        "type": "t_uint256"
      },
      {
        "astId": 8730,
        "contract": "contracts/test/strategy/TestNonUSTAnchorStrategy.sol:TestNonUSTAnchorStrategy",
        "label": "_ustDecimalsMultiplier",
        "offset": 0,
        "slot": "19",
        "type": "t_uint256"
      },
      {
        "astId": 9865,
        "contract": "contracts/test/strategy/TestNonUSTAnchorStrategy.sol:TestNonUSTAnchorStrategy",
        "label": "exchangeRateFeeder",
        "offset": 0,
        "slot": "20",
        "type": "t_contract(IExchangeRateFeeder)9334"
      },
      {
        "astId": 9868,
        "contract": "contracts/test/strategy/TestNonUSTAnchorStrategy.sol:TestNonUSTAnchorStrategy",
        "label": "uniV2Router",
        "offset": 0,
        "slot": "21",
        "type": "t_contract(IUniswapV2Router01)9848"
      }
    ],
    "types": {
      "t_address": {
        "encoding": "inplace",
        "label": "address",
        "numberOfBytes": "20"
      },
      "t_array(t_struct(Operation)7768_storage)dyn_storage": {
        "base": "t_struct(Operation)7768_storage",
        "encoding": "dynamic_array",
        "label": "struct BaseStrategy.Operation[]",
        "numberOfBytes": "32"
      },
      "t_bool": {
        "encoding": "inplace",
        "label": "bool",
        "numberOfBytes": "1"
      },
      "t_bytes32": {
        "encoding": "inplace",
        "label": "bytes32",
        "numberOfBytes": "32"
      },
      "t_contract(AggregatorV3Interface)45": {
        "encoding": "inplace",
        "label": "contract AggregatorV3Interface",
        "numberOfBytes": "20"
      },
      "t_contract(ICurve)9350": {
        "encoding": "inplace",
        "label": "contract ICurve",
        "numberOfBytes": "20"
      },
      "t_contract(IERC20)1091": {
        "encoding": "inplace",
        "label": "contract IERC20",
        "numberOfBytes": "20"
      },
      "t_contract(IEthAnchorRouter)9322": {
        "encoding": "inplace",
        "label": "contract IEthAnchorRouter",
        "numberOfBytes": "20"
      },
      "t_contract(IExchangeRateFeeder)9334": {
        "encoding": "inplace",
        "label": "contract IExchangeRateFeeder",
        "numberOfBytes": "20"
      },
      "t_contract(IUniswapV2Router01)9848": {
        "encoding": "inplace",
        "label": "contract IUniswapV2Router01",
        "numberOfBytes": "20"
      },
      "t_int128": {
        "encoding": "inplace",
        "label": "int128",
        "numberOfBytes": "16"
      },
      "t_mapping(t_address,t_bool)": {
        "encoding": "mapping",
        "key": "t_address",
        "label": "mapping(address => bool)",
        "numberOfBytes": "32",
        "value": "t_bool"
      },
      "t_mapping(t_bytes32,t_struct(RoleData)65_storage)": {
        "encoding": "mapping",
        "key": "t_bytes32",
        "label": "mapping(bytes32 => struct AccessControl.RoleData)",
        "numberOfBytes": "32",
        "value": "t_struct(RoleData)65_storage"
      },
      "t_struct(Operation)7768_storage": {
        "encoding": "inplace",
        "label": "struct BaseStrategy.Operation",
        "members": [
          {
            "astId": 7765,
            "contract": "contracts/test/strategy/TestNonUSTAnchorStrategy.sol:TestNonUSTAnchorStrategy",
            "label": "operator",
            "offset": 0,
            "slot": "0",
            "type": "t_address"
          },
          {
            "astId": 7767,
            "contract": "contracts/test/strategy/TestNonUSTAnchorStrategy.sol:TestNonUSTAnchorStrategy",
            "label": "amount",
            "offset": 0,
            "slot": "1",
            "type": "t_uint256"
          }
        ],
        "numberOfBytes": "64"
      },
      "t_struct(RoleData)65_storage": {
        "encoding": "inplace",
        "label": "struct AccessControl.RoleData",
        "members": [
          {
            "astId": 62,
            "contract": "contracts/test/strategy/TestNonUSTAnchorStrategy.sol:TestNonUSTAnchorStrategy",
            "label": "members",
            "offset": 0,
            "slot": "0",
            "type": "t_mapping(t_address,t_bool)"
          },
          {
            "astId": 64,
            "contract": "contracts/test/strategy/TestNonUSTAnchorStrategy.sol:TestNonUSTAnchorStrategy",
            "label": "adminRole",
            "offset": 0,
            "slot": "1",
            "type": "t_bytes32"
          }
        ],
        "numberOfBytes": "64"
      },
      "t_uint16": {
        "encoding": "inplace",
        "label": "uint16",
        "numberOfBytes": "2"
      },
      "t_uint256": {
        "encoding": "inplace",
        "label": "uint256",
        "numberOfBytes": "32"
      }
    }
  }
}