{
  "address": "0x0Ac1d08a5F8C535d002b236E0CA9f94822407B04",
  "abi": [
    {
      "inputs": [
        {
          "internalType": "address",
          "name": "_vault",
          "type": "address"
        },
        {
          "internalType": "address",
          "name": "_treasury",
          "type": "address"
        },
        {
          "internalType": "address",
          "name": "_ethAnchorRouter",
          "type": "address"
        },
        {
          "internalType": "contract AggregatorV3Interface",
          "name": "_aUstToUstFeed",
          "type": "address"
        },
        {
          "internalType": "contract IExchangeRateFeeder",
          "name": "_exchangeRateFeeder",
          "type": "address"
        },
        {
          "internalType": "contract IERC20",
          "name": "_ustToken",
          "type": "address"
        },
        {
          "internalType": "contract IERC20",
          "name": "_aUstToken",
          "type": "address"
        },
        {
          "internalType": "uint16",
          "name": "_perfFeePct",
          "type": "uint16"
        },
        {
          "internalType": "address",
          "name": "_owner",
          "type": "address"
        }
      ],
      "stateMutability": "nonpayable",
      "type": "constructor"
    },
    {
      "anonymous": false,
      "inputs": [
        {
          "indexed": true,
          "internalType": "address",
          "name": "operator",
          "type": "address"
        },
        {
          "indexed": false,
          "internalType": "uint256",
          "name": "ustAmount",
          "type": "uint256"
        },
        {
          "indexed": false,
          "internalType": "uint256",
          "name": "aUstAmount",
          "type": "uint256"
        }
      ],
      "name": "FinishDepositStable",
      "type": "event"
    },
    {
      "anonymous": false,
      "inputs": [
        {
          "indexed": true,
          "internalType": "address",
          "name": "operator",
          "type": "address"
        },
        {
          "indexed": false,
          "internalType": "uint256",
          "name": "aUstAmount",
          "type": "uint256"
        },
        {
          "indexed": false,
          "internalType": "uint256",
          "name": "ustAmount",
          "type": "uint256"
        },
        {
          "indexed": false,
          "internalType": "uint256",
          "name": "underlyingAmount",
          "type": "uint256"
        }
      ],
      "name": "FinishRedeemStable",
      "type": "event"
    },
    {
      "anonymous": false,
      "inputs": [
        {
          "indexed": true,
          "internalType": "address",
          "name": "operator",
          "type": "address"
        },
        {
          "indexed": true,
          "internalType": "uint256",
          "name": "idx",
          "type": "uint256"
        },
        {
          "indexed": false,
          "internalType": "uint256",
          "name": "underlyingAmount",
          "type": "uint256"
        },
        {
          "indexed": false,
          "internalType": "uint256",
          "name": "ustAmount",
          "type": "uint256"
        }
      ],
      "name": "InitDepositStable",
      "type": "event"
    },
    {
      "anonymous": false,
      "inputs": [
        {
          "indexed": true,
          "internalType": "address",
          "name": "operator",
          "type": "address"
        },
        {
          "indexed": false,
          "internalType": "uint256",
          "name": "aUstAmount",
          "type": "uint256"
        }
      ],
      "name": "InitRedeemStable",
      "type": "event"
    },
    {
      "anonymous": false,
      "inputs": [
        {
          "indexed": false,
          "internalType": "uint256",
          "name": "amount",
          "type": "uint256"
        }
      ],
      "name": "PerfFeeClaimed",
      "type": "event"
    },
    {
      "anonymous": false,
      "inputs": [
        {
          "indexed": false,
          "internalType": "uint256",
          "name": "pct",
          "type": "uint256"
        }
      ],
      "name": "PerfFeePctUpdated",
      "type": "event"
    },
    {
      "anonymous": false,
      "inputs": [
        {
          "indexed": true,
          "internalType": "bytes32",
          "name": "role",
          "type": "bytes32"
        },
        {
          "indexed": true,
          "internalType": "bytes32",
          "name": "previousAdminRole",
          "type": "bytes32"
        },
        {
          "indexed": true,
          "internalType": "bytes32",
          "name": "newAdminRole",
          "type": "bytes32"
        }
      ],
      "name": "RoleAdminChanged",
      "type": "event"
    },
    {
      "anonymous": false,
      "inputs": [
        {
          "indexed": true,
          "internalType": "bytes32",
          "name": "role",
          "type": "bytes32"
        },
        {
          "indexed": true,
          "internalType": "address",
          "name": "account",
          "type": "address"
        },
        {
          "indexed": true,
          "internalType": "address",
          "name": "sender",
          "type": "address"
        }
      ],
      "name": "RoleGranted",
      "type": "event"
    },
    {
      "anonymous": false,
      "inputs": [
        {
          "indexed": true,
          "internalType": "bytes32",
          "name": "role",
          "type": "bytes32"
        },
        {
          "indexed": true,
          "internalType": "address",
          "name": "account",
          "type": "address"
        },
        {
          "indexed": true,
          "internalType": "address",
          "name": "sender",
          "type": "address"
        }
      ],
      "name": "RoleRevoked",
      "type": "event"
    },
    {
      "inputs": [],
      "name": "DEFAULT_ADMIN_ROLE",
      "outputs": [
        {
          "internalType": "bytes32",
          "name": "",
          "type": "bytes32"
        }
      ],
      "stateMutability": "view",
      "type": "function"
    },
    {
      "inputs": [],
      "name": "MANAGER_ROLE",
      "outputs": [
        {
          "internalType": "bytes32",
          "name": "",
          "type": "bytes32"
        }
      ],
      "stateMutability": "view",
      "type": "function"
    },
    {
      "inputs": [],
      "name": "aUstToUstFeed",
      "outputs": [
        {
          "internalType": "contract AggregatorV3Interface",
          "name": "",
          "type": "address"
        }
      ],
      "stateMutability": "view",
      "type": "function"
    },
    {
      "inputs": [],
      "name": "aUstToken",
      "outputs": [
        {
          "internalType": "contract IERC20",
          "name": "",
          "type": "address"
        }
      ],
      "stateMutability": "view",
      "type": "function"
    },
    {
      "inputs": [
        {
          "internalType": "uint256",
          "name": "_amount",
          "type": "uint256"
        }
      ],
      "name": "applyInvestmentFee",
      "outputs": [
        {
          "internalType": "uint256",
          "name": "",
          "type": "uint256"
        }
      ],
      "stateMutability": "view",
      "type": "function"
    },
    {
      "inputs": [],
      "name": "convertedUst",
      "outputs": [
        {
          "internalType": "uint256",
          "name": "",
          "type": "uint256"
        }
      ],
      "stateMutability": "view",
      "type": "function"
    },
    {
      "inputs": [],
      "name": "currentPerformanceFee",
      "outputs": [
        {
          "internalType": "uint256",
          "name": "",
          "type": "uint256"
        }
      ],
      "stateMutability": "view",
      "type": "function"
    },
    {
      "inputs": [],
      "name": "depositOperationLength",
      "outputs": [
        {
          "internalType": "uint256",
          "name": "",
          "type": "uint256"
        }
      ],
      "stateMutability": "view",
      "type": "function"
    },
    {
      "inputs": [
        {
          "internalType": "uint256",
          "name": "",
          "type": "uint256"
        }
      ],
      "name": "depositOperations",
      "outputs": [
        {
          "internalType": "address",
          "name": "operator",
          "type": "address"
        },
        {
          "internalType": "uint256",
          "name": "amount",
          "type": "uint256"
        }
      ],
      "stateMutability": "view",
      "type": "function"
    },
    {
      "inputs": [],
      "name": "doHardWork",
      "outputs": [],
      "stateMutability": "nonpayable",
      "type": "function"
    },
    {
      "inputs": [],
      "name": "ethAnchorRouter",
      "outputs": [
        {
          "internalType": "contract IEthAnchorRouter",
          "name": "",
          "type": "address"
        }
      ],
      "stateMutability": "view",
      "type": "function"
    },
    {
      "inputs": [],
      "name": "exchangeRateFeeder",
      "outputs": [
        {
          "internalType": "contract IExchangeRateFeeder",
          "name": "",
          "type": "address"
        }
      ],
      "stateMutability": "view",
      "type": "function"
    },
    {
      "inputs": [
        {
          "internalType": "uint256",
          "name": "idx",
          "type": "uint256"
        }
      ],
      "name": "finishDepositStable",
      "outputs": [],
      "stateMutability": "nonpayable",
      "type": "function"
    },
    {
      "inputs": [
        {
          "internalType": "uint256",
          "name": "idx",
          "type": "uint256"
        }
      ],
      "name": "finishRedeemStable",
      "outputs": [],
      "stateMutability": "nonpayable",
      "type": "function"
    },
    {
      "inputs": [
        {
          "internalType": "bytes32",
          "name": "role",
          "type": "bytes32"
        }
      ],
      "name": "getRoleAdmin",
      "outputs": [
        {
          "internalType": "bytes32",
          "name": "",
          "type": "bytes32"
        }
      ],
      "stateMutability": "view",
      "type": "function"
    },
    {
      "inputs": [
        {
          "internalType": "bytes32",
          "name": "role",
          "type": "bytes32"
        },
        {
          "internalType": "address",
          "name": "account",
          "type": "address"
        }
      ],
      "name": "grantRole",
      "outputs": [],
      "stateMutability": "nonpayable",
      "type": "function"
    },
    {
      "inputs": [
        {
          "internalType": "bytes32",
          "name": "role",
          "type": "bytes32"
        },
        {
          "internalType": "address",
          "name": "account",
          "type": "address"
        }
      ],
      "name": "hasRole",
      "outputs": [
        {
          "internalType": "bool",
          "name": "",
          "type": "bool"
        }
      ],
      "stateMutability": "view",
      "type": "function"
    },
    {
      "inputs": [
        {
          "internalType": "uint256",
          "name": "amount",
          "type": "uint256"
        }
      ],
      "name": "initRedeemStable",
      "outputs": [],
      "stateMutability": "nonpayable",
      "type": "function"
    },
    {
      "inputs": [],
      "name": "investedAssets",
      "outputs": [
        {
          "internalType": "uint256",
          "name": "",
          "type": "uint256"
        }
      ],
      "stateMutability": "view",
      "type": "function"
    },
    {
      "inputs": [],
      "name": "pendingDeposits",
      "outputs": [
        {
          "internalType": "uint256",
          "name": "",
          "type": "uint256"
        }
      ],
      "stateMutability": "view",
      "type": "function"
    },
    {
      "inputs": [],
      "name": "pendingRedeems",
      "outputs": [
        {
          "internalType": "uint256",
          "name": "",
          "type": "uint256"
        }
      ],
      "stateMutability": "view",
      "type": "function"
    },
    {
      "inputs": [],
      "name": "perfFeePct",
      "outputs": [
        {
          "internalType": "uint16",
          "name": "",
          "type": "uint16"
        }
      ],
      "stateMutability": "view",
      "type": "function"
    },
    {
      "inputs": [],
      "name": "redeemOperationLength",
      "outputs": [
        {
          "internalType": "uint256",
          "name": "",
          "type": "uint256"
        }
      ],
      "stateMutability": "view",
      "type": "function"
    },
    {
      "inputs": [
        {
          "internalType": "uint256",
          "name": "",
          "type": "uint256"
        }
      ],
      "name": "redeemOperations",
      "outputs": [
        {
          "internalType": "address",
          "name": "operator",
          "type": "address"
        },
        {
          "internalType": "uint256",
          "name": "amount",
          "type": "uint256"
        }
      ],
      "stateMutability": "view",
      "type": "function"
    },
    {
      "inputs": [
        {
          "internalType": "bytes32",
          "name": "role",
          "type": "bytes32"
        },
        {
          "internalType": "address",
          "name": "account",
          "type": "address"
        }
      ],
      "name": "renounceRole",
      "outputs": [],
      "stateMutability": "nonpayable",
      "type": "function"
    },
    {
      "inputs": [
        {
          "internalType": "bytes32",
          "name": "role",
          "type": "bytes32"
        },
        {
          "internalType": "address",
          "name": "account",
          "type": "address"
        }
      ],
      "name": "revokeRole",
      "outputs": [],
      "stateMutability": "nonpayable",
      "type": "function"
    },
    {
      "inputs": [
        {
          "internalType": "uint16",
          "name": "_perfFeePct",
          "type": "uint16"
        }
      ],
      "name": "setPerfFeePct",
      "outputs": [],
      "stateMutability": "nonpayable",
      "type": "function"
    },
    {
      "inputs": [
        {
          "internalType": "bytes4",
          "name": "interfaceId",
          "type": "bytes4"
        }
      ],
      "name": "supportsInterface",
      "outputs": [
        {
          "internalType": "bool",
          "name": "",
          "type": "bool"
        }
      ],
      "stateMutability": "view",
      "type": "function"
    },
    {
      "inputs": [],
      "name": "treasury",
      "outputs": [
        {
          "internalType": "address",
          "name": "",
          "type": "address"
        }
      ],
      "stateMutability": "view",
      "type": "function"
    },
    {
      "inputs": [],
      "name": "underlying",
      "outputs": [
        {
          "internalType": "contract IERC20",
          "name": "",
          "type": "address"
        }
      ],
      "stateMutability": "view",
      "type": "function"
    },
    {
      "inputs": [],
      "name": "ustToken",
      "outputs": [
        {
          "internalType": "contract IERC20",
          "name": "",
          "type": "address"
        }
      ],
      "stateMutability": "view",
      "type": "function"
    },
    {
      "inputs": [],
      "name": "vault",
      "outputs": [
        {
          "internalType": "address",
          "name": "",
          "type": "address"
        }
      ],
      "stateMutability": "view",
      "type": "function"
    },
    {
      "inputs": [],
      "name": "withdrawAllToVault",
      "outputs": [],
      "stateMutability": "nonpayable",
      "type": "function"
    },
    {
      "inputs": [
        {
          "internalType": "uint256",
          "name": "amount",
          "type": "uint256"
        }
      ],
      "name": "withdrawToVault",
      "outputs": [],
      "stateMutability": "nonpayable",
      "type": "function"
    }
  ],
  "transactionHash": "0x9c58900ee16453b9c1529d3cd219dc0eee0d7bbc5e363ac2b1e2f42b488ebc28",
  "args": [
    "0x135055B3f44c8511D1c2c078c93BA7ff53c8c72E",
    "0x5641D433c027f9B40a3664752375245b274d1D7d",
    "0x7537aC093cE1315BCE08bBF0bf6f9b86B7475008",
    "0x74f9F75747550fbCa6510610450fe91B5Ed765fe",
    "0x79E0d9bD65196Ead00EE75aB78733B8489E8C1fA",
    "0x6cA13a4ab78dd7D657226b155873A04DB929A3A4",
    "0x006479f75D6622AE6a21BE17C7F555B94c672342",
    300,
    "0x5641D433c027f9B40a3664752375245b274d1D7d"
  ],
  "numDeployments": 1,
  "solcInputHash": "97371a37ae785b1e0799e5c0ab6c83f0",
  "bytecode": "0x60806040523480156200001157600080fd5b5060405162002a5d38038062002a5d8339810160408190526200003491620004fc565b888888888787878787878787878787876001600160a01b038116620000a05760405162461bcd60e51b815260206004820152601960248201527f4261736553747261746567793a206f776e65722069732030780000000000000060448201526064015b60405180910390fd5b6001600160a01b038616620000f85760405162461bcd60e51b815260206004820152601a60248201527f4261736553747261746567793a20726f75746572206973203078000000000000604482015260640162000097565b6001600160a01b038716620001505760405162461bcd60e51b815260206004820152601c60248201527f4261736553747261746567793a20747265617375727920697320307800000000604482015260640162000097565b6200016a8261ffff166200041860201b620011801760201c565b620001c65760405162461bcd60e51b815260206004820152602560248201527f4261736553747261746567793a20696e76616c696420706572666f726d616e63604482015264652066656560d81b606482015260840162000097565b620001d360008262000420565b620001ff7f241ecf16d79d0f8dbfb92cbc07fe17840425976cf0667f022fe9877caa831b088962000420565b600380546001600160a01b03808a166001600160a01b03199283161790925560028054928b16929091168217905560408051636f307dc360e01b81529051636f307dc3916004808201926020929091908290030181865afa15801562000269573d6000803e3d6000fd5b505050506040513d601f19601f820116820180604052508101906200028f9190620005d9565b600180546001600160a01b03199081166001600160a01b039384161790915560068054821689841617905560078054821688841690811790915560048054909216878416178255600580549387166001600160b01b031990941693909317600160a01b61ffff871602179092556040805163313ce56760e01b8152905163313ce567928281019260209291908290030181865afa15801562000335573d6000803e3d6000fd5b505050506040513d601f19601f820116820180604052508101906200035b919062000600565b6200036890600a62000738565b600d5550506001546001600160a01b038b81169116149550620003d49450505050505760405162461bcd60e51b815260206004820152601f60248201527f55535453747261746567793a20696e76616c696420756e6465726c79696e6700604482015260640162000097565b5050600e80546001600160a01b0319166001600160a01b039c909c169b909b17909a555050670de0b6b3a7640000600d5550620007499a5050505050505050505050565b612710101590565b6200042c828262000430565b5050565b6200043c8282620004b8565b6200042c576000828152602081815260408083206001600160a01b03851684529091529020805460ff19166001179055620004743390565b6001600160a01b0316816001600160a01b0316837f2f8788117e7eff1d82e926ec794901d17c78024a50270940304540a733656f0d60405160405180910390a45050565b6000828152602081815260408083206001600160a01b038516845290915290205460ff165b92915050565b6001600160a01b0381168114620004f957600080fd5b50565b60008060008060008060008060006101208a8c0312156200051c57600080fd5b89516200052981620004e3565b60208b01519099506200053c81620004e3565b60408b01519098506200054f81620004e3565b60608b01519097506200056281620004e3565b60808b01519096506200057581620004e3565b60a08b01519095506200058881620004e3565b60c08b01519094506200059b81620004e3565b60e08b015190935061ffff81168114620005b457600080fd5b6101008b0151909250620005c881620004e3565b809150509295985092959850929598565b600060208284031215620005ec57600080fd5b8151620005f981620004e3565b9392505050565b6000602082840312156200061357600080fd5b815160ff81168114620005f957600080fd5b634e487b7160e01b600052601160045260246000fd5b600181815b808511156200067c57816000190482111562000660576200066062000625565b808516156200066e57918102915b93841c939080029062000640565b509250929050565b6000826200069557506001620004dd565b81620006a457506000620004dd565b8160018114620006bd5760028114620006c857620006e8565b6001915050620004dd565b60ff841115620006dc57620006dc62000625565b50506001821b620004dd565b5060208310610133831016604e8410600b84101617156200070d575081810a620004dd565b6200071983836200063b565b806000190482111562000730576200073062000625565b029392505050565b6000620005f960ff84168362000684565b61230480620007596000396000f3fe608060405234801561001057600080fd5b50600436106102265760003560e01c80636abc84251161012a578063a217fddf116100bd578063d547741f1161008c578063eb0469e511610071578063eb0469e5146104b2578063ec87621c146104c5578063fbfa77cf146104ec57600080fd5b8063d547741f14610477578063d9db2b771461048a57600080fd5b8063a217fddf1461044c578063a354264d14610454578063bfd131f11461045c578063ce8c42e81461046457600080fd5b80639119c067116100f95780639119c067146103e657806391d14854146103ef57806393c3a68f14610426578063958437ee1461043957600080fd5b80636abc84251461039a5780636e612f9b146103ad5780636f307dc3146103c0578063781338c0146103d357600080fd5b8063428eab1e116101bd578063524737541161018c5780635c074f44116101715780635c074f441461037657806361d027b31461037f57806362eac09d1461039257600080fd5b80635247375414610350578063563233f61461036357600080fd5b8063428eab1e1461032f5780634a614cf4146103385780634ad0b684146103405780634fa5d8541461034857600080fd5b80631ce63147116101f95780631ce63147146102c5578063248a9ca3146102d85780632f2ff15d1461030957806336568abe1461031c57600080fd5b806301ffc9a71461022b57806307caf901146102535780631312e0c5146102685780631bbec15e1461029a575b600080fd5b61023e610239366004611fef565b6104ff565b60405190151581526020015b60405180910390f35b610266610261366004612019565b610568565b005b61027b610276366004612019565b6107e1565b604080516001600160a01b03909316835260208301919091520161024a565b6005546102ad906001600160a01b031681565b6040516001600160a01b03909116815260200161024a565b6007546102ad906001600160a01b031681565b6102fb6102e6366004612019565b60009081526020819052604090206001015490565b60405190815260200161024a565b610266610317366004612047565b610819565b61026661032a366004612047565b610844565b6102fb600c5481565b600a546102fb565b6102fb6108d0565b6102666108ec565b61026661035e366004612019565b6109dd565b610266610371366004612077565b610afa565b6102fb60085481565b6003546102ad906001600160a01b031681565b600b546102fb565b6102666103a8366004612019565b610c8a565b600e546102ad906001600160a01b031681565b6001546102ad906001600160a01b031681565b6004546102ad906001600160a01b031681565b6102fb60095481565b61023e6103fd366004612047565b6000918252602082815260408084206001600160a01b0393909316845291905290205460ff1690565b6102fb610434366004612019565b610fc7565b61027b610447366004612019565b610fd5565b6102fb600081565b6102fb610fe5565b610266611028565b610266610472366004612019565b6110d0565b610266610485366004612047565b61115a565b60055461049f90600160a01b900461ffff1681565b60405161ffff909116815260200161024a565b6006546102ad906001600160a01b031681565b6102fb7f241ecf16d79d0f8dbfb92cbc07fe17840425976cf0667f022fe9877caa831b0881565b6002546102ad906001600160a01b031681565b60006001600160e01b031982167f7965db0b00000000000000000000000000000000000000000000000000000000148061056257507f01ffc9a7000000000000000000000000000000000000000000000000000000006001600160e01b03198316145b92915050565b3360009081527fe84508f2c7fa9c351146748b3025cb78b45df37d868e48c6a75102fecdeee645602052604090205460ff166105f75760405162461bcd60e51b815260206004820152602360248201527f4261736553747261746567793a2063616c6c6572206973206e6f74206d616e6160448201526233b2b960e91b60648201526084015b60405180910390fd5b6000610601611188565b9050600082116106535760405162461bcd60e51b815260206004820152601660248201527f4261736553747261746567793a20616d6f756e7420300000000000000000000060448201526064016105ee565b816009600082825461066591906120b1565b9091555050600654600554610687916001600160a01b039182169116846111f6565b6006546040517f07caf901000000000000000000000000000000000000000000000000000000008152600481018490526000916001600160a01b0316906307caf901906024016020604051808303816000875af11580156106ec573d6000803e3d6000fd5b505050506040513d601f19601f8201168201806040525081019061071091906120c9565b6040805180820182526001600160a01b038381168083526020808401898152600b805460018101825560009190915294517f0175b7a638427703f0dbe7bb9bbf987a2551717b34e79f33b5b1008d1fa01db9600290960295860180546001600160a01b031916919095161790935591517f0175b7a638427703f0dbe7bb9bbf987a2551717b34e79f33b5b1008d1fa01dba909301929092559151868152929350917f8ae1a29c2159df38e3ed55004e595d4a504c44b98951a0501db94b7d9dfa2113910160405180910390a2505050565b600a81815481106107f157600080fd5b6000918252602090912060029091020180546001909101546001600160a01b03909116915082565b6000828152602081905260409020600101546108358133611322565b61083f83836113a0565b505050565b6001600160a01b03811633146108c25760405162461bcd60e51b815260206004820152602f60248201527f416363657373436f6e74726f6c3a2063616e206f6e6c792072656e6f756e636560448201527f20726f6c657320666f722073656c66000000000000000000000000000000000060648201526084016105ee565b6108cc828261143e565b5050565b60006108da6114bd565b6008546108e791906120b1565b905090565b3360009081527fe84508f2c7fa9c351146748b3025cb78b45df37d868e48c6a75102fecdeee645602052604090205460ff166109765760405162461bcd60e51b815260206004820152602360248201527f4261736553747261746567793a2063616c6c6572206973206e6f74206d616e6160448201526233b2b960e91b60648201526084016105ee565b600080610981611522565b600a549193509150610995906001906120e6565b60408051838152602081018490526001600160a01b038516917f6a038298ce6aeb4a287c53d57f807bbe0853812eb55b115ede849dc987cca495910160405180910390a35050565b3360009081527fe84508f2c7fa9c351146748b3025cb78b45df37d868e48c6a75102fecdeee645602052604090205460ff16610a675760405162461bcd60e51b815260206004820152602360248201527f4261736553747261746567793a2063616c6c6572206973206e6f74206d616e6160448201526233b2b960e91b60648201526084016105ee565b6000806000610a75846116db565b604080518381526020810183905290810182905292955090935091506001600160a01b038416907f4920436e71acf3ae867da04d3ab39c11ff9414833c8404596505ccb64f47c2209060600160405180910390a2600254610af4906001600160a01b0316610ae1611a17565b6001546001600160a01b03169190611a48565b50505050565b3360009081527fad3228b676f7d3cd4284a5443f17f1962b36e491b30a40b2405849e597ba5fb5602052604090205460ff16610b9e5760405162461bcd60e51b815260206004820152602160248201527f4261736553747261746567793a2063616c6c6572206973206e6f742061646d6960448201527f6e0000000000000000000000000000000000000000000000000000000000000060648201526084016105ee565b61ffff81166127101015610c1a5760405162461bcd60e51b815260206004820152602560248201527f4261736553747261746567793a20696e76616c696420706572666f726d616e6360448201527f652066656500000000000000000000000000000000000000000000000000000060648201526084016105ee565b600580547fffffffffffffffffffff0000ffffffffffffffffffffffffffffffffffffffff16600160a01b61ffff8416908102919091179091556040519081527f3c1be17360b5ce4015d5d5ddd50de6e7e9d53d49907f45d72a202e159306938c9060200160405180910390a150565b3360009081527fe84508f2c7fa9c351146748b3025cb78b45df37d868e48c6a75102fecdeee645602052604090205460ff16610d145760405162461bcd60e51b815260206004820152602360248201527f4261736553747261746567793a2063616c6c6572206973206e6f74206d616e6160448201526233b2b960e91b60648201526084016105ee565b600a548110610d655760405162461bcd60e51b815260206004820152601960248201527f4261736553747261746567793a206e6f742072756e6e696e670000000000000060448201526064016105ee565b6000600a8281548110610d7a57610d7a6120fd565b60009182526020822060029091020180549092506001600160a01b031690610da0611188565b6006546040517fac1a23220000000000000000000000000000000000000000000000000000000081526001600160a01b03858116600483015292935091169063ac1a232290602401600060405180830381600087803b158015610e0257600080fd5b505af1158015610e16573d6000803e3d6000fd5b50505050600081610e25611188565b610e2f91906120e6565b905060008111610e815760405162461bcd60e51b815260206004820152601e60248201527f4261736553747261746567793a206e6f20615553542072657475726e6564000060448201526064016105ee565b6000846001015490508060086000828254610e9c91906120e6565b9250508190555080600c6000828254610eb591906120b1565b909155505060408051828152602081018490526001600160a01b038616917f225c081659607ca4ffa8d328c88b0c3d6c99d0ba75b002e377abf8b4ca2fdc79910160405180910390a2600a54610f0d906001906120e6565b861015610f8557600a805460009190610f28906001906120e6565b81548110610f3857610f386120fd565b60009182526020918290206040805180820190915260029092020180546001600160a01b03168083526001918201549290930182905288546001600160a01b031916909217885590870155505b600a805480610f9657610f96612113565b60008281526020812060026000199093019283020180546001600160a01b0319168155600101559055505050505050565b600061056282612648611a91565b600b81815481106107f157600080fd5b6000600c5460001415610ff85750600090565b6000600954611005611188565b61100f91906120b1565b90506110228161101d611ab1565b611b0a565b91505090565b3360009081527fe84508f2c7fa9c351146748b3025cb78b45df37d868e48c6a75102fecdeee645602052604090205460ff166110b25760405162461bcd60e51b815260206004820152602360248201527f4261736553747261746567793a2063616c6c6572206973206e6f74206d616e6160448201526233b2b960e91b60648201526084016105ee565b60006110bc611188565b905080156110cd576110cd81610568565b50565b3360009081527fe84508f2c7fa9c351146748b3025cb78b45df37d868e48c6a75102fecdeee645602052604090205460ff166110cd5760405162461bcd60e51b815260206004820152602360248201527f4261736553747261746567793a2063616c6c6572206973206e6f74206d616e6160448201526233b2b960e91b60648201526084016105ee565b6000828152602081905260409020600101546111768133611322565b61083f838361143e565b612710101590565b6005546040516370a0823160e01b81523060048201526000916001600160a01b0316906370a08231906024015b602060405180830381865afa1580156111d2573d6000803e3d6000fd5b505050506040513d601f19601f820116820180604052508101906108e79190612129565b6040517fdd62ed3e0000000000000000000000000000000000000000000000000000000081523060048201526001600160a01b038381166024830152600091839186169063dd62ed3e90604401602060405180830381865afa158015611260573d6000803e3d6000fd5b505050506040513d601f19601f820116820180604052508101906112849190612129565b61128e91906120b1565b6040516001600160a01b038516602482015260448101829052909150610af49085907f095ea7b300000000000000000000000000000000000000000000000000000000906064015b60408051601f198184030181529190526020810180517bffffffffffffffffffffffffffffffffffffffffffffffffffffffff166001600160e01b031990931692909217909152611b64565b6000828152602081815260408083206001600160a01b038516845290915290205460ff166108cc5761135e816001600160a01b03166014611c49565b611369836020611c49565b60405160200161137a92919061216e565b60408051601f198184030181529082905262461bcd60e51b82526105ee916004016121ef565b6000828152602081815260408083206001600160a01b038516845290915290205460ff166108cc576000828152602081815260408083206001600160a01b03851684529091529020805460ff191660011790556113fa3390565b6001600160a01b0316816001600160a01b0316837f2f8788117e7eff1d82e926ec794901d17c78024a50270940304540a733656f0d60405160405180910390a45050565b6000828152602081815260408083206001600160a01b038516845290915290205460ff16156108cc576000828152602081815260408083206001600160a01b0385168085529252808320805460ff1916905551339285917ff6391f5c32d9c69d2a47ea670b442974b53935d1edc7fd64eb21e047a839171b9190a45050565b6000806009546114cb611188565b6114d591906120b1565b9050806114e457600091505090565b60006114ee611ab1565b90506114fa8282611b0a565b600d546115078484612222565b6115119190612241565b61151b91906120e6565b9250505090565b600080600061152f611e2a565b9050600081116115815760405162461bcd60e51b815260206004820152601a60248201527f4261736553747261746567793a206e6f2075737420657869737400000000000060448201526064016105ee565b806008600082825461159391906120b1565b90915550506006546004546115b5916001600160a01b039182169116836111f6565b6006546040517fa8a15a21000000000000000000000000000000000000000000000000000000008152600481018390526000916001600160a01b03169063a8a15a21906024016020604051808303816000875af115801561161a573d6000803e3d6000fd5b505050506040513d601f19601f8201168201806040525081019061163e91906120c9565b604080518082019091526001600160a01b03828116825260208201858152600a805460018101825560009190915292517fc65a7bb8d6351c1cf70c95a316cc6a92839c986682d98bc35f958f4883f9d2a8600290940293840180546001600160a01b0319169190931617909155517fc65a7bb8d6351c1cf70c95a316cc6a92839c986682d98bc35f958f4883f9d2a9909101559491935090915050565b600080600083600b80549050116117345760405162461bcd60e51b815260206004820152601960248201527f4261736553747261746567793a206e6f742072756e6e696e670000000000000060448201526064016105ee565b6000600b8581548110611749576117496120fd565b906000526020600020906002020190506000600954611766611188565b61177091906120b1565b60018301548354600c5492935090916001600160a01b0390911690600090849061179b908590612222565b6117a59190612241565b6006546040517f7249abb90000000000000000000000000000000000000000000000000000000081526001600160a01b038581166004830152929350911690637249abb990602401600060405180830381600087803b15801561180757600080fd5b505af115801561181b573d6000803e3d6000fd5b505050506000611829611e2a565b90506000811161187b5760405162461bcd60e51b815260206004820152601e60248201527f4261736553747261746567793a206e6f7468696e672072656465656d6564000060448201526064016105ee565b600082821161188b5760006118ad565b6005546118ad90600160a01b900461ffff166118a785856120e6565b90611a91565b90508015611906576003546004546118d2916001600160a01b03918216911683611a48565b6040518181527f400bdf25b31ddf5f320a4bc5dd19386740a74e689d95b01e02c4b499b51b99549060200160405180910390a15b82600c600082825461191891906120e6565b92505081905550846009600082825461193191906120e6565b9091555050600b54611945906001906120e6565b8b10156119bd57600b805460009190611960906001906120e6565b81548110611970576119706120fd565b60009182526020918290206040805180820190915260029092020180546001600160a01b0316808352600191820154929093018290528a546001600160a01b0319169092178a5590890155505b600b8054806119ce576119ce612113565b60008281526020812060026000199093019283020180546001600160a01b03191681556001015590558385611a0383856120e6565b995099509950505050505050509193909250565b6001546040516370a0823160e01b81523060048201526000916001600160a01b0316906370a08231906024016111b5565b6040516001600160a01b03831660248201526044810182905261083f9084907fa9059cbb00000000000000000000000000000000000000000000000000000000906064016112d6565b6000612710611aa08385612222565b611aaa9190612241565b9392505050565b600e54600480546040517fcdd219390000000000000000000000000000000000000000000000000000000081526001600160a01b039182169281019290925260016024830152600092169063cdd21939906044016111b5565b600080600d548484611b1c9190612222565b611b269190612241565b9050600c54811115611b5a57600554600c54611b5291600160a01b900461ffff16906118a790846120e6565b915050610562565b5060009392505050565b6000611bb9826040518060400160405280602081526020017f5361666545524332303a206c6f772d6c6576656c2063616c6c206661696c6564815250856001600160a01b0316611e609092919063ffffffff16565b80519091501561083f5780806020019051810190611bd79190612263565b61083f5760405162461bcd60e51b815260206004820152602a60248201527f5361666545524332303a204552433230206f7065726174696f6e20646964206e60448201527f6f7420737563636565640000000000000000000000000000000000000000000060648201526084016105ee565b60606000611c58836002612222565b611c639060026120b1565b67ffffffffffffffff811115611c7b57611c7b612285565b6040519080825280601f01601f191660200182016040528015611ca5576020820181803683370190505b5090507f300000000000000000000000000000000000000000000000000000000000000081600081518110611cdc57611cdc6120fd565b60200101906001600160f81b031916908160001a9053507f780000000000000000000000000000000000000000000000000000000000000081600181518110611d2757611d276120fd565b60200101906001600160f81b031916908160001a9053506000611d4b846002612222565b611d569060016120b1565b90505b6001811115611ddb577f303132333435363738396162636465660000000000000000000000000000000085600f1660108110611d9757611d976120fd565b1a60f81b828281518110611dad57611dad6120fd565b60200101906001600160f81b031916908160001a90535060049490941c93611dd48161229b565b9050611d59565b508315611aaa5760405162461bcd60e51b815260206004820181905260248201527f537472696e67733a20686578206c656e67746820696e73756666696369656e7460448201526064016105ee565b600480546040516370a0823160e01b815230928101929092526000916001600160a01b03909116906370a08231906024016111b5565b6060611e6f8484600085611e77565b949350505050565b606082471015611eef5760405162461bcd60e51b815260206004820152602660248201527f416464726573733a20696e73756666696369656e742062616c616e636520666f60448201527f722063616c6c000000000000000000000000000000000000000000000000000060648201526084016105ee565b843b611f3d5760405162461bcd60e51b815260206004820152601d60248201527f416464726573733a2063616c6c20746f206e6f6e2d636f6e747261637400000060448201526064016105ee565b600080866001600160a01b03168587604051611f5991906122b2565b60006040518083038185875af1925050503d8060008114611f96576040519150601f19603f3d011682016040523d82523d6000602084013e611f9b565b606091505b5091509150611fab828286611fb6565b979650505050505050565b60608315611fc5575081611aaa565b825115611fd55782518084602001fd5b8160405162461bcd60e51b81526004016105ee91906121ef565b60006020828403121561200157600080fd5b81356001600160e01b031981168114611aaa57600080fd5b60006020828403121561202b57600080fd5b5035919050565b6001600160a01b03811681146110cd57600080fd5b6000806040838503121561205a57600080fd5b82359150602083013561206c81612032565b809150509250929050565b60006020828403121561208957600080fd5b813561ffff81168114611aaa57600080fd5b634e487b7160e01b600052601160045260246000fd5b600082198211156120c4576120c461209b565b500190565b6000602082840312156120db57600080fd5b8151611aaa81612032565b6000828210156120f8576120f861209b565b500390565b634e487b7160e01b600052603260045260246000fd5b634e487b7160e01b600052603160045260246000fd5b60006020828403121561213b57600080fd5b5051919050565b60005b8381101561215d578181015183820152602001612145565b83811115610af45750506000910152565b7f416363657373436f6e74726f6c3a206163636f756e74200000000000000000008152600083516121a6816017850160208801612142565b7f206973206d697373696e6720726f6c652000000000000000000000000000000060179184019182015283516121e3816028840160208801612142565b01602801949350505050565b602081526000825180602084015261220e816040850160208701612142565b601f01601f19169190910160400192915050565b600081600019048311821515161561223c5761223c61209b565b500290565b60008261225e57634e487b7160e01b600052601260045260246000fd5b500490565b60006020828403121561227557600080fd5b81518015158114611aaa57600080fd5b634e487b7160e01b600052604160045260246000fd5b6000816122aa576122aa61209b565b506000190190565b600082516122c4818460208701612142565b919091019291505056fea2646970667358221220552d1e141b6c142118732fe0ff44ca28a99bcb3694982e115d6b43422e461a0564736f6c634300080a0033",
  "devdoc": {
    "kind": "dev",
    "methods": {
      "currentPerformanceFee()": {
        "returns": {
          "_0": "current performance fee"
        }
      },
      "depositOperationLength()": {
        "returns": {
          "_0": "Length of pending deposit operations"
        }
      },
      "finishDepositStable(uint256)": {
        "params": {
          "idx": "Id of the pending deposit operation"
        }
      },
      "finishRedeemStable(uint256)": {
        "params": {
          "idx": "Id of the pending redeem operation"
        }
      },
      "getRoleAdmin(bytes32)": {
        "details": "Returns the admin role that controls `role`. See {grantRole} and {revokeRole}. To change a role's admin, use {_setRoleAdmin}."
      },
      "grantRole(bytes32,address)": {
        "details": "Grants `role` to `account`. If `account` had not been already granted `role`, emits a {RoleGranted} event. Requirements: - the caller must have ``role``'s admin role."
      },
      "hasRole(bytes32,address)": {
        "details": "Returns `true` if `account` has been granted `role`."
      },
      "initRedeemStable(uint256)": {
        "params": {
          "amount": "Amount of aUST to redeem"
        }
      },
      "investedAssets()": {
        "returns": {
          "_0": "The total amount of underlying"
        }
      },
      "redeemOperationLength()": {
        "returns": {
          "_0": "Length of pending redeem operations"
        }
      },
      "renounceRole(bytes32,address)": {
        "details": "Revokes `role` from the calling account. Roles are often managed via {grantRole} and {revokeRole}: this function's purpose is to provide a mechanism for accounts to lose their privileges if they are compromised (such as when a trusted device is misplaced). If the calling account had been revoked `role`, emits a {RoleRevoked} event. Requirements: - the caller must be `account`."
      },
      "revokeRole(bytes32,address)": {
        "details": "Revokes `role` from `account`. If `account` had been granted `role`, emits a {RoleRevoked} event. Requirements: - the caller must have ``role``'s admin role."
      },
      "setPerfFeePct(uint16)": {
        "params": {
          "_perfFeePct": "The new performance fee %"
        }
      },
      "supportsInterface(bytes4)": {
        "details": "See {IERC165-supportsInterface}."
      }
    },
    "version": 1
  },
  "userdoc": {
    "kind": "user",
    "methods": {
      "applyInvestmentFee(uint256)": {
        "notice": "See {IStrategy}"
      },
      "constructor": {
        "notice": "_aUstToUstFeed is a fake chainlink feed, it is used to just inhert constructor of USTStrategy"
      },
      "currentPerformanceFee()": {
        "notice": "Calculate current performance fee amountPerformance fee is in UST"
      },
      "doHardWork()": {
        "notice": "Initiates a deposit of all the currently held UST into EthAnchorsince EthAnchor uses an asynchronous model, this function only starts the deposit process, but does not finish it."
      },
      "finishDepositStable(uint256)": {
        "notice": "Calls EthAnchor with a pending deposit ID, and attempts to finish it.Must be called some time after `_initDepositStable()`. Will only work if the EthAnchor bridge has finished processing the deposit."
      },
      "finishRedeemStable(uint256)": {
        "notice": "Calls EthAnchor with a pending redeem ID, and attempts to finish it.Must be called some time after `initRedeemStable()`. Will only work if the EthAnchor bridge has finished processing the deposit."
      },
      "initRedeemStable(uint256)": {
        "notice": "Initiates a withdrawal of UST from EthAnchorsince EthAnchor uses an asynchronous model, this function only starts the redeem process, but does not finish it."
      },
      "investedAssets()": {
        "notice": "Amount, expressed in the underlying currency, currently in the strategyboth held and invested amounts are included here, using the latest known exchange rates to the underlying currency. This will return value without performance fee."
      },
      "setPerfFeePct(uint16)": {
        "notice": "Updates the performance feeCan only be called by governance"
      },
      "underlying()": {
        "notice": "The underlying ERC20 token stored by the vault"
      },
      "vault()": {
        "notice": "The vault linked to this stragegy"
      },
      "withdrawAllToVault()": {
        "notice": "Request withdrawal from EthAnchorsince EthAnchor uses an asynchronous model, we can only request withdrawal for whole aUST"
      },
      "withdrawToVault(uint256)": {
        "notice": "Withdraws a specified amount back to the vaultsince EthAnchor uses an asynchronous model, and there is no underlying amount in the strategy, this function do nothing at all, However override interface of IStrategy."
      }
    },
    "notice": "USTAnchorStrategy for testnet. Since aUST/UST chainlink does not exist on testnet, we use EthAnchorExchangeRateFeeder to get aUST/UST exchange rate.",
    "version": 1
  },
  "storageLayout": {
    "storage": [
      {
        "astId": 70,
        "contract": "contracts/test/strategy/TestUSTAnchorStrategy.sol:TestUSTAnchorStrategy",
        "label": "_roles",
        "offset": 0,
        "slot": "0",
        "type": "t_mapping(t_bytes32,t_struct(RoleData)65_storage)"
      },
      {
        "astId": 7776,
        "contract": "contracts/test/strategy/TestUSTAnchorStrategy.sol:TestUSTAnchorStrategy",
        "label": "underlying",
        "offset": 0,
        "slot": "1",
        "type": "t_contract(IERC20)1091"
      },
      {
        "astId": 7780,
        "contract": "contracts/test/strategy/TestUSTAnchorStrategy.sol:TestUSTAnchorStrategy",
        "label": "vault",
        "offset": 0,
        "slot": "2",
        "type": "t_address"
      },
      {
        "astId": 7782,
        "contract": "contracts/test/strategy/TestUSTAnchorStrategy.sol:TestUSTAnchorStrategy",
        "label": "treasury",
        "offset": 0,
        "slot": "3",
        "type": "t_address"
      },
      {
        "astId": 7785,
        "contract": "contracts/test/strategy/TestUSTAnchorStrategy.sol:TestUSTAnchorStrategy",
        "label": "ustToken",
        "offset": 0,
        "slot": "4",
        "type": "t_contract(IERC20)1091"
      },
      {
        "astId": 7788,
        "contract": "contracts/test/strategy/TestUSTAnchorStrategy.sol:TestUSTAnchorStrategy",
        "label": "aUstToken",
        "offset": 0,
        "slot": "5",
        "type": "t_contract(IERC20)1091"
      },
      {
        "astId": 7790,
        "contract": "contracts/test/strategy/TestUSTAnchorStrategy.sol:TestUSTAnchorStrategy",
        "label": "perfFeePct",
        "offset": 20,
        "slot": "5",
        "type": "t_uint16"
      },
      {
        "astId": 7793,
        "contract": "contracts/test/strategy/TestUSTAnchorStrategy.sol:TestUSTAnchorStrategy",
        "label": "ethAnchorRouter",
        "offset": 0,
        "slot": "6",
        "type": "t_contract(IEthAnchorRouter)9322"
      },
      {
        "astId": 7796,
        "contract": "contracts/test/strategy/TestUSTAnchorStrategy.sol:TestUSTAnchorStrategy",
        "label": "aUstToUstFeed",
        "offset": 0,
        "slot": "7",
        "type": "t_contract(AggregatorV3Interface)45"
      },
      {
        "astId": 7798,
        "contract": "contracts/test/strategy/TestUSTAnchorStrategy.sol:TestUSTAnchorStrategy",
        "label": "pendingDeposits",
        "offset": 0,
        "slot": "8",
        "type": "t_uint256"
      },
      {
        "astId": 7800,
        "contract": "contracts/test/strategy/TestUSTAnchorStrategy.sol:TestUSTAnchorStrategy",
        "label": "pendingRedeems",
        "offset": 0,
        "slot": "9",
        "type": "t_uint256"
      },
      {
        "astId": 7804,
        "contract": "contracts/test/strategy/TestUSTAnchorStrategy.sol:TestUSTAnchorStrategy",
        "label": "depositOperations",
        "offset": 0,
        "slot": "10",
        "type": "t_array(t_struct(Operation)7768_storage)dyn_storage"
      },
      {
        "astId": 7808,
        "contract": "contracts/test/strategy/TestUSTAnchorStrategy.sol:TestUSTAnchorStrategy",
        "label": "redeemOperations",
        "offset": 0,
        "slot": "11",
        "type": "t_array(t_struct(Operation)7768_storage)dyn_storage"
      },
      {
        "astId": 7810,
        "contract": "contracts/test/strategy/TestUSTAnchorStrategy.sol:TestUSTAnchorStrategy",
        "label": "convertedUst",
        "offset": 0,
        "slot": "12",
        "type": "t_uint256"
      },
      {
        "astId": 7812,
        "contract": "contracts/test/strategy/TestUSTAnchorStrategy.sol:TestUSTAnchorStrategy",
        "label": "_aUstToUstFeedDecimals",
        "offset": 0,
        "slot": "13",
        "type": "t_uint256"
      },
      {
        "astId": 10187,
        "contract": "contracts/test/strategy/TestUSTAnchorStrategy.sol:TestUSTAnchorStrategy",
        "label": "exchangeRateFeeder",
        "offset": 0,
        "slot": "14",
        "type": "t_contract(IExchangeRateFeeder)9334"
      }
    ],
    "types": {
      "t_address": {
        "encoding": "inplace",
        "label": "address",
        "numberOfBytes": "20"
      },
      "t_array(t_struct(Operation)7768_storage)dyn_storage": {
        "base": "t_struct(Operation)7768_storage",
        "encoding": "dynamic_array",
        "label": "struct BaseStrategy.Operation[]",
        "numberOfBytes": "32"
      },
      "t_bool": {
        "encoding": "inplace",
        "label": "bool",
        "numberOfBytes": "1"
      },
      "t_bytes32": {
        "encoding": "inplace",
        "label": "bytes32",
        "numberOfBytes": "32"
      },
      "t_contract(AggregatorV3Interface)45": {
        "encoding": "inplace",
        "label": "contract AggregatorV3Interface",
        "numberOfBytes": "20"
      },
      "t_contract(IERC20)1091": {
        "encoding": "inplace",
        "label": "contract IERC20",
        "numberOfBytes": "20"
      },
      "t_contract(IEthAnchorRouter)9322": {
        "encoding": "inplace",
        "label": "contract IEthAnchorRouter",
        "numberOfBytes": "20"
      },
      "t_contract(IExchangeRateFeeder)9334": {
        "encoding": "inplace",
        "label": "contract IExchangeRateFeeder",
        "numberOfBytes": "20"
      },
      "t_mapping(t_address,t_bool)": {
        "encoding": "mapping",
        "key": "t_address",
        "label": "mapping(address => bool)",
        "numberOfBytes": "32",
        "value": "t_bool"
      },
      "t_mapping(t_bytes32,t_struct(RoleData)65_storage)": {
        "encoding": "mapping",
        "key": "t_bytes32",
        "label": "mapping(bytes32 => struct AccessControl.RoleData)",
        "numberOfBytes": "32",
        "value": "t_struct(RoleData)65_storage"
      },
      "t_struct(Operation)7768_storage": {
        "encoding": "inplace",
        "label": "struct BaseStrategy.Operation",
        "members": [
          {
            "astId": 7765,
            "contract": "contracts/test/strategy/TestUSTAnchorStrategy.sol:TestUSTAnchorStrategy",
            "label": "operator",
            "offset": 0,
            "slot": "0",
            "type": "t_address"
          },
          {
            "astId": 7767,
            "contract": "contracts/test/strategy/TestUSTAnchorStrategy.sol:TestUSTAnchorStrategy",
            "label": "amount",
            "offset": 0,
            "slot": "1",
            "type": "t_uint256"
          }
        ],
        "numberOfBytes": "64"
      },
      "t_struct(RoleData)65_storage": {
        "encoding": "inplace",
        "label": "struct AccessControl.RoleData",
        "members": [
          {
            "astId": 62,
            "contract": "contracts/test/strategy/TestUSTAnchorStrategy.sol:TestUSTAnchorStrategy",
            "label": "members",
            "offset": 0,
            "slot": "0",
            "type": "t_mapping(t_address,t_bool)"
          },
          {
            "astId": 64,
            "contract": "contracts/test/strategy/TestUSTAnchorStrategy.sol:TestUSTAnchorStrategy",
            "label": "adminRole",
            "offset": 0,
            "slot": "1",
            "type": "t_bytes32"
          }
        ],
        "numberOfBytes": "64"
      },
      "t_uint16": {
        "encoding": "inplace",
        "label": "uint16",
        "numberOfBytes": "2"
      },
      "t_uint256": {
        "encoding": "inplace",
        "label": "uint256",
        "numberOfBytes": "32"
      }
    }
  }
}