{
  "address": "0x673f03e40f97dA5D97241586B9E7cd6914E4a47B",
  "abi": [
    {
      "inputs": [
        {
          "internalType": "contract IERC20Metadata",
          "name": "_underlying",
          "type": "address"
        },
        {
          "internalType": "uint64",
          "name": "_minLockPeriod",
          "type": "uint64"
        },
        {
          "internalType": "uint16",
          "name": "_investPct",
          "type": "uint16"
        },
        {
          "internalType": "address",
          "name": "_treasury",
          "type": "address"
        },
        {
          "internalType": "address",
          "name": "_owner",
          "type": "address"
        },
        {
          "internalType": "uint16",
          "name": "_perfFeePct",
          "type": "uint16"
        },
        {
          "internalType": "uint16",
          "name": "_lossTolerancePct",
          "type": "uint16"
        },
        {
          "components": [
            {
              "internalType": "address",
              "name": "token",
              "type": "address"
            },
            {
              "internalType": "address",
              "name": "pool",
              "type": "address"
            },
            {
              "internalType": "int128",
              "name": "tokenI",
              "type": "int128"
            },
            {
              "internalType": "int128",
              "name": "underlyingI",
              "type": "int128"
            }
          ],
          "internalType": "struct CurveSwapper.SwapPoolParam[]",
          "name": "_swapPools",
          "type": "tuple[]"
        }
      ],
      "stateMutability": "nonpayable",
      "type": "constructor"
    },
    {
      "inputs": [],
      "name": "StrategyAmountZero",
      "type": "error"
    },
    {
      "inputs": [],
      "name": "StrategyCallerNotManager",
      "type": "error"
    },
    {
      "inputs": [],
      "name": "StrategyInvalidAUSTRate",
      "type": "error"
    },
    {
      "inputs": [],
      "name": "StrategyNoAUSTReturned",
      "type": "error"
    },
    {
      "inputs": [],
      "name": "StrategyNoUST",
      "type": "error"
    },
    {
      "inputs": [],
      "name": "StrategyNotIVault",
      "type": "error"
    },
    {
      "inputs": [],
      "name": "StrategyNotRunning",
      "type": "error"
    },
    {
      "inputs": [],
      "name": "StrategyNothingRedeemed",
      "type": "error"
    },
    {
      "inputs": [],
      "name": "StrategyOwnerCannotBe0Address",
      "type": "error"
    },
    {
      "inputs": [],
      "name": "StrategyRouterCannotBe0Address",
      "type": "error"
    },
    {
      "inputs": [],
      "name": "StrategyUnderlyingCannotBe0Address",
      "type": "error"
    },
    {
      "inputs": [],
      "name": "StrategyYieldTokenCannotBe0Address",
      "type": "error"
    },
    {
      "inputs": [],
      "name": "VaultAmountDoesNotMatchParams",
      "type": "error"
    },
    {
      "inputs": [],
      "name": "VaultAmountLocked",
      "type": "error"
    },
    {
      "inputs": [],
      "name": "VaultAmountTooLarge",
      "type": "error"
    },
    {
      "inputs": [],
      "name": "VaultCannotComputeSharesWithoutPrincipal",
      "type": "error"
    },
    {
      "inputs": [],
      "name": "VaultCannotDeposit0",
      "type": "error"
    },
    {
      "inputs": [],
      "name": "VaultCannotDepositWhenClaimerInDebt",
      "type": "error"
    },
    {
      "inputs": [],
      "name": "VaultCannotDepositWhenYieldNegative",
      "type": "error"
    },
    {
      "inputs": [],
      "name": "VaultCannotSponsor0",
      "type": "error"
    },
    {
      "inputs": [],
      "name": "VaultCannotWithdrawMoreThanAvailable",
      "type": "error"
    },
    {
      "inputs": [],
      "name": "VaultCannotWithdrawWhenYieldNegative",
      "type": "error"
    },
    {
      "inputs": [],
      "name": "VaultClaimPercentageCannotBe0",
      "type": "error"
    },
    {
      "inputs": [],
      "name": "VaultClaimerCannotBe0",
      "type": "error"
    },
    {
      "inputs": [],
      "name": "VaultClaimsDontAddUp",
      "type": "error"
    },
    {
      "inputs": [],
      "name": "VaultDepositLocked",
      "type": "error"
    },
    {
      "inputs": [],
      "name": "VaultDestinationCannotBe0Address",
      "type": "error"
    },
    {
      "inputs": [],
      "name": "VaultInvalidInvestpct",
      "type": "error"
    },
    {
      "inputs": [],
      "name": "VaultInvalidLockPeriod",
      "type": "error"
    },
    {
      "inputs": [],
      "name": "VaultInvalidLossTolerance",
      "type": "error"
    },
    {
      "inputs": [],
      "name": "VaultInvalidMinLockPeriod",
      "type": "error"
    },
    {
      "inputs": [],
      "name": "VaultInvalidPerformanceFee",
      "type": "error"
    },
    {
      "inputs": [],
      "name": "VaultInvalidVault",
      "type": "error"
    },
    {
      "inputs": [],
      "name": "VaultNoPerformanceFee",
      "type": "error"
    },
    {
      "inputs": [],
      "name": "VaultNotAllowed",
      "type": "error"
    },
    {
      "inputs": [],
      "name": "VaultNotDeposit",
      "type": "error"
    },
    {
      "inputs": [],
      "name": "VaultNotEnoughFunds",
      "type": "error"
    },
    {
      "inputs": [],
      "name": "VaultNotEnoughToRebalance",
      "type": "error"
    },
    {
      "inputs": [],
      "name": "VaultNotOwnerOfDeposit",
      "type": "error"
    },
    {
      "inputs": [],
      "name": "VaultNotSponsor",
      "type": "error"
    },
    {
      "inputs": [],
      "name": "VaultNothingToDo",
      "type": "error"
    },
    {
      "inputs": [],
      "name": "VaultOwnerCannotBe0Address",
      "type": "error"
    },
    {
      "inputs": [],
      "name": "VaultSenderNotOwnerOfGroupId",
      "type": "error"
    },
    {
      "inputs": [],
      "name": "VaultStrategyHasInvestedFunds",
      "type": "error"
    },
    {
      "inputs": [],
      "name": "VaultStrategyNotSet",
      "type": "error"
    },
    {
      "inputs": [],
      "name": "VaultTreasuryCannotBe0Address",
      "type": "error"
    },
    {
      "inputs": [],
      "name": "VaultUnderlyingCannotBe0Address",
      "type": "error"
    },
    {
      "anonymous": false,
      "inputs": [
        {
          "indexed": true,
          "internalType": "address",
          "name": "token",
          "type": "address"
        },
        {
          "indexed": true,
          "internalType": "address",
          "name": "pool",
          "type": "address"
        },
        {
          "indexed": false,
          "internalType": "int128",
          "name": "tokenI",
          "type": "int128"
        },
        {
          "indexed": false,
          "internalType": "int128",
          "name": "underlyingI",
          "type": "int128"
        }
      ],
      "name": "CurveSwapPoolAdded",
      "type": "event"
    },
    {
      "anonymous": false,
      "inputs": [
        {
          "indexed": true,
          "internalType": "address",
          "name": "token",
          "type": "address"
        }
      ],
      "name": "CurveSwapPoolRemoved",
      "type": "event"
    },
    {
      "anonymous": false,
      "inputs": [
        {
          "indexed": true,
          "internalType": "uint256",
          "name": "id",
          "type": "uint256"
        },
        {
          "indexed": false,
          "internalType": "uint256",
          "name": "groupId",
          "type": "uint256"
        },
        {
          "indexed": false,
          "internalType": "uint256",
          "name": "amount",
          "type": "uint256"
        },
        {
          "indexed": false,
          "internalType": "uint256",
          "name": "shares",
          "type": "uint256"
        },
        {
          "indexed": true,
          "internalType": "address",
          "name": "depositor",
          "type": "address"
        },
        {
          "indexed": true,
          "internalType": "address",
          "name": "claimer",
          "type": "address"
        },
        {
          "indexed": false,
          "internalType": "address",
          "name": "claimerId",
          "type": "address"
        },
        {
          "indexed": false,
          "internalType": "uint64",
          "name": "lockedUntil",
          "type": "uint64"
        },
        {
          "indexed": false,
          "internalType": "bytes",
          "name": "data",
          "type": "bytes"
        },
        {
          "indexed": false,
          "internalType": "string",
          "name": "name",
          "type": "string"
        }
      ],
      "name": "DepositMinted",
      "type": "event"
    },
    {
      "anonymous": false,
      "inputs": [
        {
          "indexed": true,
          "internalType": "uint256",
          "name": "id",
          "type": "uint256"
        },
        {
          "indexed": false,
          "internalType": "uint256",
          "name": "shares",
          "type": "uint256"
        },
        {
          "indexed": false,
          "internalType": "uint256",
          "name": "amount",
          "type": "uint256"
        },
        {
          "indexed": true,
          "internalType": "address",
          "name": "to",
          "type": "address"
        },
        {
          "indexed": false,
          "internalType": "bool",
          "name": "burned",
          "type": "bool"
        }
      ],
      "name": "DepositWithdrawn",
      "type": "event"
    },
    {
      "anonymous": false,
      "inputs": [
        {
          "indexed": false,
          "internalType": "uint256",
          "name": "amount",
          "type": "uint256"
        }
      ],
      "name": "Disinvested",
      "type": "event"
    },
    {
      "anonymous": false,
      "inputs": [
        {
          "indexed": false,
          "internalType": "uint256",
          "name": "amount",
          "type": "uint256"
        }
      ],
      "name": "FeeWithdrawn",
      "type": "event"
    },
    {
      "anonymous": false,
      "inputs": [
        {
          "indexed": false,
          "internalType": "uint256",
          "name": "percentage",
          "type": "uint256"
        }
      ],
      "name": "InvestPctUpdated",
      "type": "event"
    },
    {
      "anonymous": false,
      "inputs": [
        {
          "indexed": false,
          "internalType": "uint256",
          "name": "amount",
          "type": "uint256"
        }
      ],
      "name": "Invested",
      "type": "event"
    },
    {
      "anonymous": false,
      "inputs": [
        {
          "indexed": false,
          "internalType": "uint16",
          "name": "pct",
          "type": "uint16"
        }
      ],
      "name": "LossTolerancePctUpdated",
      "type": "event"
    },
    {
      "anonymous": false,
      "inputs": [
        {
          "indexed": false,
          "internalType": "address",
          "name": "account",
          "type": "address"
        }
      ],
      "name": "Paused",
      "type": "event"
    },
    {
      "anonymous": false,
      "inputs": [
        {
          "indexed": false,
          "internalType": "uint16",
          "name": "pct",
          "type": "uint16"
        }
      ],
      "name": "PerfFeePctUpdated",
      "type": "event"
    },
    {
      "anonymous": false,
      "inputs": [
        {
          "indexed": true,
          "internalType": "bytes32",
          "name": "role",
          "type": "bytes32"
        },
        {
          "indexed": true,
          "internalType": "bytes32",
          "name": "previousAdminRole",
          "type": "bytes32"
        },
        {
          "indexed": true,
          "internalType": "bytes32",
          "name": "newAdminRole",
          "type": "bytes32"
        }
      ],
      "name": "RoleAdminChanged",
      "type": "event"
    },
    {
      "anonymous": false,
      "inputs": [
        {
          "indexed": true,
          "internalType": "bytes32",
          "name": "role",
          "type": "bytes32"
        },
        {
          "indexed": true,
          "internalType": "address",
          "name": "account",
          "type": "address"
        },
        {
          "indexed": true,
          "internalType": "address",
          "name": "sender",
          "type": "address"
        }
      ],
      "name": "RoleGranted",
      "type": "event"
    },
    {
      "anonymous": false,
      "inputs": [
        {
          "indexed": true,
          "internalType": "bytes32",
          "name": "role",
          "type": "bytes32"
        },
        {
          "indexed": true,
          "internalType": "address",
          "name": "account",
          "type": "address"
        },
        {
          "indexed": true,
          "internalType": "address",
          "name": "sender",
          "type": "address"
        }
      ],
      "name": "RoleRevoked",
      "type": "event"
    },
    {
      "anonymous": false,
      "inputs": [
        {
          "indexed": true,
          "internalType": "uint256",
          "name": "id",
          "type": "uint256"
        },
        {
          "indexed": false,
          "internalType": "uint256",
          "name": "amount",
          "type": "uint256"
        },
        {
          "indexed": true,
          "internalType": "address",
          "name": "depositor",
          "type": "address"
        },
        {
          "indexed": false,
          "internalType": "uint256",
          "name": "lockedUntil",
          "type": "uint256"
        }
      ],
      "name": "Sponsored",
      "type": "event"
    },
    {
      "anonymous": false,
      "inputs": [
        {
          "indexed": true,
          "internalType": "address",
          "name": "strategy",
          "type": "address"
        }
      ],
      "name": "StrategyUpdated",
      "type": "event"
    },
    {
      "anonymous": false,
      "inputs": [
        {
          "indexed": true,
          "internalType": "address",
          "name": "fromToken",
          "type": "address"
        },
        {
          "indexed": true,
          "internalType": "address",
          "name": "toToken",
          "type": "address"
        },
        {
          "indexed": false,
          "internalType": "uint256",
          "name": "fromAmount",
          "type": "uint256"
        },
        {
          "indexed": false,
          "internalType": "uint256",
          "name": "toAmount",
          "type": "uint256"
        }
      ],
      "name": "Swap",
      "type": "event"
    },
    {
      "anonymous": false,
      "inputs": [
        {
          "indexed": true,
          "internalType": "address",
          "name": "treasury",
          "type": "address"
        }
      ],
      "name": "TreasuryUpdated",
      "type": "event"
    },
    {
      "anonymous": false,
      "inputs": [
        {
          "indexed": false,
          "internalType": "address",
          "name": "account",
          "type": "address"
        }
      ],
      "name": "Unpaused",
      "type": "event"
    },
    {
      "anonymous": false,
      "inputs": [
        {
          "indexed": true,
          "internalType": "uint256",
          "name": "id",
          "type": "uint256"
        }
      ],
      "name": "Unsponsored",
      "type": "event"
    },
    {
      "anonymous": false,
      "inputs": [
        {
          "indexed": false,
          "internalType": "address",
          "name": "claimerId",
          "type": "address"
        },
        {
          "indexed": true,
          "internalType": "address",
          "name": "to",
          "type": "address"
        },
        {
          "indexed": false,
          "internalType": "uint256",
          "name": "amount",
          "type": "uint256"
        },
        {
          "indexed": false,
          "internalType": "uint256",
          "name": "burnedShares",
          "type": "uint256"
        },
        {
          "indexed": false,
          "internalType": "uint256",
          "name": "perfFee",
          "type": "uint256"
        },
        {
          "indexed": false,
          "internalType": "uint256",
          "name": "totalUnderlying",
          "type": "uint256"
        },
        {
          "indexed": false,
          "internalType": "uint256",
          "name": "totalShares",
          "type": "uint256"
        }
      ],
      "name": "YieldClaimed",
      "type": "event"
    },
    {
      "inputs": [],
      "name": "DEFAULT_ADMIN_ROLE",
      "outputs": [
        {
          "internalType": "bytes32",
          "name": "",
          "type": "bytes32"
        }
      ],
      "stateMutability": "view",
      "type": "function"
    },
    {
      "inputs": [],
      "name": "INVESTOR_ROLE",
      "outputs": [
        {
          "internalType": "bytes32",
          "name": "",
          "type": "bytes32"
        }
      ],
      "stateMutability": "view",
      "type": "function"
    },
    {
      "inputs": [],
      "name": "MAX_DEPOSIT_LOCK_DURATION",
      "outputs": [
        {
          "internalType": "uint64",
          "name": "",
          "type": "uint64"
        }
      ],
      "stateMutability": "view",
      "type": "function"
    },
    {
      "inputs": [],
      "name": "MAX_SPONSOR_LOCK_DURATION",
      "outputs": [
        {
          "internalType": "uint64",
          "name": "",
          "type": "uint64"
        }
      ],
      "stateMutability": "view",
      "type": "function"
    },
    {
      "inputs": [],
      "name": "MIN_SPONSOR_LOCK_DURATION",
      "outputs": [
        {
          "internalType": "uint64",
          "name": "",
          "type": "uint64"
        }
      ],
      "stateMutability": "view",
      "type": "function"
    },
    {
      "inputs": [],
      "name": "SETTINGS_ROLE",
      "outputs": [
        {
          "internalType": "bytes32",
          "name": "",
          "type": "bytes32"
        }
      ],
      "stateMutability": "view",
      "type": "function"
    },
    {
      "inputs": [],
      "name": "SHARES_MULTIPLIER",
      "outputs": [
        {
          "internalType": "uint256",
          "name": "",
          "type": "uint256"
        }
      ],
      "stateMutability": "view",
      "type": "function"
    },
    {
      "inputs": [],
      "name": "SLIPPAGE",
      "outputs": [
        {
          "internalType": "uint256",
          "name": "",
          "type": "uint256"
        }
      ],
      "stateMutability": "view",
      "type": "function"
    },
    {
      "inputs": [],
      "name": "SPONSOR_ROLE",
      "outputs": [
        {
          "internalType": "bytes32",
          "name": "",
          "type": "bytes32"
        }
      ],
      "stateMutability": "view",
      "type": "function"
    },
    {
      "inputs": [],
      "name": "accumulatedPerfFee",
      "outputs": [
        {
          "internalType": "uint256",
          "name": "",
          "type": "uint256"
        }
      ],
      "stateMutability": "view",
      "type": "function"
    },
    {
      "inputs": [
        {
          "components": [
            {
              "internalType": "address",
              "name": "token",
              "type": "address"
            },
            {
              "internalType": "address",
              "name": "pool",
              "type": "address"
            },
            {
              "internalType": "int128",
              "name": "tokenI",
              "type": "int128"
            },
            {
              "internalType": "int128",
              "name": "underlyingI",
              "type": "int128"
            }
          ],
          "internalType": "struct CurveSwapper.SwapPoolParam",
          "name": "_param",
          "type": "tuple"
        }
      ],
      "name": "addPool",
      "outputs": [],
      "stateMutability": "nonpayable",
      "type": "function"
    },
    {
      "inputs": [
        {
          "internalType": "address",
          "name": "_to",
          "type": "address"
        }
      ],
      "name": "claimYield",
      "outputs": [],
      "stateMutability": "nonpayable",
      "type": "function"
    },
    {
      "inputs": [
        {
          "internalType": "address",
          "name": "",
          "type": "address"
        }
      ],
      "name": "claimer",
      "outputs": [
        {
          "internalType": "uint256",
          "name": "totalPrincipal",
          "type": "uint256"
        },
        {
          "internalType": "uint256",
          "name": "totalShares",
          "type": "uint256"
        }
      ],
      "stateMutability": "view",
      "type": "function"
    },
    {
      "inputs": [
        {
          "components": [
            {
              "internalType": "address",
              "name": "inputToken",
              "type": "address"
            },
            {
              "internalType": "uint64",
              "name": "lockDuration",
              "type": "uint64"
            },
            {
              "internalType": "uint256",
              "name": "amount",
              "type": "uint256"
            },
            {
              "components": [
                {
                  "internalType": "uint16",
                  "name": "pct",
                  "type": "uint16"
                },
                {
                  "internalType": "address",
                  "name": "beneficiary",
                  "type": "address"
                },
                {
                  "internalType": "bytes",
                  "name": "data",
                  "type": "bytes"
                }
              ],
              "internalType": "struct IVault.ClaimParams[]",
              "name": "claims",
              "type": "tuple[]"
            },
            {
              "internalType": "string",
              "name": "name",
              "type": "string"
            }
          ],
          "internalType": "struct IVault.DepositParams",
          "name": "_params",
          "type": "tuple"
        }
      ],
      "name": "deposit",
      "outputs": [
        {
          "internalType": "uint256[]",
          "name": "depositIds",
          "type": "uint256[]"
        }
      ],
      "stateMutability": "nonpayable",
      "type": "function"
    },
    {
      "inputs": [
        {
          "internalType": "uint256",
          "name": "_groupId",
          "type": "uint256"
        },
        {
          "components": [
            {
              "internalType": "address",
              "name": "inputToken",
              "type": "address"
            },
            {
              "internalType": "uint64",
              "name": "lockDuration",
              "type": "uint64"
            },
            {
              "internalType": "uint256",
              "name": "amount",
              "type": "uint256"
            },
            {
              "components": [
                {
                  "internalType": "uint16",
                  "name": "pct",
                  "type": "uint16"
                },
                {
                  "internalType": "address",
                  "name": "beneficiary",
                  "type": "address"
                },
                {
                  "internalType": "bytes",
                  "name": "data",
                  "type": "bytes"
                }
              ],
              "internalType": "struct IVault.ClaimParams[]",
              "name": "claims",
              "type": "tuple[]"
            },
            {
              "internalType": "string",
              "name": "name",
              "type": "string"
            }
          ],
          "internalType": "struct IVault.DepositParams",
          "name": "_params",
          "type": "tuple"
        }
      ],
      "name": "depositForGroupId",
      "outputs": [
        {
          "internalType": "uint256[]",
          "name": "depositIds",
          "type": "uint256[]"
        }
      ],
      "stateMutability": "nonpayable",
      "type": "function"
    },
    {
      "inputs": [
        {
          "internalType": "uint256",
          "name": "",
          "type": "uint256"
        }
      ],
      "name": "depositGroupIdOwner",
      "outputs": [
        {
          "internalType": "address",
          "name": "",
          "type": "address"
        }
      ],
      "stateMutability": "view",
      "type": "function"
    },
    {
      "inputs": [
        {
          "internalType": "uint256",
          "name": "",
          "type": "uint256"
        }
      ],
      "name": "deposits",
      "outputs": [
        {
          "internalType": "uint256",
          "name": "amount",
          "type": "uint256"
        },
        {
          "internalType": "address",
          "name": "owner",
          "type": "address"
        },
        {
          "internalType": "address",
          "name": "claimerId",
          "type": "address"
        },
        {
          "internalType": "uint256",
          "name": "lockedUntil",
          "type": "uint256"
        }
      ],
      "stateMutability": "view",
      "type": "function"
    },
    {
      "inputs": [
        {
          "internalType": "address",
          "name": "_to",
          "type": "address"
        },
        {
          "internalType": "uint256[]",
          "name": "_ids",
          "type": "uint256[]"
        }
      ],
      "name": "forceWithdraw",
      "outputs": [],
      "stateMutability": "nonpayable",
      "type": "function"
    },
    {
      "inputs": [
        {
          "internalType": "bytes32",
          "name": "role",
          "type": "bytes32"
        }
      ],
      "name": "getRoleAdmin",
      "outputs": [
        {
          "internalType": "bytes32",
          "name": "",
          "type": "bytes32"
        }
      ],
      "stateMutability": "view",
      "type": "function"
    },
    {
      "inputs": [],
      "name": "getUnderlying",
      "outputs": [
        {
          "internalType": "address",
          "name": "",
          "type": "address"
        }
      ],
      "stateMutability": "view",
      "type": "function"
    },
    {
      "inputs": [
        {
          "internalType": "bytes32",
          "name": "role",
          "type": "bytes32"
        },
        {
          "internalType": "address",
          "name": "account",
          "type": "address"
        }
      ],
      "name": "grantRole",
      "outputs": [],
      "stateMutability": "nonpayable",
      "type": "function"
    },
    {
      "inputs": [
        {
          "internalType": "bytes32",
          "name": "role",
          "type": "bytes32"
        },
        {
          "internalType": "address",
          "name": "account",
          "type": "address"
        }
      ],
      "name": "hasRole",
      "outputs": [
        {
          "internalType": "bool",
          "name": "",
          "type": "bool"
        }
      ],
      "stateMutability": "view",
      "type": "function"
    },
    {
      "inputs": [],
      "name": "investPct",
      "outputs": [
        {
          "internalType": "uint16",
          "name": "",
          "type": "uint16"
        }
      ],
      "stateMutability": "view",
      "type": "function"
    },
    {
      "inputs": [],
      "name": "investState",
      "outputs": [
        {
          "internalType": "uint256",
          "name": "maxInvestableAmount",
          "type": "uint256"
        },
        {
          "internalType": "uint256",
          "name": "alreadyInvested",
          "type": "uint256"
        }
      ],
      "stateMutability": "view",
      "type": "function"
    },
    {
      "inputs": [],
      "name": "lossTolerancePct",
      "outputs": [
        {
          "internalType": "uint16",
          "name": "",
          "type": "uint16"
        }
      ],
      "stateMutability": "view",
      "type": "function"
    },
    {
      "inputs": [],
      "name": "minLockPeriod",
      "outputs": [
        {
          "internalType": "uint64",
          "name": "",
          "type": "uint64"
        }
      ],
      "stateMutability": "view",
      "type": "function"
    },
    {
      "inputs": [
        {
          "internalType": "address",
          "name": "_to",
          "type": "address"
        },
        {
          "internalType": "uint256[]",
          "name": "_ids",
          "type": "uint256[]"
        },
        {
          "internalType": "uint256[]",
          "name": "_amounts",
          "type": "uint256[]"
        }
      ],
      "name": "partialWithdraw",
      "outputs": [],
      "stateMutability": "nonpayable",
      "type": "function"
    },
    {
      "inputs": [],
      "name": "pause",
      "outputs": [],
      "stateMutability": "nonpayable",
      "type": "function"
    },
    {
      "inputs": [],
      "name": "paused",
      "outputs": [
        {
          "internalType": "bool",
          "name": "",
          "type": "bool"
        }
      ],
      "stateMutability": "view",
      "type": "function"
    },
    {
      "inputs": [],
      "name": "perfFeePct",
      "outputs": [
        {
          "internalType": "uint16",
          "name": "",
          "type": "uint16"
        }
      ],
      "stateMutability": "view",
      "type": "function"
    },
    {
      "inputs": [
        {
          "internalType": "address",
          "name": "claimerId",
          "type": "address"
        }
      ],
      "name": "principalOf",
      "outputs": [
        {
          "internalType": "uint256",
          "name": "",
          "type": "uint256"
        }
      ],
      "stateMutability": "view",
      "type": "function"
    },
    {
      "inputs": [
        {
          "internalType": "address",
          "name": "_inputToken",
          "type": "address"
        }
      ],
      "name": "removePool",
      "outputs": [],
      "stateMutability": "nonpayable",
      "type": "function"
    },
    {
      "inputs": [
        {
          "internalType": "bytes32",
          "name": "role",
          "type": "bytes32"
        },
        {
          "internalType": "address",
          "name": "account",
          "type": "address"
        }
      ],
      "name": "renounceRole",
      "outputs": [],
      "stateMutability": "nonpayable",
      "type": "function"
    },
    {
      "inputs": [
        {
          "internalType": "bytes32",
          "name": "role",
          "type": "bytes32"
        },
        {
          "internalType": "address",
          "name": "account",
          "type": "address"
        }
      ],
      "name": "revokeRole",
      "outputs": [],
      "stateMutability": "nonpayable",
      "type": "function"
    },
    {
      "inputs": [
        {
          "internalType": "uint16",
          "name": "_investPct",
          "type": "uint16"
        }
      ],
      "name": "setInvestPct",
      "outputs": [],
      "stateMutability": "nonpayable",
      "type": "function"
    },
    {
      "inputs": [
        {
          "internalType": "uint16",
          "name": "pct",
          "type": "uint16"
        }
      ],
      "name": "setLossTolerancePct",
      "outputs": [],
      "stateMutability": "nonpayable",
      "type": "function"
    },
    {
      "inputs": [
        {
          "internalType": "uint16",
          "name": "_perfFeePct",
          "type": "uint16"
        }
      ],
      "name": "setPerfFeePct",
      "outputs": [],
      "stateMutability": "nonpayable",
      "type": "function"
    },
    {
      "inputs": [
        {
          "internalType": "address",
          "name": "_strategy",
          "type": "address"
        }
      ],
      "name": "setStrategy",
      "outputs": [],
      "stateMutability": "nonpayable",
      "type": "function"
    },
    {
      "inputs": [
        {
          "internalType": "address",
          "name": "_treasury",
          "type": "address"
        }
      ],
      "name": "setTreasury",
      "outputs": [],
      "stateMutability": "nonpayable",
      "type": "function"
    },
    {
      "inputs": [
        {
          "internalType": "address",
          "name": "claimerId",
          "type": "address"
        }
      ],
      "name": "sharesOf",
      "outputs": [
        {
          "internalType": "uint256",
          "name": "",
          "type": "uint256"
        }
      ],
      "stateMutability": "view",
      "type": "function"
    },
    {
      "inputs": [
        {
          "internalType": "address",
          "name": "_inputToken",
          "type": "address"
        },
        {
          "internalType": "uint256",
          "name": "_amount",
          "type": "uint256"
        },
        {
          "internalType": "uint256",
          "name": "_lockDuration",
          "type": "uint256"
        }
      ],
      "name": "sponsor",
      "outputs": [],
      "stateMutability": "nonpayable",
      "type": "function"
    },
    {
      "inputs": [],
      "name": "strategy",
      "outputs": [
        {
          "internalType": "contract IStrategy",
          "name": "",
          "type": "address"
        }
      ],
      "stateMutability": "view",
      "type": "function"
    },
    {
      "inputs": [
        {
          "internalType": "bytes4",
          "name": "interfaceId",
          "type": "bytes4"
        }
      ],
      "name": "supportsInterface",
      "outputs": [
        {
          "internalType": "bool",
          "name": "",
          "type": "bool"
        }
      ],
      "stateMutability": "view",
      "type": "function"
    },
    {
      "inputs": [
        {
          "internalType": "address",
          "name": "",
          "type": "address"
        }
      ],
      "name": "swappers",
      "outputs": [
        {
          "internalType": "contract ICurve",
          "name": "pool",
          "type": "address"
        },
        {
          "internalType": "uint8",
          "name": "tokenDecimals",
          "type": "uint8"
        },
        {
          "internalType": "uint8",
          "name": "underlyingDecimals",
          "type": "uint8"
        },
        {
          "internalType": "int128",
          "name": "tokenI",
          "type": "int128"
        },
        {
          "internalType": "int128",
          "name": "underlyingI",
          "type": "int128"
        }
      ],
      "stateMutability": "view",
      "type": "function"
    },
    {
      "inputs": [],
      "name": "totalPrincipal",
      "outputs": [
        {
          "internalType": "uint256",
          "name": "",
          "type": "uint256"
        }
      ],
      "stateMutability": "view",
      "type": "function"
    },
    {
      "inputs": [],
      "name": "totalShares",
      "outputs": [
        {
          "internalType": "uint256",
          "name": "",
          "type": "uint256"
        }
      ],
      "stateMutability": "view",
      "type": "function"
    },
    {
      "inputs": [],
      "name": "totalSponsored",
      "outputs": [
        {
          "internalType": "uint256",
          "name": "",
          "type": "uint256"
        }
      ],
      "stateMutability": "view",
      "type": "function"
    },
    {
      "inputs": [],
      "name": "totalUnderlying",
      "outputs": [
        {
          "internalType": "uint256",
          "name": "",
          "type": "uint256"
        }
      ],
      "stateMutability": "view",
      "type": "function"
    },
    {
      "inputs": [],
      "name": "totalUnderlyingMinusSponsored",
      "outputs": [
        {
          "internalType": "uint256",
          "name": "",
          "type": "uint256"
        }
      ],
      "stateMutability": "view",
      "type": "function"
    },
    {
      "inputs": [],
      "name": "treasury",
      "outputs": [
        {
          "internalType": "address",
          "name": "",
          "type": "address"
        }
      ],
      "stateMutability": "view",
      "type": "function"
    },
    {
      "inputs": [],
      "name": "underlying",
      "outputs": [
        {
          "internalType": "contract IERC20Metadata",
          "name": "",
          "type": "address"
        }
      ],
      "stateMutability": "view",
      "type": "function"
    },
    {
      "inputs": [],
      "name": "unpause",
      "outputs": [],
      "stateMutability": "nonpayable",
      "type": "function"
    },
    {
      "inputs": [
        {
          "internalType": "address",
          "name": "_to",
          "type": "address"
        },
        {
          "internalType": "uint256[]",
          "name": "_ids",
          "type": "uint256[]"
        }
      ],
      "name": "unsponsor",
      "outputs": [],
      "stateMutability": "nonpayable",
      "type": "function"
    },
    {
      "inputs": [],
      "name": "updateInvested",
      "outputs": [],
      "stateMutability": "nonpayable",
      "type": "function"
    },
    {
      "inputs": [
        {
          "internalType": "address",
          "name": "_to",
          "type": "address"
        },
        {
          "internalType": "uint256[]",
          "name": "_ids",
          "type": "uint256[]"
        }
      ],
      "name": "withdraw",
      "outputs": [],
      "stateMutability": "nonpayable",
      "type": "function"
    },
    {
      "inputs": [],
      "name": "withdrawPerformanceFee",
      "outputs": [],
      "stateMutability": "nonpayable",
      "type": "function"
    },
    {
      "inputs": [
        {
          "internalType": "address",
          "name": "_to",
          "type": "address"
        }
      ],
      "name": "yieldFor",
      "outputs": [
        {
          "internalType": "uint256",
          "name": "claimableYield",
          "type": "uint256"
        },
        {
          "internalType": "uint256",
          "name": "shares",
          "type": "uint256"
        },
        {
          "internalType": "uint256",
          "name": "perfFee",
          "type": "uint256"
        }
      ],
      "stateMutability": "view",
      "type": "function"
    }
  ],
  "transactionHash": "0x541dffe5e451e5d706a327cf7fc3ac685a9a2bc1747cbbb46d6835835b0ad7a3",
  "args": [
    "0x6cA13a4ab78dd7D657226b155873A04DB929A3A4",
    1,
    9000,
    "0x5A73c07163ACAE03e59c15697f79284b3bda2F2A",
    "0x5A73c07163ACAE03e59c15697f79284b3bda2F2A",
    100,
    200,
    [
      {
        "token": "0x6bb59e3f447222b3fcf2847111700723153f625a",
        "pool": "0x1F8f4090c3A2DEE7941daF29830878973991D8F0",
        "tokenI": 1,
        "underlyingI": 0
      },
      {
        "token": "0xE015FD30cCe08Bc10344D934bdb2292B1eC4BBBD",
        "pool": "0x1F8f4090c3A2DEE7941daF29830878973991D8F0",
        "tokenI": 2,
        "underlyingI": 0
      }
    ]
  ],
  "numDeployments": 6,
  "solcInputHash": "4a5397f29accf1098adf02207cf16de8",
  "bytecode": "0x60c06040523480156200001157600080fd5b5060405162005c0e38038062005c0e833981016040819052620000349162000d4b565b60016002556003805460ff191690556200005e61ffff871662000358602090811b62001f4417901c565b6200007c5760405163870e44a360e01b815260040160405180910390fd5b620000968361ffff166200035860201b62001f441760201c565b620000b45760405163d25b1e4b60e01b815260040160405180910390fd5b620000ce8261ffff166200035860201b62001f441760201c565b620000ec57604051631d05623160e01b815260040160405180910390fd5b6001600160a01b0388166200011457604051631fc8ba7960e31b815260040160405180910390fd5b6001600160a01b0385166200013c576040516335af31e960e11b815260040160405180910390fd5b6001600160a01b03841662000164576040516306a8b35560e21b815260040160405180910390fd5b6001600160401b038716158062000186575062dd7c006001600160401b038816115b15620001a557604051636df7cef760e11b815260040160405180910390fd5b620001b260008562000360565b620001de7fb165298935924f540e4181c03493a5d686c54a0aaeb3f6216de85b7ffbba77388562000360565b6200020a7ffaf9b26485088dee58863e57c46603d6cdcbadc7475ac6d8910fab0ecf6030958562000360565b620002367f1597bc5e34ff090612f53164e4e642d2ab4fc78bffe19ed1b602a0d12559561a8562000360565b60038054610100600160b81b031916600160a81b61ffff89811691909102610100600160a81b031916919091176101006001600160a01b038c811682029290921793849055600d80546001600160401b038d166080528a84166001600160b01b031990911617600160a01b89861602179055600f805461ffff1916938716939093179092556040805163313ce56760e01b8152905192909304169163313ce5679160048083019260209291908290030181865afa158015620002fc573d6000803e3d6000fd5b505050506040513d601f19601f8201168201806040525081019062000322919062000f03565b6200032f90600a6200103b565b6200033c90600a6200104c565b60a0526200034a8162000370565b505050505050505062001186565b612710101590565b6200036c8282620003c3565b5050565b805160005b81811015620003be57620003ab8382815181106200039757620003976200106e565b60200260200101516200043160201b60201c565b620003b68162001084565b905062000375565b505050565b620003cf82826200080c565b6200036c5760008281526001602081815260408084206001600160a01b0386168086529252808420805460ff19169093179092559051339285917f2f8788117e7eff1d82e926ec794901d17c78024a50270940304540a733656f0d9190a45050565b80516001600160a01b039081166000908152602081905260409020541615620004a15760405162461bcd60e51b815260206004820152601d60248201527f746f6b656e20616c7265616479206861732061207377617020706f6f6c00000060448201526064015b60405180910390fd5b620004b960035461010090046001600160a01b031690565b6001600160a01b031681602001516001600160a01b031663c661065783606001516001600160801b03166040518263ffffffff1660e01b81526004016200050291815260200190565b602060405180830381865afa15801562000520573d6000803e3d6000fd5b505050506040513d601f19601f82011682018060405250810190620005469190620010a2565b6001600160a01b031614620005b35760405162461bcd60e51b815260206004820152602c60248201527f5f756e6465726c79696e674920646f6573206e6f74206d6174636820756e646560448201526b39363cb4b733903a37b5b2b760a11b606482015260840162000498565b600081600001516001600160a01b031663313ce5676040518163ffffffff1660e01b8152600401602060405180830381865afa158015620005f8573d6000803e3d6000fd5b505050506040513d601f19601f820116820180604052508101906200061e919062000f03565b60ff16905060006200063d60035461010090046001600160a01b031690565b6001600160a01b031663313ce5676040518163ffffffff1660e01b8152600401602060405180830381865afa1580156200067b573d6000803e3d6000fd5b505050506040513d601f19601f82011682018060405250810190620006a1919062000f03565b6040805160a0810182526020808701516001600160a01b03908116835260ff8781168385019081529581168486018181528a870151600f90810b60608089019182528d015190910b608088019081528c5186166000908152968790529790952095518654985191518416600160a81b0260ff60a81b1992909416600160a01b026001600160a81b031990991694169390931796909617919091161782555191516001600160801b03908116600160801b029216919091176001909101559050620007876200077c60035461010090046001600160a01b031690565b602085015162000839565b825160208401516200079a919062000839565b82602001516001600160a01b031683600001516001600160a01b03167f1576b5fcfa863788d9ef6558cab7aa68d4b48c44eb7bacaf1a8ac6d6b9d26f9485604001518660600151604051620007ff929190600f92830b8152910b602082015260400190565b60405180910390a3505050565b60008281526001602090815260408083206001600160a01b038516845290915290205460ff165b92915050565b604051636eb1769f60e11b81523060048201526001600160a01b0382811660248301526000919084169063dd62ed3e90604401602060405180830381865afa1580156200088a573d6000803e3d6000fd5b505050506040513d601f19601f82011682018060405250810190620008b09190620010c2565b905080620003be57620003be82600019856001600160a01b0316620008df60201b62001f4c179092919060201c565b8015806200095d5750604051636eb1769f60e11b81523060048201526001600160a01b03838116602483015284169063dd62ed3e90604401602060405180830381865afa15801562000935573d6000803e3d6000fd5b505050506040513d601f19601f820116820180604052508101906200095b9190620010c2565b155b620009d15760405162461bcd60e51b815260206004820152603660248201527f5361666545524332303a20617070726f76652066726f6d206e6f6e2d7a65726f60448201527f20746f206e6f6e2d7a65726f20616c6c6f77616e636500000000000000000000606482015260840162000498565b604080516001600160a01b038416602482015260448082018490528251808303909101815260649091019091526020810180516001600160e01b0390811663095ea7b360e01b17909152620003be91859162000a2916565b600062000a85826040518060400160405280602081526020017f5361666545524332303a206c6f772d6c6576656c2063616c6c206661696c6564815250856001600160a01b031662000b0760201b620020c9179092919060201c565b805190915015620003be578080602001905181019062000aa69190620010dc565b620003be5760405162461bcd60e51b815260206004820152602a60248201527f5361666545524332303a204552433230206f7065726174696f6e20646964206e6044820152691bdd081cdd58d8d9595960b21b606482015260840162000498565b606062000b18848460008562000b22565b90505b9392505050565b60608247101562000b855760405162461bcd60e51b815260206004820152602660248201527f416464726573733a20696e73756666696369656e742062616c616e636520666f6044820152651c8818d85b1b60d21b606482015260840162000498565b843b62000bd55760405162461bcd60e51b815260206004820152601d60248201527f416464726573733a2063616c6c20746f206e6f6e2d636f6e7472616374000000604482015260640162000498565b600080866001600160a01b0316858760405162000bf3919062001133565b60006040518083038185875af1925050503d806000811462000c32576040519150601f19603f3d011682016040523d82523d6000602084013e62000c37565b606091505b50909250905062000c4a82828662000c55565b979650505050505050565b6060831562000c6657508162000b1b565b82511562000c775782518084602001fd5b8160405162461bcd60e51b815260040162000498919062001151565b6001600160a01b038116811462000ca957600080fd5b50565b805161ffff8116811462000cbf57600080fd5b919050565b634e487b7160e01b600052604160045260246000fd5b604051608081016001600160401b038111828210171562000cff5762000cff62000cc4565b60405290565b604051601f8201601f191681016001600160401b038111828210171562000d305762000d3062000cc4565b604052919050565b8051600f81900b811462000cbf57600080fd5b600080600080600080600080610100898b03121562000d6957600080fd5b885162000d768162000c93565b60208a01519098506001600160401b03808216821462000d9557600080fd5b81985062000da660408c0162000cac565b975060608b0151915062000dba8262000c93565b60808b015191965062000dcd8262000c93565b81955062000dde60a08c0162000cac565b945062000dee60c08c0162000cac565b935060e08b015191508082111562000e0557600080fd5b818b0191508b601f83011262000e1a57600080fd5b81518181111562000e2f5762000e2f62000cc4565b62000e4060208260051b0162000d05565b91508181835260208301925060208260071b85010191508d82111562000e6557600080fd5b6020840193505b8184101562000eef576080848f03121562000e8657600080fd5b62000e9062000cda565b845162000e9d8162000c93565b8152602085015162000eaf8162000c93565b602082015262000ec26040860162000d38565b604082015262000ed56060860162000d38565b606082015283526080939093019260209092019162000e6c565b809450505050509295985092959890939650565b60006020828403121562000f1657600080fd5b815160ff8116811462000b1b57600080fd5b634e487b7160e01b600052601160045260246000fd5b600181815b8085111562000f7f57816000190482111562000f635762000f6362000f28565b8085161562000f7157918102915b93841c939080029062000f43565b509250929050565b60008262000f985750600162000833565b8162000fa75750600062000833565b816001811462000fc0576002811462000fcb5762000feb565b600191505062000833565b60ff84111562000fdf5762000fdf62000f28565b50506001821b62000833565b5060208310610133831016604e8410600b841016171562001010575081810a62000833565b6200101c838362000f3e565b806000190482111562001033576200103362000f28565b029392505050565b600062000b1b60ff84168362000f87565b600081600019048311821515161562001069576200106962000f28565b500290565b634e487b7160e01b600052603260045260246000fd5b60006000198214156200109b576200109b62000f28565b5060010190565b600060208284031215620010b557600080fd5b815162000b1b8162000c93565b600060208284031215620010d557600080fd5b5051919050565b600060208284031215620010ef57600080fd5b8151801515811462000b1b57600080fd5b60005b838110156200111d57818101518382015260200162001103565b838111156200112d576000848401525b50505050565b600082516200114781846020870162001100565b9190910192915050565b60208152600082518060208401526200117281604085016020870162001100565b601f01601f19169190910160400192915050565b60805160a051614a54620011ba60003960008181610f2f015261103401526000818161058101526131470152614a546000f3fe608060405234801561001057600080fd5b50600436106103835760003560e01c80638293744b116101de578063c0ddb6921161010f578063eb0ebfbc116100ad578063f62898871161007c578063f6289887146108fe578063f78797c014610925578063f943c8a21461094e578063fd6e92171461096157600080fd5b8063eb0ebfbc14610896578063f0f442601461089f578063f4f297f3146108b2578063f5eb42dc146108d257600080fd5b8063d547741f116100e9578063d547741f14610848578063d9db2b771461085b578063df6f9ba714610870578063e4020fdf1461088357600080fd5b8063c0ddb69214610811578063c2d7944414610819578063c70920bc1461084057600080fd5b8063a164c25d1161017c578063a8c62e7611610156578063a8c62e761461075e578063b02c43d014610771578063bba97d33146107e3578063bd2e3ecd146105e357600080fd5b8063a164c25d14610739578063a1ac20eb14610743578063a217fddf1461075657600080fd5b806391d14854116101b857806391d14854146106c457806395854b1a146106fd5780639816f47314610710578063999927df1461072657600080fd5b80638293744b146106135780638456cb59146106265780638cad7fbe1461062e57600080fd5b80634b1533b2116102b85780636e7007e61161025657806376082a5e1161023057806376082a5e146105bc57806376490b56146105e35780637e2cba6f146105ed5780637e4b8da01461060057600080fd5b80636e7007e6146105435780636f307dc31461056457806373ae54b51461057c57600080fd5b8063563233f611610292578063563233f6146104d15780635c975abb146104e457806361d027b3146104ef57806361e20a1c1461051a57600080fd5b80634b1533b2146104b85780634e813ac4146104c15780634fc78d68146104c957600080fd5b806336568abe116103255780633b7d0946116102ff5780633b7d0946146104825780633ba52fc6146104955780633f3832361461049d5780633f4ba83a146104b057600080fd5b806336568abe1461045e57806336b4134a146104715780633a98ef391461047957600080fd5b806319d3ee3d1161036157806319d3ee3d14610409578063248a9ca3146104125780632f2ff15d1461043657806333a100ca1461044b57600080fd5b806301ffc9a7146103885780631325d5f1146103b057806313f6686d146103cd575b600080fd5b61039b610396366004614051565b610976565b60405190151581526020015b60405180910390f35b6103bf670de0b6b3a764000081565b6040519081526020016103a7565b6103f46103db366004614090565b600b602052600090815260409020805460019091015482565b604080519283526020830191909152016103a7565b6103bf600e5481565b6103bf6104203660046140ad565b6000908152600160208190526040909120015490565b6104496104443660046140c6565b6109ee565b005b610449610459366004614090565b610a1a565b61044961046c3660046140c6565b610c2c565b6103bf606381565b6103bf60055481565b610449610490366004614090565b610cbd565b610449610cd2565b6104496104ab36600461417d565b610d91565b610449610da6565b6103bf600c5481565b6103f4610dbd565b610449610e7a565b6104496104df366004614210565b61112e565b60035460ff1661039b565b600d54610502906001600160a01b031681565b6040516001600160a01b0390911681526020016103a7565b6103bf610528366004614090565b6001600160a01b03166000908152600b602052604090205490565b600f546105519061ffff1681565b60405161ffff90911681526020016103a7565b6003546105029061010090046001600160a01b031681565b6105a37f000000000000000000000000000000000000000000000000000000000000000081565b60405167ffffffffffffffff90911681526020016103a7565b6103bf7fb165298935924f540e4181c03493a5d686c54a0aaeb3f6216de85b7ffbba773881565b6105a362dd7c0081565b6104496105fb366004614210565b61120b565b61044961060e366004614277565b6112ba565b6104496106213660046142fa565b611350565b610449611427565b61068561063c366004614090565b600060208190529081526040902080546001909101546001600160a01b0382169160ff600160a01b8204811692600160a81b9092041690600f81810b91600160801b9004900b85565b604080516001600160a01b03909616865260ff94851660208701529390921692840192909252600f91820b6060840152900b608082015260a0016103a7565b61039b6106d23660046140c6565b60009182526001602090815260408084206001600160a01b0393909316845291905290205460ff1690565b61044961070b36600461434f565b61143b565b60035461010090046001600160a01b0316610502565b610449610734366004614090565b611681565b6105a36212750081565b610449610751366004614210565b611818565b6103bf600081565b600654610502906001600160a01b031681565b6107b361077f3660046140ad565b600960205260009081526040902080546001820154600283015460039093015491926001600160a01b039182169291169084565b6040516103a794939291909384526001600160a01b03928316602085015291166040830152606082015260800190565b6107f66107f1366004614090565b6118f7565b604080519384526020840192909252908201526060016103a7565b6103bf6119bd565b6103bf7f1597bc5e34ff090612f53164e4e642d2ab4fc78bffe19ed1b602a0d12559561a81565b6103bf611a00565b6104496108563660046140c6565b611b7a565b600d5461055190600160a01b900461ffff1681565b61044961087e3660046142fa565b611ba1565b6104496108913660046142fa565b611c2b565b6103bf60045481565b6104496108ad366004614090565b611cb3565b6108c56108c036600461439c565b611d69565b6040516103a791906143e3565b6103bf6108e0366004614090565b6001600160a01b03166000908152600b602052604090206001015490565b6103bf7ffaf9b26485088dee58863e57c46603d6cdcbadc7475ac6d8910fab0ecf60309581565b6105026109333660046140ad565b6008602052600090815260409020546001600160a01b031681565b6108c561095c366004614427565b611e6d565b60035461055190600160a81b900461ffff1681565b60006001600160e01b031982167f54ff06df0000000000000000000000000000000000000000000000000000000014806109d957506001600160e01b031982167f9a89fb7900000000000000000000000000000000000000000000000000000000145b806109e857506109e8826120e2565b92915050565b60008281526001602081905260409091200154610a0b8133612149565b610a1583836121c9565b505050565b7ffaf9b26485088dee58863e57c46603d6cdcbadc7475ac6d8910fab0ecf603095610a458133612149565b6001600160a01b038216610a6c57604051634f08b3f360e11b815260040160405180910390fd5b306001600160a01b0316826001600160a01b031663fbfa77cf6040518163ffffffff1660e01b8152600401602060405180830381865afa158015610ab4573d6000803e3d6000fd5b505050506040513d601f19601f82011682018060405250810190610ad89190614464565b6001600160a01b031614610b18576040517f0251bab500000000000000000000000000000000000000000000000000000000815260040160405180910390fd5b6006546001600160a01b031615801590610baa5750600660009054906101000a90046001600160a01b03166001600160a01b0316635be9b2d36040518163ffffffff1660e01b8152600401602060405180830381865afa158015610b80573d6000803e3d6000fd5b505050506040513d601f19601f82011682018060405250810190610ba49190614481565b15156001145b15610be1576040517fd28a9fdb00000000000000000000000000000000000000000000000000000000815260040160405180910390fd5b600680546001600160a01b0319166001600160a01b0384169081179091556040517f4da9c22c924692646a21cf1f423781ae3285198dc22e8a6912835d3272b90b3c90600090a25050565b6001600160a01b0381163314610caf5760405162461bcd60e51b815260206004820152602f60248201527f416363657373436f6e74726f6c3a2063616e206f6e6c792072656e6f756e636560448201527f20726f6c657320666f722073656c66000000000000000000000000000000000060648201526084015b60405180910390fd5b610cb98282612250565b5050565b6000610cc98133612149565b610cb9826122d3565b7fb165298935924f540e4181c03493a5d686c54a0aaeb3f6216de85b7ffbba7738610cfd8133612149565b600e5480610d37576040517f0a33934000000000000000000000000000000000000000000000000000000000815260040160405180910390fd5b6000600e556040518181527fb7eeacba6b133788365610e83d3f130d07b6ef6e78877961f25b3f61fcba07529060200160405180910390a1600d54600354610cb9916001600160a01b0361010090920482169116836123a7565b6000610d9d8133612149565b610cb9826123f0565b6000610db28133612149565b610dba612804565b50565b60065460009081906001600160a01b0316610ddb5750600091829150565b600354610dfb90600160a81b900461ffff16610df5611a00565b906128a0565b9150600660009054906101000a90046001600160a01b03166001600160a01b0316634ad0b6846040518163ffffffff1660e01b8152600401602060405180830381865afa158015610e50573d6000803e3d6000fd5b505050506040513d601f19601f82011682018060405250810190610e7491906144a3565b90509091565b7fb165298935924f540e4181c03493a5d686c54a0aaeb3f6216de85b7ffbba7738610ea58133612149565b6006546001600160a01b0316610ece57604051634f08b3f360e11b815260040160405180910390fd5b600080610ed9610dbd565b9150915080821415610f17576040517ff096593000000000000000000000000000000000000000000000000000000000815260040160405180910390fd5b81811115611024576000610f2b83836144d2565b90507f0000000000000000000000000000000000000000000000000000000000000000811015610f6e57604051630e33bdb760e11b815260040160405180910390fd5b6006546040517fce8c42e8000000000000000000000000000000000000000000000000000000008152600481018390526001600160a01b039091169063ce8c42e890602401600060405180830381600087803b158015610fcd57600080fd5b505af1158015610fe1573d6000803e3d6000fd5b505050507ff7e72e2f53a982a67fc999c00edfd87a94bdf99e5031c74851276cfd65b0bd298160405161101691815260200190565b60405180910390a150505050565b600061103082846144d2565b90507f000000000000000000000000000000000000000000000000000000000000000081101561107357604051630e33bdb760e11b815260040160405180910390fd5b600654600354611095916001600160a01b0361010090920482169116836123a7565b600660009054906101000a90046001600160a01b03166001600160a01b031663e8b5e51f6040518163ffffffff1660e01b8152600401600060405180830381600087803b1580156110e557600080fd5b505af11580156110f9573d6000803e3d6000fd5b505050507fac9f7997c30b6a3cc9c74953898b5de154359339c7ec0d6d70ceb98e55db1a4b8160405161101691815260200190565b7ffaf9b26485088dee58863e57c46603d6cdcbadc7475ac6d8910fab0ecf6030956111598133612149565b61ffff82166127101015611199576040517fd25b1e4b00000000000000000000000000000000000000000000000000000000815260040160405180910390fd5b600d80547fffffffffffffffffffff0000ffffffffffffffffffffffffffffffffffffffff16600160a01b61ffff8516908102919091179091556040519081527f16de0efbdf16c568a60b65978ed774bba4e0c179de55ab8f639527e41fd0c861906020015b60405180910390a15050565b7ffaf9b26485088dee58863e57c46603d6cdcbadc7475ac6d8910fab0ecf6030956112368133612149565b61ffff82166127101015611276576040517f1d05623100000000000000000000000000000000000000000000000000000000815260040160405180910390fd5b600f805461ffff191661ffff84169081179091556040519081527f5b9aa28fc994f782b33ebebd9947795b5bc59a54203466433eac5f8d9e819400906020016111ff565b60028054141561130c5760405162461bcd60e51b815260206004820152601f60248201527f5265656e7472616e637947756172643a207265656e7472616e742063616c6c006044820152606401610ca6565b600280556001600160a01b0385166113375760405163f95106ab60e01b815260040160405180910390fd5b61134485858585856128bd565b50506001600255505050565b6002805414156113a25760405162461bcd60e51b815260206004820152601f60248201527f5265656e7472616e637947756172643a207265656e7472616e742063616c6c006044820152606401610ca6565b600280556001600160a01b0383166113cd5760405163f95106ab60e01b815260040160405180910390fd5b6113d56119bd565b600c541115611410576040517f0bdd660c00000000000000000000000000000000000000000000000000000000815260040160405180910390fd5b61141d83838360006129dc565b5050600160025550565b60006114338133612149565b610dba612a96565b60028054141561148d5760405162461bcd60e51b815260206004820152601f60248201527f5265656e7472616e637947756172643a207265656e7472616e742063616c6c006044820152606401610ca6565b600280557f1597bc5e34ff090612f53164e4e642d2ab4fc78bffe19ed1b602a0d12559561a6114bc8133612149565b60035460ff16156115025760405162461bcd60e51b815260206004820152601060248201526f14185d5cd8589b194e881c185d5cd95960821b6044820152606401610ca6565b82611539576040517ff712805800000000000000000000000000000000000000000000000000000000815260040160405180910390fd5b6212750082108061154c575062dd7c0082115b1561156a57604051636235acd960e01b815260040160405180910390fd5b600061157642846144e9565b9050611586600a80546001019055565b6000611591600a5490565b905061159e338787612b11565b60006115aa8787612c49565b604080516080810182528281523360208083019182526000838501818152606085018a815289835260099093529481209351845591516001840180546001600160a01b03199081166001600160a01b0393841617909155945160028501805490961691161790935591516003909101556004805492935083929091906116319084906144e9565b90915550506040805182815260208101859052339184917f7ca3497675c6d3ec00b1edc13b8e0b06169ee96a663ab25a74af7da53378f09e910160405180910390a3505060016002555050505050565b6002805414156116d35760405162461bcd60e51b815260206004820152601f60248201527f5265656e7472616e637947756172643a207265656e7472616e742063616c6c006044820152606401610ca6565b600280556001600160a01b0381166116fe5760405163f95106ab60e01b815260040160405180910390fd5b600080600061170c336118f7565b925092509250826000141561172357505050611810565b600061172d6119bd565b90506000600554905082600e600082825461174891906144e9565b90915550506003546117699061010090046001600160a01b031687876123a7565b336000908152600b60205260408120600101805486929061178b9084906144d2565b9250508190555083600560008282546117a491906144d2565b90915550506040805133815260208101879052908101859052606081018490526080810183905260a081018290526001600160a01b038716907f4344accc2a634cf29195bba6fa3d939e3415ecd1ca5c57b322bcf81f920979c89060c00160405180910390a250505050505b506001600255565b7ffaf9b26485088dee58863e57c46603d6cdcbadc7475ac6d8910fab0ecf6030956118438133612149565b61ffff82166127101015611883576040517f870e44a300000000000000000000000000000000000000000000000000000000815260040160405180910390fd5b60405161ffff831681527f40775ca73a6e168d23747bc0200694cf7c99ad2db624d04c095cb59899011a569060200160405180910390a1506003805461ffff909216600160a81b027fffffffffffffffffff0000ffffffffffffffffffffffffffffffffffffffffff909216919091179055565b6001600160a01b0381166000908152600b60205260408120805460019091015460055483928392909183906119359083906119306119bd565b612e26565b90508281116119515760008060009550955095505050506119b6565b600061195d84836144d2565b90506119738160055461196e6119bd565b612e5e565b95506000611986876005546119306119bd565b600d549091506119a2908290600160a01b900461ffff166128a0565b95506119ae86826144d2565b975050505050505b9193909250565b6000806119c8611a00565b90506000600e546004546119dc91906144e9565b9050818111156119ef5760009250505090565b6119f981836144d2565b9250505090565b6006546000906001600160a01b031615611b0a57600660009054906101000a90046001600160a01b03166001600160a01b0316634ad0b6846040518163ffffffff1660e01b8152600401602060405180830381865afa158015611a67573d6000803e3d6000fd5b505050506040513d601f19601f82011682018060405250810190611a8b91906144a3565b6003546040516370a0823160e01b81523060048201526101009091046001600160a01b0316906370a0823190602401602060405180830381865afa158015611ad7573d6000803e3d6000fd5b505050506040513d601f19601f82011682018060405250810190611afb91906144a3565b611b0591906144e9565b905090565b6003546040516370a0823160e01b81523060048201526101009091046001600160a01b0316906370a0823190602401602060405180830381865afa158015611b56573d6000803e3d6000fd5b505050506040513d601f19601f82011682018060405250810190611b0591906144a3565b60008281526001602081905260409091200154611b978133612149565b610a158383612250565b600280541415611bf35760405162461bcd60e51b815260206004820152601f60248201527f5265656e7472616e637947756172643a207265656e7472616e742063616c6c006044820152606401610ca6565b600280556001600160a01b038316611c1e5760405163f95106ab60e01b815260040160405180910390fd5b61141d83838360016129dc565b600280541415611c7d5760405162461bcd60e51b815260206004820152601f60248201527f5265656e7472616e637947756172643a207265656e7472616e742063616c6c006044820152606401610ca6565b600280556001600160a01b038316611ca85760405163f95106ab60e01b815260040160405180910390fd5b61141d838383612ecd565b7ffaf9b26485088dee58863e57c46603d6cdcbadc7475ac6d8910fab0ecf603095611cde8133612149565b6001600160a01b038216611d1e576040517f6b5e63d200000000000000000000000000000000000000000000000000000000815260040160405180910390fd5b600d80546001600160a01b0319166001600160a01b0384169081179091556040517f7dae230f18360d76a040c81f050aa14eb9d6dc7901b20fc5d855e2a20fe814d190600090a25050565b6060600280541415611dbd5760405162461bcd60e51b815260206004820152601f60248201527f5265656e7472616e637947756172643a207265656e7472616e742063616c6c006044820152606401610ca6565b6002805560035460ff1615611e075760405162461bcd60e51b815260206004820152601060248201526f14185d5cd8589b194e881c185d5cd95960821b6044820152606401610ca6565b6000838152600860205260409020546001600160a01b03163314611e57576040517f9049b68600000000000000000000000000000000000000000000000000000000815260040160405180910390fd5b611e6183836130ff565b60016002559392505050565b6060600280541415611ec15760405162461bcd60e51b815260206004820152601f60248201527f5265656e7472616e637947756172643a207265656e7472616e742063616c6c006044820152606401610ca6565b6002805560035460ff1615611f0b5760405162461bcd60e51b815260206004820152601060248201526f14185d5cd8589b194e881c185d5cd95960821b6044820152606401610ca6565b600754611f198160016144e9565b600755600081815260086020526040902080546001600160a01b03191633179055611e6181846130ff565b612710101590565b801580611fc65750604051636eb1769f60e11b81523060048201526001600160a01b03838116602483015284169063dd62ed3e90604401602060405180830381865afa158015611fa0573d6000803e3d6000fd5b505050506040513d601f19601f82011682018060405250810190611fc491906144a3565b155b6120385760405162461bcd60e51b815260206004820152603660248201527f5361666545524332303a20617070726f76652066726f6d206e6f6e2d7a65726f60448201527f20746f206e6f6e2d7a65726f20616c6c6f77616e6365000000000000000000006064820152608401610ca6565b6040516001600160a01b038316602482015260448101829052610a159084907f095ea7b300000000000000000000000000000000000000000000000000000000906064015b60408051601f198184030181529190526020810180517bffffffffffffffffffffffffffffffffffffffffffffffffffffffff166001600160e01b0319909316929092179091526132a4565b60606120d88484600085613389565b90505b9392505050565b60006001600160e01b031982167f7965db0b0000000000000000000000000000000000000000000000000000000014806109e857507f01ffc9a7000000000000000000000000000000000000000000000000000000006001600160e01b03198316146109e8565b60008281526001602090815260408083206001600160a01b038516845290915290205460ff16610cb957612187816001600160a01b031660146134bd565b6121928360206134bd565b6040516020016121a392919061452d565b60408051601f198184030181529082905262461bcd60e51b8252610ca6916004016145da565b60008281526001602090815260408083206001600160a01b038516845290915290205460ff16610cb95760008281526001602081815260408084206001600160a01b0386168086529252808420805460ff19169093179092559051339285917f2f8788117e7eff1d82e926ec794901d17c78024a50270940304540a733656f0d9190a45050565b60008281526001602090815260408083206001600160a01b038516845290915290205460ff1615610cb95760008281526001602090815260408083206001600160a01b0385168085529252808320805460ff1916905551339285917ff6391f5c32d9c69d2a47ea670b442974b53935d1edc7fd64eb21e047a839171b9190a45050565b6001600160a01b038181166000908152602081905260409020541661233a5760405162461bcd60e51b815260206004820152601360248201527f706f6f6c20646f6573206e6f74206578697374000000000000000000000000006044820152606401610ca6565b6001600160a01b03811660008181526020819052604080822080547fffffffffffffffffffff00000000000000000000000000000000000000000000168155600101829055517f94be23730c4398d20227f4e457cf92307b13e5956f2a958e2e368ad44e2f826b9190a250565b6040516001600160a01b038316602482015260448101829052610a159084907fa9059cbb000000000000000000000000000000000000000000000000000000009060640161207d565b80516001600160a01b03908116600090815260208190526040902054161561245a5760405162461bcd60e51b815260206004820152601d60248201527f746f6b656e20616c7265616479206861732061207377617020706f6f6c0000006044820152606401610ca6565b60035461010090046001600160a01b03166001600160a01b031681602001516001600160a01b031663c661065783606001516fffffffffffffffffffffffffffffffff166040518263ffffffff1660e01b81526004016124bc91815260200190565b602060405180830381865afa1580156124d9573d6000803e3d6000fd5b505050506040513d601f19601f820116820180604052508101906124fd9190614464565b6001600160a01b0316146125795760405162461bcd60e51b815260206004820152602c60248201527f5f756e6465726c79696e674920646f6573206e6f74206d6174636820756e646560448201527f726c79696e6720746f6b656e00000000000000000000000000000000000000006064820152608401610ca6565b600081600001516001600160a01b031663313ce5676040518163ffffffff1660e01b8152600401602060405180830381865afa1580156125bd573d6000803e3d6000fd5b505050506040513d601f19601f820116820180604052508101906125e191906145ed565b60ff16905060006126006003546001600160a01b036101009091041690565b6001600160a01b031663313ce5676040518163ffffffff1660e01b8152600401602060405180830381865afa15801561263d573d6000803e3d6000fd5b505050506040513d601f19601f8201168201806040525081019061266191906145ed565b6040805160a0810182526020808701516001600160a01b03908116835260ff8781168385019081529581168486018181528a870151600f90810b60608089019182528d015190910b608088019081528c5186166000908152968790529790952095518654985191518416600160a81b027fffffffffffffffffffff00ffffffffffffffffffffffffffffffffffffffffff92909416600160a01b027fffffffffffffffffffffff00000000000000000000000000000000000000000090991694169390931796909617919091161782555191516fffffffffffffffffffffffffffffffff908116600160801b0292169190911760019091015590506127816127776003546001600160a01b036101009091041690565b846020015161369e565b6127938360000151846020015161369e565b82602001516001600160a01b031683600001516001600160a01b03167f1576b5fcfa863788d9ef6558cab7aa68d4b48c44eb7bacaf1a8ac6d6b9d26f94856040015186606001516040516127f7929190600f92830b8152910b602082015260400190565b60405180910390a3505050565b60035460ff166128565760405162461bcd60e51b815260206004820152601460248201527f5061757361626c653a206e6f74207061757365640000000000000000000000006044820152606401610ca6565b6003805460ff191690557f5db9ee0a495bf2e6ff9c91a7834c1ba4fdd244a5e8aa4e537bd38aeae4b073aa335b6040516001600160a01b03909116815260200160405180910390a1565b60006127106128b361ffff841685614610565b6120db919061462f565b60055460006128ca6119bd565b9050600085815b818110156129b457600960008a8a848181106128ef576128ef614651565b9050602002013581526020019081526020016000206000015487878381811061291a5761291a614651565b905060200201351115612959576040517fab37226a00000000000000000000000000000000000000000000000000000000815260040160405180910390fd5b61299889898381811061296e5761296e614651565b9050602002013586868d60008c8c8881811061298c5761298c614651565b9050602002013561372f565b6129a290846144e9565b92506129ad81614667565b90506128d1565b506003546129d19061010090046001600160a01b03168a846123a7565b505050505050505050565b60055460006129e96119bd565b9050600084815b81811015612a6f576000600960008a8a85818110612a1057612a10614651565b905060200201358152602001908152602001600020600001549050612a51898984818110612a4057612a40614651565b9050602002013587878d8b8661372f565b612a5b90856144e9565b93505080612a6890614667565b90506129f0565b50600354612a8c9061010090046001600160a01b031689846123a7565b5050505050505050565b60035460ff1615612adc5760405162461bcd60e51b815260206004820152601060248201526f14185d5cd8589b194e881c185d5cd95960821b6044820152606401610ca6565b6003805460ff191660011790557f62e78cea01bee320cd4e420270b5ea74000d11b0c9f74754ebdbfc544b05a2586128833390565b6040516370a0823160e01b81523060048201526000906001600160a01b038416906370a0823190602401602060405180830381865afa158015612b58573d6000803e3d6000fd5b505050506040513d601f19601f82011682018060405250810190612b7c91906144a3565b9050612b936001600160a01b038416853085613a78565b6040516370a0823160e01b81523060048201526000906001600160a01b038516906370a0823190602401602060405180830381865afa158015612bda573d6000803e3d6000fd5b505050506040513d601f19601f82011682018060405250810190612bfe91906144a3565b9050612c0a83836144e9565b8114612c42576040517f2a25a38b00000000000000000000000000000000000000000000000000000000815260040160405180910390fd5b5050505050565b600080612c646003546001600160a01b036101009091041690565b9050806001600160a01b0316846001600160a01b03161415612c8957829150506109e8565b6001600160a01b0380851660009081526020819052604090208054909116612cf35760405162461bcd60e51b815260206004820152601660248201527f6e6f6e2d6578697374696e67207377617020706f6f6c000000000000000000006044820152606401610ca6565b8054600090612d1790869060ff600160a01b8204811691600160a81b900416613acf565b825460018401546040517fa6417ed6000000000000000000000000000000000000000000000000000000008152600f82810b6004830152600160801b90920490910b602482015260448101889052606481018390529192506001600160a01b03169063a6417ed6906084016020604051808303816000875af1158015612da1573d6000803e3d6000fd5b505050506040513d601f19601f82011682018060405250810190612dc591906144a3565b9350826001600160a01b0316866001600160a01b03167ffa2dda1cc1b86e41239702756b13effbc1a092b5c57e3ad320fbe4f3b13fe2358787604051612e15929190918252602082015260400190565b60405180910390a350505092915050565b6000831580612e33575082155b80612e3c575081155b15612e49575060006120db565b82612e548584614610565b6120d8919061462f565b600083612e6d575060006120db565b82612e8b57612e84670de0b6b3a764000085614610565b90506120db565b81612ec2576040517ff91b6e7b00000000000000000000000000000000000000000000000000000000815260040160405180910390fd5b81612e548486614610565b600081815b818160ff16101561308a57600085858360ff16818110612ef457612ef4614651565b602090810292909201356000818152600984526040908190208151608081018352815480825260018301546001600160a01b039081169783018890526002840154169382018490526003909201546060820181905293965094929350909190338214612f8c576040517f5040aaa300000000000000000000000000000000000000000000000000000000815260040160405180910390fd5b42841115612fc6576040517f4cf1715e00000000000000000000000000000000000000000000000000000000815260040160405180910390fd5b6001600160a01b03831615613007576040517f6f15ccf800000000000000000000000000000000000000000000000000000000815260040160405180910390fd5b613011818a6144e9565b6000878152600960205260408082208281556001810180546001600160a01b0319908116909155600282018054909116905560030182905551919a5087917f05394e48d744e4a16d65f52f88cdaf0f60f5d18af259df878d44cb80826d221f9190a25050505050508061308390614682565b9050612ed2565b50613093611a00565b8211156130cc576040517fbf08573200000000000000000000000000000000000000000000000000000000815260040160405180910390fd5b81600460008282546130de91906144d2565b9091555050600354612c429061010090046001600160a01b031686846123a7565b6060604082013561313c576040517fab59997c00000000000000000000000000000000000000000000000000000000815260040160405180910390fd5b67ffffffffffffffff7f00000000000000000000000000000000000000000000000000000000000000001661317760408401602085016146a2565b67ffffffffffffffff1610806131a8575062dd7c0061319c60408401602085016146a2565b67ffffffffffffffff16115b156131c657604051636235acd960e01b815260040160405180910390fd5b60006131d3600c54613b07565b905060006131df6119bd565b90508082111561321b576040517f08063cab00000000000000000000000000000000000000000000000000000000815260040160405180910390fd5b6132363361322c6020870187614090565b8660400135612b11565b60006132526132486020870187614090565b8660400135612c49565b905060004261326760408801602089016146a2565b61327191906146cc565b905061329983838361328660608b018b6146f8565b61329360808d018d614742565b8e613b26565b979650505050505050565b60006132f9826040518060400160405280602081526020017f5361666545524332303a206c6f772d6c6576656c2063616c6c206661696c6564815250856001600160a01b03166120c99092919063ffffffff16565b805190915015610a1557808060200190518101906133179190614481565b610a155760405162461bcd60e51b815260206004820152602a60248201527f5361666545524332303a204552433230206f7065726174696f6e20646964206e60448201527f6f742073756363656564000000000000000000000000000000000000000000006064820152608401610ca6565b6060824710156134015760405162461bcd60e51b815260206004820152602660248201527f416464726573733a20696e73756666696369656e742062616c616e636520666f60448201527f722063616c6c00000000000000000000000000000000000000000000000000006064820152608401610ca6565b843b61344f5760405162461bcd60e51b815260206004820152601d60248201527f416464726573733a2063616c6c20746f206e6f6e2d636f6e74726163740000006044820152606401610ca6565b600080866001600160a01b0316858760405161346b9190614789565b60006040518083038185875af1925050503d80600081146134a8576040519150601f19603f3d011682016040523d82523d6000602084013e6134ad565b606091505b5091509150613299828286613d68565b606060006134cc836002614610565b6134d79060026144e9565b67ffffffffffffffff8111156134ef576134ef6140f6565b6040519080825280601f01601f191660200182016040528015613519576020820181803683370190505b5090507f30000000000000000000000000000000000000000000000000000000000000008160008151811061355057613550614651565b60200101906001600160f81b031916908160001a9053507f78000000000000000000000000000000000000000000000000000000000000008160018151811061359b5761359b614651565b60200101906001600160f81b031916908160001a90535060006135bf846002614610565b6135ca9060016144e9565b90505b600181111561364f577f303132333435363738396162636465660000000000000000000000000000000085600f166010811061360b5761360b614651565b1a60f81b82828151811061362157613621614651565b60200101906001600160f81b031916908160001a90535060049490941c93613648816147a5565b90506135cd565b5083156120db5760405162461bcd60e51b815260206004820181905260248201527f537472696e67733a20686578206c656e67746820696e73756666696369656e746044820152606401610ca6565b604051636eb1769f60e11b81523060048201526001600160a01b0382811660248301526000919084169063dd62ed3e90604401602060405180830381865afa1580156136ee573d6000803e3d6000fd5b505050506040513d601f19601f8201168201806040525081019061371291906144a3565b905080610a1557610a156001600160a01b03841683600019611f4c565b6000868152600960205260408120600101546001600160a01b03163314613782576040517fff40736100000000000000000000000000000000000000000000000000000000815260040160405180910390fd5b60008781526009602090815260408083208151608081018352815481526001808301546001600160a01b039081168387015260028401541682850181905260039093015460608301908152928652600b8552948390208351808501909452805484529094015492820192909252905142101561382a576040517f0f6268c200000000000000000000000000000000000000000000000000000000815260040160405180910390fd5b60408201516001600160a01b031661386e576040517fde8b700400000000000000000000000000000000000000000000000000000000815260040160405180910390fd5b815184111561389057604051635bcd1de160e11b815260040160405180910390fd5b600061389d858a8a612e5e565b825160208401519192506000916138b49088614610565b6138be919061462f565b9050861580156138cd57508082115b156138eb57604051635bcd1de160e11b815260040160405180910390fd5b818780156138f857508183115b156139005750805b6040808601516001600160a01b03166000908152600b602052908120600101805483929061392f9084906144d2565b90915550506040808601516001600160a01b03166000908152600b60205290812080548992906139609084906144d2565b92505081905550806005600082825461397991906144d2565b9250508190555086600c600082825461399291906144d2565b90915550508451871480156139db5760008d81526009602052604081208181556001810180546001600160a01b03199081169091556002820180549091169055600301556139ff565b60008d815260096020526040812080548a92906139f99084906144d2565b90915550505b6000613a0c838e8e612e26565b90508a6001600160a01b03168e7f14e79002ce0df3ba4381425c583d4c9984c7e2910d3e7e088377db997773153e858486604051613a5f9392919092835260208301919091521515604082015260600190565b60405180910390a39d9c50505050505050505050505050565b6040516001600160a01b0380851660248301528316604482015260648101829052613ac99085907f23b872dd000000000000000000000000000000000000000000000000000000009060840161207d565b50505050565b6000613adc83600a6148a0565b613ae7906064614610565b613af283600a6148a0565b613afd606387614610565b612e549190614610565b600f54600090613b1c90839061ffff166128a0565b6109e890836144d2565b6040805160a0810182526005548152602081018a90526000918101829052606081810183905260808201879052918667ffffffffffffffff811115613b6d57613b6d6140f6565b604051908082528060200260200182016040528015613b96578160200160208202803683370190505b50905060005b8260800151811015613d10576000898983818110613bbc57613bbc614651565b9050602002810190613bce91906148af565b613bd7906148c5565b805190915061ffff16613c16576040517f4f287e5000000000000000000000000000000000000000000000000000000000815260040160405180910390fd5b60208101516001600160a01b0316613c5a576040517fd444696b00000000000000000000000000000000000000000000000000000000815260040160405180910390fd5b600060018560800151613c6d91906144d2565b8314613c85578151613c80908e906128a0565b613c94565b6060850151613c94908e6144d2565b9050613cae87828e8589600001518a602001518f8f613da1565b848481518110613cc057613cc0614651565b60209081029190910101528151604086018051613cde908390614985565b61ffff16905250606085018051829190613cf99083906144e9565b905250613d099150829050614667565b9050613b9c565b50613d24826040015161ffff166127101490565b613d5a576040517fd7b03e8400000000000000000000000000000000000000000000000000000000815260040160405180910390fd5b9a9950505050505050505050565b60608315613d775750816120db565b825115613d875782518084602001fd5b8160405162461bcd60e51b8152600401610ca691906145da565b6000613db1600a80546001019055565b60006040518060600160405280613dc98b8989612e5e565b815260200188602001516001600160a01b03168152602001613dea600a5490565b9052602080820180516001600160a01b039081166000908152600b909352604080842060010154925190911683529091205491925090613e3490613e2d90613b07565b8888612e5e565b1115613e6c576040517fb010931500000000000000000000000000000000000000000000000000000000815260040160405180910390fd5b80516020808301516001600160a01b03166000908152600b909152604081206001018054909190613e9e9084906144e9565b90915550506020808201516001600160a01b03166000908152600b9091526040812080548b9290613ed09084906144e9565b9091555050805160058054600090613ee99084906144e9565b9250508190555088600c6000828254613f0291906144e9565b9250508190555060405180608001604052808a8152602001336001600160a01b0316815260200182602001516001600160a01b031681526020018967ffffffffffffffff1681525060096000836040015181526020019081526020016000206000820151816000015560208201518160010160006101000a8154816001600160a01b0302191690836001600160a01b0316021790555060408201518160020160006101000a8154816001600160a01b0302191690836001600160a01b031602179055506060820151816003015590505086602001516001600160a01b0316336001600160a01b031682604001517fb26a67c96199378f459c394f9a442f1a94d19837d1ac17c14e3d6366d98223088d8d866000015187602001518f8f604001518d8d6040516140389897969594939291906149a2565b60405180910390a4604001519998505050505050505050565b60006020828403121561406357600080fd5b81356001600160e01b0319811681146120db57600080fd5b6001600160a01b0381168114610dba57600080fd5b6000602082840312156140a257600080fd5b81356120db8161407b565b6000602082840312156140bf57600080fd5b5035919050565b600080604083850312156140d957600080fd5b8235915060208301356140eb8161407b565b809150509250929050565b634e487b7160e01b600052604160045260246000fd5b6040516060810167ffffffffffffffff8111828210171561412f5761412f6140f6565b60405290565b604051601f8201601f1916810167ffffffffffffffff8111828210171561415e5761415e6140f6565b604052919050565b8035600f81900b811461417857600080fd5b919050565b60006080828403121561418f57600080fd5b6040516080810181811067ffffffffffffffff821117156141b2576141b26140f6565b60405282356141c08161407b565b815260208301356141d08161407b565b60208201526141e160408401614166565b60408201526141f260608401614166565b60608201529392505050565b803561ffff8116811461417857600080fd5b60006020828403121561422257600080fd5b6120db826141fe565b60008083601f84011261423d57600080fd5b50813567ffffffffffffffff81111561425557600080fd5b6020830191508360208260051b850101111561427057600080fd5b9250929050565b60008060008060006060868803121561428f57600080fd5b853561429a8161407b565b9450602086013567ffffffffffffffff808211156142b757600080fd5b6142c389838a0161422b565b909650945060408801359150808211156142dc57600080fd5b506142e98882890161422b565b969995985093965092949392505050565b60008060006040848603121561430f57600080fd5b833561431a8161407b565b9250602084013567ffffffffffffffff81111561433657600080fd5b6143428682870161422b565b9497909650939450505050565b60008060006060848603121561436457600080fd5b833561436f8161407b565b95602085013595506040909401359392505050565b600060a0828403121561439657600080fd5b50919050565b600080604083850312156143af57600080fd5b82359150602083013567ffffffffffffffff8111156143cd57600080fd5b6143d985828601614384565b9150509250929050565b6020808252825182820181905260009190848201906040850190845b8181101561441b578351835292840192918401916001016143ff565b50909695505050505050565b60006020828403121561443957600080fd5b813567ffffffffffffffff81111561445057600080fd5b61445c84828501614384565b949350505050565b60006020828403121561447657600080fd5b81516120db8161407b565b60006020828403121561449357600080fd5b815180151581146120db57600080fd5b6000602082840312156144b557600080fd5b5051919050565b634e487b7160e01b600052601160045260246000fd5b6000828210156144e4576144e46144bc565b500390565b600082198211156144fc576144fc6144bc565b500190565b60005b8381101561451c578181015183820152602001614504565b83811115613ac95750506000910152565b7f416363657373436f6e74726f6c3a206163636f756e7420000000000000000000815260008351614565816017850160208801614501565b7f206973206d697373696e6720726f6c652000000000000000000000000000000060179184019182015283516145a2816028840160208801614501565b01602801949350505050565b600081518084526145c6816020860160208601614501565b601f01601f19169290920160200192915050565b6020815260006120db60208301846145ae565b6000602082840312156145ff57600080fd5b815160ff811681146120db57600080fd5b600081600019048311821515161561462a5761462a6144bc565b500290565b60008261464c57634e487b7160e01b600052601260045260246000fd5b500490565b634e487b7160e01b600052603260045260246000fd5b600060001982141561467b5761467b6144bc565b5060010190565b600060ff821660ff811415614699576146996144bc565b60010192915050565b6000602082840312156146b457600080fd5b813567ffffffffffffffff811681146120db57600080fd5b600067ffffffffffffffff8083168185168083038211156146ef576146ef6144bc565b01949350505050565b6000808335601e1984360301811261470f57600080fd5b83018035915067ffffffffffffffff82111561472a57600080fd5b6020019150600581901b360382131561427057600080fd5b6000808335601e1984360301811261475957600080fd5b83018035915067ffffffffffffffff82111561477457600080fd5b60200191503681900382131561427057600080fd5b6000825161479b818460208701614501565b9190910192915050565b6000816147b4576147b46144bc565b506000190190565b600181815b808511156147f75781600019048211156147dd576147dd6144bc565b808516156147ea57918102915b93841c93908002906147c1565b509250929050565b60008261480e575060016109e8565b8161481b575060006109e8565b8160018114614831576002811461483b57614857565b60019150506109e8565b60ff84111561484c5761484c6144bc565b50506001821b6109e8565b5060208310610133831016604e8410600b841016171561487a575081810a6109e8565b61488483836147bc565b8060001904821115614898576148986144bc565b029392505050565b60006120db60ff8416836147ff565b60008235605e1983360301811261479b57600080fd5b6000606082360312156148d757600080fd5b6148df61410c565b6148e8836141fe565b81526020808401356148f98161407b565b82820152604084013567ffffffffffffffff8082111561491857600080fd5b9085019036601f83011261492b57600080fd5b81358181111561493d5761493d6140f6565b61494f601f8201601f19168501614135565b9150808252368482850101111561496557600080fd5b808484018584013760009082019093019290925250604082015292915050565b600061ffff8083168185168083038211156146ef576146ef6144bc565b8881528760208201528660408201526001600160a01b038616606082015267ffffffffffffffff8516608082015260e060a082015260006149e660e08301866145ae565b82810360c0840152838152838560208301376000602085830101526020601f19601f860116820101915050999850505050505050505056fea2646970667358221220b0f016c88bae3869ca614ab38a8d1ecbe79524a5813a9aa05114aaf9789e717e64736f6c634300080a0033",
  "devdoc": {
    "kind": "dev",
    "methods": {
      "addPool((address,address,int128,int128))": {
        "params": {
          "_param": "Swap pool params"
        }
      },
      "claimYield(address)": {
        "params": {
          "_to": "Address that will receive the yield."
        }
      },
      "constructor": {
        "params": {
          "_investPct": "Percentage of the total underlying to invest in the strategy",
          "_lossTolerancePct": "Loss tolerance when investing through the strategy",
          "_minLockPeriod": "Minimum lock period to deposit",
          "_owner": "Vault admin address",
          "_perfFeePct": "Performance fee percentage",
          "_swapPools": "Swap pools used to automatically convert tokens to underlying",
          "_treasury": "Treasury address to collect performance fee",
          "_underlying": "Underlying ERC20 token to use."
        }
      },
      "deposit((address,uint64,uint256,(uint16,address,bytes)[],string))": {
        "params": {
          "_params": "Deposit params"
        }
      },
      "depositForGroupId(uint256,(address,uint64,uint256,(uint16,address,bytes)[],string))": {
        "params": {
          "_groupId": "The group id for the new deposit",
          "_params": "Deposit params"
        }
      },
      "forceWithdraw(address,uint256[])": {
        "params": {
          "_ids": "Array with the ids of the deposits.",
          "_to": "Address that will receive the funds."
        }
      },
      "getRoleAdmin(bytes32)": {
        "details": "Returns the admin role that controls `role`. See {grantRole} and {revokeRole}. To change a role's admin, use {_setRoleAdmin}."
      },
      "getUnderlying()": {
        "returns": {
          "_0": "The address of the vault's main underlying token"
        }
      },
      "grantRole(bytes32,address)": {
        "details": "Grants `role` to `account`. If `account` had not been already granted `role`, emits a {RoleGranted} event. Requirements: - the caller must have ``role``'s admin role."
      },
      "hasRole(bytes32,address)": {
        "details": "Returns `true` if `account` has been granted `role`."
      },
      "investState()": {
        "returns": {
          "alreadyInvested": "already invested amount",
          "maxInvestableAmount": "maximum investable amount"
        }
      },
      "paused()": {
        "details": "Returns true if the contract is paused, and false otherwise."
      },
      "removePool(address)": {
        "params": {
          "_inputToken": "the token to remove"
        }
      },
      "renounceRole(bytes32,address)": {
        "details": "Revokes `role` from the calling account. Roles are often managed via {grantRole} and {revokeRole}: this function's purpose is to provide a mechanism for accounts to lose their privileges if they are compromised (such as when a trusted device is misplaced). If the calling account had been revoked `role`, emits a {RoleRevoked} event. Requirements: - the caller must be `account`."
      },
      "revokeRole(bytes32,address)": {
        "details": "Revokes `role` from `account`. If `account` had been granted `role`, emits a {RoleRevoked} event. Requirements: - the caller must have ``role``'s admin role."
      },
      "setInvestPct(uint16)": {
        "params": {
          "_investPct": "the new invest percentage"
        }
      },
      "setLossTolerancePct(uint16)": {
        "params": {
          "_pct": "the new investment fee estimated percentage."
        }
      },
      "setPerfFeePct(uint16)": {
        "params": {
          "_perfFeePct": "the new performance fee."
        }
      },
      "setStrategy(address)": {
        "params": {
          "_strategy": "the new strategy's address."
        }
      },
      "setTreasury(address)": {
        "params": {
          "_treasury": "the new strategy's address."
        }
      },
      "sponsor(address,uint256,uint256)": {
        "params": {
          "_amount": "Amount to sponsor.",
          "_inputToken": "The input token to deposit.",
          "_lockedUntil": "When the sponsor can unsponsor the amount."
        }
      },
      "totalUnderlyingMinusSponsored()": {
        "returns": {
          "_0": "Total amount of principal and yield help by the vault (not including sponsored amount and performance fee)."
        }
      },
      "unsponsor(address,uint256[])": {
        "params": {
          "_ids": "Array with the ids of the deposits.",
          "_to": "Address that will receive the funds."
        }
      },
      "withdraw(address,uint256[])": {
        "params": {
          "_ids": "Array with the ids of the deposits.",
          "_to": "Address that will receive the funds."
        }
      },
      "yieldFor(address)": {
        "params": {
          "_to": "address to consider."
        },
        "returns": {
          "claimableYield": "claimable yield for @param _to, share of generated yield by @param _to,      and performance fee from generated yield"
        }
      }
    },
    "version": 1
  },
  "userdoc": {
    "events": {
      "CurveSwapPoolAdded(address,address,int128,int128)": {
        "notice": "Emitted when a new swap pool is added"
      },
      "CurveSwapPoolRemoved(address)": {
        "notice": "Emitted when a swap pool is removed"
      },
      "Sponsored(uint256,uint256,address,uint256)": {
        "notice": "Emitted when a new sponsor deposit is created"
      },
      "Swap(address,address,uint256,uint256)": {
        "notice": "Emitted after every swap"
      },
      "Unsponsored(uint256)": {
        "notice": "Emitted when an existing sponsor withdraws"
      }
    },
    "kind": "user",
    "methods": {
      "INVESTOR_ROLE()": {
        "notice": "Role allowed to invest/desinvest from strategy"
      },
      "MAX_DEPOSIT_LOCK_DURATION()": {
        "notice": "Maximum lock for each deposit"
      },
      "MAX_SPONSOR_LOCK_DURATION()": {
        "notice": "Maximum lock for each sponsor"
      },
      "MIN_SPONSOR_LOCK_DURATION()": {
        "notice": "Minimum lock for each sponsor"
      },
      "SETTINGS_ROLE()": {
        "notice": "Role allowed to change settings such as performance fee and investment fee"
      },
      "SHARES_MULTIPLIER()": {
        "notice": "Helper constant for computing shares without losing precision"
      },
      "SLIPPAGE()": {
        "notice": "Static 95% slippage (TODO should probably make this configurable)"
      },
      "SPONSOR_ROLE()": {
        "notice": "Role for sponsors allowed to call sponsor/unsponsor"
      },
      "accumulatedPerfFee()": {
        "notice": "Current accumulated performance fee;"
      },
      "addPool((address,address,int128,int128))": {
        "notice": "Adds a new curve swap pool from an input token to {underlying}"
      },
      "claimYield(address)": {
        "notice": "Accumulate performance fee and transfers rest yield generated for the caller to"
      },
      "claimer(address)": {
        "notice": "claimer address => claimer data"
      },
      "deposit((address,uint64,uint256,(uint16,address,bytes)[],string))": {
        "notice": "Creates a new deposit"
      },
      "depositForGroupId(uint256,(address,uint64,uint256,(uint16,address,bytes)[],string))": {
        "notice": "Creates a new deposit using the specified group id"
      },
      "deposits(uint256)": {
        "notice": "deposit ID => deposit data"
      },
      "investPct()": {
        "notice": "Percentage of the total underlying to invest in the strategy"
      },
      "investState()": {
        "notice": "Calculate maximum investable amount and already invested amount"
      },
      "lossTolerancePct()": {
        "notice": "Loss tolerance pct"
      },
      "minLockPeriod()": {
        "notice": "Minimum lock period for each deposit"
      },
      "perfFeePct()": {
        "notice": "Performance fee percentage"
      },
      "removePool(address)": {
        "notice": "Removes an existing swap pool, and the ability to deposit the given token as underlying"
      },
      "setInvestPct(uint16)": {
        "notice": "Update invest percentage Emits {InvestPercentageUpdated} event"
      },
      "setLossTolerancePct(uint16)": {
        "notice": "Changes the estimated investment fee used by the strategy."
      },
      "setPerfFeePct(uint16)": {
        "notice": "Changes the performance fee used by the vault."
      },
      "setStrategy(address)": {
        "notice": "Changes the strategy used by the vault.if there is invested funds in previous strategy, it is not allowed to set new strategy."
      },
      "setTreasury(address)": {
        "notice": "Changes the treasury used by the vault."
      },
      "strategy()": {
        "notice": "The investment strategy"
      },
      "swappers(address)": {
        "notice": "token => curve pool (for trading token/underlying)"
      },
      "totalPrincipal()": {
        "notice": "The total of principal deposited"
      },
      "totalShares()": {
        "notice": "Total amount of shares"
      },
      "totalSponsored()": {
        "notice": "Total amount currently sponsored"
      },
      "totalUnderlying()": {
        "notice": "Total amount of underlying currently controlled by the vault and the its strategy."
      },
      "totalUnderlyingMinusSponsored()": {
        "notice": "Computes the total amount of principal + yield currently controlled by the vault and the strategy. The principal + yield is the total amount of underlying that can be claimed or withdrawn, excluding the sponsored amount and performance fee."
      },
      "treasury()": {
        "notice": "Treasury address to collect performance fee"
      },
      "underlying()": {
        "notice": "Underlying ERC20 token accepted by the vault"
      },
      "unsponsor(address,uint256[])": {
        "notice": "Withdraws the sponsored amount for the deposits with the ids provided"
      },
      "updateInvested()": {
        "notice": "Update the invested amount;"
      },
      "withdrawPerformanceFee()": {
        "notice": "Withdraws any pending performance fee amount back to the treasury"
      },
      "yieldFor(address)": {
        "notice": "Computes the amount of yield available for an an address."
      }
    },
    "notice": "A vault where other accounts can deposit an underlying token currency and set distribution params for their principal and yieldThe underlying token can be automatically swapped from any configured ERC20 token via {CurveSwapper}",
    "version": 1
  },
  "storageLayout": {
    "storage": [
      {
        "astId": 10704,
        "contract": "contracts/Vault.sol:Vault",
        "label": "swappers",
        "offset": 0,
        "slot": "0",
        "type": "t_mapping(t_address,t_struct(Swapper)10662_storage)"
      },
      {
        "astId": 70,
        "contract": "contracts/Vault.sol:Vault",
        "label": "_roles",
        "offset": 0,
        "slot": "1",
        "type": "t_mapping(t_bytes32,t_struct(RoleData)65_storage)"
      },
      {
        "astId": 635,
        "contract": "contracts/Vault.sol:Vault",
        "label": "_status",
        "offset": 0,
        "slot": "2",
        "type": "t_uint256"
      },
      {
        "astId": 550,
        "contract": "contracts/Vault.sol:Vault",
        "label": "_paused",
        "offset": 0,
        "slot": "3",
        "type": "t_bool"
      },
      {
        "astId": 3800,
        "contract": "contracts/Vault.sol:Vault",
        "label": "underlying",
        "offset": 1,
        "slot": "3",
        "type": "t_contract(IERC20Metadata)1313"
      },
      {
        "astId": 3805,
        "contract": "contracts/Vault.sol:Vault",
        "label": "investPct",
        "offset": 21,
        "slot": "3",
        "type": "t_uint16"
      },
      {
        "astId": 3815,
        "contract": "contracts/Vault.sol:Vault",
        "label": "totalSponsored",
        "offset": 0,
        "slot": "4",
        "type": "t_uint256"
      },
      {
        "astId": 3820,
        "contract": "contracts/Vault.sol:Vault",
        "label": "totalShares",
        "offset": 0,
        "slot": "5",
        "type": "t_uint256"
      },
      {
        "astId": 3824,
        "contract": "contracts/Vault.sol:Vault",
        "label": "strategy",
        "offset": 0,
        "slot": "6",
        "type": "t_contract(IStrategy)9593"
      },
      {
        "astId": 3827,
        "contract": "contracts/Vault.sol:Vault",
        "label": "_depositGroupIds",
        "offset": 0,
        "slot": "7",
        "type": "t_uint256"
      },
      {
        "astId": 3831,
        "contract": "contracts/Vault.sol:Vault",
        "label": "depositGroupIdOwner",
        "offset": 0,
        "slot": "8",
        "type": "t_mapping(t_uint256,t_address)"
      },
      {
        "astId": 3837,
        "contract": "contracts/Vault.sol:Vault",
        "label": "deposits",
        "offset": 0,
        "slot": "9",
        "type": "t_mapping(t_uint256,t_struct(Deposit)11127_storage)"
      },
      {
        "astId": 3841,
        "contract": "contracts/Vault.sol:Vault",
        "label": "_depositTokenIds",
        "offset": 0,
        "slot": "10",
        "type": "t_struct(Counter)2881_storage"
      },
      {
        "astId": 3847,
        "contract": "contracts/Vault.sol:Vault",
        "label": "claimer",
        "offset": 0,
        "slot": "11",
        "type": "t_mapping(t_address,t_struct(Claimer)11132_storage)"
      },
      {
        "astId": 3850,
        "contract": "contracts/Vault.sol:Vault",
        "label": "totalPrincipal",
        "offset": 0,
        "slot": "12",
        "type": "t_uint256"
      },
      {
        "astId": 3853,
        "contract": "contracts/Vault.sol:Vault",
        "label": "treasury",
        "offset": 0,
        "slot": "13",
        "type": "t_address"
      },
      {
        "astId": 3856,
        "contract": "contracts/Vault.sol:Vault",
        "label": "perfFeePct",
        "offset": 20,
        "slot": "13",
        "type": "t_uint16"
      },
      {
        "astId": 3859,
        "contract": "contracts/Vault.sol:Vault",
        "label": "accumulatedPerfFee",
        "offset": 0,
        "slot": "14",
        "type": "t_uint256"
      },
      {
        "astId": 3862,
        "contract": "contracts/Vault.sol:Vault",
        "label": "lossTolerancePct",
        "offset": 0,
        "slot": "15",
        "type": "t_uint16"
      }
    ],
    "types": {
      "t_address": {
        "encoding": "inplace",
        "label": "address",
        "numberOfBytes": "20"
      },
      "t_bool": {
        "encoding": "inplace",
        "label": "bool",
        "numberOfBytes": "1"
      },
      "t_bytes32": {
        "encoding": "inplace",
        "label": "bytes32",
        "numberOfBytes": "32"
      },
      "t_contract(ICurve)8429": {
        "encoding": "inplace",
        "label": "contract ICurve",
        "numberOfBytes": "20"
      },
      "t_contract(IERC20Metadata)1313": {
        "encoding": "inplace",
        "label": "contract IERC20Metadata",
        "numberOfBytes": "20"
      },
      "t_contract(IStrategy)9593": {
        "encoding": "inplace",
        "label": "contract IStrategy",
        "numberOfBytes": "20"
      },
      "t_int128": {
        "encoding": "inplace",
        "label": "int128",
        "numberOfBytes": "16"
      },
      "t_mapping(t_address,t_bool)": {
        "encoding": "mapping",
        "key": "t_address",
        "label": "mapping(address => bool)",
        "numberOfBytes": "32",
        "value": "t_bool"
      },
      "t_mapping(t_address,t_struct(Claimer)11132_storage)": {
        "encoding": "mapping",
        "key": "t_address",
        "label": "mapping(address => struct IVault.Claimer)",
        "numberOfBytes": "32",
        "value": "t_struct(Claimer)11132_storage"
      },
      "t_mapping(t_address,t_struct(Swapper)10662_storage)": {
        "encoding": "mapping",
        "key": "t_address",
        "label": "mapping(address => struct CurveSwapper.Swapper)",
        "numberOfBytes": "32",
        "value": "t_struct(Swapper)10662_storage"
      },
      "t_mapping(t_bytes32,t_struct(RoleData)65_storage)": {
        "encoding": "mapping",
        "key": "t_bytes32",
        "label": "mapping(bytes32 => struct AccessControl.RoleData)",
        "numberOfBytes": "32",
        "value": "t_struct(RoleData)65_storage"
      },
      "t_mapping(t_uint256,t_address)": {
        "encoding": "mapping",
        "key": "t_uint256",
        "label": "mapping(uint256 => address)",
        "numberOfBytes": "32",
        "value": "t_address"
      },
      "t_mapping(t_uint256,t_struct(Deposit)11127_storage)": {
        "encoding": "mapping",
        "key": "t_uint256",
        "label": "mapping(uint256 => struct IVault.Deposit)",
        "numberOfBytes": "32",
        "value": "t_struct(Deposit)11127_storage"
      },
      "t_struct(Claimer)11132_storage": {
        "encoding": "inplace",
        "label": "struct IVault.Claimer",
        "members": [
          {
            "astId": 11129,
            "contract": "contracts/Vault.sol:Vault",
            "label": "totalPrincipal",
            "offset": 0,
            "slot": "0",
            "type": "t_uint256"
          },
          {
            "astId": 11131,
            "contract": "contracts/Vault.sol:Vault",
            "label": "totalShares",
            "offset": 0,
            "slot": "1",
            "type": "t_uint256"
          }
        ],
        "numberOfBytes": "64"
      },
      "t_struct(Counter)2881_storage": {
        "encoding": "inplace",
        "label": "struct Counters.Counter",
        "members": [
          {
            "astId": 2880,
            "contract": "contracts/Vault.sol:Vault",
            "label": "_value",
            "offset": 0,
            "slot": "0",
            "type": "t_uint256"
          }
        ],
        "numberOfBytes": "32"
      },
      "t_struct(Deposit)11127_storage": {
        "encoding": "inplace",
        "label": "struct IVault.Deposit",
        "members": [
          {
            "astId": 11117,
            "contract": "contracts/Vault.sol:Vault",
            "label": "amount",
            "offset": 0,
            "slot": "0",
            "type": "t_uint256"
          },
          {
            "astId": 11120,
            "contract": "contracts/Vault.sol:Vault",
            "label": "owner",
            "offset": 0,
            "slot": "1",
            "type": "t_address"
          },
          {
            "astId": 11123,
            "contract": "contracts/Vault.sol:Vault",
            "label": "claimerId",
            "offset": 0,
            "slot": "2",
            "type": "t_address"
          },
          {
            "astId": 11126,
            "contract": "contracts/Vault.sol:Vault",
            "label": "lockedUntil",
            "offset": 0,
            "slot": "3",
            "type": "t_uint256"
          }
        ],
        "numberOfBytes": "128"
      },
      "t_struct(RoleData)65_storage": {
        "encoding": "inplace",
        "label": "struct AccessControl.RoleData",
        "members": [
          {
            "astId": 62,
            "contract": "contracts/Vault.sol:Vault",
            "label": "members",
            "offset": 0,
            "slot": "0",
            "type": "t_mapping(t_address,t_bool)"
          },
          {
            "astId": 64,
            "contract": "contracts/Vault.sol:Vault",
            "label": "adminRole",
            "offset": 0,
            "slot": "1",
            "type": "t_bytes32"
          }
        ],
        "numberOfBytes": "64"
      },
      "t_struct(Swapper)10662_storage": {
        "encoding": "inplace",
        "label": "struct CurveSwapper.Swapper",
        "members": [
          {
            "astId": 10649,
            "contract": "contracts/Vault.sol:Vault",
            "label": "pool",
            "offset": 0,
            "slot": "0",
            "type": "t_contract(ICurve)8429"
          },
          {
            "astId": 10652,
            "contract": "contracts/Vault.sol:Vault",
            "label": "tokenDecimals",
            "offset": 20,
            "slot": "0",
            "type": "t_uint8"
          },
          {
            "astId": 10655,
            "contract": "contracts/Vault.sol:Vault",
            "label": "underlyingDecimals",
            "offset": 21,
            "slot": "0",
            "type": "t_uint8"
          },
          {
            "astId": 10658,
            "contract": "contracts/Vault.sol:Vault",
            "label": "tokenI",
            "offset": 0,
            "slot": "1",
            "type": "t_int128"
          },
          {
            "astId": 10661,
            "contract": "contracts/Vault.sol:Vault",
            "label": "underlyingI",
            "offset": 16,
            "slot": "1",
            "type": "t_int128"
          }
        ],
        "numberOfBytes": "64"
      },
      "t_uint16": {
        "encoding": "inplace",
        "label": "uint16",
        "numberOfBytes": "2"
      },
      "t_uint256": {
        "encoding": "inplace",
        "label": "uint256",
        "numberOfBytes": "32"
      },
      "t_uint8": {
        "encoding": "inplace",
        "label": "uint8",
        "numberOfBytes": "1"
      }
    }
  }
}