{
  "address": "0xdCa1Cb188F6160f5917A177a5800509F47A25ACF",
  "abi": [
    {
      "inputs": [
        {
          "internalType": "address",
          "name": "_vault",
          "type": "address"
        },
        {
          "internalType": "address",
          "name": "_ethAnchorRouter",
          "type": "address"
        },
        {
          "internalType": "contract AggregatorV3Interface",
          "name": "_aUstToUstFeed",
          "type": "address"
        },
        {
          "internalType": "contract IERC20",
          "name": "_ustToken",
          "type": "address"
        },
        {
          "internalType": "contract IERC20",
          "name": "_aUstToken",
          "type": "address"
        },
        {
          "internalType": "address",
          "name": "_owner",
          "type": "address"
        }
      ],
      "stateMutability": "nonpayable",
      "type": "constructor"
    },
    {
      "anonymous": false,
      "inputs": [
        {
          "indexed": true,
          "internalType": "address",
          "name": "operator",
          "type": "address"
        },
        {
          "indexed": false,
          "internalType": "uint256",
          "name": "ustAmount",
          "type": "uint256"
        },
        {
          "indexed": false,
          "internalType": "uint256",
          "name": "aUstAmount",
          "type": "uint256"
        }
      ],
      "name": "FinishDepositStable",
      "type": "event"
    },
    {
      "anonymous": false,
      "inputs": [
        {
          "indexed": true,
          "internalType": "address",
          "name": "operator",
          "type": "address"
        },
        {
          "indexed": false,
          "internalType": "uint256",
          "name": "aUstAmount",
          "type": "uint256"
        },
        {
          "indexed": false,
          "internalType": "uint256",
          "name": "ustAmount",
          "type": "uint256"
        },
        {
          "indexed": false,
          "internalType": "uint256",
          "name": "underlyingAmount",
          "type": "uint256"
        }
      ],
      "name": "FinishRedeemStable",
      "type": "event"
    },
    {
      "anonymous": false,
      "inputs": [
        {
          "indexed": true,
          "internalType": "address",
          "name": "operator",
          "type": "address"
        },
        {
          "indexed": true,
          "internalType": "uint256",
          "name": "idx",
          "type": "uint256"
        },
        {
          "indexed": false,
          "internalType": "uint256",
          "name": "underlyingAmount",
          "type": "uint256"
        },
        {
          "indexed": false,
          "internalType": "uint256",
          "name": "ustAmount",
          "type": "uint256"
        }
      ],
      "name": "InitDepositStable",
      "type": "event"
    },
    {
      "anonymous": false,
      "inputs": [
        {
          "indexed": true,
          "internalType": "address",
          "name": "operator",
          "type": "address"
        },
        {
          "indexed": false,
          "internalType": "uint256",
          "name": "aUstAmount",
          "type": "uint256"
        }
      ],
      "name": "InitRedeemStable",
      "type": "event"
    },
    {
      "anonymous": false,
      "inputs": [
        {
          "indexed": true,
          "internalType": "bytes32",
          "name": "role",
          "type": "bytes32"
        },
        {
          "indexed": true,
          "internalType": "bytes32",
          "name": "previousAdminRole",
          "type": "bytes32"
        },
        {
          "indexed": true,
          "internalType": "bytes32",
          "name": "newAdminRole",
          "type": "bytes32"
        }
      ],
      "name": "RoleAdminChanged",
      "type": "event"
    },
    {
      "anonymous": false,
      "inputs": [
        {
          "indexed": true,
          "internalType": "bytes32",
          "name": "role",
          "type": "bytes32"
        },
        {
          "indexed": true,
          "internalType": "address",
          "name": "account",
          "type": "address"
        },
        {
          "indexed": true,
          "internalType": "address",
          "name": "sender",
          "type": "address"
        }
      ],
      "name": "RoleGranted",
      "type": "event"
    },
    {
      "anonymous": false,
      "inputs": [
        {
          "indexed": true,
          "internalType": "bytes32",
          "name": "role",
          "type": "bytes32"
        },
        {
          "indexed": true,
          "internalType": "address",
          "name": "account",
          "type": "address"
        },
        {
          "indexed": true,
          "internalType": "address",
          "name": "sender",
          "type": "address"
        }
      ],
      "name": "RoleRevoked",
      "type": "event"
    },
    {
      "inputs": [],
      "name": "DEFAULT_ADMIN_ROLE",
      "outputs": [
        {
          "internalType": "bytes32",
          "name": "",
          "type": "bytes32"
        }
      ],
      "stateMutability": "view",
      "type": "function"
    },
    {
      "inputs": [],
      "name": "MANAGER_ROLE",
      "outputs": [
        {
          "internalType": "bytes32",
          "name": "",
          "type": "bytes32"
        }
      ],
      "stateMutability": "view",
      "type": "function"
    },
    {
      "inputs": [],
      "name": "aUstToUstFeed",
      "outputs": [
        {
          "internalType": "contract AggregatorV3Interface",
          "name": "",
          "type": "address"
        }
      ],
      "stateMutability": "view",
      "type": "function"
    },
    {
      "inputs": [],
      "name": "aUstToken",
      "outputs": [
        {
          "internalType": "contract IERC20",
          "name": "",
          "type": "address"
        }
      ],
      "stateMutability": "view",
      "type": "function"
    },
    {
      "inputs": [
        {
          "internalType": "uint256",
          "name": "_amount",
          "type": "uint256"
        }
      ],
      "name": "applyInvestmentFee",
      "outputs": [
        {
          "internalType": "uint256",
          "name": "",
          "type": "uint256"
        }
      ],
      "stateMutability": "view",
      "type": "function"
    },
    {
      "inputs": [],
      "name": "depositOperationLength",
      "outputs": [
        {
          "internalType": "uint256",
          "name": "",
          "type": "uint256"
        }
      ],
      "stateMutability": "view",
      "type": "function"
    },
    {
      "inputs": [
        {
          "internalType": "uint256",
          "name": "",
          "type": "uint256"
        }
      ],
      "name": "depositOperations",
      "outputs": [
        {
          "internalType": "address",
          "name": "operator",
          "type": "address"
        },
        {
          "internalType": "uint256",
          "name": "amount",
          "type": "uint256"
        }
      ],
      "stateMutability": "view",
      "type": "function"
    },
    {
      "inputs": [],
      "name": "ethAnchorRouter",
      "outputs": [
        {
          "internalType": "contract IEthAnchorRouter",
          "name": "",
          "type": "address"
        }
      ],
      "stateMutability": "view",
      "type": "function"
    },
    {
      "inputs": [
        {
          "internalType": "uint256",
          "name": "idx",
          "type": "uint256"
        }
      ],
      "name": "finishDepositStable",
      "outputs": [],
      "stateMutability": "nonpayable",
      "type": "function"
    },
    {
      "inputs": [
        {
          "internalType": "uint256",
          "name": "idx",
          "type": "uint256"
        }
      ],
      "name": "finishRedeemStable",
      "outputs": [],
      "stateMutability": "nonpayable",
      "type": "function"
    },
    {
      "inputs": [
        {
          "internalType": "bytes32",
          "name": "role",
          "type": "bytes32"
        }
      ],
      "name": "getRoleAdmin",
      "outputs": [
        {
          "internalType": "bytes32",
          "name": "",
          "type": "bytes32"
        }
      ],
      "stateMutability": "view",
      "type": "function"
    },
    {
      "inputs": [
        {
          "internalType": "bytes32",
          "name": "role",
          "type": "bytes32"
        },
        {
          "internalType": "address",
          "name": "account",
          "type": "address"
        }
      ],
      "name": "grantRole",
      "outputs": [],
      "stateMutability": "nonpayable",
      "type": "function"
    },
    {
      "inputs": [],
      "name": "hasAssets",
      "outputs": [
        {
          "internalType": "bool",
          "name": "",
          "type": "bool"
        }
      ],
      "stateMutability": "view",
      "type": "function"
    },
    {
      "inputs": [
        {
          "internalType": "bytes32",
          "name": "role",
          "type": "bytes32"
        },
        {
          "internalType": "address",
          "name": "account",
          "type": "address"
        }
      ],
      "name": "hasRole",
      "outputs": [
        {
          "internalType": "bool",
          "name": "",
          "type": "bool"
        }
      ],
      "stateMutability": "view",
      "type": "function"
    },
    {
      "inputs": [
        {
          "internalType": "uint256",
          "name": "amount",
          "type": "uint256"
        }
      ],
      "name": "initRedeemStable",
      "outputs": [],
      "stateMutability": "nonpayable",
      "type": "function"
    },
    {
      "inputs": [
        {
          "internalType": "bytes",
          "name": "",
          "type": "bytes"
        }
      ],
      "name": "invest",
      "outputs": [],
      "stateMutability": "nonpayable",
      "type": "function"
    },
    {
      "inputs": [],
      "name": "investedAssets",
      "outputs": [
        {
          "internalType": "uint256",
          "name": "",
          "type": "uint256"
        }
      ],
      "stateMutability": "view",
      "type": "function"
    },
    {
      "inputs": [],
      "name": "pendingDeposits",
      "outputs": [
        {
          "internalType": "uint256",
          "name": "",
          "type": "uint256"
        }
      ],
      "stateMutability": "view",
      "type": "function"
    },
    {
      "inputs": [],
      "name": "pendingRedeems",
      "outputs": [
        {
          "internalType": "uint256",
          "name": "",
          "type": "uint256"
        }
      ],
      "stateMutability": "view",
      "type": "function"
    },
    {
      "inputs": [],
      "name": "redeemOperationLength",
      "outputs": [
        {
          "internalType": "uint256",
          "name": "",
          "type": "uint256"
        }
      ],
      "stateMutability": "view",
      "type": "function"
    },
    {
      "inputs": [
        {
          "internalType": "uint256",
          "name": "",
          "type": "uint256"
        }
      ],
      "name": "redeemOperations",
      "outputs": [
        {
          "internalType": "address",
          "name": "operator",
          "type": "address"
        },
        {
          "internalType": "uint256",
          "name": "amount",
          "type": "uint256"
        }
      ],
      "stateMutability": "view",
      "type": "function"
    },
    {
      "inputs": [
        {
          "internalType": "bytes32",
          "name": "role",
          "type": "bytes32"
        },
        {
          "internalType": "address",
          "name": "account",
          "type": "address"
        }
      ],
      "name": "renounceRole",
      "outputs": [],
      "stateMutability": "nonpayable",
      "type": "function"
    },
    {
      "inputs": [
        {
          "internalType": "bytes32",
          "name": "role",
          "type": "bytes32"
        },
        {
          "internalType": "address",
          "name": "account",
          "type": "address"
        }
      ],
      "name": "revokeRole",
      "outputs": [],
      "stateMutability": "nonpayable",
      "type": "function"
    },
    {
      "inputs": [
        {
          "internalType": "bytes4",
          "name": "interfaceId",
          "type": "bytes4"
        }
      ],
      "name": "supportsInterface",
      "outputs": [
        {
          "internalType": "bool",
          "name": "",
          "type": "bool"
        }
      ],
      "stateMutability": "view",
      "type": "function"
    },
    {
      "inputs": [],
      "name": "underlying",
      "outputs": [
        {
          "internalType": "contract IERC20",
          "name": "",
          "type": "address"
        }
      ],
      "stateMutability": "view",
      "type": "function"
    },
    {
      "inputs": [],
      "name": "ustToken",
      "outputs": [
        {
          "internalType": "contract IERC20",
          "name": "",
          "type": "address"
        }
      ],
      "stateMutability": "view",
      "type": "function"
    },
    {
      "inputs": [],
      "name": "vault",
      "outputs": [
        {
          "internalType": "address",
          "name": "",
          "type": "address"
        }
      ],
      "stateMutability": "view",
      "type": "function"
    },
    {
      "inputs": [],
      "name": "withdrawAllToVault",
      "outputs": [],
      "stateMutability": "nonpayable",
      "type": "function"
    },
    {
      "inputs": [
        {
          "internalType": "uint256",
          "name": "amount",
          "type": "uint256"
        }
      ],
      "name": "withdrawToVault",
      "outputs": [],
      "stateMutability": "nonpayable",
      "type": "function"
    }
  ],
  "transactionHash": "0x64442ae57e7ee8f2668db1bf5d4b4290aafe23ce0c3b5f422ce93c5cd42f8436",
  "args": [
    "0x6e1d164c682698857EB22fB9a184B245329F7581",
    "0x7537aC093cE1315BCE08bBF0bf6f9b86B7475008",
    "0x99796bbdcfd7986a883b8b602f3cb475d2d9d62f",
    "0x6cA13a4ab78dd7D657226b155873A04DB929A3A4",
    "0x006479f75d6622ae6a21be17c7f555b94c672342",
    "0x5A73c07163ACAE03e59c15697f79284b3bda2F2A"
  ],
  "numDeployments": 1,
  "solcInputHash": "3161ec0bcaba4de35ba8de33a6b7b801",
  "bytecode": "0x6101206040523480156200001257600080fd5b5060405162002b5d38038062002b5d8339810160408190526200003591620005b3565b8585858585856001600160a01b038116620000975760405162461bcd60e51b815260206004820152601f60248201527f416e63686f724261736553747261746567793a206f776e65722069732030780060448201526064015b60405180910390fd5b6001600160a01b038516620000ef5760405162461bcd60e51b815260206004820181905260248201527f416e63686f724261736553747261746567793a20726f7574657220697320307860448201526064016200008e565b6001600160a01b038316620001475760405162461bcd60e51b815260206004820152601d60248201527f416e63686f724261736553747261746567793a2075737420697320307800000060448201526064016200008e565b6001600160a01b0382166200019f5760405162461bcd60e51b815260206004820152601e60248201527f416e63686f724261736553747261746567793a2061555354206973203078000060448201526064016200008e565b620001c963e60b5ac560e01b876001600160a01b03166200040360201b62000ff51790919060201c565b620002215760405162461bcd60e51b815260206004820152602160248201527f416e63686f724261736553747261746567793a206e6f7420616e20495661756c6044820152601d60fa1b60648201526084016200008e565b6200022e600082620004b6565b6200025a7f241ecf16d79d0f8dbfb92cbc07fe17840425976cf0667f022fe9877caa831b0887620004b6565b6001600160a01b03861660a081905260408051636f307dc360e01b81529051636f307dc3916004808201926020929091908290030181865afa158015620002a5573d6000803e3d6000fd5b505050506040513d601f19601f82011682018060405250810190620002cb919062000647565b6001600160a01b03908116608052600180546001600160a01b03191687831617905584811661010081905284821660c05290831660e0526040805163313ce56760e01b8152905163313ce567916004808201926020929091908290030181865afa1580156200033e573d6000803e3d6000fd5b505050506040513d601f19601f820116820180604052508101906200036491906200066e565b6200037190600a620007a6565b60065550506007805460ff1916600117905550506080516001600160a01b03908116908616149150620003f790505760405162461bcd60e51b815260206004820152602560248201527f416e63686f7255535453747261746567793a20696e76616c696420756e6465726044820152646c79696e6760d81b60648201526084016200008e565b505050505050620007b7565b600080806200041a856301ffc9a760e01b620004c6565b90925090508115806200042b575080155b156200043d57600092505050620004b0565b62000451856001600160e01b0319620004c6565b90925090508115806200046357508015155b156200047557600092505050620004b0565b620004818585620004c6565b9092509050600182148015620004975750806001145b15620004a957600192505050620004b0565b6000925050505b92915050565b620004c28282620004fa565b5050565b6040516301ffc9a760e01b8082526004820183905260009182919060208160248189617530fa905190969095509350505050565b6000828152602081815260408083206001600160a01b038516845290915290205460ff16620004c2576000828152602081815260408083206001600160a01b03851684529091529020805460ff19166001179055620005563390565b6001600160a01b0316816001600160a01b0316837f2f8788117e7eff1d82e926ec794901d17c78024a50270940304540a733656f0d60405160405180910390a45050565b6001600160a01b0381168114620005b057600080fd5b50565b60008060008060008060c08789031215620005cd57600080fd5b8651620005da816200059a565b6020880151909650620005ed816200059a565b604088015190955062000600816200059a565b606088015190945062000613816200059a565b608088015190935062000626816200059a565b60a088015190925062000639816200059a565b809150509295509295509295565b6000602082840312156200065a57600080fd5b815162000667816200059a565b9392505050565b6000602082840312156200068157600080fd5b815160ff811681146200066757600080fd5b634e487b7160e01b600052601160045260246000fd5b600181815b80851115620006ea578160001904821115620006ce57620006ce62000693565b80851615620006dc57918102915b93841c9390800290620006ae565b509250929050565b6000826200070357506001620004b0565b816200071257506000620004b0565b81600181146200072b5760028114620007365762000756565b6001915050620004b0565b60ff8411156200074a576200074a62000693565b50506001821b620004b0565b5060208310610133831016604e8410600b84101617156200077b575081810a620004b0565b620007878383620006a9565b80600019048211156200079e576200079e62000693565b029392505050565b60006200066760ff841683620006f2565b60805160a05160c05160e0516101005161232962000834600039600081816102870152611c420152600081816102480152818161063001526110af01526000818161037b015281816117c10152611d9101526000818161048b01526109b4015260008181610354015281816109e501526116bd01526123296000f3fe608060405234801561001057600080fd5b50600436106101cf5760003560e01c80636abc842511610104578063958437ee116100a2578063d547741f11610071578063d547741f14610439578063eb0469e51461044c578063ec87621c1461045f578063fbfa77cf1461048657600080fd5b8063958437ee14610403578063a217fddf14610416578063bfd131f11461041e578063ce8c42e81461042657600080fd5b80638842db47116100de5780638842db471461039d5780639119c067146103b057806391d14854146103b957806393c3a68f146103f057600080fd5b80636abc84251461033c5780636f307dc31461034f578063781338c01461037657600080fd5b806336568abe11610171578063524737541161014b57806352473754146103105780635be9b2d3146103235780635c074f441461032b57806362eac09d1461033457600080fd5b806336568abe146102ed5780634a614cf4146103005780634ad0b6841461030857600080fd5b80631bbec15e116101ad5780631bbec15e146102435780631ce6314714610282578063248a9ca3146102a95780632f2ff15d146102da57600080fd5b806301ffc9a7146101d457806307caf901146101fc5780631312e0c514610211575b600080fd5b6101e76101e2366004611f57565b6104ad565b60405190151581526020015b60405180910390f35b61020f61020a366004611f81565b6104fd565b005b61022461021f366004611f81565b6107b2565b604080516001600160a01b0390931683526020830191909152016101f3565b61026a7f000000000000000000000000000000000000000000000000000000000000000081565b6040516001600160a01b0390911681526020016101f3565b61026a7f000000000000000000000000000000000000000000000000000000000000000081565b6102cc6102b7366004611f81565b60009081526020819052604090206001015490565b6040519081526020016101f3565b61020f6102e8366004611faf565b6107ea565b61020f6102fb366004611faf565b610815565b6004546102cc565b6102cc6108a1565b61020f61031e366004611f81565b6108bd565b6101e7610a12565b6102cc60025481565b6005546102cc565b61020f61034a366004611f81565b610a2b565b61026a7f000000000000000000000000000000000000000000000000000000000000000081565b61026a7f000000000000000000000000000000000000000000000000000000000000000081565b61020f6103ab366004611fdf565b610d7a565b6102cc60035481565b6101e76103c7366004611faf565b6000918252602082815260408084206001600160a01b0393909316845291905290205460ff1690565b6102cc6103fe366004611f81565b610e73565b610224610411366004611f81565b610e81565b6102cc600081565b61020f610e91565b61020f610434366004611f81565b610f3f565b61020f610447366004611faf565b610fcf565b60015461026a906001600160a01b031681565b6102cc7f241ecf16d79d0f8dbfb92cbc07fe17840425976cf0667f022fe9877caa831b0881565b61026a7f000000000000000000000000000000000000000000000000000000000000000081565b60006001600160e01b031982167f7965db0b0000000000000000000000000000000000000000000000000000000014806104f757506301ffc9a760e01b6001600160e01b03198316145b92915050565b3360009081527fe84508f2c7fa9c351146748b3025cb78b45df37d868e48c6a75102fecdeee645602052604090205460ff166105925760405162461bcd60e51b815260206004820152602960248201527f416e63686f724261736553747261746567793a2063616c6c6572206973206e6f6044820152683a1036b0b730b3b2b960b91b60648201526084015b60405180910390fd5b806105df5760405162461bcd60e51b815260206004820152601c60248201527f416e63686f724261736553747261746567793a20616d6f756e742030000000006044820152606401610589565b6002541580156105f55750806105f3611097565b145b15610608576007805460ff191660011790555b806003600082825461061a9190612067565b9091555050600154610659906001600160a01b037f00000000000000000000000000000000000000000000000000000000000000008116911683611123565b6001546040517f07caf901000000000000000000000000000000000000000000000000000000008152600481018390526000916001600160a01b0316906307caf901906024016020604051808303816000875af11580156106be573d6000803e3d6000fd5b505050506040513d601f19601f820116820180604052508101906106e2919061207f565b6040805180820182526001600160a01b0383811680835260208084018881526005805460018101825560009190915294517f036b6384b5eca791c62761152d0c79bb0604c104a5fb6f4eb0703f3154bb3db0600290960295860180546001600160a01b031916919095161790935591517f036b6384b5eca791c62761152d0c79bb0604c104a5fb6f4eb0703f3154bb3db1909301929092559151858152929350917f8ae1a29c2159df38e3ed55004e595d4a504c44b98951a0501db94b7d9dfa2113910160405180910390a25050565b600481815481106107c257600080fd5b6000918252602090912060029091020180546001909101546001600160a01b03909116915082565b600082815260208190526040902060010154610806813361124f565b61081083836112cd565b505050565b6001600160a01b03811633146108935760405162461bcd60e51b815260206004820152602f60248201527f416363657373436f6e74726f6c3a2063616e206f6e6c792072656e6f756e636560448201527f20726f6c657320666f722073656c6600000000000000000000000000000000006064820152608401610589565b61089d828261136b565b5050565b60006108ab6113ea565b6002546108b89190612067565b905090565b3360009081527fe84508f2c7fa9c351146748b3025cb78b45df37d868e48c6a75102fecdeee645602052604090205460ff1661094d5760405162461bcd60e51b815260206004820152602960248201527f416e63686f724261736553747261746567793a2063616c6c6572206973206e6f6044820152683a1036b0b730b3b2b960b91b6064820152608401610589565b600080600061095b8461143c565b604080518381526020810183905290810182905292955090935091506001600160a01b038416907f4920436e71acf3ae867da04d3ab39c11ff9414833c8404596505ccb64f47c2209060600160405180910390a2610a0c7f00000000000000000000000000000000000000000000000000000000000000006109db6116a5565b6001600160a01b037f00000000000000000000000000000000000000000000000000000000000000001691906116f4565b50505050565b60075460009060ff1615806108b8575050600354151590565b3360009081527fe84508f2c7fa9c351146748b3025cb78b45df37d868e48c6a75102fecdeee645602052604090205460ff16610abb5760405162461bcd60e51b815260206004820152602960248201527f416e63686f724261736553747261746567793a2063616c6c6572206973206e6f6044820152683a1036b0b730b3b2b960b91b6064820152608401610589565b6004548110610b0c5760405162461bcd60e51b815260206004820152601f60248201527f416e63686f724261736553747261746567793a206e6f742072756e6e696e67006044820152606401610589565b600060048281548110610b2157610b2161209c565b60009182526020822060029091020180549092506001600160a01b031690610b47611097565b6001546040517fac1a23220000000000000000000000000000000000000000000000000000000081526001600160a01b03858116600483015292935091169063ac1a232290602401600060405180830381600087803b158015610ba957600080fd5b505af1158015610bbd573d6000803e3d6000fd5b50505050600081610bcc611097565b610bd691906120b2565b905060008111610c4d5760405162461bcd60e51b8152602060048201526024808201527f416e63686f724261736553747261746567793a206e6f2061555354207265747560448201527f726e6564000000000000000000000000000000000000000000000000000000006064820152608401610589565b6000846001015490508060026000828254610c6891906120b2565b909155505060408051828152602081018490526001600160a01b038616917f225c081659607ca4ffa8d328c88b0c3d6c99d0ba75b002e377abf8b4ca2fdc79910160405180910390a2600454610cc0906001906120b2565b861015610d38576004805460009190610cdb906001906120b2565b81548110610ceb57610ceb61209c565b60009182526020918290206040805180820190915260029092020180546001600160a01b03168083526001918201549290930182905288546001600160a01b031916909217885590870155505b6004805480610d4957610d496120c9565b60008281526020812060026000199093019283020180546001600160a01b0319168155600101559055505050505050565b3360009081527fe84508f2c7fa9c351146748b3025cb78b45df37d868e48c6a75102fecdeee645602052604090205460ff16610e0a5760405162461bcd60e51b815260206004820152602960248201527f416e63686f724261736553747261746567793a2063616c6c6572206973206e6f6044820152683a1036b0b730b3b2b960b91b6064820152608401610589565b600080610e1561173d565b6004549193509150610e29906001906120b2565b60408051838152602081018490526001600160a01b038516917f6a038298ce6aeb4a287c53d57f807bbe0853812eb55b115ede849dc987cca495910160405180910390a350505050565b60006104f78261264861191a565b600581815481106107c257600080fd5b3360009081527fe84508f2c7fa9c351146748b3025cb78b45df37d868e48c6a75102fecdeee645602052604090205460ff16610f215760405162461bcd60e51b815260206004820152602960248201527f416e63686f724261736553747261746567793a2063616c6c6572206973206e6f6044820152683a1036b0b730b3b2b960b91b6064820152608401610589565b6000610f2b611097565b90508015610f3c57610f3c816104fd565b50565b3360009081527fe84508f2c7fa9c351146748b3025cb78b45df37d868e48c6a75102fecdeee645602052604090205460ff16610f3c5760405162461bcd60e51b815260206004820152602960248201527f416e63686f724261736553747261746567793a2063616c6c6572206973206e6f6044820152683a1036b0b730b3b2b960b91b6064820152608401610589565b600082815260208190526040902060010154610feb813361124f565b610810838361136b565b6000808061100a856301ffc9a760e01b61193e565b909250905081158061101a575080155b1561102a576000925050506104f7565b61103c856001600160e01b031961193e565b909250905081158061104d57508015155b1561105d576000925050506104f7565b611067858561193e565b909250905060018214801561107c5750806001145b1561108c576001925050506104f7565b506000949350505050565b6040516370a0823160e01b81523060048201526000907f00000000000000000000000000000000000000000000000000000000000000006001600160a01b0316906370a08231906024015b602060405180830381865afa1580156110ff573d6000803e3d6000fd5b505050506040513d601f19601f820116820180604052508101906108b891906120df565b6040517fdd62ed3e0000000000000000000000000000000000000000000000000000000081523060048201526001600160a01b038381166024830152600091839186169063dd62ed3e90604401602060405180830381865afa15801561118d573d6000803e3d6000fd5b505050506040513d601f19601f820116820180604052508101906111b191906120df565b6111bb9190612067565b6040516001600160a01b038516602482015260448101829052909150610a0c9085907f095ea7b300000000000000000000000000000000000000000000000000000000906064015b60408051601f198184030181529190526020810180517bffffffffffffffffffffffffffffffffffffffffffffffffffffffff166001600160e01b031990931692909217909152611972565b6000828152602081815260408083206001600160a01b038516845290915290205460ff1661089d5761128b816001600160a01b03166014611a57565b611296836020611a57565b6040516020016112a7929190612124565b60408051601f198184030181529082905262461bcd60e51b8252610589916004016121a5565b6000828152602081815260408083206001600160a01b038516845290915290205460ff1661089d576000828152602081815260408083206001600160a01b03851684529091529020805460ff191660011790556113273390565b6001600160a01b0316816001600160a01b0316837f2f8788117e7eff1d82e926ec794901d17c78024a50270940304540a733656f0d60405160405180910390a45050565b6000828152602081815260408083206001600160a01b038516845290915290205460ff161561089d576000828152602081815260408083206001600160a01b0385168085529252808320805460ff1916905551339285917ff6391f5c32d9c69d2a47ea670b442974b53935d1edc7fd64eb21e047a839171b9190a45050565b6000806003546113f8611097565b6114029190612067565b90508061141157600091505090565b600061141b611c38565b60065490915061142b83836121d8565b61143591906121f7565b9250505090565b600080600083600580549050116114955760405162461bcd60e51b815260206004820152601f60248201527f416e63686f724261736553747261746567793a206e6f742072756e6e696e67006044820152606401610589565b6000600585815481106114aa576114aa61209c565b60009182526020909120600160029092020181810154815492546040517f7249abb90000000000000000000000000000000000000000000000000000000081526001600160a01b039485166004820181905293955091931690637249abb990602401600060405180830381600087803b15801561152657600080fd5b505af115801561153a573d6000803e3d6000fd5b505050506000611548611d79565b9050600081116115bf5760405162461bcd60e51b8152602060048201526024808201527f416e63686f724261736553747261746567793a206e6f7468696e67207265646560448201527f656d6564000000000000000000000000000000000000000000000000000000006064820152608401610589565b82600360008282546115d191906120b2565b90915550506005546115e5906001906120b2565b88101561165d576005805460009190611600906001906120b2565b815481106116105761161061209c565b60009182526020918290206040805180820190915260029092020180546001600160a01b03168083526001918201549290930182905287546001600160a01b031916909217875590860155505b600580548061166e5761166e6120c9565b6000828152602081206002600019939093019283020180546001600160a01b03191681556001015590559097919650945092505050565b6040516370a0823160e01b81523060048201526000907f00000000000000000000000000000000000000000000000000000000000000006001600160a01b0316906370a08231906024016110e2565b6040516001600160a01b0383166024820152604481018290526108109084907fa9059cbb0000000000000000000000000000000000000000000000000000000090606401611203565b600080600061174a611d79565b9050806117995760405162461bcd60e51b815260206004820181905260248201527f416e63686f724261736553747261746567793a206e6f207573742065786973746044820152606401610589565b80600260008282546117ab9190612067565b90915550506001546117ea906001600160a01b037f00000000000000000000000000000000000000000000000000000000000000008116911683611123565b6001546040517fa8a15a21000000000000000000000000000000000000000000000000000000008152600481018390526000916001600160a01b03169063a8a15a21906024016020604051808303816000875af115801561184f573d6000803e3d6000fd5b505050506040513d601f19601f82011682018060405250810190611873919061207f565b604080518082019091526001600160a01b038281168252602082018581526004805460018101825560009190915292517f8a35acfbc15ff81a39ae7d344fd709f28e8600b4aa8c65c6b64bfe7fe36bd19b600290940293840180546001600160a01b0319169190931617909155517f8a35acfbc15ff81a39ae7d344fd709f28e8600b4aa8c65c6b64bfe7fe36bd19c909101556007805460ff191690559491935090915050565b600061271061192d61ffff8416856121d8565b61193791906121f7565b9392505050565b6040516301ffc9a760e01b8082526004820183905260009182919060208160248189617530fa905190969095509350505050565b60006119c7826040518060400160405280602081526020017f5361666545524332303a206c6f772d6c6576656c2063616c6c206661696c6564815250856001600160a01b0316611dc89092919063ffffffff16565b80519091501561081057808060200190518101906119e59190612219565b6108105760405162461bcd60e51b815260206004820152602a60248201527f5361666545524332303a204552433230206f7065726174696f6e20646964206e60448201527f6f742073756363656564000000000000000000000000000000000000000000006064820152608401610589565b60606000611a668360026121d8565b611a71906002612067565b67ffffffffffffffff811115611a8957611a8961223b565b6040519080825280601f01601f191660200182016040528015611ab3576020820181803683370190505b5090507f300000000000000000000000000000000000000000000000000000000000000081600081518110611aea57611aea61209c565b60200101906001600160f81b031916908160001a9053507f780000000000000000000000000000000000000000000000000000000000000081600181518110611b3557611b3561209c565b60200101906001600160f81b031916908160001a9053506000611b598460026121d8565b611b64906001612067565b90505b6001811115611be9577f303132333435363738396162636465660000000000000000000000000000000085600f1660108110611ba557611ba561209c565b1a60f81b828281518110611bbb57611bbb61209c565b60200101906001600160f81b031916908160001a90535060049490941c93611be281612251565b9050611b67565b5083156119375760405162461bcd60e51b815260206004820181905260248201527f537472696e67733a20686578206c656e67746820696e73756666696369656e746044820152606401610589565b60008060008060007f00000000000000000000000000000000000000000000000000000000000000006001600160a01b031663feaf968c6040518163ffffffff1660e01b815260040160a060405180830381865afa158015611c9e573d6000803e3d6000fd5b505050506040513d601f19601f82011682018060405250810190611cc29190612287565b945094505093509350600083138015611cda57508115155b8015611cfe57508369ffffffffffffffffffff168169ffffffffffffffffffff1610155b611d705760405162461bcd60e51b815260206004820152602560248201527f416e63686f724261736553747261746567793a20696e76616c6964206155535460448201527f20726174650000000000000000000000000000000000000000000000000000006064820152608401610589565b50909392505050565b6040516370a0823160e01b81523060048201526000907f00000000000000000000000000000000000000000000000000000000000000006001600160a01b0316906370a08231906024016110e2565b6060611dd78484600085611ddf565b949350505050565b606082471015611e575760405162461bcd60e51b815260206004820152602660248201527f416464726573733a20696e73756666696369656e742062616c616e636520666f60448201527f722063616c6c00000000000000000000000000000000000000000000000000006064820152608401610589565b843b611ea55760405162461bcd60e51b815260206004820152601d60248201527f416464726573733a2063616c6c20746f206e6f6e2d636f6e74726163740000006044820152606401610589565b600080866001600160a01b03168587604051611ec191906122d7565b60006040518083038185875af1925050503d8060008114611efe576040519150601f19603f3d011682016040523d82523d6000602084013e611f03565b606091505b5091509150611f13828286611f1e565b979650505050505050565b60608315611f2d575081611937565b825115611f3d5782518084602001fd5b8160405162461bcd60e51b815260040161058991906121a5565b600060208284031215611f6957600080fd5b81356001600160e01b03198116811461193757600080fd5b600060208284031215611f9357600080fd5b5035919050565b6001600160a01b0381168114610f3c57600080fd5b60008060408385031215611fc257600080fd5b823591506020830135611fd481611f9a565b809150509250929050565b60008060208385031215611ff257600080fd5b823567ffffffffffffffff8082111561200a57600080fd5b818501915085601f83011261201e57600080fd5b81358181111561202d57600080fd5b86602082850101111561203f57600080fd5b60209290920196919550909350505050565b634e487b7160e01b600052601160045260246000fd5b6000821982111561207a5761207a612051565b500190565b60006020828403121561209157600080fd5b815161193781611f9a565b634e487b7160e01b600052603260045260246000fd5b6000828210156120c4576120c4612051565b500390565b634e487b7160e01b600052603160045260246000fd5b6000602082840312156120f157600080fd5b5051919050565b60005b838110156121135781810151838201526020016120fb565b83811115610a0c5750506000910152565b7f416363657373436f6e74726f6c3a206163636f756e742000000000000000000081526000835161215c8160178501602088016120f8565b7f206973206d697373696e6720726f6c652000000000000000000000000000000060179184019182015283516121998160288401602088016120f8565b01602801949350505050565b60208152600082518060208401526121c48160408501602087016120f8565b601f01601f19169190910160400192915050565b60008160001904831182151516156121f2576121f2612051565b500290565b60008261221457634e487b7160e01b600052601260045260246000fd5b500490565b60006020828403121561222b57600080fd5b8151801515811461193757600080fd5b634e487b7160e01b600052604160045260246000fd5b60008161226057612260612051565b506000190190565b805169ffffffffffffffffffff8116811461228257600080fd5b919050565b600080600080600060a0868803121561229f57600080fd5b6122a886612268565b94506020860151935060408601519250606086015191506122cb60808701612268565b90509295509295909350565b600082516122e98184602087016120f8565b919091019291505056fea26469706673582212200aad956cbc9204e975d5178a3b8c3c9658fd70e9a2e514ec51468dae4916e29164736f6c634300080a0033",
  "devdoc": {
    "kind": "dev",
    "methods": {
      "depositOperationLength()": {
        "returns": {
          "_0": "Length of pending deposit operations"
        }
      },
      "finishDepositStable(uint256)": {
        "params": {
          "idx": "Id of the pending deposit operation"
        }
      },
      "finishRedeemStable(uint256)": {
        "params": {
          "idx": "Id of the pending redeem operation"
        }
      },
      "getRoleAdmin(bytes32)": {
        "details": "Returns the admin role that controls `role`. See {grantRole} and {revokeRole}. To change a role's admin, use {_setRoleAdmin}."
      },
      "grantRole(bytes32,address)": {
        "details": "Grants `role` to `account`. If `account` had not been already granted `role`, emits a {RoleGranted} event. Requirements: - the caller must have ``role``'s admin role."
      },
      "hasRole(bytes32,address)": {
        "details": "Returns `true` if `account` has been granted `role`."
      },
      "initRedeemStable(uint256)": {
        "params": {
          "amount": "Amount of aUST to redeem"
        }
      },
      "invest(bytes)": {
        "details": "external data is not required"
      },
      "investedAssets()": {
        "returns": {
          "_0": "The total amount of underlying"
        }
      },
      "redeemOperationLength()": {
        "returns": {
          "_0": "Length of pending redeem operations"
        }
      },
      "renounceRole(bytes32,address)": {
        "details": "Revokes `role` from the calling account. Roles are often managed via {grantRole} and {revokeRole}: this function's purpose is to provide a mechanism for accounts to lose their privileges if they are compromised (such as when a trusted device is misplaced). If the calling account had been revoked `role`, emits a {RoleRevoked} event. Requirements: - the caller must be `account`."
      },
      "revokeRole(bytes32,address)": {
        "details": "Revokes `role` from `account`. If `account` had been granted `role`, emits a {RoleRevoked} event. Requirements: - the caller must have ``role``'s admin role."
      },
      "supportsInterface(bytes4)": {
        "details": "See {IERC165-supportsInterface}."
      }
    },
    "version": 1
  },
  "userdoc": {
    "kind": "user",
    "methods": {
      "applyInvestmentFee(uint256)": {
        "notice": "See {IStrategy}"
      },
      "constructor": {
        "notice": "Constructor of UST StrategyThe underlying token must be UST token."
      },
      "finishDepositStable(uint256)": {
        "notice": "Calls EthAnchor with a pending deposit ID, and attempts to finish it.Must be called some time after `_initDepositStable()`. Will only work if the EthAnchor bridge has finished processing the deposit."
      },
      "finishRedeemStable(uint256)": {
        "notice": "Calls EthAnchor with a pending redeem ID, and attempts to finish it.Must be called some time after `initRedeemStable()`. Will only work if the EthAnchor bridge has finished processing the deposit."
      },
      "hasAssets()": {
        "notice": "See {IStrategy}"
      },
      "initRedeemStable(uint256)": {
        "notice": "Initiates a withdrawal of UST from EthAnchorsince EthAnchor uses an asynchronous model, this function only starts the redeem process, but does not finish it."
      },
      "invest(bytes)": {
        "notice": "Initiates a deposit of all the currently held UST into EthAnchorsince EthAnchor uses an asynchronous model, this function only starts the deposit process, but does not finish it."
      },
      "investedAssets()": {
        "notice": "Amount, expressed in the underlying currency, currently in the strategyboth held and invested amounts are included here, using the latest known exchange rates to the underlying currency."
      },
      "underlying()": {
        "notice": "The underlying ERC20 token stored by the vault"
      },
      "vault()": {
        "notice": "The vault linked to this stragegy"
      },
      "withdrawAllToVault()": {
        "notice": "Request withdrawal from EthAnchorsince EthAnchor uses an asynchronous model, we can only request withdrawal for whole aUST"
      },
      "withdrawToVault(uint256)": {
        "notice": "Withdraws a specified amount back to the vaultsince EthAnchor uses an asynchronous model, and there is no underlying amount in the strategy, this function do nothing at all, However override interface of IStrategy."
      }
    },
    "notice": "An Eth Anchor strategy that uses UST as the underlying currency",
    "version": 1
  },
  "storageLayout": {
    "storage": [
      {
        "astId": 70,
        "contract": "contracts/strategy/anchor/AnchorUSTStrategy.sol:AnchorUSTStrategy",
        "label": "_roles",
        "offset": 0,
        "slot": "0",
        "type": "t_mapping(t_bytes32,t_struct(RoleData)65_storage)"
      },
      {
        "astId": 6075,
        "contract": "contracts/strategy/anchor/AnchorUSTStrategy.sol:AnchorUSTStrategy",
        "label": "ethAnchorRouter",
        "offset": 0,
        "slot": "1",
        "type": "t_contract(IEthAnchorRouter)7433"
      },
      {
        "astId": 6080,
        "contract": "contracts/strategy/anchor/AnchorUSTStrategy.sol:AnchorUSTStrategy",
        "label": "pendingDeposits",
        "offset": 0,
        "slot": "2",
        "type": "t_uint256"
      },
      {
        "astId": 6082,
        "contract": "contracts/strategy/anchor/AnchorUSTStrategy.sol:AnchorUSTStrategy",
        "label": "pendingRedeems",
        "offset": 0,
        "slot": "3",
        "type": "t_uint256"
      },
      {
        "astId": 6086,
        "contract": "contracts/strategy/anchor/AnchorUSTStrategy.sol:AnchorUSTStrategy",
        "label": "depositOperations",
        "offset": 0,
        "slot": "4",
        "type": "t_array(t_struct(Operation)6054_storage)dyn_storage"
      },
      {
        "astId": 6090,
        "contract": "contracts/strategy/anchor/AnchorUSTStrategy.sol:AnchorUSTStrategy",
        "label": "redeemOperations",
        "offset": 0,
        "slot": "5",
        "type": "t_array(t_struct(Operation)6054_storage)dyn_storage"
      },
      {
        "astId": 6092,
        "contract": "contracts/strategy/anchor/AnchorUSTStrategy.sol:AnchorUSTStrategy",
        "label": "_aUstToUstFeedMultiplier",
        "offset": 0,
        "slot": "6",
        "type": "t_uint256"
      },
      {
        "astId": 6094,
        "contract": "contracts/strategy/anchor/AnchorUSTStrategy.sol:AnchorUSTStrategy",
        "label": "_allRedeemed",
        "offset": 0,
        "slot": "7",
        "type": "t_bool"
      }
    ],
    "types": {
      "t_address": {
        "encoding": "inplace",
        "label": "address",
        "numberOfBytes": "20"
      },
      "t_array(t_struct(Operation)6054_storage)dyn_storage": {
        "base": "t_struct(Operation)6054_storage",
        "encoding": "dynamic_array",
        "label": "struct AnchorBaseStrategy.Operation[]",
        "numberOfBytes": "32"
      },
      "t_bool": {
        "encoding": "inplace",
        "label": "bool",
        "numberOfBytes": "1"
      },
      "t_bytes32": {
        "encoding": "inplace",
        "label": "bytes32",
        "numberOfBytes": "32"
      },
      "t_contract(IEthAnchorRouter)7433": {
        "encoding": "inplace",
        "label": "contract IEthAnchorRouter",
        "numberOfBytes": "20"
      },
      "t_mapping(t_address,t_bool)": {
        "encoding": "mapping",
        "key": "t_address",
        "label": "mapping(address => bool)",
        "numberOfBytes": "32",
        "value": "t_bool"
      },
      "t_mapping(t_bytes32,t_struct(RoleData)65_storage)": {
        "encoding": "mapping",
        "key": "t_bytes32",
        "label": "mapping(bytes32 => struct AccessControl.RoleData)",
        "numberOfBytes": "32",
        "value": "t_struct(RoleData)65_storage"
      },
      "t_struct(Operation)6054_storage": {
        "encoding": "inplace",
        "label": "struct AnchorBaseStrategy.Operation",
        "members": [
          {
            "astId": 6051,
            "contract": "contracts/strategy/anchor/AnchorUSTStrategy.sol:AnchorUSTStrategy",
            "label": "operator",
            "offset": 0,
            "slot": "0",
            "type": "t_address"
          },
          {
            "astId": 6053,
            "contract": "contracts/strategy/anchor/AnchorUSTStrategy.sol:AnchorUSTStrategy",
            "label": "amount",
            "offset": 0,
            "slot": "1",
            "type": "t_uint256"
          }
        ],
        "numberOfBytes": "64"
      },
      "t_struct(RoleData)65_storage": {
        "encoding": "inplace",
        "label": "struct AccessControl.RoleData",
        "members": [
          {
            "astId": 62,
            "contract": "contracts/strategy/anchor/AnchorUSTStrategy.sol:AnchorUSTStrategy",
            "label": "members",
            "offset": 0,
            "slot": "0",
            "type": "t_mapping(t_address,t_bool)"
          },
          {
            "astId": 64,
            "contract": "contracts/strategy/anchor/AnchorUSTStrategy.sol:AnchorUSTStrategy",
            "label": "adminRole",
            "offset": 0,
            "slot": "1",
            "type": "t_bytes32"
          }
        ],
        "numberOfBytes": "64"
      },
      "t_uint256": {
        "encoding": "inplace",
        "label": "uint256",
        "numberOfBytes": "32"
      }
    }
  }
}