{
  "address": "0x092982E6d18d76CE4961910a9D65B6C63436A421",
  "abi": [
    {
      "inputs": [
        {
          "internalType": "contract IERC20Metadata",
          "name": "_underlying",
          "type": "address"
        },
        {
          "internalType": "uint64",
          "name": "_minLockPeriod",
          "type": "uint64"
        },
        {
          "internalType": "uint16",
          "name": "_investPct",
          "type": "uint16"
        },
        {
          "internalType": "address",
          "name": "_treasury",
          "type": "address"
        },
        {
          "internalType": "address",
          "name": "_owner",
          "type": "address"
        },
        {
          "internalType": "uint16",
          "name": "_perfFeePct",
          "type": "uint16"
        },
        {
          "internalType": "uint16",
          "name": "_investmentFeeEstimatePct",
          "type": "uint16"
        },
        {
          "components": [
            {
              "internalType": "address",
              "name": "token",
              "type": "address"
            },
            {
              "internalType": "address",
              "name": "pool",
              "type": "address"
            },
            {
              "internalType": "int128",
              "name": "tokenI",
              "type": "int128"
            },
            {
              "internalType": "int128",
              "name": "underlyingI",
              "type": "int128"
            }
          ],
          "internalType": "struct CurveSwapper.SwapPoolParam[]",
          "name": "_swapPools",
          "type": "tuple[]"
        }
      ],
      "stateMutability": "nonpayable",
      "type": "constructor"
    },
    {
      "inputs": [],
      "name": "StrategyAmountZero",
      "type": "error"
    },
    {
      "inputs": [],
      "name": "StrategyCallerNotManager",
      "type": "error"
    },
    {
      "inputs": [],
      "name": "StrategyInvalidAUSTRate",
      "type": "error"
    },
    {
      "inputs": [],
      "name": "StrategyNoAUSTReturned",
      "type": "error"
    },
    {
      "inputs": [],
      "name": "StrategyNoUST",
      "type": "error"
    },
    {
      "inputs": [],
      "name": "StrategyNotIVault",
      "type": "error"
    },
    {
      "inputs": [],
      "name": "StrategyNotRunning",
      "type": "error"
    },
    {
      "inputs": [],
      "name": "StrategyNothingRedeemed",
      "type": "error"
    },
    {
      "inputs": [],
      "name": "StrategyOwnerCannotBe0Address",
      "type": "error"
    },
    {
      "inputs": [],
      "name": "StrategyRouterCannotBe0Address",
      "type": "error"
    },
    {
      "inputs": [],
      "name": "StrategyUnderlyingCannotBe0Address",
      "type": "error"
    },
    {
      "inputs": [],
      "name": "StrategyYieldTokenCannotBe0Address",
      "type": "error"
    },
    {
      "inputs": [],
      "name": "VaultAmountDoesNotMatchParams",
      "type": "error"
    },
    {
      "inputs": [],
      "name": "VaultAmountLocked",
      "type": "error"
    },
    {
      "inputs": [],
      "name": "VaultAmountTooLarge",
      "type": "error"
    },
    {
      "inputs": [],
      "name": "VaultCannotComputeSharesWithoutPrincipal",
      "type": "error"
    },
    {
      "inputs": [],
      "name": "VaultCannotDeposit0",
      "type": "error"
    },
    {
      "inputs": [],
      "name": "VaultCannotDepositWhenYieldNegative",
      "type": "error"
    },
    {
      "inputs": [],
      "name": "VaultCannotSponsor0",
      "type": "error"
    },
    {
      "inputs": [],
      "name": "VaultCannotWithdrawMoreThanAvailable",
      "type": "error"
    },
    {
      "inputs": [],
      "name": "VaultClaimPercentageCannotBe0",
      "type": "error"
    },
    {
      "inputs": [],
      "name": "VaultClaimsDontAddUp",
      "type": "error"
    },
    {
      "inputs": [],
      "name": "VaultDepositLocked",
      "type": "error"
    },
    {
      "inputs": [],
      "name": "VaultDestinationCannotBe0Address",
      "type": "error"
    },
    {
      "inputs": [],
      "name": "VaultInvalidInvestmentFee",
      "type": "error"
    },
    {
      "inputs": [],
      "name": "VaultInvalidInvestpct",
      "type": "error"
    },
    {
      "inputs": [],
      "name": "VaultInvalidLockPeriod",
      "type": "error"
    },
    {
      "inputs": [],
      "name": "VaultInvalidMinLockPeriod",
      "type": "error"
    },
    {
      "inputs": [],
      "name": "VaultInvalidPerformanceFee",
      "type": "error"
    },
    {
      "inputs": [],
      "name": "VaultInvalidVault",
      "type": "error"
    },
    {
      "inputs": [],
      "name": "VaultNoPerformanceFee",
      "type": "error"
    },
    {
      "inputs": [],
      "name": "VaultNotAllowed",
      "type": "error"
    },
    {
      "inputs": [],
      "name": "VaultNotDeposit",
      "type": "error"
    },
    {
      "inputs": [],
      "name": "VaultNotEnoughFunds",
      "type": "error"
    },
    {
      "inputs": [],
      "name": "VaultNotEnoughToRebalance",
      "type": "error"
    },
    {
      "inputs": [],
      "name": "VaultNotOwnerOfDeposit",
      "type": "error"
    },
    {
      "inputs": [],
      "name": "VaultNotSponsor",
      "type": "error"
    },
    {
      "inputs": [],
      "name": "VaultNothingToDo",
      "type": "error"
    },
    {
      "inputs": [],
      "name": "VaultOwnerCannotBe0Address",
      "type": "error"
    },
    {
      "inputs": [],
      "name": "VaultStrategyHasInvestedFunds",
      "type": "error"
    },
    {
      "inputs": [],
      "name": "VaultStrategyNotSet",
      "type": "error"
    },
    {
      "inputs": [],
      "name": "VaultTreasuryCannotBe0Address",
      "type": "error"
    },
    {
      "inputs": [],
      "name": "VaultUnderlyingCannotBe0Address",
      "type": "error"
    },
    {
      "anonymous": false,
      "inputs": [
        {
          "indexed": true,
          "internalType": "address",
          "name": "token",
          "type": "address"
        },
        {
          "indexed": true,
          "internalType": "address",
          "name": "pool",
          "type": "address"
        },
        {
          "indexed": false,
          "internalType": "int128",
          "name": "tokenI",
          "type": "int128"
        },
        {
          "indexed": false,
          "internalType": "int128",
          "name": "underlyingI",
          "type": "int128"
        }
      ],
      "name": "CurveSwapPoolAdded",
      "type": "event"
    },
    {
      "anonymous": false,
      "inputs": [
        {
          "indexed": true,
          "internalType": "address",
          "name": "token",
          "type": "address"
        }
      ],
      "name": "CurveSwapPoolRemoved",
      "type": "event"
    },
    {
      "anonymous": false,
      "inputs": [
        {
          "indexed": true,
          "internalType": "uint256",
          "name": "id",
          "type": "uint256"
        },
        {
          "indexed": false,
          "internalType": "uint256",
          "name": "groupId",
          "type": "uint256"
        },
        {
          "indexed": false,
          "internalType": "uint256",
          "name": "amount",
          "type": "uint256"
        },
        {
          "indexed": false,
          "internalType": "uint256",
          "name": "shares",
          "type": "uint256"
        },
        {
          "indexed": true,
          "internalType": "address",
          "name": "depositor",
          "type": "address"
        },
        {
          "indexed": true,
          "internalType": "address",
          "name": "claimer",
          "type": "address"
        },
        {
          "indexed": false,
          "internalType": "address",
          "name": "claimerId",
          "type": "address"
        },
        {
          "indexed": false,
          "internalType": "uint64",
          "name": "lockedUntil",
          "type": "uint64"
        },
        {
          "indexed": false,
          "internalType": "bytes",
          "name": "data",
          "type": "bytes"
        },
        {
          "indexed": false,
          "internalType": "string",
          "name": "name",
          "type": "string"
        }
      ],
      "name": "DepositMinted",
      "type": "event"
    },
    {
      "anonymous": false,
      "inputs": [
        {
          "indexed": true,
          "internalType": "uint256",
          "name": "id",
          "type": "uint256"
        },
        {
          "indexed": false,
          "internalType": "uint256",
          "name": "shares",
          "type": "uint256"
        },
        {
          "indexed": false,
          "internalType": "uint256",
          "name": "amount",
          "type": "uint256"
        },
        {
          "indexed": true,
          "internalType": "address",
          "name": "to",
          "type": "address"
        },
        {
          "indexed": false,
          "internalType": "bool",
          "name": "burned",
          "type": "bool"
        }
      ],
      "name": "DepositWithdrawn",
      "type": "event"
    },
    {
      "anonymous": false,
      "inputs": [
        {
          "indexed": false,
          "internalType": "uint256",
          "name": "amount",
          "type": "uint256"
        }
      ],
      "name": "Disinvested",
      "type": "event"
    },
    {
      "anonymous": false,
      "inputs": [
        {
          "indexed": false,
          "internalType": "uint256",
          "name": "amount",
          "type": "uint256"
        }
      ],
      "name": "FeeWithdrawn",
      "type": "event"
    },
    {
      "anonymous": false,
      "inputs": [
        {
          "indexed": false,
          "internalType": "uint256",
          "name": "percentage",
          "type": "uint256"
        }
      ],
      "name": "InvestPctUpdated",
      "type": "event"
    },
    {
      "anonymous": false,
      "inputs": [
        {
          "indexed": false,
          "internalType": "uint256",
          "name": "amount",
          "type": "uint256"
        }
      ],
      "name": "Invested",
      "type": "event"
    },
    {
      "anonymous": false,
      "inputs": [
        {
          "indexed": false,
          "internalType": "uint16",
          "name": "pct",
          "type": "uint16"
        }
      ],
      "name": "InvestmentFeeEstimatePctUpdated",
      "type": "event"
    },
    {
      "anonymous": false,
      "inputs": [
        {
          "indexed": false,
          "internalType": "address",
          "name": "account",
          "type": "address"
        }
      ],
      "name": "Paused",
      "type": "event"
    },
    {
      "anonymous": false,
      "inputs": [
        {
          "indexed": false,
          "internalType": "uint16",
          "name": "pct",
          "type": "uint16"
        }
      ],
      "name": "PerfFeePctUpdated",
      "type": "event"
    },
    {
      "anonymous": false,
      "inputs": [
        {
          "indexed": true,
          "internalType": "bytes32",
          "name": "role",
          "type": "bytes32"
        },
        {
          "indexed": true,
          "internalType": "bytes32",
          "name": "previousAdminRole",
          "type": "bytes32"
        },
        {
          "indexed": true,
          "internalType": "bytes32",
          "name": "newAdminRole",
          "type": "bytes32"
        }
      ],
      "name": "RoleAdminChanged",
      "type": "event"
    },
    {
      "anonymous": false,
      "inputs": [
        {
          "indexed": true,
          "internalType": "bytes32",
          "name": "role",
          "type": "bytes32"
        },
        {
          "indexed": true,
          "internalType": "address",
          "name": "account",
          "type": "address"
        },
        {
          "indexed": true,
          "internalType": "address",
          "name": "sender",
          "type": "address"
        }
      ],
      "name": "RoleGranted",
      "type": "event"
    },
    {
      "anonymous": false,
      "inputs": [
        {
          "indexed": true,
          "internalType": "bytes32",
          "name": "role",
          "type": "bytes32"
        },
        {
          "indexed": true,
          "internalType": "address",
          "name": "account",
          "type": "address"
        },
        {
          "indexed": true,
          "internalType": "address",
          "name": "sender",
          "type": "address"
        }
      ],
      "name": "RoleRevoked",
      "type": "event"
    },
    {
      "anonymous": false,
      "inputs": [
        {
          "indexed": true,
          "internalType": "uint256",
          "name": "id",
          "type": "uint256"
        },
        {
          "indexed": false,
          "internalType": "uint256",
          "name": "amount",
          "type": "uint256"
        },
        {
          "indexed": true,
          "internalType": "address",
          "name": "depositor",
          "type": "address"
        },
        {
          "indexed": false,
          "internalType": "uint256",
          "name": "lockedUntil",
          "type": "uint256"
        }
      ],
      "name": "Sponsored",
      "type": "event"
    },
    {
      "anonymous": false,
      "inputs": [
        {
          "indexed": true,
          "internalType": "address",
          "name": "strategy",
          "type": "address"
        }
      ],
      "name": "StrategyUpdated",
      "type": "event"
    },
    {
      "anonymous": false,
      "inputs": [
        {
          "indexed": true,
          "internalType": "address",
          "name": "fromToken",
          "type": "address"
        },
        {
          "indexed": true,
          "internalType": "address",
          "name": "toToken",
          "type": "address"
        },
        {
          "indexed": false,
          "internalType": "uint256",
          "name": "fromAmount",
          "type": "uint256"
        },
        {
          "indexed": false,
          "internalType": "uint256",
          "name": "toAmount",
          "type": "uint256"
        }
      ],
      "name": "Swap",
      "type": "event"
    },
    {
      "anonymous": false,
      "inputs": [
        {
          "indexed": true,
          "internalType": "address",
          "name": "treasury",
          "type": "address"
        }
      ],
      "name": "TreasuryUpdated",
      "type": "event"
    },
    {
      "anonymous": false,
      "inputs": [
        {
          "indexed": false,
          "internalType": "address",
          "name": "account",
          "type": "address"
        }
      ],
      "name": "Unpaused",
      "type": "event"
    },
    {
      "anonymous": false,
      "inputs": [
        {
          "indexed": true,
          "internalType": "uint256",
          "name": "id",
          "type": "uint256"
        }
      ],
      "name": "Unsponsored",
      "type": "event"
    },
    {
      "anonymous": false,
      "inputs": [
        {
          "indexed": false,
          "internalType": "address",
          "name": "claimerId",
          "type": "address"
        },
        {
          "indexed": true,
          "internalType": "address",
          "name": "to",
          "type": "address"
        },
        {
          "indexed": false,
          "internalType": "uint256",
          "name": "amount",
          "type": "uint256"
        },
        {
          "indexed": false,
          "internalType": "uint256",
          "name": "burnedShares",
          "type": "uint256"
        },
        {
          "indexed": false,
          "internalType": "uint256",
          "name": "perfFee",
          "type": "uint256"
        }
      ],
      "name": "YieldClaimed",
      "type": "event"
    },
    {
      "inputs": [],
      "name": "DEFAULT_ADMIN_ROLE",
      "outputs": [
        {
          "internalType": "bytes32",
          "name": "",
          "type": "bytes32"
        }
      ],
      "stateMutability": "view",
      "type": "function"
    },
    {
      "inputs": [],
      "name": "INVESTOR_ROLE",
      "outputs": [
        {
          "internalType": "bytes32",
          "name": "",
          "type": "bytes32"
        }
      ],
      "stateMutability": "view",
      "type": "function"
    },
    {
      "inputs": [],
      "name": "MAX_DEPOSIT_LOCK_DURATION",
      "outputs": [
        {
          "internalType": "uint64",
          "name": "",
          "type": "uint64"
        }
      ],
      "stateMutability": "view",
      "type": "function"
    },
    {
      "inputs": [],
      "name": "MAX_SPONSOR_LOCK_DURATION",
      "outputs": [
        {
          "internalType": "uint64",
          "name": "",
          "type": "uint64"
        }
      ],
      "stateMutability": "view",
      "type": "function"
    },
    {
      "inputs": [],
      "name": "MIN_SPONSOR_LOCK_DURATION",
      "outputs": [
        {
          "internalType": "uint64",
          "name": "",
          "type": "uint64"
        }
      ],
      "stateMutability": "view",
      "type": "function"
    },
    {
      "inputs": [],
      "name": "SETTINGS_ROLE",
      "outputs": [
        {
          "internalType": "bytes32",
          "name": "",
          "type": "bytes32"
        }
      ],
      "stateMutability": "view",
      "type": "function"
    },
    {
      "inputs": [],
      "name": "SHARES_MULTIPLIER",
      "outputs": [
        {
          "internalType": "uint256",
          "name": "",
          "type": "uint256"
        }
      ],
      "stateMutability": "view",
      "type": "function"
    },
    {
      "inputs": [],
      "name": "SLIPPAGE",
      "outputs": [
        {
          "internalType": "uint256",
          "name": "",
          "type": "uint256"
        }
      ],
      "stateMutability": "view",
      "type": "function"
    },
    {
      "inputs": [],
      "name": "SPONSOR_ROLE",
      "outputs": [
        {
          "internalType": "bytes32",
          "name": "",
          "type": "bytes32"
        }
      ],
      "stateMutability": "view",
      "type": "function"
    },
    {
      "inputs": [],
      "name": "accumulatedPerfFee",
      "outputs": [
        {
          "internalType": "uint256",
          "name": "",
          "type": "uint256"
        }
      ],
      "stateMutability": "view",
      "type": "function"
    },
    {
      "inputs": [
        {
          "components": [
            {
              "internalType": "address",
              "name": "token",
              "type": "address"
            },
            {
              "internalType": "address",
              "name": "pool",
              "type": "address"
            },
            {
              "internalType": "int128",
              "name": "tokenI",
              "type": "int128"
            },
            {
              "internalType": "int128",
              "name": "underlyingI",
              "type": "int128"
            }
          ],
          "internalType": "struct CurveSwapper.SwapPoolParam",
          "name": "_param",
          "type": "tuple"
        }
      ],
      "name": "addPool",
      "outputs": [],
      "stateMutability": "nonpayable",
      "type": "function"
    },
    {
      "inputs": [
        {
          "internalType": "address",
          "name": "_to",
          "type": "address"
        }
      ],
      "name": "claimYield",
      "outputs": [],
      "stateMutability": "nonpayable",
      "type": "function"
    },
    {
      "inputs": [
        {
          "internalType": "address",
          "name": "",
          "type": "address"
        }
      ],
      "name": "claimer",
      "outputs": [
        {
          "internalType": "uint256",
          "name": "totalPrincipal",
          "type": "uint256"
        },
        {
          "internalType": "uint256",
          "name": "totalShares",
          "type": "uint256"
        }
      ],
      "stateMutability": "view",
      "type": "function"
    },
    {
      "inputs": [
        {
          "components": [
            {
              "internalType": "address",
              "name": "inputToken",
              "type": "address"
            },
            {
              "internalType": "uint64",
              "name": "lockDuration",
              "type": "uint64"
            },
            {
              "internalType": "uint256",
              "name": "amount",
              "type": "uint256"
            },
            {
              "components": [
                {
                  "internalType": "uint16",
                  "name": "pct",
                  "type": "uint16"
                },
                {
                  "internalType": "address",
                  "name": "beneficiary",
                  "type": "address"
                },
                {
                  "internalType": "bytes",
                  "name": "data",
                  "type": "bytes"
                }
              ],
              "internalType": "struct IVault.ClaimParams[]",
              "name": "claims",
              "type": "tuple[]"
            },
            {
              "internalType": "string",
              "name": "name",
              "type": "string"
            }
          ],
          "internalType": "struct IVault.DepositParams",
          "name": "_params",
          "type": "tuple"
        }
      ],
      "name": "deposit",
      "outputs": [
        {
          "internalType": "uint256[]",
          "name": "depositIds",
          "type": "uint256[]"
        }
      ],
      "stateMutability": "nonpayable",
      "type": "function"
    },
    {
      "inputs": [],
      "name": "depositors",
      "outputs": [
        {
          "internalType": "contract Depositors",
          "name": "",
          "type": "address"
        }
      ],
      "stateMutability": "view",
      "type": "function"
    },
    {
      "inputs": [
        {
          "internalType": "uint256",
          "name": "",
          "type": "uint256"
        }
      ],
      "name": "deposits",
      "outputs": [
        {
          "internalType": "uint256",
          "name": "amount",
          "type": "uint256"
        },
        {
          "internalType": "address",
          "name": "claimerId",
          "type": "address"
        },
        {
          "internalType": "uint256",
          "name": "lockedUntil",
          "type": "uint256"
        },
        {
          "internalType": "uint256",
          "name": "shares",
          "type": "uint256"
        }
      ],
      "stateMutability": "view",
      "type": "function"
    },
    {
      "inputs": [
        {
          "internalType": "address",
          "name": "_to",
          "type": "address"
        },
        {
          "internalType": "uint256[]",
          "name": "_ids",
          "type": "uint256[]"
        }
      ],
      "name": "forceWithdraw",
      "outputs": [],
      "stateMutability": "nonpayable",
      "type": "function"
    },
    {
      "inputs": [
        {
          "internalType": "bytes32",
          "name": "role",
          "type": "bytes32"
        }
      ],
      "name": "getRoleAdmin",
      "outputs": [
        {
          "internalType": "bytes32",
          "name": "",
          "type": "bytes32"
        }
      ],
      "stateMutability": "view",
      "type": "function"
    },
    {
      "inputs": [],
      "name": "getUnderlying",
      "outputs": [
        {
          "internalType": "address",
          "name": "",
          "type": "address"
        }
      ],
      "stateMutability": "view",
      "type": "function"
    },
    {
      "inputs": [
        {
          "internalType": "bytes32",
          "name": "role",
          "type": "bytes32"
        },
        {
          "internalType": "address",
          "name": "account",
          "type": "address"
        }
      ],
      "name": "grantRole",
      "outputs": [],
      "stateMutability": "nonpayable",
      "type": "function"
    },
    {
      "inputs": [
        {
          "internalType": "bytes32",
          "name": "role",
          "type": "bytes32"
        },
        {
          "internalType": "address",
          "name": "account",
          "type": "address"
        }
      ],
      "name": "hasRole",
      "outputs": [
        {
          "internalType": "bool",
          "name": "",
          "type": "bool"
        }
      ],
      "stateMutability": "view",
      "type": "function"
    },
    {
      "inputs": [],
      "name": "investPct",
      "outputs": [
        {
          "internalType": "uint16",
          "name": "",
          "type": "uint16"
        }
      ],
      "stateMutability": "view",
      "type": "function"
    },
    {
      "inputs": [],
      "name": "investState",
      "outputs": [
        {
          "internalType": "uint256",
          "name": "maxInvestableAmount",
          "type": "uint256"
        },
        {
          "internalType": "uint256",
          "name": "alreadyInvested",
          "type": "uint256"
        }
      ],
      "stateMutability": "view",
      "type": "function"
    },
    {
      "inputs": [],
      "name": "investmentFeeEstimatePct",
      "outputs": [
        {
          "internalType": "uint16",
          "name": "",
          "type": "uint16"
        }
      ],
      "stateMutability": "view",
      "type": "function"
    },
    {
      "inputs": [],
      "name": "minLockPeriod",
      "outputs": [
        {
          "internalType": "uint64",
          "name": "",
          "type": "uint64"
        }
      ],
      "stateMutability": "view",
      "type": "function"
    },
    {
      "inputs": [
        {
          "internalType": "address",
          "name": "_to",
          "type": "address"
        },
        {
          "internalType": "uint256[]",
          "name": "_ids",
          "type": "uint256[]"
        },
        {
          "internalType": "uint256[]",
          "name": "_amounts",
          "type": "uint256[]"
        }
      ],
      "name": "partialWithdraw",
      "outputs": [],
      "stateMutability": "nonpayable",
      "type": "function"
    },
    {
      "inputs": [],
      "name": "pause",
      "outputs": [],
      "stateMutability": "nonpayable",
      "type": "function"
    },
    {
      "inputs": [],
      "name": "paused",
      "outputs": [
        {
          "internalType": "bool",
          "name": "",
          "type": "bool"
        }
      ],
      "stateMutability": "view",
      "type": "function"
    },
    {
      "inputs": [],
      "name": "perfFeePct",
      "outputs": [
        {
          "internalType": "uint16",
          "name": "",
          "type": "uint16"
        }
      ],
      "stateMutability": "view",
      "type": "function"
    },
    {
      "inputs": [
        {
          "internalType": "address",
          "name": "claimerId",
          "type": "address"
        }
      ],
      "name": "principalOf",
      "outputs": [
        {
          "internalType": "uint256",
          "name": "",
          "type": "uint256"
        }
      ],
      "stateMutability": "view",
      "type": "function"
    },
    {
      "inputs": [
        {
          "internalType": "address",
          "name": "_inputToken",
          "type": "address"
        }
      ],
      "name": "removePool",
      "outputs": [],
      "stateMutability": "nonpayable",
      "type": "function"
    },
    {
      "inputs": [
        {
          "internalType": "bytes32",
          "name": "role",
          "type": "bytes32"
        },
        {
          "internalType": "address",
          "name": "account",
          "type": "address"
        }
      ],
      "name": "renounceRole",
      "outputs": [],
      "stateMutability": "nonpayable",
      "type": "function"
    },
    {
      "inputs": [
        {
          "internalType": "bytes32",
          "name": "role",
          "type": "bytes32"
        },
        {
          "internalType": "address",
          "name": "account",
          "type": "address"
        }
      ],
      "name": "revokeRole",
      "outputs": [],
      "stateMutability": "nonpayable",
      "type": "function"
    },
    {
      "inputs": [
        {
          "internalType": "uint16",
          "name": "_investPct",
          "type": "uint16"
        }
      ],
      "name": "setInvestPct",
      "outputs": [],
      "stateMutability": "nonpayable",
      "type": "function"
    },
    {
      "inputs": [
        {
          "internalType": "uint16",
          "name": "pct",
          "type": "uint16"
        }
      ],
      "name": "setInvestmentFeeEstimatePct",
      "outputs": [],
      "stateMutability": "nonpayable",
      "type": "function"
    },
    {
      "inputs": [
        {
          "internalType": "uint16",
          "name": "_perfFeePct",
          "type": "uint16"
        }
      ],
      "name": "setPerfFeePct",
      "outputs": [],
      "stateMutability": "nonpayable",
      "type": "function"
    },
    {
      "inputs": [
        {
          "internalType": "address",
          "name": "_strategy",
          "type": "address"
        }
      ],
      "name": "setStrategy",
      "outputs": [],
      "stateMutability": "nonpayable",
      "type": "function"
    },
    {
      "inputs": [
        {
          "internalType": "address",
          "name": "_treasury",
          "type": "address"
        }
      ],
      "name": "setTreasury",
      "outputs": [],
      "stateMutability": "nonpayable",
      "type": "function"
    },
    {
      "inputs": [
        {
          "internalType": "address",
          "name": "claimerId",
          "type": "address"
        }
      ],
      "name": "sharesOf",
      "outputs": [
        {
          "internalType": "uint256",
          "name": "",
          "type": "uint256"
        }
      ],
      "stateMutability": "view",
      "type": "function"
    },
    {
      "inputs": [
        {
          "internalType": "address",
          "name": "_inputToken",
          "type": "address"
        },
        {
          "internalType": "uint256",
          "name": "_amount",
          "type": "uint256"
        },
        {
          "internalType": "uint256",
          "name": "_lockDuration",
          "type": "uint256"
        }
      ],
      "name": "sponsor",
      "outputs": [],
      "stateMutability": "nonpayable",
      "type": "function"
    },
    {
      "inputs": [],
      "name": "strategy",
      "outputs": [
        {
          "internalType": "contract IStrategy",
          "name": "",
          "type": "address"
        }
      ],
      "stateMutability": "view",
      "type": "function"
    },
    {
      "inputs": [
        {
          "internalType": "bytes4",
          "name": "interfaceId",
          "type": "bytes4"
        }
      ],
      "name": "supportsInterface",
      "outputs": [
        {
          "internalType": "bool",
          "name": "",
          "type": "bool"
        }
      ],
      "stateMutability": "view",
      "type": "function"
    },
    {
      "inputs": [
        {
          "internalType": "address",
          "name": "",
          "type": "address"
        }
      ],
      "name": "swappers",
      "outputs": [
        {
          "internalType": "contract ICurve",
          "name": "pool",
          "type": "address"
        },
        {
          "internalType": "uint8",
          "name": "tokenDecimals",
          "type": "uint8"
        },
        {
          "internalType": "uint8",
          "name": "underlyingDecimals",
          "type": "uint8"
        },
        {
          "internalType": "int128",
          "name": "tokenI",
          "type": "int128"
        },
        {
          "internalType": "int128",
          "name": "underlyingI",
          "type": "int128"
        }
      ],
      "stateMutability": "view",
      "type": "function"
    },
    {
      "inputs": [],
      "name": "totalPrincipal",
      "outputs": [
        {
          "internalType": "uint256",
          "name": "",
          "type": "uint256"
        }
      ],
      "stateMutability": "view",
      "type": "function"
    },
    {
      "inputs": [],
      "name": "totalShares",
      "outputs": [
        {
          "internalType": "uint256",
          "name": "",
          "type": "uint256"
        }
      ],
      "stateMutability": "view",
      "type": "function"
    },
    {
      "inputs": [],
      "name": "totalSponsored",
      "outputs": [
        {
          "internalType": "uint256",
          "name": "",
          "type": "uint256"
        }
      ],
      "stateMutability": "view",
      "type": "function"
    },
    {
      "inputs": [],
      "name": "totalUnderlying",
      "outputs": [
        {
          "internalType": "uint256",
          "name": "",
          "type": "uint256"
        }
      ],
      "stateMutability": "view",
      "type": "function"
    },
    {
      "inputs": [],
      "name": "totalUnderlyingMinusSponsored",
      "outputs": [
        {
          "internalType": "uint256",
          "name": "",
          "type": "uint256"
        }
      ],
      "stateMutability": "view",
      "type": "function"
    },
    {
      "inputs": [],
      "name": "treasury",
      "outputs": [
        {
          "internalType": "address",
          "name": "",
          "type": "address"
        }
      ],
      "stateMutability": "view",
      "type": "function"
    },
    {
      "inputs": [],
      "name": "underlying",
      "outputs": [
        {
          "internalType": "contract IERC20Metadata",
          "name": "",
          "type": "address"
        }
      ],
      "stateMutability": "view",
      "type": "function"
    },
    {
      "inputs": [],
      "name": "unpause",
      "outputs": [],
      "stateMutability": "nonpayable",
      "type": "function"
    },
    {
      "inputs": [
        {
          "internalType": "address",
          "name": "_to",
          "type": "address"
        },
        {
          "internalType": "uint256[]",
          "name": "_ids",
          "type": "uint256[]"
        }
      ],
      "name": "unsponsor",
      "outputs": [],
      "stateMutability": "nonpayable",
      "type": "function"
    },
    {
      "inputs": [],
      "name": "updateInvested",
      "outputs": [],
      "stateMutability": "nonpayable",
      "type": "function"
    },
    {
      "inputs": [
        {
          "internalType": "address",
          "name": "_to",
          "type": "address"
        },
        {
          "internalType": "uint256[]",
          "name": "_ids",
          "type": "uint256[]"
        }
      ],
      "name": "withdraw",
      "outputs": [],
      "stateMutability": "nonpayable",
      "type": "function"
    },
    {
      "inputs": [],
      "name": "withdrawPerformanceFee",
      "outputs": [],
      "stateMutability": "nonpayable",
      "type": "function"
    },
    {
      "inputs": [
        {
          "internalType": "address",
          "name": "_to",
          "type": "address"
        }
      ],
      "name": "yieldFor",
      "outputs": [
        {
          "internalType": "uint256",
          "name": "claimableYield",
          "type": "uint256"
        },
        {
          "internalType": "uint256",
          "name": "shares",
          "type": "uint256"
        },
        {
          "internalType": "uint256",
          "name": "perfFee",
          "type": "uint256"
        }
      ],
      "stateMutability": "view",
      "type": "function"
    }
  ],
  "transactionHash": "0x11a2a9d7233cb9ddb409b7c190a7bba6f5fa29d4af540725990fb4d4616e62b9",
  "args": [
    "0x6cA13a4ab78dd7D657226b155873A04DB929A3A4",
    1,
    9000,
    "0x8f592F2594C43eA30879f9fbED4d930248D81D41",
    "0x8f592F2594C43eA30879f9fbED4d930248D81D41",
    100,
    200,
    [
      {
        "token": "0x6bb59e3f447222b3fcf2847111700723153f625a",
        "pool": "0x1F8f4090c3A2DEE7941daF29830878973991D8F0",
        "tokenI": 1,
        "underlyingI": 0
      },
      {
        "token": "0xE015FD30cCe08Bc10344D934bdb2292B1eC4BBBD",
        "pool": "0x1F8f4090c3A2DEE7941daF29830878973991D8F0",
        "tokenI": 2,
        "underlyingI": 0
      }
    ]
  ],
  "numDeployments": 4,
  "solcInputHash": "7daa75f08ebe0e213cb138a300d6a9be",
  "bytecode": "0x60c06040523480156200001157600080fd5b506040516200786338038062007863833981016040819052620000349162000dbe565b60016002556003805460ff191690556200005e61ffff8716620003bd602090811b62001f7c17901c565b6200007c5760405163870e44a360e01b815260040160405180910390fd5b620000968361ffff16620003bd60201b62001f7c1760201c565b620000b45760405163d25b1e4b60e01b815260040160405180910390fd5b620000ce8261ffff16620003bd60201b62001f7c1760201c565b620000ec5760405163f510aa5160e01b815260040160405180910390fd5b6001600160a01b0388166200011457604051631fc8ba7960e31b815260040160405180910390fd5b6001600160a01b0385166200013c576040516335af31e960e11b815260040160405180910390fd5b6001600160a01b03841662000164576040516306a8b35560e21b815260040160405180910390fd5b6001600160401b038716158062000186575062dd7c006001600160401b038816115b15620001a557604051636df7cef760e11b815260040160405180910390fd5b620001b2600085620003c5565b620001de7fb165298935924f540e4181c03493a5d686c54a0aaeb3f6216de85b7ffbba773885620003c5565b6200020a7ffaf9b26485088dee58863e57c46603d6cdcbadc7475ac6d8910fab0ecf60309585620003c5565b620002367f1597bc5e34ff090612f53164e4e642d2ab4fc78bffe19ed1b602a0d12559561a85620003c5565b60038054610100600160b81b031916600160a81b61ffff89811691909102610100600160a81b031916919091176101006001600160a01b038c81169190910291909117909255600c80546001600160401b038b166080529288166001600160b01b031990931692909217600160a01b8683160217909155600e805461ffff19169184169190911790556040513090620002cf9062000cf8565b6001600160a01b039091168152602001604051809103906000f080158015620002fc573d6000803e3d6000fd5b50600780546001600160a01b0319166001600160a01b039283161790556003546040805163313ce56760e01b815290516101009092049092169163313ce5679160048083019260209291908290030181865afa15801562000361573d6000803e3d6000fd5b505050506040513d601f19601f8201168201806040525081019062000387919062000f76565b6200039490600a620010ae565b620003a190600a620010bf565b60a052620003af81620003d5565b5050505050505050620011f9565b612710101590565b620003d1828262000428565b5050565b805160005b81811015620004235762000410838281518110620003fc57620003fc620010e1565b60200260200101516200049660201b60201c565b6200041b81620010f7565b9050620003da565b505050565b62000434828262000871565b620003d15760008281526001602081815260408084206001600160a01b0386168086529252808420805460ff19169093179092559051339285917f2f8788117e7eff1d82e926ec794901d17c78024a50270940304540a733656f0d9190a45050565b80516001600160a01b039081166000908152602081905260409020541615620005065760405162461bcd60e51b815260206004820152601d60248201527f746f6b656e20616c7265616479206861732061207377617020706f6f6c00000060448201526064015b60405180910390fd5b6200051e60035461010090046001600160a01b031690565b6001600160a01b031681602001516001600160a01b031663c661065783606001516001600160801b03166040518263ffffffff1660e01b81526004016200056791815260200190565b602060405180830381865afa15801562000585573d6000803e3d6000fd5b505050506040513d601f19601f82011682018060405250810190620005ab919062001115565b6001600160a01b031614620006185760405162461bcd60e51b815260206004820152602c60248201527f5f756e6465726c79696e674920646f6573206e6f74206d6174636820756e646560448201526b39363cb4b733903a37b5b2b760a11b6064820152608401620004fd565b600081600001516001600160a01b031663313ce5676040518163ffffffff1660e01b8152600401602060405180830381865afa1580156200065d573d6000803e3d6000fd5b505050506040513d601f19601f8201168201806040525081019062000683919062000f76565b60ff1690506000620006a260035461010090046001600160a01b031690565b6001600160a01b031663313ce5676040518163ffffffff1660e01b8152600401602060405180830381865afa158015620006e0573d6000803e3d6000fd5b505050506040513d601f19601f8201168201806040525081019062000706919062000f76565b6040805160a0810182526020808701516001600160a01b03908116835260ff8781168385019081529581168486018181528a870151600f90810b60608089019182528d015190910b608088019081528c5186166000908152968790529790952095518654985191518416600160a81b0260ff60a81b1992909416600160a01b026001600160a81b031990991694169390931796909617919091161782555191516001600160801b03908116600160801b029216919091176001909101559050620007ec620007e160035461010090046001600160a01b031690565b60208501516200089e565b82516020840151620007ff91906200089e565b82602001516001600160a01b031683600001516001600160a01b03167f1576b5fcfa863788d9ef6558cab7aa68d4b48c44eb7bacaf1a8ac6d6b9d26f948560400151866060015160405162000864929190600f92830b8152910b602082015260400190565b60405180910390a3505050565b60008281526001602090815260408083206001600160a01b038516845290915290205460ff165b92915050565b604051636eb1769f60e11b81523060048201526001600160a01b0382811660248301526000919084169063dd62ed3e90604401602060405180830381865afa158015620008ef573d6000803e3d6000fd5b505050506040513d601f19601f8201168201806040525081019062000915919062001135565b90508062000423576200042382600019856001600160a01b03166200094460201b62001f84179092919060201c565b801580620009c25750604051636eb1769f60e11b81523060048201526001600160a01b03838116602483015284169063dd62ed3e90604401602060405180830381865afa1580156200099a573d6000803e3d6000fd5b505050506040513d601f19601f82011682018060405250810190620009c0919062001135565b155b62000a365760405162461bcd60e51b815260206004820152603660248201527f5361666545524332303a20617070726f76652066726f6d206e6f6e2d7a65726f60448201527f20746f206e6f6e2d7a65726f20616c6c6f77616e6365000000000000000000006064820152608401620004fd565b604080516001600160a01b038416602482015260448082018490528251808303909101815260649091019091526020810180516001600160e01b0390811663095ea7b360e01b179091526200042391859162000a8e16565b600062000aea826040518060400160405280602081526020017f5361666545524332303a206c6f772d6c6576656c2063616c6c206661696c6564815250856001600160a01b031662000b6c60201b62002101179092919060201c565b80519091501562000423578080602001905181019062000b0b91906200114f565b620004235760405162461bcd60e51b815260206004820152602a60248201527f5361666545524332303a204552433230206f7065726174696f6e20646964206e6044820152691bdd081cdd58d8d9595960b21b6064820152608401620004fd565b606062000b7d848460008562000b87565b90505b9392505050565b60608247101562000bea5760405162461bcd60e51b815260206004820152602660248201527f416464726573733a20696e73756666696369656e742062616c616e636520666f6044820152651c8818d85b1b60d21b6064820152608401620004fd565b843b62000c3a5760405162461bcd60e51b815260206004820152601d60248201527f416464726573733a2063616c6c20746f206e6f6e2d636f6e74726163740000006044820152606401620004fd565b600080866001600160a01b0316858760405162000c589190620011a6565b60006040518083038185875af1925050503d806000811462000c97576040519150601f19603f3d011682016040523d82523d6000602084013e62000c9c565b606091505b50909250905062000caf82828662000cba565b979650505050505050565b6060831562000ccb57508162000b80565b82511562000cdc5782518084602001fd5b8160405162461bcd60e51b8152600401620004fd9190620011c4565b611c8d8062005bd683390190565b6001600160a01b038116811462000d1c57600080fd5b50565b805161ffff8116811462000d3257600080fd5b919050565b634e487b7160e01b600052604160045260246000fd5b604051608081016001600160401b038111828210171562000d725762000d7262000d37565b60405290565b604051601f8201601f191681016001600160401b038111828210171562000da35762000da362000d37565b604052919050565b8051600f81900b811462000d3257600080fd5b600080600080600080600080610100898b03121562000ddc57600080fd5b885162000de98162000d06565b60208a01519098506001600160401b03808216821462000e0857600080fd5b81985062000e1960408c0162000d1f565b975060608b0151915062000e2d8262000d06565b60808b015191965062000e408262000d06565b81955062000e5160a08c0162000d1f565b945062000e6160c08c0162000d1f565b935060e08b015191508082111562000e7857600080fd5b818b0191508b601f83011262000e8d57600080fd5b81518181111562000ea25762000ea262000d37565b62000eb360208260051b0162000d78565b91508181835260208301925060208260071b85010191508d82111562000ed857600080fd5b6020840193505b8184101562000f62576080848f03121562000ef957600080fd5b62000f0362000d4d565b845162000f108162000d06565b8152602085015162000f228162000d06565b602082015262000f356040860162000dab565b604082015262000f486060860162000dab565b606082015283526080939093019260209092019162000edf565b809450505050509295985092959890939650565b60006020828403121562000f8957600080fd5b815160ff8116811462000b8057600080fd5b634e487b7160e01b600052601160045260246000fd5b600181815b8085111562000ff257816000190482111562000fd65762000fd662000f9b565b8085161562000fe457918102915b93841c939080029062000fb6565b509250929050565b6000826200100b5750600162000898565b816200101a5750600062000898565b81600181146200103357600281146200103e576200105e565b600191505062000898565b60ff84111562001052576200105262000f9b565b50506001821b62000898565b5060208310610133831016604e8410600b841016171562001083575081810a62000898565b6200108f838362000fb1565b8060001904821115620010a657620010a662000f9b565b029392505050565b600062000b8060ff84168362000ffa565b6000816000190483118215151615620010dc57620010dc62000f9b565b500290565b634e487b7160e01b600052603260045260246000fd5b60006000198214156200110e576200110e62000f9b565b5060010190565b6000602082840312156200112857600080fd5b815162000b808162000d06565b6000602082840312156200114857600080fd5b5051919050565b6000602082840312156200116257600080fd5b8151801515811462000b8057600080fd5b60005b838110156200119057818101518382015260200162001176565b83811115620011a0576000848401525b50505050565b60008251620011ba81846020870162001173565b9190910192915050565b6020815260008251806020840152620011e581604085016020870162001173565b601f01601f19169190910160400192915050565b60805160a0516149a96200122d60003960008181610efd01526110020152600081816105550152611e1c01526149a96000f3fe608060405234801561001057600080fd5b50600436106103785760003560e01c80638cad7fbe116101d3578063bd2e3ecd11610104578063e4020fdf116100a2578063f5eb42dc1161007c578063f5eb42dc146108af578063f6289887146108db578063f943c8a214610902578063fd6e92171461092257600080fd5b8063e4020fdf14610880578063eb0ebfbc14610893578063f0f442601461089c57600080fd5b8063c70920bc116100de578063c70920bc1461083d578063d547741f14610845578063d9db2b7714610858578063df6f9ba71461086d57600080fd5b8063bd2e3ecd146105b7578063c0ddb6921461080e578063c2d794441461081657600080fd5b8063a217fddf11610171578063aaa466881161014b578063aaa4668814610753578063ae2429df14610766578063b02c43d014610779578063bba97d33146107e057600080fd5b8063a217fddf14610717578063a2df37751461071f578063a8c62e761461074057600080fd5b80639816f473116101ad5780639816f473146106d1578063999927df146106e7578063a164c25d146106fa578063a1ac20eb1461070457600080fd5b80638cad7fbe146105ef57806391d148541461068557806395854b1a146106be57600080fd5b80634b1533b2116102ad5780636f307dc31161024b57806376490b561161022557806376490b56146105b75780637e4b8da0146105c15780638293744b146105d45780638456cb59146105e757600080fd5b80636f307dc31461053857806373ae54b51461055057806376082a5e1461059057600080fd5b8063563233f611610287578063563233f6146104c65780635c975abb146104d957806361d027b3146104e457806361e20a1c1461050f57600080fd5b80634b1533b2146104ad5780634e813ac4146104b65780634fc78d68146104be57600080fd5b806336568abe1161031a5780633b7d0946116102f45780633b7d0946146104775780633ba52fc61461048a5780633f383236146104925780633f4ba83a146104a557600080fd5b806336568abe1461045357806336b4134a146104665780633a98ef391461046e57600080fd5b806319d3ee3d1161035657806319d3ee3d146103fe578063248a9ca3146104075780632f2ff15d1461042b57806333a100ca1461044057600080fd5b806301ffc9a71461037d5780631325d5f1146103a557806313f6686d146103c2575b600080fd5b61039061038b366004614007565b610937565b60405190151581526020015b60405180910390f35b6103b4670de0b6b3a764000081565b60405190815260200161039c565b6103e96103d0366004614046565b600a602052600090815260409020805460019091015482565b6040805192835260208301919091520161039c565b6103b4600d5481565b6103b4610415366004614063565b6000908152600160208190526040909120015490565b61043e61043936600461407c565b6109af565b005b61043e61044e366004614046565b6109db565b61043e61046136600461407c565b610bfa565b6103b4606381565b6103b460055481565b61043e610485366004614046565b610c8b565b61043e610ca0565b61043e6104a0366004614133565b610d5f565b61043e610d74565b6103b4600b5481565b6103e9610d8b565b61043e610e48565b61043e6104d43660046141c6565b6110fc565b60035460ff16610390565b600c546104f7906001600160a01b031681565b6040516001600160a01b03909116815260200161039c565b6103b461051d366004614046565b6001600160a01b03166000908152600a602052604090205490565b6003546104f79061010090046001600160a01b031681565b6105777f000000000000000000000000000000000000000000000000000000000000000081565b60405167ffffffffffffffff909116815260200161039c565b6103b47fb165298935924f540e4181c03493a5d686c54a0aaeb3f6216de85b7ffbba773881565b61057762dd7c0081565b61043e6105cf36600461422d565b6111d9565b61043e6105e23660046142b0565b61126f565b61043e611303565b6106466105fd366004614046565b600060208190529081526040902080546001909101546001600160a01b0382169160ff600160a01b8204811692600160a81b9092041690600f81810b91600160801b9004900b85565b604080516001600160a01b03909616865260ff94851660208701529390921692840192909252600f91820b6060840152900b608082015260a00161039c565b61039061069336600461407c565b60009182526001602090815260408084206001600160a01b0393909316845291905290205460ff1690565b61043e6106cc366004614305565b611317565b60035461010090046001600160a01b03166104f7565b61043e6106f5366004614046565b6115b7565b6105776212750081565b61043e6107123660046141c6565b61172b565b6103b4600081565b600e5461072d9061ffff1681565b60405161ffff909116815260200161039c565b6006546104f7906001600160a01b031681565b6007546104f7906001600160a01b031681565b61043e6107743660046141c6565b61180a565b6107b8610787366004614063565b600960205260009081526040902080546001820154600283015460039093015491926001600160a01b039091169184565b604080519485526001600160a01b03909316602085015291830152606082015260800161039c565b6107f36107ee366004614046565b6118b9565b6040805193845260208401929092529082015260600161039c565b6103b461197f565b6103b47f1597bc5e34ff090612f53164e4e642d2ab4fc78bffe19ed1b602a0d12559561a81565b6103b46119c2565b61043e61085336600461407c565b611b3c565b600c5461072d90600160a01b900461ffff1681565b61043e61087b3660046142b0565b611b63565b61043e61088e3660046142b0565b611bed565b6103b460045481565b61043e6108aa366004614046565b611c75565b6103b46108bd366004614046565b6001600160a01b03166000908152600a602052604090206001015490565b6103b47ffaf9b26485088dee58863e57c46603d6cdcbadc7475ac6d8910fab0ecf60309581565b61091561091036600461433a565b611d38565b60405161039c9190614375565b60035461072d90600160a81b900461ffff1681565b60006001600160e01b031982167fa00d912c00000000000000000000000000000000000000000000000000000000148061099a57506001600160e01b031982167f9a89fb7900000000000000000000000000000000000000000000000000000000145b806109a957506109a98261211a565b92915050565b600082815260016020819052604090912001546109cc8133612181565b6109d68383612201565b505050565b7ffaf9b26485088dee58863e57c46603d6cdcbadc7475ac6d8910fab0ecf603095610a068133612181565b6001600160a01b038216610a2d57604051634f08b3f360e11b815260040160405180910390fd5b306001600160a01b0316826001600160a01b031663fbfa77cf6040518163ffffffff1660e01b8152600401602060405180830381865afa158015610a75573d6000803e3d6000fd5b505050506040513d601f19601f82011682018060405250810190610a9991906143b9565b6001600160a01b031614610ad9576040517f0251bab500000000000000000000000000000000000000000000000000000000815260040160405180910390fd5b6006546001600160a01b031615801590610b6b5750600660009054906101000a90046001600160a01b03166001600160a01b0316635be9b2d36040518163ffffffff1660e01b8152600401602060405180830381865afa158015610b41573d6000803e3d6000fd5b505050506040513d601f19601f82011682018060405250810190610b6591906143d6565b15156001145b15610ba2576040517fd28a9fdb00000000000000000000000000000000000000000000000000000000815260040160405180910390fd5b6006805473ffffffffffffffffffffffffffffffffffffffff19166001600160a01b0384169081179091556040517f4da9c22c924692646a21cf1f423781ae3285198dc22e8a6912835d3272b90b3c90600090a25050565b6001600160a01b0381163314610c7d5760405162461bcd60e51b815260206004820152602f60248201527f416363657373436f6e74726f6c3a2063616e206f6e6c792072656e6f756e636560448201527f20726f6c657320666f722073656c66000000000000000000000000000000000060648201526084015b60405180910390fd5b610c878282612288565b5050565b6000610c978133612181565b610c878261230b565b7fb165298935924f540e4181c03493a5d686c54a0aaeb3f6216de85b7ffbba7738610ccb8133612181565b600d5480610d05576040517f0a33934000000000000000000000000000000000000000000000000000000000815260040160405180910390fd5b6000600d556040518181527fb7eeacba6b133788365610e83d3f130d07b6ef6e78877961f25b3f61fcba07529060200160405180910390a1600c54600354610c87916001600160a01b0361010090920482169116836123df565b6000610d6b8133612181565b610c8782612428565b6000610d808133612181565b610d8861283c565b50565b60065460009081906001600160a01b0316610da95750600091829150565b600354610dc990600160a81b900461ffff16610dc36119c2565b906128d8565b9150600660009054906101000a90046001600160a01b03166001600160a01b0316634ad0b6846040518163ffffffff1660e01b8152600401602060405180830381865afa158015610e1e573d6000803e3d6000fd5b505050506040513d601f19601f82011682018060405250810190610e4291906143f8565b90509091565b7fb165298935924f540e4181c03493a5d686c54a0aaeb3f6216de85b7ffbba7738610e738133612181565b6006546001600160a01b0316610e9c57604051634f08b3f360e11b815260040160405180910390fd5b600080610ea7610d8b565b9150915080821415610ee5576040517ff096593000000000000000000000000000000000000000000000000000000000815260040160405180910390fd5b81811115610ff2576000610ef98383614427565b90507f0000000000000000000000000000000000000000000000000000000000000000811015610f3c57604051630e33bdb760e11b815260040160405180910390fd5b6006546040517fce8c42e8000000000000000000000000000000000000000000000000000000008152600481018390526001600160a01b039091169063ce8c42e890602401600060405180830381600087803b158015610f9b57600080fd5b505af1158015610faf573d6000803e3d6000fd5b505050507ff7e72e2f53a982a67fc999c00edfd87a94bdf99e5031c74851276cfd65b0bd2981604051610fe491815260200190565b60405180910390a150505050565b6000610ffe8284614427565b90507f000000000000000000000000000000000000000000000000000000000000000081101561104157604051630e33bdb760e11b815260040160405180910390fd5b600654600354611063916001600160a01b0361010090920482169116836123df565b600660009054906101000a90046001600160a01b03166001600160a01b031663e8b5e51f6040518163ffffffff1660e01b8152600401600060405180830381600087803b1580156110b357600080fd5b505af11580156110c7573d6000803e3d6000fd5b505050507fac9f7997c30b6a3cc9c74953898b5de154359339c7ec0d6d70ceb98e55db1a4b81604051610fe491815260200190565b7ffaf9b26485088dee58863e57c46603d6cdcbadc7475ac6d8910fab0ecf6030956111278133612181565b61ffff82166127101015611167576040517fd25b1e4b00000000000000000000000000000000000000000000000000000000815260040160405180910390fd5b600c80547fffffffffffffffffffff0000ffffffffffffffffffffffffffffffffffffffff16600160a01b61ffff8516908102919091179091556040519081527f16de0efbdf16c568a60b65978ed774bba4e0c179de55ab8f639527e41fd0c861906020015b60405180910390a15050565b60028054141561122b5760405162461bcd60e51b815260206004820152601f60248201527f5265656e7472616e637947756172643a207265656e7472616e742063616c6c006044820152606401610c74565b600280556001600160a01b0385166112565760405163f95106ab60e01b815260040160405180910390fd5b61126385858585856128f5565b50506001600255505050565b6002805414156112c15760405162461bcd60e51b815260206004820152601f60248201527f5265656e7472616e637947756172643a207265656e7472616e742063616c6c006044820152606401610c74565b600280556001600160a01b0383166112ec5760405163f95106ab60e01b815260040160405180910390fd5b6112f98383836000612a14565b5050600160025550565b600061130f8133612181565b610d88612ace565b6002805414156113695760405162461bcd60e51b815260206004820152601f60248201527f5265656e7472616e637947756172643a207265656e7472616e742063616c6c006044820152606401610c74565b600280557f1597bc5e34ff090612f53164e4e642d2ab4fc78bffe19ed1b602a0d12559561a6113988133612181565b60035460ff16156113de5760405162461bcd60e51b815260206004820152601060248201526f14185d5cd8589b194e881c185d5cd95960821b6044820152606401610c74565b82611415576040517ff712805800000000000000000000000000000000000000000000000000000000815260040160405180910390fd5b62127500821080611428575062dd7c0082115b1561144657604051636235acd960e01b815260040160405180910390fd5b6000611452428461443e565b6007546040516335313c2160e11b81523360048201529192506000916001600160a01b0390911690636a627842906024016020604051808303816000875af11580156114a2573d6000803e3d6000fd5b505050506040513d601f19601f820116820180604052508101906114c691906143f8565b90506114d3338787612b49565b60006114df8787612c81565b6040805160808101825282815260006020808301828152838501898152606085018481528985526009909352948320935184555160018401805473ffffffffffffffffffffffffffffffffffffffff19166001600160a01b0390921691909117905592516002830155915160039091015560048054929350839290919061156790849061443e565b90915550506040805182815260208101859052339184917f7ca3497675c6d3ec00b1edc13b8e0b06169ee96a663ab25a74af7da53378f09e910160405180910390a3505060016002555050505050565b6002805414156116095760405162461bcd60e51b815260206004820152601f60248201527f5265656e7472616e637947756172643a207265656e7472616e742063616c6c006044820152606401610c74565b600280556001600160a01b0381166116345760405163f95106ab60e01b815260040160405180910390fd5b6000806000611642336118b9565b925092509250826000141561165957505050611723565b80600d600082825461166b919061443e565b909155505060035461168c9061010090046001600160a01b031685856123df565b336000908152600a6020526040812060010180548492906116ae908490614427565b9250508190555081600560008282546116c79190614427565b90915550506040805133815260208101859052908101839052606081018290526001600160a01b038516907ffa22d6d2516c29580a099aeb9e2139fab5b3c85f2480f1f6942e891c41227bb29060800160405180910390a25050505b506001600255565b7ffaf9b26485088dee58863e57c46603d6cdcbadc7475ac6d8910fab0ecf6030956117568133612181565b61ffff82166127101015611796576040517f870e44a300000000000000000000000000000000000000000000000000000000815260040160405180910390fd5b60405161ffff831681527f40775ca73a6e168d23747bc0200694cf7c99ad2db624d04c095cb59899011a569060200160405180910390a1506003805461ffff909216600160a81b027fffffffffffffffffff0000ffffffffffffffffffffffffffffffffffffffffff909216919091179055565b7ffaf9b26485088dee58863e57c46603d6cdcbadc7475ac6d8910fab0ecf6030956118358133612181565b61ffff82166127101015611875576040517ff510aa5100000000000000000000000000000000000000000000000000000000815260040160405180910390fd5b600e805461ffff191661ffff84169081179091556040519081527f6d570506e60babca07baff6cf76452a48224e8d5a770f781df3f1ff2b62abc5b906020016111cd565b6001600160a01b0381166000908152600a60205260408120805460019091015460055483928392909183906118f79083906118f261197f565b612e3e565b9050828111611913576000806000955095509550505050611978565b600061191f8483614427565b90506119358160055461193061197f565b612e76565b95506000611948876005546118f261197f565b600c54909150611964908290600160a01b900461ffff166128d8565b95506119708682614427565b975050505050505b9193909250565b60008061198a6119c2565b90506000600d5460045461199e919061443e565b9050818111156119b15760009250505090565b6119bb8183614427565b9250505090565b6006546000906001600160a01b031615611acc57600660009054906101000a90046001600160a01b03166001600160a01b0316634ad0b6846040518163ffffffff1660e01b8152600401602060405180830381865afa158015611a29573d6000803e3d6000fd5b505050506040513d601f19601f82011682018060405250810190611a4d91906143f8565b6003546040516370a0823160e01b81523060048201526101009091046001600160a01b0316906370a0823190602401602060405180830381865afa158015611a99573d6000803e3d6000fd5b505050506040513d601f19601f82011682018060405250810190611abd91906143f8565b611ac7919061443e565b905090565b6003546040516370a0823160e01b81523060048201526101009091046001600160a01b0316906370a0823190602401602060405180830381865afa158015611b18573d6000803e3d6000fd5b505050506040513d601f19601f82011682018060405250810190611ac791906143f8565b60008281526001602081905260409091200154611b598133612181565b6109d68383612288565b600280541415611bb55760405162461bcd60e51b815260206004820152601f60248201527f5265656e7472616e637947756172643a207265656e7472616e742063616c6c006044820152606401610c74565b600280556001600160a01b038316611be05760405163f95106ab60e01b815260040160405180910390fd5b6112f98383836001612a14565b600280541415611c3f5760405162461bcd60e51b815260206004820152601f60248201527f5265656e7472616e637947756172643a207265656e7472616e742063616c6c006044820152606401610c74565b600280556001600160a01b038316611c6a5760405163f95106ab60e01b815260040160405180910390fd5b6112f9838383612ee5565b7ffaf9b26485088dee58863e57c46603d6cdcbadc7475ac6d8910fab0ecf603095611ca08133612181565b6001600160a01b038216611ce0576040517f6b5e63d200000000000000000000000000000000000000000000000000000000815260040160405180910390fd5b600c805473ffffffffffffffffffffffffffffffffffffffff19166001600160a01b0384169081179091556040517f7dae230f18360d76a040c81f050aa14eb9d6dc7901b20fc5d855e2a20fe814d190600090a25050565b6060600280541415611d8c5760405162461bcd60e51b815260206004820152601f60248201527f5265656e7472616e637947756172643a207265656e7472616e742063616c6c006044820152606401610c74565b6002805560035460ff1615611dd65760405162461bcd60e51b815260206004820152601060248201526f14185d5cd8589b194e881c185d5cd95960821b6044820152606401610c74565b6040820135611e11576040517fab59997c00000000000000000000000000000000000000000000000000000000815260040160405180910390fd5b67ffffffffffffffff7f000000000000000000000000000000000000000000000000000000000000000016611e4c6040840160208501614456565b67ffffffffffffffff161080611e7d575062dd7c00611e716040840160208501614456565b67ffffffffffffffff16115b15611e9b57604051636235acd960e01b815260040160405180910390fd5b6000611ea8600b546131b4565b90506000611eb461197f565b905080821115611ef0576040517f08063cab00000000000000000000000000000000000000000000000000000000815260040160405180910390fd5b611f0b33611f016020870187614046565b8660400135612b49565b6000611f27611f1d6020870187614046565b8660400135612c81565b9050600042611f3c6040880160208901614456565b611f469190614480565b9050611f6d838383611f5b60608b018b6144ac565b611f6860808d018d6144f6565b6131d3565b60016002559695505050505050565b612710101590565b801580611ffe5750604051636eb1769f60e11b81523060048201526001600160a01b03838116602483015284169063dd62ed3e90604401602060405180830381865afa158015611fd8573d6000803e3d6000fd5b505050506040513d601f19601f82011682018060405250810190611ffc91906143f8565b155b6120705760405162461bcd60e51b815260206004820152603660248201527f5361666545524332303a20617070726f76652066726f6d206e6f6e2d7a65726f60448201527f20746f206e6f6e2d7a65726f20616c6c6f77616e6365000000000000000000006064820152608401610c74565b6040516001600160a01b0383166024820152604481018290526109d69084907f095ea7b300000000000000000000000000000000000000000000000000000000906064015b60408051601f198184030181529190526020810180517bffffffffffffffffffffffffffffffffffffffffffffffffffffffff166001600160e01b0319909316929092179091526133f6565b606061211084846000856134db565b90505b9392505050565b60006001600160e01b031982167f7965db0b0000000000000000000000000000000000000000000000000000000014806109a957507f01ffc9a7000000000000000000000000000000000000000000000000000000006001600160e01b03198316146109a9565b60008281526001602090815260408083206001600160a01b038516845290915290205460ff16610c87576121bf816001600160a01b0316601461361a565b6121ca83602061361a565b6040516020016121db929190614569565b60408051601f198184030181529082905262461bcd60e51b8252610c7491600401614616565b60008281526001602090815260408083206001600160a01b038516845290915290205460ff16610c875760008281526001602081815260408084206001600160a01b0386168086529252808420805460ff19169093179092559051339285917f2f8788117e7eff1d82e926ec794901d17c78024a50270940304540a733656f0d9190a45050565b60008281526001602090815260408083206001600160a01b038516845290915290205460ff1615610c875760008281526001602090815260408083206001600160a01b0385168085529252808320805460ff1916905551339285917ff6391f5c32d9c69d2a47ea670b442974b53935d1edc7fd64eb21e047a839171b9190a45050565b6001600160a01b03818116600090815260208190526040902054166123725760405162461bcd60e51b815260206004820152601360248201527f706f6f6c20646f6573206e6f74206578697374000000000000000000000000006044820152606401610c74565b6001600160a01b03811660008181526020819052604080822080547fffffffffffffffffffff00000000000000000000000000000000000000000000168155600101829055517f94be23730c4398d20227f4e457cf92307b13e5956f2a958e2e368ad44e2f826b9190a250565b6040516001600160a01b0383166024820152604481018290526109d69084907fa9059cbb00000000000000000000000000000000000000000000000000000000906064016120b5565b80516001600160a01b0390811660009081526020819052604090205416156124925760405162461bcd60e51b815260206004820152601d60248201527f746f6b656e20616c7265616479206861732061207377617020706f6f6c0000006044820152606401610c74565b60035461010090046001600160a01b03166001600160a01b031681602001516001600160a01b031663c661065783606001516fffffffffffffffffffffffffffffffff166040518263ffffffff1660e01b81526004016124f491815260200190565b602060405180830381865afa158015612511573d6000803e3d6000fd5b505050506040513d601f19601f8201168201806040525081019061253591906143b9565b6001600160a01b0316146125b15760405162461bcd60e51b815260206004820152602c60248201527f5f756e6465726c79696e674920646f6573206e6f74206d6174636820756e646560448201527f726c79696e6720746f6b656e00000000000000000000000000000000000000006064820152608401610c74565b600081600001516001600160a01b031663313ce5676040518163ffffffff1660e01b8152600401602060405180830381865afa1580156125f5573d6000803e3d6000fd5b505050506040513d601f19601f820116820180604052508101906126199190614629565b60ff16905060006126386003546001600160a01b036101009091041690565b6001600160a01b031663313ce5676040518163ffffffff1660e01b8152600401602060405180830381865afa158015612675573d6000803e3d6000fd5b505050506040513d601f19601f820116820180604052508101906126999190614629565b6040805160a0810182526020808701516001600160a01b03908116835260ff8781168385019081529581168486018181528a870151600f90810b60608089019182528d015190910b608088019081528c5186166000908152968790529790952095518654985191518416600160a81b027fffffffffffffffffffff00ffffffffffffffffffffffffffffffffffffffffff92909416600160a01b027fffffffffffffffffffffff00000000000000000000000000000000000000000090991694169390931796909617919091161782555191516fffffffffffffffffffffffffffffffff908116600160801b0292169190911760019091015590506127b96127af6003546001600160a01b036101009091041690565b84602001516137fb565b6127cb836000015184602001516137fb565b82602001516001600160a01b031683600001516001600160a01b03167f1576b5fcfa863788d9ef6558cab7aa68d4b48c44eb7bacaf1a8ac6d6b9d26f948560400151866060015160405161282f929190600f92830b8152910b602082015260400190565b60405180910390a3505050565b60035460ff1661288e5760405162461bcd60e51b815260206004820152601460248201527f5061757361626c653a206e6f74207061757365640000000000000000000000006044820152606401610c74565b6003805460ff191690557f5db9ee0a495bf2e6ff9c91a7834c1ba4fdd244a5e8aa4e537bd38aeae4b073aa335b6040516001600160a01b03909116815260200160405180910390a1565b60006127106128eb61ffff84168561464c565b612113919061466b565b600554600061290261197f565b9050600085815b818110156129ec57600960008a8a848181106129275761292761468d565b905060200201358152602001908152602001600020600001548787838181106129525761295261468d565b905060200201351115612991576040517fab37226a00000000000000000000000000000000000000000000000000000000815260040160405180910390fd5b6129d08989838181106129a6576129a661468d565b9050602002013586868d60008c8c888181106129c4576129c461468d565b9050602002013561388c565b6129da908461443e565b92506129e5816146a3565b9050612909565b50600354612a099061010090046001600160a01b03168a846123df565b505050505050505050565b6005546000612a2161197f565b9050600084815b81811015612aa7576000600960008a8a85818110612a4857612a4861468d565b905060200201358152602001908152602001600020600001549050612a89898984818110612a7857612a7861468d565b9050602002013587878d8b8661388c565b612a93908561443e565b93505080612aa0906146a3565b9050612a28565b50600354612ac49061010090046001600160a01b031689846123df565b5050505050505050565b60035460ff1615612b145760405162461bcd60e51b815260206004820152601060248201526f14185d5cd8589b194e881c185d5cd95960821b6044820152606401610c74565b6003805460ff191660011790557f62e78cea01bee320cd4e420270b5ea74000d11b0c9f74754ebdbfc544b05a2586128bb3390565b6040516370a0823160e01b81523060048201526000906001600160a01b038416906370a0823190602401602060405180830381865afa158015612b90573d6000803e3d6000fd5b505050506040513d601f19601f82011682018060405250810190612bb491906143f8565b9050612bcb6001600160a01b038416853085613ce2565b6040516370a0823160e01b81523060048201526000906001600160a01b038516906370a0823190602401602060405180830381865afa158015612c12573d6000803e3d6000fd5b505050506040513d601f19601f82011682018060405250810190612c3691906143f8565b9050612c42838361443e565b8114612c7a576040517f2a25a38b00000000000000000000000000000000000000000000000000000000815260040160405180910390fd5b5050505050565b6003546000906001600160a01b03848116610100909204161415612ca65750806109a9565b6001600160a01b0380841660009081526020819052604090208054909116612d105760405162461bcd60e51b815260206004820152601660248201527f6e6f6e2d6578697374696e67207377617020706f6f6c000000000000000000006044820152606401610c74565b8054600090612d3490859060ff600160a01b8204811691600160a81b900416613d39565b825460018401546040517fa6417ed6000000000000000000000000000000000000000000000000000000008152600f82810b6004830152600160801b90920490910b602482015260448101879052606481018390529192506001600160a01b03169063a6417ed6906084016020604051808303816000875af1158015612dbe573d6000803e3d6000fd5b505050506040513d601f19601f82011682018060405250810190612de291906143f8565b60035460408051878152602081018490529295506001600160a01b03610100909204821692918816917ffa2dda1cc1b86e41239702756b13effbc1a092b5c57e3ad320fbe4f3b13fe235910160405180910390a3505092915050565b6000831580612e4b575082155b80612e54575081155b15612e6157506000612113565b82612e6c858461464c565b612110919061466b565b600083612e8557506000612113565b82612ea357612e9c670de0b6b3a76400008561464c565b9050612113565b81612eda576040517ff91b6e7b00000000000000000000000000000000000000000000000000000000815260040160405180910390fd5b81612e6c848661464c565b600081815b818160ff16101561313657600085858360ff16818110612f0c57612f0c61468d565b60209081029290920135600081815260098452604080822081516080810183528154815260018201546001600160a01b039081169782018890526002830154828501819052600390930154606083015260075493516331a9108f60e11b81526004810187905295985090969195509093911690636352211e90602401602060405180830381865afa158015612fa5573d6000803e3d6000fd5b505050506040513d601f19601f82011682018060405250810190612fc991906143b9565b84519091506001600160a01b0382163314613010576040517f5040aaa300000000000000000000000000000000000000000000000000000000815260040160405180910390fd5b4284111561304a576040517f4cf1715e00000000000000000000000000000000000000000000000000000000815260040160405180910390fd5b6001600160a01b0383161561308b576040517f6f15ccf800000000000000000000000000000000000000000000000000000000815260040160405180910390fd5b613095818a61443e565b600754604051630852cd8d60e31b815260048101899052919a506001600160a01b0316906342966c6890602401600060405180830381600087803b1580156130dc57600080fd5b505af11580156130f0573d6000803e3d6000fd5b50506040518892507f05394e48d744e4a16d65f52f88cdaf0f60f5d18af259df878d44cb80826d221f9150600090a25050505050508061312f906146be565b9050612eea565b50816131406119c2565b811115613179576040517fbf08573200000000000000000000000000000000000000000000000000000000815260040160405180910390fd5b826004600082825461318b9190614427565b90915550506003546131ac9061010090046001600160a01b031687836123df565b505050505050565b600e546000906131c990839061ffff166128d8565b6109a99083614427565b6040805160c08101825260055481526020810189905260085491810191909152600060608281018290526080830182905260a0830186905291908567ffffffffffffffff811115613226576132266140ac565b60405190808252806020026020018201604052801561324f578160200160208202803683370190505b50905060005b8260a001518110156133895760008888838181106132755761327561468d565b905060200281019061328791906146de565b613290906146fe565b805190915061ffff166132cf576040517f4f287e5000000000000000000000000000000000000000000000000000000000815260040160405180910390fd5b600060018560a001516132e29190614427565b83146132fa5781516132f5908d906128d8565b613309565b6080850151613309908d614427565b90506133278560400151828d8589600001518a602001518e8e613d71565b8484815181106133395761333961468d565b602090810291909101015281516060860180516133579083906147be565b61ffff1690525060808501805182919061337290839061443e565b90525061338291508290506146a3565b9050613255565b5061339d826060015161ffff166127101490565b6133d3576040517fd7b03e8400000000000000000000000000000000000000000000000000000000815260040160405180910390fd5b600880549060006133e3836146a3565b90915550909a9950505050505050505050565b600061344b826040518060400160405280602081526020017f5361666545524332303a206c6f772d6c6576656c2063616c6c206661696c6564815250856001600160a01b03166121019092919063ffffffff16565b8051909150156109d6578080602001905181019061346991906143d6565b6109d65760405162461bcd60e51b815260206004820152602a60248201527f5361666545524332303a204552433230206f7065726174696f6e20646964206e60448201527f6f742073756363656564000000000000000000000000000000000000000000006064820152608401610c74565b6060824710156135535760405162461bcd60e51b815260206004820152602660248201527f416464726573733a20696e73756666696369656e742062616c616e636520666f60448201527f722063616c6c00000000000000000000000000000000000000000000000000006064820152608401610c74565b843b6135a15760405162461bcd60e51b815260206004820152601d60248201527f416464726573733a2063616c6c20746f206e6f6e2d636f6e74726163740000006044820152606401610c74565b600080866001600160a01b031685876040516135bd91906147db565b60006040518083038185875af1925050503d80600081146135fa576040519150601f19603f3d011682016040523d82523d6000602084013e6135ff565b606091505b509150915061360f828286613fce565b979650505050505050565b6060600061362983600261464c565b61363490600261443e565b67ffffffffffffffff81111561364c5761364c6140ac565b6040519080825280601f01601f191660200182016040528015613676576020820181803683370190505b5090507f3000000000000000000000000000000000000000000000000000000000000000816000815181106136ad576136ad61468d565b60200101906001600160f81b031916908160001a9053507f7800000000000000000000000000000000000000000000000000000000000000816001815181106136f8576136f861468d565b60200101906001600160f81b031916908160001a905350600061371c84600261464c565b61372790600161443e565b90505b60018111156137ac577f303132333435363738396162636465660000000000000000000000000000000085600f16601081106137685761376861468d565b1a60f81b82828151811061377e5761377e61468d565b60200101906001600160f81b031916908160001a90535060049490941c936137a5816147ed565b905061372a565b5083156121135760405162461bcd60e51b815260206004820181905260248201527f537472696e67733a20686578206c656e67746820696e73756666696369656e746044820152606401610c74565b604051636eb1769f60e11b81523060048201526001600160a01b0382811660248301526000919084169063dd62ed3e90604401602060405180830381865afa15801561384b573d6000803e3d6000fd5b505050506040513d601f19601f8201168201806040525081019061386f91906143f8565b9050806109d6576109d66001600160a01b03841683600019611f84565b6007546040516331a9108f60e11b81526004810188905260009133916001600160a01b0390911690636352211e90602401602060405180830381865afa1580156138da573d6000803e3d6000fd5b505050506040513d601f19601f820116820180604052508101906138fe91906143b9565b6001600160a01b03161461393e576040517fff40736100000000000000000000000000000000000000000000000000000000815260040160405180910390fd5b60008781526009602090815260408083208151608081018352815481526001808301546001600160a01b0316828601819052600284015483860190815260039094015460608401528652600a855294839020835180850190945280548452909401549282019290925290514210156139e2576040517f0f6268c200000000000000000000000000000000000000000000000000000000815260040160405180910390fd5b60208201516001600160a01b0316613a26576040517fde8b700400000000000000000000000000000000000000000000000000000000815260040160405180910390fd5b815180851490600090613a3a908b8b612e76565b9050600082613a5357613a4e878c8c612e76565b613a55565b815b905060008560600151831180613a6e5750846020015183115b9050838015613a7a5750885b8015613a835750805b15613aaa5784516020860151613a99908a61464c565b613aa3919061466b565b9150613ae2565b8015613ae2576040517fb79a3bc200000000000000000000000000000000000000000000000000000000815260040160405180910390fd5b6020808701516001600160a01b03166000908152600a909152604081206001018054849290613b12908490614427565b90915550506020808701516001600160a01b03166000908152600a9091526040812080548a9290613b44908490614427565b925050819055508160056000828254613b5d9190614427565b9250508190555087600b6000828254613b769190614427565b90915550508315613c1f57600754604051630852cd8d60e31b8152600481018f90526001600160a01b03909116906342966c6890602401600060405180830381600087803b158015613bc757600080fd5b505af1158015613bdb573d6000803e3d6000fd5b50505060008e815260096020526040812081815560018101805473ffffffffffffffffffffffffffffffffffffffff19169055600281018290556003015550613c69565b60008d81526009602052604081206003018054849290613c40908490614427565b909155505060008d815260096020526040812080548a9290613c63908490614427565b90915550505b6000613c76838e8e612e3e565b90508a6001600160a01b03168e7f14e79002ce0df3ba4381425c583d4c9984c7e2910d3e7e088377db997773153e858489604051613cc99392919092835260208301919091521515604082015260600190565b60405180910390a39d9c50505050505050505050505050565b6040516001600160a01b0380851660248301528316604482015260648101829052613d339085907f23b872dd00000000000000000000000000000000000000000000000000000000906084016120b5565b50505050565b6000613d4683600a6148e8565b613d5190606461464c565b613d5c83600a6148e8565b613d6760638761464c565b612e6c919061464c565b6000806040518060600160405280613d8a8b8989612e76565b81526020898101516001600160a01b0390811691830191909152600754604080516335313c2160e11b8152336004820152930192911690636a627842906024016020604051808303816000875af1158015613de9573d6000803e3d6000fd5b505050506040513d601f19601f82011682018060405250810190613e0d91906143f8565b905280516020808301516001600160a01b03166000908152600a9091526040812060010180549394509192613e4390849061443e565b90915550506020808201516001600160a01b03166000908152600a9091526040812080548b9290613e7590849061443e565b9091555050805160058054600090613e8e90849061443e565b9250508190555088600b6000828254613ea7919061443e565b9250508190555060405180608001604052808a815260200182602001516001600160a01b031681526020018967ffffffffffffffff168152602001826000015181525060096000836040015181526020019081526020016000206000820151816000015560208201518160010160006101000a8154816001600160a01b0302191690836001600160a01b03160217905550604082015181600201556060820151816003015590505086602001516001600160a01b0316336001600160a01b031682604001517fb26a67c96199378f459c394f9a442f1a94d19837d1ac17c14e3d6366d98223088d8d866000015187602001518f8f604001518d8d604051613fb59897969594939291906148f7565b60405180910390a4604001519998505050505050505050565b60608315613fdd575081612113565b825115613fed5782518084602001fd5b8160405162461bcd60e51b8152600401610c749190614616565b60006020828403121561401957600080fd5b81356001600160e01b03198116811461211357600080fd5b6001600160a01b0381168114610d8857600080fd5b60006020828403121561405857600080fd5b813561211381614031565b60006020828403121561407557600080fd5b5035919050565b6000806040838503121561408f57600080fd5b8235915060208301356140a181614031565b809150509250929050565b634e487b7160e01b600052604160045260246000fd5b6040516060810167ffffffffffffffff811182821017156140e5576140e56140ac565b60405290565b604051601f8201601f1916810167ffffffffffffffff81118282101715614114576141146140ac565b604052919050565b8035600f81900b811461412e57600080fd5b919050565b60006080828403121561414557600080fd5b6040516080810181811067ffffffffffffffff82111715614168576141686140ac565b604052823561417681614031565b8152602083013561418681614031565b60208201526141976040840161411c565b60408201526141a86060840161411c565b60608201529392505050565b803561ffff8116811461412e57600080fd5b6000602082840312156141d857600080fd5b612113826141b4565b60008083601f8401126141f357600080fd5b50813567ffffffffffffffff81111561420b57600080fd5b6020830191508360208260051b850101111561422657600080fd5b9250929050565b60008060008060006060868803121561424557600080fd5b853561425081614031565b9450602086013567ffffffffffffffff8082111561426d57600080fd5b61427989838a016141e1565b9096509450604088013591508082111561429257600080fd5b5061429f888289016141e1565b969995985093965092949392505050565b6000806000604084860312156142c557600080fd5b83356142d081614031565b9250602084013567ffffffffffffffff8111156142ec57600080fd5b6142f8868287016141e1565b9497909650939450505050565b60008060006060848603121561431a57600080fd5b833561432581614031565b95602085013595506040909401359392505050565b60006020828403121561434c57600080fd5b813567ffffffffffffffff81111561436357600080fd5b820160a0818503121561211357600080fd5b6020808252825182820181905260009190848201906040850190845b818110156143ad57835183529284019291840191600101614391565b50909695505050505050565b6000602082840312156143cb57600080fd5b815161211381614031565b6000602082840312156143e857600080fd5b8151801515811461211357600080fd5b60006020828403121561440a57600080fd5b5051919050565b634e487b7160e01b600052601160045260246000fd5b60008282101561443957614439614411565b500390565b6000821982111561445157614451614411565b500190565b60006020828403121561446857600080fd5b813567ffffffffffffffff8116811461211357600080fd5b600067ffffffffffffffff8083168185168083038211156144a3576144a3614411565b01949350505050565b6000808335601e198436030181126144c357600080fd5b83018035915067ffffffffffffffff8211156144de57600080fd5b6020019150600581901b360382131561422657600080fd5b6000808335601e1984360301811261450d57600080fd5b83018035915067ffffffffffffffff82111561452857600080fd5b60200191503681900382131561422657600080fd5b60005b83811015614558578181015183820152602001614540565b83811115613d335750506000910152565b7f416363657373436f6e74726f6c3a206163636f756e74200000000000000000008152600083516145a181601785016020880161453d565b7f206973206d697373696e6720726f6c652000000000000000000000000000000060179184019182015283516145de81602884016020880161453d565b01602801949350505050565b6000815180845261460281602086016020860161453d565b601f01601f19169290920160200192915050565b60208152600061211360208301846145ea565b60006020828403121561463b57600080fd5b815160ff8116811461211357600080fd5b600081600019048311821515161561466657614666614411565b500290565b60008261468857634e487b7160e01b600052601260045260246000fd5b500490565b634e487b7160e01b600052603260045260246000fd5b60006000198214156146b7576146b7614411565b5060010190565b600060ff821660ff8114156146d5576146d5614411565b60010192915050565b60008235605e198336030181126146f457600080fd5b9190910192915050565b60006060823603121561471057600080fd5b6147186140c2565b614721836141b4565b815260208084013561473281614031565b82820152604084013567ffffffffffffffff8082111561475157600080fd5b9085019036601f83011261476457600080fd5b813581811115614776576147766140ac565b614788601f8201601f191685016140eb565b9150808252368482850101111561479e57600080fd5b808484018584013760009082019093019290925250604082015292915050565b600061ffff8083168185168083038211156144a3576144a3614411565b600082516146f481846020870161453d565b6000816147fc576147fc614411565b506000190190565b600181815b8085111561483f57816000190482111561482557614825614411565b8085161561483257918102915b93841c9390800290614809565b509250929050565b600082614856575060016109a9565b81614863575060006109a9565b816001811461487957600281146148835761489f565b60019150506109a9565b60ff84111561489457614894614411565b50506001821b6109a9565b5060208310610133831016604e8410600b84101617156148c2575081810a6109a9565b6148cc8383614804565b80600019048211156148e0576148e0614411565b029392505050565b600061211360ff841683614847565b8881528760208201528660408201526001600160a01b038616606082015267ffffffffffffffff8516608082015260e060a0820152600061493b60e08301866145ea565b82810360c0840152838152838560208301376000602085830101526020601f19601f860116820101915050999850505050505050505056fea2646970667358221220565abb818bd082dc782f4a99f0b4545eb5c31ea8812be58ab560470426c5555064736f6c634300080a003360806040523480156200001157600080fd5b5060405162001c8d38038062001c8d833981016040819052620000349162000149565b6040805160208082018084526000808452845192830190945283825282519293919262000063929190620000a3565b50805162000079906001906020840190620000a3565b5050600780546001600160a01b0319166001600160a01b03939093169290921790915550620001b8565b828054620000b1906200017b565b90600052602060002090601f016020900481019282620000d5576000855562000120565b82601f10620000f057805160ff191683800117855562000120565b8280016001018555821562000120579182015b828111156200012057825182559160200191906001019062000103565b506200012e92915062000132565b5090565b5b808211156200012e576000815560010162000133565b6000602082840312156200015c57600080fd5b81516001600160a01b03811681146200017457600080fd5b9392505050565b600181811c908216806200019057607f821691505b60208210811415620001b257634e487b7160e01b600052602260045260246000fd5b50919050565b611ac580620001c86000396000f3fe608060405234801561001057600080fd5b506004361061011b5760003560e01c80636352211e116100b2578063a22cb46511610081578063c87b56dd11610066578063c87b56dd1461025e578063e985e9c514610271578063fbfa77cf146102ad57600080fd5b8063a22cb46514610238578063b88d4fde1461024b57600080fd5b80636352211e146101e95780636a627842146101fc57806370a082311461021d57806395d89b411461023057600080fd5b806323b872dd116100ee57806323b872dd1461019d57806342842e0e146101b057806342966c68146101c35780634f558e79146101d657600080fd5b806301ffc9a71461012057806306fdde0314610148578063081812fc1461015d578063095ea7b314610188575b600080fd5b61013361012e36600461151d565b6102c0565b60405190151581526020015b60405180910390f35b61015061035d565b60405161013f9190611592565b61017061016b3660046115a5565b610454565b6040516001600160a01b03909116815260200161013f565b61019b6101963660046115d3565b6104ee565b005b61019b6101ab3660046115ff565b610620565b61019b6101be3660046115ff565b6106a7565b61019b6101d13660046115a5565b6106c2565b6101336101e43660046115a5565b610728565b6101706101f73660046115a5565b610747565b61020f61020a366004611640565b6107d2565b60405190815260200161013f565b61020f61022b366004611640565b610854565b6101506108ee565b61019b61024636600461165d565b6109d1565b61019b61025936600461170a565b6109e0565b61015061026c3660046115a5565b610a6e565b61013361027f3660046117b9565b6001600160a01b03918216600090815260056020908152604080832093909416825291909152205460ff1690565b600754610170906001600160a01b031681565b60006001600160e01b031982167f80ac58cd00000000000000000000000000000000000000000000000000000000148061032357506001600160e01b031982167f5b5e139f00000000000000000000000000000000000000000000000000000000145b8061035757507f01ffc9a7000000000000000000000000000000000000000000000000000000006001600160e01b03198316145b92915050565b60075460408051636f307dc360e01b815290516060926001600160a01b031691636f307dc39160048083019260209291908290030181865afa1580156103a7573d6000803e3d6000fd5b505050506040513d601f19601f820116820180604052508101906103cb91906117e7565b6001600160a01b03166306fdde036040518163ffffffff1660e01b8152600401600060405180830381865afa158015610408573d6000803e3d6000fd5b505050506040513d6000823e601f3d908101601f191682016040526104309190810190611804565b604051602001610440919061187b565b604051602081830303815290604052905090565b6000818152600260205260408120546001600160a01b03166104d25760405162461bcd60e51b815260206004820152602c60248201527f4552433732313a20617070726f76656420717565727920666f72206e6f6e657860448201526b34b9ba32b73a103a37b5b2b760a11b60648201526084015b60405180910390fd5b506000908152600460205260409020546001600160a01b031690565b60006104f982610747565b9050806001600160a01b0316836001600160a01b031614156105835760405162461bcd60e51b815260206004820152602160248201527f4552433732313a20617070726f76616c20746f2063757272656e74206f776e6560448201527f720000000000000000000000000000000000000000000000000000000000000060648201526084016104c9565b336001600160a01b038216148061059f575061059f813361027f565b6106115760405162461bcd60e51b815260206004820152603860248201527f4552433732313a20617070726f76652063616c6c6572206973206e6f74206f7760448201527f6e6572206e6f7220617070726f76656420666f7220616c6c000000000000000060648201526084016104c9565b61061b8383610b64565b505050565b61062a3382610bdf565b61069c5760405162461bcd60e51b815260206004820152603160248201527f4552433732313a207472616e736665722063616c6c6572206973206e6f74206f60448201527f776e6572206e6f7220617070726f76656400000000000000000000000000000060648201526084016104c9565b61061b838383610cd6565b61061b838383604051806020016040528060008152506109e0565b6007546001600160a01b0316331461071c5760405162461bcd60e51b815260206004820152601a60248201527f4465706f7369746f72733a206e6f7420617574686f72697a656400000000000060448201526064016104c9565b61072581610eb0565b50565b6000818152600260205260408120546001600160a01b03161515610357565b6000818152600260205260408120546001600160a01b0316806103575760405162461bcd60e51b815260206004820152602960248201527f4552433732313a206f776e657220717565727920666f72206e6f6e657869737460448201527f656e7420746f6b656e000000000000000000000000000000000000000000000060648201526084016104c9565b6007546000906001600160a01b0316331461082f5760405162461bcd60e51b815260206004820152601a60248201527f4465706f7369746f72733a206e6f7420617574686f72697a656400000000000060448201526064016104c9565b61083d600680546001019055565b600061084860065490565b90506103578382610f58565b60006001600160a01b0382166108d25760405162461bcd60e51b815260206004820152602a60248201527f4552433732313a2062616c616e636520717565727920666f7220746865207a6560448201527f726f20616464726573730000000000000000000000000000000000000000000060648201526084016104c9565b506001600160a01b031660009081526003602052604090205490565b60075460408051636f307dc360e01b815290516060926001600160a01b031691636f307dc39160048083019260209291908290030181865afa158015610938573d6000803e3d6000fd5b505050506040513d601f19601f8201168201806040525081019061095c91906117e7565b6001600160a01b03166395d89b416040518163ffffffff1660e01b8152600401600060405180830381865afa158015610999573d6000803e3d6000fd5b505050506040513d6000823e601f3d908101601f191682016040526109c19190810190611804565b60405160200161044091906118e7565b6109dc338383610f72565b5050565b6109ea3383610bdf565b610a5c5760405162461bcd60e51b815260206004820152603160248201527f4552433732313a207472616e736665722063616c6c6572206973206e6f74206f60448201527f776e6572206e6f7220617070726f76656400000000000000000000000000000060648201526084016104c9565b610a6884848484611041565b50505050565b6000818152600260205260409020546060906001600160a01b0316610afb5760405162461bcd60e51b815260206004820152602f60248201527f4552433732314d657461646174613a2055524920717565727920666f72206e6f60448201527f6e6578697374656e7420746f6b656e000000000000000000000000000000000060648201526084016104c9565b6000610b1260408051602081019091526000815290565b90506000815111610b325760405180602001604052806000815250610b5d565b80610b3c846110bf565b604051602001610b4d929190611953565b6040516020818303038152906040525b9392505050565b6000818152600460205260409020805473ffffffffffffffffffffffffffffffffffffffff19166001600160a01b0384169081179091558190610ba682610747565b6001600160a01b03167f8c5be1e5ebec7d5bd14f71427d1e84f3dd0314c0f7b2291e5b200ac8c7c3b92560405160405180910390a45050565b6000818152600260205260408120546001600160a01b0316610c585760405162461bcd60e51b815260206004820152602c60248201527f4552433732313a206f70657261746f7220717565727920666f72206e6f6e657860448201526b34b9ba32b73a103a37b5b2b760a11b60648201526084016104c9565b6000610c6383610747565b9050806001600160a01b0316846001600160a01b03161480610c9e5750836001600160a01b0316610c9384610454565b6001600160a01b0316145b80610cce57506001600160a01b0380821660009081526005602090815260408083209388168352929052205460ff165b949350505050565b826001600160a01b0316610ce982610747565b6001600160a01b031614610d655760405162461bcd60e51b815260206004820152602960248201527f4552433732313a207472616e73666572206f6620746f6b656e2074686174206960448201527f73206e6f74206f776e000000000000000000000000000000000000000000000060648201526084016104c9565b6001600160a01b038216610de05760405162461bcd60e51b8152602060048201526024808201527f4552433732313a207472616e7366657220746f20746865207a65726f2061646460448201527f726573730000000000000000000000000000000000000000000000000000000060648201526084016104c9565b610deb600082610b64565b6001600160a01b0383166000908152600360205260408120805460019290610e14908490611998565b90915550506001600160a01b0382166000908152600360205260408120805460019290610e429084906119af565b9091555050600081815260026020526040808220805473ffffffffffffffffffffffffffffffffffffffff19166001600160a01b0386811691821790925591518493918716917fddf252ad1be2c89b69c2b068fc378daa952ba7f163c4a11628f55a4df523b3ef91a4505050565b6000610ebb82610747565b9050610ec8600083610b64565b6001600160a01b0381166000908152600360205260408120805460019290610ef1908490611998565b9091555050600082815260026020526040808220805473ffffffffffffffffffffffffffffffffffffffff19169055518391906001600160a01b038416907fddf252ad1be2c89b69c2b068fc378daa952ba7f163c4a11628f55a4df523b3ef908390a45050565b6109dc8282604051806020016040528060008152506111f1565b816001600160a01b0316836001600160a01b03161415610fd45760405162461bcd60e51b815260206004820152601960248201527f4552433732313a20617070726f766520746f2063616c6c65720000000000000060448201526064016104c9565b6001600160a01b03838116600081815260056020908152604080832094871680845294825291829020805460ff191686151590811790915591519182527f17307eab39ab6107e8899845ad3d59bd9653f200f220920489ca2b5937696c31910160405180910390a3505050565b61104c848484610cd6565b6110588484848461126f565b610a685760405162461bcd60e51b815260206004820152603260248201527f4552433732313a207472616e7366657220746f206e6f6e20455243373231526560448201527131b2b4bb32b91034b6b83632b6b2b73a32b960711b60648201526084016104c9565b6060816110ff57505060408051808201909152600181527f3000000000000000000000000000000000000000000000000000000000000000602082015290565b8160005b81156111295780611113816119c7565b91506111229050600a836119f8565b9150611103565b60008167ffffffffffffffff8111156111445761114461169b565b6040519080825280601f01601f19166020018201604052801561116e576020820181803683370190505b5090505b8415610cce57611183600183611998565b9150611190600a86611a0c565b61119b9060306119af565b60f81b8183815181106111b0576111b0611a20565b60200101907effffffffffffffffffffffffffffffffffffffffffffffffffffffffffffff1916908160001a9053506111ea600a866119f8565b9450611172565b6111fb83836113b8565b611208600084848461126f565b61061b5760405162461bcd60e51b815260206004820152603260248201527f4552433732313a207472616e7366657220746f206e6f6e20455243373231526560448201527131b2b4bb32b91034b6b83632b6b2b73a32b960711b60648201526084016104c9565b60006001600160a01b0384163b156113ad57604051630a85bd0160e11b81526001600160a01b0385169063150b7a02906112b3903390899088908890600401611a36565b6020604051808303816000875af19250505080156112ee575060408051601f3d908101601f191682019092526112eb91810190611a72565b60015b611393573d80801561131c576040519150601f19603f3d011682016040523d82523d6000602084013e611321565b606091505b50805161138b5760405162461bcd60e51b815260206004820152603260248201527f4552433732313a207472616e7366657220746f206e6f6e20455243373231526560448201527131b2b4bb32b91034b6b83632b6b2b73a32b960711b60648201526084016104c9565b805181602001fd5b6001600160e01b031916630a85bd0160e11b149050610cce565b506001949350505050565b6001600160a01b03821661140e5760405162461bcd60e51b815260206004820181905260248201527f4552433732313a206d696e7420746f20746865207a65726f206164647265737360448201526064016104c9565b6000818152600260205260409020546001600160a01b0316156114735760405162461bcd60e51b815260206004820152601c60248201527f4552433732313a20746f6b656e20616c7265616479206d696e7465640000000060448201526064016104c9565b6001600160a01b038216600090815260036020526040812080546001929061149c9084906119af565b9091555050600081815260026020526040808220805473ffffffffffffffffffffffffffffffffffffffff19166001600160a01b03861690811790915590518392907fddf252ad1be2c89b69c2b068fc378daa952ba7f163c4a11628f55a4df523b3ef908290a45050565b6001600160e01b03198116811461072557600080fd5b60006020828403121561152f57600080fd5b8135610b5d81611507565b60005b8381101561155557818101518382015260200161153d565b83811115610a685750506000910152565b6000815180845261157e81602086016020860161153a565b601f01601f19169290920160200192915050565b602081526000610b5d6020830184611566565b6000602082840312156115b757600080fd5b5035919050565b6001600160a01b038116811461072557600080fd5b600080604083850312156115e657600080fd5b82356115f1816115be565b946020939093013593505050565b60008060006060848603121561161457600080fd5b833561161f816115be565b9250602084013561162f816115be565b929592945050506040919091013590565b60006020828403121561165257600080fd5b8135610b5d816115be565b6000806040838503121561167057600080fd5b823561167b816115be565b91506020830135801515811461169057600080fd5b809150509250929050565b634e487b7160e01b600052604160045260246000fd5b604051601f8201601f1916810167ffffffffffffffff811182821017156116da576116da61169b565b604052919050565b600067ffffffffffffffff8211156116fc576116fc61169b565b50601f01601f191660200190565b6000806000806080858703121561172057600080fd5b843561172b816115be565b9350602085013561173b816115be565b925060408501359150606085013567ffffffffffffffff81111561175e57600080fd5b8501601f8101871361176f57600080fd5b803561178261177d826116e2565b6116b1565b81815288602083850101111561179757600080fd5b8160208401602083013760006020838301015280935050505092959194509250565b600080604083850312156117cc57600080fd5b82356117d7816115be565b91506020830135611690816115be565b6000602082840312156117f957600080fd5b8151610b5d816115be565b60006020828403121561181657600080fd5b815167ffffffffffffffff81111561182d57600080fd5b8201601f8101841361183e57600080fd5b805161184c61177d826116e2565b81815285602083850101111561186157600080fd5b61187282602083016020860161153a565b95945050505050565b7f53616e64636c6f636b00000000000000000000000000000000000000000000008152600082516118b381600985016020870161153a565b7f202d204465706f7369746f7273000000000000000000000000000000000000006009939091019283015250601601919050565b7f51554152545a2d0000000000000000000000000000000000000000000000000081526000825161191f81600785016020870161153a565b7f2d444550000000000000000000000000000000000000000000000000000000006007939091019283015250600b01919050565b6000835161196581846020880161153a565b83519083019061197981836020880161153a565b01949350505050565b634e487b7160e01b600052601160045260246000fd5b6000828210156119aa576119aa611982565b500390565b600082198211156119c2576119c2611982565b500190565b60006000198214156119db576119db611982565b5060010190565b634e487b7160e01b600052601260045260246000fd5b600082611a0757611a076119e2565b500490565b600082611a1b57611a1b6119e2565b500690565b634e487b7160e01b600052603260045260246000fd5b60006001600160a01b03808716835280861660208401525083604083015260806060830152611a686080830184611566565b9695505050505050565b600060208284031215611a8457600080fd5b8151610b5d8161150756fea2646970667358221220687d86614f2632983ade992ab42176b7d42acd3b73cf4fa8c9bb29c695358d4f64736f6c634300080a0033",
  "devdoc": {
    "kind": "dev",
    "methods": {
      "addPool((address,address,int128,int128))": {
        "params": {
          "_param": "Swap pool params"
        }
      },
      "claimYield(address)": {
        "params": {
          "_to": "Address that will receive the yield."
        }
      },
      "constructor": {
        "params": {
          "_investPct": "Percentage of the total underlying to invest in the strategy",
          "_investmentFeeEstimatePct": "Estimated fee charged when investing through the strategy",
          "_minLockPeriod": "Minimum lock period to deposit",
          "_owner": "Vault admin address",
          "_perfFeePct": "Performance fee percentage",
          "_swapPools": "Swap pools used to automatically convert tokens to underlying",
          "_treasury": "Treasury address to collect performance fee",
          "_underlying": "Underlying ERC20 token to use."
        }
      },
      "deposit((address,uint64,uint256,(uint16,address,bytes)[],string))": {
        "params": {
          "_params": "Deposit params"
        }
      },
      "forceWithdraw(address,uint256[])": {
        "params": {
          "_ids": "Array with the ids of the deposits.",
          "_to": "Address that will receive the funds."
        }
      },
      "getRoleAdmin(bytes32)": {
        "details": "Returns the admin role that controls `role`. See {grantRole} and {revokeRole}. To change a role's admin, use {_setRoleAdmin}."
      },
      "getUnderlying()": {
        "returns": {
          "_0": "The address of the vault's main underlying token"
        }
      },
      "grantRole(bytes32,address)": {
        "details": "Grants `role` to `account`. If `account` had not been already granted `role`, emits a {RoleGranted} event. Requirements: - the caller must have ``role``'s admin role."
      },
      "hasRole(bytes32,address)": {
        "details": "Returns `true` if `account` has been granted `role`."
      },
      "investState()": {
        "returns": {
          "alreadyInvested": "already invested amount",
          "maxInvestableAmount": "maximum investable amount"
        }
      },
      "paused()": {
        "details": "Returns true if the contract is paused, and false otherwise."
      },
      "removePool(address)": {
        "params": {
          "_inputToken": "the token to remove"
        }
      },
      "renounceRole(bytes32,address)": {
        "details": "Revokes `role` from the calling account. Roles are often managed via {grantRole} and {revokeRole}: this function's purpose is to provide a mechanism for accounts to lose their privileges if they are compromised (such as when a trusted device is misplaced). If the calling account had been revoked `role`, emits a {RoleRevoked} event. Requirements: - the caller must be `account`."
      },
      "revokeRole(bytes32,address)": {
        "details": "Revokes `role` from `account`. If `account` had been granted `role`, emits a {RoleRevoked} event. Requirements: - the caller must have ``role``'s admin role."
      },
      "setInvestPct(uint16)": {
        "params": {
          "_investPct": "the new invest percentage"
        }
      },
      "setInvestmentFeeEstimatePct(uint16)": {
        "params": {
          "_pct": "the new investment fee estimated percentage."
        }
      },
      "setPerfFeePct(uint16)": {
        "params": {
          "_perfFeePct": "the new performance fee."
        }
      },
      "setStrategy(address)": {
        "params": {
          "_strategy": "the new strategy's address."
        }
      },
      "setTreasury(address)": {
        "params": {
          "_treasury": "the new strategy's address."
        }
      },
      "sponsor(address,uint256,uint256)": {
        "params": {
          "_amount": "Amount to sponsor.",
          "_inputToken": "The input token to deposit.",
          "_lockedUntil": "When the sponsor can unsponsor the amount."
        }
      },
      "totalUnderlyingMinusSponsored()": {
        "returns": {
          "_0": "Total amount of principal and yield help by the vault (not including sponsored amount and performance fee)."
        }
      },
      "unsponsor(address,uint256[])": {
        "params": {
          "_ids": "Array with the ids of the deposits.",
          "_to": "Address that will receive the funds."
        }
      },
      "withdraw(address,uint256[])": {
        "params": {
          "_ids": "Array with the ids of the deposits.",
          "_to": "Address that will receive the funds."
        }
      },
      "yieldFor(address)": {
        "params": {
          "_to": "address to consider."
        },
        "returns": {
          "claimableYield": "claimable yield for @param _to, share of generated yield by @param _to,      and performance fee from generated yield"
        }
      }
    },
    "version": 1
  },
  "userdoc": {
    "events": {
      "CurveSwapPoolAdded(address,address,int128,int128)": {
        "notice": "Emitted when a new swap pool is added"
      },
      "CurveSwapPoolRemoved(address)": {
        "notice": "Emitted when a swap pool is removed"
      },
      "Sponsored(uint256,uint256,address,uint256)": {
        "notice": "Emitted when a new sponsor deposit is created"
      },
      "Swap(address,address,uint256,uint256)": {
        "notice": "Emitted after every swap"
      },
      "Unsponsored(uint256)": {
        "notice": "Emitted when an existing sponsor withdraws"
      }
    },
    "kind": "user",
    "methods": {
      "INVESTOR_ROLE()": {
        "notice": "Role allowed to invest/desinvest from strategy"
      },
      "MAX_DEPOSIT_LOCK_DURATION()": {
        "notice": "Maximum lock for each deposit"
      },
      "MAX_SPONSOR_LOCK_DURATION()": {
        "notice": "Maximum lock for each sponsor"
      },
      "MIN_SPONSOR_LOCK_DURATION()": {
        "notice": "Minimum lock for each sponsor"
      },
      "SETTINGS_ROLE()": {
        "notice": "Role allowed to change settings such as performance fee and investment fee"
      },
      "SHARES_MULTIPLIER()": {
        "notice": "Helper constant for computing shares without losing precision"
      },
      "SLIPPAGE()": {
        "notice": "Static 95% slippage (TODO should probably make this configurable)"
      },
      "SPONSOR_ROLE()": {
        "notice": "Role for sponsors allowed to call sponsor/unsponsor"
      },
      "accumulatedPerfFee()": {
        "notice": "Current accumulated performance fee;"
      },
      "addPool((address,address,int128,int128))": {
        "notice": "Adds a new curve swap pool from an input token to {underlying}"
      },
      "claimYield(address)": {
        "notice": "Accumulate performance fee and transfers rest yield generated for the caller to"
      },
      "claimer(address)": {
        "notice": "claimer address => claimer data"
      },
      "deposit((address,uint64,uint256,(uint16,address,bytes)[],string))": {
        "notice": "Creates a new deposit"
      },
      "depositors()": {
        "notice": "Depositors, represented as an NFT per deposit"
      },
      "deposits(uint256)": {
        "notice": "deposit NFT ID => deposit data"
      },
      "investPct()": {
        "notice": "Percentage of the total underlying to invest in the strategy"
      },
      "investState()": {
        "notice": "Calculate maximum investable amount and already invested amount"
      },
      "investmentFeeEstimatePct()": {
        "notice": "Investment fee pct"
      },
      "minLockPeriod()": {
        "notice": "Minimum lock period for each deposit"
      },
      "perfFeePct()": {
        "notice": "Performance fee percentage"
      },
      "removePool(address)": {
        "notice": "Removes an existing swap pool, and the ability to deposit the given token as underlying"
      },
      "setInvestPct(uint16)": {
        "notice": "Update invest percentage Emits {InvestPercentageUpdated} event"
      },
      "setInvestmentFeeEstimatePct(uint16)": {
        "notice": "Changes the estimated investment fee used by the strategy."
      },
      "setPerfFeePct(uint16)": {
        "notice": "Changes the performance fee used by the vault."
      },
      "setStrategy(address)": {
        "notice": "Changes the strategy used by the vault.if there is invested funds in previous strategy, it is not allowed to set new strategy."
      },
      "setTreasury(address)": {
        "notice": "Changes the treasury used by the vault."
      },
      "strategy()": {
        "notice": "The investment strategy"
      },
      "swappers(address)": {
        "notice": "token => curve pool (for trading token/underlying)"
      },
      "totalPrincipal()": {
        "notice": "The total of principal deposited"
      },
      "totalShares()": {
        "notice": "Total amount of shares"
      },
      "totalSponsored()": {
        "notice": "Total amount currently sponsored"
      },
      "totalUnderlying()": {
        "notice": "Total amount of underlying currently controlled by the vault and the its strategy."
      },
      "totalUnderlyingMinusSponsored()": {
        "notice": "Computes the total amount of principal + yield currently controlled by the vault and the strategy. The principal + yield is the total amount of underlying that can be claimed or withdrawn, excluding the sponsored amount and performance fee."
      },
      "treasury()": {
        "notice": "Treasury address to collect performance fee"
      },
      "underlying()": {
        "notice": "Underlying ERC20 token accepted by the vault"
      },
      "unsponsor(address,uint256[])": {
        "notice": "Withdraws the sponsored amount for the deposits with the ids provided"
      },
      "updateInvested()": {
        "notice": "Update the invested amount;"
      },
      "withdrawPerformanceFee()": {
        "notice": "Withdraws any pending performance fee amount back to the treasury"
      },
      "yieldFor(address)": {
        "notice": "Computes the amount of yield available for an an address."
      }
    },
    "notice": "A vault where other accounts can deposit an underlying token currency and set distribution params for their principal and yieldThe underlying token can be automatically swapped from any configured ERC20 token via {CurveSwapper}",
    "version": 1
  },
  "storageLayout": {
    "storage": [
      {
        "astId": 9388,
        "contract": "contracts/Vault.sol:Vault",
        "label": "swappers",
        "offset": 0,
        "slot": "0",
        "type": "t_mapping(t_address,t_struct(Swapper)9346_storage)"
      },
      {
        "astId": 70,
        "contract": "contracts/Vault.sol:Vault",
        "label": "_roles",
        "offset": 0,
        "slot": "1",
        "type": "t_mapping(t_bytes32,t_struct(RoleData)65_storage)"
      },
      {
        "astId": 635,
        "contract": "contracts/Vault.sol:Vault",
        "label": "_status",
        "offset": 0,
        "slot": "2",
        "type": "t_uint256"
      },
      {
        "astId": 550,
        "contract": "contracts/Vault.sol:Vault",
        "label": "_paused",
        "offset": 0,
        "slot": "3",
        "type": "t_bool"
      },
      {
        "astId": 3727,
        "contract": "contracts/Vault.sol:Vault",
        "label": "underlying",
        "offset": 1,
        "slot": "3",
        "type": "t_contract(IERC20Metadata)1313"
      },
      {
        "astId": 3732,
        "contract": "contracts/Vault.sol:Vault",
        "label": "investPct",
        "offset": 21,
        "slot": "3",
        "type": "t_uint16"
      },
      {
        "astId": 3742,
        "contract": "contracts/Vault.sol:Vault",
        "label": "totalSponsored",
        "offset": 0,
        "slot": "4",
        "type": "t_uint256"
      },
      {
        "astId": 3747,
        "contract": "contracts/Vault.sol:Vault",
        "label": "totalShares",
        "offset": 0,
        "slot": "5",
        "type": "t_uint256"
      },
      {
        "astId": 3751,
        "contract": "contracts/Vault.sol:Vault",
        "label": "strategy",
        "offset": 0,
        "slot": "6",
        "type": "t_contract(IStrategy)8277"
      },
      {
        "astId": 3755,
        "contract": "contracts/Vault.sol:Vault",
        "label": "depositors",
        "offset": 0,
        "slot": "7",
        "type": "t_contract(Depositors)9930"
      },
      {
        "astId": 3758,
        "contract": "contracts/Vault.sol:Vault",
        "label": "_depositGroupIds",
        "offset": 0,
        "slot": "8",
        "type": "t_uint256"
      },
      {
        "astId": 3764,
        "contract": "contracts/Vault.sol:Vault",
        "label": "deposits",
        "offset": 0,
        "slot": "9",
        "type": "t_mapping(t_uint256,t_struct(Deposit)9967_storage)"
      },
      {
        "astId": 3770,
        "contract": "contracts/Vault.sol:Vault",
        "label": "claimer",
        "offset": 0,
        "slot": "10",
        "type": "t_mapping(t_address,t_struct(Claimer)9972_storage)"
      },
      {
        "astId": 3773,
        "contract": "contracts/Vault.sol:Vault",
        "label": "totalPrincipal",
        "offset": 0,
        "slot": "11",
        "type": "t_uint256"
      },
      {
        "astId": 3776,
        "contract": "contracts/Vault.sol:Vault",
        "label": "treasury",
        "offset": 0,
        "slot": "12",
        "type": "t_address"
      },
      {
        "astId": 3779,
        "contract": "contracts/Vault.sol:Vault",
        "label": "perfFeePct",
        "offset": 20,
        "slot": "12",
        "type": "t_uint16"
      },
      {
        "astId": 3782,
        "contract": "contracts/Vault.sol:Vault",
        "label": "accumulatedPerfFee",
        "offset": 0,
        "slot": "13",
        "type": "t_uint256"
      },
      {
        "astId": 3785,
        "contract": "contracts/Vault.sol:Vault",
        "label": "investmentFeeEstimatePct",
        "offset": 0,
        "slot": "14",
        "type": "t_uint16"
      }
    ],
    "types": {
      "t_address": {
        "encoding": "inplace",
        "label": "address",
        "numberOfBytes": "20"
      },
      "t_bool": {
        "encoding": "inplace",
        "label": "bool",
        "numberOfBytes": "1"
      },
      "t_bytes32": {
        "encoding": "inplace",
        "label": "bytes32",
        "numberOfBytes": "32"
      },
      "t_contract(Depositors)9930": {
        "encoding": "inplace",
        "label": "contract Depositors",
        "numberOfBytes": "20"
      },
      "t_contract(ICurve)7113": {
        "encoding": "inplace",
        "label": "contract ICurve",
        "numberOfBytes": "20"
      },
      "t_contract(IERC20Metadata)1313": {
        "encoding": "inplace",
        "label": "contract IERC20Metadata",
        "numberOfBytes": "20"
      },
      "t_contract(IStrategy)8277": {
        "encoding": "inplace",
        "label": "contract IStrategy",
        "numberOfBytes": "20"
      },
      "t_int128": {
        "encoding": "inplace",
        "label": "int128",
        "numberOfBytes": "16"
      },
      "t_mapping(t_address,t_bool)": {
        "encoding": "mapping",
        "key": "t_address",
        "label": "mapping(address => bool)",
        "numberOfBytes": "32",
        "value": "t_bool"
      },
      "t_mapping(t_address,t_struct(Claimer)9972_storage)": {
        "encoding": "mapping",
        "key": "t_address",
        "label": "mapping(address => struct IVault.Claimer)",
        "numberOfBytes": "32",
        "value": "t_struct(Claimer)9972_storage"
      },
      "t_mapping(t_address,t_struct(Swapper)9346_storage)": {
        "encoding": "mapping",
        "key": "t_address",
        "label": "mapping(address => struct CurveSwapper.Swapper)",
        "numberOfBytes": "32",
        "value": "t_struct(Swapper)9346_storage"
      },
      "t_mapping(t_bytes32,t_struct(RoleData)65_storage)": {
        "encoding": "mapping",
        "key": "t_bytes32",
        "label": "mapping(bytes32 => struct AccessControl.RoleData)",
        "numberOfBytes": "32",
        "value": "t_struct(RoleData)65_storage"
      },
      "t_mapping(t_uint256,t_struct(Deposit)9967_storage)": {
        "encoding": "mapping",
        "key": "t_uint256",
        "label": "mapping(uint256 => struct IVault.Deposit)",
        "numberOfBytes": "32",
        "value": "t_struct(Deposit)9967_storage"
      },
      "t_struct(Claimer)9972_storage": {
        "encoding": "inplace",
        "label": "struct IVault.Claimer",
        "members": [
          {
            "astId": 9969,
            "contract": "contracts/Vault.sol:Vault",
            "label": "totalPrincipal",
            "offset": 0,
            "slot": "0",
            "type": "t_uint256"
          },
          {
            "astId": 9971,
            "contract": "contracts/Vault.sol:Vault",
            "label": "totalShares",
            "offset": 0,
            "slot": "1",
            "type": "t_uint256"
          }
        ],
        "numberOfBytes": "64"
      },
      "t_struct(Deposit)9967_storage": {
        "encoding": "inplace",
        "label": "struct IVault.Deposit",
        "members": [
          {
            "astId": 9957,
            "contract": "contracts/Vault.sol:Vault",
            "label": "amount",
            "offset": 0,
            "slot": "0",
            "type": "t_uint256"
          },
          {
            "astId": 9960,
            "contract": "contracts/Vault.sol:Vault",
            "label": "claimerId",
            "offset": 0,
            "slot": "1",
            "type": "t_address"
          },
          {
            "astId": 9963,
            "contract": "contracts/Vault.sol:Vault",
            "label": "lockedUntil",
            "offset": 0,
            "slot": "2",
            "type": "t_uint256"
          },
          {
            "astId": 9966,
            "contract": "contracts/Vault.sol:Vault",
            "label": "shares",
            "offset": 0,
            "slot": "3",
            "type": "t_uint256"
          }
        ],
        "numberOfBytes": "128"
      },
      "t_struct(RoleData)65_storage": {
        "encoding": "inplace",
        "label": "struct AccessControl.RoleData",
        "members": [
          {
            "astId": 62,
            "contract": "contracts/Vault.sol:Vault",
            "label": "members",
            "offset": 0,
            "slot": "0",
            "type": "t_mapping(t_address,t_bool)"
          },
          {
            "astId": 64,
            "contract": "contracts/Vault.sol:Vault",
            "label": "adminRole",
            "offset": 0,
            "slot": "1",
            "type": "t_bytes32"
          }
        ],
        "numberOfBytes": "64"
      },
      "t_struct(Swapper)9346_storage": {
        "encoding": "inplace",
        "label": "struct CurveSwapper.Swapper",
        "members": [
          {
            "astId": 9333,
            "contract": "contracts/Vault.sol:Vault",
            "label": "pool",
            "offset": 0,
            "slot": "0",
            "type": "t_contract(ICurve)7113"
          },
          {
            "astId": 9336,
            "contract": "contracts/Vault.sol:Vault",
            "label": "tokenDecimals",
            "offset": 20,
            "slot": "0",
            "type": "t_uint8"
          },
          {
            "astId": 9339,
            "contract": "contracts/Vault.sol:Vault",
            "label": "underlyingDecimals",
            "offset": 21,
            "slot": "0",
            "type": "t_uint8"
          },
          {
            "astId": 9342,
            "contract": "contracts/Vault.sol:Vault",
            "label": "tokenI",
            "offset": 0,
            "slot": "1",
            "type": "t_int128"
          },
          {
            "astId": 9345,
            "contract": "contracts/Vault.sol:Vault",
            "label": "underlyingI",
            "offset": 16,
            "slot": "1",
            "type": "t_int128"
          }
        ],
        "numberOfBytes": "64"
      },
      "t_uint16": {
        "encoding": "inplace",
        "label": "uint16",
        "numberOfBytes": "2"
      },
      "t_uint256": {
        "encoding": "inplace",
        "label": "uint256",
        "numberOfBytes": "32"
      },
      "t_uint8": {
        "encoding": "inplace",
        "label": "uint8",
        "numberOfBytes": "1"
      }
    }
  }
}