{
  "address": "0x553Df443a3B188adF5ad0FE1ac67748A15C742f9",
  "abi": [
    {
      "inputs": [
        {
          "internalType": "address",
          "name": "_vault",
          "type": "address"
        },
        {
          "internalType": "address",
          "name": "_ethAnchorRouter",
          "type": "address"
        },
        {
          "internalType": "contract AggregatorV3Interface",
          "name": "_aUstToUstFeed",
          "type": "address"
        },
        {
          "internalType": "contract IERC20",
          "name": "_ustToken",
          "type": "address"
        },
        {
          "internalType": "contract IERC20",
          "name": "_aUstToken",
          "type": "address"
        },
        {
          "internalType": "address",
          "name": "_owner",
          "type": "address"
        }
      ],
      "stateMutability": "nonpayable",
      "type": "constructor"
    },
    {
      "anonymous": false,
      "inputs": [
        {
          "indexed": true,
          "internalType": "address",
          "name": "operator",
          "type": "address"
        },
        {
          "indexed": false,
          "internalType": "uint256",
          "name": "ustAmount",
          "type": "uint256"
        },
        {
          "indexed": false,
          "internalType": "uint256",
          "name": "aUstAmount",
          "type": "uint256"
        }
      ],
      "name": "FinishDepositStable",
      "type": "event"
    },
    {
      "anonymous": false,
      "inputs": [
        {
          "indexed": true,
          "internalType": "address",
          "name": "operator",
          "type": "address"
        },
        {
          "indexed": false,
          "internalType": "uint256",
          "name": "aUstAmount",
          "type": "uint256"
        },
        {
          "indexed": false,
          "internalType": "uint256",
          "name": "ustAmount",
          "type": "uint256"
        },
        {
          "indexed": false,
          "internalType": "uint256",
          "name": "underlyingAmount",
          "type": "uint256"
        }
      ],
      "name": "FinishRedeemStable",
      "type": "event"
    },
    {
      "anonymous": false,
      "inputs": [
        {
          "indexed": true,
          "internalType": "address",
          "name": "operator",
          "type": "address"
        },
        {
          "indexed": true,
          "internalType": "uint256",
          "name": "idx",
          "type": "uint256"
        },
        {
          "indexed": false,
          "internalType": "uint256",
          "name": "underlyingAmount",
          "type": "uint256"
        },
        {
          "indexed": false,
          "internalType": "uint256",
          "name": "ustAmount",
          "type": "uint256"
        }
      ],
      "name": "InitDepositStable",
      "type": "event"
    },
    {
      "anonymous": false,
      "inputs": [
        {
          "indexed": true,
          "internalType": "address",
          "name": "operator",
          "type": "address"
        },
        {
          "indexed": true,
          "internalType": "uint256",
          "name": "idx",
          "type": "uint256"
        },
        {
          "indexed": false,
          "internalType": "uint256",
          "name": "aUstAmount",
          "type": "uint256"
        }
      ],
      "name": "InitRedeemStable",
      "type": "event"
    },
    {
      "anonymous": false,
      "inputs": [
        {
          "indexed": true,
          "internalType": "address",
          "name": "operatorFrom",
          "type": "address"
        },
        {
          "indexed": true,
          "internalType": "address",
          "name": "operatorTo",
          "type": "address"
        },
        {
          "indexed": true,
          "internalType": "uint256",
          "name": "newIdx",
          "type": "uint256"
        }
      ],
      "name": "RearrangeDepositOperation",
      "type": "event"
    },
    {
      "anonymous": false,
      "inputs": [
        {
          "indexed": true,
          "internalType": "address",
          "name": "operatorFrom",
          "type": "address"
        },
        {
          "indexed": true,
          "internalType": "address",
          "name": "operatorTo",
          "type": "address"
        },
        {
          "indexed": true,
          "internalType": "uint256",
          "name": "newIdx",
          "type": "uint256"
        }
      ],
      "name": "RearrangeRedeemOperation",
      "type": "event"
    },
    {
      "anonymous": false,
      "inputs": [
        {
          "indexed": true,
          "internalType": "bytes32",
          "name": "role",
          "type": "bytes32"
        },
        {
          "indexed": true,
          "internalType": "bytes32",
          "name": "previousAdminRole",
          "type": "bytes32"
        },
        {
          "indexed": true,
          "internalType": "bytes32",
          "name": "newAdminRole",
          "type": "bytes32"
        }
      ],
      "name": "RoleAdminChanged",
      "type": "event"
    },
    {
      "anonymous": false,
      "inputs": [
        {
          "indexed": true,
          "internalType": "bytes32",
          "name": "role",
          "type": "bytes32"
        },
        {
          "indexed": true,
          "internalType": "address",
          "name": "account",
          "type": "address"
        },
        {
          "indexed": true,
          "internalType": "address",
          "name": "sender",
          "type": "address"
        }
      ],
      "name": "RoleGranted",
      "type": "event"
    },
    {
      "anonymous": false,
      "inputs": [
        {
          "indexed": true,
          "internalType": "bytes32",
          "name": "role",
          "type": "bytes32"
        },
        {
          "indexed": true,
          "internalType": "address",
          "name": "account",
          "type": "address"
        },
        {
          "indexed": true,
          "internalType": "address",
          "name": "sender",
          "type": "address"
        }
      ],
      "name": "RoleRevoked",
      "type": "event"
    },
    {
      "inputs": [],
      "name": "DEFAULT_ADMIN_ROLE",
      "outputs": [
        {
          "internalType": "bytes32",
          "name": "",
          "type": "bytes32"
        }
      ],
      "stateMutability": "view",
      "type": "function"
    },
    {
      "inputs": [],
      "name": "MANAGER_ROLE",
      "outputs": [
        {
          "internalType": "bytes32",
          "name": "",
          "type": "bytes32"
        }
      ],
      "stateMutability": "view",
      "type": "function"
    },
    {
      "inputs": [],
      "name": "aUstToUstFeed",
      "outputs": [
        {
          "internalType": "contract AggregatorV3Interface",
          "name": "",
          "type": "address"
        }
      ],
      "stateMutability": "view",
      "type": "function"
    },
    {
      "inputs": [],
      "name": "aUstToken",
      "outputs": [
        {
          "internalType": "contract IERC20",
          "name": "",
          "type": "address"
        }
      ],
      "stateMutability": "view",
      "type": "function"
    },
    {
      "inputs": [],
      "name": "depositOperationLength",
      "outputs": [
        {
          "internalType": "uint256",
          "name": "",
          "type": "uint256"
        }
      ],
      "stateMutability": "view",
      "type": "function"
    },
    {
      "inputs": [
        {
          "internalType": "uint256",
          "name": "",
          "type": "uint256"
        }
      ],
      "name": "depositOperations",
      "outputs": [
        {
          "internalType": "address",
          "name": "operator",
          "type": "address"
        },
        {
          "internalType": "uint256",
          "name": "amount",
          "type": "uint256"
        }
      ],
      "stateMutability": "view",
      "type": "function"
    },
    {
      "inputs": [],
      "name": "ethAnchorRouter",
      "outputs": [
        {
          "internalType": "contract IEthAnchorRouter",
          "name": "",
          "type": "address"
        }
      ],
      "stateMutability": "view",
      "type": "function"
    },
    {
      "inputs": [
        {
          "internalType": "uint256",
          "name": "idx",
          "type": "uint256"
        }
      ],
      "name": "finishDepositStable",
      "outputs": [],
      "stateMutability": "nonpayable",
      "type": "function"
    },
    {
      "inputs": [
        {
          "internalType": "uint256",
          "name": "idx",
          "type": "uint256"
        }
      ],
      "name": "finishRedeemStable",
      "outputs": [],
      "stateMutability": "nonpayable",
      "type": "function"
    },
    {
      "inputs": [
        {
          "internalType": "bytes32",
          "name": "role",
          "type": "bytes32"
        }
      ],
      "name": "getRoleAdmin",
      "outputs": [
        {
          "internalType": "bytes32",
          "name": "",
          "type": "bytes32"
        }
      ],
      "stateMutability": "view",
      "type": "function"
    },
    {
      "inputs": [
        {
          "internalType": "bytes32",
          "name": "role",
          "type": "bytes32"
        },
        {
          "internalType": "address",
          "name": "account",
          "type": "address"
        }
      ],
      "name": "grantRole",
      "outputs": [],
      "stateMutability": "nonpayable",
      "type": "function"
    },
    {
      "inputs": [],
      "name": "hasAssets",
      "outputs": [
        {
          "internalType": "bool",
          "name": "",
          "type": "bool"
        }
      ],
      "stateMutability": "view",
      "type": "function"
    },
    {
      "inputs": [
        {
          "internalType": "bytes32",
          "name": "role",
          "type": "bytes32"
        },
        {
          "internalType": "address",
          "name": "account",
          "type": "address"
        }
      ],
      "name": "hasRole",
      "outputs": [
        {
          "internalType": "bool",
          "name": "",
          "type": "bool"
        }
      ],
      "stateMutability": "view",
      "type": "function"
    },
    {
      "inputs": [
        {
          "internalType": "uint256",
          "name": "amount",
          "type": "uint256"
        }
      ],
      "name": "initRedeemStable",
      "outputs": [],
      "stateMutability": "nonpayable",
      "type": "function"
    },
    {
      "inputs": [],
      "name": "invest",
      "outputs": [],
      "stateMutability": "nonpayable",
      "type": "function"
    },
    {
      "inputs": [],
      "name": "investedAssets",
      "outputs": [
        {
          "internalType": "uint256",
          "name": "",
          "type": "uint256"
        }
      ],
      "stateMutability": "view",
      "type": "function"
    },
    {
      "inputs": [],
      "name": "pendingDeposits",
      "outputs": [
        {
          "internalType": "uint256",
          "name": "",
          "type": "uint256"
        }
      ],
      "stateMutability": "view",
      "type": "function"
    },
    {
      "inputs": [],
      "name": "pendingRedeems",
      "outputs": [
        {
          "internalType": "uint256",
          "name": "",
          "type": "uint256"
        }
      ],
      "stateMutability": "view",
      "type": "function"
    },
    {
      "inputs": [],
      "name": "redeemOperationLength",
      "outputs": [
        {
          "internalType": "uint256",
          "name": "",
          "type": "uint256"
        }
      ],
      "stateMutability": "view",
      "type": "function"
    },
    {
      "inputs": [
        {
          "internalType": "uint256",
          "name": "",
          "type": "uint256"
        }
      ],
      "name": "redeemOperations",
      "outputs": [
        {
          "internalType": "address",
          "name": "operator",
          "type": "address"
        },
        {
          "internalType": "uint256",
          "name": "amount",
          "type": "uint256"
        }
      ],
      "stateMutability": "view",
      "type": "function"
    },
    {
      "inputs": [
        {
          "internalType": "bytes32",
          "name": "role",
          "type": "bytes32"
        },
        {
          "internalType": "address",
          "name": "account",
          "type": "address"
        }
      ],
      "name": "renounceRole",
      "outputs": [],
      "stateMutability": "nonpayable",
      "type": "function"
    },
    {
      "inputs": [
        {
          "internalType": "bytes32",
          "name": "role",
          "type": "bytes32"
        },
        {
          "internalType": "address",
          "name": "account",
          "type": "address"
        }
      ],
      "name": "revokeRole",
      "outputs": [],
      "stateMutability": "nonpayable",
      "type": "function"
    },
    {
      "inputs": [
        {
          "internalType": "bytes4",
          "name": "interfaceId",
          "type": "bytes4"
        }
      ],
      "name": "supportsInterface",
      "outputs": [
        {
          "internalType": "bool",
          "name": "",
          "type": "bool"
        }
      ],
      "stateMutability": "view",
      "type": "function"
    },
    {
      "inputs": [],
      "name": "ustToken",
      "outputs": [
        {
          "internalType": "contract IERC20",
          "name": "",
          "type": "address"
        }
      ],
      "stateMutability": "view",
      "type": "function"
    },
    {
      "inputs": [],
      "name": "vault",
      "outputs": [
        {
          "internalType": "address",
          "name": "",
          "type": "address"
        }
      ],
      "stateMutability": "view",
      "type": "function"
    },
    {
      "inputs": [],
      "name": "withdrawAllToVault",
      "outputs": [],
      "stateMutability": "nonpayable",
      "type": "function"
    },
    {
      "inputs": [
        {
          "internalType": "uint256",
          "name": "amount",
          "type": "uint256"
        }
      ],
      "name": "withdrawToVault",
      "outputs": [],
      "stateMutability": "nonpayable",
      "type": "function"
    }
  ],
  "transactionHash": "0xe44b316aa05ba1edb4a92d57e350f5c3f066a4d5f7deb44a400990725336d8d3",
  "args": [
    "0x0b3481DeD52636eAa259612539d187cb599FCdb0",
    "0x7537aC093cE1315BCE08bBF0bf6f9b86B7475008",
    "0x53CbbE1a2cbC42841bdbF2aC855E245f822c768B",
    "0x6cA13a4ab78dd7D657226b155873A04DB929A3A4",
    "0x006479f75d6622ae6a21be17c7f555b94c672342",
    "0x8f592F2594C43eA30879f9fbED4d930248D81D41"
  ],
  "numDeployments": 3,
  "solcInputHash": "fbfbab979924b94ef866abcf05db9fed",
  "bytecode": "0x6101006040523480156200001257600080fd5b50604051620028ed380380620028ed8339810160408190526200003591620004bc565b6001600160a01b038116620000915760405162461bcd60e51b815260206004820152601b60248201527f416e63686f7253747261746567793a206f776e6572206973203078000000000060448201526064015b60405180910390fd5b6001600160a01b038516620000e95760405162461bcd60e51b815260206004820152601c60248201527f416e63686f7253747261746567793a20726f7574657220697320307800000000604482015260640162000088565b6001600160a01b038316620001415760405162461bcd60e51b815260206004820152601960248201527f416e63686f7253747261746567793a2075737420697320307800000000000000604482015260640162000088565b6001600160a01b038216620001995760405162461bcd60e51b815260206004820152601a60248201527f416e63686f7253747261746567793a2061555354206973203078000000000000604482015260640162000088565b620001c3632f271a8b60e11b876001600160a01b03166200030c60201b620013cc1790919060201c565b620002115760405162461bcd60e51b815260206004820152601d60248201527f416e63686f7253747261746567793a206e6f7420616e20495661756c74000000604482015260640162000088565b6200021e600082620003bf565b6200024a7f241ecf16d79d0f8dbfb92cbc07fe17840425976cf0667f022fe9877caa831b0887620003bf565b6001600160a01b03868116608052600180546001600160a01b03191687831617905584811660e081905284821660a05290831660c0526040805163313ce56760e01b8152905163313ce567916004808201926020929091908290030181865afa158015620002bc573d6000803e3d6000fd5b505050506040513d601f19601f82011682018060405250810190620002e2919062000550565b620002ef90600a6200068f565b60065550506007805460ff1916600117905550620006a092505050565b6000808062000323856301ffc9a760e01b620003cf565b909250905081158062000334575080155b156200034657600092505050620003b9565b6200035a856001600160e01b0319620003cf565b90925090508115806200036c57508015155b156200037e57600092505050620003b9565b6200038a8585620003cf565b9092509050600182148015620003a05750806001145b15620003b257600192505050620003b9565b6000925050505b92915050565b620003cb828262000403565b5050565b6040516301ffc9a760e01b8082526004820183905260009182919060208160248189617530fa905190969095509350505050565b6000828152602081815260408083206001600160a01b038516845290915290205460ff16620003cb576000828152602081815260408083206001600160a01b03851684529091529020805460ff191660011790556200045f3390565b6001600160a01b0316816001600160a01b0316837f2f8788117e7eff1d82e926ec794901d17c78024a50270940304540a733656f0d60405160405180910390a45050565b6001600160a01b0381168114620004b957600080fd5b50565b60008060008060008060c08789031215620004d657600080fd5b8651620004e381620004a3565b6020880151909650620004f681620004a3565b60408801519095506200050981620004a3565b60608801519094506200051c81620004a3565b60808801519093506200052f81620004a3565b60a08801519092506200054281620004a3565b809150509295509295509295565b6000602082840312156200056357600080fd5b815160ff811681146200057557600080fd5b9392505050565b634e487b7160e01b600052601160045260246000fd5b600181815b80851115620005d3578160001904821115620005b757620005b76200057c565b80851615620005c557918102915b93841c939080029062000597565b509250929050565b600082620005ec57506001620003b9565b81620005fb57506000620003b9565b81600181146200061457600281146200061f576200063f565b6001915050620003b9565b60ff8411156200063357620006336200057c565b50506001821b620003b9565b5060208310610133831016604e8410600b841016171562000664575081810a620003b9565b62000670838362000592565b80600019048211156200068757620006876200057c565b029392505050565b60006200057560ff841683620005db565b60805160a05160c05160e0516121e26200070b600039600081816102710152611bbc015260008181610232015281816105d1015261148601526000818161033e01528181610bac0152818161122b01526118310152600081816104300152610b7b01526121e26000f3fe608060405234801561001057600080fd5b50600436106101b95760003560e01c806362eac09d116100f9578063bfd131f111610097578063e8b5e51f11610071578063e8b5e51f146103e9578063eb0469e5146103f1578063ec87621c14610404578063fbfa77cf1461042b57600080fd5b8063bfd131f1146103bb578063ce8c42e8146103c3578063d547741f146103d657600080fd5b80639119c067116100d35780639119c0671461036057806391d1485414610369578063958437ee146103a0578063a217fddf146103b357600080fd5b806362eac09d1461031e5780636abc842514610326578063781338c01461033957600080fd5b80632f2ff15d116101665780634ad0b684116101405780634ad0b684146102f257806352473754146102fa5780635be9b2d31461030d5780635c074f441461031557600080fd5b80632f2ff15d146102c457806336568abe146102d75780634a614cf4146102ea57600080fd5b80631bbec15e116101975780631bbec15e1461022d5780631ce631471461026c578063248a9ca31461029357600080fd5b806301ffc9a7146101be57806307caf901146101e65780631312e0c5146101fb575b600080fd5b6101d16101cc366004611e82565b610452565b60405190151581526020015b60405180910390f35b6101f96101f4366004611eac565b6104a2565b005b61020e610209366004611eac565b61076e565b604080516001600160a01b0390931683526020830191909152016101dd565b6102547f000000000000000000000000000000000000000000000000000000000000000081565b6040516001600160a01b0390911681526020016101dd565b6102547f000000000000000000000000000000000000000000000000000000000000000081565b6102b66102a1366004611eac565b60009081526020819052604090206001015490565b6040519081526020016101dd565b6101f96102d2366004611eda565b6107a6565b6101f96102e5366004611eda565b6107d1565b6004546102b6565b6102b661085d565b6101f9610308366004611eac565b610879565b6101d1610c26565b6102b660025481565b6005546102b6565b6101f9610334366004611eac565b610c3f565b6102547f000000000000000000000000000000000000000000000000000000000000000081565b6102b660035481565b6101d1610377366004611eda565b6000918252602082815260408084206001600160a01b0393909316845291905290205460ff1690565b61020e6103ae366004611eac565b610fb2565b6102b6600081565b6101f9610fc2565b6101f96103d1366004611eac565b61106c565b6101f96103e4366004611eda565b6110f8565b6101f961111e565b600154610254906001600160a01b031681565b6102b67f241ecf16d79d0f8dbfb92cbc07fe17840425976cf0667f022fe9877caa831b0881565b6102547f000000000000000000000000000000000000000000000000000000000000000081565b60006001600160e01b031982167f7965db0b00000000000000000000000000000000000000000000000000000000148061049c57506301ffc9a760e01b6001600160e01b03198316145b92915050565b3360009081527fe84508f2c7fa9c351146748b3025cb78b45df37d868e48c6a75102fecdeee645602052604090205460ff166105335760405162461bcd60e51b815260206004820152602560248201527f416e63686f7253747261746567793a2063616c6c6572206973206e6f74206d616044820152643730b3b2b960d91b60648201526084015b60405180910390fd5b806105805760405162461bcd60e51b815260206004820152601860248201527f416e63686f7253747261746567793a20616d6f756e7420300000000000000000604482015260640161052a565b60025415801561059657508061059461146e565b145b156105a9576007805460ff191660011790555b80600360008282546105bb9190611f20565b90915550506001546105fa906001600160a01b037f000000000000000000000000000000000000000000000000000000000000000081169116836114fa565b6001546040517f07caf901000000000000000000000000000000000000000000000000000000008152600481018390526000916001600160a01b0316906307caf901906024016020604051808303816000875af115801561065f573d6000803e3d6000fd5b505050506040513d601f19601f820116820180604052508101906106839190611f38565b604080518082019091526001600160a01b038281168252602082018581526005805460018082018355600083905294517f036b6384b5eca791c62761152d0c79bb0604c104a5fb6f4eb0703f3154bb3db0600290920291820180546001600160a01b031916919095161790935590517f036b6384b5eca791c62761152d0c79bb0604c104a5fb6f4eb0703f3154bb3db1909201919091555491925061072791611f55565b816001600160a01b03167f301a089c1682e4dfcb4c8539d13576706f6d5500da6f3be7f5789dad4063ee488460405161076291815260200190565b60405180910390a35050565b6004818154811061077e57600080fd5b6000918252602090912060029091020180546001909101546001600160a01b03909116915082565b6000828152602081905260409020600101546107c2813361162c565b6107cc83836116aa565b505050565b6001600160a01b038116331461084f5760405162461bcd60e51b815260206004820152602f60248201527f416363657373436f6e74726f6c3a2063616e206f6e6c792072656e6f756e636560448201527f20726f6c657320666f722073656c660000000000000000000000000000000000606482015260840161052a565b6108598282611748565b5050565b60006108676117c7565b6002546108749190611f20565b905090565b3360009081527fe84508f2c7fa9c351146748b3025cb78b45df37d868e48c6a75102fecdeee645602052604090205460ff166109055760405162461bcd60e51b815260206004820152602560248201527f416e63686f7253747261746567793a2063616c6c6572206973206e6f74206d616044820152643730b3b2b960d91b606482015260840161052a565b60055481106109565760405162461bcd60e51b815260206004820152601b60248201527f416e63686f7253747261746567793a206e6f742072756e6e696e670000000000604482015260640161052a565b60006005828154811061096b5761096b611f6c565b60009182526020909120600160029092020181810154815492546040517f7249abb90000000000000000000000000000000000000000000000000000000081526001600160a01b039485166004820181905293955091931690637249abb990602401600060405180830381600087803b1580156109e757600080fd5b505af11580156109fb573d6000803e3d6000fd5b505050506000610a09611819565b905060008111610a5b5760405162461bcd60e51b815260206004820181905260248201527f416e63686f7253747261746567793a206e6f7468696e672072656465656d6564604482015260640161052a565b8260036000828254610a6d9190611f55565b9091555050600554610a8190600190611f55565b851015610b3c576005805460009190610a9c90600190611f55565b81548110610aac57610aac611f6c565b60009182526020808320604080518082018252600290940290910180546001600160a01b0390811680865260019092015493850193909352895491519395508a9491909216927f9f67ad82326921d9301b2230faa79a4f7001af2e44fe9053693d1d96acf0100d9190a4805185546001600160a01b0319166001600160a01b039091161785556020015160018501555b6005805480610b4d57610b4d611f82565b60008281526020812060026000199093019283020180546001600160a01b0319168155600101559055610bd37f0000000000000000000000000000000000000000000000000000000000000000610ba2611819565b6001600160a01b037f0000000000000000000000000000000000000000000000000000000000000000169190611868565b60408051848152602081018390529081018290526001600160a01b038316907f4920436e71acf3ae867da04d3ab39c11ff9414833c8404596505ccb64f47c2209060600160405180910390a25050505050565b60075460009060ff161580610874575050600354151590565b3360009081527fe84508f2c7fa9c351146748b3025cb78b45df37d868e48c6a75102fecdeee645602052604090205460ff16610ccb5760405162461bcd60e51b815260206004820152602560248201527f416e63686f7253747261746567793a2063616c6c6572206973206e6f74206d616044820152643730b3b2b960d91b606482015260840161052a565b6004548110610d1c5760405162461bcd60e51b815260206004820152601b60248201527f416e63686f7253747261746567793a206e6f742072756e6e696e670000000000604482015260640161052a565b600060048281548110610d3157610d31611f6c565b60009182526020822060029091020180549092506001600160a01b031690610d5761146e565b6001546040517fac1a23220000000000000000000000000000000000000000000000000000000081526001600160a01b03858116600483015292935091169063ac1a232290602401600060405180830381600087803b158015610db957600080fd5b505af1158015610dcd573d6000803e3d6000fd5b50505050600081610ddc61146e565b610de69190611f55565b905060008111610e385760405162461bcd60e51b815260206004820181905260248201527f416e63686f7253747261746567793a206e6f20615553542072657475726e6564604482015260640161052a565b6000846001015490508060026000828254610e539190611f55565b9091555050600454610e6790600190611f55565b861015610f22576004805460009190610e8290600190611f55565b81548110610e9257610e92611f6c565b60009182526020808320604080518082018252600290940290910180546001600160a01b03908116808652600190920154938501939093528a5491519395508b9491909216927f4db8637c14914623c2eba6cc393062eb14b31e1224f898b7f898868919fe4d6a9190a4805186546001600160a01b0319166001600160a01b039091161786556020015160018601555b6004805480610f3357610f33611f82565b60008281526020812060026000199093019283020180546001600160a01b03191681556001015590556040516001600160a01b038516907f225c081659607ca4ffa8d328c88b0c3d6c99d0ba75b002e377abf8b4ca2fdc7990610fa29084908690918252602082015260400190565b60405180910390a2505050505050565b6005818154811061077e57600080fd5b3360009081527fe84508f2c7fa9c351146748b3025cb78b45df37d868e48c6a75102fecdeee645602052604090205460ff1661104e5760405162461bcd60e51b815260206004820152602560248201527f416e63686f7253747261746567793a2063616c6c6572206973206e6f74206d616044820152643730b3b2b960d91b606482015260840161052a565b600061105861146e565b9050801561106957611069816104a2565b50565b3360009081527fe84508f2c7fa9c351146748b3025cb78b45df37d868e48c6a75102fecdeee645602052604090205460ff166110695760405162461bcd60e51b815260206004820152602560248201527f416e63686f7253747261746567793a2063616c6c6572206973206e6f74206d616044820152643730b3b2b960d91b606482015260840161052a565b600082815260208190526040902060010154611114813361162c565b6107cc8383611748565b3360009081527fe84508f2c7fa9c351146748b3025cb78b45df37d868e48c6a75102fecdeee645602052604090205460ff166111aa5760405162461bcd60e51b815260206004820152602560248201527f416e63686f7253747261746567793a2063616c6c6572206973206e6f74206d616044820152643730b3b2b960d91b606482015260840161052a565b60006111b4611819565b9050806112035760405162461bcd60e51b815260206004820152601c60248201527f416e63686f7253747261746567793a206e6f2075737420657869737400000000604482015260640161052a565b80600260008282546112159190611f20565b9091555050600154611254906001600160a01b037f000000000000000000000000000000000000000000000000000000000000000081169116836114fa565b6001546040517fa8a15a21000000000000000000000000000000000000000000000000000000008152600481018390526000916001600160a01b03169063a8a15a21906024016020604051808303816000875af11580156112b9573d6000803e3d6000fd5b505050506040513d601f19601f820116820180604052508101906112dd9190611f38565b604080518082019091526001600160a01b038281168252602082018581526004805460018082018355600083905294517f8a35acfbc15ff81a39ae7d344fd709f28e8600b4aa8c65c6b64bfe7fe36bd19b600290920291820180546001600160a01b031916919095161790935590517f8a35acfbc15ff81a39ae7d344fd709f28e8600b4aa8c65c6b64bfe7fe36bd19c909201919091556007805460ff191690555491925061138b91611f55565b60408051848152602081018590526001600160a01b038416917f6a038298ce6aeb4a287c53d57f807bbe0853812eb55b115ede849dc987cca4959101610762565b600080806113e1856301ffc9a760e01b6118b1565b90925090508115806113f1575080155b156114015760009250505061049c565b611413856001600160e01b03196118b1565b909250905081158061142457508015155b156114345760009250505061049c565b61143e85856118b1565b90925090506001821480156114535750806001145b156114635760019250505061049c565b506000949350505050565b6040516370a0823160e01b81523060048201526000907f00000000000000000000000000000000000000000000000000000000000000006001600160a01b0316906370a08231906024015b602060405180830381865afa1580156114d6573d6000803e3d6000fd5b505050506040513d601f19601f820116820180604052508101906108749190611f98565b6040517fdd62ed3e0000000000000000000000000000000000000000000000000000000081523060048201526001600160a01b038381166024830152600091839186169063dd62ed3e90604401602060405180830381865afa158015611564573d6000803e3d6000fd5b505050506040513d601f19601f820116820180604052508101906115889190611f98565b6115929190611f20565b6040516001600160a01b0385166024820152604481018290529091506116269085907f095ea7b300000000000000000000000000000000000000000000000000000000906064015b60408051601f198184030181529190526020810180517bffffffffffffffffffffffffffffffffffffffffffffffffffffffff166001600160e01b0319909316929092179091526118e5565b50505050565b6000828152602081815260408083206001600160a01b038516845290915290205460ff1661085957611668816001600160a01b031660146119ca565b6116738360206119ca565b604051602001611684929190611fdd565b60408051601f198184030181529082905262461bcd60e51b825261052a9160040161205e565b6000828152602081815260408083206001600160a01b038516845290915290205460ff16610859576000828152602081815260408083206001600160a01b03851684529091529020805460ff191660011790556117043390565b6001600160a01b0316816001600160a01b0316837f2f8788117e7eff1d82e926ec794901d17c78024a50270940304540a733656f0d60405160405180910390a45050565b6000828152602081815260408083206001600160a01b038516845290915290205460ff1615610859576000828152602081815260408083206001600160a01b0385168085529252808320805460ff1916905551339285917ff6391f5c32d9c69d2a47ea670b442974b53935d1edc7fd64eb21e047a839171b9190a45050565b6000806003546117d561146e565b6117df9190611f20565b9050806117ee57600091505090565b60006117f8611bb2565b6006549091506118088383612091565b61181291906120b0565b9250505090565b6040516370a0823160e01b81523060048201526000907f00000000000000000000000000000000000000000000000000000000000000006001600160a01b0316906370a08231906024016114b9565b6040516001600160a01b0383166024820152604481018290526107cc9084907fa9059cbb00000000000000000000000000000000000000000000000000000000906064016115da565b6040516301ffc9a760e01b8082526004820183905260009182919060208160248189617530fa905190969095509350505050565b600061193a826040518060400160405280602081526020017f5361666545524332303a206c6f772d6c6576656c2063616c6c206661696c6564815250856001600160a01b0316611cf39092919063ffffffff16565b8051909150156107cc578080602001905181019061195891906120d2565b6107cc5760405162461bcd60e51b815260206004820152602a60248201527f5361666545524332303a204552433230206f7065726174696f6e20646964206e60448201527f6f74207375636365656400000000000000000000000000000000000000000000606482015260840161052a565b606060006119d9836002612091565b6119e4906002611f20565b67ffffffffffffffff8111156119fc576119fc6120f4565b6040519080825280601f01601f191660200182016040528015611a26576020820181803683370190505b5090507f300000000000000000000000000000000000000000000000000000000000000081600081518110611a5d57611a5d611f6c565b60200101906001600160f81b031916908160001a9053507f780000000000000000000000000000000000000000000000000000000000000081600181518110611aa857611aa8611f6c565b60200101906001600160f81b031916908160001a9053506000611acc846002612091565b611ad7906001611f20565b90505b6001811115611b5c577f303132333435363738396162636465660000000000000000000000000000000085600f1660108110611b1857611b18611f6c565b1a60f81b828281518110611b2e57611b2e611f6c565b60200101906001600160f81b031916908160001a90535060049490941c93611b558161210a565b9050611ada565b508315611bab5760405162461bcd60e51b815260206004820181905260248201527f537472696e67733a20686578206c656e67746820696e73756666696369656e74604482015260640161052a565b9392505050565b60008060008060007f00000000000000000000000000000000000000000000000000000000000000006001600160a01b031663feaf968c6040518163ffffffff1660e01b815260040160a060405180830381865afa158015611c18573d6000803e3d6000fd5b505050506040513d601f19601f82011682018060405250810190611c3c9190612140565b945094505093509350600083138015611c5457508115155b8015611c7857508369ffffffffffffffffffff168169ffffffffffffffffffff1610155b611cea5760405162461bcd60e51b815260206004820152602160248201527f416e63686f7253747261746567793a20696e76616c696420615553542072617460448201527f6500000000000000000000000000000000000000000000000000000000000000606482015260840161052a565b50909392505050565b6060611d028484600085611d0a565b949350505050565b606082471015611d825760405162461bcd60e51b815260206004820152602660248201527f416464726573733a20696e73756666696369656e742062616c616e636520666f60448201527f722063616c6c0000000000000000000000000000000000000000000000000000606482015260840161052a565b843b611dd05760405162461bcd60e51b815260206004820152601d60248201527f416464726573733a2063616c6c20746f206e6f6e2d636f6e7472616374000000604482015260640161052a565b600080866001600160a01b03168587604051611dec9190612190565b60006040518083038185875af1925050503d8060008114611e29576040519150601f19603f3d011682016040523d82523d6000602084013e611e2e565b606091505b5091509150611e3e828286611e49565b979650505050505050565b60608315611e58575081611bab565b825115611e685782518084602001fd5b8160405162461bcd60e51b815260040161052a919061205e565b600060208284031215611e9457600080fd5b81356001600160e01b031981168114611bab57600080fd5b600060208284031215611ebe57600080fd5b5035919050565b6001600160a01b038116811461106957600080fd5b60008060408385031215611eed57600080fd5b823591506020830135611eff81611ec5565b809150509250929050565b634e487b7160e01b600052601160045260246000fd5b60008219821115611f3357611f33611f0a565b500190565b600060208284031215611f4a57600080fd5b8151611bab81611ec5565b600082821015611f6757611f67611f0a565b500390565b634e487b7160e01b600052603260045260246000fd5b634e487b7160e01b600052603160045260246000fd5b600060208284031215611faa57600080fd5b5051919050565b60005b83811015611fcc578181015183820152602001611fb4565b838111156116265750506000910152565b7f416363657373436f6e74726f6c3a206163636f756e7420000000000000000000815260008351612015816017850160208801611fb1565b7f206973206d697373696e6720726f6c65200000000000000000000000000000006017918401918201528351612052816028840160208801611fb1565b01602801949350505050565b602081526000825180602084015261207d816040850160208701611fb1565b601f01601f19169190910160400192915050565b60008160001904831182151516156120ab576120ab611f0a565b500290565b6000826120cd57634e487b7160e01b600052601260045260246000fd5b500490565b6000602082840312156120e457600080fd5b81518015158114611bab57600080fd5b634e487b7160e01b600052604160045260246000fd5b60008161211957612119611f0a565b506000190190565b805169ffffffffffffffffffff8116811461213b57600080fd5b919050565b600080600080600060a0868803121561215857600080fd5b61216186612121565b945060208601519350604086015192506060860151915061218460808701612121565b90509295509295909350565b600082516121a2818460208701611fb1565b919091019291505056fea26469706673582212209f06c370eb199d699fb3b979daf8c85787626074e2f1cc34f18410fb1f8bdd8864736f6c634300080a0033",
  "devdoc": {
    "kind": "dev",
    "methods": {
      "constructor": {
        "params": {
          "_aUstToUstFeed": "aUST / UST chainlink feed address",
          "_aUstToken": "aUST token address",
          "_ethAnchorRouter": "EthAnchorRouter address",
          "_owner": "Owner address",
          "_ustToken": "UST token address",
          "_vault": "Vault address"
        }
      },
      "depositOperationLength()": {
        "returns": {
          "_0": "Length of pending deposit operations"
        }
      },
      "finishDepositStable(uint256)": {
        "params": {
          "idx": "Id of the pending deposit operation"
        }
      },
      "finishRedeemStable(uint256)": {
        "details": "division by `aUstBalance` was not deemed worthy of a zero-check   (https://github.com/code-423n4/2022-01-sandclock-findings/issues/95)",
        "params": {
          "idx": "Id of the pending redeem operation"
        }
      },
      "getRoleAdmin(bytes32)": {
        "details": "Returns the admin role that controls `role`. See {grantRole} and {revokeRole}. To change a role's admin, use {_setRoleAdmin}."
      },
      "grantRole(bytes32,address)": {
        "details": "Grants `role` to `account`. If `account` had not been already granted `role`, emits a {RoleGranted} event. Requirements: - the caller must have ``role``'s admin role."
      },
      "hasAssets()": {
        "returns": {
          "_0": "true if assets invested, false if nothing invested."
        }
      },
      "hasRole(bytes32,address)": {
        "details": "Returns `true` if `account` has been granted `role`."
      },
      "initRedeemStable(uint256)": {
        "params": {
          "amount": "Amount of aUST to redeem"
        }
      },
      "investedAssets()": {
        "returns": {
          "_0": "The total amount of underlying"
        }
      },
      "redeemOperationLength()": {
        "returns": {
          "_0": "Length of pending redeem operations"
        }
      },
      "renounceRole(bytes32,address)": {
        "details": "Revokes `role` from the calling account. Roles are often managed via {grantRole} and {revokeRole}: this function's purpose is to provide a mechanism for accounts to lose their privileges if they are compromised (such as when a trusted device is misplaced). If the calling account had been revoked `role`, emits a {RoleRevoked} event. Requirements: - the caller must be `account`."
      },
      "revokeRole(bytes32,address)": {
        "details": "Revokes `role` from `account`. If `account` had been granted `role`, emits a {RoleRevoked} event. Requirements: - the caller must have ``role``'s admin role."
      },
      "supportsInterface(bytes4)": {
        "details": "See {IERC165-supportsInterface}."
      }
    },
    "stateVariables": {
      "vault": {
        "return": "The vault's address",
        "returns": {
          "_0": "The vault's address"
        }
      }
    },
    "version": 1
  },
  "userdoc": {
    "kind": "user",
    "methods": {
      "constructor": {
        "notice": "Constructor of Base Strategy - Initialize required addresses and paramsVault will be automatically set to Manager Role to handle underlyings"
      },
      "finishDepositStable(uint256)": {
        "notice": "Calls EthAnchor with a pending deposit ID, and attempts to finish it.Must be called some time after `_initDepositStable()`. Will only work if the EthAnchor bridge has finished processing the deposit."
      },
      "finishRedeemStable(uint256)": {
        "notice": "Calls EthAnchor with a pending redeem ID, and attempts to finish it.Must be called some time after `initRedeemStable()`. Will only work if the EthAnchor bridge has finished processing the deposit."
      },
      "hasAssets()": {
        "notice": "Indicates if assets are invested into strategy or not.this will be used when removing this strategy"
      },
      "initRedeemStable(uint256)": {
        "notice": "Initiates a withdrawal of UST from EthAnchorsince EthAnchor uses an asynchronous model, this function only starts the redeem process, but does not finish it."
      },
      "invest()": {
        "notice": "Initiates a deposit of all the currently held UST into EthAnchorsince EthAnchor uses an asynchronous model, this function only starts the deposit process, but does not finish it. Each EthAnchor deposits are handled by different operator, so we store operator address to finish later. We need to increase pendingDeposits to track correct underlying assets."
      },
      "investedAssets()": {
        "notice": "Amount, expressed in the underlying currency, currently in the strategyboth held and invested amounts are included here, using the latest known exchange rates to the underlying currency."
      },
      "vault()": {
        "notice": "The vault linked to this stragegy"
      },
      "withdrawAllToVault()": {
        "notice": "Request withdrawal from EthAnchorsince EthAnchor uses an asynchronous model, we can only request withdrawal for whole aUST"
      },
      "withdrawToVault(uint256)": {
        "notice": "Withdraws a specified amount back to the vaultsince EthAnchor uses an asynchronous model, and there is no underlying amount in the strategy, this function do nothing at all, However override interface of IStrategy."
      }
    },
    "notice": "Base eth anchor strategy that handles UST tokens and invests them via the EthAnchor protocol (https://docs.anchorprotocol.com/ethanchor/ethanchor)",
    "version": 1
  },
  "storageLayout": {
    "storage": [
      {
        "astId": 70,
        "contract": "contracts/strategy/anchor/AnchorStrategy.sol:AnchorStrategy",
        "label": "_roles",
        "offset": 0,
        "slot": "0",
        "type": "t_mapping(t_bytes32,t_struct(RoleData)65_storage)"
      },
      {
        "astId": 7871,
        "contract": "contracts/strategy/anchor/AnchorStrategy.sol:AnchorStrategy",
        "label": "ethAnchorRouter",
        "offset": 0,
        "slot": "1",
        "type": "t_contract(IEthAnchorRouter)8631"
      },
      {
        "astId": 7876,
        "contract": "contracts/strategy/anchor/AnchorStrategy.sol:AnchorStrategy",
        "label": "pendingDeposits",
        "offset": 0,
        "slot": "2",
        "type": "t_uint256"
      },
      {
        "astId": 7878,
        "contract": "contracts/strategy/anchor/AnchorStrategy.sol:AnchorStrategy",
        "label": "pendingRedeems",
        "offset": 0,
        "slot": "3",
        "type": "t_uint256"
      },
      {
        "astId": 7882,
        "contract": "contracts/strategy/anchor/AnchorStrategy.sol:AnchorStrategy",
        "label": "depositOperations",
        "offset": 0,
        "slot": "4",
        "type": "t_array(t_struct(Operation)7786_storage)dyn_storage"
      },
      {
        "astId": 7886,
        "contract": "contracts/strategy/anchor/AnchorStrategy.sol:AnchorStrategy",
        "label": "redeemOperations",
        "offset": 0,
        "slot": "5",
        "type": "t_array(t_struct(Operation)7786_storage)dyn_storage"
      },
      {
        "astId": 7888,
        "contract": "contracts/strategy/anchor/AnchorStrategy.sol:AnchorStrategy",
        "label": "_aUstToUstFeedMultiplier",
        "offset": 0,
        "slot": "6",
        "type": "t_uint256"
      },
      {
        "astId": 7890,
        "contract": "contracts/strategy/anchor/AnchorStrategy.sol:AnchorStrategy",
        "label": "_allRedeemed",
        "offset": 0,
        "slot": "7",
        "type": "t_bool"
      }
    ],
    "types": {
      "t_address": {
        "encoding": "inplace",
        "label": "address",
        "numberOfBytes": "20"
      },
      "t_array(t_struct(Operation)7786_storage)dyn_storage": {
        "base": "t_struct(Operation)7786_storage",
        "encoding": "dynamic_array",
        "label": "struct IStrategy.Operation[]",
        "numberOfBytes": "32"
      },
      "t_bool": {
        "encoding": "inplace",
        "label": "bool",
        "numberOfBytes": "1"
      },
      "t_bytes32": {
        "encoding": "inplace",
        "label": "bytes32",
        "numberOfBytes": "32"
      },
      "t_contract(IEthAnchorRouter)8631": {
        "encoding": "inplace",
        "label": "contract IEthAnchorRouter",
        "numberOfBytes": "20"
      },
      "t_mapping(t_address,t_bool)": {
        "encoding": "mapping",
        "key": "t_address",
        "label": "mapping(address => bool)",
        "numberOfBytes": "32",
        "value": "t_bool"
      },
      "t_mapping(t_bytes32,t_struct(RoleData)65_storage)": {
        "encoding": "mapping",
        "key": "t_bytes32",
        "label": "mapping(bytes32 => struct AccessControl.RoleData)",
        "numberOfBytes": "32",
        "value": "t_struct(RoleData)65_storage"
      },
      "t_struct(Operation)7786_storage": {
        "encoding": "inplace",
        "label": "struct IStrategy.Operation",
        "members": [
          {
            "astId": 7783,
            "contract": "contracts/strategy/anchor/AnchorStrategy.sol:AnchorStrategy",
            "label": "operator",
            "offset": 0,
            "slot": "0",
            "type": "t_address"
          },
          {
            "astId": 7785,
            "contract": "contracts/strategy/anchor/AnchorStrategy.sol:AnchorStrategy",
            "label": "amount",
            "offset": 0,
            "slot": "1",
            "type": "t_uint256"
          }
        ],
        "numberOfBytes": "64"
      },
      "t_struct(RoleData)65_storage": {
        "encoding": "inplace",
        "label": "struct AccessControl.RoleData",
        "members": [
          {
            "astId": 62,
            "contract": "contracts/strategy/anchor/AnchorStrategy.sol:AnchorStrategy",
            "label": "members",
            "offset": 0,
            "slot": "0",
            "type": "t_mapping(t_address,t_bool)"
          },
          {
            "astId": 64,
            "contract": "contracts/strategy/anchor/AnchorStrategy.sol:AnchorStrategy",
            "label": "adminRole",
            "offset": 0,
            "slot": "1",
            "type": "t_bytes32"
          }
        ],
        "numberOfBytes": "64"
      },
      "t_uint256": {
        "encoding": "inplace",
        "label": "uint256",
        "numberOfBytes": "32"
      }
    }
  }
}