{
  "address": "0x6e1d164c682698857EB22fB9a184B245329F7581",
  "abi": [
    {
      "inputs": [
        {
          "internalType": "contract IERC20",
          "name": "_underlying",
          "type": "address"
        },
        {
          "internalType": "uint64",
          "name": "_minLockPeriod",
          "type": "uint64"
        },
        {
          "internalType": "uint16",
          "name": "_investPerc",
          "type": "uint16"
        },
        {
          "internalType": "address",
          "name": "_treasury",
          "type": "address"
        },
        {
          "internalType": "address",
          "name": "_owner",
          "type": "address"
        },
        {
          "internalType": "uint16",
          "name": "_perfFeePct",
          "type": "uint16"
        }
      ],
      "stateMutability": "nonpayable",
      "type": "constructor"
    },
    {
      "anonymous": false,
      "inputs": [
        {
          "indexed": true,
          "internalType": "uint256",
          "name": "id",
          "type": "uint256"
        },
        {
          "indexed": false,
          "internalType": "uint256",
          "name": "shares",
          "type": "uint256"
        },
        {
          "indexed": true,
          "internalType": "address",
          "name": "to",
          "type": "address"
        }
      ],
      "name": "DepositBurned",
      "type": "event"
    },
    {
      "anonymous": false,
      "inputs": [
        {
          "indexed": true,
          "internalType": "uint256",
          "name": "id",
          "type": "uint256"
        },
        {
          "indexed": false,
          "internalType": "uint256",
          "name": "groupId",
          "type": "uint256"
        },
        {
          "indexed": false,
          "internalType": "uint256",
          "name": "amount",
          "type": "uint256"
        },
        {
          "indexed": false,
          "internalType": "uint256",
          "name": "shares",
          "type": "uint256"
        },
        {
          "indexed": true,
          "internalType": "address",
          "name": "depositor",
          "type": "address"
        },
        {
          "indexed": true,
          "internalType": "address",
          "name": "claimer",
          "type": "address"
        },
        {
          "indexed": false,
          "internalType": "uint256",
          "name": "claimerId",
          "type": "uint256"
        },
        {
          "indexed": false,
          "internalType": "uint64",
          "name": "lockedUntil",
          "type": "uint64"
        },
        {
          "indexed": false,
          "internalType": "bytes",
          "name": "data",
          "type": "bytes"
        }
      ],
      "name": "DepositMinted",
      "type": "event"
    },
    {
      "anonymous": false,
      "inputs": [
        {
          "indexed": false,
          "internalType": "uint256",
          "name": "amount",
          "type": "uint256"
        }
      ],
      "name": "FeeWithdrawn",
      "type": "event"
    },
    {
      "anonymous": false,
      "inputs": [
        {
          "indexed": false,
          "internalType": "uint256",
          "name": "percentage",
          "type": "uint256"
        }
      ],
      "name": "InvestPercentageUpdated",
      "type": "event"
    },
    {
      "anonymous": false,
      "inputs": [
        {
          "indexed": false,
          "internalType": "uint256",
          "name": "amount",
          "type": "uint256"
        }
      ],
      "name": "Invested",
      "type": "event"
    },
    {
      "anonymous": false,
      "inputs": [
        {
          "indexed": false,
          "internalType": "uint16",
          "name": "pct",
          "type": "uint16"
        }
      ],
      "name": "PerfFeePctUpdated",
      "type": "event"
    },
    {
      "anonymous": false,
      "inputs": [
        {
          "indexed": true,
          "internalType": "bytes32",
          "name": "role",
          "type": "bytes32"
        },
        {
          "indexed": true,
          "internalType": "bytes32",
          "name": "previousAdminRole",
          "type": "bytes32"
        },
        {
          "indexed": true,
          "internalType": "bytes32",
          "name": "newAdminRole",
          "type": "bytes32"
        }
      ],
      "name": "RoleAdminChanged",
      "type": "event"
    },
    {
      "anonymous": false,
      "inputs": [
        {
          "indexed": true,
          "internalType": "bytes32",
          "name": "role",
          "type": "bytes32"
        },
        {
          "indexed": true,
          "internalType": "address",
          "name": "account",
          "type": "address"
        },
        {
          "indexed": true,
          "internalType": "address",
          "name": "sender",
          "type": "address"
        }
      ],
      "name": "RoleGranted",
      "type": "event"
    },
    {
      "anonymous": false,
      "inputs": [
        {
          "indexed": true,
          "internalType": "bytes32",
          "name": "role",
          "type": "bytes32"
        },
        {
          "indexed": true,
          "internalType": "address",
          "name": "account",
          "type": "address"
        },
        {
          "indexed": true,
          "internalType": "address",
          "name": "sender",
          "type": "address"
        }
      ],
      "name": "RoleRevoked",
      "type": "event"
    },
    {
      "anonymous": false,
      "inputs": [
        {
          "indexed": true,
          "internalType": "uint256",
          "name": "id",
          "type": "uint256"
        },
        {
          "indexed": false,
          "internalType": "uint256",
          "name": "amount",
          "type": "uint256"
        },
        {
          "indexed": true,
          "internalType": "address",
          "name": "depositor",
          "type": "address"
        },
        {
          "indexed": false,
          "internalType": "uint256",
          "name": "lockedUntil",
          "type": "uint256"
        }
      ],
      "name": "Sponsored",
      "type": "event"
    },
    {
      "anonymous": false,
      "inputs": [
        {
          "indexed": true,
          "internalType": "address",
          "name": "strategy",
          "type": "address"
        }
      ],
      "name": "StrategyUpdated",
      "type": "event"
    },
    {
      "anonymous": false,
      "inputs": [
        {
          "indexed": true,
          "internalType": "address",
          "name": "treasury",
          "type": "address"
        }
      ],
      "name": "TreasuryUpdated",
      "type": "event"
    },
    {
      "anonymous": false,
      "inputs": [
        {
          "indexed": true,
          "internalType": "uint256",
          "name": "id",
          "type": "uint256"
        }
      ],
      "name": "Unsponsored",
      "type": "event"
    },
    {
      "anonymous": false,
      "inputs": [
        {
          "indexed": false,
          "internalType": "uint256",
          "name": "claimerId",
          "type": "uint256"
        },
        {
          "indexed": true,
          "internalType": "address",
          "name": "to",
          "type": "address"
        },
        {
          "indexed": false,
          "internalType": "uint256",
          "name": "amount",
          "type": "uint256"
        },
        {
          "indexed": false,
          "internalType": "uint256",
          "name": "burnedShares",
          "type": "uint256"
        },
        {
          "indexed": false,
          "internalType": "uint256",
          "name": "perfFee",
          "type": "uint256"
        }
      ],
      "name": "YieldClaimed",
      "type": "event"
    },
    {
      "inputs": [],
      "name": "DEFAULT_ADMIN_ROLE",
      "outputs": [
        {
          "internalType": "bytes32",
          "name": "",
          "type": "bytes32"
        }
      ],
      "stateMutability": "view",
      "type": "function"
    },
    {
      "inputs": [],
      "name": "INVESTOR_ROLE",
      "outputs": [
        {
          "internalType": "bytes32",
          "name": "",
          "type": "bytes32"
        }
      ],
      "stateMutability": "view",
      "type": "function"
    },
    {
      "inputs": [],
      "name": "MAX_DEPOSIT_LOCK_DURATION",
      "outputs": [
        {
          "internalType": "uint64",
          "name": "",
          "type": "uint64"
        }
      ],
      "stateMutability": "view",
      "type": "function"
    },
    {
      "inputs": [],
      "name": "MAX_SPONSOR_LOCK_DURATION",
      "outputs": [
        {
          "internalType": "uint64",
          "name": "",
          "type": "uint64"
        }
      ],
      "stateMutability": "view",
      "type": "function"
    },
    {
      "inputs": [],
      "name": "MIN_SPONSOR_LOCK_DURATION",
      "outputs": [
        {
          "internalType": "uint64",
          "name": "",
          "type": "uint64"
        }
      ],
      "stateMutability": "view",
      "type": "function"
    },
    {
      "inputs": [],
      "name": "SHARES_MULTIPLIER",
      "outputs": [
        {
          "internalType": "uint256",
          "name": "",
          "type": "uint256"
        }
      ],
      "stateMutability": "view",
      "type": "function"
    },
    {
      "inputs": [],
      "name": "accumulatedPerfFee",
      "outputs": [
        {
          "internalType": "uint256",
          "name": "",
          "type": "uint256"
        }
      ],
      "stateMutability": "view",
      "type": "function"
    },
    {
      "inputs": [
        {
          "internalType": "address",
          "name": "_to",
          "type": "address"
        }
      ],
      "name": "claimYield",
      "outputs": [],
      "stateMutability": "nonpayable",
      "type": "function"
    },
    {
      "inputs": [
        {
          "internalType": "uint256",
          "name": "",
          "type": "uint256"
        }
      ],
      "name": "claimer",
      "outputs": [
        {
          "internalType": "uint256",
          "name": "totalPrincipal",
          "type": "uint256"
        },
        {
          "internalType": "uint256",
          "name": "totalShares",
          "type": "uint256"
        }
      ],
      "stateMutability": "view",
      "type": "function"
    },
    {
      "inputs": [],
      "name": "claimers",
      "outputs": [
        {
          "internalType": "contract Claimers",
          "name": "",
          "type": "address"
        }
      ],
      "stateMutability": "view",
      "type": "function"
    },
    {
      "inputs": [
        {
          "components": [
            {
              "internalType": "uint256",
              "name": "amount",
              "type": "uint256"
            },
            {
              "components": [
                {
                  "internalType": "uint16",
                  "name": "pct",
                  "type": "uint16"
                },
                {
                  "internalType": "address",
                  "name": "beneficiary",
                  "type": "address"
                },
                {
                  "internalType": "bytes",
                  "name": "data",
                  "type": "bytes"
                }
              ],
              "internalType": "struct IVault.ClaimParams[]",
              "name": "claims",
              "type": "tuple[]"
            },
            {
              "internalType": "uint64",
              "name": "lockDuration",
              "type": "uint64"
            }
          ],
          "internalType": "struct IVault.DepositParams",
          "name": "_params",
          "type": "tuple"
        }
      ],
      "name": "deposit",
      "outputs": [
        {
          "internalType": "uint256[]",
          "name": "depositIds",
          "type": "uint256[]"
        }
      ],
      "stateMutability": "nonpayable",
      "type": "function"
    },
    {
      "inputs": [],
      "name": "depositors",
      "outputs": [
        {
          "internalType": "contract Depositors",
          "name": "",
          "type": "address"
        }
      ],
      "stateMutability": "view",
      "type": "function"
    },
    {
      "inputs": [
        {
          "internalType": "uint256",
          "name": "",
          "type": "uint256"
        }
      ],
      "name": "deposits",
      "outputs": [
        {
          "internalType": "uint256",
          "name": "amount",
          "type": "uint256"
        },
        {
          "internalType": "uint256",
          "name": "claimerId",
          "type": "uint256"
        },
        {
          "internalType": "uint256",
          "name": "lockedUntil",
          "type": "uint256"
        },
        {
          "internalType": "uint256",
          "name": "shares",
          "type": "uint256"
        }
      ],
      "stateMutability": "view",
      "type": "function"
    },
    {
      "inputs": [
        {
          "internalType": "address",
          "name": "_to",
          "type": "address"
        },
        {
          "internalType": "uint256[]",
          "name": "_ids",
          "type": "uint256[]"
        }
      ],
      "name": "forceWithdraw",
      "outputs": [],
      "stateMutability": "nonpayable",
      "type": "function"
    },
    {
      "inputs": [
        {
          "internalType": "bytes32",
          "name": "role",
          "type": "bytes32"
        }
      ],
      "name": "getRoleAdmin",
      "outputs": [
        {
          "internalType": "bytes32",
          "name": "",
          "type": "bytes32"
        }
      ],
      "stateMutability": "view",
      "type": "function"
    },
    {
      "inputs": [
        {
          "internalType": "bytes32",
          "name": "role",
          "type": "bytes32"
        },
        {
          "internalType": "address",
          "name": "account",
          "type": "address"
        }
      ],
      "name": "grantRole",
      "outputs": [],
      "stateMutability": "nonpayable",
      "type": "function"
    },
    {
      "inputs": [
        {
          "internalType": "bytes32",
          "name": "role",
          "type": "bytes32"
        },
        {
          "internalType": "address",
          "name": "account",
          "type": "address"
        }
      ],
      "name": "hasRole",
      "outputs": [
        {
          "internalType": "bool",
          "name": "",
          "type": "bool"
        }
      ],
      "stateMutability": "view",
      "type": "function"
    },
    {
      "inputs": [],
      "name": "investPerc",
      "outputs": [
        {
          "internalType": "uint16",
          "name": "",
          "type": "uint16"
        }
      ],
      "stateMutability": "view",
      "type": "function"
    },
    {
      "inputs": [],
      "name": "investableAmount",
      "outputs": [
        {
          "internalType": "uint256",
          "name": "",
          "type": "uint256"
        }
      ],
      "stateMutability": "view",
      "type": "function"
    },
    {
      "inputs": [],
      "name": "minLockPeriod",
      "outputs": [
        {
          "internalType": "uint64",
          "name": "",
          "type": "uint64"
        }
      ],
      "stateMutability": "view",
      "type": "function"
    },
    {
      "inputs": [],
      "name": "perfFeePct",
      "outputs": [
        {
          "internalType": "uint16",
          "name": "",
          "type": "uint16"
        }
      ],
      "stateMutability": "view",
      "type": "function"
    },
    {
      "inputs": [
        {
          "internalType": "uint256",
          "name": "claimerId",
          "type": "uint256"
        }
      ],
      "name": "principalOf",
      "outputs": [
        {
          "internalType": "uint256",
          "name": "",
          "type": "uint256"
        }
      ],
      "stateMutability": "view",
      "type": "function"
    },
    {
      "inputs": [
        {
          "internalType": "bytes32",
          "name": "role",
          "type": "bytes32"
        },
        {
          "internalType": "address",
          "name": "account",
          "type": "address"
        }
      ],
      "name": "renounceRole",
      "outputs": [],
      "stateMutability": "nonpayable",
      "type": "function"
    },
    {
      "inputs": [
        {
          "internalType": "bytes32",
          "name": "role",
          "type": "bytes32"
        },
        {
          "internalType": "address",
          "name": "account",
          "type": "address"
        }
      ],
      "name": "revokeRole",
      "outputs": [],
      "stateMutability": "nonpayable",
      "type": "function"
    },
    {
      "inputs": [
        {
          "internalType": "uint16",
          "name": "_investPerc",
          "type": "uint16"
        }
      ],
      "name": "setInvestPerc",
      "outputs": [],
      "stateMutability": "nonpayable",
      "type": "function"
    },
    {
      "inputs": [
        {
          "internalType": "uint16",
          "name": "_perfFeePct",
          "type": "uint16"
        }
      ],
      "name": "setPerfFeePct",
      "outputs": [],
      "stateMutability": "nonpayable",
      "type": "function"
    },
    {
      "inputs": [
        {
          "internalType": "address",
          "name": "_strategy",
          "type": "address"
        }
      ],
      "name": "setStrategy",
      "outputs": [],
      "stateMutability": "nonpayable",
      "type": "function"
    },
    {
      "inputs": [
        {
          "internalType": "address",
          "name": "_treasury",
          "type": "address"
        }
      ],
      "name": "setTreasury",
      "outputs": [],
      "stateMutability": "nonpayable",
      "type": "function"
    },
    {
      "inputs": [
        {
          "internalType": "uint256",
          "name": "claimerId",
          "type": "uint256"
        }
      ],
      "name": "sharesOf",
      "outputs": [
        {
          "internalType": "uint256",
          "name": "",
          "type": "uint256"
        }
      ],
      "stateMutability": "view",
      "type": "function"
    },
    {
      "inputs": [
        {
          "internalType": "uint256",
          "name": "_amount",
          "type": "uint256"
        },
        {
          "internalType": "uint256",
          "name": "_lockDuration",
          "type": "uint256"
        }
      ],
      "name": "sponsor",
      "outputs": [],
      "stateMutability": "nonpayable",
      "type": "function"
    },
    {
      "inputs": [],
      "name": "strategy",
      "outputs": [
        {
          "internalType": "contract IStrategy",
          "name": "",
          "type": "address"
        }
      ],
      "stateMutability": "view",
      "type": "function"
    },
    {
      "inputs": [
        {
          "internalType": "bytes4",
          "name": "interfaceId",
          "type": "bytes4"
        }
      ],
      "name": "supportsInterface",
      "outputs": [
        {
          "internalType": "bool",
          "name": "",
          "type": "bool"
        }
      ],
      "stateMutability": "view",
      "type": "function"
    },
    {
      "inputs": [],
      "name": "totalPrincipal",
      "outputs": [
        {
          "internalType": "uint256",
          "name": "",
          "type": "uint256"
        }
      ],
      "stateMutability": "view",
      "type": "function"
    },
    {
      "inputs": [],
      "name": "totalShares",
      "outputs": [
        {
          "internalType": "uint256",
          "name": "",
          "type": "uint256"
        }
      ],
      "stateMutability": "view",
      "type": "function"
    },
    {
      "inputs": [],
      "name": "totalSponsored",
      "outputs": [
        {
          "internalType": "uint256",
          "name": "",
          "type": "uint256"
        }
      ],
      "stateMutability": "view",
      "type": "function"
    },
    {
      "inputs": [],
      "name": "totalUnderlying",
      "outputs": [
        {
          "internalType": "uint256",
          "name": "",
          "type": "uint256"
        }
      ],
      "stateMutability": "view",
      "type": "function"
    },
    {
      "inputs": [],
      "name": "totalUnderlyingMinusSponsored",
      "outputs": [
        {
          "internalType": "uint256",
          "name": "",
          "type": "uint256"
        }
      ],
      "stateMutability": "view",
      "type": "function"
    },
    {
      "inputs": [],
      "name": "treasury",
      "outputs": [
        {
          "internalType": "address",
          "name": "",
          "type": "address"
        }
      ],
      "stateMutability": "view",
      "type": "function"
    },
    {
      "inputs": [],
      "name": "underlying",
      "outputs": [
        {
          "internalType": "contract IERC20",
          "name": "",
          "type": "address"
        }
      ],
      "stateMutability": "view",
      "type": "function"
    },
    {
      "inputs": [
        {
          "internalType": "address",
          "name": "_to",
          "type": "address"
        },
        {
          "internalType": "uint256[]",
          "name": "_ids",
          "type": "uint256[]"
        }
      ],
      "name": "unsponsor",
      "outputs": [],
      "stateMutability": "nonpayable",
      "type": "function"
    },
    {
      "inputs": [
        {
          "internalType": "bytes",
          "name": "data",
          "type": "bytes"
        }
      ],
      "name": "updateInvested",
      "outputs": [],
      "stateMutability": "nonpayable",
      "type": "function"
    },
    {
      "inputs": [
        {
          "internalType": "address",
          "name": "_to",
          "type": "address"
        },
        {
          "internalType": "uint256[]",
          "name": "_ids",
          "type": "uint256[]"
        }
      ],
      "name": "withdraw",
      "outputs": [],
      "stateMutability": "nonpayable",
      "type": "function"
    },
    {
      "inputs": [],
      "name": "withdrawPerformanceFee",
      "outputs": [],
      "stateMutability": "nonpayable",
      "type": "function"
    },
    {
      "inputs": [
        {
          "internalType": "address",
          "name": "_to",
          "type": "address"
        }
      ],
      "name": "yieldFor",
      "outputs": [
        {
          "internalType": "uint256",
          "name": "claimableYield",
          "type": "uint256"
        },
        {
          "internalType": "uint256",
          "name": "shares",
          "type": "uint256"
        },
        {
          "internalType": "uint256",
          "name": "perfFee",
          "type": "uint256"
        }
      ],
      "stateMutability": "view",
      "type": "function"
    }
  ],
  "transactionHash": "0x5d9999d2f849100377fb85c92a6392b94491caf751dfc600066d189760fddffb",
  "args": [
    "0x6cA13a4ab78dd7D657226b155873A04DB929A3A4",
    1,
    9000,
    "0x5A73c07163ACAE03e59c15697f79284b3bda2F2A",
    "0x5A73c07163ACAE03e59c15697f79284b3bda2F2A",
    100
  ],
  "numDeployments": 1,
  "solcInputHash": "3161ec0bcaba4de35ba8de33a6b7b801",
  "bytecode": "0x60a06040523480156200001157600080fd5b50604051620079e3380380620079e38339810160408190526200003491620004fe565b60018081905550620000558461ffff16620003f960201b62001c461760201c565b620000a75760405162461bcd60e51b815260206004820152601960248201527f5661756c743a20696e76616c696420696e76657374506572630000000000000060448201526064015b60405180910390fd5b620000c18161ffff16620003f960201b62001c461760201c565b6200010f5760405162461bcd60e51b815260206004820152601e60248201527f5661756c743a20696e76616c696420706572666f726d616e636520666565000060448201526064016200009e565b6001600160a01b038616620001675760405162461bcd60e51b815260206004820152601f60248201527f5661756c743a20756e6465726c79696e672063616e6e6f74206265203078300060448201526064016200009e565b6001600160a01b038316620001bf5760405162461bcd60e51b815260206004820152601d60248201527f5661756c743a2074726561737572792063616e6e6f742062652030783000000060448201526064016200009e565b6001600160a01b038216620002175760405162461bcd60e51b815260206004820152601a60248201527f5661756c743a206f776e65722063616e6e6f742062652030783000000000000060448201526064016200009e565b6001600160401b038516158015906200023c575062dd7c006001600160401b03861611155b6200028a5760405162461bcd60e51b815260206004820152601c60248201527f5661756c743a20696e76616c6964206d696e4c6f636b506572696f640000000060448201526064016200009e565b6200029760008362000401565b620002c37fb165298935924f540e4181c03493a5d686c54a0aaeb3f6216de85b7ffbba77388362000401565b6003805461ffff60a01b1916600160a01b61ffff878116820292909217909255600280546001600160a01b0319166001600160a01b038a811691909117909155600e80546001600160401b038a166080529187166001600160b01b03199092169190911791841690920217905560405130906200034090620004b1565b6001600160a01b039091168152602001604051809103906000f0801580156200036d573d6000803e3d6000fd5b50600580546001600160a01b0319166001600160a01b039290921691909117905560405130906200039e90620004bf565b6001600160a01b039091168152602001604051809103906000f080158015620003cb573d6000803e3d6000fd5b50600680546001600160a01b0319166001600160a01b03929092169190911790555062000594945050505050565b612710101590565b6200040d828262000411565b5050565b6000828152602081815260408083206001600160a01b038516845290915290205460ff166200040d576000828152602081815260408083206001600160a01b03851684529091529020805460ff191660011790556200046d3390565b6001600160a01b0316816001600160a01b0316837f2f8788117e7eff1d82e926ec794901d17c78024a50270940304540a733656f0d60405160405180910390a45050565b611c8d806200406f83390190565b611ce78062005cfc83390190565b6001600160a01b0381168114620004e357600080fd5b50565b805161ffff81168114620004f957600080fd5b919050565b60008060008060008060c087890312156200051857600080fd5b86516200052581620004cd565b60208801519096506001600160401b03811681146200054357600080fd5b94506200055360408801620004e6565b935060608701516200056581620004cd565b60808801519093506200057881620004cd565b91506200058860a08801620004e6565b90509295509295509295565b608051613ab8620005b76000396000818161045001526113f10152613ab86000f3fe608060405234801561001057600080fd5b50600436106102f45760003560e01c8063908de6c211610191578063bba97d33116100e3578063d9db2b7711610097578063e84b25a211610071578063e84b25a2146106ff578063eb0ebfbc14610712578063f0f442601461071b57600080fd5b8063d9db2b77146106c4578063df6f9ba7146106d9578063e4020fdf146106ec57600080fd5b8063c0ddb692116100c8578063c0ddb692146106a1578063c70920bc146106a9578063d547741f146106b157600080fd5b8063bba97d3314610673578063bd2e3ecd146104b257600080fd5b8063a217fddf11610145578063ad44b94a1161011f578063ad44b94a146105f6578063b02c43d014610616578063b0c29efe1461066b57600080fd5b8063a217fddf146105c8578063a8c62e76146105d0578063aaa46688146105e357600080fd5b8063947fdb8b11610176578063947fdb8b14610598578063999927df146105ab578063a164c25d146105be57600080fd5b8063908de6c21461054157806391d148541461056157600080fd5b80634b1533b21161024a57806376082a5e116101fe5780638293744b116101d85780638293744b146104f8578063878ecfec1461050b5780638b6ed67d1461052e57600080fd5b806376082a5e1461048b57806376490b56146104b25780637c2032e7146104bc57600080fd5b806361d027b31161022f57806361d027b31461040d5780636f307dc31461043857806373ae54b51461044b57600080fd5b80634b1533b2146103f1578063563233f6146103fa57600080fd5b80632f2ff15d116102ac5780633a98ef39116102865780633a98ef39146103b85780633ba52fc6146103c15780633c90a170146103c957600080fd5b80632f2ff15d1461037f57806333a100ca1461039257806336568abe146103a557600080fd5b806319d3ee3d116102dd57806319d3ee3d1461033e578063248a9ca31461034757806324f2db0c1461036a57600080fd5b806301ffc9a7146102f95780631325d5f114610321575b600080fd5b61030c610307366004613284565b61072e565b60405190151581526020015b60405180910390f35b610330670de0b6b3a764000081565b604051908152602001610318565b610330600f5481565b6103306103553660046132ae565b60009081526020819052604090206001015490565b61037d6103783660046132c7565b6107a6565b005b61037d61038d366004613351565b61095a565b61037d6103a0366004613381565b610985565b61037d6103b3366004613351565b610bff565b610330600c5481565b61037d610c8b565b6003546103de90600160a01b900461ffff1681565b60405161ffff9091168152602001610318565b610330600d5481565b61037d6104083660046133b5565b610d5b565b600e54610420906001600160a01b031681565b6040516001600160a01b039091168152602001610318565b600254610420906001600160a01b031681565b6104727f000000000000000000000000000000000000000000000000000000000000000081565b60405167ffffffffffffffff9091168152602001610318565b6103307fb165298935924f540e4181c03493a5d686c54a0aaeb3f6216de85b7ffbba773881565b61047262dd7c0081565b6104e36104ca3660046132ae565b600a602052600090815260409020805460019091015482565b60408051928352602083019190915201610318565b61037d6105063660046133d0565b610e14565b6103306105193660046132ae565b6000908152600a602052604090206001015490565b600654610420906001600160a01b031681565b61033061054f3660046132ae565b6000908152600a602052604090205490565b61030c61056f366004613351565b6000918252602082815260408084206001600160a01b0393909316845291905290205460ff1690565b61037d6105a6366004613458565b610ed8565b61037d6105b9366004613381565b611121565b6104726212750081565b610330600081565b600354610420906001600160a01b031681565b600554610420906001600160a01b031681565b61060961060436600461347a565b61133e565b60405161031891906134b5565b61064b6106243660046132ae565b60086020526000908152604090208054600182015460028301546003909301549192909184565b604080519485526020850193909352918301526060820152608001610318565b61033061157c565b610686610681366004613381565b61163f565b60408051938452602084019290925290820152606001610318565b61033061178b565b6103306117bd565b61037d6106bf366004613351565b61192f565b600e546103de90600160a01b900461ffff1681565b61037d6106e73660046133d0565b611955565b61037d6106fa366004613569565b611a10565b61037d61070d3660046133b5565b611ad0565b61033060045481565b61037d610729366004613381565b611b8c565b60006001600160e01b031982167fe60b5ac500000000000000000000000000000000000000000000000000000000148061079157506001600160e01b031982167f9b736be800000000000000000000000000000000000000000000000000000000145b806107a057506107a082611c4e565b92915050565b7fb165298935924f540e4181c03493a5d686c54a0aaeb3f6216de85b7ffbba77386107d18133611cb5565b6003546001600160a01b031661082e5760405162461bcd60e51b815260206004820152601a60248201527f5661756c743a207374726174656779206973206e6f742073657400000000000060448201526064015b60405180910390fd5b600061083861157c565b9050806108875760405162461bcd60e51b815260206004820152601860248201527f5661756c743a206e6f7468696e6720746f20696e7665737400000000000000006044820152606401610825565b6003546002546108a4916001600160a01b03918216911683611d33565b6040518181527fac9f7997c30b6a3cc9c74953898b5de154359339c7ec0d6d70ceb98e55db1a4b9060200160405180910390a16003546040517f8842db470000000000000000000000000000000000000000000000000000000081526001600160a01b0390911690638842db47906109229087908790600401613624565b600060405180830381600087803b15801561093c57600080fd5b505af1158015610950573d6000803e3d6000fd5b5050505050505050565b6000828152602081905260409020600101546109768133611cb5565b6109808383611dc4565b505050565b60006109918133611cb5565b6001600160a01b0382166109e75760405162461bcd60e51b815260206004820152601260248201527f5661756c743a20737472617465677920307800000000000000000000000000006044820152606401610825565b306001600160a01b0316826001600160a01b031663fbfa77cf6040518163ffffffff1660e01b8152600401602060405180830381865afa158015610a2f573d6000803e3d6000fd5b505050506040513d601f19601f82011682018060405250810190610a539190613653565b6001600160a01b031614610aa95760405162461bcd60e51b815260206004820152601460248201527f5661756c743a20696e76616c6964207661756c740000000000000000000000006044820152606401610825565b6003546001600160a01b03161580610b355750600360009054906101000a90046001600160a01b03166001600160a01b0316635be9b2d36040518163ffffffff1660e01b8152600401602060405180830381865afa158015610b0f573d6000803e3d6000fd5b505050506040513d601f19601f82011682018060405250810190610b339190613670565b155b610ba75760405162461bcd60e51b815260206004820152602260248201527f5661756c743a2073747261746567792068617320696e7665737465642066756e60448201527f64730000000000000000000000000000000000000000000000000000000000006064820152608401610825565b6003805473ffffffffffffffffffffffffffffffffffffffff19166001600160a01b0384169081179091556040517f4da9c22c924692646a21cf1f423781ae3285198dc22e8a6912835d3272b90b3c90600090a25050565b6001600160a01b0381163314610c7d5760405162461bcd60e51b815260206004820152602f60248201527f416363657373436f6e74726f6c3a2063616e206f6e6c792072656e6f756e636560448201527f20726f6c657320666f722073656c6600000000000000000000000000000000006064820152608401610825565b610c878282611e62565b5050565b7fb165298935924f540e4181c03493a5d686c54a0aaeb3f6216de85b7ffbba7738610cb68133611cb5565b600f5480610d065760405162461bcd60e51b815260206004820152601960248201527f5661756c743a206e6f20706572666f726d616e636520666565000000000000006044820152606401610825565b6000600f556040518181527fb7eeacba6b133788365610e83d3f130d07b6ef6e78877961f25b3f61fcba07529060200160405180910390a1600e54600254610c87916001600160a01b03918216911683611d33565b6000610d678133611cb5565b61ffff82166127101015610dbd5760405162461bcd60e51b815260206004820152601e60248201527f5661756c743a20696e76616c696420706572666f726d616e63652066656500006044820152606401610825565b600e805461ffff60a01b1916600160a01b61ffff8516908102919091179091556040519081527f16de0efbdf16c568a60b65978ed774bba4e0c179de55ab8f639527e41fd0c8619060200160405180910390a15050565b60026001541415610e675760405162461bcd60e51b815260206004820152601f60248201527f5265656e7472616e637947756172643a207265656e7472616e742063616c6c006044820152606401610825565b60026001556001600160a01b038316610ec25760405162461bcd60e51b815260206004820181905260248201527f5661756c743a2064657374696e6174696f6e20616464726573732069732030786044820152606401610825565b610ecf8383836000611ee1565b50506001805550565b60026001541415610f2b5760405162461bcd60e51b815260206004820152601f60248201527f5265656e7472616e637947756172643a207265656e7472616e742063616c6c006044820152606401610825565b600260015581610f7d5760405162461bcd60e51b815260206004820152601760248201527f5661756c743a2063616e6e6f742073706f6e736f7220300000000000000000006044820152606401610825565b621275008110801590610f93575062dd7c008111155b610fdf5760405162461bcd60e51b815260206004820152601a60248201527f5661756c743a20696e76616c6964206c6f636b20706572696f640000000000006044820152606401610825565b6000610feb42836136a8565b6005549091506000906001600160a01b0316636a627842336040516001600160e01b031960e084901b1681526001600160a01b0390911660048201526024016020604051808303816000875af1158015611049573d6000803e3d6000fd5b505050506040513d601f19601f8201168201806040525081019061106d91906136c0565b6040805160808101825286815260006020808301828152838501888152606085018481528785526008845293869020945185559051600185015551600284015590516003909201919091558151878152908101859052919250339183917f7ca3497675c6d3ec00b1edc13b8e0b06169ee96a663ab25a74af7da53378f09e910160405180910390a3836004600082825461110791906136a8565b9091555061111790503385611f56565b5050600180555050565b600260015414156111745760405162461bcd60e51b815260206004820152601f60248201527f5265656e7472616e637947756172643a207265656e7472616e742063616c6c006044820152606401610825565b60026001556001600160a01b0381166111cf5760405162461bcd60e51b815260206004820181905260248201527f5661756c743a2064657374696e6174696f6e20616464726573732069732030786044820152606401610825565b600080806111dc3361163f565b92509250925082600014156111f357505050611337565b6006546000906001600160a01b03166342ec38e2336040516001600160e01b031960e084901b1681526001600160a01b039091166004820152602401602060405180830381865afa15801561124c573d6000803e3d6000fd5b505050506040513d601f19601f8201168201806040525081019061127091906136c0565b905081600f600082825461128491906136a8565b90915550506002546112a0906001600160a01b03168686611d33565b6000818152600a6020526040812060010180548592906112c19084906136d9565b9250508190555082600c60008282546112da91906136d9565b90915550506040805182815260208101869052908101849052606081018390526001600160a01b038616907faa10242dc423338eccdf5e90ebc4038c1472ee3ecb198beb02fc0375aa0200859060800160405180910390a2505050505b5060018055565b6060600260015414156113935760405162461bcd60e51b815260206004820152601f60248201527f5265656e7472616e637947756172643a207265656e7472616e742063616c6c006044820152606401610825565b600260015581356113e65760405162461bcd60e51b815260206004820152601760248201527f5661756c743a2063616e6e6f74206465706f73697420300000000000000000006044820152606401610825565b67ffffffffffffffff7f00000000000000000000000000000000000000000000000000000000000000001661142160608401604085016136f0565b67ffffffffffffffff1610158015611455575062dd7c0061144860608401604085016136f0565b67ffffffffffffffff1611155b6114a15760405162461bcd60e51b815260206004820152601a60248201527f5661756c743a20696e76616c6964206c6f636b20706572696f640000000000006044820152606401610825565b60006114ae600d546120d1565b90506114b861178b565b81111561152d5760405162461bcd60e51b815260206004820152602c60248201527f5661756c743a2063616e6e6f74206465706f736974207768656e207969656c6460448201527f206973206e6567617469766500000000000000000000000000000000000000006064820152608401610825565b60004261154060608601604087016136f0565b61154a919061371a565b905061156484358261155f6020880188613746565b61216e565b9250611571338535611f56565b505060018055919050565b6000806115a1600360149054906101000a900461ffff1661159b6117bd565b90612415565b90506000600360009054906101000a90046001600160a01b03166001600160a01b0316634ad0b6846040518163ffffffff1660e01b8152600401602060405180830381865afa1580156115f8573d6000803e3d6000fd5b505050506040513d601f19601f8201168201806040525081019061161c91906136c0565b905081811061162e5760009250505090565b61163881836136d9565b9250505090565b6006546040517f42ec38e20000000000000000000000000000000000000000000000000000000081526001600160a01b03838116600483015260009283928392839216906342ec38e290602401602060405180830381865afa1580156116a9573d6000803e3d6000fd5b505050506040513d601f19601f820116820180604052508101906116cd91906136c0565b6000818152600a602052604081208054600190910154600c5493945090929091906117019083906116fc61178b565b612439565b905082811161171e57600080600096509650965050505050611784565b600061172a84836136d9565b905061174081600c5461173b61178b565b612479565b9650600061175388600c546116fc61178b565b600e5490915061176f908290600160a01b900461ffff16612415565b965061177b87826136d9565b98505050505050505b9193909250565b6000806117966117bd565b90506000600f546004546117aa91906136a8565b90508181111561162e5760009250505090565b6003546000906001600160a01b0316156118c357600360009054906101000a90046001600160a01b03166001600160a01b0316634ad0b6846040518163ffffffff1660e01b8152600401602060405180830381865afa158015611824573d6000803e3d6000fd5b505050506040513d601f19601f8201168201806040525081019061184891906136c0565b6002546040516370a0823160e01b81523060048201526001600160a01b03909116906370a0823190602401602060405180830381865afa158015611890573d6000803e3d6000fd5b505050506040513d601f19601f820116820180604052508101906118b491906136c0565b6118be91906136a8565b905090565b6002546040516370a0823160e01b81523060048201526001600160a01b03909116906370a0823190602401602060405180830381865afa15801561190b573d6000803e3d6000fd5b505050506040513d601f19601f820116820180604052508101906118be91906136c0565b60008281526020819052604090206001015461194b8133611cb5565b6109808383611e62565b600260015414156119a85760405162461bcd60e51b815260206004820152601f60248201527f5265656e7472616e637947756172643a207265656e7472616e742063616c6c006044820152606401610825565b60026001556001600160a01b038316611a035760405162461bcd60e51b815260206004820181905260248201527f5661756c743a2064657374696e6174696f6e20616464726573732069732030786044820152606401610825565b610ecf8383836001611ee1565b60026001541415611a635760405162461bcd60e51b815260206004820152601f60248201527f5265656e7472616e637947756172643a207265656e7472616e742063616c6c006044820152606401610825565b60026001556001600160a01b038216611abe5760405162461bcd60e51b815260206004820181905260248201527f5661756c743a2064657374696e6174696f6e20616464726573732069732030786044820152606401610825565b611ac88282612524565b505060018055565b6000611adc8133611cb5565b61ffff82166127101015611b325760405162461bcd60e51b815260206004820152601960248201527f5661756c743a20696e76616c696420696e7665737450657263000000000000006044820152606401610825565b60405161ffff831681527fdd970e7931ce785c1e52bab847c1a662f017c55c66edb76ddebbf61b5aa307859060200160405180910390a1506003805461ffff909216600160a01b0261ffff60a01b19909216919091179055565b6000611b988133611cb5565b6001600160a01b038216611bee5760405162461bcd60e51b815260206004820152601d60248201527f5661756c743a2074726561737572792063616e6e6f74206265203078300000006044820152606401610825565b600e805473ffffffffffffffffffffffffffffffffffffffff19166001600160a01b0384169081179091556040517f7dae230f18360d76a040c81f050aa14eb9d6dc7901b20fc5d855e2a20fe814d190600090a25050565b612710101590565b60006001600160e01b031982167f7965db0b0000000000000000000000000000000000000000000000000000000014806107a057507f01ffc9a7000000000000000000000000000000000000000000000000000000006001600160e01b03198316146107a0565b6000828152602081815260408083206001600160a01b038516845290915290205460ff16610c8757611cf1816001600160a01b03166014612826565b611cfc836020612826565b604051602001611d0d9291906137c3565b60408051601f198184030181529082905262461bcd60e51b825261082591600401613870565b6040516001600160a01b0383166024820152604481018290526109809084907fa9059cbb00000000000000000000000000000000000000000000000000000000906064015b60408051601f198184030181529190526020810180517bffffffffffffffffffffffffffffffffffffffffffffffffffffffff166001600160e01b031990931692909217909152612a07565b6000828152602081815260408083206001600160a01b038516845290915290205460ff16610c87576000828152602081815260408083206001600160a01b03851684529091529020805460ff19166001179055611e1e3390565b6001600160a01b0316816001600160a01b0316837f2f8788117e7eff1d82e926ec794901d17c78024a50270940304540a733656f0d60405160405180910390a45050565b6000828152602081815260408083206001600160a01b038516845290915290205460ff1615610c87576000828152602081815260408083206001600160a01b0385168085529252808320805460ff1916905551339285917ff6391f5c32d9c69d2a47ea670b442974b53935d1edc7fd64eb21e047a839171b9190a45050565b600c546000611eee61178b565b9050600084815b81811015611f3e57611f22888883818110611f1257611f12613883565b9050602002013586868c8a612aec565b611f2c90846136a8565b9250611f3781613899565b9050611ef5565b50600254610950906001600160a01b03168984611d33565b6002546040516370a0823160e01b81523060048201526000916001600160a01b0316906370a0823190602401602060405180830381865afa158015611f9f573d6000803e3d6000fd5b505050506040513d601f19601f82011682018060405250810190611fc391906136c0565b600254909150611fde906001600160a01b0316843085612ec7565b6002546040516370a0823160e01b81523060048201526000916001600160a01b0316906370a0823190602401602060405180830381865afa158015612027573d6000803e3d6000fd5b505050506040513d601f19601f8201168201806040525081019061204b91906136c0565b905061205783836136a8565b81146120cb5760405162461bcd60e51b815260206004820152602c60248201527f5661756c743a20616d6f756e7420726563656976656420646f6573206e6f742060448201527f6d6174636820706172616d7300000000000000000000000000000000000000006064820152608401610825565b50505050565b6003546000906001600160a01b03166120e8575090565b6003546040517f93c3a68f000000000000000000000000000000000000000000000000000000008152600481018490526001600160a01b03909116906393c3a68f90602401602060405180830381865afa15801561214a573d6000803e3d6000fd5b505050506040513d601f19601f820116820180604052508101906107a091906136c0565b606060006040518060c00160405280600c54815260200161218d61178b565b815260200161219b60075490565b8152602001600061ffff1681526020016000815260200185859050815250905060008160a0015167ffffffffffffffff8111156121da576121da6134f9565b604051908082528060200260200182016040528015612203578160200160208202803683370190505b50905060005b8260a0015181101561237757600086868381811061222957612229613883565b905060200281019061223b91906138b4565b612244906138d4565b805190915061ffff166122bf5760405162461bcd60e51b815260206004820152602360248201527f5661756c743a20636c61696d2070657263656e746167652063616e6e6f74206260448201527f65203000000000000000000000000000000000000000000000000000000000006064820152608401610825565b600060018560a001516122d291906136d9565b83146122ea5781516122e5908b90612415565b6122f9565b60808501516122f9908b6136d9565b90506123158560400151828b8589600001518a60200151612f18565b84848151811061232757612327613883565b60209081029190910101528151606086018051612345908390613994565b61ffff169052506080850180518291906123609083906136a8565b9052506123709150829050613899565b9050612209565b5061238b826060015161ffff166127101490565b6123fd5760405162461bcd60e51b815260206004820152602260248201527f5661756c743a20636c61696d7320646f6e27742061646420757020746f20313060448201527f30250000000000000000000000000000000000000000000000000000000000006064820152608401610825565b61240b600780546001019055565b9695505050505050565b600061271061242861ffff8416856139b1565b61243291906139d0565b9392505050565b6000831580612446575082155b8061244f575081155b1561245c57506000612432565b8261246785846139b1565b61247191906139d0565b949350505050565b60008361248857506000612432565b826124a65761249f670de0b6b3a7640000856139b1565b9050612432565b816125195760405162461bcd60e51b815260206004820152603660248201527f5661756c743a2063616e6e6f7420636f6d70757465207368617265732077686560448201527f6e2074686572652773206e6f207072696e636970616c000000000000000000006064820152608401610825565b8161246784866139b1565b8051600090815b818160ff161015612798576000848260ff168151811061254d5761254d613883565b602090810291909101810151600081815260089092526040808320600281015460019091015460055492516331a9108f60e11b8152600481018590529395509093909290916001600160a01b031690636352211e90602401602060405180830381865afa1580156125c2573d6000803e3d6000fd5b505050506040513d601f19601f820116820180604052508101906125e69190613653565b6000858152600860205260409020549091506001600160a01b03821633146126505760405162461bcd60e51b815260206004820152601a60248201527f5661756c743a20796f7520617265206e6f7420616c6c6f7765640000000000006044820152606401610825565b428411156126a05760405162461bcd60e51b815260206004820152601760248201527f5661756c743a20616d6f756e74206973206c6f636b65640000000000000000006044820152606401610825565b82156126ee5760405162461bcd60e51b815260206004820181905260248201527f5661756c743a20746f6b656e206964206973206e6f7420612073706f6e736f726044820152606401610825565b6126f881896136a8565b600554604051630852cd8d60e31b8152600481018890529199506001600160a01b0316906342966c6890602401600060405180830381600087803b15801561273f57600080fd5b505af1158015612753573d6000803e3d6000fd5b50506040518792507f05394e48d744e4a16d65f52f88cdaf0f60f5d18af259df878d44cb80826d221f9150600090a2505050505080612791906139f2565b905061252b565b50816127a26117bd565b8111156127f15760405162461bcd60e51b815260206004820152601760248201527f5661756c743a206e6f7420656e6f7567682066756e64730000000000000000006044820152606401610825565b826004600082825461280391906136d9565b909155505060025461281f906001600160a01b03168683611d33565b5050505050565b606060006128358360026139b1565b6128409060026136a8565b67ffffffffffffffff811115612858576128586134f9565b6040519080825280601f01601f191660200182016040528015612882576020820181803683370190505b5090507f3000000000000000000000000000000000000000000000000000000000000000816000815181106128b9576128b9613883565b60200101906001600160f81b031916908160001a9053507f78000000000000000000000000000000000000000000000000000000000000008160018151811061290457612904613883565b60200101906001600160f81b031916908160001a90535060006129288460026139b1565b6129339060016136a8565b90505b60018111156129b8577f303132333435363738396162636465660000000000000000000000000000000085600f166010811061297457612974613883565b1a60f81b82828151811061298a5761298a613883565b60200101906001600160f81b031916908160001a90535060049490941c936129b181613a12565b9050612936565b5083156124325760405162461bcd60e51b815260206004820181905260248201527f537472696e67733a20686578206c656e67746820696e73756666696369656e746044820152606401610825565b6000612a5c826040518060400160405280602081526020017f5361666545524332303a206c6f772d6c6576656c2063616c6c206661696c6564815250856001600160a01b03166131799092919063ffffffff16565b8051909150156109805780806020019051810190612a7a9190613670565b6109805760405162461bcd60e51b815260206004820152602a60248201527f5361666545524332303a204552433230206f7065726174696f6e20646964206e60448201527f6f742073756363656564000000000000000000000000000000000000000000006064820152608401610825565b6000336005546040516331a9108f60e11b8152600481018990526001600160a01b039283169290911690636352211e90602401602060405180830381865afa158015612b3c573d6000803e3d6000fd5b505050506040513d601f19601f82011682018060405250810190612b609190613653565b6001600160a01b031614612bdc5760405162461bcd60e51b815260206004820152602960248201527f5661756c743a20796f7520617265206e6f7420746865206f776e6572206f662060448201527f61206465706f73697400000000000000000000000000000000000000000000006064820152608401610825565b600086815260086020526040902060020154421015612c3d5760405162461bcd60e51b815260206004820152601860248201527f5661756c743a206465706f736974206973206c6f636b656400000000000000006044820152606401610825565b600086815260086020526040902060010154612c9b5760405162461bcd60e51b815260206004820181905260248201527f5661756c743a20746f6b656e206964206973206e6f742061206465706f7369746044820152606401610825565b600086815260086020908152604080832060018082015460038301549254818752600a90955292852090810154905492949193929091612cdc848c8c612479565b9050600085821180612ced57508382115b9050888015612cf95750805b15612d1a5782612d0985876139b1565b612d1391906139d0565b9150612d8e565b8015612d8e5760405162461bcd60e51b815260206004820152603560248201527f5661756c743a2063616e6e6f74207769746864726177206d6f7265207468616e60448201527f2074686520617661696c61626c6520616d6f756e7400000000000000000000006064820152608401610825565b6000878152600a602052604081206001018054849290612daf9084906136d9565b90915550506000878152600a602052604081208054879290612dd29084906136d9565b9250508190555081600c6000828254612deb91906136d9565b9250508190555084600d6000828254612e0491906136d9565b9091555050600554604051630852cd8d60e31b8152600481018f90526001600160a01b03909116906342966c6890602401600060405180830381600087803b158015612e4f57600080fd5b505af1158015612e63573d6000803e3d6000fd5b50505050896001600160a01b03168d7f95fa98cd1a0b1d7d20d4f5d9f62889e8cfd8d172a99939d2a2f46bb668eb2f4f84604051612ea391815260200190565b60405180910390a3612eb6828d8d612439565b9d9c50505050505050505050505050565b6040516001600160a01b03808516602483015283166044820152606481018290526120cb9085907f23b872dd0000000000000000000000000000000000000000000000000000000090608401611d78565b600080612f26878585612479565b60065460208701516040517f6a6278420000000000000000000000000000000000000000000000000000000081526001600160a01b039182166004820152929350600092911690636a627842906024016020604051808303816000875af1158015612f95573d6000803e3d6000fd5b505050506040513d601f19601f82011682018060405250810190612fb991906136c0565b905081600a60008381526020019081526020016000206001016000828254612fe191906136a8565b90915550506000818152600a6020526040812080548a92906130049084906136a8565b9250508190555081600c600082825461301d91906136a8565b9250508190555087600d600082825461303691906136a8565b90915550506005546000906001600160a01b0316636a627842336040516001600160e01b031960e084901b1681526001600160a01b0390911660048201526024016020604051808303816000875af1158015613096573d6000803e3d6000fd5b505050506040513d601f19601f820116820180604052508101906130ba91906136c0565b604080516080810182528b8152602080820186815267ffffffffffffffff8d168385019081526060840189815260008781526008855295909520935184559051600184015551600283015591516003909101558801519091506001600160a01b0316336001600160a01b0316827f5757cd9745e7d8c627eac9e12febd04586626dc407e9bd89a4bb7332c1b3bbc08d8d88888f8f6040015160405161316496959493929190613a29565b60405180910390a49998505050505050505050565b6060612471848460008585843b6131d25760405162461bcd60e51b815260206004820152601d60248201527f416464726573733a2063616c6c20746f206e6f6e2d636f6e74726163740000006044820152606401610825565b600080866001600160a01b031685876040516131ee9190613a70565b60006040518083038185875af1925050503d806000811461322b576040519150601f19603f3d011682016040523d82523d6000602084013e613230565b606091505b509150915061324082828661324b565b979650505050505050565b6060831561325a575081612432565b82511561326a5782518084602001fd5b8160405162461bcd60e51b81526004016108259190613870565b60006020828403121561329657600080fd5b81356001600160e01b03198116811461243257600080fd5b6000602082840312156132c057600080fd5b5035919050565b600080602083850312156132da57600080fd5b823567ffffffffffffffff808211156132f257600080fd5b818501915085601f83011261330657600080fd5b81358181111561331557600080fd5b86602082850101111561332757600080fd5b60209290920196919550909350505050565b6001600160a01b038116811461334e57600080fd5b50565b6000806040838503121561336457600080fd5b82359150602083013561337681613339565b809150509250929050565b60006020828403121561339357600080fd5b813561243281613339565b803561ffff811681146133b057600080fd5b919050565b6000602082840312156133c757600080fd5b6124328261339e565b6000806000604084860312156133e557600080fd5b83356133f081613339565b9250602084013567ffffffffffffffff8082111561340d57600080fd5b818601915086601f83011261342157600080fd5b81358181111561343057600080fd5b8760208260051b850101111561344557600080fd5b6020830194508093505050509250925092565b6000806040838503121561346b57600080fd5b50508035926020909101359150565b60006020828403121561348c57600080fd5b813567ffffffffffffffff8111156134a357600080fd5b82016060818503121561243257600080fd5b6020808252825182820181905260009190848201906040850190845b818110156134ed578351835292840192918401916001016134d1565b50909695505050505050565b634e487b7160e01b600052604160045260246000fd5b6040516060810167ffffffffffffffff81118282101715613532576135326134f9565b60405290565b604051601f8201601f1916810167ffffffffffffffff81118282101715613561576135616134f9565b604052919050565b6000806040838503121561357c57600080fd5b823561358781613339565b915060208381013567ffffffffffffffff808211156135a557600080fd5b818601915086601f8301126135b957600080fd5b8135818111156135cb576135cb6134f9565b8060051b91506135dc848301613538565b81815291830184019184810190898411156135f657600080fd5b938501935b83851015613614578435825293850193908501906135fb565b8096505050505050509250929050565b60208152816020820152818360408301376000818301604090810191909152601f909201601f19160101919050565b60006020828403121561366557600080fd5b815161243281613339565b60006020828403121561368257600080fd5b8151801515811461243257600080fd5b634e487b7160e01b600052601160045260246000fd5b600082198211156136bb576136bb613692565b500190565b6000602082840312156136d257600080fd5b5051919050565b6000828210156136eb576136eb613692565b500390565b60006020828403121561370257600080fd5b813567ffffffffffffffff8116811461243257600080fd5b600067ffffffffffffffff80831681851680830382111561373d5761373d613692565b01949350505050565b6000808335601e1984360301811261375d57600080fd5b83018035915067ffffffffffffffff82111561377857600080fd5b6020019150600581901b360382131561379057600080fd5b9250929050565b60005b838110156137b257818101518382015260200161379a565b838111156120cb5750506000910152565b7f416363657373436f6e74726f6c3a206163636f756e74200000000000000000008152600083516137fb816017850160208801613797565b7f206973206d697373696e6720726f6c65200000000000000000000000000000006017918401918201528351613838816028840160208801613797565b01602801949350505050565b6000815180845261385c816020860160208601613797565b601f01601f19169290920160200192915050565b6020815260006124326020830184613844565b634e487b7160e01b600052603260045260246000fd5b60006000198214156138ad576138ad613692565b5060010190565b60008235605e198336030181126138ca57600080fd5b9190910192915050565b6000606082360312156138e657600080fd5b6138ee61350f565b6138f78361339e565b815260208084013561390881613339565b82820152604084013567ffffffffffffffff8082111561392757600080fd5b9085019036601f83011261393a57600080fd5b81358181111561394c5761394c6134f9565b61395e601f8201601f19168501613538565b9150808252368482850101111561397457600080fd5b808484018584013760009082019093019290925250604082015292915050565b600061ffff80831681851680830382111561373d5761373d613692565b60008160001904831182151516156139cb576139cb613692565b500290565b6000826139ed57634e487b7160e01b600052601260045260246000fd5b500490565b600060ff821660ff811415613a0957613a09613692565b60010192915050565b600081613a2157613a21613692565b506000190190565b86815285602082015284604082015283606082015267ffffffffffffffff8316608082015260c060a08201526000613a6460c0830184613844565b98975050505050505050565b600082516138ca81846020870161379756fea2646970667358221220c9557a068d1b893594a1fb979731bed9735491b5ae89c4ba71c7796db85d6d0f64736f6c634300080a003360806040523480156200001157600080fd5b5060405162001c8d38038062001c8d833981016040819052620000349162000149565b6040805160208082018084526000808452845192830190945283825282519293919262000063929190620000a3565b50805162000079906001906020840190620000a3565b5050600780546001600160a01b0319166001600160a01b03939093169290921790915550620001b8565b828054620000b1906200017b565b90600052602060002090601f016020900481019282620000d5576000855562000120565b82601f10620000f057805160ff191683800117855562000120565b8280016001018555821562000120579182015b828111156200012057825182559160200191906001019062000103565b506200012e92915062000132565b5090565b5b808211156200012e576000815560010162000133565b6000602082840312156200015c57600080fd5b81516001600160a01b03811681146200017457600080fd5b9392505050565b600181811c908216806200019057607f821691505b60208210811415620001b257634e487b7160e01b600052602260045260246000fd5b50919050565b611ac580620001c86000396000f3fe608060405234801561001057600080fd5b506004361061011b5760003560e01c80636352211e116100b2578063a22cb46511610081578063c87b56dd11610066578063c87b56dd1461025e578063e985e9c514610271578063fbfa77cf146102ad57600080fd5b8063a22cb46514610238578063b88d4fde1461024b57600080fd5b80636352211e146101e95780636a627842146101fc57806370a082311461021d57806395d89b411461023057600080fd5b806323b872dd116100ee57806323b872dd1461019d57806342842e0e146101b057806342966c68146101c35780634f558e79146101d657600080fd5b806301ffc9a71461012057806306fdde0314610148578063081812fc1461015d578063095ea7b314610188575b600080fd5b61013361012e36600461151d565b6102c0565b60405190151581526020015b60405180910390f35b61015061035d565b60405161013f9190611592565b61017061016b3660046115a5565b610454565b6040516001600160a01b03909116815260200161013f565b61019b6101963660046115d3565b6104ee565b005b61019b6101ab3660046115ff565b610620565b61019b6101be3660046115ff565b6106a7565b61019b6101d13660046115a5565b6106c2565b6101336101e43660046115a5565b610728565b6101706101f73660046115a5565b610747565b61020f61020a366004611640565b6107d2565b60405190815260200161013f565b61020f61022b366004611640565b610854565b6101506108ee565b61019b61024636600461165d565b6109d1565b61019b61025936600461170a565b6109e0565b61015061026c3660046115a5565b610a6e565b61013361027f3660046117b9565b6001600160a01b03918216600090815260056020908152604080832093909416825291909152205460ff1690565b600754610170906001600160a01b031681565b60006001600160e01b031982167f80ac58cd00000000000000000000000000000000000000000000000000000000148061032357506001600160e01b031982167f5b5e139f00000000000000000000000000000000000000000000000000000000145b8061035757507f01ffc9a7000000000000000000000000000000000000000000000000000000006001600160e01b03198316145b92915050565b60075460408051636f307dc360e01b815290516060926001600160a01b031691636f307dc39160048083019260209291908290030181865afa1580156103a7573d6000803e3d6000fd5b505050506040513d601f19601f820116820180604052508101906103cb91906117e7565b6001600160a01b03166306fdde036040518163ffffffff1660e01b8152600401600060405180830381865afa158015610408573d6000803e3d6000fd5b505050506040513d6000823e601f3d908101601f191682016040526104309190810190611804565b604051602001610440919061187b565b604051602081830303815290604052905090565b6000818152600260205260408120546001600160a01b03166104d25760405162461bcd60e51b815260206004820152602c60248201527f4552433732313a20617070726f76656420717565727920666f72206e6f6e657860448201526b34b9ba32b73a103a37b5b2b760a11b60648201526084015b60405180910390fd5b506000908152600460205260409020546001600160a01b031690565b60006104f982610747565b9050806001600160a01b0316836001600160a01b031614156105835760405162461bcd60e51b815260206004820152602160248201527f4552433732313a20617070726f76616c20746f2063757272656e74206f776e6560448201527f720000000000000000000000000000000000000000000000000000000000000060648201526084016104c9565b336001600160a01b038216148061059f575061059f813361027f565b6106115760405162461bcd60e51b815260206004820152603860248201527f4552433732313a20617070726f76652063616c6c6572206973206e6f74206f7760448201527f6e6572206e6f7220617070726f76656420666f7220616c6c000000000000000060648201526084016104c9565b61061b8383610b64565b505050565b61062a3382610bdf565b61069c5760405162461bcd60e51b815260206004820152603160248201527f4552433732313a207472616e736665722063616c6c6572206973206e6f74206f60448201527f776e6572206e6f7220617070726f76656400000000000000000000000000000060648201526084016104c9565b61061b838383610cd6565b61061b838383604051806020016040528060008152506109e0565b6007546001600160a01b0316331461071c5760405162461bcd60e51b815260206004820152601a60248201527f4465706f7369746f72733a206e6f7420617574686f72697a656400000000000060448201526064016104c9565b61072581610eb0565b50565b6000818152600260205260408120546001600160a01b03161515610357565b6000818152600260205260408120546001600160a01b0316806103575760405162461bcd60e51b815260206004820152602960248201527f4552433732313a206f776e657220717565727920666f72206e6f6e657869737460448201527f656e7420746f6b656e000000000000000000000000000000000000000000000060648201526084016104c9565b6007546000906001600160a01b0316331461082f5760405162461bcd60e51b815260206004820152601a60248201527f4465706f7369746f72733a206e6f7420617574686f72697a656400000000000060448201526064016104c9565b61083d600680546001019055565b600061084860065490565b90506103578382610f58565b60006001600160a01b0382166108d25760405162461bcd60e51b815260206004820152602a60248201527f4552433732313a2062616c616e636520717565727920666f7220746865207a6560448201527f726f20616464726573730000000000000000000000000000000000000000000060648201526084016104c9565b506001600160a01b031660009081526003602052604090205490565b60075460408051636f307dc360e01b815290516060926001600160a01b031691636f307dc39160048083019260209291908290030181865afa158015610938573d6000803e3d6000fd5b505050506040513d601f19601f8201168201806040525081019061095c91906117e7565b6001600160a01b03166395d89b416040518163ffffffff1660e01b8152600401600060405180830381865afa158015610999573d6000803e3d6000fd5b505050506040513d6000823e601f3d908101601f191682016040526109c19190810190611804565b60405160200161044091906118e7565b6109dc338383610f72565b5050565b6109ea3383610bdf565b610a5c5760405162461bcd60e51b815260206004820152603160248201527f4552433732313a207472616e736665722063616c6c6572206973206e6f74206f60448201527f776e6572206e6f7220617070726f76656400000000000000000000000000000060648201526084016104c9565b610a6884848484611041565b50505050565b6000818152600260205260409020546060906001600160a01b0316610afb5760405162461bcd60e51b815260206004820152602f60248201527f4552433732314d657461646174613a2055524920717565727920666f72206e6f60448201527f6e6578697374656e7420746f6b656e000000000000000000000000000000000060648201526084016104c9565b6000610b1260408051602081019091526000815290565b90506000815111610b325760405180602001604052806000815250610b5d565b80610b3c846110bf565b604051602001610b4d929190611953565b6040516020818303038152906040525b9392505050565b6000818152600460205260409020805473ffffffffffffffffffffffffffffffffffffffff19166001600160a01b0384169081179091558190610ba682610747565b6001600160a01b03167f8c5be1e5ebec7d5bd14f71427d1e84f3dd0314c0f7b2291e5b200ac8c7c3b92560405160405180910390a45050565b6000818152600260205260408120546001600160a01b0316610c585760405162461bcd60e51b815260206004820152602c60248201527f4552433732313a206f70657261746f7220717565727920666f72206e6f6e657860448201526b34b9ba32b73a103a37b5b2b760a11b60648201526084016104c9565b6000610c6383610747565b9050806001600160a01b0316846001600160a01b03161480610c9e5750836001600160a01b0316610c9384610454565b6001600160a01b0316145b80610cce57506001600160a01b0380821660009081526005602090815260408083209388168352929052205460ff165b949350505050565b826001600160a01b0316610ce982610747565b6001600160a01b031614610d655760405162461bcd60e51b815260206004820152602960248201527f4552433732313a207472616e73666572206f6620746f6b656e2074686174206960448201527f73206e6f74206f776e000000000000000000000000000000000000000000000060648201526084016104c9565b6001600160a01b038216610de05760405162461bcd60e51b8152602060048201526024808201527f4552433732313a207472616e7366657220746f20746865207a65726f2061646460448201527f726573730000000000000000000000000000000000000000000000000000000060648201526084016104c9565b610deb600082610b64565b6001600160a01b0383166000908152600360205260408120805460019290610e14908490611998565b90915550506001600160a01b0382166000908152600360205260408120805460019290610e429084906119af565b9091555050600081815260026020526040808220805473ffffffffffffffffffffffffffffffffffffffff19166001600160a01b0386811691821790925591518493918716917fddf252ad1be2c89b69c2b068fc378daa952ba7f163c4a11628f55a4df523b3ef91a4505050565b6000610ebb82610747565b9050610ec8600083610b64565b6001600160a01b0381166000908152600360205260408120805460019290610ef1908490611998565b9091555050600082815260026020526040808220805473ffffffffffffffffffffffffffffffffffffffff19169055518391906001600160a01b038416907fddf252ad1be2c89b69c2b068fc378daa952ba7f163c4a11628f55a4df523b3ef908390a45050565b6109dc8282604051806020016040528060008152506111f1565b816001600160a01b0316836001600160a01b03161415610fd45760405162461bcd60e51b815260206004820152601960248201527f4552433732313a20617070726f766520746f2063616c6c65720000000000000060448201526064016104c9565b6001600160a01b03838116600081815260056020908152604080832094871680845294825291829020805460ff191686151590811790915591519182527f17307eab39ab6107e8899845ad3d59bd9653f200f220920489ca2b5937696c31910160405180910390a3505050565b61104c848484610cd6565b6110588484848461126f565b610a685760405162461bcd60e51b815260206004820152603260248201527f4552433732313a207472616e7366657220746f206e6f6e20455243373231526560448201527131b2b4bb32b91034b6b83632b6b2b73a32b960711b60648201526084016104c9565b6060816110ff57505060408051808201909152600181527f3000000000000000000000000000000000000000000000000000000000000000602082015290565b8160005b81156111295780611113816119c7565b91506111229050600a836119f8565b9150611103565b60008167ffffffffffffffff8111156111445761114461169b565b6040519080825280601f01601f19166020018201604052801561116e576020820181803683370190505b5090505b8415610cce57611183600183611998565b9150611190600a86611a0c565b61119b9060306119af565b60f81b8183815181106111b0576111b0611a20565b60200101907effffffffffffffffffffffffffffffffffffffffffffffffffffffffffffff1916908160001a9053506111ea600a866119f8565b9450611172565b6111fb83836113b8565b611208600084848461126f565b61061b5760405162461bcd60e51b815260206004820152603260248201527f4552433732313a207472616e7366657220746f206e6f6e20455243373231526560448201527131b2b4bb32b91034b6b83632b6b2b73a32b960711b60648201526084016104c9565b60006001600160a01b0384163b156113ad57604051630a85bd0160e11b81526001600160a01b0385169063150b7a02906112b3903390899088908890600401611a36565b6020604051808303816000875af19250505080156112ee575060408051601f3d908101601f191682019092526112eb91810190611a72565b60015b611393573d80801561131c576040519150601f19603f3d011682016040523d82523d6000602084013e611321565b606091505b50805161138b5760405162461bcd60e51b815260206004820152603260248201527f4552433732313a207472616e7366657220746f206e6f6e20455243373231526560448201527131b2b4bb32b91034b6b83632b6b2b73a32b960711b60648201526084016104c9565b805181602001fd5b6001600160e01b031916630a85bd0160e11b149050610cce565b506001949350505050565b6001600160a01b03821661140e5760405162461bcd60e51b815260206004820181905260248201527f4552433732313a206d696e7420746f20746865207a65726f206164647265737360448201526064016104c9565b6000818152600260205260409020546001600160a01b0316156114735760405162461bcd60e51b815260206004820152601c60248201527f4552433732313a20746f6b656e20616c7265616479206d696e7465640000000060448201526064016104c9565b6001600160a01b038216600090815260036020526040812080546001929061149c9084906119af565b9091555050600081815260026020526040808220805473ffffffffffffffffffffffffffffffffffffffff19166001600160a01b03861690811790915590518392907fddf252ad1be2c89b69c2b068fc378daa952ba7f163c4a11628f55a4df523b3ef908290a45050565b6001600160e01b03198116811461072557600080fd5b60006020828403121561152f57600080fd5b8135610b5d81611507565b60005b8381101561155557818101518382015260200161153d565b83811115610a685750506000910152565b6000815180845261157e81602086016020860161153a565b601f01601f19169290920160200192915050565b602081526000610b5d6020830184611566565b6000602082840312156115b757600080fd5b5035919050565b6001600160a01b038116811461072557600080fd5b600080604083850312156115e657600080fd5b82356115f1816115be565b946020939093013593505050565b60008060006060848603121561161457600080fd5b833561161f816115be565b9250602084013561162f816115be565b929592945050506040919091013590565b60006020828403121561165257600080fd5b8135610b5d816115be565b6000806040838503121561167057600080fd5b823561167b816115be565b91506020830135801515811461169057600080fd5b809150509250929050565b634e487b7160e01b600052604160045260246000fd5b604051601f8201601f1916810167ffffffffffffffff811182821017156116da576116da61169b565b604052919050565b600067ffffffffffffffff8211156116fc576116fc61169b565b50601f01601f191660200190565b6000806000806080858703121561172057600080fd5b843561172b816115be565b9350602085013561173b816115be565b925060408501359150606085013567ffffffffffffffff81111561175e57600080fd5b8501601f8101871361176f57600080fd5b803561178261177d826116e2565b6116b1565b81815288602083850101111561179757600080fd5b8160208401602083013760006020838301015280935050505092959194509250565b600080604083850312156117cc57600080fd5b82356117d7816115be565b91506020830135611690816115be565b6000602082840312156117f957600080fd5b8151610b5d816115be565b60006020828403121561181657600080fd5b815167ffffffffffffffff81111561182d57600080fd5b8201601f8101841361183e57600080fd5b805161184c61177d826116e2565b81815285602083850101111561186157600080fd5b61187282602083016020860161153a565b95945050505050565b7f53616e64636c6f636b00000000000000000000000000000000000000000000008152600082516118b381600985016020870161153a565b7f202d204465706f7369746f7273000000000000000000000000000000000000006009939091019283015250601601919050565b7f51554152545a2d0000000000000000000000000000000000000000000000000081526000825161191f81600785016020870161153a565b7f2d444550000000000000000000000000000000000000000000000000000000006007939091019283015250600b01919050565b6000835161196581846020880161153a565b83519083019061197981836020880161153a565b01949350505050565b634e487b7160e01b600052601160045260246000fd5b6000828210156119aa576119aa611982565b500390565b600082198211156119c2576119c2611982565b500190565b60006000198214156119db576119db611982565b5060010190565b634e487b7160e01b600052601260045260246000fd5b600082611a0757611a076119e2565b500490565b600082611a1b57611a1b6119e2565b500690565b634e487b7160e01b600052603260045260246000fd5b60006001600160a01b03808716835280861660208401525083604083015260806060830152611a686080830184611566565b9695505050505050565b600060208284031215611a8457600080fd5b8151610b5d8161150756fea26469706673582212206b465714eb274f8046d1b04e385e2d0c23b22f9e5b97e1a9d0dd5a6647c84d1f64736f6c634300080a003360806040523480156200001157600080fd5b5060405162001ce738038062001ce7833981016040819052620000349162000149565b6040805160208082018084526000808452845192830190945283825282519293919262000063929190620000a3565b50805162000079906001906020840190620000a3565b5050600780546001600160a01b0319166001600160a01b03939093169290921790915550620001b8565b828054620000b1906200017b565b90600052602060002090601f016020900481019282620000d5576000855562000120565b82601f10620000f057805160ff191683800117855562000120565b8280016001018555821562000120579182015b828111156200012057825182559160200191906001019062000103565b506200012e92915062000132565b5090565b5b808211156200012e576000815560010162000133565b6000602082840312156200015c57600080fd5b81516001600160a01b03811681146200017457600080fd5b9392505050565b600181811c908216806200019057607f821691505b60208210811415620001b257634e487b7160e01b600052602260045260246000fd5b50919050565b611b1f80620001c86000396000f3fe608060405234801561001057600080fd5b506004361061011b5760003560e01c80636a627842116100b2578063adde18b011610081578063c87b56dd11610066578063c87b56dd14610281578063e985e9c514610294578063fbfa77cf146102d057600080fd5b8063adde18b01461024e578063b88d4fde1461026e57600080fd5b80636a6278421461020d57806370a082311461022057806395d89b4114610233578063a22cb4651461023b57600080fd5b806323b872dd116100ee57806323b872dd1461019d57806342842e0e146101b057806342ec38e2146101c35780636352211e146101fa57600080fd5b806301ffc9a71461012057806306fdde0314610148578063081812fc1461015d578063095ea7b314610188575b600080fd5b61013361012e366004611577565b6102e3565b60405190151581526020015b60405180910390f35b610150610380565b60405161013f91906115ec565b61017061016b3660046115ff565b610477565b6040516001600160a01b03909116815260200161013f565b61019b61019636600461162d565b610511565b005b61019b6101ab366004611659565b610643565b61019b6101be366004611659565b6106ca565b6101ec6101d136600461169a565b6001600160a01b031660009081526008602052604090205490565b60405190815260200161013f565b6101706102083660046115ff565b6106e5565b6101ec61021b36600461169a565b610770565b6101ec61022e36600461169a565b610807565b6101506108a1565b61019b6102493660046116b7565b610984565b6101ec61025c36600461169a565b60086020526000908152604090205481565b61019b61027c366004611764565b610993565b61015061028f3660046115ff565b610a21565b6101336102a2366004611813565b6001600160a01b03918216600090815260056020908152604080832093909416825291909152205460ff1690565b600754610170906001600160a01b031681565b60006001600160e01b031982167f80ac58cd00000000000000000000000000000000000000000000000000000000148061034657506001600160e01b031982167f5b5e139f00000000000000000000000000000000000000000000000000000000145b8061037a57507f01ffc9a7000000000000000000000000000000000000000000000000000000006001600160e01b03198316145b92915050565b60075460408051636f307dc360e01b815290516060926001600160a01b031691636f307dc39160048083019260209291908290030181865afa1580156103ca573d6000803e3d6000fd5b505050506040513d601f19601f820116820180604052508101906103ee9190611841565b6001600160a01b03166306fdde036040518163ffffffff1660e01b8152600401600060405180830381865afa15801561042b573d6000803e3d6000fd5b505050506040513d6000823e601f3d908101601f19168201604052610453919081019061185e565b60405160200161046391906118d5565b604051602081830303815290604052905090565b6000818152600260205260408120546001600160a01b03166104f55760405162461bcd60e51b815260206004820152602c60248201527f4552433732313a20617070726f76656420717565727920666f72206e6f6e657860448201526b34b9ba32b73a103a37b5b2b760a11b60648201526084015b60405180910390fd5b506000908152600460205260409020546001600160a01b031690565b600061051c826106e5565b9050806001600160a01b0316836001600160a01b031614156105a65760405162461bcd60e51b815260206004820152602160248201527f4552433732313a20617070726f76616c20746f2063757272656e74206f776e6560448201527f720000000000000000000000000000000000000000000000000000000000000060648201526084016104ec565b336001600160a01b03821614806105c257506105c281336102a2565b6106345760405162461bcd60e51b815260206004820152603860248201527f4552433732313a20617070726f76652063616c6c6572206973206e6f74206f7760448201527f6e6572206e6f7220617070726f76656420666f7220616c6c000000000000000060648201526084016104ec565b61063e8383610b17565b505050565b61064d3382610b92565b6106bf5760405162461bcd60e51b815260206004820152603160248201527f4552433732313a207472616e736665722063616c6c6572206973206e6f74206f60448201527f776e6572206e6f7220617070726f76656400000000000000000000000000000060648201526084016104ec565b61063e838383610c89565b61063e83838360405180602001604052806000815250610993565b6000818152600260205260408120546001600160a01b03168061037a5760405162461bcd60e51b815260206004820152602960248201527f4552433732313a206f776e657220717565727920666f72206e6f6e657869737460448201527f656e7420746f6b656e000000000000000000000000000000000000000000000060648201526084016104ec565b6007546000906001600160a01b031633146107cd5760405162461bcd60e51b815260206004820152601860248201527f436c61696d6572733a206e6f7420617574686f72697a6564000000000000000060448201526064016104ec565b6001600160a01b0382166000908152600860205260409020548061037a576107f9600680546001019055565b5060065461037a8382610e6e565b60006001600160a01b0382166108855760405162461bcd60e51b815260206004820152602a60248201527f4552433732313a2062616c616e636520717565727920666f7220746865207a6560448201527f726f20616464726573730000000000000000000000000000000000000000000060648201526084016104ec565b506001600160a01b031660009081526003602052604090205490565b60075460408051636f307dc360e01b815290516060926001600160a01b031691636f307dc39160048083019260209291908290030181865afa1580156108eb573d6000803e3d6000fd5b505050506040513d601f19601f8201168201806040525081019061090f9190611841565b6001600160a01b03166395d89b416040518163ffffffff1660e01b8152600401600060405180830381865afa15801561094c573d6000803e3d6000fd5b505050506040513d6000823e601f3d908101601f19168201604052610974919081019061185e565b6040516020016104639190611941565b61098f338383610e88565b5050565b61099d3383610b92565b610a0f5760405162461bcd60e51b815260206004820152603160248201527f4552433732313a207472616e736665722063616c6c6572206973206e6f74206f60448201527f776e6572206e6f7220617070726f76656400000000000000000000000000000060648201526084016104ec565b610a1b84848484610f57565b50505050565b6000818152600260205260409020546060906001600160a01b0316610aae5760405162461bcd60e51b815260206004820152602f60248201527f4552433732314d657461646174613a2055524920717565727920666f72206e6f60448201527f6e6578697374656e7420746f6b656e000000000000000000000000000000000060648201526084016104ec565b6000610ac560408051602081019091526000815290565b90506000815111610ae55760405180602001604052806000815250610b10565b80610aef84610fd5565b604051602001610b009291906119ad565b6040516020818303038152906040525b9392505050565b6000818152600460205260409020805473ffffffffffffffffffffffffffffffffffffffff19166001600160a01b0384169081179091558190610b59826106e5565b6001600160a01b03167f8c5be1e5ebec7d5bd14f71427d1e84f3dd0314c0f7b2291e5b200ac8c7c3b92560405160405180910390a45050565b6000818152600260205260408120546001600160a01b0316610c0b5760405162461bcd60e51b815260206004820152602c60248201527f4552433732313a206f70657261746f7220717565727920666f72206e6f6e657860448201526b34b9ba32b73a103a37b5b2b760a11b60648201526084016104ec565b6000610c16836106e5565b9050806001600160a01b0316846001600160a01b03161480610c515750836001600160a01b0316610c4684610477565b6001600160a01b0316145b80610c8157506001600160a01b0380821660009081526005602090815260408083209388168352929052205460ff165b949350505050565b826001600160a01b0316610c9c826106e5565b6001600160a01b031614610d185760405162461bcd60e51b815260206004820152602960248201527f4552433732313a207472616e73666572206f6620746f6b656e2074686174206960448201527f73206e6f74206f776e000000000000000000000000000000000000000000000060648201526084016104ec565b6001600160a01b038216610d935760405162461bcd60e51b8152602060048201526024808201527f4552433732313a207472616e7366657220746f20746865207a65726f2061646460448201527f726573730000000000000000000000000000000000000000000000000000000060648201526084016104ec565b610d9e838383611107565b610da9600082610b17565b6001600160a01b0383166000908152600360205260408120805460019290610dd29084906119f2565b90915550506001600160a01b0382166000908152600360205260408120805460019290610e00908490611a09565b9091555050600081815260026020526040808220805473ffffffffffffffffffffffffffffffffffffffff19166001600160a01b0386811691821790925591518493918716917fddf252ad1be2c89b69c2b068fc378daa952ba7f163c4a11628f55a4df523b3ef91a4505050565b61098f82826040518060200160405280600081525061123c565b816001600160a01b0316836001600160a01b03161415610eea5760405162461bcd60e51b815260206004820152601960248201527f4552433732313a20617070726f766520746f2063616c6c65720000000000000060448201526064016104ec565b6001600160a01b03838116600081815260056020908152604080832094871680845294825291829020805460ff191686151590811790915591519182527f17307eab39ab6107e8899845ad3d59bd9653f200f220920489ca2b5937696c31910160405180910390a3505050565b610f62848484610c89565b610f6e848484846112ba565b610a1b5760405162461bcd60e51b815260206004820152603260248201527f4552433732313a207472616e7366657220746f206e6f6e20455243373231526560448201527131b2b4bb32b91034b6b83632b6b2b73a32b960711b60648201526084016104ec565b60608161101557505060408051808201909152600181527f3000000000000000000000000000000000000000000000000000000000000000602082015290565b8160005b811561103f578061102981611a21565b91506110389050600a83611a52565b9150611019565b60008167ffffffffffffffff81111561105a5761105a6116f5565b6040519080825280601f01601f191660200182016040528015611084576020820181803683370190505b5090505b8415610c81576110996001836119f2565b91506110a6600a86611a66565b6110b1906030611a09565b60f81b8183815181106110c6576110c6611a7a565b60200101907effffffffffffffffffffffffffffffffffffffffffffffffffffffffffffff1916908160001a905350611100600a86611a52565b9450611088565b6001600160a01b03821661115d5760405162461bcd60e51b815260206004820152601e60248201527f436c61696d6572733a2063616e6e6f74206275726e2074686973204e4654000060448201526064016104ec565b6001600160a01b038316611188576001600160a01b0390911660009081526008602052604090205550565b6001600160a01b038216600090815260086020526040902054156112145760405162461bcd60e51b815260206004820152602860248201527f436c61696d6572733a2064657374696e6174696f6e20616c726561647920686160448201527f7320616e204e465400000000000000000000000000000000000000000000000060648201526084016104ec565b6001600160a01b03928316600090815260086020526040808220829055929093168352912055565b6112468383611403565b61125360008484846112ba565b61063e5760405162461bcd60e51b815260206004820152603260248201527f4552433732313a207472616e7366657220746f206e6f6e20455243373231526560448201527131b2b4bb32b91034b6b83632b6b2b73a32b960711b60648201526084016104ec565b60006001600160a01b0384163b156113f857604051630a85bd0160e11b81526001600160a01b0385169063150b7a02906112fe903390899088908890600401611a90565b6020604051808303816000875af1925050508015611339575060408051601f3d908101601f1916820190925261133691810190611acc565b60015b6113de573d808015611367576040519150601f19603f3d011682016040523d82523d6000602084013e61136c565b606091505b5080516113d65760405162461bcd60e51b815260206004820152603260248201527f4552433732313a207472616e7366657220746f206e6f6e20455243373231526560448201527131b2b4bb32b91034b6b83632b6b2b73a32b960711b60648201526084016104ec565b805181602001fd5b6001600160e01b031916630a85bd0160e11b149050610c81565b506001949350505050565b6001600160a01b0382166114595760405162461bcd60e51b815260206004820181905260248201527f4552433732313a206d696e7420746f20746865207a65726f206164647265737360448201526064016104ec565b6000818152600260205260409020546001600160a01b0316156114be5760405162461bcd60e51b815260206004820152601c60248201527f4552433732313a20746f6b656e20616c7265616479206d696e7465640000000060448201526064016104ec565b6114ca60008383611107565b6001600160a01b03821660009081526003602052604081208054600192906114f3908490611a09565b9091555050600081815260026020526040808220805473ffffffffffffffffffffffffffffffffffffffff19166001600160a01b03861690811790915590518392907fddf252ad1be2c89b69c2b068fc378daa952ba7f163c4a11628f55a4df523b3ef908290a45050565b6001600160e01b03198116811461157457600080fd5b50565b60006020828403121561158957600080fd5b8135610b108161155e565b60005b838110156115af578181015183820152602001611597565b83811115610a1b5750506000910152565b600081518084526115d8816020860160208601611594565b601f01601f19169290920160200192915050565b602081526000610b1060208301846115c0565b60006020828403121561161157600080fd5b5035919050565b6001600160a01b038116811461157457600080fd5b6000806040838503121561164057600080fd5b823561164b81611618565b946020939093013593505050565b60008060006060848603121561166e57600080fd5b833561167981611618565b9250602084013561168981611618565b929592945050506040919091013590565b6000602082840312156116ac57600080fd5b8135610b1081611618565b600080604083850312156116ca57600080fd5b82356116d581611618565b9150602083013580151581146116ea57600080fd5b809150509250929050565b634e487b7160e01b600052604160045260246000fd5b604051601f8201601f1916810167ffffffffffffffff81118282101715611734576117346116f5565b604052919050565b600067ffffffffffffffff821115611756576117566116f5565b50601f01601f191660200190565b6000806000806080858703121561177a57600080fd5b843561178581611618565b9350602085013561179581611618565b925060408501359150606085013567ffffffffffffffff8111156117b857600080fd5b8501601f810187136117c957600080fd5b80356117dc6117d78261173c565b61170b565b8181528860208385010111156117f157600080fd5b8160208401602083013760006020838301015280935050505092959194509250565b6000806040838503121561182657600080fd5b823561183181611618565b915060208301356116ea81611618565b60006020828403121561185357600080fd5b8151610b1081611618565b60006020828403121561187057600080fd5b815167ffffffffffffffff81111561188757600080fd5b8201601f8101841361189857600080fd5b80516118a66117d78261173c565b8181528560208385010111156118bb57600080fd5b6118cc826020830160208601611594565b95945050505050565b7f53616e64636c6f636b000000000000000000000000000000000000000000000081526000825161190d816009850160208701611594565b7f202d204465706f7369746f7273000000000000000000000000000000000000006009939091019283015250601601919050565b7f51554152545a2d00000000000000000000000000000000000000000000000000815260008251611979816007850160208701611594565b7f2d444550000000000000000000000000000000000000000000000000000000006007939091019283015250600b01919050565b600083516119bf818460208801611594565b8351908301906119d3818360208801611594565b01949350505050565b634e487b7160e01b600052601160045260246000fd5b600082821015611a0457611a046119dc565b500390565b60008219821115611a1c57611a1c6119dc565b500190565b6000600019821415611a3557611a356119dc565b5060010190565b634e487b7160e01b600052601260045260246000fd5b600082611a6157611a61611a3c565b500490565b600082611a7557611a75611a3c565b500690565b634e487b7160e01b600052603260045260246000fd5b60006001600160a01b03808716835280861660208401525083604083015260806060830152611ac260808301846115c0565b9695505050505050565b600060208284031215611ade57600080fd5b8151610b108161155e56fea2646970667358221220776c767e766dce23182c233a350dfcc1aeca5eeb1c73dc62c5e1e62cc0c89cab64736f6c634300080a0033",
  "devdoc": {
    "details": "Yield generation strategies not yet implemented",
    "kind": "dev",
    "methods": {
      "constructor": {
        "params": {
          "_investPerc": "Percentage of the total underlying to invest in the strategy",
          "_minLockPeriod": "Minimum lock period to deposit",
          "_owner": "Vault admin address",
          "_perfFeePct": "Performance fee percentage",
          "_treasury": "Treasury address to collect performance fee",
          "_underlying": "Underlying ERC20 token to use."
        }
      },
      "getRoleAdmin(bytes32)": {
        "details": "Returns the admin role that controls `role`. See {grantRole} and {revokeRole}. To change a role's admin, use {_setRoleAdmin}."
      },
      "grantRole(bytes32,address)": {
        "details": "Grants `role` to `account`. If `account` had not been already granted `role`, emits a {RoleGranted} event. Requirements: - the caller must have ``role``'s admin role."
      },
      "hasRole(bytes32,address)": {
        "details": "Returns `true` if `account` has been granted `role`."
      },
      "renounceRole(bytes32,address)": {
        "details": "Revokes `role` from the calling account. Roles are often managed via {grantRole} and {revokeRole}: this function's purpose is to provide a mechanism for accounts to lose their privileges if they are compromised (such as when a trusted device is misplaced). If the calling account had been revoked `role`, emits a {RoleRevoked} event. Requirements: - the caller must be `account`."
      },
      "revokeRole(bytes32,address)": {
        "details": "Revokes `role` from `account`. If `account` had been granted `role`, emits a {RoleRevoked} event. Requirements: - the caller must have ``role``'s admin role."
      },
      "totalUnderlyingMinusSponsored()": {
        "returns": {
          "_0": "Total amount of principal and yield help by the vault (not including sponsored amount and performance fee)."
        }
      }
    },
    "version": 1
  },
  "userdoc": {
    "events": {
      "Sponsored(uint256,uint256,address,uint256)": {
        "notice": "Emitted when a new sponsor deposit is created"
      },
      "Unsponsored(uint256)": {
        "notice": "Emitted when an existing sponsor withdraws"
      }
    },
    "kind": "user",
    "methods": {
      "claimYield(address)": {
        "notice": "See {IVault}"
      },
      "claimers()": {
        "notice": "Yield allocation"
      },
      "deposit((uint256,(uint16,address,bytes)[],uint64))": {
        "notice": "See {IVault}"
      },
      "depositors()": {
        "notice": "Depositors, represented as an NFT per deposit"
      },
      "forceWithdraw(address,uint256[])": {
        "notice": "See {IVault}"
      },
      "investPerc()": {
        "notice": "See {IVault}"
      },
      "investableAmount()": {
        "notice": "See {IVault}"
      },
      "minLockPeriod()": {
        "notice": "See {IVault}"
      },
      "setInvestPerc(uint16)": {
        "notice": "See {IVault}"
      },
      "setPerfFeePct(uint16)": {
        "notice": "See {IVault}"
      },
      "setStrategy(address)": {
        "notice": "See {IVault}"
      },
      "setTreasury(address)": {
        "notice": "See {IVault}"
      },
      "sponsor(uint256,uint256)": {
        "notice": "See {IVaultSponsoring}"
      },
      "strategy()": {
        "notice": "See {IVault}"
      },
      "totalShares()": {
        "notice": "Total amount of shares"
      },
      "totalSponsored()": {
        "notice": "See {IVaultSponsoring}"
      },
      "totalUnderlying()": {
        "notice": "See {IVault}"
      },
      "totalUnderlyingMinusSponsored()": {
        "notice": "Computes the total amount of principal + yield currently controlled by the vault and the strategy. The principal + yield is the total amount of underlying that can be claimed or withdrawn, excluding the sponsored amount and performance fee."
      },
      "underlying()": {
        "notice": "See {IVault}"
      },
      "unsponsor(address,uint256[])": {
        "notice": "See {IVaultSponsoring}"
      },
      "updateInvested(bytes)": {
        "notice": "See {IVault}"
      },
      "withdraw(address,uint256[])": {
        "notice": "See {IVault}"
      },
      "yieldFor(address)": {
        "notice": "See {IVault}"
      }
    },
    "notice": "A vault where other accounts can deposit an underlying token currency and set distribution params for their principal and yield",
    "version": 1
  },
  "storageLayout": {
    "storage": [
      {
        "astId": 70,
        "contract": "contracts/Vault.sol:Vault",
        "label": "_roles",
        "offset": 0,
        "slot": "0",
        "type": "t_mapping(t_bytes32,t_struct(RoleData)65_storage)"
      },
      {
        "astId": 438,
        "contract": "contracts/Vault.sol:Vault",
        "label": "_status",
        "offset": 0,
        "slot": "1",
        "type": "t_uint256"
      },
      {
        "astId": 3044,
        "contract": "contracts/Vault.sol:Vault",
        "label": "underlying",
        "offset": 0,
        "slot": "2",
        "type": "t_contract(IERC20)1091"
      },
      {
        "astId": 3048,
        "contract": "contracts/Vault.sol:Vault",
        "label": "strategy",
        "offset": 0,
        "slot": "3",
        "type": "t_contract(IStrategy)5980"
      },
      {
        "astId": 3053,
        "contract": "contracts/Vault.sol:Vault",
        "label": "investPerc",
        "offset": 20,
        "slot": "3",
        "type": "t_uint16"
      },
      {
        "astId": 3063,
        "contract": "contracts/Vault.sol:Vault",
        "label": "totalSponsored",
        "offset": 0,
        "slot": "4",
        "type": "t_uint256"
      },
      {
        "astId": 3067,
        "contract": "contracts/Vault.sol:Vault",
        "label": "depositors",
        "offset": 0,
        "slot": "5",
        "type": "t_contract(Depositors)8541"
      },
      {
        "astId": 3071,
        "contract": "contracts/Vault.sol:Vault",
        "label": "claimers",
        "offset": 0,
        "slot": "6",
        "type": "t_contract(Claimers)8382"
      },
      {
        "astId": 3075,
        "contract": "contracts/Vault.sol:Vault",
        "label": "_depositGroupIds",
        "offset": 0,
        "slot": "7",
        "type": "t_struct(Counter)2657_storage"
      },
      {
        "astId": 3093,
        "contract": "contracts/Vault.sol:Vault",
        "label": "deposits",
        "offset": 0,
        "slot": "8",
        "type": "t_mapping(t_uint256,t_struct(Deposit)3088_storage)"
      },
      {
        "astId": 3096,
        "contract": "contracts/Vault.sol:Vault",
        "label": "_depositIds",
        "offset": 0,
        "slot": "9",
        "type": "t_struct(Counter)2657_storage"
      },
      {
        "astId": 3106,
        "contract": "contracts/Vault.sol:Vault",
        "label": "claimer",
        "offset": 0,
        "slot": "10",
        "type": "t_mapping(t_uint256,t_struct(Claimer)3101_storage)"
      },
      {
        "astId": 3109,
        "contract": "contracts/Vault.sol:Vault",
        "label": "_claimerIds",
        "offset": 0,
        "slot": "11",
        "type": "t_struct(Counter)2657_storage"
      },
      {
        "astId": 3111,
        "contract": "contracts/Vault.sol:Vault",
        "label": "totalShares",
        "offset": 0,
        "slot": "12",
        "type": "t_uint256"
      },
      {
        "astId": 3113,
        "contract": "contracts/Vault.sol:Vault",
        "label": "totalPrincipal",
        "offset": 0,
        "slot": "13",
        "type": "t_uint256"
      },
      {
        "astId": 3115,
        "contract": "contracts/Vault.sol:Vault",
        "label": "treasury",
        "offset": 0,
        "slot": "14",
        "type": "t_address"
      },
      {
        "astId": 3117,
        "contract": "contracts/Vault.sol:Vault",
        "label": "perfFeePct",
        "offset": 20,
        "slot": "14",
        "type": "t_uint16"
      },
      {
        "astId": 3119,
        "contract": "contracts/Vault.sol:Vault",
        "label": "accumulatedPerfFee",
        "offset": 0,
        "slot": "15",
        "type": "t_uint256"
      }
    ],
    "types": {
      "t_address": {
        "encoding": "inplace",
        "label": "address",
        "numberOfBytes": "20"
      },
      "t_bool": {
        "encoding": "inplace",
        "label": "bool",
        "numberOfBytes": "1"
      },
      "t_bytes32": {
        "encoding": "inplace",
        "label": "bytes32",
        "numberOfBytes": "32"
      },
      "t_contract(Claimers)8382": {
        "encoding": "inplace",
        "label": "contract Claimers",
        "numberOfBytes": "20"
      },
      "t_contract(Depositors)8541": {
        "encoding": "inplace",
        "label": "contract Depositors",
        "numberOfBytes": "20"
      },
      "t_contract(IERC20)1091": {
        "encoding": "inplace",
        "label": "contract IERC20",
        "numberOfBytes": "20"
      },
      "t_contract(IStrategy)5980": {
        "encoding": "inplace",
        "label": "contract IStrategy",
        "numberOfBytes": "20"
      },
      "t_mapping(t_address,t_bool)": {
        "encoding": "mapping",
        "key": "t_address",
        "label": "mapping(address => bool)",
        "numberOfBytes": "32",
        "value": "t_bool"
      },
      "t_mapping(t_bytes32,t_struct(RoleData)65_storage)": {
        "encoding": "mapping",
        "key": "t_bytes32",
        "label": "mapping(bytes32 => struct AccessControl.RoleData)",
        "numberOfBytes": "32",
        "value": "t_struct(RoleData)65_storage"
      },
      "t_mapping(t_uint256,t_struct(Claimer)3101_storage)": {
        "encoding": "mapping",
        "key": "t_uint256",
        "label": "mapping(uint256 => struct Vault.Claimer)",
        "numberOfBytes": "32",
        "value": "t_struct(Claimer)3101_storage"
      },
      "t_mapping(t_uint256,t_struct(Deposit)3088_storage)": {
        "encoding": "mapping",
        "key": "t_uint256",
        "label": "mapping(uint256 => struct Vault.Deposit)",
        "numberOfBytes": "32",
        "value": "t_struct(Deposit)3088_storage"
      },
      "t_struct(Claimer)3101_storage": {
        "encoding": "inplace",
        "label": "struct Vault.Claimer",
        "members": [
          {
            "astId": 3098,
            "contract": "contracts/Vault.sol:Vault",
            "label": "totalPrincipal",
            "offset": 0,
            "slot": "0",
            "type": "t_uint256"
          },
          {
            "astId": 3100,
            "contract": "contracts/Vault.sol:Vault",
            "label": "totalShares",
            "offset": 0,
            "slot": "1",
            "type": "t_uint256"
          }
        ],
        "numberOfBytes": "64"
      },
      "t_struct(Counter)2657_storage": {
        "encoding": "inplace",
        "label": "struct Counters.Counter",
        "members": [
          {
            "astId": 2656,
            "contract": "contracts/Vault.sol:Vault",
            "label": "_value",
            "offset": 0,
            "slot": "0",
            "type": "t_uint256"
          }
        ],
        "numberOfBytes": "32"
      },
      "t_struct(Deposit)3088_storage": {
        "encoding": "inplace",
        "label": "struct Vault.Deposit",
        "members": [
          {
            "astId": 3078,
            "contract": "contracts/Vault.sol:Vault",
            "label": "amount",
            "offset": 0,
            "slot": "0",
            "type": "t_uint256"
          },
          {
            "astId": 3081,
            "contract": "contracts/Vault.sol:Vault",
            "label": "claimerId",
            "offset": 0,
            "slot": "1",
            "type": "t_uint256"
          },
          {
            "astId": 3084,
            "contract": "contracts/Vault.sol:Vault",
            "label": "lockedUntil",
            "offset": 0,
            "slot": "2",
            "type": "t_uint256"
          },
          {
            "astId": 3087,
            "contract": "contracts/Vault.sol:Vault",
            "label": "shares",
            "offset": 0,
            "slot": "3",
            "type": "t_uint256"
          }
        ],
        "numberOfBytes": "128"
      },
      "t_struct(RoleData)65_storage": {
        "encoding": "inplace",
        "label": "struct AccessControl.RoleData",
        "members": [
          {
            "astId": 62,
            "contract": "contracts/Vault.sol:Vault",
            "label": "members",
            "offset": 0,
            "slot": "0",
            "type": "t_mapping(t_address,t_bool)"
          },
          {
            "astId": 64,
            "contract": "contracts/Vault.sol:Vault",
            "label": "adminRole",
            "offset": 0,
            "slot": "1",
            "type": "t_bytes32"
          }
        ],
        "numberOfBytes": "64"
      },
      "t_uint16": {
        "encoding": "inplace",
        "label": "uint16",
        "numberOfBytes": "2"
      },
      "t_uint256": {
        "encoding": "inplace",
        "label": "uint256",
        "numberOfBytes": "32"
      }
    }
  }
}