{
  "address": "0x0FBeFDD033371d540Fa4256a756D7A2604A0817a",
  "abi": [
    {
      "inputs": [
        {
          "internalType": "address",
          "name": "_vault",
          "type": "address"
        },
        {
          "internalType": "address",
          "name": "_owner",
          "type": "address"
        },
        {
          "internalType": "address",
          "name": "_yVault",
          "type": "address"
        },
        {
          "internalType": "address",
          "name": "_underlying",
          "type": "address"
        }
      ],
      "stateMutability": "nonpayable",
      "type": "constructor"
    },
    {
      "inputs": [],
      "name": "StrategyAmountZero",
      "type": "error"
    },
    {
      "inputs": [],
      "name": "StrategyCallerNotManager",
      "type": "error"
    },
    {
      "inputs": [],
      "name": "StrategyCannotTransferOwnershipToSelf",
      "type": "error"
    },
    {
      "inputs": [],
      "name": "StrategyNoUnderlying",
      "type": "error"
    },
    {
      "inputs": [],
      "name": "StrategyNotEnoughShares",
      "type": "error"
    },
    {
      "inputs": [],
      "name": "StrategyNotIVault",
      "type": "error"
    },
    {
      "inputs": [],
      "name": "StrategyNotRunning",
      "type": "error"
    },
    {
      "inputs": [],
      "name": "StrategyOwnerCannotBe0Address",
      "type": "error"
    },
    {
      "inputs": [],
      "name": "StrategyUnderlyingCannotBe0Address",
      "type": "error"
    },
    {
      "inputs": [],
      "name": "StrategyYearnVaultCannotBe0Address",
      "type": "error"
    },
    {
      "inputs": [],
      "name": "VaultAmountDoesNotMatchParams",
      "type": "error"
    },
    {
      "inputs": [],
      "name": "VaultAmountLocked",
      "type": "error"
    },
    {
      "inputs": [],
      "name": "VaultCannotComputeSharesWithoutPrincipal",
      "type": "error"
    },
    {
      "inputs": [],
      "name": "VaultCannotDeposit0",
      "type": "error"
    },
    {
      "inputs": [],
      "name": "VaultCannotDepositWhenClaimerInDebt",
      "type": "error"
    },
    {
      "inputs": [],
      "name": "VaultCannotDepositWhenYieldNegative",
      "type": "error"
    },
    {
      "inputs": [],
      "name": "VaultCannotSponsor0",
      "type": "error"
    },
    {
      "inputs": [],
      "name": "VaultCannotTransferOwnershipToSelf",
      "type": "error"
    },
    {
      "inputs": [],
      "name": "VaultCannotWithdrawMoreThanAvailable",
      "type": "error"
    },
    {
      "inputs": [],
      "name": "VaultCannotWithdrawWhenYieldNegative",
      "type": "error"
    },
    {
      "inputs": [],
      "name": "VaultClaimPercentageCannotBe0",
      "type": "error"
    },
    {
      "inputs": [],
      "name": "VaultClaimerCannotBe0",
      "type": "error"
    },
    {
      "inputs": [],
      "name": "VaultClaimsDontAddUp",
      "type": "error"
    },
    {
      "inputs": [],
      "name": "VaultDepositLocked",
      "type": "error"
    },
    {
      "inputs": [],
      "name": "VaultDepositNameTooShort",
      "type": "error"
    },
    {
      "inputs": [],
      "name": "VaultDestinationCannotBe0Address",
      "type": "error"
    },
    {
      "inputs": [],
      "name": "VaultInvalidInvestpct",
      "type": "error"
    },
    {
      "inputs": [],
      "name": "VaultInvalidLockPeriod",
      "type": "error"
    },
    {
      "inputs": [],
      "name": "VaultInvalidLossTolerance",
      "type": "error"
    },
    {
      "inputs": [],
      "name": "VaultInvalidMinLockPeriod",
      "type": "error"
    },
    {
      "inputs": [],
      "name": "VaultInvalidPerformanceFee",
      "type": "error"
    },
    {
      "inputs": [],
      "name": "VaultInvalidVault",
      "type": "error"
    },
    {
      "inputs": [],
      "name": "VaultNoPerformanceFee",
      "type": "error"
    },
    {
      "inputs": [],
      "name": "VaultNotAllowed",
      "type": "error"
    },
    {
      "inputs": [],
      "name": "VaultNotDeposit",
      "type": "error"
    },
    {
      "inputs": [],
      "name": "VaultNotEnoughFunds",
      "type": "error"
    },
    {
      "inputs": [],
      "name": "VaultNotEnoughToRebalance",
      "type": "error"
    },
    {
      "inputs": [],
      "name": "VaultNotOwnerOfDeposit",
      "type": "error"
    },
    {
      "inputs": [],
      "name": "VaultNotSponsor",
      "type": "error"
    },
    {
      "inputs": [],
      "name": "VaultNothingToDo",
      "type": "error"
    },
    {
      "inputs": [],
      "name": "VaultOwnerCannotBe0Address",
      "type": "error"
    },
    {
      "inputs": [],
      "name": "VaultSenderNotOwnerOfGroupId",
      "type": "error"
    },
    {
      "inputs": [],
      "name": "VaultStrategyHasInvestedFunds",
      "type": "error"
    },
    {
      "inputs": [],
      "name": "VaultStrategyNotSet",
      "type": "error"
    },
    {
      "inputs": [],
      "name": "VaultTreasuryCannotBe0Address",
      "type": "error"
    },
    {
      "inputs": [],
      "name": "VaultUnderlyingCannotBe0Address",
      "type": "error"
    },
    {
      "anonymous": false,
      "inputs": [
        {
          "indexed": true,
          "internalType": "address",
          "name": "previousOwner",
          "type": "address"
        },
        {
          "indexed": true,
          "internalType": "address",
          "name": "newOwner",
          "type": "address"
        }
      ],
      "name": "OwnershipTransferred",
      "type": "event"
    },
    {
      "anonymous": false,
      "inputs": [
        {
          "indexed": true,
          "internalType": "bytes32",
          "name": "role",
          "type": "bytes32"
        },
        {
          "indexed": true,
          "internalType": "bytes32",
          "name": "previousAdminRole",
          "type": "bytes32"
        },
        {
          "indexed": true,
          "internalType": "bytes32",
          "name": "newAdminRole",
          "type": "bytes32"
        }
      ],
      "name": "RoleAdminChanged",
      "type": "event"
    },
    {
      "anonymous": false,
      "inputs": [
        {
          "indexed": true,
          "internalType": "bytes32",
          "name": "role",
          "type": "bytes32"
        },
        {
          "indexed": true,
          "internalType": "address",
          "name": "account",
          "type": "address"
        },
        {
          "indexed": true,
          "internalType": "address",
          "name": "sender",
          "type": "address"
        }
      ],
      "name": "RoleGranted",
      "type": "event"
    },
    {
      "anonymous": false,
      "inputs": [
        {
          "indexed": true,
          "internalType": "bytes32",
          "name": "role",
          "type": "bytes32"
        },
        {
          "indexed": true,
          "internalType": "address",
          "name": "account",
          "type": "address"
        },
        {
          "indexed": true,
          "internalType": "address",
          "name": "sender",
          "type": "address"
        }
      ],
      "name": "RoleRevoked",
      "type": "event"
    },
    {
      "anonymous": false,
      "inputs": [
        {
          "indexed": false,
          "internalType": "uint256",
          "name": "amount",
          "type": "uint256"
        }
      ],
      "name": "StrategyInvested",
      "type": "event"
    },
    {
      "anonymous": false,
      "inputs": [
        {
          "indexed": false,
          "internalType": "uint256",
          "name": "amount",
          "type": "uint256"
        }
      ],
      "name": "StrategyWithdrawn",
      "type": "event"
    },
    {
      "inputs": [],
      "name": "DEFAULT_ADMIN_ROLE",
      "outputs": [
        {
          "internalType": "bytes32",
          "name": "",
          "type": "bytes32"
        }
      ],
      "stateMutability": "view",
      "type": "function"
    },
    {
      "inputs": [],
      "name": "MANAGER_ROLE",
      "outputs": [
        {
          "internalType": "bytes32",
          "name": "",
          "type": "bytes32"
        }
      ],
      "stateMutability": "view",
      "type": "function"
    },
    {
      "inputs": [
        {
          "internalType": "bytes32",
          "name": "role",
          "type": "bytes32"
        }
      ],
      "name": "getRoleAdmin",
      "outputs": [
        {
          "internalType": "bytes32",
          "name": "",
          "type": "bytes32"
        }
      ],
      "stateMutability": "view",
      "type": "function"
    },
    {
      "inputs": [
        {
          "internalType": "bytes32",
          "name": "role",
          "type": "bytes32"
        },
        {
          "internalType": "address",
          "name": "account",
          "type": "address"
        }
      ],
      "name": "grantRole",
      "outputs": [],
      "stateMutability": "nonpayable",
      "type": "function"
    },
    {
      "inputs": [],
      "name": "hasAssets",
      "outputs": [
        {
          "internalType": "bool",
          "name": "",
          "type": "bool"
        }
      ],
      "stateMutability": "view",
      "type": "function"
    },
    {
      "inputs": [
        {
          "internalType": "bytes32",
          "name": "role",
          "type": "bytes32"
        },
        {
          "internalType": "address",
          "name": "account",
          "type": "address"
        }
      ],
      "name": "hasRole",
      "outputs": [
        {
          "internalType": "bool",
          "name": "",
          "type": "bool"
        }
      ],
      "stateMutability": "view",
      "type": "function"
    },
    {
      "inputs": [],
      "name": "invest",
      "outputs": [],
      "stateMutability": "nonpayable",
      "type": "function"
    },
    {
      "inputs": [],
      "name": "investedAssets",
      "outputs": [
        {
          "internalType": "uint256",
          "name": "",
          "type": "uint256"
        }
      ],
      "stateMutability": "view",
      "type": "function"
    },
    {
      "inputs": [],
      "name": "isSync",
      "outputs": [
        {
          "internalType": "bool",
          "name": "",
          "type": "bool"
        }
      ],
      "stateMutability": "pure",
      "type": "function"
    },
    {
      "inputs": [],
      "name": "owner",
      "outputs": [
        {
          "internalType": "address",
          "name": "",
          "type": "address"
        }
      ],
      "stateMutability": "view",
      "type": "function"
    },
    {
      "inputs": [],
      "name": "renounceOwnership",
      "outputs": [],
      "stateMutability": "nonpayable",
      "type": "function"
    },
    {
      "inputs": [
        {
          "internalType": "bytes32",
          "name": "role",
          "type": "bytes32"
        },
        {
          "internalType": "address",
          "name": "account",
          "type": "address"
        }
      ],
      "name": "renounceRole",
      "outputs": [],
      "stateMutability": "nonpayable",
      "type": "function"
    },
    {
      "inputs": [
        {
          "internalType": "bytes32",
          "name": "role",
          "type": "bytes32"
        },
        {
          "internalType": "address",
          "name": "account",
          "type": "address"
        }
      ],
      "name": "revokeRole",
      "outputs": [],
      "stateMutability": "nonpayable",
      "type": "function"
    },
    {
      "inputs": [
        {
          "internalType": "bytes4",
          "name": "interfaceId",
          "type": "bytes4"
        }
      ],
      "name": "supportsInterface",
      "outputs": [
        {
          "internalType": "bool",
          "name": "",
          "type": "bool"
        }
      ],
      "stateMutability": "view",
      "type": "function"
    },
    {
      "inputs": [
        {
          "internalType": "address",
          "name": "_newOwner",
          "type": "address"
        }
      ],
      "name": "transferOwnership",
      "outputs": [],
      "stateMutability": "nonpayable",
      "type": "function"
    },
    {
      "inputs": [],
      "name": "underlying",
      "outputs": [
        {
          "internalType": "contract IERC20",
          "name": "",
          "type": "address"
        }
      ],
      "stateMutability": "view",
      "type": "function"
    },
    {
      "inputs": [],
      "name": "vault",
      "outputs": [
        {
          "internalType": "address",
          "name": "",
          "type": "address"
        }
      ],
      "stateMutability": "view",
      "type": "function"
    },
    {
      "inputs": [
        {
          "internalType": "uint256",
          "name": "amount",
          "type": "uint256"
        }
      ],
      "name": "withdrawToVault",
      "outputs": [],
      "stateMutability": "nonpayable",
      "type": "function"
    },
    {
      "inputs": [],
      "name": "yVault",
      "outputs": [
        {
          "internalType": "contract IYearnVault",
          "name": "",
          "type": "address"
        }
      ],
      "stateMutability": "view",
      "type": "function"
    }
  ],
  "transactionHash": "0x67e91a48aae52d090e58dbc3a94799f8a7ddc5c813ab1d44b2a57f448b46741d",
  "args": [
    "0xA44567Ea4b9649c86D18ae7EdCB03d1752e792f7",
    "0x8f592F2594C43eA30879f9fbED4d930248D81D41",
    "0xe66A957634bf7805a88dD50095d1b272cbAeF155",
    "0x8D6C54d308C043Ee1914a4604d873E6538713AEF"
  ],
  "numDeployments": 1,
  "solcInputHash": "d84a26b853467fe455f16341e44935fd",
  "bytecode": "0x60e06040523480156200001157600080fd5b5060405162001bcb38038062001bcb8339810160408190526200003491620003d4565b6200003f33620001ce565b6001600160a01b038316620000675760405163b636c31560e01b815260040160405180910390fd5b6001600160a01b0382166200008f57604051631d97a8dd60e31b815260040160405180910390fd5b6001600160a01b038116620000b7576040516301010feb60e61b815260040160405180910390fd5b620000e16354ff06df60e01b856001600160a01b03166200022060201b620009b11790919060201c565b620000ff5760405163d7e681d160e01b815260040160405180910390fd5b6200010c600084620002d3565b620001387f241ecf16d79d0f8dbfb92cbc07fe17840425976cf0667f022fe9877caa831b0885620002d3565b6001600160a01b0384811660a05282811660c0819052908216608081905260405163095ea7b360e01b8152600481019290925260001960248301529063095ea7b3906044016020604051808303816000875af11580156200019d573d6000803e3d6000fd5b505050506040513d601f19601f82011682018060405250810190620001c3919062000431565b50505050506200045c565b600180546001600160a01b038381166001600160a01b0319831681179093556040519116919082907f8be0079c531659141344cd1fd0a4f28419497f9722a3daafe3b4186f6b6457e090600090a35050565b6000808062000237856301ffc9a760e01b620002e3565b909250905081158062000248575080155b156200025a57600092505050620002cd565b6200026e856001600160e01b0319620002e3565b90925090508115806200028057508015155b156200029257600092505050620002cd565b6200029e8585620002e3565b9092509050600182148015620002b45750806001145b15620002c657600192505050620002cd565b6000925050505b92915050565b620002df828262000317565b5050565b6040516301ffc9a760e01b8082526004820183905260009182919060208160248189617530fa905190969095509350505050565b6000828152602081815260408083206001600160a01b038516845290915290205460ff16620002df576000828152602081815260408083206001600160a01b03851684529091529020805460ff19166001179055620003733390565b6001600160a01b0316816001600160a01b0316837f2f8788117e7eff1d82e926ec794901d17c78024a50270940304540a733656f0d60405160405180910390a45050565b80516001600160a01b0381168114620003cf57600080fd5b919050565b60008060008060808587031215620003eb57600080fd5b620003f685620003b7565b93506200040660208601620003b7565b92506200041660408601620003b7565b91506200042660608601620003b7565b905092959194509250565b6000602082840312156200044457600080fd5b815180151581146200045557600080fd5b9392505050565b60805160a05160c051611707620004c4600039600081816101c9015281816106180152818161080601528181610d0301528181610d470152610e4901526000818161031901526106bd01526000818161022b0152818161069b0152610c7701526117076000f3fe608060405234801561001057600080fd5b50600436106101515760003560e01c80638da5cb5b116100cd578063d547741f11610081578063ec87621c11610066578063ec87621c146102da578063f2fde38b14610301578063fbfa77cf1461031457600080fd5b8063d547741f146102bf578063e8b5e51f146102d257600080fd5b80639af2e635116100b25780639af2e6351461029d578063a217fddf146102a4578063ce8c42e8146102ac57600080fd5b80638da5cb5b1461025557806391d148541461026657600080fd5b806336568abe116101245780635be9b2d3116101095780635be9b2d31461021e5780636f307dc314610226578063715018a61461024d57600080fd5b806336568abe146102035780634ad0b6841461021657600080fd5b806301ffc9a714610156578063248a9ca31461017e5780632f2ff15d146101af57806333303f8e146101c4575b600080fd5b610169610164366004611416565b61033b565b60405190151581526020015b60405180910390f35b6101a161018c366004611440565b60009081526020819052604090206001015490565b604051908152602001610175565b6101c26101bd366004611475565b6103ac565b005b6101eb7f000000000000000000000000000000000000000000000000000000000000000081565b6040516001600160a01b039091168152602001610175565b6101c2610211366004611475565b6103d7565b6101a1610468565b610169610491565b6101eb7f000000000000000000000000000000000000000000000000000000000000000081565b6101c26104a2565b6001546001600160a01b03166101eb565b610169610274366004611475565b6000918252602082815260408084206001600160a01b0393909316845291905290205460ff1690565b6001610169565b6101a1600081565b6101c26102ba366004611440565b610508565b6101c26102cd366004611475565b610719565b6101c261073f565b6101a17f241ecf16d79d0f8dbfb92cbc07fe17840425976cf0667f022fe9877caa831b0881565b6101c261030f3660046114a1565b6108b2565b6101eb7f000000000000000000000000000000000000000000000000000000000000000081565b600061035e6040518060600160405280602881526020016116aa60289139610a53565b6001600160e01b031982167f7965db0b0000000000000000000000000000000000000000000000000000000014806103a657506301ffc9a760e01b6001600160e01b03198316145b92915050565b6000828152602081905260409020600101546103c88133610ac4565b6103d28383610b42565b505050565b6001600160a01b038116331461045a5760405162461bcd60e51b815260206004820152602f60248201527f416363657373436f6e74726f6c3a2063616e206f6e6c792072656e6f756e636560448201527f20726f6c657320666f722073656c66000000000000000000000000000000000060648201526084015b60405180910390fd5b6104648282610be0565b5050565b6000610472610c5f565b61048261047d610ceb565b610d3a565b61048c91906114d2565b905090565b600061049b610ceb565b1515919050565b6001546001600160a01b031633146104fc5760405162461bcd60e51b815260206004820181905260248201527f4f776e61626c653a2063616c6c6572206973206e6f7420746865206f776e65726044820152606401610451565b6105066000610ddb565b565b3360009081527fe84508f2c7fa9c351146748b3025cb78b45df37d868e48c6a75102fecdeee645602052604090205460ff1661055757604051634cc2cd3760e11b815260040160405180910390fd5b8061058e576040517fd45ab8b600000000000000000000000000000000000000000000000000000000815260040160405180910390fd5b600061059982610e45565b90506105a3610ceb565b8111156105dc576040517f8396942200000000000000000000000000000000000000000000000000000000815260040160405180910390fd5b6040517fe63697c800000000000000000000000000000000000000000000000000000000815260048101829052306024820152600160448201527f00000000000000000000000000000000000000000000000000000000000000006001600160a01b03169063e63697c8906064016020604051808303816000875af1158015610669573d6000803e3d6000fd5b505050506040513d601f19601f8201168201806040525081019061068d91906114ea565b506106e26001600160a01b037f0000000000000000000000000000000000000000000000000000000000000000167f000000000000000000000000000000000000000000000000000000000000000084610edb565b6040518281527f35c4c11317fd96ffa30da51e0a4b85219c4b0f56c1507c3afefe79de0c47ef549060200160405180910390a15050565b6000828152602081905260409020600101546107358133610ac4565b6103d28383610be0565b3360009081527fe84508f2c7fa9c351146748b3025cb78b45df37d868e48c6a75102fecdeee645602052604090205460ff1661078e57604051634cc2cd3760e11b815260040160405180910390fd5b6000610798610c5f565b9050806107d1576040517f378a16c900000000000000000000000000000000000000000000000000000000815260040160405180910390fd5b6040517f6e553f65000000000000000000000000000000000000000000000000000000008152600481018290523060248201527f00000000000000000000000000000000000000000000000000000000000000006001600160a01b031690636e553f65906044016020604051808303816000875af1158015610857573d6000803e3d6000fd5b505050506040513d601f19601f8201168201806040525081019061087b91906114ea565b506040518181527fc68748140896ba027a48ebf3a24735d0afb4ab835f92c4815ddb34f9d6dfd18a9060200160405180910390a150565b6001546001600160a01b0316331461090c5760405162461bcd60e51b815260206004820181905260248201527f4f776e61626c653a2063616c6c6572206973206e6f7420746865206f776e65726044820152606401610451565b6001600160a01b03811661094c576040517fb636c31500000000000000000000000000000000000000000000000000000000815260040160405180910390fd5b6001600160a01b03811633141561098f576040517ff1079a9800000000000000000000000000000000000000000000000000000000815260040160405180910390fd5b61099881610ddb565b6109a3600082610f5b565b6109ae600033610be0565b50565b600080806109c6856301ffc9a760e01b610f65565b90925090508115806109d6575080155b156109e6576000925050506103a6565b6109f8856001600160e01b0319610f65565b9092509050811580610a0957508015155b15610a19576000925050506103a6565b610a238585610f65565b9092509050600182148015610a385750806001145b15610a48576001925050506103a6565b506000949350505050565b6109ae81604051602401610a679190611533565b60408051601f198184030181529190526020810180517bffffffffffffffffffffffffffffffffffffffffffffffffffffffff167f41304fac00000000000000000000000000000000000000000000000000000000179052610f99565b6000828152602081815260408083206001600160a01b038516845290915290205460ff1661046457610b00816001600160a01b03166014610fba565b610b0b836020610fba565b604051602001610b1c929190611566565b60408051601f198184030181529082905262461bcd60e51b825261045191600401611533565b6000828152602081815260408083206001600160a01b038516845290915290205460ff16610464576000828152602081815260408083206001600160a01b03851684529091529020805460ff19166001179055610b9c3390565b6001600160a01b0316816001600160a01b0316837f2f8788117e7eff1d82e926ec794901d17c78024a50270940304540a733656f0d60405160405180910390a45050565b6000828152602081815260408083206001600160a01b038516845290915290205460ff1615610464576000828152602081815260408083206001600160a01b0385168085529252808320805460ff1916905551339285917ff6391f5c32d9c69d2a47ea670b442974b53935d1edc7fd64eb21e047a839171b9190a45050565b6040516370a0823160e01b81523060048201526000907f00000000000000000000000000000000000000000000000000000000000000006001600160a01b0316906370a08231906024015b602060405180830381865afa158015610cc7573d6000803e3d6000fd5b505050506040513d601f19601f8201168201806040525081019061048c91906114ea565b6040516370a0823160e01b81523060048201526000907f00000000000000000000000000000000000000000000000000000000000000006001600160a01b0316906370a0823190602401610caa565b6000670de0b6b3a76400007f00000000000000000000000000000000000000000000000000000000000000006001600160a01b03166399530b066040518163ffffffff1660e01b8152600401602060405180830381865afa158015610da3573d6000803e3d6000fd5b505050506040513d601f19601f82011682018060405250810190610dc791906114ea565b610dd190846115e7565b6103a69190611606565b600180546001600160a01b038381167fffffffffffffffffffffffff0000000000000000000000000000000000000000831681179093556040519116919082907f8be0079c531659141344cd1fd0a4f28419497f9722a3daafe3b4186f6b6457e090600090a35050565b60007f00000000000000000000000000000000000000000000000000000000000000006001600160a01b03166399530b066040518163ffffffff1660e01b8152600401602060405180830381865afa158015610ea5573d6000803e3d6000fd5b505050506040513d601f19601f82011682018060405250810190610ec991906114ea565b610dd183670de0b6b3a76400006115e7565b604080516001600160a01b038416602482015260448082018490528251808303909101815260649091019091526020810180517bffffffffffffffffffffffffffffffffffffffffffffffffffffffff167fa9059cbb000000000000000000000000000000000000000000000000000000001790526103d29084906111a2565b6104648282610b42565b6040516301ffc9a760e01b8082526004820183905260009182919060208160248189617530fa905190969095509350505050565b80516a636f6e736f6c652e6c6f67602083016000808483855afa5050505050565b60606000610fc98360026115e7565b610fd49060026114d2565b67ffffffffffffffff811115610fec57610fec611628565b6040519080825280601f01601f191660200182016040528015611016576020820181803683370190505b5090507f30000000000000000000000000000000000000000000000000000000000000008160008151811061104d5761104d61163e565b60200101906001600160f81b031916908160001a9053507f7800000000000000000000000000000000000000000000000000000000000000816001815181106110985761109861163e565b60200101906001600160f81b031916908160001a90535060006110bc8460026115e7565b6110c79060016114d2565b90505b600181111561114c577f303132333435363738396162636465660000000000000000000000000000000085600f16601081106111085761110861163e565b1a60f81b82828151811061111e5761111e61163e565b60200101906001600160f81b031916908160001a90535060049490941c9361114581611654565b90506110ca565b50831561119b5760405162461bcd60e51b815260206004820181905260248201527f537472696e67733a20686578206c656e67746820696e73756666696369656e746044820152606401610451565b9392505050565b60006111f7826040518060400160405280602081526020017f5361666545524332303a206c6f772d6c6576656c2063616c6c206661696c6564815250856001600160a01b03166112879092919063ffffffff16565b8051909150156103d25780806020019051810190611215919061166b565b6103d25760405162461bcd60e51b815260206004820152602a60248201527f5361666545524332303a204552433230206f7065726174696f6e20646964206e60448201527f6f742073756363656564000000000000000000000000000000000000000000006064820152608401610451565b6060611296848460008561129e565b949350505050565b6060824710156113165760405162461bcd60e51b815260206004820152602660248201527f416464726573733a20696e73756666696369656e742062616c616e636520666f60448201527f722063616c6c00000000000000000000000000000000000000000000000000006064820152608401610451565b843b6113645760405162461bcd60e51b815260206004820152601d60248201527f416464726573733a2063616c6c20746f206e6f6e2d636f6e74726163740000006044820152606401610451565b600080866001600160a01b03168587604051611380919061168d565b60006040518083038185875af1925050503d80600081146113bd576040519150601f19603f3d011682016040523d82523d6000602084013e6113c2565b606091505b50915091506113d28282866113dd565b979650505050505050565b606083156113ec57508161119b565b8251156113fc5782518084602001fd5b8160405162461bcd60e51b81526004016104519190611533565b60006020828403121561142857600080fd5b81356001600160e01b03198116811461119b57600080fd5b60006020828403121561145257600080fd5b5035919050565b80356001600160a01b038116811461147057600080fd5b919050565b6000806040838503121561148857600080fd5b8235915061149860208401611459565b90509250929050565b6000602082840312156114b357600080fd5b61119b82611459565b634e487b7160e01b600052601160045260246000fd5b600082198211156114e5576114e56114bc565b500190565b6000602082840312156114fc57600080fd5b5051919050565b60005b8381101561151e578181015183820152602001611506565b8381111561152d576000848401525b50505050565b6020815260008251806020840152611552816040850160208701611503565b601f01601f19169190910160400192915050565b7f416363657373436f6e74726f6c3a206163636f756e742000000000000000000081526000835161159e816017850160208801611503565b7f206973206d697373696e6720726f6c652000000000000000000000000000000060179184019182015283516115db816028840160208801611503565b01602801949350505050565b6000816000190483118215151615611601576116016114bc565b500290565b60008261162357634e487b7160e01b600052601260045260246000fd5b500490565b634e487b7160e01b600052604160045260246000fd5b634e487b7160e01b600052603260045260246000fd5b600081611663576116636114bc565b506000190190565b60006020828403121561167d57600080fd5b8151801515811461119b57600080fd5b6000825161169f818460208701611503565b919091019291505056fe616363657373636f6e74726f6c20737570706f727473696e746572666163652066756e6374696f6ea26469706673582212205e20107f753732bd754851f126f6cb4477ea104c3b5e76e61fec9e437a50193e64736f6c634300080a0033",
  "devdoc": {
    "kind": "dev",
    "methods": {
      "constructor": {
        "params": {
          "_owner": "address of the owner of this strategy",
          "_underlying": "address of the underlying token",
          "_vault": "address of the vault that will use this strategy",
          "_yVault": "address of the yearn vault that this strategy is using"
        }
      },
      "getRoleAdmin(bytes32)": {
        "details": "Returns the admin role that controls `role`. See {grantRole} and {revokeRole}. To change a role's admin, use {_setRoleAdmin}."
      },
      "grantRole(bytes32,address)": {
        "details": "Grants `role` to `account`. If `account` had not been already granted `role`, emits a {RoleGranted} event. Requirements: - the caller must have ``role``'s admin role."
      },
      "hasAssets()": {
        "returns": {
          "_0": "true if assets invested, false if nothing invested."
        }
      },
      "hasRole(bytes32,address)": {
        "details": "Returns `true` if `account` has been granted `role`."
      },
      "investedAssets()": {
        "returns": {
          "_0": "The total amount of underlying"
        }
      },
      "isSync()": {
        "returns": {
          "_0": "true always"
        }
      },
      "owner()": {
        "details": "Returns the address of the current owner."
      },
      "renounceOwnership()": {
        "details": "Leaves the contract without owner. It will not be possible to call `onlyOwner` functions anymore. Can only be called by the current owner. NOTE: Renouncing ownership will leave the contract without an owner, thereby removing any functionality that is only available to the owner."
      },
      "renounceRole(bytes32,address)": {
        "details": "Revokes `role` from the calling account. Roles are often managed via {grantRole} and {revokeRole}: this function's purpose is to provide a mechanism for accounts to lose their privileges if they are compromised (such as when a trusted device is misplaced). If the calling account had been revoked `role`, emits a {RoleRevoked} event. Requirements: - the caller must be `account`."
      },
      "revokeRole(bytes32,address)": {
        "details": "Revokes `role` from `account`. If `account` had been granted `role`, emits a {RoleRevoked} event. Requirements: - the caller must have ``role``'s admin role."
      },
      "supportsInterface(bytes4)": {
        "details": "See {IERC165-supportsInterface}."
      },
      "transferOwnership(address)": {
        "params": {
          "_newOwner": "The new owner of the contract."
        }
      },
      "withdrawToVault(uint256)": {
        "params": {
          "amount": "Amount to withdraw"
        }
      }
    },
    "stateVariables": {
      "vault": {
        "return": "The vault's address",
        "returns": {
          "_0": "The vault's address"
        }
      }
    },
    "version": 1
  },
  "userdoc": {
    "events": {
      "StrategyInvested(uint256)": {
        "notice": "Emmited when funds are invested by the strategy."
      },
      "StrategyWithdrawn(uint256)": {
        "notice": "Emmited when funds are withdrawn (disinvested) by the strategy."
      }
    },
    "kind": "user",
    "methods": {
      "MANAGER_ROLE()": {
        "notice": "role allowed to invest/withdraw from yearn vault"
      },
      "hasAssets()": {
        "notice": "Indicates if assets are invested into strategy or not.this will be used when removing the strategy from the vault"
      },
      "invest()": {
        "notice": "Deposits of all the available underlying into the yield generating protocol."
      },
      "investedAssets()": {
        "notice": "Amount of the underlying currency currently invested by the strategy.both held and invested amounts are included here, using the latest known exchange rates to the underlying currency"
      },
      "isSync()": {
        "notice": "Yearn strategy is synchronous meaning it supports immediate withdrawals."
      },
      "transferOwnership(address)": {
        "notice": "Transfers ownership of the Strategy to another account,  revoking previous owner's ADMIN role and setting up ADMIN role for the new owner. Can only be called by the current owner."
      },
      "vault()": {
        "notice": "The vault linked to this strategy."
      },
      "withdrawToVault(uint256)": {
        "notice": "Withdraws the specified amount back to the vault (disinvests)"
      }
    },
    "notice": "YearnStrategy generates yield by investing into a Yearn vault.This strategy is syncrhonous (supports immediate withdrawals).",
    "version": 1
  },
  "storageLayout": {
    "storage": [
      {
        "astId": 71,
        "contract": "contracts/strategy/yearn/YearnStrategy.sol:YearnStrategy",
        "label": "_roles",
        "offset": 0,
        "slot": "0",
        "type": "t_mapping(t_bytes32,t_struct(RoleData)66_storage)"
      },
      {
        "astId": 442,
        "contract": "contracts/strategy/yearn/YearnStrategy.sol:YearnStrategy",
        "label": "_owner",
        "offset": 0,
        "slot": "1",
        "type": "t_address"
      }
    ],
    "types": {
      "t_address": {
        "encoding": "inplace",
        "label": "address",
        "numberOfBytes": "20"
      },
      "t_bool": {
        "encoding": "inplace",
        "label": "bool",
        "numberOfBytes": "1"
      },
      "t_bytes32": {
        "encoding": "inplace",
        "label": "bytes32",
        "numberOfBytes": "32"
      },
      "t_mapping(t_address,t_bool)": {
        "encoding": "mapping",
        "key": "t_address",
        "label": "mapping(address => bool)",
        "numberOfBytes": "32",
        "value": "t_bool"
      },
      "t_mapping(t_bytes32,t_struct(RoleData)66_storage)": {
        "encoding": "mapping",
        "key": "t_bytes32",
        "label": "mapping(bytes32 => struct AccessControl.RoleData)",
        "numberOfBytes": "32",
        "value": "t_struct(RoleData)66_storage"
      },
      "t_struct(RoleData)66_storage": {
        "encoding": "inplace",
        "label": "struct AccessControl.RoleData",
        "members": [
          {
            "astId": 63,
            "contract": "contracts/strategy/yearn/YearnStrategy.sol:YearnStrategy",
            "label": "members",
            "offset": 0,
            "slot": "0",
            "type": "t_mapping(t_address,t_bool)"
          },
          {
            "astId": 65,
            "contract": "contracts/strategy/yearn/YearnStrategy.sol:YearnStrategy",
            "label": "adminRole",
            "offset": 0,
            "slot": "1",
            "type": "t_bytes32"
          }
        ],
        "numberOfBytes": "64"
      }
    }
  }
}