{
  "address": "0x64f1A4579Bd03366AA12BDfB4151b5a07E0D9A77",
  "abi": [
    {
      "inputs": [
        {
          "internalType": "string",
          "name": "_name",
          "type": "string"
        },
        {
          "internalType": "string",
          "name": "_symbol",
          "type": "string"
        },
        {
          "internalType": "address",
          "name": "_underlying",
          "type": "address"
        }
      ],
      "stateMutability": "nonpayable",
      "type": "constructor"
    },
    {
      "anonymous": false,
      "inputs": [
        {
          "indexed": true,
          "internalType": "address",
          "name": "owner",
          "type": "address"
        },
        {
          "indexed": true,
          "internalType": "address",
          "name": "spender",
          "type": "address"
        },
        {
          "indexed": false,
          "internalType": "uint256",
          "name": "value",
          "type": "uint256"
        }
      ],
      "name": "Approval",
      "type": "event"
    },
    {
      "anonymous": false,
      "inputs": [
        {
          "indexed": true,
          "internalType": "address",
          "name": "from",
          "type": "address"
        },
        {
          "indexed": true,
          "internalType": "address",
          "name": "to",
          "type": "address"
        },
        {
          "indexed": false,
          "internalType": "uint256",
          "name": "value",
          "type": "uint256"
        }
      ],
      "name": "Transfer",
      "type": "event"
    },
    {
      "inputs": [
        {
          "internalType": "address",
          "name": "owner",
          "type": "address"
        },
        {
          "internalType": "address",
          "name": "spender",
          "type": "address"
        }
      ],
      "name": "allowance",
      "outputs": [
        {
          "internalType": "uint256",
          "name": "",
          "type": "uint256"
        }
      ],
      "stateMutability": "view",
      "type": "function"
    },
    {
      "inputs": [
        {
          "internalType": "address",
          "name": "spender",
          "type": "address"
        },
        {
          "internalType": "uint256",
          "name": "amount",
          "type": "uint256"
        }
      ],
      "name": "approve",
      "outputs": [
        {
          "internalType": "bool",
          "name": "",
          "type": "bool"
        }
      ],
      "stateMutability": "nonpayable",
      "type": "function"
    },
    {
      "inputs": [
        {
          "internalType": "address",
          "name": "account",
          "type": "address"
        }
      ],
      "name": "balanceOf",
      "outputs": [
        {
          "internalType": "uint256",
          "name": "",
          "type": "uint256"
        }
      ],
      "stateMutability": "view",
      "type": "function"
    },
    {
      "inputs": [],
      "name": "decimals",
      "outputs": [
        {
          "internalType": "uint8",
          "name": "",
          "type": "uint8"
        }
      ],
      "stateMutability": "view",
      "type": "function"
    },
    {
      "inputs": [
        {
          "internalType": "address",
          "name": "spender",
          "type": "address"
        },
        {
          "internalType": "uint256",
          "name": "subtractedValue",
          "type": "uint256"
        }
      ],
      "name": "decreaseAllowance",
      "outputs": [
        {
          "internalType": "bool",
          "name": "",
          "type": "bool"
        }
      ],
      "stateMutability": "nonpayable",
      "type": "function"
    },
    {
      "inputs": [
        {
          "internalType": "uint256",
          "name": "amount",
          "type": "uint256"
        },
        {
          "internalType": "address",
          "name": "recipient",
          "type": "address"
        }
      ],
      "name": "deposit",
      "outputs": [
        {
          "internalType": "uint256",
          "name": "",
          "type": "uint256"
        }
      ],
      "stateMutability": "nonpayable",
      "type": "function"
    },
    {
      "inputs": [
        {
          "internalType": "address",
          "name": "spender",
          "type": "address"
        },
        {
          "internalType": "uint256",
          "name": "addedValue",
          "type": "uint256"
        }
      ],
      "name": "increaseAllowance",
      "outputs": [
        {
          "internalType": "bool",
          "name": "",
          "type": "bool"
        }
      ],
      "stateMutability": "nonpayable",
      "type": "function"
    },
    {
      "inputs": [],
      "name": "name",
      "outputs": [
        {
          "internalType": "string",
          "name": "",
          "type": "string"
        }
      ],
      "stateMutability": "view",
      "type": "function"
    },
    {
      "inputs": [],
      "name": "pricePerShare",
      "outputs": [
        {
          "internalType": "uint256",
          "name": "",
          "type": "uint256"
        }
      ],
      "stateMutability": "view",
      "type": "function"
    },
    {
      "inputs": [],
      "name": "spyForMaxLossWithdrawParam",
      "outputs": [
        {
          "internalType": "uint256",
          "name": "",
          "type": "uint256"
        }
      ],
      "stateMutability": "view",
      "type": "function"
    },
    {
      "inputs": [],
      "name": "symbol",
      "outputs": [
        {
          "internalType": "string",
          "name": "",
          "type": "string"
        }
      ],
      "stateMutability": "view",
      "type": "function"
    },
    {
      "inputs": [],
      "name": "totalAssets",
      "outputs": [
        {
          "internalType": "uint256",
          "name": "",
          "type": "uint256"
        }
      ],
      "stateMutability": "view",
      "type": "function"
    },
    {
      "inputs": [],
      "name": "totalSupply",
      "outputs": [
        {
          "internalType": "uint256",
          "name": "",
          "type": "uint256"
        }
      ],
      "stateMutability": "view",
      "type": "function"
    },
    {
      "inputs": [
        {
          "internalType": "address",
          "name": "recipient",
          "type": "address"
        },
        {
          "internalType": "uint256",
          "name": "amount",
          "type": "uint256"
        }
      ],
      "name": "transfer",
      "outputs": [
        {
          "internalType": "bool",
          "name": "",
          "type": "bool"
        }
      ],
      "stateMutability": "nonpayable",
      "type": "function"
    },
    {
      "inputs": [
        {
          "internalType": "address",
          "name": "sender",
          "type": "address"
        },
        {
          "internalType": "address",
          "name": "recipient",
          "type": "address"
        },
        {
          "internalType": "uint256",
          "name": "amount",
          "type": "uint256"
        }
      ],
      "name": "transferFrom",
      "outputs": [
        {
          "internalType": "bool",
          "name": "",
          "type": "bool"
        }
      ],
      "stateMutability": "nonpayable",
      "type": "function"
    },
    {
      "inputs": [
        {
          "internalType": "uint256",
          "name": "maxShares",
          "type": "uint256"
        },
        {
          "internalType": "address",
          "name": "recipient",
          "type": "address"
        },
        {
          "internalType": "uint256",
          "name": "_maxLoss",
          "type": "uint256"
        }
      ],
      "name": "withdraw",
      "outputs": [
        {
          "internalType": "uint256",
          "name": "",
          "type": "uint256"
        }
      ],
      "stateMutability": "nonpayable",
      "type": "function"
    }
  ],
  "transactionHash": "0x37e31ebc460c95c6baba7625c390be975cc2c29a7da3da9ae0db3d0fc487bb51",
  "args": [
    "LUSD Yearn Vault",
    "LUSD",
    "0x8D6C54d308C043Ee1914a4604d873E6538713AEF"
  ],
  "numDeployments": 2,
  "solcInputHash": "453c3cf4c8eb9adc80124028e215b0e3",
  "bytecode": "0x60a06040523480156200001157600080fd5b5060405162001929380380620019298339810160408190526200003491620001ee565b8251839083906200004d9060039060208501906200007b565b508051620000639060049060208401906200007b565b5050506001600160a01b031660805250620002b89050565b82805462000089906200027b565b90600052602060002090601f016020900481019282620000ad5760008555620000f8565b82601f10620000c857805160ff1916838001178555620000f8565b82800160010185558215620000f8579182015b82811115620000f8578251825591602001919060010190620000db565b50620001069291506200010a565b5090565b5b808211156200010657600081556001016200010b565b634e487b7160e01b600052604160045260246000fd5b600082601f8301126200014957600080fd5b81516001600160401b038082111562000166576200016662000121565b604051601f8301601f19908116603f0116810190828211818310171562000191576200019162000121565b81604052838152602092508683858801011115620001ae57600080fd5b600091505b83821015620001d25785820183015181830184015290820190620001b3565b83821115620001e45760008385830101525b9695505050505050565b6000806000606084860312156200020457600080fd5b83516001600160401b03808211156200021c57600080fd5b6200022a8783880162000137565b945060208601519150808211156200024157600080fd5b50620002508682870162000137565b604086015190935090506001600160a01b03811681146200027057600080fd5b809150509250925092565b600181811c908216806200029057607f821691505b60208210811415620002b257634e487b7160e01b600052602260045260246000fd5b50919050565b608051611624620003056000396000818161027f0152818161046a01528181610554015281816105d701528181610635015281816106d101528181610847015261093901526116246000f3fe608060405234801561001057600080fd5b50600436106101005760003560e01c806370a0823111610097578063a9059cbb11610066578063a9059cbb146101ff578063c175e1cd14610212578063dd62ed3e1461021b578063e63697c81461025457600080fd5b806370a08231146101b357806395d89b41146101dc57806399530b06146101e4578063a457c2d7146101ec57600080fd5b806323b872dd116100d357806323b872dd14610160578063313ce56714610173578063395093511461018d5780636e553f65146101a057600080fd5b806301e1d1141461010557806306fdde0314610120578063095ea7b31461013557806318160ddd14610158575b600080fd5b61010d610267565b6040519081526020015b60405180910390f35b6101286102f7565b6040516101179190611275565b6101486101433660046112c4565b610389565b6040519015158152602001610117565b60025461010d565b61014861016e3660046112ee565b6103a0565b61017b610466565b60405160ff9091168152602001610117565b61014861019b3660046112c4565b6104ea565b61010d6101ae36600461132a565b610526565b61010d6101c1366004611356565b6001600160a01b031660009081526020819052604090205490565b610128610611565b61010d610620565b6101486101fa3660046112c4565b610770565b61014861020d3660046112c4565b610821565b61010d60055481565b61010d610229366004611371565b6001600160a01b03918216600090815260016020908152604080832093909416825291909152205490565b61010d61026236600461139b565b61082e565b6040516370a0823160e01b81523060048201526000907f00000000000000000000000000000000000000000000000000000000000000006001600160a01b0316906370a0823190602401602060405180830381865afa1580156102ce573d6000803e3d6000fd5b505050506040513d601f19601f820116820180604052508101906102f291906113c0565b905090565b606060038054610306906113d9565b80601f0160208091040260200160405190810160405280929190818152602001828054610332906113d9565b801561037f5780601f106103545761010080835404028352916020019161037f565b820191906000526020600020905b81548152906001019060200180831161036257829003601f168201915b5050505050905090565b60006103963384846109af565b5060015b92915050565b60006103ad848484610b08565b6001600160a01b03841660009081526001602090815260408083203384529091529020548281101561044c5760405162461bcd60e51b815260206004820152602860248201527f45524332303a207472616e7366657220616d6f756e742065786365656473206160448201527f6c6c6f77616e636500000000000000000000000000000000000000000000000060648201526084015b60405180910390fd5b61045985338584036109af565b60019150505b9392505050565b60007f00000000000000000000000000000000000000000000000000000000000000006001600160a01b031663313ce5676040518163ffffffff1660e01b8152600401602060405180830381865afa1580156104c6573d6000803e3d6000fd5b505050506040513d601f19601f820116820180604052508101906102f29190611414565b3360008181526001602090815260408083206001600160a01b0387168452909152812054909161039691859061052190869061144d565b6109af565b600080831161053457600080fd5b826000198114156105ca576040516370a0823160e01b81523360048201527f00000000000000000000000000000000000000000000000000000000000000006001600160a01b0316906370a0823190602401602060405180830381865afa1580156105a3573d6000803e3d6000fd5b505050506040513d601f19601f820116820180604052508101906105c791906113c0565b90505b6105ff6001600160a01b037f000000000000000000000000000000000000000000000000000000000000000016333084610d21565b6106098382610da9565b949350505050565b606060048054610306906113d9565b60008061062c60025490565b9050806106c6577f00000000000000000000000000000000000000000000000000000000000000006001600160a01b031663313ce5676040518163ffffffff1660e01b8152600401602060405180830381865afa158015610691573d6000803e3d6000fd5b505050506040513d601f19601f820116820180604052508101906106b59190611414565b6106c090600a611549565b91505090565b806106cf610267565b7f00000000000000000000000000000000000000000000000000000000000000006001600160a01b031663313ce5676040518163ffffffff1660e01b8152600401602060405180830381865afa15801561072d573d6000803e3d6000fd5b505050506040513d601f19601f820116820180604052508101906107519190611414565b61075c90600a611549565b6107669190611558565b6106c09190611577565b3360009081526001602090815260408083206001600160a01b03861684529091528120548281101561080a5760405162461bcd60e51b815260206004820152602560248201527f45524332303a2064656372656173656420616c6c6f77616e63652062656c6f7760448201527f207a65726f0000000000000000000000000000000000000000000000000000006064820152608401610443565b61081733858584036109af565b5060019392505050565b6000610396338484610b08565b600080841161083c57600080fd5b8160058190555060007f00000000000000000000000000000000000000000000000000000000000000006001600160a01b031663313ce5676040518163ffffffff1660e01b8152600401602060405180830381865afa1580156108a3573d6000803e3d6000fd5b505050506040513d601f19601f820116820180604052508101906108c79190611414565b6108d290600a611549565b6108da610620565b6108e49087611558565b6108ee9190611577565b90506108fa3386610df8565b6040517fa9059cbb0000000000000000000000000000000000000000000000000000000081526001600160a01b038581166004830152602482018390527f0000000000000000000000000000000000000000000000000000000000000000169063a9059cbb906044016020604051808303816000875af1158015610982573d6000803e3d6000fd5b505050506040513d601f19601f820116820180604052508101906109a69190611599565b50949350505050565b6001600160a01b038316610a2a5760405162461bcd60e51b8152602060048201526024808201527f45524332303a20617070726f76652066726f6d20746865207a65726f2061646460448201527f72657373000000000000000000000000000000000000000000000000000000006064820152608401610443565b6001600160a01b038216610aa65760405162461bcd60e51b815260206004820152602260248201527f45524332303a20617070726f766520746f20746865207a65726f20616464726560448201527f73730000000000000000000000000000000000000000000000000000000000006064820152608401610443565b6001600160a01b0383811660008181526001602090815260408083209487168084529482529182902085905590518481527f8c5be1e5ebec7d5bd14f71427d1e84f3dd0314c0f7b2291e5b200ac8c7c3b92591015b60405180910390a3505050565b6001600160a01b038316610b845760405162461bcd60e51b815260206004820152602560248201527f45524332303a207472616e736665722066726f6d20746865207a65726f20616460448201527f64726573730000000000000000000000000000000000000000000000000000006064820152608401610443565b6001600160a01b038216610c005760405162461bcd60e51b815260206004820152602360248201527f45524332303a207472616e7366657220746f20746865207a65726f206164647260448201527f65737300000000000000000000000000000000000000000000000000000000006064820152608401610443565b6001600160a01b03831660009081526020819052604090205481811015610c8f5760405162461bcd60e51b815260206004820152602660248201527f45524332303a207472616e7366657220616d6f756e742065786365656473206260448201527f616c616e636500000000000000000000000000000000000000000000000000006064820152608401610443565b6001600160a01b03808516600090815260208190526040808220858503905591851681529081208054849290610cc690849061144d565b92505081905550826001600160a01b0316846001600160a01b03167fddf252ad1be2c89b69c2b068fc378daa952ba7f163c4a11628f55a4df523b3ef84604051610d1291815260200190565b60405180910390a35b50505050565b604080516001600160a01b0385811660248301528416604482015260648082018490528251808303909101815260849091019091526020810180517bffffffffffffffffffffffffffffffffffffffffffffffffffffffff167f23b872dd00000000000000000000000000000000000000000000000000000000179052610d1b908590610f7a565b6000806000610db760025490565b90508015610de257610dc7610267565b610dd18286611558565b610ddb9190611577565b9150610de6565b8391505b610df0858361105f565b509392505050565b6001600160a01b038216610e745760405162461bcd60e51b815260206004820152602160248201527f45524332303a206275726e2066726f6d20746865207a65726f2061646472657360448201527f73000000000000000000000000000000000000000000000000000000000000006064820152608401610443565b6001600160a01b03821660009081526020819052604090205481811015610f035760405162461bcd60e51b815260206004820152602260248201527f45524332303a206275726e20616d6f756e7420657863656564732062616c616e60448201527f63650000000000000000000000000000000000000000000000000000000000006064820152608401610443565b6001600160a01b0383166000908152602081905260408120838303905560028054849290610f329084906115bb565b90915550506040518281526000906001600160a01b038516907fddf252ad1be2c89b69c2b068fc378daa952ba7f163c4a11628f55a4df523b3ef90602001610afb565b505050565b6000610fcf826040518060400160405280602081526020017f5361666545524332303a206c6f772d6c6576656c2063616c6c206661696c6564815250856001600160a01b031661113e9092919063ffffffff16565b805190915015610f755780806020019051810190610fed9190611599565b610f755760405162461bcd60e51b815260206004820152602a60248201527f5361666545524332303a204552433230206f7065726174696f6e20646964206e60448201527f6f742073756363656564000000000000000000000000000000000000000000006064820152608401610443565b6001600160a01b0382166110b55760405162461bcd60e51b815260206004820152601f60248201527f45524332303a206d696e7420746f20746865207a65726f2061646472657373006044820152606401610443565b80600260008282546110c7919061144d565b90915550506001600160a01b038216600090815260208190526040812080548392906110f490849061144d565b90915550506040518181526001600160a01b038316906000907fddf252ad1be2c89b69c2b068fc378daa952ba7f163c4a11628f55a4df523b3ef9060200160405180910390a35050565b6060610609848460008585843b6111975760405162461bcd60e51b815260206004820152601d60248201527f416464726573733a2063616c6c20746f206e6f6e2d636f6e74726163740000006044820152606401610443565b600080866001600160a01b031685876040516111b391906115d2565b60006040518083038185875af1925050503d80600081146111f0576040519150601f19603f3d011682016040523d82523d6000602084013e6111f5565b606091505b5091509150611205828286611210565b979650505050505050565b6060831561121f57508161045f565b82511561122f5782518084602001fd5b8160405162461bcd60e51b81526004016104439190611275565b60005b8381101561126457818101518382015260200161124c565b83811115610d1b5750506000910152565b6020815260008251806020840152611294816040850160208701611249565b601f01601f19169190910160400192915050565b80356001600160a01b03811681146112bf57600080fd5b919050565b600080604083850312156112d757600080fd5b6112e0836112a8565b946020939093013593505050565b60008060006060848603121561130357600080fd5b61130c846112a8565b925061131a602085016112a8565b9150604084013590509250925092565b6000806040838503121561133d57600080fd5b8235915061134d602084016112a8565b90509250929050565b60006020828403121561136857600080fd5b61045f826112a8565b6000806040838503121561138457600080fd5b61138d836112a8565b915061134d602084016112a8565b6000806000606084860312156113b057600080fd5b8335925061131a602085016112a8565b6000602082840312156113d257600080fd5b5051919050565b600181811c908216806113ed57607f821691505b6020821081141561140e57634e487b7160e01b600052602260045260246000fd5b50919050565b60006020828403121561142657600080fd5b815160ff8116811461045f57600080fd5b634e487b7160e01b600052601160045260246000fd5b6000821982111561146057611460611437565b500190565b600181815b808511156114a057816000190482111561148657611486611437565b8085161561149357918102915b93841c939080029061146a565b509250929050565b6000826114b75750600161039a565b816114c45750600061039a565b81600181146114da57600281146114e457611500565b600191505061039a565b60ff8411156114f5576114f5611437565b50506001821b61039a565b5060208310610133831016604e8410600b8410161715611523575081810a61039a565b61152d8383611465565b806000190482111561154157611541611437565b029392505050565b600061045f60ff8416836114a8565b600081600019048311821515161561157257611572611437565b500290565b60008261159457634e487b7160e01b600052601260045260246000fd5b500490565b6000602082840312156115ab57600080fd5b8151801515811461045f57600080fd5b6000828210156115cd576115cd611437565b500390565b600082516115e4818460208701611249565b919091019291505056fea26469706673582212201a866eb84549081060ae53afe20f363eddb14ead6b09073fa20a8109c843ea4a64736f6c634300080a0033",
  "devdoc": {
    "kind": "dev",
    "methods": {
      "allowance(address,address)": {
        "details": "See {IERC20-allowance}."
      },
      "approve(address,uint256)": {
        "details": "See {IERC20-approve}. Requirements: - `spender` cannot be the zero address."
      },
      "balanceOf(address)": {
        "details": "See {IERC20-balanceOf}."
      },
      "decreaseAllowance(address,uint256)": {
        "details": "Atomically decreases the allowance granted to `spender` by the caller. This is an alternative to {approve} that can be used as a mitigation for problems described in {IERC20-approve}. Emits an {Approval} event indicating the updated allowance. Requirements: - `spender` cannot be the zero address. - `spender` must have allowance for the caller of at least `subtractedValue`."
      },
      "increaseAllowance(address,uint256)": {
        "details": "Atomically increases the allowance granted to `spender` by the caller. This is an alternative to {approve} that can be used as a mitigation for problems described in {IERC20-approve}. Emits an {Approval} event indicating the updated allowance. Requirements: - `spender` cannot be the zero address."
      },
      "name()": {
        "details": "Returns the name of the token."
      },
      "symbol()": {
        "details": "Returns the symbol of the token, usually a shorter version of the name."
      },
      "totalSupply()": {
        "details": "See {IERC20-totalSupply}."
      },
      "transfer(address,uint256)": {
        "details": "See {IERC20-transfer}. Requirements: - `recipient` cannot be the zero address. - the caller must have a balance of at least `amount`."
      },
      "transferFrom(address,address,uint256)": {
        "details": "See {IERC20-transferFrom}. Emits an {Approval} event indicating the updated allowance. This is not required by the EIP. See the note at the beginning of {ERC20}. Requirements: - `sender` and `recipient` cannot be the zero address. - `sender` must have a balance of at least `amount`. - the caller must have allowance for ``sender``'s tokens of at least `amount`."
      }
    },
    "version": 1
  },
  "userdoc": {
    "kind": "user",
    "methods": {},
    "version": 1
  },
  "storageLayout": {
    "storage": [
      {
        "astId": 680,
        "contract": "contracts/mock/yearn/MockYearnVault.sol:MockYearnVault",
        "label": "_balances",
        "offset": 0,
        "slot": "0",
        "type": "t_mapping(t_address,t_uint256)"
      },
      {
        "astId": 686,
        "contract": "contracts/mock/yearn/MockYearnVault.sol:MockYearnVault",
        "label": "_allowances",
        "offset": 0,
        "slot": "1",
        "type": "t_mapping(t_address,t_mapping(t_address,t_uint256))"
      },
      {
        "astId": 688,
        "contract": "contracts/mock/yearn/MockYearnVault.sol:MockYearnVault",
        "label": "_totalSupply",
        "offset": 0,
        "slot": "2",
        "type": "t_uint256"
      },
      {
        "astId": 690,
        "contract": "contracts/mock/yearn/MockYearnVault.sol:MockYearnVault",
        "label": "_name",
        "offset": 0,
        "slot": "3",
        "type": "t_string_storage"
      },
      {
        "astId": 692,
        "contract": "contracts/mock/yearn/MockYearnVault.sol:MockYearnVault",
        "label": "_symbol",
        "offset": 0,
        "slot": "4",
        "type": "t_string_storage"
      },
      {
        "astId": 10876,
        "contract": "contracts/mock/yearn/MockYearnVault.sol:MockYearnVault",
        "label": "spyForMaxLossWithdrawParam",
        "offset": 0,
        "slot": "5",
        "type": "t_uint256"
      }
    ],
    "types": {
      "t_address": {
        "encoding": "inplace",
        "label": "address",
        "numberOfBytes": "20"
      },
      "t_mapping(t_address,t_mapping(t_address,t_uint256))": {
        "encoding": "mapping",
        "key": "t_address",
        "label": "mapping(address => mapping(address => uint256))",
        "numberOfBytes": "32",
        "value": "t_mapping(t_address,t_uint256)"
      },
      "t_mapping(t_address,t_uint256)": {
        "encoding": "mapping",
        "key": "t_address",
        "label": "mapping(address => uint256)",
        "numberOfBytes": "32",
        "value": "t_uint256"
      },
      "t_string_storage": {
        "encoding": "bytes",
        "label": "string",
        "numberOfBytes": "32"
      },
      "t_uint256": {
        "encoding": "inplace",
        "label": "uint256",
        "numberOfBytes": "32"
      }
    }
  }
}