{"address":"0xAcfF69Ed61324234d4Af76458eF4891731cD563A","bytecode":"0x60a06040523060805234801561001457600080fd5b50608051612e2a61004c600039600081816109010152818161098601528181610df101528181610e760152610f5c0152612e2a6000f3fe60806040526004361061021d5760003560e01c80636ff902e71161011d578063c54e44eb116100b0578063e49b30da1161007f578063ec87621c11610064578063ec87621c1461066e578063f6289887146106a2578063fbfa77cf146106d657600080fd5b8063e49b30da14610631578063e8b5e51f1461065957600080fd5b8063c54e44eb146105a9578063cc2a9a5b146105d1578063ce8c42e8146105f1578063d547741f1461061157600080fd5b80639af2e635116100ec5780639af2e63514610538578063a217fddf1461054c578063ad5c464814610561578063b5106add1461058957600080fd5b80636ff902e71461048a5780637f6ec455146104b2578063865a3e47146104d257806391d14854146104f257600080fd5b8063364bc15a116101b05780634ad0b6841161017f57806352d1902d1161016457806352d1902d146104405780635be9b2d3146104555780636f307dc31461046a57600080fd5b80634ad0b684146104185780634f1ef2861461042d57600080fd5b8063364bc15a1461038f57806336568abe146103c35780633659cfe6146103e35780634641257d1461040357600080fd5b806321bc5df4116101ec57806321bc5df4146102e9578063248a9ca3146103095780632f2ff15d1461034757806330d8a9e81461036757600080fd5b806301ffc9a714610229578063048c661d1461025e578063129d91ab146102965780631fa1fe36146102b857600080fd5b3661022457005b600080fd5b34801561023557600080fd5b50610249610244366004612936565b6106f6565b60405190151581526020015b60405180910390f35b34801561026a57600080fd5b5060fd5461027e906001600160a01b031681565b6040516001600160a01b039091168152602001610255565b3480156102a257600080fd5b506102b66102b136600461297c565b610746565b005b3480156102c457600080fd5b506102496102d336600461297c565b60ff602081905260009182526040909120541681565b3480156102f557600080fd5b506102b661030436600461297c565b6107bf565b34801561031557600080fd5b50610339610324366004612997565b600090815260c9602052604090206001015490565b604051908152602001610255565b34801561035357600080fd5b506102b66103623660046129b0565b61083b565b34801561037357600080fd5b5061027e73ed279fdd11ca84beef15af5d39bb4d4bee23f0ca81565b34801561039b57600080fd5b506103397ffc8737ab85eb45125971625a9ebdb75cc78e01d5c1fa80c4c6e5203f47bc4fab81565b3480156103cf57600080fd5b506102b66103de3660046129b0565b610865565b3480156103ef57600080fd5b506102b66103fe36600461297c565b6108f6565b34801561040f57600080fd5b506102b6610a72565b34801561042457600080fd5b50610339610ad2565b6102b661043b3660046129f2565b610de6565b34801561044c57600080fd5b50610339610f4f565b34801561046157600080fd5b50610249611014565b34801561047657600080fd5b5060fb5461027e906001600160a01b031681565b34801561049657600080fd5b5061027e73d51a44d3fae010294c616388b506acda1bfaae4681565b3480156104be57600080fd5b5060fe5461027e906001600160a01b031681565b3480156104de57600080fd5b506102b66104ed366004612afd565b611025565b3480156104fe57600080fd5b5061024961050d3660046129b0565b600091825260c9602090815260408084206001600160a01b0393909316845291905290205460ff1690565b34801561054457600080fd5b506001610249565b34801561055857600080fd5b50610339600081565b34801561056d57600080fd5b5061027e73c02aaa39b223fe8d0a0e5c4f27ead9083c756cc281565b34801561059557600080fd5b506102b66105a436600461297c565b611284565b3480156105b557600080fd5b5061027e73dac17f958d2ee523a2206206994597c13d831ec781565b3480156105dd57600080fd5b506102b66105ec366004612b98565b6113fb565b3480156105fd57600080fd5b506102b661060c366004612997565b61185a565b34801561061d57600080fd5b506102b661062c3660046129b0565b611afe565b34801561063d57600080fd5b5061027e7381c46feca27b31f3adc2b91ee4be9717d1cd3dd781565b34801561066557600080fd5b506102b6611b23565b34801561067a57600080fd5b506103397f241ecf16d79d0f8dbfb92cbc07fe17840425976cf0667f022fe9877caa831b0881565b3480156106ae57600080fd5b506103397ffaf9b26485088dee58863e57c46603d6cdcbadc7475ac6d8910fab0ecf60309581565b3480156106e257600080fd5b5060fc5461027e906001600160a01b031681565b60006001600160e01b031982167f7965db0b00000000000000000000000000000000000000000000000000000000148061074057506301ffc9a760e01b6001600160e01b03198316145b92915050565b3360009081527fdf9e05033a6c4e281e51ff7ac61d3a2fec43ac6ee7b61abf4c8074f4927147b7602052604090205460ff16610795576040516370c4ee8d60e01b815260040160405180910390fd5b61079e81611cb9565b6001600160a01b0316600090815260ff60205260409020805460ff19169055565b3360009081527fdf9e05033a6c4e281e51ff7ac61d3a2fec43ac6ee7b61abf4c8074f4927147b7602052604090205460ff1661080e576040516370c4ee8d60e01b815260040160405180910390fd5b61081781611cb9565b6001600160a01b0316600090815260ff60205260409020805460ff19166001179055565b600082815260c9602052604090206001015461085681611cf9565b6108608383611d03565b505050565b6001600160a01b03811633146108e85760405162461bcd60e51b815260206004820152602f60248201527f416363657373436f6e74726f6c3a2063616e206f6e6c792072656e6f756e636560448201527f20726f6c657320666f722073656c66000000000000000000000000000000000060648201526084015b60405180910390fd5b6108f28282611da5565b5050565b306001600160a01b037f00000000000000000000000000000000000000000000000000000000000000001614156109845760405162461bcd60e51b815260206004820152602c60248201527f46756e6374696f6e206d7573742062652063616c6c6564207468726f7567682060448201526b19195b1959d85d1958d85b1b60a21b60648201526084016108df565b7f00000000000000000000000000000000000000000000000000000000000000006001600160a01b03166109df7f360894a13ba1a3210667c828492db98dca3e2076cc3735a920a3ca505d382bbc546001600160a01b031690565b6001600160a01b031614610a4a5760405162461bcd60e51b815260206004820152602c60248201527f46756e6374696f6e206d7573742062652063616c6c6564207468726f7567682060448201526b6163746976652070726f787960a01b60648201526084016108df565b610a5381611e28565b60408051600080825260208201909252610a6f91839190611e77565b50565b60fd54604051632e54bf9560e01b8152600060048201526001600160a01b0390911690632e54bf9590602401600060405180830381600087803b158015610ab857600080fd5b505af1158015610acc573d6000803e3d6000fd5b50505050565b60fd546040517f389e92a500000000000000000000000000000000000000000000000000000000815230600482015260009182916001600160a01b039091169063389e92a590602401602060405180830381865afa158015610b38573d6000803e3d6000fd5b505050506040513d601f19601f82011682018060405250810190610b5c9190612c0c565b610b669047612c3b565b905080610bde5760fd54604051621cdc4760e81b81523060048201526001600160a01b0390911690631cdc470090602401602060405180830381865afa158015610bb4573d6000803e3d6000fd5b505050506040513d601f19601f82011682018060405250810190610bd89190612c0c565b91505090565b604051630e5cfa0d60e21b815273d51a44d3fae010294c616388b506acda1bfaae46600482015273c02aaa39b223fe8d0a0e5c4f27ead9083c756cc2602482015273dac17f958d2ee523a2206206994597c13d831ec76044820152606481018290526000907381c46feca27b31f3adc2b91ee4be9717d1cd3dd790633973e83490608401602060405180830381865afa158015610c7f573d6000803e3d6000fd5b505050506040513d601f19601f82011682018060405250810190610ca39190612c0c565b60fb54604051630e5cfa0d60e21b815273ed279fdd11ca84beef15af5d39bb4d4bee23f0ca600482015273dac17f958d2ee523a2206206994597c13d831ec760248201526001600160a01b039091166044820152606481018290529091506000907381c46feca27b31f3adc2b91ee4be9717d1cd3dd790633973e83490608401602060405180830381865afa158015610d40573d6000803e3d6000fd5b505050506040513d601f19601f82011682018060405250810190610d649190612c0c565b60fd54604051621cdc4760e81b815230600482015291925082916001600160a01b0390911690631cdc470090602401602060405180830381865afa158015610db0573d6000803e3d6000fd5b505050506040513d601f19601f82011682018060405250810190610dd49190612c0c565b610dde9190612c3b565b935050505090565b306001600160a01b037f0000000000000000000000000000000000000000000000000000000000000000161415610e745760405162461bcd60e51b815260206004820152602c60248201527f46756e6374696f6e206d7573742062652063616c6c6564207468726f7567682060448201526b19195b1959d85d1958d85b1b60a21b60648201526084016108df565b7f00000000000000000000000000000000000000000000000000000000000000006001600160a01b0316610ecf7f360894a13ba1a3210667c828492db98dca3e2076cc3735a920a3ca505d382bbc546001600160a01b031690565b6001600160a01b031614610f3a5760405162461bcd60e51b815260206004820152602c60248201527f46756e6374696f6e206d7573742062652063616c6c6564207468726f7567682060448201526b6163746976652070726f787960a01b60648201526084016108df565b610f4382611e28565b6108f282826001611e77565b6000306001600160a01b037f00000000000000000000000000000000000000000000000000000000000000001614610fef5760405162461bcd60e51b815260206004820152603860248201527f555550535570677261646561626c653a206d757374206e6f742062652063616c60448201527f6c6564207468726f7567682064656c656761746563616c6c000000000000000060648201526084016108df565b507f360894a13ba1a3210667c828492db98dca3e2076cc3735a920a3ca505d382bbc90565b600061101e610ad2565b1515919050565b3360009081527fa54cab3e0e5c813b18c71e4e96696bc5fad68ff5192a677568a6b075ee26500e602052604090205460ff1661108d576040517f81389f2000000000000000000000000000000000000000000000000000000000815260040160405180910390fd5b61109688611cb9565b6001600160a01b038816600090815260ff6020819052604090912054166110e9576040517f9e98954000000000000000000000000000000000000000000000000000000000815260040160405180910390fd5b6110f587898888612017565b6111018489858561221b565b60fb546040516370a0823160e01b81523060048201526000916001600160a01b0316906370a0823190602401602060405180830381865afa15801561114a573d6000803e3d6000fd5b505050506040513d601f19601f8201168201806040525081019061116e9190612c0c565b9050806111a7576040517f66a9132900000000000000000000000000000000000000000000000000000000815260040160405180910390fd5b818110156111e1576040517ff0b5161200000000000000000000000000000000000000000000000000000000815260040160405180910390fd5b6040518181527fe2cd27e14f657c20a75ca97eb4b59f450a055c24916d27034e78933b8c7d75639060200160405180910390a160fd54604051635f788d6560e01b815260048101839052600060248201526001600160a01b0390911690635f788d6590604401600060405180830381600087803b15801561126157600080fd5b505af1158015611275573d6000803e3d6000fd5b50505050505050505050505050565b3360009081527f81fe90a866a48a634a12852c1be675b683a22307409932a7443b8029347be756602052604090205460ff166112d3576040516378741b4560e11b815260040160405180910390fd5b6001600160a01b0381166112fa57604051638f6e893360e01b815260040160405180910390fd5b6001600160a01b03811633141561133d576040517f8fbf788d00000000000000000000000000000000000000000000000000000000815260040160405180910390fd5b611348600082611d03565b6113727ffc8737ab85eb45125971625a9ebdb75cc78e01d5c1fa80c4c6e5203f47bc4fab82611d03565b61139c7ffaf9b26485088dee58863e57c46603d6cdcbadc7475ac6d8910fab0ecf60309582611d03565b6113a7600033611da5565b6113d17ffc8737ab85eb45125971625a9ebdb75cc78e01d5c1fa80c4c6e5203f47bc4fab33611da5565b610a6f7ffaf9b26485088dee58863e57c46603d6cdcbadc7475ac6d8910fab0ecf60309533611da5565b600054610100900460ff161580801561141b5750600054600160ff909116105b806114355750303b158015611435575060005460ff166001145b6114a75760405162461bcd60e51b815260206004820152602e60248201527f496e697469616c697a61626c653a20636f6e747261637420697320616c72656160448201527f647920696e697469616c697a656400000000000000000000000000000000000060648201526084016108df565b6000805460ff1916600117905580156114ca576000805461ff0019166101001790555b6114d2612305565b6114da612305565b6001600160a01b03861661150157604051638f6e893360e01b815260040160405180910390fd5b6001600160a01b038416611541576040517f96fbf73100000000000000000000000000000000000000000000000000000000815260040160405180910390fd5b6001600160a01b038516611581576040517f0f44c88000000000000000000000000000000000000000000000000000000000815260040160405180910390fd5b6001600160a01b0383166115c1576040517f4043fac000000000000000000000000000000000000000000000000000000000815260040160405180910390fd5b6115f46001600160a01b0388167f21d982ed00000000000000000000000000000000000000000000000000000000612384565b61162a576040517fd7e681d100000000000000000000000000000000000000000000000000000000815260040160405180910390fd5b6001600160a01b03821661166a576040517f39f97e6400000000000000000000000000000000000000000000000000000000815260040160405180910390fd5b611675600087611d03565b61169f7ffc8737ab85eb45125971625a9ebdb75cc78e01d5c1fa80c4c6e5203f47bc4fab87611d03565b6116c97ffaf9b26485088dee58863e57c46603d6cdcbadc7475ac6d8910fab0ecf60309587611d03565b6116f37f241ecf16d79d0f8dbfb92cbc07fe17840425976cf0667f022fe9877caa831b0888611d03565b61171d7ffc8737ab85eb45125971625a9ebdb75cc78e01d5c1fa80c4c6e5203f47bc4fab83611d03565b60fc80546001600160a01b0389811673ffffffffffffffffffffffffffffffffffffffff199283161790925560fb8054868416908316811790915560fd8054898516908416811790915560fe8054948916949093169390931790915560405163095ea7b360e01b8152600481019290925260001960248301529063095ea7b3906044016020604051808303816000875af11580156117bf573d6000803e3d6000fd5b505050506040513d601f19601f820116820180604052508101906117e39190612c53565b61180b576040516351be55a360e11b81526001600160a01b03841660048201526024016108df565b8015611851576000805461ff0019169055604051600181527f7f26b83ff96e1f2b6a682f133852f6798a09c465da95921460cefb38474024989060200160405180910390a15b50505050505050565b3360009081527ff5f43b48833b613af61a2aa61573d51591ce86ef304bb6e01e9115b2a39191de602052604090205460ff166118a957604051634cc2cd3760e11b815260040160405180910390fd5b806118e0576040517fd45ab8b600000000000000000000000000000000000000000000000000000000815260040160405180910390fd5b6118e8610ad2565b811115611921576040517f8396942200000000000000000000000000000000000000000000000000000000815260040160405180910390fd5b60fd54604051632e54bf9560e01b8152600481018390526001600160a01b0390911690632e54bf9590602401600060405180830381600087803b15801561196757600080fd5b505af115801561197b573d6000803e3d6000fd5b505060fb546040516370a0823160e01b8152306004820152600093506001600160a01b0390911691506370a0823190602401602060405180830381865afa1580156119ca573d6000803e3d6000fd5b505050506040513d601f19601f820116820180604052508101906119ee9190612c0c565b60fb5460fc546040517fa9059cbb0000000000000000000000000000000000000000000000000000000081526001600160a01b03918216600482015260248101849052929350169063a9059cbb906044016020604051808303816000875af1158015611a5e573d6000803e3d6000fd5b505050506040513d601f19601f82011682018060405250810190611a829190612c53565b611ac75760fb546040517f4dca0c840000000000000000000000000000000000000000000000000000000081526001600160a01b0390911660048201526024016108df565b6040518181527f35c4c11317fd96ffa30da51e0a4b85219c4b0f56c1507c3afefe79de0c47ef549060200160405180910390a15050565b600082815260c96020526040902060010154611b1981611cf9565b6108608383611da5565b3360009081527ff5f43b48833b613af61a2aa61573d51591ce86ef304bb6e01e9115b2a39191de602052604090205460ff16611b7257604051634cc2cd3760e11b815260040160405180910390fd5b60fb546040516370a0823160e01b81523060048201526000916001600160a01b0316906370a0823190602401602060405180830381865afa158015611bbb573d6000803e3d6000fd5b505050506040513d601f19601f82011682018060405250810190611bdf9190612c0c565b905080611c18576040517f378a16c900000000000000000000000000000000000000000000000000000000815260040160405180910390fd5b60fd54604051635f788d6560e01b815260048101839052600060248201526001600160a01b0390911690635f788d6590604401600060405180830381600087803b158015611c6557600080fd5b505af1158015611c79573d6000803e3d6000fd5b505050507fc68748140896ba027a48ebf3a24735d0afb4ab835f92c4815ddb34f9d6dfd18a81604051611cae91815260200190565b60405180910390a150565b6001600160a01b038116610a6f576040517f99c4312400000000000000000000000000000000000000000000000000000000815260040160405180910390fd5b610a6f8133612426565b600082815260c9602090815260408083206001600160a01b038516845290915290205460ff166108f257600082815260c9602090815260408083206001600160a01b03851684529091529020805460ff19166001179055611d613390565b6001600160a01b0316816001600160a01b0316837f2f8788117e7eff1d82e926ec794901d17c78024a50270940304540a733656f0d60405160405180910390a45050565b600082815260c9602090815260408083206001600160a01b038516845290915290205460ff16156108f257600082815260c9602090815260408083206001600160a01b0385168085529252808320805460ff1916905551339285917ff6391f5c32d9c69d2a47ea670b442974b53935d1edc7fd64eb21e047a839171b9190a45050565b3360009081527f81fe90a866a48a634a12852c1be675b683a22307409932a7443b8029347be756602052604090205460ff16610a6f576040516378741b4560e11b815260040160405180910390fd5b7f4910fdfa16fed3260ed0e7147f7cc6da11a60208b5b9406d12a635614ffd91435460ff1615611eaa57610860836124a6565b826001600160a01b03166352d1902d6040518163ffffffff1660e01b8152600401602060405180830381865afa925050508015611f04575060408051601f3d908101601f19168201909252611f0191810190612c0c565b60015b611f765760405162461bcd60e51b815260206004820152602e60248201527f45524331393637557067726164653a206e657720696d706c656d656e7461746960448201527f6f6e206973206e6f74205555505300000000000000000000000000000000000060648201526084016108df565b7f360894a13ba1a3210667c828492db98dca3e2076cc3735a920a3ca505d382bbc811461200b5760405162461bcd60e51b815260206004820152602960248201527f45524331393637557067726164653a20756e737570706f727465642070726f7860448201527f6961626c6555554944000000000000000000000000000000000000000000000060648201526084016108df565b50610860838383612571565b831580612022575080155b1561202c57610acc565b60fe546040516370a0823160e01b81523060048201526000916001600160a01b0316906370a0823190602401602060405180830381865afa158015612075573d6000803e3d6000fd5b505050506040513d601f19601f820116820180604052508101906120999190612c0c565b9050808511156120d5576040517f19736e2600000000000000000000000000000000000000000000000000000000815260040160405180910390fd5b60fe5460405163095ea7b360e01b81526001600160a01b038681166004830152602482018890529091169063095ea7b3906044016020604051808303816000875af1158015612128573d6000803e3d6000fd5b505050506040513d601f19601f8201168201806040525081019061214c9190612c53565b6121785760fe546040516351be55a360e11b81526001600160a01b0390911660048201526024016108df565b6000846001600160a01b031660008585604051612196929190612c75565b60006040518083038185875af1925050503d80600081146121d3576040519150601f19603f3d011682016040523d82523d6000602084013e6121d8565b606091505b5050905080612213576040517f56a3cf9a00000000000000000000000000000000000000000000000000000000815260040160405180910390fd5b505050505050565b831580612226575080155b1561223057610acc565b478085111561226b576040517f0d38adfa00000000000000000000000000000000000000000000000000000000815260040160405180910390fd5b6000846001600160a01b0316868585604051612288929190612c75565b60006040518083038185875af1925050503d80600081146122c5576040519150601f19603f3d011682016040523d82523d6000602084013e6122ca565b606091505b5050905080612213576040517f257745cc00000000000000000000000000000000000000000000000000000000815260040160405180910390fd5b600054610100900460ff166123825760405162461bcd60e51b815260206004820152602b60248201527f496e697469616c697a61626c653a20636f6e7472616374206973206e6f74206960448201527f6e697469616c697a696e6700000000000000000000000000000000000000000060648201526084016108df565b565b60008080612399856301ffc9a760e01b612596565b90925090508115806123a9575080155b156123b957600092505050610740565b6123cb856001600160e01b0319612596565b90925090508115806123dc57508015155b156123ec57600092505050610740565b6123f68585612596565b909250905060018214801561240b5750806001145b1561241b57600192505050610740565b506000949350505050565b600082815260c9602090815260408083206001600160a01b038516845290915290205460ff166108f257612464816001600160a01b031660146125ca565b61246f8360206125ca565b604051602001612480929190612cb1565b60408051601f198184030181529082905262461bcd60e51b82526108df91600401612d32565b6001600160a01b0381163b6125235760405162461bcd60e51b815260206004820152602d60248201527f455243313936373a206e657720696d706c656d656e746174696f6e206973206e60448201527f6f74206120636f6e74726163740000000000000000000000000000000000000060648201526084016108df565b7f360894a13ba1a3210667c828492db98dca3e2076cc3735a920a3ca505d382bbc805473ffffffffffffffffffffffffffffffffffffffff19166001600160a01b0392909216919091179055565b61257a836127b2565b6000825111806125875750805b1561086057610acc83836127f2565b6040516301ffc9a760e01b8082526004820183905260009182919060208160248189617530fa905190969095509350505050565b606060006125d9836002612d65565b6125e4906002612c3b565b67ffffffffffffffff8111156125fc576125fc6129dc565b6040519080825280601f01601f191660200182016040528015612626576020820181803683370190505b5090507f30000000000000000000000000000000000000000000000000000000000000008160008151811061265d5761265d612d84565b60200101906001600160f81b031916908160001a9053507f7800000000000000000000000000000000000000000000000000000000000000816001815181106126a8576126a8612d84565b60200101906001600160f81b031916908160001a90535060006126cc846002612d65565b6126d7906001612c3b565b90505b600181111561275c577f303132333435363738396162636465660000000000000000000000000000000085600f166010811061271857612718612d84565b1a60f81b82828151811061272e5761272e612d84565b60200101906001600160f81b031916908160001a90535060049490941c9361275581612d9a565b90506126da565b5083156127ab5760405162461bcd60e51b815260206004820181905260248201527f537472696e67733a20686578206c656e67746820696e73756666696369656e7460448201526064016108df565b9392505050565b6127bb816124a6565b6040516001600160a01b038216907fbc7cd75a20ee27fd9adebab32041f755214dbc6bffa90cc0225b39da2e5c2d3b90600090a250565b60606001600160a01b0383163b6128715760405162461bcd60e51b815260206004820152602660248201527f416464726573733a2064656c65676174652063616c6c20746f206e6f6e2d636f60448201527f6e7472616374000000000000000000000000000000000000000000000000000060648201526084016108df565b600080846001600160a01b03168460405161288c9190612db1565b600060405180830381855af49150503d80600081146128c7576040519150601f19603f3d011682016040523d82523d6000602084013e6128cc565b606091505b50915091506128f48282604051806060016040528060278152602001612dce602791396128fd565b95945050505050565b6060831561290c5750816127ab565b82511561291c5782518084602001fd5b8160405162461bcd60e51b81526004016108df9190612d32565b60006020828403121561294857600080fd5b81356001600160e01b0319811681146127ab57600080fd5b80356001600160a01b038116811461297757600080fd5b919050565b60006020828403121561298e57600080fd5b6127ab82612960565b6000602082840312156129a957600080fd5b5035919050565b600080604083850312156129c357600080fd5b823591506129d360208401612960565b90509250929050565b634e487b7160e01b600052604160045260246000fd5b60008060408385031215612a0557600080fd5b612a0e83612960565b9150602083013567ffffffffffffffff80821115612a2b57600080fd5b818501915085601f830112612a3f57600080fd5b813581811115612a5157612a516129dc565b604051601f8201601f19908116603f01168101908382118183101715612a7957612a796129dc565b81604052828152886020848701011115612a9257600080fd5b8260208601602083013760006020848301015280955050505050509250929050565b60008083601f840112612ac657600080fd5b50813567ffffffffffffffff811115612ade57600080fd5b602083019150836020828501011115612af657600080fd5b9250929050565b60008060008060008060008060c0898b031215612b1957600080fd5b612b2289612960565b975060208901359650604089013567ffffffffffffffff80821115612b4657600080fd5b612b528c838d01612ab4565b909850965060608b0135955060808b0135915080821115612b7257600080fd5b50612b7f8b828c01612ab4565b999c989b50969995989497949560a00135949350505050565b60008060008060008060c08789031215612bb157600080fd5b612bba87612960565b9550612bc860208801612960565b9450612bd660408801612960565b9350612be460608801612960565b9250612bf260808801612960565b9150612c0060a08801612960565b90509295509295509295565b600060208284031215612c1e57600080fd5b5051919050565b634e487b7160e01b600052601160045260246000fd5b60008219821115612c4e57612c4e612c25565b500190565b600060208284031215612c6557600080fd5b815180151581146127ab57600080fd5b8183823760009101908152919050565b60005b83811015612ca0578181015183820152602001612c88565b83811115610acc5750506000910152565b7f416363657373436f6e74726f6c3a206163636f756e7420000000000000000000815260008351612ce9816017850160208801612c85565b7f206973206d697373696e6720726f6c65200000000000000000000000000000006017918401918201528351612d26816028840160208801612c85565b01602801949350505050565b6020815260008251806020840152612d51816040850160208701612c85565b601f01601f19169190910160400192915050565b6000816000190483118215151615612d7f57612d7f612c25565b500290565b634e487b7160e01b600052603260045260246000fd5b600081612da957612da9612c25565b506000190190565b60008251612dc3818460208701612c85565b919091019291505056fe416464726573733a206c6f772d6c6576656c2064656c65676174652063616c6c206661696c6564a264697066735822122066c5c3d1ef7b4e6a24daa041e52a599abc270b844d5e5e489cff888d95783c4a64736f6c634300080a0033","abi":[{"inputs":[],"name":"StrategyAdminCannotBe0Address","type":"error"},{"inputs":[],"name":"StrategyAmountZero","type":"error"},{"inputs":[],"name":"StrategyCallerNotAdmin","type":"error"},{"inputs":[],"name":"StrategyCallerNotKeeper","type":"error"},{"inputs":[],"name":"StrategyCallerNotManager","type":"error"},{"inputs":[],"name":"StrategyCallerNotSettings","type":"error"},{"inputs":[],"name":"StrategyCannotTransferAdminRightsToSelf","type":"error"},{"inputs":[],"name":"StrategyETHSwapFailed","type":"error"},{"inputs":[],"name":"StrategyInsufficientOutputAmount","type":"error"},{"inputs":[],"name":"StrategyKeeperCannotBe0Address","type":"error"},{"inputs":[],"name":"StrategyLQTYSwapFailed","type":"error"},{"inputs":[],"name":"StrategyNoUnderlying","type":"error"},{"inputs":[],"name":"StrategyNotEnoughETH","type":"error"},{"inputs":[],"name":"StrategyNotEnoughLQTY","type":"error"},{"inputs":[],"name":"StrategyNotEnoughShares","type":"error"},{"inputs":[],"name":"StrategyNotIVault","type":"error"},{"inputs":[],"name":"StrategyNotRunning","type":"error"},{"inputs":[],"name":"StrategyNothingToReinvest","type":"error"},{"inputs":[],"name":"StrategyStabilityPoolCannotBeAddressZero","type":"error"},{"inputs":[],"name":"StrategySwapTargetCannotBe0Address","type":"error"},{"inputs":[],"name":"StrategySwapTargetNotAllowed","type":"error"},{"inputs":[{"internalType":"address","name":"token","type":"address"}],"name":"StrategyTokenApprovalFailed","type":"error"},{"inputs":[{"internalType":"address","name":"token","type":"address"}],"name":"StrategyTokenTransferFailed","type":"error"},{"inputs":[],"name":"StrategyUnderlyingCannotBe0Address","type":"error"},{"inputs":[],"name":"StrategyYieldTokenCannotBe0Address","type":"error"},{"inputs":[],"name":"VaultAdminCannotBe0Address","type":"error"},{"inputs":[],"name":"VaultAmountDoesNotMatchParams","type":"error"},{"inputs":[],"name":"VaultAmountLocked","type":"error"},{"inputs":[],"name":"VaultCallerNotAdmin","type":"error"},{"inputs":[],"name":"VaultCallerNotKeeper","type":"error"},{"inputs":[],"name":"VaultCallerNotSettings","type":"error"},{"inputs":[],"name":"VaultCallerNotSponsor","type":"error"},{"inputs":[],"name":"VaultCannotComputeSharesWithoutPrincipal","type":"error"},{"inputs":[],"name":"VaultCannotDeposit0","type":"error"},{"inputs":[],"name":"VaultCannotDepositWhenClaimerInDebt","type":"error"},{"inputs":[],"name":"VaultCannotDepositWhenYieldNegative","type":"error"},{"inputs":[],"name":"VaultCannotSponsor0","type":"error"},{"inputs":[],"name":"VaultCannotTransferAdminRightsToSelf","type":"error"},{"inputs":[],"name":"VaultCannotWithdrawMoreThanAvailable","type":"error"},{"inputs":[],"name":"VaultCannotWithdrawWhenYieldNegative","type":"error"},{"inputs":[],"name":"VaultClaimPercentageCannotBe0","type":"error"},{"inputs":[],"name":"VaultClaimerCannotBe0","type":"error"},{"inputs":[],"name":"VaultClaimsDontAddUp","type":"error"},{"inputs":[],"name":"VaultDepositLocked","type":"error"},{"inputs":[],"name":"VaultDepositNameTooShort","type":"error"},{"inputs":[],"name":"VaultDestinationCannotBe0Address","type":"error"},{"inputs":[],"name":"VaultInvalidInvestpct","type":"error"},{"inputs":[],"name":"VaultInvalidLockPeriod","type":"error"},{"inputs":[],"name":"VaultInvalidLossTolerance","type":"error"},{"inputs":[],"name":"VaultInvalidMinLockPeriod","type":"error"},{"inputs":[],"name":"VaultInvalidPerformanceFee","type":"error"},{"inputs":[],"name":"VaultInvalidVault","type":"error"},{"inputs":[],"name":"VaultMustUseForceWithdrawToAcceptLosses","type":"error"},{"inputs":[],"name":"VaultNoPerformanceFee","type":"error"},{"inputs":[],"name":"VaultNoYieldToClaim","type":"error"},{"inputs":[],"name":"VaultNotAllowed","type":"error"},{"inputs":[],"name":"VaultNotDeposit","type":"error"},{"inputs":[],"name":"VaultNotEnoughFunds","type":"error"},{"inputs":[],"name":"VaultNotEnoughToRebalance","type":"error"},{"inputs":[],"name":"VaultNotOwnerOfDeposit","type":"error"},{"inputs":[],"name":"VaultNotSponsor","type":"error"},{"inputs":[],"name":"VaultNothingToDo","type":"error"},{"inputs":[],"name":"VaultSenderNotOwnerOfGroupId","type":"error"},{"inputs":[],"name":"VaultStrategyHasInvestedFunds","type":"error"},{"inputs":[],"name":"VaultStrategyNotSet","type":"error"},{"inputs":[],"name":"VaultTreasuryCannotBe0Address","type":"error"},{"inputs":[],"name":"VaultUnderlyingCannotBe0Address","type":"error"},{"anonymous":false,"inputs":[{"indexed":false,"internalType":"address","name":"previousAdmin","type":"address"},{"indexed":false,"internalType":"address","name":"newAdmin","type":"address"}],"name":"AdminChanged","type":"event"},{"anonymous":false,"inputs":[{"indexed":true,"internalType":"address","name":"beacon","type":"address"}],"name":"BeaconUpgraded","type":"event"},{"anonymous":false,"inputs":[{"indexed":false,"internalType":"uint8","name":"version","type":"uint8"}],"name":"Initialized","type":"event"},{"anonymous":false,"inputs":[{"indexed":true,"internalType":"bytes32","name":"role","type":"bytes32"},{"indexed":true,"internalType":"bytes32","name":"previousAdminRole","type":"bytes32"},{"indexed":true,"internalType":"bytes32","name":"newAdminRole","type":"bytes32"}],"name":"RoleAdminChanged","type":"event"},{"anonymous":false,"inputs":[{"indexed":true,"internalType":"bytes32","name":"role","type":"bytes32"},{"indexed":true,"internalType":"address","name":"account","type":"address"},{"indexed":true,"internalType":"address","name":"sender","type":"address"}],"name":"RoleGranted","type":"event"},{"anonymous":false,"inputs":[{"indexed":true,"internalType":"bytes32","name":"role","type":"bytes32"},{"indexed":true,"internalType":"address","name":"account","type":"address"},{"indexed":true,"internalType":"address","name":"sender","type":"address"}],"name":"RoleRevoked","type":"event"},{"anonymous":false,"inputs":[{"indexed":false,"internalType":"uint256","name":"amount","type":"uint256"}],"name":"StrategyInvested","type":"event"},{"anonymous":false,"inputs":[{"indexed":false,"internalType":"uint256","name":"amountInLUSD","type":"uint256"}],"name":"StrategyReinvested","type":"event"},{"anonymous":false,"inputs":[{"indexed":false,"internalType":"uint256","name":"amount","type":"uint256"}],"name":"StrategyWithdrawn","type":"event"},{"anonymous":false,"inputs":[{"indexed":true,"internalType":"address","name":"implementation","type":"address"}],"name":"Upgraded","type":"event"},{"inputs":[],"name":"CURVE_ROUTER","outputs":[{"internalType":"address","name":"","type":"address"}],"stateMutability":"view","type":"function"},{"inputs":[],"name":"DEFAULT_ADMIN_ROLE","outputs":[{"internalType":"bytes32","name":"","type":"bytes32"}],"stateMutability":"view","type":"function"},{"inputs":[],"name":"KEEPER_ROLE","outputs":[{"internalType":"bytes32","name":"","type":"bytes32"}],"stateMutability":"view","type":"function"},{"inputs":[],"name":"LUSD_CURVE_POOL","outputs":[{"internalType":"address","name":"","type":"address"}],"stateMutability":"view","type":"function"},{"inputs":[],"name":"MANAGER_ROLE","outputs":[{"internalType":"bytes32","name":"","type":"bytes32"}],"stateMutability":"view","type":"function"},{"inputs":[],"name":"SETTINGS_ROLE","outputs":[{"internalType":"bytes32","name":"","type":"bytes32"}],"stateMutability":"view","type":"function"},{"inputs":[],"name":"USDT","outputs":[{"internalType":"address","name":"","type":"address"}],"stateMutability":"view","type":"function"},{"inputs":[],"name":"WETH","outputs":[{"internalType":"address","name":"","type":"address"}],"stateMutability":"view","type":"function"},{"inputs":[],"name":"WETH_CURVE_POOL","outputs":[{"internalType":"address","name":"","type":"address"}],"stateMutability":"view","type":"function"},{"inputs":[{"internalType":"address","name":"_swapTarget","type":"address"}],"name":"allowSwapTarget","outputs":[],"stateMutability":"nonpayable","type":"function"},{"inputs":[{"internalType":"address","name":"","type":"address"}],"name":"allowedSwapTargets","outputs":[{"internalType":"bool","name":"","type":"bool"}],"stateMutability":"view","type":"function"},{"inputs":[{"internalType":"address","name":"_swapTarget","type":"address"}],"name":"denySwapTarget","outputs":[],"stateMutability":"nonpayable","type":"function"},{"inputs":[{"internalType":"bytes32","name":"role","type":"bytes32"}],"name":"getRoleAdmin","outputs":[{"internalType":"bytes32","name":"","type":"bytes32"}],"stateMutability":"view","type":"function"},{"inputs":[{"internalType":"bytes32","name":"role","type":"bytes32"},{"internalType":"address","name":"account","type":"address"}],"name":"grantRole","outputs":[],"stateMutability":"nonpayable","type":"function"},{"inputs":[],"name":"harvest","outputs":[],"stateMutability":"nonpayable","type":"function"},{"inputs":[],"name":"hasAssets","outputs":[{"internalType":"bool","name":"","type":"bool"}],"stateMutability":"view","type":"function"},{"inputs":[{"internalType":"bytes32","name":"role","type":"bytes32"},{"internalType":"address","name":"account","type":"address"}],"name":"hasRole","outputs":[{"internalType":"bool","name":"","type":"bool"}],"stateMutability":"view","type":"function"},{"inputs":[{"internalType":"address","name":"_vault","type":"address"},{"internalType":"address","name":"_admin","type":"address"},{"internalType":"address","name":"_stabilityPool","type":"address"},{"internalType":"address","name":"_lqty","type":"address"},{"internalType":"address","name":"_underlying","type":"address"},{"internalType":"address","name":"_keeper","type":"address"}],"name":"initialize","outputs":[],"stateMutability":"nonpayable","type":"function"},{"inputs":[],"name":"invest","outputs":[],"stateMutability":"nonpayable","type":"function"},{"inputs":[],"name":"investedAssets","outputs":[{"internalType":"uint256","name":"","type":"uint256"}],"stateMutability":"view","type":"function"},{"inputs":[],"name":"isSync","outputs":[{"internalType":"bool","name":"","type":"bool"}],"stateMutability":"pure","type":"function"},{"inputs":[],"name":"lqty","outputs":[{"internalType":"contract IERC20","name":"","type":"address"}],"stateMutability":"view","type":"function"},{"inputs":[],"name":"proxiableUUID","outputs":[{"internalType":"bytes32","name":"","type":"bytes32"}],"stateMutability":"view","type":"function"},{"inputs":[{"internalType":"address","name":"_swapTarget","type":"address"},{"internalType":"uint256","name":"_lqtyAmount","type":"uint256"},{"internalType":"bytes","name":"_lqtySwapData","type":"bytes"},{"internalType":"uint256","name":"_ethAmount","type":"uint256"},{"internalType":"bytes","name":"_ethSwapData","type":"bytes"},{"internalType":"uint256","name":"_amountOutMin","type":"uint256"}],"name":"reinvest","outputs":[],"stateMutability":"nonpayable","type":"function"},{"inputs":[{"internalType":"bytes32","name":"role","type":"bytes32"},{"internalType":"address","name":"account","type":"address"}],"name":"renounceRole","outputs":[],"stateMutability":"nonpayable","type":"function"},{"inputs":[{"internalType":"bytes32","name":"role","type":"bytes32"},{"internalType":"address","name":"account","type":"address"}],"name":"revokeRole","outputs":[],"stateMutability":"nonpayable","type":"function"},{"inputs":[],"name":"stabilityPool","outputs":[{"internalType":"contract IStabilityPool","name":"","type":"address"}],"stateMutability":"view","type":"function"},{"inputs":[{"internalType":"bytes4","name":"interfaceId","type":"bytes4"}],"name":"supportsInterface","outputs":[{"internalType":"bool","name":"","type":"bool"}],"stateMutability":"view","type":"function"},{"inputs":[{"internalType":"address","name":"_newAdmin","type":"address"}],"name":"transferAdminRights","outputs":[],"stateMutability":"nonpayable","type":"function"},{"inputs":[],"name":"underlying","outputs":[{"internalType":"contract IERC20","name":"","type":"address"}],"stateMutability":"view","type":"function"},{"inputs":[{"internalType":"address","name":"newImplementation","type":"address"}],"name":"upgradeTo","outputs":[],"stateMutability":"nonpayable","type":"function"},{"inputs":[{"internalType":"address","name":"newImplementation","type":"address"},{"internalType":"bytes","name":"data","type":"bytes"}],"name":"upgradeToAndCall","outputs":[],"stateMutability":"payable","type":"function"},{"inputs":[],"name":"vault","outputs":[{"internalType":"address","name":"","type":"address"}],"stateMutability":"view","type":"function"},{"inputs":[{"internalType":"uint256","name":"amount","type":"uint256"}],"name":"withdrawToVault","outputs":[],"stateMutability":"nonpayable","type":"function"},{"stateMutability":"payable","type":"receive"}]}