{"address":"0x4C09E88594635393DBfD4fda6C842a051573c32C","bytecode":"0x6080604052600980546001600160401b03191662ed4e001790553480156200002657600080fd5b5060405162002e4c38038062002e4c8339810160408190526200004991620002a3565b604080518082018252601281527129b0b73231b637b1b5902237b730ba34b7b760711b602080830191825283518085019094526009845268446f6e6174696f6e7360b81b908401528151919291620000a491600091620001fd565b508051620000ba906001906020840190620001fd565b5050506001600160a01b038116620001185760405162461bcd60e51b815260206004820152601a60248201527f5661756c743a206f776e65722063616e6e6f7420626520307830000000000000604482015260640160405180910390fd5b6200012560008262000158565b620001517ff1b411d6abb365480ac902cc153c45e9ded5847a2265ce6d01945d253edb6bc78262000158565b5062000312565b60008281526006602090815260408083206001600160a01b038516845290915290205460ff16620001f95760008281526006602090815260408083206001600160a01b03851684529091529020805460ff19166001179055620001b83390565b6001600160a01b0316816001600160a01b0316837f2f8788117e7eff1d82e926ec794901d17c78024a50270940304540a733656f0d60405160405180910390a45b5050565b8280546200020b90620002d5565b90600052602060002090601f0160209004810192826200022f57600085556200027a565b82601f106200024a57805160ff19168380011785556200027a565b828001600101855582156200027a579182015b828111156200027a5782518255916020019190600101906200025d565b50620002889291506200028c565b5090565b5b808211156200028857600081556001016200028d565b600060208284031215620002b657600080fd5b81516001600160a01b0381168114620002ce57600080fd5b9392505050565b600181811c90821680620002ea57607f821691505b602082108114156200030c57634e487b7160e01b600052602260045260246000fd5b50919050565b612b2a80620003226000396000f3fe608060405234801561001057600080fd5b50600436106101cf5760003560e01c806370a0823111610104578063a22cb465116100a2578063d824891011610071578063d824891014610464578063e253abdf14610477578063e3684e391461048a578063e985e9c51461051f57600080fd5b8063a22cb46514610418578063b88d4fde1461042b578063c87b56dd1461043e578063d547741f1461045157600080fd5b806391d14854116100de57806391d14854146103a457806395d89b41146103dd57806398831192146103e5578063a217fddf1461041057600080fd5b806370a082311461036b5780637641e6f31461037e5780637cdb74951461039157600080fd5b8063248a9ca31161017157806342842e0e1161014b57806342842e0e146102f15780634e8b1dd514610304578063634252dc146103315780636352211e1461035857600080fd5b8063248a9ca31461029a5780632f2ff15d146102cb57806336568abe146102de57600080fd5b8063081812fc116101ad578063081812fc14610226578063095ea7b31461025157806323b872dd146102645780632408ee801461027757600080fd5b806301ffc9a7146101d457806306f2a6be146101fc57806306fdde0314610211575b600080fd5b6101e76101e2366004612257565b61055b565b60405190151581526020015b60405180910390f35b61020f61020a3660046122c0565b61056c565b005b6102196106a2565b6040516101f39190612384565b610239610234366004612397565b610734565b6040516001600160a01b0390911681526020016101f3565b61020f61025f3660046123c5565b61075b565b61020f6102723660046123f1565b610892565b6101e7610285366004612397565b600a6020526000908152604090205460ff1681565b6102bd6102a8366004612397565b60009081526006602052604090206001015490565b6040519081526020016101f3565b61020f6102d9366004612432565b610919565b61020f6102ec366004612432565b61093e565b61020f6102ff3660046123f1565b6109ca565b6009546103189067ffffffffffffffff1681565b60405167ffffffffffffffff90911681526020016101f3565b6102bd7ff1b411d6abb365480ac902cc153c45e9ded5847a2265ce6d01945d253edb6bc781565b610239610366366004612397565b6109e5565b6102bd610379366004612462565b610a4a565b61020f61038c36600461247f565b610ae4565b61020f61039f3660046124fb565b610c14565b6101e76103b2366004612432565b60009182526006602090815260408084206001600160a01b0393909316845291905290205460ff1690565b61021961100b565b6102bd6103f336600461255e565b600b60209081526000928352604080842090915290825290205481565b6102bd600081565b61020f6104263660046125a1565b61101a565b61020f6104393660046125e5565b611025565b61021961044c366004612397565b6110b3565b61020f61045f366004612432565b611127565b61020f6104723660046126c5565b61114c565b61020f61048536600461270e565b611271565b6104de610498366004612397565b6008602052600090815260409020805460018201546002909201546001600160801b03821692600160801b90920467ffffffffffffffff16916001600160a01b03169084565b604080516001600160801b03909516855267ffffffffffffffff90931660208501526001600160a01b039091169183019190915260608201526080016101f3565b6101e761052d366004612738565b6001600160a01b03918216600090815260056020908152604080832093909416825291909152205460ff1690565b6000610566826112d3565b92915050565b6000808067ffffffffffffffff421686825b818110156106965789898281811061059857610598612766565b602090810292909201356000818152600890935260409092208054929850965050600160801b900467ffffffffffffffff1683119350831561068657600285015460018601546001600160a01b03166000908152600b6020908152604080832089546001600160801b031684529091528120805490919061061a908490612792565b90915550610629905086611311565b857f6874c596aaaff0aa80bb2fa847845de413cb824db72206cecb813fdbffcb7cc889898481811061065d5761065d612766565b905060200281019061066f91906127aa565b60405161067d92919061281a565b60405180910390a25b61068f8161282e565b905061057e565b50505050505050505050565b6060600080546106b190612849565b80601f01602080910402602001604051908101604052809291908181526020018280546106dd90612849565b801561072a5780601f106106ff5761010080835404028352916020019161072a565b820191906000526020600020905b81548152906001019060200180831161070d57829003601f168201915b5050505050905090565b600061073f826113ac565b506000908152600460205260409020546001600160a01b031690565b6000610766826109e5565b9050806001600160a01b0316836001600160a01b031614156107f55760405162461bcd60e51b815260206004820152602160248201527f4552433732313a20617070726f76616c20746f2063757272656e74206f776e6560448201527f720000000000000000000000000000000000000000000000000000000000000060648201526084015b60405180910390fd5b336001600160a01b03821614806108115750610811813361052d565b6108835760405162461bcd60e51b815260206004820152603e60248201527f4552433732313a20617070726f76652063616c6c6572206973206e6f7420746f60448201527f6b656e206f776e6572206e6f7220617070726f76656420666f7220616c6c000060648201526084016107ec565b61088d8383611413565b505050565b61089c3382611481565b61090e5760405162461bcd60e51b815260206004820152602e60248201527f4552433732313a2063616c6c6572206973206e6f7420746f6b656e206f776e6560448201527f72206e6f7220617070726f76656400000000000000000000000000000000000060648201526084016107ec565b61088d838383611500565b600082815260066020526040902060010154610934816116cd565b61088d83836116d7565b6001600160a01b03811633146109bc5760405162461bcd60e51b815260206004820152602f60248201527f416363657373436f6e74726f6c3a2063616e206f6e6c792072656e6f756e636560448201527f20726f6c657320666f722073656c66000000000000000000000000000000000060648201526084016107ec565b6109c68282611779565b5050565b61088d83838360405180602001604052806000815250611025565b6000818152600260205260408120546001600160a01b0316806105665760405162461bcd60e51b815260206004820152601860248201527f4552433732313a20696e76616c696420746f6b656e204944000000000000000060448201526064016107ec565b60006001600160a01b038216610ac85760405162461bcd60e51b815260206004820152602960248201527f4552433732313a2061646472657373207a65726f206973206e6f74206120766160448201527f6c6964206f776e6572000000000000000000000000000000000000000000000060648201526084016107ec565b506001600160a01b031660009081526003602052604090205490565b600033610af0856109e5565b600086815260086020526040902080546001600160a01b039290921692909214925067ffffffffffffffff428116600160801b90920416108280610b315750805b610b7d5760405162461bcd60e51b815260206004820152601660248201527f446f6e6174696f6e733a206e6f7420616c6c6f7765640000000000000000000060448201526064016107ec565b600282015460018301546001600160a01b03166000908152600b6020908152604080832086546001600160801b0316845290915281208054909190610bc3908490612792565b90915550610bd2905086611311565b857f6874c596aaaff0aa80bb2fa847845de413cb824db72206cecb813fdbffcb7cc88686604051610c0492919061281a565b60405180910390a2505050505050565b7ff1b411d6abb365480ac902cc153c45e9ded5847a2265ce6d01945d253edb6bc7610c3e816116cd565b604080516020808201889052818301879052825180830384018152606090920183528151918101919091206000818152600a9092529190205460ff1615610cc75760405162461bcd60e51b815260206004820152601c60248201527f446f6e6174696f6e733a20616c72656164792070726f6365737365640000000060448201526064016107ec565b600954600090610ce19067ffffffffffffffff1642612884565b600754909150849060005b82811015610fe557610cfd8261282e565b91506040518060800160405280898984818110610d1c57610d1c612766565b9050602002810190610d2e91906128b0565b610d3c9060208101906128d0565b6001600160801b031681526020018567ffffffffffffffff168152602001898984818110610d6c57610d6c612766565b9050602002810190610d7e91906128b0565b610d8f906060810190604001612462565b6001600160a01b03168152602001898984818110610daf57610daf612766565b9050602002810190610dc191906128b0565b606090810135909152600084815260086020908152604091829020845181549286015167ffffffffffffffff16600160801b027fffffffffffffffff0000000000000000000000000000000000000000000000009093166001600160801b0390911617919091178155908301516001820180546001600160a01b039092166001600160a01b0319909216919091179055910151600290910155610e98888883818110610e6f57610e6f612766565b9050602002810190610e8191906128b0565b610e92906040810190602001612462565b836117fc565b84888883818110610eab57610eab612766565b9050602002810190610ebd91906128b0565b610ecb9060208101906128d0565b6001600160801b0316837fdacba2fa7b75fcde690c6d8dae704d859ebc3b89dae3cf49357d6a12a9e0193d8b8b86818110610f0857610f08612766565b9050602002810190610f1a91906128b0565b610f2b906060810190604001612462565b888d8d88818110610f3e57610f3e612766565b9050602002810190610f5091906128b0565b606001358e8e89818110610f6657610f66612766565b9050602002810190610f7891906128b0565b610f89906040810190602001612462565b8f8f8a818110610f9b57610f9b612766565b9050602002810190610fad91906128b0565b610fbb9060808101906127aa565b604051610fcd969594939291906128eb565b60405180910390a4610fde8161282e565b9050610cec565b5060075550506000908152600a60205260409020805460ff191660011790555050505050565b6060600180546106b190612849565b6109c633838361193e565b61102f3383611481565b6110a15760405162461bcd60e51b815260206004820152602e60248201527f4552433732313a2063616c6c6572206973206e6f7420746f6b656e206f776e6560448201527f72206e6f7220617070726f76656400000000000000000000000000000000000060648201526084016107ec565b6110ad84848484611a0d565b50505050565b60606110be826113ac565b60006110d560408051602081019091526000815290565b905060008151116110f55760405180602001604052806000815250611120565b806110ff84611a96565b60405160200161111092919061293a565b6040516020818303038152906040525b9392505050565b600082815260066020526040902060010154611142816116cd565b61088d8383611779565b7ff1b411d6abb365480ac902cc153c45e9ded5847a2265ce6d01945d253edb6bc7611176816116cd565b6001600160a01b0383166000908152600b602090815260408083206001600160801b0388168452909152902054806111f05760405162461bcd60e51b815260206004820152601c60248201527f446f6e6174696f6e733a206e6f7468696e6720746f20646f6e6174650000000060448201526064016107ec565b6001600160a01b038481166000818152600b602090815260408083206001600160801b038b168085529083528184209390935551858152938716937f27c209b93a7fe87531993c3ce2ab9e352e1e022adb1088729759d043daa08757910160405180910390a461126a6001600160a01b0385168483611b94565b5050505050565b600061127c816116cd565b6009805467ffffffffffffffff191667ffffffffffffffff84169081179091556040519081527f54578ea9dcb2f1fc35e2b4ff6947b808dfa81adf38483eaec4cde6d083cbcf519060200160405180910390a15050565b60006001600160e01b031982167f7965db0b000000000000000000000000000000000000000000000000000000001480610566575061056682611c14565b600061131c826109e5565b9050611329600083611413565b6001600160a01b0381166000908152600360205260408120805460019290611352908490612960565b909155505060008281526002602052604080822080546001600160a01b0319169055518391906001600160a01b038416907fddf252ad1be2c89b69c2b068fc378daa952ba7f163c4a11628f55a4df523b3ef908390a45050565b6000818152600260205260409020546001600160a01b03166114105760405162461bcd60e51b815260206004820152601860248201527f4552433732313a20696e76616c696420746f6b656e204944000000000000000060448201526064016107ec565b50565b600081815260046020526040902080546001600160a01b0319166001600160a01b0384169081179091558190611448826109e5565b6001600160a01b03167f8c5be1e5ebec7d5bd14f71427d1e84f3dd0314c0f7b2291e5b200ac8c7c3b92560405160405180910390a45050565b60008061148d836109e5565b9050806001600160a01b0316846001600160a01b031614806114d457506001600160a01b0380821660009081526005602090815260408083209388168352929052205460ff165b806114f85750836001600160a01b03166114ed84610734565b6001600160a01b0316145b949350505050565b826001600160a01b0316611513826109e5565b6001600160a01b03161461158f5760405162461bcd60e51b815260206004820152602560248201527f4552433732313a207472616e736665722066726f6d20696e636f72726563742060448201527f6f776e657200000000000000000000000000000000000000000000000000000060648201526084016107ec565b6001600160a01b03821661160a5760405162461bcd60e51b8152602060048201526024808201527f4552433732313a207472616e7366657220746f20746865207a65726f2061646460448201527f726573730000000000000000000000000000000000000000000000000000000060648201526084016107ec565b611615600082611413565b6001600160a01b038316600090815260036020526040812080546001929061163e908490612960565b90915550506001600160a01b038216600090815260036020526040812080546001929061166c908490612792565b909155505060008181526002602052604080822080546001600160a01b0319166001600160a01b0386811691821790925591518493918716917fddf252ad1be2c89b69c2b068fc378daa952ba7f163c4a11628f55a4df523b3ef91a4505050565b6114108133611caf565b60008281526006602090815260408083206001600160a01b038516845290915290205460ff166109c65760008281526006602090815260408083206001600160a01b03851684529091529020805460ff191660011790556117353390565b6001600160a01b0316816001600160a01b0316837f2f8788117e7eff1d82e926ec794901d17c78024a50270940304540a733656f0d60405160405180910390a45050565b60008281526006602090815260408083206001600160a01b038516845290915290205460ff16156109c65760008281526006602090815260408083206001600160a01b0385168085529252808320805460ff1916905551339285917ff6391f5c32d9c69d2a47ea670b442974b53935d1edc7fd64eb21e047a839171b9190a45050565b6001600160a01b0382166118525760405162461bcd60e51b815260206004820181905260248201527f4552433732313a206d696e7420746f20746865207a65726f206164647265737360448201526064016107ec565b6000818152600260205260409020546001600160a01b0316156118b75760405162461bcd60e51b815260206004820152601c60248201527f4552433732313a20746f6b656e20616c7265616479206d696e7465640000000060448201526064016107ec565b6001600160a01b03821660009081526003602052604081208054600192906118e0908490612792565b909155505060008181526002602052604080822080546001600160a01b0319166001600160a01b03861690811790915590518392907fddf252ad1be2c89b69c2b068fc378daa952ba7f163c4a11628f55a4df523b3ef908290a45050565b816001600160a01b0316836001600160a01b031614156119a05760405162461bcd60e51b815260206004820152601960248201527f4552433732313a20617070726f766520746f2063616c6c65720000000000000060448201526064016107ec565b6001600160a01b03838116600081815260056020908152604080832094871680845294825291829020805460ff191686151590811790915591519182527f17307eab39ab6107e8899845ad3d59bd9653f200f220920489ca2b5937696c31910160405180910390a3505050565b611a18848484611500565b611a2484848484611d2f565b6110ad5760405162461bcd60e51b815260206004820152603260248201527f4552433732313a207472616e7366657220746f206e6f6e20455243373231526560448201527f63656976657220696d706c656d656e746572000000000000000000000000000060648201526084016107ec565b606081611aba5750506040805180820190915260018152600360fc1b602082015290565b8160005b8115611ae45780611ace8161282e565b9150611add9050600a8361298d565b9150611abe565b60008167ffffffffffffffff811115611aff57611aff6125cf565b6040519080825280601f01601f191660200182016040528015611b29576020820181803683370190505b5090505b84156114f857611b3e600183612960565b9150611b4b600a866129a1565b611b56906030612792565b60f81b818381518110611b6b57611b6b612766565b60200101906001600160f81b031916908160001a905350611b8d600a8661298d565b9450611b2d565b604080516001600160a01b038416602482015260448082018490528251808303909101815260649091019091526020810180517bffffffffffffffffffffffffffffffffffffffffffffffffffffffff167fa9059cbb0000000000000000000000000000000000000000000000000000000017905261088d908490611e83565b60006001600160e01b031982167f80ac58cd000000000000000000000000000000000000000000000000000000001480611c7757506001600160e01b031982167f5b5e139f00000000000000000000000000000000000000000000000000000000145b8061056657507f01ffc9a7000000000000000000000000000000000000000000000000000000006001600160e01b0319831614610566565b60008281526006602090815260408083206001600160a01b038516845290915290205460ff166109c657611ced816001600160a01b03166014611f68565b611cf8836020611f68565b604051602001611d099291906129b5565b60408051601f198184030181529082905262461bcd60e51b82526107ec91600401612384565b60006001600160a01b0384163b15611e7857604051630a85bd0160e11b81526001600160a01b0385169063150b7a0290611d73903390899088908890600401612a36565b6020604051808303816000875af1925050508015611dae575060408051601f3d908101601f19168201909252611dab91810190612a72565b60015b611e5e573d808015611ddc576040519150601f19603f3d011682016040523d82523d6000602084013e611de1565b606091505b508051611e565760405162461bcd60e51b815260206004820152603260248201527f4552433732313a207472616e7366657220746f206e6f6e20455243373231526560448201527f63656976657220696d706c656d656e746572000000000000000000000000000060648201526084016107ec565b805181602001fd5b6001600160e01b031916630a85bd0160e11b1490506114f8565b506001949350505050565b6000611ed8826040518060400160405280602081526020017f5361666545524332303a206c6f772d6c6576656c2063616c6c206661696c6564815250856001600160a01b031661212d9092919063ffffffff16565b80519091501561088d5780806020019051810190611ef69190612a8f565b61088d5760405162461bcd60e51b815260206004820152602a60248201527f5361666545524332303a204552433230206f7065726174696f6e20646964206e60448201527f6f7420737563636565640000000000000000000000000000000000000000000060648201526084016107ec565b60606000611f77836002612aac565b611f82906002612792565b67ffffffffffffffff811115611f9a57611f9a6125cf565b6040519080825280601f01601f191660200182016040528015611fc4576020820181803683370190505b509050600360fc1b81600081518110611fdf57611fdf612766565b60200101906001600160f81b031916908160001a9053507f78000000000000000000000000000000000000000000000000000000000000008160018151811061202a5761202a612766565b60200101906001600160f81b031916908160001a905350600061204e846002612aac565b612059906001612792565b90505b60018111156120de577f303132333435363738396162636465660000000000000000000000000000000085600f166010811061209a5761209a612766565b1a60f81b8282815181106120b0576120b0612766565b60200101906001600160f81b031916908160001a90535060049490941c936120d781612acb565b905061205c565b5083156111205760405162461bcd60e51b815260206004820181905260248201527f537472696e67733a20686578206c656e67746820696e73756666696369656e7460448201526064016107ec565b60606114f88484600085856001600160a01b0385163b61218f5760405162461bcd60e51b815260206004820152601d60248201527f416464726573733a2063616c6c20746f206e6f6e2d636f6e747261637400000060448201526064016107ec565b600080866001600160a01b031685876040516121ab9190612ae2565b60006040518083038185875af1925050503d80600081146121e8576040519150601f19603f3d011682016040523d82523d6000602084013e6121ed565b606091505b50915091506121fd828286612208565b979650505050505050565b60608315612217575081611120565b8251156122275782518084602001fd5b8160405162461bcd60e51b81526004016107ec9190612384565b6001600160e01b03198116811461141057600080fd5b60006020828403121561226957600080fd5b813561112081612241565b60008083601f84011261228657600080fd5b50813567ffffffffffffffff81111561229e57600080fd5b6020830191508360208260051b85010111156122b957600080fd5b9250929050565b600080600080604085870312156122d657600080fd5b843567ffffffffffffffff808211156122ee57600080fd5b6122fa88838901612274565b9096509450602087013591508082111561231357600080fd5b5061232087828801612274565b95989497509550505050565b60005b8381101561234757818101518382015260200161232f565b838111156110ad5750506000910152565b6000815180845261237081602086016020860161232c565b601f01601f19169290920160200192915050565b6020815260006111206020830184612358565b6000602082840312156123a957600080fd5b5035919050565b6001600160a01b038116811461141057600080fd5b600080604083850312156123d857600080fd5b82356123e3816123b0565b946020939093013593505050565b60008060006060848603121561240657600080fd5b8335612411816123b0565b92506020840135612421816123b0565b929592945050506040919091013590565b6000806040838503121561244557600080fd5b823591506020830135612457816123b0565b809150509250929050565b60006020828403121561247457600080fd5b8135611120816123b0565b60008060006040848603121561249457600080fd5b83359250602084013567ffffffffffffffff808211156124b357600080fd5b818601915086601f8301126124c757600080fd5b8135818111156124d657600080fd5b8760208285010111156124e857600080fd5b6020830194508093505050509250925092565b6000806000806060858703121561251157600080fd5b8435935060208501359250604085013567ffffffffffffffff81111561253657600080fd5b61232087828801612274565b80356001600160801b038116811461255957600080fd5b919050565b6000806040838503121561257157600080fd5b823561257c816123b0565b915061258a60208401612542565b90509250929050565b801515811461141057600080fd5b600080604083850312156125b457600080fd5b82356125bf816123b0565b9150602083013561245781612593565b634e487b7160e01b600052604160045260246000fd5b600080600080608085870312156125fb57600080fd5b8435612606816123b0565b93506020850135612616816123b0565b925060408501359150606085013567ffffffffffffffff8082111561263a57600080fd5b818701915087601f83011261264e57600080fd5b813581811115612660576126606125cf565b604051601f8201601f19908116603f01168101908382118183101715612688576126886125cf565b816040528281528a60208487010111156126a157600080fd5b82602086016020830137600060208483010152809550505050505092959194509250565b6000806000606084860312156126da57600080fd5b6126e384612542565b925060208401356126f3816123b0565b91506040840135612703816123b0565b809150509250925092565b60006020828403121561272057600080fd5b813567ffffffffffffffff8116811461112057600080fd5b6000806040838503121561274b57600080fd5b8235612756816123b0565b91506020830135612457816123b0565b634e487b7160e01b600052603260045260246000fd5b634e487b7160e01b600052601160045260246000fd5b600082198211156127a5576127a561277c565b500190565b6000808335601e198436030181126127c157600080fd5b83018035915067ffffffffffffffff8211156127dc57600080fd5b6020019150368190038213156122b957600080fd5b81835281816020850137506000828201602090810191909152601f909101601f19169091010190565b6020815260006114f86020830184866127f1565b60006000198214156128425761284261277c565b5060010190565b600181811c9082168061285d57607f821691505b6020821081141561287e57634e487b7160e01b600052602260045260246000fd5b50919050565b600067ffffffffffffffff8083168185168083038211156128a7576128a761277c565b01949350505050565b60008235609e198336030181126128c657600080fd5b9190910192915050565b6000602082840312156128e257600080fd5b61112082612542565b60006001600160a01b03808916835267ffffffffffffffff8816602084015286604084015280861660608401525060a0608083015261292e60a0830184866127f1565b98975050505050505050565b6000835161294c81846020880161232c565b8351908301906128a781836020880161232c565b6000828210156129725761297261277c565b500390565b634e487b7160e01b600052601260045260246000fd5b60008261299c5761299c612977565b500490565b6000826129b0576129b0612977565b500690565b7f416363657373436f6e74726f6c3a206163636f756e74200000000000000000008152600083516129ed81601785016020880161232c565b7f206973206d697373696e6720726f6c65200000000000000000000000000000006017918401918201528351612a2a81602884016020880161232c565b01602801949350505050565b60006001600160a01b03808716835280861660208401525083604083015260806060830152612a686080830184612358565b9695505050505050565b600060208284031215612a8457600080fd5b815161112081612241565b600060208284031215612aa157600080fd5b815161112081612593565b6000816000190483118215151615612ac657612ac661277c565b500290565b600081612ada57612ada61277c565b506000190190565b600082516128c681846020870161232c56fea26469706673582212204c55e3d72813940249bc053d8617734a890531a533f8fe750a0113365864154264736f6c634300080a0033","abi":[{"inputs":[{"internalType":"address","name":"_owner","type":"address"}],"stateMutability":"nonpayable","type":"constructor"},{"anonymous":false,"inputs":[{"indexed":true,"internalType":"address","name":"owner","type":"address"},{"indexed":true,"internalType":"address","name":"approved","type":"address"},{"indexed":true,"internalType":"uint256","name":"tokenId","type":"uint256"}],"name":"Approval","type":"event"},{"anonymous":false,"inputs":[{"indexed":true,"internalType":"address","name":"owner","type":"address"},{"indexed":true,"internalType":"address","name":"operator","type":"address"},{"indexed":false,"internalType":"bool","name":"approved","type":"bool"}],"name":"ApprovalForAll","type":"event"},{"anonymous":false,"inputs":[{"indexed":true,"internalType":"uint256","name":"id","type":"uint256"},{"indexed":false,"internalType":"string","name":"donationId","type":"string"}],"name":"DonationBurned","type":"event"},{"anonymous":false,"inputs":[{"indexed":true,"internalType":"uint256","name":"id","type":"uint256"},{"indexed":true,"internalType":"uint128","name":"destinationId","type":"uint128"},{"indexed":true,"internalType":"bytes32","name":"groupId","type":"bytes32"},{"indexed":false,"internalType":"contract IERC20","name":"token","type":"address"},{"indexed":false,"internalType":"uint256","name":"expiry","type":"uint256"},{"indexed":false,"internalType":"uint256","name":"amount","type":"uint256"},{"indexed":false,"internalType":"address","name":"owner","type":"address"},{"indexed":false,"internalType":"string","name":"donationId","type":"string"}],"name":"DonationMinted","type":"event"},{"anonymous":false,"inputs":[{"indexed":true,"internalType":"uint128","name":"destinationId","type":"uint128"},{"indexed":true,"internalType":"contract IERC20","name":"token","type":"address"},{"indexed":true,"internalType":"address","name":"to","type":"address"},{"indexed":false,"internalType":"uint256","name":"amount","type":"uint256"}],"name":"DonationsSent","type":"event"},{"anonymous":false,"inputs":[{"indexed":true,"internalType":"bytes32","name":"role","type":"bytes32"},{"indexed":true,"internalType":"bytes32","name":"previousAdminRole","type":"bytes32"},{"indexed":true,"internalType":"bytes32","name":"newAdminRole","type":"bytes32"}],"name":"RoleAdminChanged","type":"event"},{"anonymous":false,"inputs":[{"indexed":true,"internalType":"bytes32","name":"role","type":"bytes32"},{"indexed":true,"internalType":"address","name":"account","type":"address"},{"indexed":true,"internalType":"address","name":"sender","type":"address"}],"name":"RoleGranted","type":"event"},{"anonymous":false,"inputs":[{"indexed":true,"internalType":"bytes32","name":"role","type":"bytes32"},{"indexed":true,"internalType":"address","name":"account","type":"address"},{"indexed":true,"internalType":"address","name":"sender","type":"address"}],"name":"RoleRevoked","type":"event"},{"anonymous":false,"inputs":[{"indexed":false,"internalType":"uint64","name":"ttl","type":"uint64"}],"name":"TTLUpdated","type":"event"},{"anonymous":false,"inputs":[{"indexed":true,"internalType":"address","name":"from","type":"address"},{"indexed":true,"internalType":"address","name":"to","type":"address"},{"indexed":true,"internalType":"uint256","name":"tokenId","type":"uint256"}],"name":"Transfer","type":"event"},{"inputs":[],"name":"DEFAULT_ADMIN_ROLE","outputs":[{"internalType":"bytes32","name":"","type":"bytes32"}],"stateMutability":"view","type":"function"},{"inputs":[],"name":"WORKER_ROLE","outputs":[{"internalType":"bytes32","name":"","type":"bytes32"}],"stateMutability":"view","type":"function"},{"inputs":[{"internalType":"address","name":"to","type":"address"},{"internalType":"uint256","name":"tokenId","type":"uint256"}],"name":"approve","outputs":[],"stateMutability":"nonpayable","type":"function"},{"inputs":[{"internalType":"address","name":"owner","type":"address"}],"name":"balanceOf","outputs":[{"internalType":"uint256","name":"","type":"uint256"}],"stateMutability":"view","type":"function"},{"inputs":[{"internalType":"uint256","name":"_id","type":"uint256"},{"internalType":"string","name":"donationId","type":"string"}],"name":"burn","outputs":[],"stateMutability":"nonpayable","type":"function"},{"inputs":[{"internalType":"uint256[]","name":"_ids","type":"uint256[]"},{"internalType":"string[]","name":"donationIds","type":"string[]"}],"name":"burnBatch","outputs":[],"stateMutability":"nonpayable","type":"function"},{"inputs":[{"internalType":"uint128","name":"_destinationId","type":"uint128"},{"internalType":"contract IERC20","name":"_token","type":"address"},{"internalType":"address","name":"_to","type":"address"}],"name":"donate","outputs":[],"stateMutability":"nonpayable","type":"function"},{"inputs":[{"internalType":"uint256","name":"tokenId","type":"uint256"}],"name":"getApproved","outputs":[{"internalType":"address","name":"","type":"address"}],"stateMutability":"view","type":"function"},{"inputs":[{"internalType":"bytes32","name":"role","type":"bytes32"}],"name":"getRoleAdmin","outputs":[{"internalType":"bytes32","name":"","type":"bytes32"}],"stateMutability":"view","type":"function"},{"inputs":[{"internalType":"bytes32","name":"role","type":"bytes32"},{"internalType":"address","name":"account","type":"address"}],"name":"grantRole","outputs":[],"stateMutability":"nonpayable","type":"function"},{"inputs":[{"internalType":"bytes32","name":"role","type":"bytes32"},{"internalType":"address","name":"account","type":"address"}],"name":"hasRole","outputs":[{"internalType":"bool","name":"","type":"bool"}],"stateMutability":"view","type":"function"},{"inputs":[{"internalType":"address","name":"owner","type":"address"},{"internalType":"address","name":"operator","type":"address"}],"name":"isApprovedForAll","outputs":[{"internalType":"bool","name":"","type":"bool"}],"stateMutability":"view","type":"function"},{"inputs":[{"internalType":"uint256","name":"","type":"uint256"}],"name":"metadata","outputs":[{"internalType":"uint128","name":"destinationId","type":"uint128"},{"internalType":"uint64","name":"expiry","type":"uint64"},{"internalType":"contract IERC20","name":"token","type":"address"},{"internalType":"uint256","name":"amount","type":"uint256"}],"stateMutability":"view","type":"function"},{"inputs":[{"internalType":"bytes32","name":"_txHash","type":"bytes32"},{"internalType":"uint256","name":"_batchNr","type":"uint256"},{"components":[{"internalType":"uint128","name":"destinationId","type":"uint128"},{"internalType":"address","name":"owner","type":"address"},{"internalType":"contract IERC20","name":"token","type":"address"},{"internalType":"uint256","name":"amount","type":"uint256"},{"internalType":"string","name":"donationId","type":"string"}],"internalType":"struct Donations.DonationParams[]","name":"_params","type":"tuple[]"}],"name":"mint","outputs":[],"stateMutability":"nonpayable","type":"function"},{"inputs":[],"name":"name","outputs":[{"internalType":"string","name":"","type":"string"}],"stateMutability":"view","type":"function"},{"inputs":[{"internalType":"uint256","name":"tokenId","type":"uint256"}],"name":"ownerOf","outputs":[{"internalType":"address","name":"","type":"address"}],"stateMutability":"view","type":"function"},{"inputs":[{"internalType":"bytes32","name":"","type":"bytes32"}],"name":"processedDonationsGroups","outputs":[{"internalType":"bool","name":"","type":"bool"}],"stateMutability":"view","type":"function"},{"inputs":[{"internalType":"bytes32","name":"role","type":"bytes32"},{"internalType":"address","name":"account","type":"address"}],"name":"renounceRole","outputs":[],"stateMutability":"nonpayable","type":"function"},{"inputs":[{"internalType":"bytes32","name":"role","type":"bytes32"},{"internalType":"address","name":"account","type":"address"}],"name":"revokeRole","outputs":[],"stateMutability":"nonpayable","type":"function"},{"inputs":[{"internalType":"address","name":"from","type":"address"},{"internalType":"address","name":"to","type":"address"},{"internalType":"uint256","name":"tokenId","type":"uint256"}],"name":"safeTransferFrom","outputs":[],"stateMutability":"nonpayable","type":"function"},{"inputs":[{"internalType":"address","name":"from","type":"address"},{"internalType":"address","name":"to","type":"address"},{"internalType":"uint256","name":"tokenId","type":"uint256"},{"internalType":"bytes","name":"data","type":"bytes"}],"name":"safeTransferFrom","outputs":[],"stateMutability":"nonpayable","type":"function"},{"inputs":[{"internalType":"address","name":"operator","type":"address"},{"internalType":"bool","name":"approved","type":"bool"}],"name":"setApprovalForAll","outputs":[],"stateMutability":"nonpayable","type":"function"},{"inputs":[{"internalType":"uint64","name":"_ttl","type":"uint64"}],"name":"setTTL","outputs":[],"stateMutability":"nonpayable","type":"function"},{"inputs":[{"internalType":"bytes4","name":"interfaceId","type":"bytes4"}],"name":"supportsInterface","outputs":[{"internalType":"bool","name":"","type":"bool"}],"stateMutability":"view","type":"function"},{"inputs":[],"name":"symbol","outputs":[{"internalType":"string","name":"","type":"string"}],"stateMutability":"view","type":"function"},{"inputs":[{"internalType":"uint256","name":"tokenId","type":"uint256"}],"name":"tokenURI","outputs":[{"internalType":"string","name":"","type":"string"}],"stateMutability":"view","type":"function"},{"inputs":[{"internalType":"address","name":"from","type":"address"},{"internalType":"address","name":"to","type":"address"},{"internalType":"uint256","name":"tokenId","type":"uint256"}],"name":"transferFrom","outputs":[],"stateMutability":"nonpayable","type":"function"},{"inputs":[{"internalType":"contract IERC20","name":"","type":"address"},{"internalType":"uint128","name":"","type":"uint128"}],"name":"transferableAmounts","outputs":[{"internalType":"uint256","name":"","type":"uint256"}],"stateMutability":"view","type":"function"},{"inputs":[],"name":"ttl","outputs":[{"internalType":"uint64","name":"","type":"uint64"}],"stateMutability":"view","type":"function"}]}