{"address":"0xD4950A1b7421E090C4865157D2B057A244D12365","bytecode":"0x610100604052600180546001600160801b031916811790553480156200002457600080fd5b5060405162001ebf38038062001ebf833981016040819052620000479162000438565b6001600160a01b0383166200006f57604051638f6e893360e01b815260040160405180910390fd5b6001600160a01b0382166200009757604051631d97a8dd60e31b815260040160405180910390fd5b6001600160a01b038116620000bf576040516301010feb60e61b815260040160405180910390fd5b620000e96321d982ed60e01b856001600160a01b03166200028460201b62000b821790919060201c565b620001075760405163d7e681d160e01b815260040160405180910390fd5b6200011460008462000337565b620001407ffaf9b26485088dee58863e57c46603d6cdcbadc7475ac6d8910fab0ecf6030958462000337565b6200016c7f241ecf16d79d0f8dbfb92cbc07fe17840425976cf0667f022fe9877caa831b088562000337565b6001600160a01b0380851660a052821660c08190526040805163313ce56760e01b8152905163313ce567916004808201926020929091908290030181865afa158015620001bd573d6000803e3d6000fd5b505050506040513d601f19601f82011682018060405250810190620001e3919062000495565b620001f090600a620005d4565b6001600160801b031660e0526001600160a01b03818116608081905260405163095ea7b360e01b8152918416600483015260001960248301529063095ea7b3906044016020604051808303816000875af115801562000253573d6000803e3d6000fd5b505050506040513d601f19601f82011682018060405250810190620002799190620005e5565b505050505062000609565b600080806200029b856301ffc9a760e01b62000347565b9092509050811580620002ac575080155b15620002be5760009250505062000331565b620002d2856001600160e01b031962000347565b9092509050811580620002e457508015155b15620002f65760009250505062000331565b62000302858562000347565b9092509050600182148015620003185750806001145b156200032a5760019250505062000331565b6000925050505b92915050565b6200034382826200037b565b5050565b6040516301ffc9a760e01b8082526004820183905260009182919060208160248189617530fa905190969095509350505050565b6000828152602081815260408083206001600160a01b038516845290915290205460ff1662000343576000828152602081815260408083206001600160a01b03851684529091529020805460ff19166001179055620003d73390565b6001600160a01b0316816001600160a01b0316837f2f8788117e7eff1d82e926ec794901d17c78024a50270940304540a733656f0d60405160405180910390a45050565b80516001600160a01b03811681146200043357600080fd5b919050565b600080600080608085870312156200044f57600080fd5b6200045a856200041b565b93506200046a602086016200041b565b92506200047a604086016200041b565b91506200048a606086016200041b565b905092959194509250565b600060208284031215620004a857600080fd5b815160ff81168114620004ba57600080fd5b9392505050565b634e487b7160e01b600052601160045260246000fd5b600181815b8085111562000518578160001904821115620004fc57620004fc620004c1565b808516156200050a57918102915b93841c9390800290620004dc565b509250929050565b600082620005315750600162000331565b81620005405750600062000331565b8160018114620005595760028114620005645762000584565b600191505062000331565b60ff841115620005785762000578620004c1565b50506001821b62000331565b5060208310610133831016604e8410600b8410161715620005a9575081810a62000331565b620005b58383620004d7565b8060001904821115620005cc57620005cc620004c1565b029392505050565b6000620004ba60ff84168362000520565b600060208284031215620005f857600080fd5b81518015158114620004ba57600080fd5b60805160a05160c05160e051611836620006896000396000818161032201528181610e9e0152610ff70152600081816101ef015281816107ae01528181610ac701528181610e6301528181610ec80152610f6a0152600081816103b20152610863015260008181610251015281816108410152610dd701526118366000f3fe608060405234801561001057600080fd5b50600436106101775760003560e01c8063a217fddf116100d8578063d9c83fb51161008c578063ec87621c11610066578063ec87621c1461035f578063f628988714610386578063fbfa77cf146103ad57600080fd5b8063d9c83fb51461031d578063df5fffc814610344578063e8b5e51f1461035757600080fd5b8063b5106add116100bd578063b5106add146102e4578063ce8c42e8146102f7578063d547741f1461030a57600080fd5b8063a217fddf146102b1578063b09820ad146102b957600080fd5b80634ad0b6841161012f5780636f307dc3116101145780636f307dc31461024c57806391d14854146102735780639af2e635146102aa57600080fd5b80634ad0b6841461023c5780635be9b2d31461024457600080fd5b80632f2ff15d116101605780632f2ff15d146101d557806333303f8e146101ea57806336568abe1461022957600080fd5b806301ffc9a71461017c578063248a9ca3146101a4575b600080fd5b61018f61018a36600461152d565b6103d4565b60405190151581526020015b60405180910390f35b6101c76101b2366004611557565b60009081526020819052604090206001015490565b60405190815260200161019b565b6101e86101e336600461158c565b610424565b005b6102117f000000000000000000000000000000000000000000000000000000000000000081565b6040516001600160a01b03909116815260200161019b565b6101e861023736600461158c565b61044f565b6101c76104e0565b61018f610509565b6102117f000000000000000000000000000000000000000000000000000000000000000081565b61018f61028136600461158c565b6000918252602082815260408084206001600160a01b0393909316845291905290205460ff1690565b600161018f565b6101c7600081565b6001546102cc906001600160801b031681565b6040516001600160801b03909116815260200161019b565b6101e86102f23660046115b8565b61051a565b6101e8610305366004611557565b610672565b6101e861031836600461158c565b6108c0565b6102cc7f000000000000000000000000000000000000000000000000000000000000000081565b6101e86103523660046115d3565b6108e6565b6101e86109ff565b6101c77f241ecf16d79d0f8dbfb92cbc07fe17840425976cf0667f022fe9877caa831b0881565b6101c77ffaf9b26485088dee58863e57c46603d6cdcbadc7475ac6d8910fab0ecf60309581565b6102117f000000000000000000000000000000000000000000000000000000000000000081565b60006001600160e01b031982167f7965db0b00000000000000000000000000000000000000000000000000000000148061041e57506301ffc9a760e01b6001600160e01b03198316145b92915050565b6000828152602081905260409020600101546104408133610c24565b61044a8383610ca2565b505050565b6001600160a01b03811633146104d25760405162461bcd60e51b815260206004820152602f60248201527f416363657373436f6e74726f6c3a2063616e206f6e6c792072656e6f756e636560448201527f20726f6c657320666f722073656c66000000000000000000000000000000000060648201526084015b60405180910390fd5b6104dc8282610d40565b5050565b60006104ea610dbf565b6104fa6104f5610e4b565b610e9a565b6105049190611612565b905090565b6000610513610e4b565b1515919050565b3360009081527fad3228b676f7d3cd4284a5443f17f1962b36e491b30a40b2405849e597ba5fb5602052604090205460ff16610582576040517ff0e8368a00000000000000000000000000000000000000000000000000000000815260040160405180910390fd5b6001600160a01b0381166105c2576040517f8f6e893300000000000000000000000000000000000000000000000000000000815260040160405180910390fd5b6001600160a01b038116331415610605576040517f8fbf788d00000000000000000000000000000000000000000000000000000000815260040160405180910390fd5b610610600082610f5c565b61063a7ffaf9b26485088dee58863e57c46603d6cdcbadc7475ac6d8910fab0ecf60309582610f5c565b610645600033610d40565b61066f7ffaf9b26485088dee58863e57c46603d6cdcbadc7475ac6d8910fab0ecf60309533610d40565b50565b3360009081527fe84508f2c7fa9c351146748b3025cb78b45df37d868e48c6a75102fecdeee645602052604090205460ff166106c157604051634cc2cd3760e11b815260040160405180910390fd5b806106f8576040517fd45ab8b600000000000000000000000000000000000000000000000000000000815260040160405180910390fd5b6000610702610dbf565b90508082111561083457600061072061071b838561162a565b610f66565b905061072a610e4b565b811115610763576040517f8396942200000000000000000000000000000000000000000000000000000000815260040160405180910390fd5b6001546040517fe63697c8000000000000000000000000000000000000000000000000000000008152600481018390523060248201526001600160801b0390911660448201526000907f00000000000000000000000000000000000000000000000000000000000000006001600160a01b03169063e63697c8906064016020604051808303816000875af11580156107ff573d6000803e3d6000fd5b505050506040513d601f19601f820116820180604052508101906108239190611641565b905061082f8184611612565b935050505b6108886001600160a01b037f0000000000000000000000000000000000000000000000000000000000000000167f00000000000000000000000000000000000000000000000000000000000000008461101d565b6040518281527f35c4c11317fd96ffa30da51e0a4b85219c4b0f56c1507c3afefe79de0c47ef54906020015b60405180910390a15050565b6000828152602081905260409020600101546108dc8133610c24565b61044a8383610d40565b3360009081527f36fe723da0d85a4c7acef11a805a080284ea91d0f6591ba1fc9b9c7ef3840adc602052604090205460ff1661094e576040517f70c4ee8d00000000000000000000000000000000000000000000000000000000815260040160405180910390fd5b612710816001600160801b03161115610993576040517f4368b5c400000000000000000000000000000000000000000000000000000000815260040160405180910390fd5b600180547fffffffffffffffffffffffffffffffff00000000000000000000000000000000166001600160801b0383169081179091556040519081527f3e529cb895baac79fb1aebca59e62bff108d38e35b216da22bf64844fcb81c559060200160405180910390a150565b3360009081527fe84508f2c7fa9c351146748b3025cb78b45df37d868e48c6a75102fecdeee645602052604090205460ff16610a4e57604051634cc2cd3760e11b815260040160405180910390fd5b6000610a58610dbf565b905080610a91576040517f378a16c900000000000000000000000000000000000000000000000000000000815260040160405180910390fd5b6040517f6e553f6500000000000000000000000000000000000000000000000000000000815260001960048201523060248201527f00000000000000000000000000000000000000000000000000000000000000006001600160a01b031690636e553f65906044016020604051808303816000875af1158015610b18573d6000803e3d6000fd5b505050506040513d601f19601f82011682018060405250810190610b3c9190611641565b506000610b47610dbf565b90507fc68748140896ba027a48ebf3a24735d0afb4ab835f92c4815ddb34f9d6dfd18a610b74828461162a565b6040519081526020016108b4565b60008080610b97856301ffc9a760e01b61109d565b9092509050811580610ba7575080155b15610bb75760009250505061041e565b610bc9856001600160e01b031961109d565b9092509050811580610bda57508015155b15610bea5760009250505061041e565b610bf4858561109d565b9092509050600182148015610c095750806001145b15610c195760019250505061041e565b506000949350505050565b6000828152602081815260408083206001600160a01b038516845290915290205460ff166104dc57610c60816001600160a01b031660146110d1565b610c6b8360206110d1565b604051602001610c7c92919061168a565b60408051601f198184030181529082905262461bcd60e51b82526104c99160040161170b565b6000828152602081815260408083206001600160a01b038516845290915290205460ff166104dc576000828152602081815260408083206001600160a01b03851684529091529020805460ff19166001179055610cfc3390565b6001600160a01b0316816001600160a01b0316837f2f8788117e7eff1d82e926ec794901d17c78024a50270940304540a733656f0d60405160405180910390a45050565b6000828152602081815260408083206001600160a01b038516845290915290205460ff16156104dc576000828152602081815260408083206001600160a01b0385168085529252808320805460ff1916905551339285917ff6391f5c32d9c69d2a47ea670b442974b53935d1edc7fd64eb21e047a839171b9190a45050565b6040516370a0823160e01b81523060048201526000907f00000000000000000000000000000000000000000000000000000000000000006001600160a01b0316906370a08231906024015b602060405180830381865afa158015610e27573d6000803e3d6000fd5b505050506040513d601f19601f820116820180604052508101906105049190611641565b6040516370a0823160e01b81523060048201526000907f00000000000000000000000000000000000000000000000000000000000000006001600160a01b0316906370a0823190602401610e0a565b60007f00000000000000000000000000000000000000000000000000000000000000006001600160801b03167f00000000000000000000000000000000000000000000000000000000000000006001600160a01b03166399530b066040518163ffffffff1660e01b8152600401602060405180830381865afa158015610f24573d6000803e3d6000fd5b505050506040513d601f19601f82011682018060405250810190610f489190611641565b610f52908461173e565b61041e919061175d565b6104dc8282610ca2565b60007f00000000000000000000000000000000000000000000000000000000000000006001600160a01b03166399530b066040518163ffffffff1660e01b8152600401602060405180830381865afa158015610fc6573d6000803e3d6000fd5b505050506040513d601f19601f82011682018060405250810190610fea9190611641565b610f526001600160801b037f0000000000000000000000000000000000000000000000000000000000000000168461173e565b604080516001600160a01b038416602482015260448082018490528251808303909101815260649091019091526020810180517bffffffffffffffffffffffffffffffffffffffffffffffffffffffff167fa9059cbb0000000000000000000000000000000000000000000000000000000017905261044a9084906112b9565b6040516301ffc9a760e01b8082526004820183905260009182919060208160248189617530fa905190969095509350505050565b606060006110e083600261173e565b6110eb906002611612565b67ffffffffffffffff8111156111035761110361177f565b6040519080825280601f01601f19166020018201604052801561112d576020820181803683370190505b5090507f30000000000000000000000000000000000000000000000000000000000000008160008151811061116457611164611795565b60200101906001600160f81b031916908160001a9053507f7800000000000000000000000000000000000000000000000000000000000000816001815181106111af576111af611795565b60200101906001600160f81b031916908160001a90535060006111d384600261173e565b6111de906001611612565b90505b6001811115611263577f303132333435363738396162636465660000000000000000000000000000000085600f166010811061121f5761121f611795565b1a60f81b82828151811061123557611235611795565b60200101906001600160f81b031916908160001a90535060049490941c9361125c816117ab565b90506111e1565b5083156112b25760405162461bcd60e51b815260206004820181905260248201527f537472696e67733a20686578206c656e67746820696e73756666696369656e7460448201526064016104c9565b9392505050565b600061130e826040518060400160405280602081526020017f5361666545524332303a206c6f772d6c6576656c2063616c6c206661696c6564815250856001600160a01b031661139e9092919063ffffffff16565b80519091501561044a578080602001905181019061132c91906117c2565b61044a5760405162461bcd60e51b815260206004820152602a60248201527f5361666545524332303a204552433230206f7065726174696f6e20646964206e60448201527f6f7420737563636565640000000000000000000000000000000000000000000060648201526084016104c9565b60606113ad84846000856113b5565b949350505050565b60608247101561142d5760405162461bcd60e51b815260206004820152602660248201527f416464726573733a20696e73756666696369656e742062616c616e636520666f60448201527f722063616c6c000000000000000000000000000000000000000000000000000060648201526084016104c9565b843b61147b5760405162461bcd60e51b815260206004820152601d60248201527f416464726573733a2063616c6c20746f206e6f6e2d636f6e747261637400000060448201526064016104c9565b600080866001600160a01b0316858760405161149791906117e4565b60006040518083038185875af1925050503d80600081146114d4576040519150601f19603f3d011682016040523d82523d6000602084013e6114d9565b606091505b50915091506114e98282866114f4565b979650505050505050565b606083156115035750816112b2565b8251156115135782518084602001fd5b8160405162461bcd60e51b81526004016104c9919061170b565b60006020828403121561153f57600080fd5b81356001600160e01b0319811681146112b257600080fd5b60006020828403121561156957600080fd5b5035919050565b80356001600160a01b038116811461158757600080fd5b919050565b6000806040838503121561159f57600080fd5b823591506115af60208401611570565b90509250929050565b6000602082840312156115ca57600080fd5b6112b282611570565b6000602082840312156115e557600080fd5b81356001600160801b03811681146112b257600080fd5b634e487b7160e01b600052601160045260246000fd5b60008219821115611625576116256115fc565b500190565b60008282101561163c5761163c6115fc565b500390565b60006020828403121561165357600080fd5b5051919050565b60005b8381101561167557818101518382015260200161165d565b83811115611684576000848401525b50505050565b7f416363657373436f6e74726f6c3a206163636f756e74200000000000000000008152600083516116c281601785016020880161165a565b7f206973206d697373696e6720726f6c652000000000000000000000000000000060179184019182015283516116ff81602884016020880161165a565b01602801949350505050565b602081526000825180602084015261172a81604085016020870161165a565b601f01601f19169190910160400192915050565b6000816000190483118215151615611758576117586115fc565b500290565b60008261177a57634e487b7160e01b600052601260045260246000fd5b500490565b634e487b7160e01b600052604160045260246000fd5b634e487b7160e01b600052603260045260246000fd5b6000816117ba576117ba6115fc565b506000190190565b6000602082840312156117d457600080fd5b815180151581146112b257600080fd5b600082516117f681846020870161165a565b919091019291505056fea2646970667358221220db34853aa158df34762be632a90576e745c2a3c327097b17abf3097c60764e7364736f6c634300080a0033","abi":[{"inputs":[{"internalType":"address","name":"_vault","type":"address"},{"internalType":"address","name":"_admin","type":"address"},{"internalType":"address","name":"_yVault","type":"address"},{"internalType":"address","name":"_underlying","type":"address"}],"stateMutability":"nonpayable","type":"constructor"},{"inputs":[],"name":"StrategyAdminCannotBe0Address","type":"error"},{"inputs":[],"name":"StrategyAmountZero","type":"error"},{"inputs":[],"name":"StrategyCallerNotAdmin","type":"error"},{"inputs":[],"name":"StrategyCallerNotManager","type":"error"},{"inputs":[],"name":"StrategyCallerNotSettings","type":"error"},{"inputs":[],"name":"StrategyCannotTransferAdminRightsToSelf","type":"error"},{"inputs":[],"name":"StrategyMaxLossOnWithdrawTooLarge","type":"error"},{"inputs":[],"name":"StrategyNoUnderlying","type":"error"},{"inputs":[],"name":"StrategyNotEnoughShares","type":"error"},{"inputs":[],"name":"StrategyNotIVault","type":"error"},{"inputs":[],"name":"StrategyNotRunning","type":"error"},{"inputs":[],"name":"StrategyUnderlyingCannotBe0Address","type":"error"},{"inputs":[],"name":"StrategyYearnVaultCannotBe0Address","type":"error"},{"inputs":[],"name":"VaultAmountDoesNotMatchParams","type":"error"},{"inputs":[],"name":"VaultAmountLocked","type":"error"},{"inputs":[],"name":"VaultCannotComputeSharesWithoutPrincipal","type":"error"},{"inputs":[],"name":"VaultCannotDeposit0","type":"error"},{"inputs":[],"name":"VaultCannotDepositWhenClaimerInDebt","type":"error"},{"inputs":[],"name":"VaultCannotDepositWhenYieldNegative","type":"error"},{"inputs":[],"name":"VaultCannotSponsor0","type":"error"},{"inputs":[],"name":"VaultCannotTransferOwnershipToSelf","type":"error"},{"inputs":[],"name":"VaultCannotWithdrawMoreThanAvailable","type":"error"},{"inputs":[],"name":"VaultCannotWithdrawWhenYieldNegative","type":"error"},{"inputs":[],"name":"VaultClaimPercentageCannotBe0","type":"error"},{"inputs":[],"name":"VaultClaimerCannotBe0","type":"error"},{"inputs":[],"name":"VaultClaimsDontAddUp","type":"error"},{"inputs":[],"name":"VaultDepositLocked","type":"error"},{"inputs":[],"name":"VaultDepositNameTooShort","type":"error"},{"inputs":[],"name":"VaultDestinationCannotBe0Address","type":"error"},{"inputs":[],"name":"VaultInvalidInvestpct","type":"error"},{"inputs":[],"name":"VaultInvalidLockPeriod","type":"error"},{"inputs":[],"name":"VaultInvalidLossTolerance","type":"error"},{"inputs":[],"name":"VaultInvalidMinLockPeriod","type":"error"},{"inputs":[],"name":"VaultInvalidPerformanceFee","type":"error"},{"inputs":[],"name":"VaultInvalidVault","type":"error"},{"inputs":[],"name":"VaultNoPerformanceFee","type":"error"},{"inputs":[],"name":"VaultNotAllowed","type":"error"},{"inputs":[],"name":"VaultNotDeposit","type":"error"},{"inputs":[],"name":"VaultNotEnoughFunds","type":"error"},{"inputs":[],"name":"VaultNotEnoughToRebalance","type":"error"},{"inputs":[],"name":"VaultNotOwnerOfDeposit","type":"error"},{"inputs":[],"name":"VaultNotSponsor","type":"error"},{"inputs":[],"name":"VaultNothingToDo","type":"error"},{"inputs":[],"name":"VaultOwnerCannotBe0Address","type":"error"},{"inputs":[],"name":"VaultSenderNotOwnerOfGroupId","type":"error"},{"inputs":[],"name":"VaultStrategyHasInvestedFunds","type":"error"},{"inputs":[],"name":"VaultStrategyNotSet","type":"error"},{"inputs":[],"name":"VaultTreasuryCannotBe0Address","type":"error"},{"inputs":[],"name":"VaultUnderlyingCannotBe0Address","type":"error"},{"anonymous":false,"inputs":[{"indexed":true,"internalType":"bytes32","name":"role","type":"bytes32"},{"indexed":true,"internalType":"bytes32","name":"previousAdminRole","type":"bytes32"},{"indexed":true,"internalType":"bytes32","name":"newAdminRole","type":"bytes32"}],"name":"RoleAdminChanged","type":"event"},{"anonymous":false,"inputs":[{"indexed":true,"internalType":"bytes32","name":"role","type":"bytes32"},{"indexed":true,"internalType":"address","name":"account","type":"address"},{"indexed":true,"internalType":"address","name":"sender","type":"address"}],"name":"RoleGranted","type":"event"},{"anonymous":false,"inputs":[{"indexed":true,"internalType":"bytes32","name":"role","type":"bytes32"},{"indexed":true,"internalType":"address","name":"account","type":"address"},{"indexed":true,"internalType":"address","name":"sender","type":"address"}],"name":"RoleRevoked","type":"event"},{"anonymous":false,"inputs":[{"indexed":false,"internalType":"uint256","name":"amount","type":"uint256"}],"name":"StrategyInvested","type":"event"},{"anonymous":false,"inputs":[{"indexed":false,"internalType":"uint256","name":"maxLoss","type":"uint256"}],"name":"StrategyMaxLossOnWithdrawChanged","type":"event"},{"anonymous":false,"inputs":[{"indexed":false,"internalType":"uint256","name":"amount","type":"uint256"}],"name":"StrategyWithdrawn","type":"event"},{"inputs":[],"name":"DEFAULT_ADMIN_ROLE","outputs":[{"internalType":"bytes32","name":"","type":"bytes32"}],"stateMutability":"view","type":"function"},{"inputs":[],"name":"MANAGER_ROLE","outputs":[{"internalType":"bytes32","name":"","type":"bytes32"}],"stateMutability":"view","type":"function"},{"inputs":[],"name":"SETTINGS_ROLE","outputs":[{"internalType":"bytes32","name":"","type":"bytes32"}],"stateMutability":"view","type":"function"},{"inputs":[],"name":"conversionMultiplier","outputs":[{"internalType":"uint128","name":"","type":"uint128"}],"stateMutability":"view","type":"function"},{"inputs":[{"internalType":"bytes32","name":"role","type":"bytes32"}],"name":"getRoleAdmin","outputs":[{"internalType":"bytes32","name":"","type":"bytes32"}],"stateMutability":"view","type":"function"},{"inputs":[{"internalType":"bytes32","name":"role","type":"bytes32"},{"internalType":"address","name":"account","type":"address"}],"name":"grantRole","outputs":[],"stateMutability":"nonpayable","type":"function"},{"inputs":[],"name":"hasAssets","outputs":[{"internalType":"bool","name":"","type":"bool"}],"stateMutability":"view","type":"function"},{"inputs":[{"internalType":"bytes32","name":"role","type":"bytes32"},{"internalType":"address","name":"account","type":"address"}],"name":"hasRole","outputs":[{"internalType":"bool","name":"","type":"bool"}],"stateMutability":"view","type":"function"},{"inputs":[],"name":"invest","outputs":[],"stateMutability":"nonpayable","type":"function"},{"inputs":[],"name":"investedAssets","outputs":[{"internalType":"uint256","name":"","type":"uint256"}],"stateMutability":"view","type":"function"},{"inputs":[],"name":"isSync","outputs":[{"internalType":"bool","name":"","type":"bool"}],"stateMutability":"pure","type":"function"},{"inputs":[],"name":"maxLossOnWithdraw","outputs":[{"internalType":"uint128","name":"","type":"uint128"}],"stateMutability":"view","type":"function"},{"inputs":[{"internalType":"bytes32","name":"role","type":"bytes32"},{"internalType":"address","name":"account","type":"address"}],"name":"renounceRole","outputs":[],"stateMutability":"nonpayable","type":"function"},{"inputs":[{"internalType":"bytes32","name":"role","type":"bytes32"},{"internalType":"address","name":"account","type":"address"}],"name":"revokeRole","outputs":[],"stateMutability":"nonpayable","type":"function"},{"inputs":[{"internalType":"uint128","name":"_maxLoss","type":"uint128"}],"name":"setMaxLossOnWithdraw","outputs":[],"stateMutability":"nonpayable","type":"function"},{"inputs":[{"internalType":"bytes4","name":"interfaceId","type":"bytes4"}],"name":"supportsInterface","outputs":[{"internalType":"bool","name":"","type":"bool"}],"stateMutability":"view","type":"function"},{"inputs":[{"internalType":"address","name":"_newAdmin","type":"address"}],"name":"transferAdminRights","outputs":[],"stateMutability":"nonpayable","type":"function"},{"inputs":[],"name":"underlying","outputs":[{"internalType":"contract IERC20","name":"","type":"address"}],"stateMutability":"view","type":"function"},{"inputs":[],"name":"vault","outputs":[{"internalType":"address","name":"","type":"address"}],"stateMutability":"view","type":"function"},{"inputs":[{"internalType":"uint256","name":"_amount","type":"uint256"}],"name":"withdrawToVault","outputs":[],"stateMutability":"nonpayable","type":"function"},{"inputs":[],"name":"yVault","outputs":[{"internalType":"contract IYearnVault","name":"","type":"address"}],"stateMutability":"view","type":"function"}]}