{"address":"0x62Ceb23785c001F4C6Dd5C7A0BCd139b5948bEC8","bytecode":"0x6101006040523480156200001257600080fd5b506040516200111c3803806200111c83398101604081905262000035916200038d565b6001600160a01b0381166200005d5760405163b636c31560e01b815260040160405180910390fd5b6001600160a01b03831662000085576040516301010feb60e61b815260040160405180910390fd5b6001600160a01b038216620000ad576040516396fbf73160e01b815260040160405180910390fd5b620000d76354ff06df60e01b866001600160a01b0316620001dd60201b620005031790919060201c565b620000f55760405163d7e681d160e01b815260040160405180910390fd5b6200010260008262000290565b6200012e7f241ecf16d79d0f8dbfb92cbc07fe17840425976cf0667f022fe9877caa831b088662000290565b6001600160a01b0380861660805284811660e081905284821660a05290831660c0526040805163313ce56760e01b8152905163313ce567916004808201926020929091908290030181865afa1580156200018c573d6000803e3d6000fd5b505050506040513d601f19601f82011682018060405250810190620001b291906200040d565b620001bf90600a6200054c565b60019081556002805460ff19169091179055506200055d9350505050565b60008080620001f4856301ffc9a760e01b620002a0565b909250905081158062000205575080155b1562000217576000925050506200028a565b6200022b856001600160e01b0319620002a0565b90925090508115806200023d57508015155b156200024f576000925050506200028a565b6200025b8585620002a0565b9092509050600182148015620002715750806001145b1562000283576001925050506200028a565b6000925050505b92915050565b6200029c8282620002d4565b5050565b6040516301ffc9a760e01b8082526004820183905260009182919060208160248189617530fa905190969095509350505050565b6000828152602081815260408083206001600160a01b038516845290915290205460ff166200029c576000828152602081815260408083206001600160a01b03851684529091529020805460ff19166001179055620003303390565b6001600160a01b0316816001600160a01b0316837f2f8788117e7eff1d82e926ec794901d17c78024a50270940304540a733656f0d60405160405180910390a45050565b6001600160a01b03811681146200038a57600080fd5b50565b600080600080600060a08688031215620003a657600080fd5b8551620003b38162000374565b6020870151909550620003c68162000374565b6040870151909450620003d98162000374565b6060870151909350620003ec8162000374565b6080870151909250620003ff8162000374565b809150509295509295909350565b6000602082840312156200042057600080fd5b815160ff811681146200043257600080fd5b9392505050565b634e487b7160e01b600052601160045260246000fd5b600181815b808511156200049057816000190482111562000474576200047462000439565b808516156200048257918102915b93841c939080029062000454565b509250929050565b600082620004a9575060016200028a565b81620004b8575060006200028a565b8160018114620004d15760028114620004dc57620004fc565b60019150506200028a565b60ff841115620004f057620004f062000439565b50506001821b6200028a565b5060208310610133831016604e8410600b841016171562000521575081810a6200028a565b6200052d83836200044f565b806000190482111562000544576200054462000439565b029392505050565b60006200043260ff84168362000498565b60805160a05160c05160e051610b8562000597600039600061018c0152600061014d0152600061021a015260006102d50152610b856000f3fe608060405234801561001057600080fd5b506004361061011b5760003560e01c8063781338c0116100b2578063ce8c42e811610081578063e8b5e51f11610066578063e8b5e51f1461027b578063ec87621c146102a9578063fbfa77cf146102d057600080fd5b8063ce8c42e814610283578063d547741f1461029657600080fd5b8063781338c01461021557806391d148541461023c578063a217fddf14610273578063bfd131f11461027b57600080fd5b80632f2ff15d116100ee5780632f2ff15d146101df57806336568abe146101f45780634ad0b684146102075780635be9b2d31461020e57600080fd5b806301ffc9a7146101205780631bbec15e146101485780631ce6314714610187578063248a9ca3146101ae575b600080fd5b61013361012e36600461095c565b6102f7565b60405190151581526020015b60405180910390f35b61016f7f000000000000000000000000000000000000000000000000000000000000000081565b6040516001600160a01b03909116815260200161013f565b61016f7f000000000000000000000000000000000000000000000000000000000000000081565b6101d16101bc366004610986565b60009081526020819052604090206001015490565b60405190815260200161013f565b6101f26101ed36600461099f565b610347565b005b6101f261020236600461099f565b610372565b60006101d1565b6001610133565b61016f7f000000000000000000000000000000000000000000000000000000000000000081565b61013361024a36600461099f565b6000918252602082815260408084206001600160a01b0393909316845291905290205460ff1690565b6101d1600081565b6101f2610403565b6101f2610291366004610986565b610454565b6101f26102a436600461099f565b6104dd565b6101d17f241ecf16d79d0f8dbfb92cbc07fe17840425976cf0667f022fe9877caa831b0881565b61016f7f000000000000000000000000000000000000000000000000000000000000000081565b60006001600160e01b031982167f7965db0b00000000000000000000000000000000000000000000000000000000148061034157506301ffc9a760e01b6001600160e01b03198316145b92915050565b60008281526020819052604090206001015461036381336105a5565b61036d8383610623565b505050565b6001600160a01b03811633146103f55760405162461bcd60e51b815260206004820152602f60248201527f416363657373436f6e74726f6c3a2063616e206f6e6c792072656e6f756e636560448201527f20726f6c657320666f722073656c66000000000000000000000000000000000060648201526084015b60405180910390fd5b6103ff82826106c1565b5050565b3360009081527fe84508f2c7fa9c351146748b3025cb78b45df37d868e48c6a75102fecdeee645602052604090205460ff1661045257604051634cc2cd3760e11b815260040160405180910390fd5b565b3360009081527fe84508f2c7fa9c351146748b3025cb78b45df37d868e48c6a75102fecdeee645602052604090205460ff166104a357604051634cc2cd3760e11b815260040160405180910390fd5b806104da576040517fd45ab8b600000000000000000000000000000000000000000000000000000000815260040160405180910390fd5b50565b6000828152602081905260409020600101546104f981336105a5565b61036d83836106c1565b60008080610518856301ffc9a760e01b610740565b9092509050811580610528575080155b1561053857600092505050610341565b61054a856001600160e01b0319610740565b909250905081158061055b57508015155b1561056b57600092505050610341565b6105758585610740565b909250905060018214801561058a5750806001145b1561059a57600192505050610341565b506000949350505050565b6000828152602081815260408083206001600160a01b038516845290915290205460ff166103ff576105e1816001600160a01b03166014610774565b6105ec836020610774565b6040516020016105fd929190610a0b565b60408051601f198184030181529082905262461bcd60e51b82526103ec91600401610a8c565b6000828152602081815260408083206001600160a01b038516845290915290205460ff166103ff576000828152602081815260408083206001600160a01b03851684529091529020805460ff1916600117905561067d3390565b6001600160a01b0316816001600160a01b0316837f2f8788117e7eff1d82e926ec794901d17c78024a50270940304540a733656f0d60405160405180910390a45050565b6000828152602081815260408083206001600160a01b038516845290915290205460ff16156103ff576000828152602081815260408083206001600160a01b0385168085529252808320805460ff1916905551339285917ff6391f5c32d9c69d2a47ea670b442974b53935d1edc7fd64eb21e047a839171b9190a45050565b6040516301ffc9a760e01b8082526004820183905260009182919060208160248189617530fa905190969095509350505050565b60606000610783836002610ad5565b61078e906002610af4565b67ffffffffffffffff8111156107a6576107a6610b0c565b6040519080825280601f01601f1916602001820160405280156107d0576020820181803683370190505b5090507f30000000000000000000000000000000000000000000000000000000000000008160008151811061080757610807610b22565b60200101906001600160f81b031916908160001a9053507f78000000000000000000000000000000000000000000000000000000000000008160018151811061085257610852610b22565b60200101906001600160f81b031916908160001a9053506000610876846002610ad5565b610881906001610af4565b90505b6001811115610906577f303132333435363738396162636465660000000000000000000000000000000085600f16601081106108c2576108c2610b22565b1a60f81b8282815181106108d8576108d8610b22565b60200101906001600160f81b031916908160001a90535060049490941c936108ff81610b38565b9050610884565b5083156109555760405162461bcd60e51b815260206004820181905260248201527f537472696e67733a20686578206c656e67746820696e73756666696369656e7460448201526064016103ec565b9392505050565b60006020828403121561096e57600080fd5b81356001600160e01b03198116811461095557600080fd5b60006020828403121561099857600080fd5b5035919050565b600080604083850312156109b257600080fd5b8235915060208301356001600160a01b03811681146109d057600080fd5b809150509250929050565b60005b838110156109f65781810151838201526020016109de565b83811115610a05576000848401525b50505050565b7f416363657373436f6e74726f6c3a206163636f756e7420000000000000000000815260008351610a438160178501602088016109db565b7f206973206d697373696e6720726f6c65200000000000000000000000000000006017918401918201528351610a808160288401602088016109db565b01602801949350505050565b6020815260008251806020840152610aab8160408501602087016109db565b601f01601f19169190910160400192915050565b634e487b7160e01b600052601160045260246000fd5b6000816000190483118215151615610aef57610aef610abf565b500290565b60008219821115610b0757610b07610abf565b500190565b634e487b7160e01b600052604160045260246000fd5b634e487b7160e01b600052603260045260246000fd5b600081610b4757610b47610abf565b50600019019056fea2646970667358221220144cb87f522c4be9a85e404921d3ebe0f3be413faaf3c608e2baf8b471172e4164736f6c634300080a0033","abi":[{"inputs":[{"internalType":"address","name":"_vault","type":"address"},{"internalType":"contract AggregatorV3Interface","name":"_aUstToUstFeed","type":"address"},{"internalType":"contract IERC20","name":"_ustToken","type":"address"},{"internalType":"contract IERC20","name":"_aUstToken","type":"address"},{"internalType":"address","name":"_owner","type":"address"}],"stateMutability":"nonpayable","type":"constructor"},{"inputs":[],"name":"StrategyAmountZero","type":"error"},{"inputs":[],"name":"StrategyCallerNotManager","type":"error"},{"inputs":[],"name":"StrategyInvalidAUSTRate","type":"error"},{"inputs":[],"name":"StrategyNoAUSTReturned","type":"error"},{"inputs":[],"name":"StrategyNoUST","type":"error"},{"inputs":[],"name":"StrategyNotIVault","type":"error"},{"inputs":[],"name":"StrategyNotRunning","type":"error"},{"inputs":[],"name":"StrategyNothingRedeemed","type":"error"},{"inputs":[],"name":"StrategyOwnerCannotBe0Address","type":"error"},{"inputs":[],"name":"StrategyRouterCannotBe0Address","type":"error"},{"inputs":[],"name":"StrategyUnderlyingCannotBe0Address","type":"error"},{"inputs":[],"name":"StrategyYieldTokenCannotBe0Address","type":"error"},{"inputs":[],"name":"VaultAmountDoesNotMatchParams","type":"error"},{"inputs":[],"name":"VaultAmountLocked","type":"error"},{"inputs":[],"name":"VaultAmountTooLarge","type":"error"},{"inputs":[],"name":"VaultCannotComputeSharesWithoutPrincipal","type":"error"},{"inputs":[],"name":"VaultCannotDeposit0","type":"error"},{"inputs":[],"name":"VaultCannotDepositWhenClaimerInDebt","type":"error"},{"inputs":[],"name":"VaultCannotDepositWhenYieldNegative","type":"error"},{"inputs":[],"name":"VaultCannotSponsor0","type":"error"},{"inputs":[],"name":"VaultCannotWithdrawMoreThanAvailable","type":"error"},{"inputs":[],"name":"VaultCannotWithdrawWhenYieldNegative","type":"error"},{"inputs":[],"name":"VaultClaimPercentageCannotBe0","type":"error"},{"inputs":[],"name":"VaultClaimerCannotBe0","type":"error"},{"inputs":[],"name":"VaultClaimsDontAddUp","type":"error"},{"inputs":[],"name":"VaultDepositLocked","type":"error"},{"inputs":[],"name":"VaultDestinationCannotBe0Address","type":"error"},{"inputs":[],"name":"VaultInvalidInvestpct","type":"error"},{"inputs":[],"name":"VaultInvalidLockPeriod","type":"error"},{"inputs":[],"name":"VaultInvalidLossTolerance","type":"error"},{"inputs":[],"name":"VaultInvalidMinLockPeriod","type":"error"},{"inputs":[],"name":"VaultInvalidPerformanceFee","type":"error"},{"inputs":[],"name":"VaultInvalidVault","type":"error"},{"inputs":[],"name":"VaultNoPerformanceFee","type":"error"},{"inputs":[],"name":"VaultNotAllowed","type":"error"},{"inputs":[],"name":"VaultNotDeposit","type":"error"},{"inputs":[],"name":"VaultNotEnoughFunds","type":"error"},{"inputs":[],"name":"VaultNotEnoughToRebalance","type":"error"},{"inputs":[],"name":"VaultNotOwnerOfDeposit","type":"error"},{"inputs":[],"name":"VaultNotSponsor","type":"error"},{"inputs":[],"name":"VaultNothingToDo","type":"error"},{"inputs":[],"name":"VaultOwnerCannotBe0Address","type":"error"},{"inputs":[],"name":"VaultSenderNotOwnerOfGroupId","type":"error"},{"inputs":[],"name":"VaultStrategyHasInvestedFunds","type":"error"},{"inputs":[],"name":"VaultStrategyNotSet","type":"error"},{"inputs":[],"name":"VaultTreasuryCannotBe0Address","type":"error"},{"inputs":[],"name":"VaultUnderlyingCannotBe0Address","type":"error"},{"anonymous":false,"inputs":[{"indexed":true,"internalType":"address","name":"operator","type":"address"},{"indexed":false,"internalType":"uint256","name":"ustAmount","type":"uint256"},{"indexed":false,"internalType":"uint256","name":"aUstAmount","type":"uint256"}],"name":"FinishDepositStable","type":"event"},{"anonymous":false,"inputs":[{"indexed":true,"internalType":"address","name":"operator","type":"address"},{"indexed":false,"internalType":"uint256","name":"aUstAmount","type":"uint256"},{"indexed":false,"internalType":"uint256","name":"ustAmount","type":"uint256"},{"indexed":false,"internalType":"uint256","name":"underlyingAmount","type":"uint256"}],"name":"FinishRedeemStable","type":"event"},{"anonymous":false,"inputs":[{"indexed":true,"internalType":"address","name":"operator","type":"address"},{"indexed":true,"internalType":"uint256","name":"idx","type":"uint256"},{"indexed":false,"internalType":"uint256","name":"underlyingAmount","type":"uint256"},{"indexed":false,"internalType":"uint256","name":"ustAmount","type":"uint256"}],"name":"InitDepositStable","type":"event"},{"anonymous":false,"inputs":[{"indexed":true,"internalType":"address","name":"operator","type":"address"},{"indexed":true,"internalType":"uint256","name":"idx","type":"uint256"},{"indexed":false,"internalType":"uint256","name":"aUstAmount","type":"uint256"}],"name":"InitRedeemStable","type":"event"},{"anonymous":false,"inputs":[{"indexed":true,"internalType":"address","name":"operatorFrom","type":"address"},{"indexed":true,"internalType":"address","name":"operatorTo","type":"address"},{"indexed":true,"internalType":"uint256","name":"newIdx","type":"uint256"}],"name":"RearrangeDepositOperation","type":"event"},{"anonymous":false,"inputs":[{"indexed":true,"internalType":"address","name":"operatorFrom","type":"address"},{"indexed":true,"internalType":"address","name":"operatorTo","type":"address"},{"indexed":true,"internalType":"uint256","name":"newIdx","type":"uint256"}],"name":"RearrangeRedeemOperation","type":"event"},{"anonymous":false,"inputs":[{"indexed":true,"internalType":"bytes32","name":"role","type":"bytes32"},{"indexed":true,"internalType":"bytes32","name":"previousAdminRole","type":"bytes32"},{"indexed":true,"internalType":"bytes32","name":"newAdminRole","type":"bytes32"}],"name":"RoleAdminChanged","type":"event"},{"anonymous":false,"inputs":[{"indexed":true,"internalType":"bytes32","name":"role","type":"bytes32"},{"indexed":true,"internalType":"address","name":"account","type":"address"},{"indexed":true,"internalType":"address","name":"sender","type":"address"}],"name":"RoleGranted","type":"event"},{"anonymous":false,"inputs":[{"indexed":true,"internalType":"bytes32","name":"role","type":"bytes32"},{"indexed":true,"internalType":"address","name":"account","type":"address"},{"indexed":true,"internalType":"address","name":"sender","type":"address"}],"name":"RoleRevoked","type":"event"},{"inputs":[],"name":"DEFAULT_ADMIN_ROLE","outputs":[{"internalType":"bytes32","name":"","type":"bytes32"}],"stateMutability":"view","type":"function"},{"inputs":[],"name":"MANAGER_ROLE","outputs":[{"internalType":"bytes32","name":"","type":"bytes32"}],"stateMutability":"view","type":"function"},{"inputs":[],"name":"aUstToUstFeed","outputs":[{"internalType":"contract AggregatorV3Interface","name":"","type":"address"}],"stateMutability":"view","type":"function"},{"inputs":[],"name":"aUstToken","outputs":[{"internalType":"contract IERC20","name":"","type":"address"}],"stateMutability":"view","type":"function"},{"inputs":[{"internalType":"bytes32","name":"role","type":"bytes32"}],"name":"getRoleAdmin","outputs":[{"internalType":"bytes32","name":"","type":"bytes32"}],"stateMutability":"view","type":"function"},{"inputs":[{"internalType":"bytes32","name":"role","type":"bytes32"},{"internalType":"address","name":"account","type":"address"}],"name":"grantRole","outputs":[],"stateMutability":"nonpayable","type":"function"},{"inputs":[],"name":"hasAssets","outputs":[{"internalType":"bool","name":"","type":"bool"}],"stateMutability":"view","type":"function"},{"inputs":[{"internalType":"bytes32","name":"role","type":"bytes32"},{"internalType":"address","name":"account","type":"address"}],"name":"hasRole","outputs":[{"internalType":"bool","name":"","type":"bool"}],"stateMutability":"view","type":"function"},{"inputs":[],"name":"invest","outputs":[],"stateMutability":"nonpayable","type":"function"},{"inputs":[],"name":"investedAssets","outputs":[{"internalType":"uint256","name":"","type":"uint256"}],"stateMutability":"view","type":"function"},{"inputs":[{"internalType":"bytes32","name":"role","type":"bytes32"},{"internalType":"address","name":"account","type":"address"}],"name":"renounceRole","outputs":[],"stateMutability":"nonpayable","type":"function"},{"inputs":[{"internalType":"bytes32","name":"role","type":"bytes32"},{"internalType":"address","name":"account","type":"address"}],"name":"revokeRole","outputs":[],"stateMutability":"nonpayable","type":"function"},{"inputs":[{"internalType":"bytes4","name":"interfaceId","type":"bytes4"}],"name":"supportsInterface","outputs":[{"internalType":"bool","name":"","type":"bool"}],"stateMutability":"view","type":"function"},{"inputs":[],"name":"ustToken","outputs":[{"internalType":"contract IERC20","name":"","type":"address"}],"stateMutability":"view","type":"function"},{"inputs":[],"name":"vault","outputs":[{"internalType":"address","name":"","type":"address"}],"stateMutability":"view","type":"function"},{"inputs":[],"name":"withdrawAllToVault","outputs":[],"stateMutability":"nonpayable","type":"function"},{"inputs":[{"internalType":"uint256","name":"amount","type":"uint256"}],"name":"withdrawToVault","outputs":[],"stateMutability":"nonpayable","type":"function"}]}