{"address":"0x470B125472930374AE711dE53B9D4221889Fe131","bytecode":"0x6080604052600b80546001600160401b03191662ed4e001790553480156200002657600080fd5b5060405162002d2e38038062002d2e8339810160408190526200004991620002b6565b604080518082018252601281527129b0b73231b637b1b5902237b730ba34b7b760711b602080830191825283518085019094526009845268446f6e6174696f6e7360b81b908401528151919291620000a49160029162000210565b508051620000ba90600390602084019062000210565b506000805550506001600160a01b0381166200011c5760405162461bcd60e51b815260206004820152601a60248201527f5661756c743a206f776e65722063616e6e6f7420626520307830000000000000604482015260640160405180910390fd5b620001296000826200015c565b620001557ff1b411d6abb365480ac902cc153c45e9ded5847a2265ce6d01945d253edb6bc7826200015c565b5062000325565b6200016882826200016c565b5050565b60008281526008602090815260408083206001600160a01b038516845290915290205460ff16620001685760008281526008602090815260408083206001600160a01b03851684529091529020805460ff19166001179055620001cc3390565b6001600160a01b0316816001600160a01b0316837f2f8788117e7eff1d82e926ec794901d17c78024a50270940304540a733656f0d60405160405180910390a45050565b8280546200021e90620002e8565b90600052602060002090601f0160209004810192826200024257600085556200028d565b82601f106200025d57805160ff19168380011785556200028d565b828001600101855582156200028d579182015b828111156200028d57825182559160200191906001019062000270565b506200029b9291506200029f565b5090565b5b808211156200029b5760008155600101620002a0565b600060208284031215620002c957600080fd5b81516001600160a01b0381168114620002e157600080fd5b9392505050565b600181811c90821680620002fd57607f821691505b602082108114156200031f57634e487b7160e01b600052602260045260246000fd5b50919050565b6129f980620003356000396000f3fe608060405234801561001057600080fd5b50600436106101da5760003560e01c806370a0823111610104578063a22cb465116100a2578063d824891011610071578063d824891014610477578063e253abdf1461048a578063e3684e391461049d578063e985e9c51461053257600080fd5b8063a22cb4651461042b578063b88d4fde1461043e578063c87b56dd14610451578063d547741f1461046457600080fd5b806391d14854116100de57806391d14854146103b757806395d89b41146103f057806398831192146103f8578063a217fddf1461042357600080fd5b806370a082311461037e5780637641e6f3146103915780637cdb7495146103a457600080fd5b80632408ee801161017c57806342842e0e1161014b57806342842e0e146103045780634e8b1dd514610317578063634252dc146103445780636352211e1461036b57600080fd5b80632408ee8014610298578063248a9ca3146102bb5780632f2ff15d146102de57806336568abe146102f157600080fd5b8063081812fc116101b8578063081812fc14610231578063095ea7b31461025c57806318160ddd1461026f57806323b872dd1461028557600080fd5b806301ffc9a7146101df57806306f2a6be1461020757806306fdde031461021c575b600080fd5b6101f26101ed36600461212d565b61056e565b60405190151581526020015b60405180910390f35b61021a610215366004612196565b61058e565b005b6102246106c4565b6040516101fe919061225a565b61024461023f36600461226d565b610756565b6040516001600160a01b0390911681526020016101fe565b61021a61026a36600461229b565b6107b3565b600154600054035b6040519081526020016101fe565b61021a6102933660046122c7565b6108c5565b6101f26102a636600461226d565b600c6020526000908152604090205460ff1681565b6102776102c936600461226d565b60009081526008602052604090206001015490565b61021a6102ec366004612308565b6108d5565b61021a6102ff366004612308565b6108fb565b61021a6103123660046122c7565b61098c565b600b5461032b9067ffffffffffffffff1681565b60405167ffffffffffffffff90911681526020016101fe565b6102777ff1b411d6abb365480ac902cc153c45e9ded5847a2265ce6d01945d253edb6bc781565b61024461037936600461226d565b6109a7565b61027761038c366004612338565b6109b2565b61021a61039f366004612355565b610a1a565b61021a6103b23660046123d1565b610b4a565b6101f26103c5366004612308565b60009182526008602090815260408084206001600160a01b0393909316845291905290205460ff1690565b610224610f50565b610277610406366004612434565b600d60209081526000928352604080842090915290825290205481565b610277600081565b61021a610439366004612477565b610f5f565b61021a61044c3660046124bb565b61100e565b61022461045f36600461226d565b611058565b61021a610472366004612308565b611103565b61021a61048536600461259b565b611129565b61021a6104983660046125e4565b61124f565b6104f16104ab36600461226d565b600a602052600090815260409020805460018201546002909201546001600160801b03821692600160801b90920467ffffffffffffffff16916001600160a01b03169084565b604080516001600160801b03909516855267ffffffffffffffff90931660208501526001600160a01b039091169183019190915260608201526080016101fe565b6101f261054036600461260e565b6001600160a01b03918216600090815260076020908152604080832093909416825291909152205460ff1690565b6000610579826112b2565b80610588575061058882611321565b92915050565b6000808067ffffffffffffffff421686825b818110156106b8578989828181106105ba576105ba61263c565b602090810292909201356000818152600a90935260409092208054929850965050600160801b900467ffffffffffffffff168311935083156106a857600285015460018601546001600160a01b03166000908152600d6020908152604080832089546001600160801b031684529091528120805490919061063c908490612668565b9091555061064b9050866113c2565b857f6874c596aaaff0aa80bb2fa847845de413cb824db72206cecb813fdbffcb7cc889898481811061067f5761067f61263c565b90506020028101906106919190612680565b60405161069f9291906126f0565b60405180910390a25b6106b181612704565b90506105a0565b50505050505050505050565b6060600280546106d39061271f565b80601f01602080910402602001604051908101604052809291908181526020018280546106ff9061271f565b801561074c5780601f106107215761010080835404028352916020019161074c565b820191906000526020600020905b81548152906001019060200180831161072f57829003601f168201915b5050505050905090565b6000610761826113d0565b610797576040517fcf4700e400000000000000000000000000000000000000000000000000000000815260040160405180910390fd5b506000908152600660205260409020546001600160a01b031690565b60006107be826113f7565b9050806001600160a01b0316836001600160a01b0316141561080c576040517f943f7b8c00000000000000000000000000000000000000000000000000000000815260040160405180910390fd5b336001600160a01b0382161461085c576108268133610540565b61085c576040517fcfb3b94200000000000000000000000000000000000000000000000000000000815260040160405180910390fd5b600082815260066020526040808220805473ffffffffffffffffffffffffffffffffffffffff19166001600160a01b0387811691821790925591518593918516917f8c5be1e5ebec7d5bd14f71427d1e84f3dd0314c0f7b2291e5b200ac8c7c3b92591a4505050565b6108d0838383611471565b505050565b6000828152600860205260409020600101546108f18133611652565b6108d083836116d2565b6001600160a01b038116331461097e5760405162461bcd60e51b815260206004820152602f60248201527f416363657373436f6e74726f6c3a2063616e206f6e6c792072656e6f756e636560448201527f20726f6c657320666f722073656c66000000000000000000000000000000000060648201526084015b60405180910390fd5b6109888282611774565b5050565b6108d08383836040518060200160405280600081525061100e565b6000610588826113f7565b60006001600160a01b0382166109f4576040517f8f4eb60400000000000000000000000000000000000000000000000000000000815260040160405180910390fd5b506001600160a01b031660009081526005602052604090205467ffffffffffffffff1690565b600033610a26856109a7565b6000868152600a6020526040902080546001600160a01b039290921692909214925067ffffffffffffffff428116600160801b90920416108280610a675750805b610ab35760405162461bcd60e51b815260206004820152601660248201527f446f6e6174696f6e733a206e6f7420616c6c6f776564000000000000000000006044820152606401610975565b600282015460018301546001600160a01b03166000908152600d6020908152604080832086546001600160801b0316845290915281208054909190610af9908490612668565b90915550610b089050866113c2565b857f6874c596aaaff0aa80bb2fa847845de413cb824db72206cecb813fdbffcb7cc88686604051610b3a9291906126f0565b60405180910390a2505050505050565b7ff1b411d6abb365480ac902cc153c45e9ded5847a2265ce6d01945d253edb6bc7610b758133611652565b604080516020808201889052818301879052825180830384018152606090920183528151918101919091206000818152600c9092529190205460ff1615610bfe5760405162461bcd60e51b815260206004820152601c60248201527f446f6e6174696f6e733a20616c72656164792070726f636573736564000000006044820152606401610975565b600b54600090610c189067ffffffffffffffff164261275a565b600954909150849060005b82811015610f2a576040518060800160405280898984818110610c4857610c4861263c565b9050602002810190610c5a9190612786565b610c689060208101906127a6565b6001600160801b031681526020018567ffffffffffffffff168152602001898984818110610c9857610c9861263c565b9050602002810190610caa9190612786565b610cbb906060810190604001612338565b6001600160a01b03168152602001898984818110610cdb57610cdb61263c565b9050602002810190610ced9190612786565b6060908101359091526000848152600a6020908152604091829020845181549286015167ffffffffffffffff16600160801b027fffffffffffffffff0000000000000000000000000000000000000000000000009093166001600160801b0390911617919091178155908301516001820180546001600160a01b0390921673ffffffffffffffffffffffffffffffffffffffff19909216919091179055910151600290910155610dd2888883818110610da857610da861263c565b9050602002810190610dba9190612786565b610dcb906040810190602001612338565b60016117f7565b84888883818110610de557610de561263c565b9050602002810190610df79190612786565b610e059060208101906127a6565b6001600160801b0316837fdacba2fa7b75fcde690c6d8dae704d859ebc3b89dae3cf49357d6a12a9e0193d8b8b86818110610e4257610e4261263c565b9050602002810190610e549190612786565b610e65906060810190604001612338565b888d8d88818110610e7857610e7861263c565b9050602002810190610e8a9190612786565b606001358e8e89818110610ea057610ea061263c565b9050602002810190610eb29190612786565b610ec3906040810190602001612338565b8f8f8a818110610ed557610ed561263c565b9050602002810190610ee79190612786565b610ef5906080810190612680565b604051610f07969594939291906127c1565b60405180910390a4610f1882612704565b9150610f2381612704565b9050610c23565b5060095550506000908152600c60205260409020805460ff191660011790555050505050565b6060600380546106d39061271f565b6001600160a01b038216331415610fa2576040517fb06307db00000000000000000000000000000000000000000000000000000000815260040160405180910390fd5b3360008181526007602090815260408083206001600160a01b03871680855290835292819020805460ff191686151590811790915590519081529192917f17307eab39ab6107e8899845ad3d59bd9653f200f220920489ca2b5937696c31910160405180910390a35050565b611019848484611471565b6001600160a01b0383163b156110525761103584848484611908565b611052576040516368d2bf6b60e11b815260040160405180910390fd5b50505050565b6060611063826113d0565b611099576040517fa14c4b5000000000000000000000000000000000000000000000000000000000815260040160405180910390fd5b60006110b060408051602081019091526000815290565b90508051600014156110d157604051806020016040528060008152506110fc565b806110db846119f0565b6040516020016110ec929190612810565b6040516020818303038152906040525b9392505050565b60008281526008602052604090206001015461111f8133611652565b6108d08383611774565b7ff1b411d6abb365480ac902cc153c45e9ded5847a2265ce6d01945d253edb6bc76111548133611652565b6001600160a01b0383166000908152600d602090815260408083206001600160801b0388168452909152902054806111ce5760405162461bcd60e51b815260206004820152601c60248201527f446f6e6174696f6e733a206e6f7468696e6720746f20646f6e617465000000006044820152606401610975565b6001600160a01b038481166000818152600d602090815260408083206001600160801b038b168085529083528184209390935551858152938716937f27c209b93a7fe87531993c3ce2ab9e352e1e022adb1088729759d043daa08757910160405180910390a46112486001600160a01b0385168483611a3f565b5050505050565b600061125b8133611652565b600b805467ffffffffffffffff191667ffffffffffffffff84169081179091556040519081527f54578ea9dcb2f1fc35e2b4ff6947b808dfa81adf38483eaec4cde6d083cbcf519060200160405180910390a15050565b60006112d560405180606001604052806028815260200161297660289139611abf565b6001600160e01b031982167f7965db0b00000000000000000000000000000000000000000000000000000000148061058857506301ffc9a760e01b6001600160e01b0319831614610588565b600061134460405180606001604052806026815260200161299e60269139611abf565b6301ffc9a760e01b6001600160e01b03198316148061138c57507f80ac58cd000000000000000000000000000000000000000000000000000000006001600160e01b03198316145b806105885750506001600160e01b0319167f5b5e139f000000000000000000000000000000000000000000000000000000001490565b6113cd816000611b30565b50565b6000805482108015610588575050600090815260046020526040902054600160e01b161590565b60008160005481101561143f57600081815260046020526040902054600160e01b811661143d575b806110fc57506000190160008181526004602052604090205461141f565b505b6040517fdf2d9b4200000000000000000000000000000000000000000000000000000000815260040160405180910390fd5b600061147c826113f7565b9050836001600160a01b0316816001600160a01b0316146114c9576040517fa114810000000000000000000000000000000000000000000000000000000000815260040160405180910390fd5b6000336001600160a01b03861614806114e757506114e78533610540565b806115025750336114f784610756565b6001600160a01b0316145b90508061152257604051632ce44b5f60e11b815260040160405180910390fd5b6001600160a01b038416611562576040517fea553b3400000000000000000000000000000000000000000000000000000000815260040160405180910390fd5b6000838152600660209081526040808320805473ffffffffffffffffffffffffffffffffffffffff191690556001600160a01b038881168452600583528184208054600019019055871683528083208054600101905585835260049091529020600160e11b4260a01b86178117909155821661160c576001830160008181526004602052604090205461160a57600054811461160a5760008181526004602052604090208390555b505b82846001600160a01b0316866001600160a01b03167fddf252ad1be2c89b69c2b068fc378daa952ba7f163c4a11628f55a4df523b3ef60405160405180910390a4611248565b60008281526008602090815260408083206001600160a01b038516845290915290205460ff1661098857611690816001600160a01b03166014611ca1565b61169b836020611ca1565b6040516020016116ac929190612836565b60408051601f198184030181529082905262461bcd60e51b82526109759160040161225a565b60008281526008602090815260408083206001600160a01b038516845290915290205460ff166109885760008281526008602090815260408083206001600160a01b03851684529091529020805460ff191660011790556117303390565b6001600160a01b0316816001600160a01b0316837f2f8788117e7eff1d82e926ec794901d17c78024a50270940304540a733656f0d60405160405180910390a45050565b60008281526008602090815260408083206001600160a01b038516845290915290205460ff16156109885760008281526008602090815260408083206001600160a01b0385168085529252808320805460ff1916905551339285917ff6391f5c32d9c69d2a47ea670b442974b53935d1edc7fd64eb21e047a839171b9190a45050565b6000546001600160a01b03831661183a576040517f2e07630000000000000000000000000000000000000000000000000000000000815260040160405180910390fd5b81611871576040517fb562e8dd00000000000000000000000000000000000000000000000000000000815260040160405180910390fd5b6001600160a01b03831660009081526005602090815260408083208054680100000000000000018702019055838352600490915290204260a01b84176001841460e11b179055808083015b6040516001830192906001600160a01b038716906000907fddf252ad1be2c89b69c2b068fc378daa952ba7f163c4a11628f55a4df523b3ef908290a48082106118bc5750600055505050565b604051630a85bd0160e11b81526000906001600160a01b0385169063150b7a029061193d9033908990889088906004016128b7565b6020604051808303816000875af1925050508015611978575060408051601f3d908101601f19168201909252611975918101906128f3565b60015b6119d3573d8080156119a6576040519150601f19603f3d011682016040523d82523d6000602084013e6119ab565b606091505b5080516119cb576040516368d2bf6b60e11b815260040160405180910390fd5b805181602001fd5b6001600160e01b031916630a85bd0160e11b149050949350505050565b604080516080810191829052607f0190826030600a8206018353600a90045b8015611a2d57600183039250600a81066030018353600a9004611a0f565b50819003601f19909101908152919050565b604080516001600160a01b038416602482015260448082018490528251808303909101815260649091019091526020810180517bffffffffffffffffffffffffffffffffffffffffffffffffffffffff167fa9059cbb000000000000000000000000000000000000000000000000000000001790526108d0908490611e82565b6113cd81604051602401611ad3919061225a565b60408051601f198184030181529190526020810180517bffffffffffffffffffffffffffffffffffffffffffffffffffffffff167f41304fac00000000000000000000000000000000000000000000000000000000179052611f67565b6000611b3b836113f7565b9050808215611b9f576000336001600160a01b0383161480611b625750611b628233610540565b80611b7d575033611b7286610756565b6001600160a01b0316145b905080611b9d57604051632ce44b5f60e11b815260040160405180910390fd5b505b6000848152600660209081526040808320805473ffffffffffffffffffffffffffffffffffffffff191690556001600160a01b03841683526005825280832080546001600160801b03019055868352600490915290207c03000000000000000000000000000000000000000000000000000000004260a01b8317179055600160e11b8216611c5b5760018401600081815260046020526040902054611c59576000548114611c595760008181526004602052604090208390555b505b60405184906000906001600160a01b038416907fddf252ad1be2c89b69c2b068fc378daa952ba7f163c4a11628f55a4df523b3ef908390a4505060018054810190555050565b60606000611cb0836002612910565b611cbb906002612668565b67ffffffffffffffff811115611cd357611cd36124a5565b6040519080825280601f01601f191660200182016040528015611cfd576020820181803683370190505b5090507f300000000000000000000000000000000000000000000000000000000000000081600081518110611d3457611d3461263c565b60200101906001600160f81b031916908160001a9053507f780000000000000000000000000000000000000000000000000000000000000081600181518110611d7f57611d7f61263c565b60200101906001600160f81b031916908160001a9053506000611da3846002612910565b611dae906001612668565b90505b6001811115611e33577f303132333435363738396162636465660000000000000000000000000000000085600f1660108110611def57611def61263c565b1a60f81b828281518110611e0557611e0561263c565b60200101906001600160f81b031916908160001a90535060049490941c93611e2c8161292f565b9050611db1565b5083156110fc5760405162461bcd60e51b815260206004820181905260248201527f537472696e67733a20686578206c656e67746820696e73756666696369656e746044820152606401610975565b6000611ed7826040518060400160405280602081526020017f5361666545524332303a206c6f772d6c6576656c2063616c6c206661696c6564815250856001600160a01b0316611f889092919063ffffffff16565b8051909150156108d05780806020019051810190611ef59190612946565b6108d05760405162461bcd60e51b815260206004820152602a60248201527f5361666545524332303a204552433230206f7065726174696f6e20646964206e60448201527f6f742073756363656564000000000000000000000000000000000000000000006064820152608401610975565b80516a636f6e736f6c652e6c6f67602083016000808483855afa5050505050565b6060611f978484600085611f9f565b949350505050565b6060824710156120175760405162461bcd60e51b815260206004820152602660248201527f416464726573733a20696e73756666696369656e742062616c616e636520666f60448201527f722063616c6c00000000000000000000000000000000000000000000000000006064820152608401610975565b843b6120655760405162461bcd60e51b815260206004820152601d60248201527f416464726573733a2063616c6c20746f206e6f6e2d636f6e74726163740000006044820152606401610975565b600080866001600160a01b031685876040516120819190612963565b60006040518083038185875af1925050503d80600081146120be576040519150601f19603f3d011682016040523d82523d6000602084013e6120c3565b606091505b50915091506120d38282866120de565b979650505050505050565b606083156120ed5750816110fc565b8251156120fd5782518084602001fd5b8160405162461bcd60e51b8152600401610975919061225a565b6001600160e01b0319811681146113cd57600080fd5b60006020828403121561213f57600080fd5b81356110fc81612117565b60008083601f84011261215c57600080fd5b50813567ffffffffffffffff81111561217457600080fd5b6020830191508360208260051b850101111561218f57600080fd5b9250929050565b600080600080604085870312156121ac57600080fd5b843567ffffffffffffffff808211156121c457600080fd5b6121d08883890161214a565b909650945060208701359150808211156121e957600080fd5b506121f68782880161214a565b95989497509550505050565b60005b8381101561221d578181015183820152602001612205565b838111156110525750506000910152565b60008151808452612246816020860160208601612202565b601f01601f19169290920160200192915050565b6020815260006110fc602083018461222e565b60006020828403121561227f57600080fd5b5035919050565b6001600160a01b03811681146113cd57600080fd5b600080604083850312156122ae57600080fd5b82356122b981612286565b946020939093013593505050565b6000806000606084860312156122dc57600080fd5b83356122e781612286565b925060208401356122f781612286565b929592945050506040919091013590565b6000806040838503121561231b57600080fd5b82359150602083013561232d81612286565b809150509250929050565b60006020828403121561234a57600080fd5b81356110fc81612286565b60008060006040848603121561236a57600080fd5b83359250602084013567ffffffffffffffff8082111561238957600080fd5b818601915086601f83011261239d57600080fd5b8135818111156123ac57600080fd5b8760208285010111156123be57600080fd5b6020830194508093505050509250925092565b600080600080606085870312156123e757600080fd5b8435935060208501359250604085013567ffffffffffffffff81111561240c57600080fd5b6121f68782880161214a565b80356001600160801b038116811461242f57600080fd5b919050565b6000806040838503121561244757600080fd5b823561245281612286565b915061246060208401612418565b90509250929050565b80151581146113cd57600080fd5b6000806040838503121561248a57600080fd5b823561249581612286565b9150602083013561232d81612469565b634e487b7160e01b600052604160045260246000fd5b600080600080608085870312156124d157600080fd5b84356124dc81612286565b935060208501356124ec81612286565b925060408501359150606085013567ffffffffffffffff8082111561251057600080fd5b818701915087601f83011261252457600080fd5b813581811115612536576125366124a5565b604051601f8201601f19908116603f0116810190838211818310171561255e5761255e6124a5565b816040528281528a602084870101111561257757600080fd5b82602086016020830137600060208483010152809550505050505092959194509250565b6000806000606084860312156125b057600080fd5b6125b984612418565b925060208401356125c981612286565b915060408401356125d981612286565b809150509250925092565b6000602082840312156125f657600080fd5b813567ffffffffffffffff811681146110fc57600080fd5b6000806040838503121561262157600080fd5b823561262c81612286565b9150602083013561232d81612286565b634e487b7160e01b600052603260045260246000fd5b634e487b7160e01b600052601160045260246000fd5b6000821982111561267b5761267b612652565b500190565b6000808335601e1984360301811261269757600080fd5b83018035915067ffffffffffffffff8211156126b257600080fd5b60200191503681900382131561218f57600080fd5b81835281816020850137506000828201602090810191909152601f909101601f19169091010190565b602081526000611f976020830184866126c7565b600060001982141561271857612718612652565b5060010190565b600181811c9082168061273357607f821691505b6020821081141561275457634e487b7160e01b600052602260045260246000fd5b50919050565b600067ffffffffffffffff80831681851680830382111561277d5761277d612652565b01949350505050565b60008235609e1983360301811261279c57600080fd5b9190910192915050565b6000602082840312156127b857600080fd5b6110fc82612418565b60006001600160a01b03808916835267ffffffffffffffff8816602084015286604084015280861660608401525060a0608083015261280460a0830184866126c7565b98975050505050505050565b60008351612822818460208801612202565b83519083019061277d818360208801612202565b7f416363657373436f6e74726f6c3a206163636f756e742000000000000000000081526000835161286e816017850160208801612202565b7f206973206d697373696e6720726f6c652000000000000000000000000000000060179184019182015283516128ab816028840160208801612202565b01602801949350505050565b60006001600160a01b038087168352808616602084015250836040830152608060608301526128e9608083018461222e565b9695505050505050565b60006020828403121561290557600080fd5b81516110fc81612117565b600081600019048311821515161561292a5761292a612652565b500290565b60008161293e5761293e612652565b506000190190565b60006020828403121561295857600080fd5b81516110fc81612469565b6000825161279c81846020870161220256fe616363657373636f6e74726f6c20737570706f727473696e746572666163652066756e6374696f6e455243373231412e736f6c20737570706f727473496e746572666163652066756e6374696f6ea264697066735822122010d4f02d47c73a0d9308720994cc6d7886ba3f6678834a6e3be04636496b962664736f6c634300080a0033","abi":[{"inputs":[{"internalType":"address","name":"_owner","type":"address"}],"stateMutability":"nonpayable","type":"constructor"},{"inputs":[],"name":"ApprovalCallerNotOwnerNorApproved","type":"error"},{"inputs":[],"name":"ApprovalQueryForNonexistentToken","type":"error"},{"inputs":[],"name":"ApprovalToCurrentOwner","type":"error"},{"inputs":[],"name":"ApproveToCaller","type":"error"},{"inputs":[],"name":"BalanceQueryForZeroAddress","type":"error"},{"inputs":[],"name":"MintToZeroAddress","type":"error"},{"inputs":[],"name":"MintZeroQuantity","type":"error"},{"inputs":[],"name":"OwnerQueryForNonexistentToken","type":"error"},{"inputs":[],"name":"TransferCallerNotOwnerNorApproved","type":"error"},{"inputs":[],"name":"TransferFromIncorrectOwner","type":"error"},{"inputs":[],"name":"TransferToNonERC721ReceiverImplementer","type":"error"},{"inputs":[],"name":"TransferToZeroAddress","type":"error"},{"inputs":[],"name":"URIQueryForNonexistentToken","type":"error"},{"anonymous":false,"inputs":[{"indexed":true,"internalType":"address","name":"owner","type":"address"},{"indexed":true,"internalType":"address","name":"approved","type":"address"},{"indexed":true,"internalType":"uint256","name":"tokenId","type":"uint256"}],"name":"Approval","type":"event"},{"anonymous":false,"inputs":[{"indexed":true,"internalType":"address","name":"owner","type":"address"},{"indexed":true,"internalType":"address","name":"operator","type":"address"},{"indexed":false,"internalType":"bool","name":"approved","type":"bool"}],"name":"ApprovalForAll","type":"event"},{"anonymous":false,"inputs":[{"indexed":true,"internalType":"uint256","name":"id","type":"uint256"},{"indexed":false,"internalType":"string","name":"donationId","type":"string"}],"name":"DonationBurned","type":"event"},{"anonymous":false,"inputs":[{"indexed":true,"internalType":"uint256","name":"id","type":"uint256"},{"indexed":true,"internalType":"uint128","name":"destinationId","type":"uint128"},{"indexed":true,"internalType":"bytes32","name":"groupId","type":"bytes32"},{"indexed":false,"internalType":"contract IERC20","name":"token","type":"address"},{"indexed":false,"internalType":"uint256","name":"expiry","type":"uint256"},{"indexed":false,"internalType":"uint256","name":"amount","type":"uint256"},{"indexed":false,"internalType":"address","name":"owner","type":"address"},{"indexed":false,"internalType":"string","name":"donationId","type":"string"}],"name":"DonationMinted","type":"event"},{"anonymous":false,"inputs":[{"indexed":true,"internalType":"uint128","name":"destinationId","type":"uint128"},{"indexed":true,"internalType":"contract IERC20","name":"token","type":"address"},{"indexed":true,"internalType":"address","name":"to","type":"address"},{"indexed":false,"internalType":"uint256","name":"amount","type":"uint256"}],"name":"DonationsSent","type":"event"},{"anonymous":false,"inputs":[{"indexed":true,"internalType":"bytes32","name":"role","type":"bytes32"},{"indexed":true,"internalType":"bytes32","name":"previousAdminRole","type":"bytes32"},{"indexed":true,"internalType":"bytes32","name":"newAdminRole","type":"bytes32"}],"name":"RoleAdminChanged","type":"event"},{"anonymous":false,"inputs":[{"indexed":true,"internalType":"bytes32","name":"role","type":"bytes32"},{"indexed":true,"internalType":"address","name":"account","type":"address"},{"indexed":true,"internalType":"address","name":"sender","type":"address"}],"name":"RoleGranted","type":"event"},{"anonymous":false,"inputs":[{"indexed":true,"internalType":"bytes32","name":"role","type":"bytes32"},{"indexed":true,"internalType":"address","name":"account","type":"address"},{"indexed":true,"internalType":"address","name":"sender","type":"address"}],"name":"RoleRevoked","type":"event"},{"anonymous":false,"inputs":[{"indexed":false,"internalType":"uint64","name":"ttl","type":"uint64"}],"name":"TTLUpdated","type":"event"},{"anonymous":false,"inputs":[{"indexed":true,"internalType":"address","name":"from","type":"address"},{"indexed":true,"internalType":"address","name":"to","type":"address"},{"indexed":true,"internalType":"uint256","name":"tokenId","type":"uint256"}],"name":"Transfer","type":"event"},{"inputs":[],"name":"DEFAULT_ADMIN_ROLE","outputs":[{"internalType":"bytes32","name":"","type":"bytes32"}],"stateMutability":"view","type":"function"},{"inputs":[],"name":"WORKER_ROLE","outputs":[{"internalType":"bytes32","name":"","type":"bytes32"}],"stateMutability":"view","type":"function"},{"inputs":[{"internalType":"address","name":"to","type":"address"},{"internalType":"uint256","name":"tokenId","type":"uint256"}],"name":"approve","outputs":[],"stateMutability":"nonpayable","type":"function"},{"inputs":[{"internalType":"address","name":"owner","type":"address"}],"name":"balanceOf","outputs":[{"internalType":"uint256","name":"","type":"uint256"}],"stateMutability":"view","type":"function"},{"inputs":[{"internalType":"uint256","name":"_id","type":"uint256"},{"internalType":"string","name":"donationId","type":"string"}],"name":"burn","outputs":[],"stateMutability":"nonpayable","type":"function"},{"inputs":[{"internalType":"uint256[]","name":"_ids","type":"uint256[]"},{"internalType":"string[]","name":"donationIds","type":"string[]"}],"name":"burnBatch","outputs":[],"stateMutability":"nonpayable","type":"function"},{"inputs":[{"internalType":"uint128","name":"_destinationId","type":"uint128"},{"internalType":"contract IERC20","name":"_token","type":"address"},{"internalType":"address","name":"_to","type":"address"}],"name":"donate","outputs":[],"stateMutability":"nonpayable","type":"function"},{"inputs":[{"internalType":"uint256","name":"tokenId","type":"uint256"}],"name":"getApproved","outputs":[{"internalType":"address","name":"","type":"address"}],"stateMutability":"view","type":"function"},{"inputs":[{"internalType":"bytes32","name":"role","type":"bytes32"}],"name":"getRoleAdmin","outputs":[{"internalType":"bytes32","name":"","type":"bytes32"}],"stateMutability":"view","type":"function"},{"inputs":[{"internalType":"bytes32","name":"role","type":"bytes32"},{"internalType":"address","name":"account","type":"address"}],"name":"grantRole","outputs":[],"stateMutability":"nonpayable","type":"function"},{"inputs":[{"internalType":"bytes32","name":"role","type":"bytes32"},{"internalType":"address","name":"account","type":"address"}],"name":"hasRole","outputs":[{"internalType":"bool","name":"","type":"bool"}],"stateMutability":"view","type":"function"},{"inputs":[{"internalType":"address","name":"owner","type":"address"},{"internalType":"address","name":"operator","type":"address"}],"name":"isApprovedForAll","outputs":[{"internalType":"bool","name":"","type":"bool"}],"stateMutability":"view","type":"function"},{"inputs":[{"internalType":"uint256","name":"","type":"uint256"}],"name":"metadata","outputs":[{"internalType":"uint128","name":"destinationId","type":"uint128"},{"internalType":"uint64","name":"expiry","type":"uint64"},{"internalType":"contract IERC20","name":"token","type":"address"},{"internalType":"uint256","name":"amount","type":"uint256"}],"stateMutability":"view","type":"function"},{"inputs":[{"internalType":"bytes32","name":"_txHash","type":"bytes32"},{"internalType":"uint256","name":"_batchNr","type":"uint256"},{"components":[{"internalType":"uint128","name":"destinationId","type":"uint128"},{"internalType":"address","name":"owner","type":"address"},{"internalType":"contract IERC20","name":"token","type":"address"},{"internalType":"uint256","name":"amount","type":"uint256"},{"internalType":"string","name":"donationId","type":"string"}],"internalType":"struct Donations.DonationParams[]","name":"_params","type":"tuple[]"}],"name":"mint","outputs":[],"stateMutability":"nonpayable","type":"function"},{"inputs":[],"name":"name","outputs":[{"internalType":"string","name":"","type":"string"}],"stateMutability":"view","type":"function"},{"inputs":[{"internalType":"uint256","name":"tokenId","type":"uint256"}],"name":"ownerOf","outputs":[{"internalType":"address","name":"","type":"address"}],"stateMutability":"view","type":"function"},{"inputs":[{"internalType":"bytes32","name":"","type":"bytes32"}],"name":"processedDonationsGroups","outputs":[{"internalType":"bool","name":"","type":"bool"}],"stateMutability":"view","type":"function"},{"inputs":[{"internalType":"bytes32","name":"role","type":"bytes32"},{"internalType":"address","name":"account","type":"address"}],"name":"renounceRole","outputs":[],"stateMutability":"nonpayable","type":"function"},{"inputs":[{"internalType":"bytes32","name":"role","type":"bytes32"},{"internalType":"address","name":"account","type":"address"}],"name":"revokeRole","outputs":[],"stateMutability":"nonpayable","type":"function"},{"inputs":[{"internalType":"address","name":"from","type":"address"},{"internalType":"address","name":"to","type":"address"},{"internalType":"uint256","name":"tokenId","type":"uint256"}],"name":"safeTransferFrom","outputs":[],"stateMutability":"nonpayable","type":"function"},{"inputs":[{"internalType":"address","name":"from","type":"address"},{"internalType":"address","name":"to","type":"address"},{"internalType":"uint256","name":"tokenId","type":"uint256"},{"internalType":"bytes","name":"_data","type":"bytes"}],"name":"safeTransferFrom","outputs":[],"stateMutability":"nonpayable","type":"function"},{"inputs":[{"internalType":"address","name":"operator","type":"address"},{"internalType":"bool","name":"approved","type":"bool"}],"name":"setApprovalForAll","outputs":[],"stateMutability":"nonpayable","type":"function"},{"inputs":[{"internalType":"uint64","name":"_ttl","type":"uint64"}],"name":"setTTL","outputs":[],"stateMutability":"nonpayable","type":"function"},{"inputs":[{"internalType":"bytes4","name":"interfaceId","type":"bytes4"}],"name":"supportsInterface","outputs":[{"internalType":"bool","name":"","type":"bool"}],"stateMutability":"view","type":"function"},{"inputs":[],"name":"symbol","outputs":[{"internalType":"string","name":"","type":"string"}],"stateMutability":"view","type":"function"},{"inputs":[{"internalType":"uint256","name":"tokenId","type":"uint256"}],"name":"tokenURI","outputs":[{"internalType":"string","name":"","type":"string"}],"stateMutability":"view","type":"function"},{"inputs":[],"name":"totalSupply","outputs":[{"internalType":"uint256","name":"","type":"uint256"}],"stateMutability":"view","type":"function"},{"inputs":[{"internalType":"address","name":"from","type":"address"},{"internalType":"address","name":"to","type":"address"},{"internalType":"uint256","name":"tokenId","type":"uint256"}],"name":"transferFrom","outputs":[],"stateMutability":"nonpayable","type":"function"},{"inputs":[{"internalType":"contract IERC20","name":"","type":"address"},{"internalType":"uint128","name":"","type":"uint128"}],"name":"transferableAmounts","outputs":[{"internalType":"uint256","name":"","type":"uint256"}],"stateMutability":"view","type":"function"},{"inputs":[],"name":"ttl","outputs":[{"internalType":"uint64","name":"","type":"uint64"}],"stateMutability":"view","type":"function"}]}