{"address":"0x470B125472930374AE711dE53B9D4221889Fe131","bytecode":"0x6080604052600980546001600160401b03191662ed4e001790553480156200002657600080fd5b5060405162002d6538038062002d658339810160408190526200004991620002b2565b604080518082018252601281527129b0b73231b637b1b5902237b730ba34b7b760711b602080830191825283518085019094526009845268446f6e6174696f6e7360b81b908401528151919291620000a4916000916200020c565b508051620000ba9060019060208401906200020c565b5050506001600160a01b038116620001185760405162461bcd60e51b815260206004820152601a60248201527f5661756c743a206f776e65722063616e6e6f7420626520307830000000000000604482015260640160405180910390fd5b6200012560008262000158565b620001517ff1b411d6abb365480ac902cc153c45e9ded5847a2265ce6d01945d253edb6bc78262000158565b5062000321565b62000164828262000168565b5050565b60008281526006602090815260408083206001600160a01b038516845290915290205460ff16620001645760008281526006602090815260408083206001600160a01b03851684529091529020805460ff19166001179055620001c83390565b6001600160a01b0316816001600160a01b0316837f2f8788117e7eff1d82e926ec794901d17c78024a50270940304540a733656f0d60405160405180910390a45050565b8280546200021a90620002e4565b90600052602060002090601f0160209004810192826200023e576000855562000289565b82601f106200025957805160ff191683800117855562000289565b8280016001018555821562000289579182015b82811115620002895782518255916020019190600101906200026c565b50620002979291506200029b565b5090565b5b808211156200029757600081556001016200029c565b600060208284031215620002c557600080fd5b81516001600160a01b0381168114620002dd57600080fd5b9392505050565b600181811c90821680620002f957607f821691505b602082108114156200031b57634e487b7160e01b600052602260045260246000fd5b50919050565b612a3480620003316000396000f3fe608060405234801561001057600080fd5b50600436106101cf5760003560e01c806370a0823111610104578063c87b56dd116100a2578063e253abdf11610071578063e253abdf14610464578063e3684e3914610477578063e4623c1b1461050c578063e985e9c51461051f57600080fd5b8063c87b56dd14610418578063d547741f1461042b578063d69fc0f71461043e578063d82489101461045157600080fd5b806398831192116100de57806398831192146103bf578063a217fddf146103ea578063a22cb465146103f2578063b88d4fde1461040557600080fd5b806370a082311461036b57806391d148541461037e57806395d89b41146103b757600080fd5b80632f2ff15d1161017157806342966c681161014b57806342966c68146102f15780634e8b1dd514610304578063634252dc146103315780636352211e1461035857600080fd5b80632f2ff15d146102b857806336568abe146102cb57806342842e0e146102de57600080fd5b8063095ea7b3116101ad578063095ea7b31461023c57806323b872dd146102515780632408ee8014610264578063248a9ca31461028757600080fd5b806301ffc9a7146101d457806306fdde03146101fc578063081812fc14610211575b600080fd5b6101e76101e23660046122cd565b61055b565b60405190151581526020015b60405180910390f35b61020461056c565b6040516101f39190612342565b61022461021f366004612355565b6105fe565b6040516001600160a01b0390911681526020016101f3565b61024f61024a366004612383565b610698565b005b61024f61025f3660046123af565b6107ca565b6101e7610272366004612355565b600a6020526000908152604090205460ff1681565b6102aa610295366004612355565b60009081526006602052604090206001015490565b6040519081526020016101f3565b61024f6102c63660046123f0565b610851565b61024f6102d93660046123f0565b610877565b61024f6102ec3660046123af565b610903565b61024f6102ff366004612355565b61091e565b6009546103189067ffffffffffffffff1681565b60405167ffffffffffffffff90911681526020016101f3565b6102aa7ff1b411d6abb365480ac902cc153c45e9ded5847a2265ce6d01945d253edb6bc781565b610224610366366004612355565b610a3d565b6102aa610379366004612420565b610ac8565b6101e761038c3660046123f0565b60009182526006602090815260408084206001600160a01b0393909316845291905290205460ff1690565b610204610b62565b6102aa6103cd366004612459565b600b60209081526000928352604080842090915290825290205481565b6102aa600081565b61024f61040036600461249c565b610b71565b61024f6104133660046124e0565b610b7c565b610204610426366004612355565b610c0a565b61024f6104393660046123f0565b610d00565b61024f61044c3660046125c0565b610d26565b61024f61045f366004612643565b6110bc565b61024f61047236600461268c565b6111e2565b6104cb610485366004612355565b6008602052600090815260409020805460018201546002909201546001600160801b03821692600160801b90920467ffffffffffffffff16916001600160a01b03169084565b604080516001600160801b03909516855267ffffffffffffffff90931660208501526001600160a01b039091169183019190915260608201526080016101f3565b61024f61051a3660046126b6565b611245565b6101e761052d36600461272b565b6001600160a01b03918216600090815260056020908152604080832093909416825291909152205460ff1690565b600061056682611348565b92915050565b60606000805461057b90612759565b80601f01602080910402602001604051908101604052809291908181526020018280546105a790612759565b80156105f45780601f106105c9576101008083540402835291602001916105f4565b820191906000526020600020905b8154815290600101906020018083116105d757829003601f168201915b5050505050905090565b6000818152600260205260408120546001600160a01b031661067c5760405162461bcd60e51b815260206004820152602c60248201527f4552433732313a20617070726f76656420717565727920666f72206e6f6e657860448201526b34b9ba32b73a103a37b5b2b760a11b60648201526084015b60405180910390fd5b506000908152600460205260409020546001600160a01b031690565b60006106a382610a3d565b9050806001600160a01b0316836001600160a01b0316141561072d5760405162461bcd60e51b815260206004820152602160248201527f4552433732313a20617070726f76616c20746f2063757272656e74206f776e6560448201527f72000000000000000000000000000000000000000000000000000000000000006064820152608401610673565b336001600160a01b03821614806107495750610749813361052d565b6107bb5760405162461bcd60e51b815260206004820152603860248201527f4552433732313a20617070726f76652063616c6c6572206973206e6f74206f7760448201527f6e6572206e6f7220617070726f76656420666f7220616c6c00000000000000006064820152608401610673565b6107c58383611386565b505050565b6107d433826113f4565b6108465760405162461bcd60e51b815260206004820152603160248201527f4552433732313a207472616e736665722063616c6c6572206973206e6f74206f60448201527f776e6572206e6f7220617070726f7665640000000000000000000000000000006064820152608401610673565b6107c58383836114eb565b60008281526006602052604090206001015461086d81336116b8565b6107c58383611738565b6001600160a01b03811633146108f55760405162461bcd60e51b815260206004820152602f60248201527f416363657373436f6e74726f6c3a2063616e206f6e6c792072656e6f756e636560448201527f20726f6c657320666f722073656c6600000000000000000000000000000000006064820152608401610673565b6108ff82826117da565b5050565b6107c583838360405180602001604052806000815250610b7c565b60003361092a83610a3d565b600084815260086020526040902080546001600160a01b039290921692909214925067ffffffffffffffff428116600160801b9092041610828061096b5750805b6109b75760405162461bcd60e51b815260206004820152601660248201527f446f6e6174696f6e733a206e6f7420616c6c6f776564000000000000000000006044820152606401610673565b600282015460018301546001600160a01b03166000908152600b6020908152604080832086546001600160801b03168452909152812080549091906109fd9084906127aa565b90915550610a0c90508461185d565b60405184907f96ea52e88af2bea3b17b9b3ba76f7733ecd6fc5fa3472f7eafc77102171f869d90600090a250505050565b6000818152600260205260408120546001600160a01b0316806105665760405162461bcd60e51b815260206004820152602960248201527f4552433732313a206f776e657220717565727920666f72206e6f6e657869737460448201527f656e7420746f6b656e00000000000000000000000000000000000000000000006064820152608401610673565b60006001600160a01b038216610b465760405162461bcd60e51b815260206004820152602a60248201527f4552433732313a2062616c616e636520717565727920666f7220746865207a6560448201527f726f2061646472657373000000000000000000000000000000000000000000006064820152608401610673565b506001600160a01b031660009081526003602052604090205490565b60606001805461057b90612759565b6108ff3383836118f8565b610b8633836113f4565b610bf85760405162461bcd60e51b815260206004820152603160248201527f4552433732313a207472616e736665722063616c6c6572206973206e6f74206f60448201527f776e6572206e6f7220617070726f7665640000000000000000000000000000006064820152608401610673565b610c04848484846119c7565b50505050565b6000818152600260205260409020546060906001600160a01b0316610c975760405162461bcd60e51b815260206004820152602f60248201527f4552433732314d657461646174613a2055524920717565727920666f72206e6f60448201527f6e6578697374656e7420746f6b656e00000000000000000000000000000000006064820152608401610673565b6000610cae60408051602081019091526000815290565b90506000815111610cce5760405180602001604052806000815250610cf9565b80610cd884611a50565b604051602001610ce99291906127c2565b6040516020818303038152906040525b9392505050565b600082815260066020526040902060010154610d1c81336116b8565b6107c583836117da565b7ff1b411d6abb365480ac902cc153c45e9ded5847a2265ce6d01945d253edb6bc7610d5181336116b8565b604080516020808201889052818301879052825180830384018152606090920183528151918101919091206000818152600a9092529190205460ff1615610dda5760405162461bcd60e51b815260206004820152601c60248201527f446f6e6174696f6e733a20616c72656164792070726f636573736564000000006044820152606401610673565b600954600090610df49067ffffffffffffffff16426127f1565b600754909150849060005b8281101561109657610e1082612814565b91506040518060800160405280898984818110610e2f57610e2f61282f565b610e459260206080909202019081019150612845565b6001600160801b031681526020018567ffffffffffffffff168152602001898984818110610e7557610e7561282f565b9050608002016040016020810190610e8d9190612420565b6001600160a01b03168152602001898984818110610ead57610ead61282f565b6060608090910292909201820135909252600085815260086020908152604091829020855181549287015167ffffffffffffffff16600160801b027fffffffffffffffff0000000000000000000000000000000000000000000000009093166001600160801b0390911617919091178155908401516001820180546001600160a01b039092166001600160a01b031990921691909117905592015160029092019190915550610f85888883818110610f6757610f6761282f565b9050608002016020016020810190610f7f9190612420565b83611b4e565b84888883818110610f9857610f9861282f565b610fae9260206080909202019081019150612845565b6001600160801b0316837f5e4312fc2f31556e7208795b28a8055258bd37b625cdc4bb64bbfafdb6532f508b8b86818110610feb57610feb61282f565b90506080020160400160208101906110039190612420565b888d8d888181106110165761101661282f565b905060800201606001358e8e898181106110325761103261282f565b905060800201602001602081019061104a9190612420565b604080516001600160a01b03958616815267ffffffffffffffff909416602085015283019190915291909116606082015260800160405180910390a461108f81612814565b9050610dff565b5060075550506000908152600a60205260409020805460ff191660011790555050505050565b7ff1b411d6abb365480ac902cc153c45e9ded5847a2265ce6d01945d253edb6bc76110e781336116b8565b6001600160a01b0383166000908152600b602090815260408083206001600160801b0388168452909152902054806111615760405162461bcd60e51b815260206004820152601c60248201527f446f6e6174696f6e733a206e6f7468696e6720746f20646f6e617465000000006044820152606401610673565b6001600160a01b038481166000818152600b602090815260408083206001600160801b038b168085529083528184209390935551858152938716937f27c209b93a7fe87531993c3ce2ab9e352e1e022adb1088729759d043daa08757910160405180910390a46111db6001600160a01b0385168483611c90565b5050505050565b60006111ee81336116b8565b6009805467ffffffffffffffff191667ffffffffffffffff84169081179091556040519081527f54578ea9dcb2f1fc35e2b4ff6947b808dfa81adf38483eaec4cde6d083cbcf519060200160405180910390a15050565b6000808067ffffffffffffffff421684825b8181101561133e578787828181106112715761127161282f565b602090810292909201356000818152600890935260409092208054929850965050600160801b900467ffffffffffffffff1683119350831561132e57600285015460018601546001600160a01b03166000908152600b6020908152604080832089546001600160801b03168452909152812080549091906112f39084906127aa565b9091555061130290508661185d565b60405186907f96ea52e88af2bea3b17b9b3ba76f7733ecd6fc5fa3472f7eafc77102171f869d90600090a25b61133781612814565b9050611257565b5050505050505050565b60006001600160e01b031982167f7965db0b000000000000000000000000000000000000000000000000000000001480610566575061056682611d10565b600081815260046020526040902080546001600160a01b0319166001600160a01b03841690811790915581906113bb82610a3d565b6001600160a01b03167f8c5be1e5ebec7d5bd14f71427d1e84f3dd0314c0f7b2291e5b200ac8c7c3b92560405160405180910390a45050565b6000818152600260205260408120546001600160a01b031661146d5760405162461bcd60e51b815260206004820152602c60248201527f4552433732313a206f70657261746f7220717565727920666f72206e6f6e657860448201526b34b9ba32b73a103a37b5b2b760a11b6064820152608401610673565b600061147883610a3d565b9050806001600160a01b0316846001600160a01b031614806114b35750836001600160a01b03166114a8846105fe565b6001600160a01b0316145b806114e357506001600160a01b0380821660009081526005602090815260408083209388168352929052205460ff165b949350505050565b826001600160a01b03166114fe82610a3d565b6001600160a01b03161461157a5760405162461bcd60e51b815260206004820152602960248201527f4552433732313a207472616e73666572206f6620746f6b656e2074686174206960448201527f73206e6f74206f776e00000000000000000000000000000000000000000000006064820152608401610673565b6001600160a01b0382166115f55760405162461bcd60e51b8152602060048201526024808201527f4552433732313a207472616e7366657220746f20746865207a65726f2061646460448201527f72657373000000000000000000000000000000000000000000000000000000006064820152608401610673565b611600600082611386565b6001600160a01b0383166000908152600360205260408120805460019290611629908490612860565b90915550506001600160a01b03821660009081526003602052604081208054600192906116579084906127aa565b909155505060008181526002602052604080822080546001600160a01b0319166001600160a01b0386811691821790925591518493918716917fddf252ad1be2c89b69c2b068fc378daa952ba7f163c4a11628f55a4df523b3ef91a4505050565b60008281526006602090815260408083206001600160a01b038516845290915290205460ff166108ff576116f6816001600160a01b03166014611dab565b611701836020611dab565b604051602001611712929190612877565b60408051601f198184030181529082905262461bcd60e51b825261067391600401612342565b60008281526006602090815260408083206001600160a01b038516845290915290205460ff166108ff5760008281526006602090815260408083206001600160a01b03851684529091529020805460ff191660011790556117963390565b6001600160a01b0316816001600160a01b0316837f2f8788117e7eff1d82e926ec794901d17c78024a50270940304540a733656f0d60405160405180910390a45050565b60008281526006602090815260408083206001600160a01b038516845290915290205460ff16156108ff5760008281526006602090815260408083206001600160a01b0385168085529252808320805460ff1916905551339285917ff6391f5c32d9c69d2a47ea670b442974b53935d1edc7fd64eb21e047a839171b9190a45050565b600061186882610a3d565b9050611875600083611386565b6001600160a01b038116600090815260036020526040812080546001929061189e908490612860565b909155505060008281526002602052604080822080546001600160a01b0319169055518391906001600160a01b038416907fddf252ad1be2c89b69c2b068fc378daa952ba7f163c4a11628f55a4df523b3ef908390a45050565b816001600160a01b0316836001600160a01b0316141561195a5760405162461bcd60e51b815260206004820152601960248201527f4552433732313a20617070726f766520746f2063616c6c6572000000000000006044820152606401610673565b6001600160a01b03838116600081815260056020908152604080832094871680845294825291829020805460ff191686151590811790915591519182527f17307eab39ab6107e8899845ad3d59bd9653f200f220920489ca2b5937696c31910160405180910390a3505050565b6119d28484846114eb565b6119de84848484611f70565b610c045760405162461bcd60e51b815260206004820152603260248201527f4552433732313a207472616e7366657220746f206e6f6e20455243373231526560448201527f63656976657220696d706c656d656e74657200000000000000000000000000006064820152608401610673565b606081611a745750506040805180820190915260018152600360fc1b602082015290565b8160005b8115611a9e5780611a8881612814565b9150611a979050600a8361290e565b9150611a78565b60008167ffffffffffffffff811115611ab957611ab96124ca565b6040519080825280601f01601f191660200182016040528015611ae3576020820181803683370190505b5090505b84156114e357611af8600183612860565b9150611b05600a86612922565b611b109060306127aa565b60f81b818381518110611b2557611b2561282f565b60200101906001600160f81b031916908160001a905350611b47600a8661290e565b9450611ae7565b6001600160a01b038216611ba45760405162461bcd60e51b815260206004820181905260248201527f4552433732313a206d696e7420746f20746865207a65726f20616464726573736044820152606401610673565b6000818152600260205260409020546001600160a01b031615611c095760405162461bcd60e51b815260206004820152601c60248201527f4552433732313a20746f6b656e20616c7265616479206d696e746564000000006044820152606401610673565b6001600160a01b0382166000908152600360205260408120805460019290611c329084906127aa565b909155505060008181526002602052604080822080546001600160a01b0319166001600160a01b03861690811790915590518392907fddf252ad1be2c89b69c2b068fc378daa952ba7f163c4a11628f55a4df523b3ef908290a45050565b604080516001600160a01b038416602482015260448082018490528251808303909101815260649091019091526020810180517bffffffffffffffffffffffffffffffffffffffffffffffffffffffff167fa9059cbb000000000000000000000000000000000000000000000000000000001790526107c59084906120c4565b60006001600160e01b031982167f80ac58cd000000000000000000000000000000000000000000000000000000001480611d7357506001600160e01b031982167f5b5e139f00000000000000000000000000000000000000000000000000000000145b8061056657507f01ffc9a7000000000000000000000000000000000000000000000000000000006001600160e01b0319831614610566565b60606000611dba836002612936565b611dc59060026127aa565b67ffffffffffffffff811115611ddd57611ddd6124ca565b6040519080825280601f01601f191660200182016040528015611e07576020820181803683370190505b509050600360fc1b81600081518110611e2257611e2261282f565b60200101906001600160f81b031916908160001a9053507f780000000000000000000000000000000000000000000000000000000000000081600181518110611e6d57611e6d61282f565b60200101906001600160f81b031916908160001a9053506000611e91846002612936565b611e9c9060016127aa565b90505b6001811115611f21577f303132333435363738396162636465660000000000000000000000000000000085600f1660108110611edd57611edd61282f565b1a60f81b828281518110611ef357611ef361282f565b60200101906001600160f81b031916908160001a90535060049490941c93611f1a81612955565b9050611e9f565b508315610cf95760405162461bcd60e51b815260206004820181905260248201527f537472696e67733a20686578206c656e67746820696e73756666696369656e746044820152606401610673565b60006001600160a01b0384163b156120b957604051630a85bd0160e11b81526001600160a01b0385169063150b7a0290611fb490339089908890889060040161296c565b6020604051808303816000875af1925050508015611fef575060408051601f3d908101601f19168201909252611fec918101906129a8565b60015b61209f573d80801561201d576040519150601f19603f3d011682016040523d82523d6000602084013e612022565b606091505b5080516120975760405162461bcd60e51b815260206004820152603260248201527f4552433732313a207472616e7366657220746f206e6f6e20455243373231526560448201527f63656976657220696d706c656d656e74657200000000000000000000000000006064820152608401610673565b805181602001fd5b6001600160e01b031916630a85bd0160e11b1490506114e3565b506001949350505050565b6000612119826040518060400160405280602081526020017f5361666545524332303a206c6f772d6c6576656c2063616c6c206661696c6564815250856001600160a01b03166121a99092919063ffffffff16565b8051909150156107c5578080602001905181019061213791906129c5565b6107c55760405162461bcd60e51b815260206004820152602a60248201527f5361666545524332303a204552433230206f7065726174696f6e20646964206e60448201527f6f742073756363656564000000000000000000000000000000000000000000006064820152608401610673565b60606114e3848460008585843b6122025760405162461bcd60e51b815260206004820152601d60248201527f416464726573733a2063616c6c20746f206e6f6e2d636f6e74726163740000006044820152606401610673565b600080866001600160a01b0316858760405161221e91906129e2565b60006040518083038185875af1925050503d806000811461225b576040519150601f19603f3d011682016040523d82523d6000602084013e612260565b606091505b509150915061227082828661227b565b979650505050505050565b6060831561228a575081610cf9565b82511561229a5782518084602001fd5b8160405162461bcd60e51b81526004016106739190612342565b6001600160e01b0319811681146122ca57600080fd5b50565b6000602082840312156122df57600080fd5b8135610cf9816122b4565b60005b838110156123055781810151838201526020016122ed565b83811115610c045750506000910152565b6000815180845261232e8160208601602086016122ea565b601f01601f19169290920160200192915050565b602081526000610cf96020830184612316565b60006020828403121561236757600080fd5b5035919050565b6001600160a01b03811681146122ca57600080fd5b6000806040838503121561239657600080fd5b82356123a18161236e565b946020939093013593505050565b6000806000606084860312156123c457600080fd5b83356123cf8161236e565b925060208401356123df8161236e565b929592945050506040919091013590565b6000806040838503121561240357600080fd5b8235915060208301356124158161236e565b809150509250929050565b60006020828403121561243257600080fd5b8135610cf98161236e565b80356001600160801b038116811461245457600080fd5b919050565b6000806040838503121561246c57600080fd5b82356124778161236e565b91506124856020840161243d565b90509250929050565b80151581146122ca57600080fd5b600080604083850312156124af57600080fd5b82356124ba8161236e565b915060208301356124158161248e565b634e487b7160e01b600052604160045260246000fd5b600080600080608085870312156124f657600080fd5b84356125018161236e565b935060208501356125118161236e565b925060408501359150606085013567ffffffffffffffff8082111561253557600080fd5b818701915087601f83011261254957600080fd5b81358181111561255b5761255b6124ca565b604051601f8201601f19908116603f01168101908382118183101715612583576125836124ca565b816040528281528a602084870101111561259c57600080fd5b82602086016020830137600060208483010152809550505050505092959194509250565b600080600080606085870312156125d657600080fd5b8435935060208501359250604085013567ffffffffffffffff808211156125fc57600080fd5b818701915087601f83011261261057600080fd5b81358181111561261f57600080fd5b8860208260071b850101111561263457600080fd5b95989497505060200194505050565b60008060006060848603121561265857600080fd5b6126618461243d565b925060208401356126718161236e565b915060408401356126818161236e565b809150509250925092565b60006020828403121561269e57600080fd5b813567ffffffffffffffff81168114610cf957600080fd5b600080602083850312156126c957600080fd5b823567ffffffffffffffff808211156126e157600080fd5b818501915085601f8301126126f557600080fd5b81358181111561270457600080fd5b8660208260051b850101111561271957600080fd5b60209290920196919550909350505050565b6000806040838503121561273e57600080fd5b82356127498161236e565b915060208301356124158161236e565b600181811c9082168061276d57607f821691505b6020821081141561278e57634e487b7160e01b600052602260045260246000fd5b50919050565b634e487b7160e01b600052601160045260246000fd5b600082198211156127bd576127bd612794565b500190565b600083516127d48184602088016122ea565b8351908301906127e88183602088016122ea565b01949350505050565b600067ffffffffffffffff8083168185168083038211156127e8576127e8612794565b600060001982141561282857612828612794565b5060010190565b634e487b7160e01b600052603260045260246000fd5b60006020828403121561285757600080fd5b610cf98261243d565b60008282101561287257612872612794565b500390565b7f416363657373436f6e74726f6c3a206163636f756e74200000000000000000008152600083516128af8160178501602088016122ea565b7f206973206d697373696e6720726f6c652000000000000000000000000000000060179184019182015283516128ec8160288401602088016122ea565b01602801949350505050565b634e487b7160e01b600052601260045260246000fd5b60008261291d5761291d6128f8565b500490565b600082612931576129316128f8565b500690565b600081600019048311821515161561295057612950612794565b500290565b60008161296457612964612794565b506000190190565b60006001600160a01b0380871683528086166020840152508360408301526080606083015261299e6080830184612316565b9695505050505050565b6000602082840312156129ba57600080fd5b8151610cf9816122b4565b6000602082840312156129d757600080fd5b8151610cf98161248e565b600082516129f48184602087016122ea565b919091019291505056fea264697066735822122083e04a663a2269547a704af33e798583501f59b27c6604f778f487d0db92439664736f6c634300080a0033","abi":[{"inputs":[{"internalType":"address","name":"_owner","type":"address"}],"stateMutability":"nonpayable","type":"constructor"},{"anonymous":false,"inputs":[{"indexed":true,"internalType":"address","name":"owner","type":"address"},{"indexed":true,"internalType":"address","name":"approved","type":"address"},{"indexed":true,"internalType":"uint256","name":"tokenId","type":"uint256"}],"name":"Approval","type":"event"},{"anonymous":false,"inputs":[{"indexed":true,"internalType":"address","name":"owner","type":"address"},{"indexed":true,"internalType":"address","name":"operator","type":"address"},{"indexed":false,"internalType":"bool","name":"approved","type":"bool"}],"name":"ApprovalForAll","type":"event"},{"anonymous":false,"inputs":[{"indexed":true,"internalType":"uint256","name":"id","type":"uint256"}],"name":"DonationBurned","type":"event"},{"anonymous":false,"inputs":[{"indexed":true,"internalType":"uint256","name":"id","type":"uint256"},{"indexed":true,"internalType":"uint128","name":"destinationId","type":"uint128"},{"indexed":true,"internalType":"bytes32","name":"groupId","type":"bytes32"},{"indexed":false,"internalType":"contract IERC20","name":"token","type":"address"},{"indexed":false,"internalType":"uint256","name":"expiry","type":"uint256"},{"indexed":false,"internalType":"uint256","name":"amount","type":"uint256"},{"indexed":false,"internalType":"address","name":"owner","type":"address"}],"name":"DonationMinted","type":"event"},{"anonymous":false,"inputs":[{"indexed":true,"internalType":"uint128","name":"destinationId","type":"uint128"},{"indexed":true,"internalType":"contract IERC20","name":"token","type":"address"},{"indexed":true,"internalType":"address","name":"to","type":"address"},{"indexed":false,"internalType":"uint256","name":"amount","type":"uint256"}],"name":"DonationsSent","type":"event"},{"anonymous":false,"inputs":[{"indexed":true,"internalType":"bytes32","name":"role","type":"bytes32"},{"indexed":true,"internalType":"bytes32","name":"previousAdminRole","type":"bytes32"},{"indexed":true,"internalType":"bytes32","name":"newAdminRole","type":"bytes32"}],"name":"RoleAdminChanged","type":"event"},{"anonymous":false,"inputs":[{"indexed":true,"internalType":"bytes32","name":"role","type":"bytes32"},{"indexed":true,"internalType":"address","name":"account","type":"address"},{"indexed":true,"internalType":"address","name":"sender","type":"address"}],"name":"RoleGranted","type":"event"},{"anonymous":false,"inputs":[{"indexed":true,"internalType":"bytes32","name":"role","type":"bytes32"},{"indexed":true,"internalType":"address","name":"account","type":"address"},{"indexed":true,"internalType":"address","name":"sender","type":"address"}],"name":"RoleRevoked","type":"event"},{"anonymous":false,"inputs":[{"indexed":false,"internalType":"uint64","name":"ttl","type":"uint64"}],"name":"TTLUpdated","type":"event"},{"anonymous":false,"inputs":[{"indexed":true,"internalType":"address","name":"from","type":"address"},{"indexed":true,"internalType":"address","name":"to","type":"address"},{"indexed":true,"internalType":"uint256","name":"tokenId","type":"uint256"}],"name":"Transfer","type":"event"},{"inputs":[],"name":"DEFAULT_ADMIN_ROLE","outputs":[{"internalType":"bytes32","name":"","type":"bytes32"}],"stateMutability":"view","type":"function"},{"inputs":[],"name":"WORKER_ROLE","outputs":[{"internalType":"bytes32","name":"","type":"bytes32"}],"stateMutability":"view","type":"function"},{"inputs":[{"internalType":"address","name":"to","type":"address"},{"internalType":"uint256","name":"tokenId","type":"uint256"}],"name":"approve","outputs":[],"stateMutability":"nonpayable","type":"function"},{"inputs":[{"internalType":"address","name":"owner","type":"address"}],"name":"balanceOf","outputs":[{"internalType":"uint256","name":"","type":"uint256"}],"stateMutability":"view","type":"function"},{"inputs":[{"internalType":"uint256","name":"_id","type":"uint256"}],"name":"burn","outputs":[],"stateMutability":"nonpayable","type":"function"},{"inputs":[{"internalType":"uint256[]","name":"_ids","type":"uint256[]"}],"name":"burnBatch","outputs":[],"stateMutability":"nonpayable","type":"function"},{"inputs":[{"internalType":"uint128","name":"_destinationId","type":"uint128"},{"internalType":"contract IERC20","name":"_token","type":"address"},{"internalType":"address","name":"_to","type":"address"}],"name":"donate","outputs":[],"stateMutability":"nonpayable","type":"function"},{"inputs":[{"internalType":"uint256","name":"tokenId","type":"uint256"}],"name":"getApproved","outputs":[{"internalType":"address","name":"","type":"address"}],"stateMutability":"view","type":"function"},{"inputs":[{"internalType":"bytes32","name":"role","type":"bytes32"}],"name":"getRoleAdmin","outputs":[{"internalType":"bytes32","name":"","type":"bytes32"}],"stateMutability":"view","type":"function"},{"inputs":[{"internalType":"bytes32","name":"role","type":"bytes32"},{"internalType":"address","name":"account","type":"address"}],"name":"grantRole","outputs":[],"stateMutability":"nonpayable","type":"function"},{"inputs":[{"internalType":"bytes32","name":"role","type":"bytes32"},{"internalType":"address","name":"account","type":"address"}],"name":"hasRole","outputs":[{"internalType":"bool","name":"","type":"bool"}],"stateMutability":"view","type":"function"},{"inputs":[{"internalType":"address","name":"owner","type":"address"},{"internalType":"address","name":"operator","type":"address"}],"name":"isApprovedForAll","outputs":[{"internalType":"bool","name":"","type":"bool"}],"stateMutability":"view","type":"function"},{"inputs":[{"internalType":"uint256","name":"","type":"uint256"}],"name":"metadata","outputs":[{"internalType":"uint128","name":"destinationId","type":"uint128"},{"internalType":"uint64","name":"expiry","type":"uint64"},{"internalType":"contract IERC20","name":"token","type":"address"},{"internalType":"uint256","name":"amount","type":"uint256"}],"stateMutability":"view","type":"function"},{"inputs":[{"internalType":"bytes32","name":"_txHash","type":"bytes32"},{"internalType":"uint256","name":"_batchNr","type":"uint256"},{"components":[{"internalType":"uint128","name":"destinationId","type":"uint128"},{"internalType":"address","name":"owner","type":"address"},{"internalType":"contract IERC20","name":"token","type":"address"},{"internalType":"uint256","name":"amount","type":"uint256"}],"internalType":"struct Donations.DonationParams[]","name":"_params","type":"tuple[]"}],"name":"mint","outputs":[],"stateMutability":"nonpayable","type":"function"},{"inputs":[],"name":"name","outputs":[{"internalType":"string","name":"","type":"string"}],"stateMutability":"view","type":"function"},{"inputs":[{"internalType":"uint256","name":"tokenId","type":"uint256"}],"name":"ownerOf","outputs":[{"internalType":"address","name":"","type":"address"}],"stateMutability":"view","type":"function"},{"inputs":[{"internalType":"bytes32","name":"","type":"bytes32"}],"name":"processedDonationsGroups","outputs":[{"internalType":"bool","name":"","type":"bool"}],"stateMutability":"view","type":"function"},{"inputs":[{"internalType":"bytes32","name":"role","type":"bytes32"},{"internalType":"address","name":"account","type":"address"}],"name":"renounceRole","outputs":[],"stateMutability":"nonpayable","type":"function"},{"inputs":[{"internalType":"bytes32","name":"role","type":"bytes32"},{"internalType":"address","name":"account","type":"address"}],"name":"revokeRole","outputs":[],"stateMutability":"nonpayable","type":"function"},{"inputs":[{"internalType":"address","name":"from","type":"address"},{"internalType":"address","name":"to","type":"address"},{"internalType":"uint256","name":"tokenId","type":"uint256"}],"name":"safeTransferFrom","outputs":[],"stateMutability":"nonpayable","type":"function"},{"inputs":[{"internalType":"address","name":"from","type":"address"},{"internalType":"address","name":"to","type":"address"},{"internalType":"uint256","name":"tokenId","type":"uint256"},{"internalType":"bytes","name":"_data","type":"bytes"}],"name":"safeTransferFrom","outputs":[],"stateMutability":"nonpayable","type":"function"},{"inputs":[{"internalType":"address","name":"operator","type":"address"},{"internalType":"bool","name":"approved","type":"bool"}],"name":"setApprovalForAll","outputs":[],"stateMutability":"nonpayable","type":"function"},{"inputs":[{"internalType":"uint64","name":"_ttl","type":"uint64"}],"name":"setTTL","outputs":[],"stateMutability":"nonpayable","type":"function"},{"inputs":[{"internalType":"bytes4","name":"interfaceId","type":"bytes4"}],"name":"supportsInterface","outputs":[{"internalType":"bool","name":"","type":"bool"}],"stateMutability":"view","type":"function"},{"inputs":[],"name":"symbol","outputs":[{"internalType":"string","name":"","type":"string"}],"stateMutability":"view","type":"function"},{"inputs":[{"internalType":"uint256","name":"tokenId","type":"uint256"}],"name":"tokenURI","outputs":[{"internalType":"string","name":"","type":"string"}],"stateMutability":"view","type":"function"},{"inputs":[{"internalType":"address","name":"from","type":"address"},{"internalType":"address","name":"to","type":"address"},{"internalType":"uint256","name":"tokenId","type":"uint256"}],"name":"transferFrom","outputs":[],"stateMutability":"nonpayable","type":"function"},{"inputs":[{"internalType":"contract IERC20","name":"","type":"address"},{"internalType":"uint128","name":"","type":"uint128"}],"name":"transferableAmounts","outputs":[{"internalType":"uint256","name":"","type":"uint256"}],"stateMutability":"view","type":"function"},{"inputs":[],"name":"ttl","outputs":[{"internalType":"uint64","name":"","type":"uint64"}],"stateMutability":"view","type":"function"}]}