{"address":"0x470B125472930374AE711dE53B9D4221889Fe131","bytecode":"0x6080604052600b80546001600160401b03191662ed4e001790553480156200002657600080fd5b5060405162002b9638038062002b968339810160408190526200004991620002b6565b604080518082018252601281527129b0b73231b637b1b5902237b730ba34b7b760711b602080830191825283518085019094526009845268446f6e6174696f6e7360b81b908401528151919291620000a49160029162000210565b508051620000ba90600390602084019062000210565b506000805550506001600160a01b0381166200011c5760405162461bcd60e51b815260206004820152601a60248201527f5661756c743a206f776e65722063616e6e6f7420626520307830000000000000604482015260640160405180910390fd5b620001296000826200015c565b620001557ff1b411d6abb365480ac902cc153c45e9ded5847a2265ce6d01945d253edb6bc7826200015c565b5062000325565b6200016882826200016c565b5050565b60008281526008602090815260408083206001600160a01b038516845290915290205460ff16620001685760008281526008602090815260408083206001600160a01b03851684529091529020805460ff19166001179055620001cc3390565b6001600160a01b0316816001600160a01b0316837f2f8788117e7eff1d82e926ec794901d17c78024a50270940304540a733656f0d60405160405180910390a45050565b8280546200021e90620002e8565b90600052602060002090601f0160209004810192826200024257600085556200028d565b82601f106200025d57805160ff19168380011785556200028d565b828001600101855582156200028d579182015b828111156200028d57825182559160200191906001019062000270565b506200029b9291506200029f565b5090565b5b808211156200029b5760008155600101620002a0565b600060208284031215620002c957600080fd5b81516001600160a01b0381168114620002e157600080fd5b9392505050565b600181811c90821680620002fd57607f821691505b602082108114156200031f57634e487b7160e01b600052602260045260246000fd5b50919050565b61286180620003356000396000f3fe608060405234801561001057600080fd5b50600436106101da5760003560e01c806370a0823111610104578063a22cb465116100a2578063d824891011610071578063d824891014610477578063e253abdf1461048a578063e3684e391461049d578063e985e9c51461053257600080fd5b8063a22cb4651461042b578063b88d4fde1461043e578063c87b56dd14610451578063d547741f1461046457600080fd5b806391d14854116100de57806391d14854146103b757806395d89b41146103f057806398831192146103f8578063a217fddf1461042357600080fd5b806370a082311461037e5780637641e6f3146103915780637cdb7495146103a457600080fd5b80632408ee801161017c57806342842e0e1161014b57806342842e0e146103045780634e8b1dd514610317578063634252dc146103445780636352211e1461036b57600080fd5b80632408ee8014610298578063248a9ca3146102bb5780632f2ff15d146102de57806336568abe146102f157600080fd5b8063081812fc116101b8578063081812fc14610231578063095ea7b31461025c57806318160ddd1461026f57806323b872dd1461028557600080fd5b806301ffc9a7146101df57806306f2a6be1461020757806306fdde031461021c575b600080fd5b6101f26101ed366004611fe3565b61056e565b60405190151581526020015b60405180910390f35b61021a61021536600461204c565b61057f565b005b6102246106b5565b6040516101fe9190612110565b61024461023f366004612123565b610747565b6040516001600160a01b0390911681526020016101fe565b61021a61026a366004612151565b6107a4565b600154600054035b6040519081526020016101fe565b61021a61029336600461217d565b6108b6565b6101f26102a6366004612123565b600c6020526000908152604090205460ff1681565b6102776102c9366004612123565b60009081526008602052604090206001015490565b61021a6102ec3660046121be565b6108c6565b61021a6102ff3660046121be565b6108ec565b61021a61031236600461217d565b61097d565b600b5461032b9067ffffffffffffffff1681565b60405167ffffffffffffffff90911681526020016101fe565b6102777ff1b411d6abb365480ac902cc153c45e9ded5847a2265ce6d01945d253edb6bc781565b610244610379366004612123565b610998565b61027761038c3660046121ee565b6109a3565b61021a61039f36600461220b565b610a0b565b61021a6103b2366004612287565b610b3b565b6101f26103c53660046121be565b60009182526008602090815260408084206001600160a01b0393909316845291905290205460ff1690565b610224610f41565b6102776104063660046122ea565b600d60209081526000928352604080842090915290825290205481565b610277600081565b61021a61043936600461232d565b610f50565b61021a61044c366004612371565b610fff565b61022461045f366004612123565b611049565b61021a6104723660046121be565b6110f4565b61021a610485366004612451565b61111a565b61021a61049836600461249a565b611240565b6104f16104ab366004612123565b600a602052600090815260409020805460018201546002909201546001600160801b03821692600160801b90920467ffffffffffffffff16916001600160a01b03169084565b604080516001600160801b03909516855267ffffffffffffffff90931660208501526001600160a01b039091169183019190915260608201526080016101fe565b6101f26105403660046124c4565b6001600160a01b03918216600090815260076020908152604080832093909416825291909152205460ff1690565b6000610579826112a3565b92915050565b6000808067ffffffffffffffff421686825b818110156106a9578989828181106105ab576105ab6124f2565b602090810292909201356000818152600a90935260409092208054929850965050600160801b900467ffffffffffffffff1683119350831561069957600285015460018601546001600160a01b03166000908152600d6020908152604080832089546001600160801b031684529091528120805490919061062d90849061251e565b9091555061063c90508661130a565b857f6874c596aaaff0aa80bb2fa847845de413cb824db72206cecb813fdbffcb7cc8898984818110610670576106706124f2565b90506020028101906106829190612536565b6040516106909291906125a6565b60405180910390a25b6106a2816125ba565b9050610591565b50505050505050505050565b6060600280546106c4906125d5565b80601f01602080910402602001604051908101604052809291908181526020018280546106f0906125d5565b801561073d5780601f106107125761010080835404028352916020019161073d565b820191906000526020600020905b81548152906001019060200180831161072057829003601f168201915b5050505050905090565b600061075282611318565b610788576040517fcf4700e400000000000000000000000000000000000000000000000000000000815260040160405180910390fd5b506000908152600660205260409020546001600160a01b031690565b60006107af8261133f565b9050806001600160a01b0316836001600160a01b031614156107fd576040517f943f7b8c00000000000000000000000000000000000000000000000000000000815260040160405180910390fd5b336001600160a01b0382161461084d576108178133610540565b61084d576040517fcfb3b94200000000000000000000000000000000000000000000000000000000815260040160405180910390fd5b600082815260066020526040808220805473ffffffffffffffffffffffffffffffffffffffff19166001600160a01b0387811691821790925591518593918516917f8c5be1e5ebec7d5bd14f71427d1e84f3dd0314c0f7b2291e5b200ac8c7c3b92591a4505050565b6108c18383836113b9565b505050565b6000828152600860205260409020600101546108e2813361159a565b6108c1838361161a565b6001600160a01b038116331461096f5760405162461bcd60e51b815260206004820152602f60248201527f416363657373436f6e74726f6c3a2063616e206f6e6c792072656e6f756e636560448201527f20726f6c657320666f722073656c66000000000000000000000000000000000060648201526084015b60405180910390fd5b61097982826116bc565b5050565b6108c183838360405180602001604052806000815250610fff565b60006105798261133f565b60006001600160a01b0382166109e5576040517f8f4eb60400000000000000000000000000000000000000000000000000000000815260040160405180910390fd5b506001600160a01b031660009081526005602052604090205467ffffffffffffffff1690565b600033610a1785610998565b6000868152600a6020526040902080546001600160a01b039290921692909214925067ffffffffffffffff428116600160801b90920416108280610a585750805b610aa45760405162461bcd60e51b815260206004820152601660248201527f446f6e6174696f6e733a206e6f7420616c6c6f776564000000000000000000006044820152606401610966565b600282015460018301546001600160a01b03166000908152600d6020908152604080832086546001600160801b0316845290915281208054909190610aea90849061251e565b90915550610af990508661130a565b857f6874c596aaaff0aa80bb2fa847845de413cb824db72206cecb813fdbffcb7cc88686604051610b2b9291906125a6565b60405180910390a2505050505050565b7ff1b411d6abb365480ac902cc153c45e9ded5847a2265ce6d01945d253edb6bc7610b66813361159a565b604080516020808201889052818301879052825180830384018152606090920183528151918101919091206000818152600c9092529190205460ff1615610bef5760405162461bcd60e51b815260206004820152601c60248201527f446f6e6174696f6e733a20616c72656164792070726f636573736564000000006044820152606401610966565b600b54600090610c099067ffffffffffffffff1642612610565b600954909150849060005b82811015610f1b57610c25826125ba565b91506040518060800160405280898984818110610c4457610c446124f2565b9050602002810190610c56919061263c565b610c6490602081019061265c565b6001600160801b031681526020018567ffffffffffffffff168152602001898984818110610c9457610c946124f2565b9050602002810190610ca6919061263c565b610cb79060608101906040016121ee565b6001600160a01b03168152602001898984818110610cd757610cd76124f2565b9050602002810190610ce9919061263c565b6060908101359091526000848152600a6020908152604091829020845181549286015167ffffffffffffffff16600160801b027fffffffffffffffff0000000000000000000000000000000000000000000000009093166001600160801b0390911617919091178155908301516001820180546001600160a01b0390921673ffffffffffffffffffffffffffffffffffffffff19909216919091179055910151600290910155610dce888883818110610da457610da46124f2565b9050602002810190610db6919061263c565b610dc79060408101906020016121ee565b600161173f565b84888883818110610de157610de16124f2565b9050602002810190610df3919061263c565b610e0190602081019061265c565b6001600160801b0316837fdacba2fa7b75fcde690c6d8dae704d859ebc3b89dae3cf49357d6a12a9e0193d8b8b86818110610e3e57610e3e6124f2565b9050602002810190610e50919061263c565b610e619060608101906040016121ee565b888d8d88818110610e7457610e746124f2565b9050602002810190610e86919061263c565b606001358e8e89818110610e9c57610e9c6124f2565b9050602002810190610eae919061263c565b610ebf9060408101906020016121ee565b8f8f8a818110610ed157610ed16124f2565b9050602002810190610ee3919061263c565b610ef1906080810190612536565b604051610f0396959493929190612677565b60405180910390a4610f14816125ba565b9050610c14565b5060095550506000908152600c60205260409020805460ff191660011790555050505050565b6060600380546106c4906125d5565b6001600160a01b038216331415610f93576040517fb06307db00000000000000000000000000000000000000000000000000000000815260040160405180910390fd5b3360008181526007602090815260408083206001600160a01b03871680855290835292819020805460ff191686151590811790915590519081529192917f17307eab39ab6107e8899845ad3d59bd9653f200f220920489ca2b5937696c31910160405180910390a35050565b61100a8484846113b9565b6001600160a01b0383163b156110435761102684848484611850565b611043576040516368d2bf6b60e11b815260040160405180910390fd5b50505050565b606061105482611318565b61108a576040517fa14c4b5000000000000000000000000000000000000000000000000000000000815260040160405180910390fd5b60006110a160408051602081019091526000815290565b90508051600014156110c257604051806020016040528060008152506110ed565b806110cc84611938565b6040516020016110dd9291906126c6565b6040516020818303038152906040525b9392505050565b600082815260086020526040902060010154611110813361159a565b6108c183836116bc565b7ff1b411d6abb365480ac902cc153c45e9ded5847a2265ce6d01945d253edb6bc7611145813361159a565b6001600160a01b0383166000908152600d602090815260408083206001600160801b0388168452909152902054806111bf5760405162461bcd60e51b815260206004820152601c60248201527f446f6e6174696f6e733a206e6f7468696e6720746f20646f6e617465000000006044820152606401610966565b6001600160a01b038481166000818152600d602090815260408083206001600160801b038b168085529083528184209390935551858152938716937f27c209b93a7fe87531993c3ce2ab9e352e1e022adb1088729759d043daa08757910160405180910390a46112396001600160a01b0385168483611987565b5050505050565b600061124c813361159a565b600b805467ffffffffffffffff191667ffffffffffffffff84169081179091556040519081527f54578ea9dcb2f1fc35e2b4ff6947b808dfa81adf38483eaec4cde6d083cbcf519060200160405180910390a15050565b60006001600160e01b031982167f7965db0b00000000000000000000000000000000000000000000000000000000148061057957507f01ffc9a7000000000000000000000000000000000000000000000000000000006001600160e01b0319831614610579565b611315816000611a07565b50565b6000805482108015610579575050600090815260046020526040902054600160e01b161590565b60008160005481101561138757600081815260046020526040902054600160e01b8116611385575b806110ed575060001901600081815260046020526040902054611367565b505b6040517fdf2d9b4200000000000000000000000000000000000000000000000000000000815260040160405180910390fd5b60006113c48261133f565b9050836001600160a01b0316816001600160a01b031614611411576040517fa114810000000000000000000000000000000000000000000000000000000000815260040160405180910390fd5b6000336001600160a01b038616148061142f575061142f8533610540565b8061144a57503361143f84610747565b6001600160a01b0316145b90508061146a57604051632ce44b5f60e11b815260040160405180910390fd5b6001600160a01b0384166114aa576040517fea553b3400000000000000000000000000000000000000000000000000000000815260040160405180910390fd5b6000838152600660209081526040808320805473ffffffffffffffffffffffffffffffffffffffff191690556001600160a01b038881168452600583528184208054600019019055871683528083208054600101905585835260049091529020600160e11b4260a01b86178117909155821661155457600183016000818152600460205260409020546115525760005481146115525760008181526004602052604090208390555b505b82846001600160a01b0316866001600160a01b03167fddf252ad1be2c89b69c2b068fc378daa952ba7f163c4a11628f55a4df523b3ef60405160405180910390a4611239565b60008281526008602090815260408083206001600160a01b038516845290915290205460ff16610979576115d8816001600160a01b03166014611b78565b6115e3836020611b78565b6040516020016115f49291906126ec565b60408051601f198184030181529082905262461bcd60e51b825261096691600401612110565b60008281526008602090815260408083206001600160a01b038516845290915290205460ff166109795760008281526008602090815260408083206001600160a01b03851684529091529020805460ff191660011790556116783390565b6001600160a01b0316816001600160a01b0316837f2f8788117e7eff1d82e926ec794901d17c78024a50270940304540a733656f0d60405160405180910390a45050565b60008281526008602090815260408083206001600160a01b038516845290915290205460ff16156109795760008281526008602090815260408083206001600160a01b0385168085529252808320805460ff1916905551339285917ff6391f5c32d9c69d2a47ea670b442974b53935d1edc7fd64eb21e047a839171b9190a45050565b6000546001600160a01b038316611782576040517f2e07630000000000000000000000000000000000000000000000000000000000815260040160405180910390fd5b816117b9576040517fb562e8dd00000000000000000000000000000000000000000000000000000000815260040160405180910390fd5b6001600160a01b03831660009081526005602090815260408083208054680100000000000000018702019055838352600490915290204260a01b84176001841460e11b179055808083015b6040516001830192906001600160a01b038716906000907fddf252ad1be2c89b69c2b068fc378daa952ba7f163c4a11628f55a4df523b3ef908290a48082106118045750600055505050565b604051630a85bd0160e11b81526000906001600160a01b0385169063150b7a029061188590339089908890889060040161276d565b6020604051808303816000875af19250505080156118c0575060408051601f3d908101601f191682019092526118bd918101906127a9565b60015b61191b573d8080156118ee576040519150601f19603f3d011682016040523d82523d6000602084013e6118f3565b606091505b508051611913576040516368d2bf6b60e11b815260040160405180910390fd5b805181602001fd5b6001600160e01b031916630a85bd0160e11b149050949350505050565b604080516080810191829052607f0190826030600a8206018353600a90045b801561197557600183039250600a81066030018353600a9004611957565b50819003601f19909101908152919050565b604080516001600160a01b038416602482015260448082018490528251808303909101815260649091019091526020810180517bffffffffffffffffffffffffffffffffffffffffffffffffffffffff167fa9059cbb000000000000000000000000000000000000000000000000000000001790526108c1908490611d59565b6000611a128361133f565b9050808215611a76576000336001600160a01b0383161480611a395750611a398233610540565b80611a54575033611a4986610747565b6001600160a01b0316145b905080611a7457604051632ce44b5f60e11b815260040160405180910390fd5b505b6000848152600660209081526040808320805473ffffffffffffffffffffffffffffffffffffffff191690556001600160a01b03841683526005825280832080546001600160801b03019055868352600490915290207c03000000000000000000000000000000000000000000000000000000004260a01b8317179055600160e11b8216611b325760018401600081815260046020526040902054611b30576000548114611b305760008181526004602052604090208390555b505b60405184906000906001600160a01b038416907fddf252ad1be2c89b69c2b068fc378daa952ba7f163c4a11628f55a4df523b3ef908390a4505060018054810190555050565b60606000611b878360026127c6565b611b9290600261251e565b67ffffffffffffffff811115611baa57611baa61235b565b6040519080825280601f01601f191660200182016040528015611bd4576020820181803683370190505b5090507f300000000000000000000000000000000000000000000000000000000000000081600081518110611c0b57611c0b6124f2565b60200101906001600160f81b031916908160001a9053507f780000000000000000000000000000000000000000000000000000000000000081600181518110611c5657611c566124f2565b60200101906001600160f81b031916908160001a9053506000611c7a8460026127c6565b611c8590600161251e565b90505b6001811115611d0a577f303132333435363738396162636465660000000000000000000000000000000085600f1660108110611cc657611cc66124f2565b1a60f81b828281518110611cdc57611cdc6124f2565b60200101906001600160f81b031916908160001a90535060049490941c93611d03816127e5565b9050611c88565b5083156110ed5760405162461bcd60e51b815260206004820181905260248201527f537472696e67733a20686578206c656e67746820696e73756666696369656e746044820152606401610966565b6000611dae826040518060400160405280602081526020017f5361666545524332303a206c6f772d6c6576656c2063616c6c206661696c6564815250856001600160a01b0316611e3e9092919063ffffffff16565b8051909150156108c15780806020019051810190611dcc91906127fc565b6108c15760405162461bcd60e51b815260206004820152602a60248201527f5361666545524332303a204552433230206f7065726174696f6e20646964206e60448201527f6f742073756363656564000000000000000000000000000000000000000000006064820152608401610966565b6060611e4d8484600085611e55565b949350505050565b606082471015611ecd5760405162461bcd60e51b815260206004820152602660248201527f416464726573733a20696e73756666696369656e742062616c616e636520666f60448201527f722063616c6c00000000000000000000000000000000000000000000000000006064820152608401610966565b843b611f1b5760405162461bcd60e51b815260206004820152601d60248201527f416464726573733a2063616c6c20746f206e6f6e2d636f6e74726163740000006044820152606401610966565b600080866001600160a01b03168587604051611f379190612819565b60006040518083038185875af1925050503d8060008114611f74576040519150601f19603f3d011682016040523d82523d6000602084013e611f79565b606091505b5091509150611f89828286611f94565b979650505050505050565b60608315611fa35750816110ed565b825115611fb35782518084602001fd5b8160405162461bcd60e51b81526004016109669190612110565b6001600160e01b03198116811461131557600080fd5b600060208284031215611ff557600080fd5b81356110ed81611fcd565b60008083601f84011261201257600080fd5b50813567ffffffffffffffff81111561202a57600080fd5b6020830191508360208260051b850101111561204557600080fd5b9250929050565b6000806000806040858703121561206257600080fd5b843567ffffffffffffffff8082111561207a57600080fd5b61208688838901612000565b9096509450602087013591508082111561209f57600080fd5b506120ac87828801612000565b95989497509550505050565b60005b838110156120d35781810151838201526020016120bb565b838111156110435750506000910152565b600081518084526120fc8160208601602086016120b8565b601f01601f19169290920160200192915050565b6020815260006110ed60208301846120e4565b60006020828403121561213557600080fd5b5035919050565b6001600160a01b038116811461131557600080fd5b6000806040838503121561216457600080fd5b823561216f8161213c565b946020939093013593505050565b60008060006060848603121561219257600080fd5b833561219d8161213c565b925060208401356121ad8161213c565b929592945050506040919091013590565b600080604083850312156121d157600080fd5b8235915060208301356121e38161213c565b809150509250929050565b60006020828403121561220057600080fd5b81356110ed8161213c565b60008060006040848603121561222057600080fd5b83359250602084013567ffffffffffffffff8082111561223f57600080fd5b818601915086601f83011261225357600080fd5b81358181111561226257600080fd5b87602082850101111561227457600080fd5b6020830194508093505050509250925092565b6000806000806060858703121561229d57600080fd5b8435935060208501359250604085013567ffffffffffffffff8111156122c257600080fd5b6120ac87828801612000565b80356001600160801b03811681146122e557600080fd5b919050565b600080604083850312156122fd57600080fd5b82356123088161213c565b9150612316602084016122ce565b90509250929050565b801515811461131557600080fd5b6000806040838503121561234057600080fd5b823561234b8161213c565b915060208301356121e38161231f565b634e487b7160e01b600052604160045260246000fd5b6000806000806080858703121561238757600080fd5b84356123928161213c565b935060208501356123a28161213c565b925060408501359150606085013567ffffffffffffffff808211156123c657600080fd5b818701915087601f8301126123da57600080fd5b8135818111156123ec576123ec61235b565b604051601f8201601f19908116603f011681019083821181831017156124145761241461235b565b816040528281528a602084870101111561242d57600080fd5b82602086016020830137600060208483010152809550505050505092959194509250565b60008060006060848603121561246657600080fd5b61246f846122ce565b9250602084013561247f8161213c565b9150604084013561248f8161213c565b809150509250925092565b6000602082840312156124ac57600080fd5b813567ffffffffffffffff811681146110ed57600080fd5b600080604083850312156124d757600080fd5b82356124e28161213c565b915060208301356121e38161213c565b634e487b7160e01b600052603260045260246000fd5b634e487b7160e01b600052601160045260246000fd5b6000821982111561253157612531612508565b500190565b6000808335601e1984360301811261254d57600080fd5b83018035915067ffffffffffffffff82111561256857600080fd5b60200191503681900382131561204557600080fd5b81835281816020850137506000828201602090810191909152601f909101601f19169091010190565b602081526000611e4d60208301848661257d565b60006000198214156125ce576125ce612508565b5060010190565b600181811c908216806125e957607f821691505b6020821081141561260a57634e487b7160e01b600052602260045260246000fd5b50919050565b600067ffffffffffffffff80831681851680830382111561263357612633612508565b01949350505050565b60008235609e1983360301811261265257600080fd5b9190910192915050565b60006020828403121561266e57600080fd5b6110ed826122ce565b60006001600160a01b03808916835267ffffffffffffffff8816602084015286604084015280861660608401525060a060808301526126ba60a08301848661257d565b98975050505050505050565b600083516126d88184602088016120b8565b8351908301906126338183602088016120b8565b7f416363657373436f6e74726f6c3a206163636f756e74200000000000000000008152600083516127248160178501602088016120b8565b7f206973206d697373696e6720726f6c652000000000000000000000000000000060179184019182015283516127618160288401602088016120b8565b01602801949350505050565b60006001600160a01b0380871683528086166020840152508360408301526080606083015261279f60808301846120e4565b9695505050505050565b6000602082840312156127bb57600080fd5b81516110ed81611fcd565b60008160001904831182151516156127e0576127e0612508565b500290565b6000816127f4576127f4612508565b506000190190565b60006020828403121561280e57600080fd5b81516110ed8161231f565b600082516126528184602087016120b856fea264697066735822122046f6f0c1ca8966f003a4a7f550f91caab47aa54d7bd215b153ee3eb0ab1ad67764736f6c634300080a0033","abi":[{"inputs":[{"internalType":"address","name":"_owner","type":"address"}],"stateMutability":"nonpayable","type":"constructor"},{"inputs":[],"name":"ApprovalCallerNotOwnerNorApproved","type":"error"},{"inputs":[],"name":"ApprovalQueryForNonexistentToken","type":"error"},{"inputs":[],"name":"ApprovalToCurrentOwner","type":"error"},{"inputs":[],"name":"ApproveToCaller","type":"error"},{"inputs":[],"name":"BalanceQueryForZeroAddress","type":"error"},{"inputs":[],"name":"MintToZeroAddress","type":"error"},{"inputs":[],"name":"MintZeroQuantity","type":"error"},{"inputs":[],"name":"OwnerQueryForNonexistentToken","type":"error"},{"inputs":[],"name":"TransferCallerNotOwnerNorApproved","type":"error"},{"inputs":[],"name":"TransferFromIncorrectOwner","type":"error"},{"inputs":[],"name":"TransferToNonERC721ReceiverImplementer","type":"error"},{"inputs":[],"name":"TransferToZeroAddress","type":"error"},{"inputs":[],"name":"URIQueryForNonexistentToken","type":"error"},{"anonymous":false,"inputs":[{"indexed":true,"internalType":"address","name":"owner","type":"address"},{"indexed":true,"internalType":"address","name":"approved","type":"address"},{"indexed":true,"internalType":"uint256","name":"tokenId","type":"uint256"}],"name":"Approval","type":"event"},{"anonymous":false,"inputs":[{"indexed":true,"internalType":"address","name":"owner","type":"address"},{"indexed":true,"internalType":"address","name":"operator","type":"address"},{"indexed":false,"internalType":"bool","name":"approved","type":"bool"}],"name":"ApprovalForAll","type":"event"},{"anonymous":false,"inputs":[{"indexed":true,"internalType":"uint256","name":"id","type":"uint256"},{"indexed":false,"internalType":"string","name":"donationId","type":"string"}],"name":"DonationBurned","type":"event"},{"anonymous":false,"inputs":[{"indexed":true,"internalType":"uint256","name":"id","type":"uint256"},{"indexed":true,"internalType":"uint128","name":"destinationId","type":"uint128"},{"indexed":true,"internalType":"bytes32","name":"groupId","type":"bytes32"},{"indexed":false,"internalType":"contract IERC20","name":"token","type":"address"},{"indexed":false,"internalType":"uint256","name":"expiry","type":"uint256"},{"indexed":false,"internalType":"uint256","name":"amount","type":"uint256"},{"indexed":false,"internalType":"address","name":"owner","type":"address"},{"indexed":false,"internalType":"string","name":"donationId","type":"string"}],"name":"DonationMinted","type":"event"},{"anonymous":false,"inputs":[{"indexed":true,"internalType":"uint128","name":"destinationId","type":"uint128"},{"indexed":true,"internalType":"contract IERC20","name":"token","type":"address"},{"indexed":true,"internalType":"address","name":"to","type":"address"},{"indexed":false,"internalType":"uint256","name":"amount","type":"uint256"}],"name":"DonationsSent","type":"event"},{"anonymous":false,"inputs":[{"indexed":true,"internalType":"bytes32","name":"role","type":"bytes32"},{"indexed":true,"internalType":"bytes32","name":"previousAdminRole","type":"bytes32"},{"indexed":true,"internalType":"bytes32","name":"newAdminRole","type":"bytes32"}],"name":"RoleAdminChanged","type":"event"},{"anonymous":false,"inputs":[{"indexed":true,"internalType":"bytes32","name":"role","type":"bytes32"},{"indexed":true,"internalType":"address","name":"account","type":"address"},{"indexed":true,"internalType":"address","name":"sender","type":"address"}],"name":"RoleGranted","type":"event"},{"anonymous":false,"inputs":[{"indexed":true,"internalType":"bytes32","name":"role","type":"bytes32"},{"indexed":true,"internalType":"address","name":"account","type":"address"},{"indexed":true,"internalType":"address","name":"sender","type":"address"}],"name":"RoleRevoked","type":"event"},{"anonymous":false,"inputs":[{"indexed":false,"internalType":"uint64","name":"ttl","type":"uint64"}],"name":"TTLUpdated","type":"event"},{"anonymous":false,"inputs":[{"indexed":true,"internalType":"address","name":"from","type":"address"},{"indexed":true,"internalType":"address","name":"to","type":"address"},{"indexed":true,"internalType":"uint256","name":"tokenId","type":"uint256"}],"name":"Transfer","type":"event"},{"inputs":[],"name":"DEFAULT_ADMIN_ROLE","outputs":[{"internalType":"bytes32","name":"","type":"bytes32"}],"stateMutability":"view","type":"function"},{"inputs":[],"name":"WORKER_ROLE","outputs":[{"internalType":"bytes32","name":"","type":"bytes32"}],"stateMutability":"view","type":"function"},{"inputs":[{"internalType":"address","name":"to","type":"address"},{"internalType":"uint256","name":"tokenId","type":"uint256"}],"name":"approve","outputs":[],"stateMutability":"nonpayable","type":"function"},{"inputs":[{"internalType":"address","name":"owner","type":"address"}],"name":"balanceOf","outputs":[{"internalType":"uint256","name":"","type":"uint256"}],"stateMutability":"view","type":"function"},{"inputs":[{"internalType":"uint256","name":"_id","type":"uint256"},{"internalType":"string","name":"donationId","type":"string"}],"name":"burn","outputs":[],"stateMutability":"nonpayable","type":"function"},{"inputs":[{"internalType":"uint256[]","name":"_ids","type":"uint256[]"},{"internalType":"string[]","name":"donationIds","type":"string[]"}],"name":"burnBatch","outputs":[],"stateMutability":"nonpayable","type":"function"},{"inputs":[{"internalType":"uint128","name":"_destinationId","type":"uint128"},{"internalType":"contract IERC20","name":"_token","type":"address"},{"internalType":"address","name":"_to","type":"address"}],"name":"donate","outputs":[],"stateMutability":"nonpayable","type":"function"},{"inputs":[{"internalType":"uint256","name":"tokenId","type":"uint256"}],"name":"getApproved","outputs":[{"internalType":"address","name":"","type":"address"}],"stateMutability":"view","type":"function"},{"inputs":[{"internalType":"bytes32","name":"role","type":"bytes32"}],"name":"getRoleAdmin","outputs":[{"internalType":"bytes32","name":"","type":"bytes32"}],"stateMutability":"view","type":"function"},{"inputs":[{"internalType":"bytes32","name":"role","type":"bytes32"},{"internalType":"address","name":"account","type":"address"}],"name":"grantRole","outputs":[],"stateMutability":"nonpayable","type":"function"},{"inputs":[{"internalType":"bytes32","name":"role","type":"bytes32"},{"internalType":"address","name":"account","type":"address"}],"name":"hasRole","outputs":[{"internalType":"bool","name":"","type":"bool"}],"stateMutability":"view","type":"function"},{"inputs":[{"internalType":"address","name":"owner","type":"address"},{"internalType":"address","name":"operator","type":"address"}],"name":"isApprovedForAll","outputs":[{"internalType":"bool","name":"","type":"bool"}],"stateMutability":"view","type":"function"},{"inputs":[{"internalType":"uint256","name":"","type":"uint256"}],"name":"metadata","outputs":[{"internalType":"uint128","name":"destinationId","type":"uint128"},{"internalType":"uint64","name":"expiry","type":"uint64"},{"internalType":"contract IERC20","name":"token","type":"address"},{"internalType":"uint256","name":"amount","type":"uint256"}],"stateMutability":"view","type":"function"},{"inputs":[{"internalType":"bytes32","name":"_txHash","type":"bytes32"},{"internalType":"uint256","name":"_batchNr","type":"uint256"},{"components":[{"internalType":"uint128","name":"destinationId","type":"uint128"},{"internalType":"address","name":"owner","type":"address"},{"internalType":"contract IERC20","name":"token","type":"address"},{"internalType":"uint256","name":"amount","type":"uint256"},{"internalType":"string","name":"donationId","type":"string"}],"internalType":"struct Donations.DonationParams[]","name":"_params","type":"tuple[]"}],"name":"mint","outputs":[],"stateMutability":"nonpayable","type":"function"},{"inputs":[],"name":"name","outputs":[{"internalType":"string","name":"","type":"string"}],"stateMutability":"view","type":"function"},{"inputs":[{"internalType":"uint256","name":"tokenId","type":"uint256"}],"name":"ownerOf","outputs":[{"internalType":"address","name":"","type":"address"}],"stateMutability":"view","type":"function"},{"inputs":[{"internalType":"bytes32","name":"","type":"bytes32"}],"name":"processedDonationsGroups","outputs":[{"internalType":"bool","name":"","type":"bool"}],"stateMutability":"view","type":"function"},{"inputs":[{"internalType":"bytes32","name":"role","type":"bytes32"},{"internalType":"address","name":"account","type":"address"}],"name":"renounceRole","outputs":[],"stateMutability":"nonpayable","type":"function"},{"inputs":[{"internalType":"bytes32","name":"role","type":"bytes32"},{"internalType":"address","name":"account","type":"address"}],"name":"revokeRole","outputs":[],"stateMutability":"nonpayable","type":"function"},{"inputs":[{"internalType":"address","name":"from","type":"address"},{"internalType":"address","name":"to","type":"address"},{"internalType":"uint256","name":"tokenId","type":"uint256"}],"name":"safeTransferFrom","outputs":[],"stateMutability":"nonpayable","type":"function"},{"inputs":[{"internalType":"address","name":"from","type":"address"},{"internalType":"address","name":"to","type":"address"},{"internalType":"uint256","name":"tokenId","type":"uint256"},{"internalType":"bytes","name":"_data","type":"bytes"}],"name":"safeTransferFrom","outputs":[],"stateMutability":"nonpayable","type":"function"},{"inputs":[{"internalType":"address","name":"operator","type":"address"},{"internalType":"bool","name":"approved","type":"bool"}],"name":"setApprovalForAll","outputs":[],"stateMutability":"nonpayable","type":"function"},{"inputs":[{"internalType":"uint64","name":"_ttl","type":"uint64"}],"name":"setTTL","outputs":[],"stateMutability":"nonpayable","type":"function"},{"inputs":[{"internalType":"bytes4","name":"interfaceId","type":"bytes4"}],"name":"supportsInterface","outputs":[{"internalType":"bool","name":"","type":"bool"}],"stateMutability":"view","type":"function"},{"inputs":[],"name":"symbol","outputs":[{"internalType":"string","name":"","type":"string"}],"stateMutability":"view","type":"function"},{"inputs":[{"internalType":"uint256","name":"tokenId","type":"uint256"}],"name":"tokenURI","outputs":[{"internalType":"string","name":"","type":"string"}],"stateMutability":"view","type":"function"},{"inputs":[],"name":"totalSupply","outputs":[{"internalType":"uint256","name":"","type":"uint256"}],"stateMutability":"view","type":"function"},{"inputs":[{"internalType":"address","name":"from","type":"address"},{"internalType":"address","name":"to","type":"address"},{"internalType":"uint256","name":"tokenId","type":"uint256"}],"name":"transferFrom","outputs":[],"stateMutability":"nonpayable","type":"function"},{"inputs":[{"internalType":"contract IERC20","name":"","type":"address"},{"internalType":"uint128","name":"","type":"uint128"}],"name":"transferableAmounts","outputs":[{"internalType":"uint256","name":"","type":"uint256"}],"stateMutability":"view","type":"function"},{"inputs":[],"name":"ttl","outputs":[{"internalType":"uint64","name":"","type":"uint64"}],"stateMutability":"view","type":"function"}]}