{"address":"0xdf3079e3c5384a03aF7aBABDeC7824826C0ED890","bytecode":"0x608060405234801561001057600080fd5b50604051610ba0380380610ba083398101604081905261002f91610116565b6001600160a01b03821661007e5760405162461bcd60e51b815260206004820152601160248201527034b73b30b634b2102aa9aa103a37b5b2b760791b60448201526064015b60405180910390fd5b6001600160a01b0381166100c95760405162461bcd60e51b815260206004820152601260248201527134b73b30b634b21030aaa9aa103a37b5b2b760711b6044820152606401610075565b600080546001600160a01b039384166001600160a01b03199182161790915560018054929093169116179055610149565b80516001600160a01b038116811461011157600080fd5b919050565b6000806040838503121561012957600080fd5b610132836100fa565b9150610140602084016100fa565b90509250929050565b610a48806101586000396000f3fe608060405234801561001057600080fd5b50600436106100ea5760003560e01c8063a18b8f961161008c578063ac7e534e11610066578063ac7e534e146101e7578063bb0b8e1d146101fa578063e71f468d1461021a578063ed30abd11461023a57600080fd5b8063a18b8f9614610193578063a8a15a21146101c1578063ac1a2322146101d457600080fd5b80637249abb9116100c85780637249abb914610147578063781338c01461015a5780638278749b1461016d578063949103471461018057600080fd5b806307caf901146100ef5780631bbec15e1461011f57806333d7841e14610132575b600080fd5b6101026100fd3660046108fb565b61025a565b6040516001600160a01b0390911681526020015b60405180910390f35b600154610102906001600160a01b031681565b610145610140366004610930565b6102cd565b005b61014561015536600461095a565b610330565b600054610102906001600160a01b031681565b61014561017b36600461095a565b610373565b61014561018e366004610930565b6103fd565b6101b36101a136600461095a565b60036020526000908152604090205481565b604051908152602001610116565b6101026101cf3660046108fb565b610460565b6101456101e236600461095a565b61053c565b600254610102906001600160a01b031681565b6101b361020836600461095a565b60046020526000908152604090205481565b6101b361022836600461095a565b60066020526000908152604090205481565b6101b361024836600461095a565b60056020526000908152604090205481565b6002546000906001600160a01b031661027257600080fd5b60015461028a906001600160a01b0316333085610580565b50600280546001600160a01b03908116600090815260046020526040902092909255805473ffffffffffffffffffffffffffffffffffffffff1981169091551690565b6001600160a01b0382166000908152600460205260409020546102ef57600080fd5b600054610307906001600160a01b0316333084610580565b6001600160a01b0390911660009081526004602090815260408083208390556006909152902055565b6001600160a01b0380821660009081526006602052604081205490546103599216903390610637565b6001600160a01b0316600090815260066020526040812055565b6001600160a01b0381166103ce5760405162461bcd60e51b815260206004820152601060248201527f696e76616c6964206f70657261746f720000000000000000000000000000000060448201526064015b60405180910390fd5b6002805473ffffffffffffffffffffffffffffffffffffffff19166001600160a01b0392909216919091179055565b6001600160a01b03821660009081526003602052604090205461041f57600080fd5b600154610437906001600160a01b0316333084610580565b6001600160a01b0390911660009081526003602090815260408083208390556005909152902055565b6002546000906001600160a01b03166104e15760405162461bcd60e51b815260206004820152602660248201527f70656e64696e674f70657261746f722063616e6e6f74206265206e756c6c206160448201527f646472657373000000000000000000000000000000000000000000000000000060648201526084016103c5565b6000546104f9906001600160a01b0316333085610580565b50600280546001600160a01b03908116600090815260036020526040902092909255805473ffffffffffffffffffffffffffffffffffffffff1981169091551690565b6001600160a01b038082166000908152600560205260409020546001546105669216903390610637565b6001600160a01b0316600090815260056020526040812055565b6040516001600160a01b03808516602483015283166044820152606481018290526106319085907f23b872dd00000000000000000000000000000000000000000000000000000000906084015b60408051601f198184030181529190526020810180517bffffffffffffffffffffffffffffffffffffffffffffffffffffffff167fffffffff0000000000000000000000000000000000000000000000000000000090931692909217909152610685565b50505050565b6040516001600160a01b0383166024820152604481018290526106809084907fa9059cbb00000000000000000000000000000000000000000000000000000000906064016105cd565b505050565b60006106da826040518060400160405280602081526020017f5361666545524332303a206c6f772d6c6576656c2063616c6c206661696c6564815250856001600160a01b031661076a9092919063ffffffff16565b80519091501561068057808060200190518101906106f89190610975565b6106805760405162461bcd60e51b815260206004820152602a60248201527f5361666545524332303a204552433230206f7065726174696f6e20646964206e60448201527f6f7420737563636565640000000000000000000000000000000000000000000060648201526084016103c5565b60606107798484600085610783565b90505b9392505050565b6060824710156107fb5760405162461bcd60e51b815260206004820152602660248201527f416464726573733a20696e73756666696369656e742062616c616e636520666f60448201527f722063616c6c000000000000000000000000000000000000000000000000000060648201526084016103c5565b843b6108495760405162461bcd60e51b815260206004820152601d60248201527f416464726573733a2063616c6c20746f206e6f6e2d636f6e747261637400000060448201526064016103c5565b600080866001600160a01b0316858760405161086591906109c3565b60006040518083038185875af1925050503d80600081146108a2576040519150601f19603f3d011682016040523d82523d6000602084013e6108a7565b606091505b50915091506108b78282866108c2565b979650505050505050565b606083156108d157508161077c565b8251156108e15782518084602001fd5b8160405162461bcd60e51b81526004016103c591906109df565b60006020828403121561090d57600080fd5b5035919050565b80356001600160a01b038116811461092b57600080fd5b919050565b6000806040838503121561094357600080fd5b61094c83610914565b946020939093013593505050565b60006020828403121561096c57600080fd5b61077c82610914565b60006020828403121561098757600080fd5b8151801515811461077c57600080fd5b60005b838110156109b257818101518382015260200161099a565b838111156106315750506000910152565b600082516109d5818460208701610997565b9190910192915050565b60208152600082518060208401526109fe816040850160208701610997565b601f01601f1916919091016040019291505056fea2646970667358221220d3fe35aea601aeb68a1ef4f07e95f3ad9f5b25106be6b2ca91f8cb6725c5a1d064736f6c634300080a0033","abi":[{"inputs":[{"internalType":"contract IERC20","name":"_ustToken","type":"address"},{"internalType":"contract IERC20","name":"_aUstToken","type":"address"}],"stateMutability":"nonpayable","type":"constructor"},{"inputs":[],"name":"aUstToken","outputs":[{"internalType":"contract IERC20","name":"","type":"address"}],"stateMutability":"view","type":"function"},{"inputs":[{"internalType":"address","name":"_operator","type":"address"}],"name":"addPendingOperator","outputs":[],"stateMutability":"nonpayable","type":"function"},{"inputs":[{"internalType":"address","name":"","type":"address"}],"name":"depositFinishResults","outputs":[{"internalType":"uint256","name":"","type":"uint256"}],"stateMutability":"view","type":"function"},{"inputs":[{"internalType":"address","name":"","type":"address"}],"name":"depositOperations","outputs":[{"internalType":"uint256","name":"","type":"uint256"}],"stateMutability":"view","type":"function"},{"inputs":[{"internalType":"address","name":"_operation","type":"address"}],"name":"finishDepositStable","outputs":[],"stateMutability":"nonpayable","type":"function"},{"inputs":[{"internalType":"address","name":"_operation","type":"address"}],"name":"finishRedeemStable","outputs":[],"stateMutability":"nonpayable","type":"function"},{"inputs":[{"internalType":"uint256","name":"_amount","type":"uint256"}],"name":"initDepositStable","outputs":[{"internalType":"address","name":"operator","type":"address"}],"stateMutability":"nonpayable","type":"function"},{"inputs":[{"internalType":"uint256","name":"_amount","type":"uint256"}],"name":"initRedeemStable","outputs":[{"internalType":"address","name":"operator","type":"address"}],"stateMutability":"nonpayable","type":"function"},{"inputs":[{"internalType":"address","name":"_operation","type":"address"},{"internalType":"uint256","name":"_amount","type":"uint256"}],"name":"notifyDepositResult","outputs":[],"stateMutability":"nonpayable","type":"function"},{"inputs":[{"internalType":"address","name":"_operation","type":"address"},{"internalType":"uint256","name":"_amount","type":"uint256"}],"name":"notifyRedeemResult","outputs":[],"stateMutability":"nonpayable","type":"function"},{"inputs":[],"name":"pendingOperator","outputs":[{"internalType":"address","name":"","type":"address"}],"stateMutability":"view","type":"function"},{"inputs":[{"internalType":"address","name":"","type":"address"}],"name":"redeemFinishResults","outputs":[{"internalType":"uint256","name":"","type":"uint256"}],"stateMutability":"view","type":"function"},{"inputs":[{"internalType":"address","name":"","type":"address"}],"name":"redeemOperations","outputs":[{"internalType":"uint256","name":"","type":"uint256"}],"stateMutability":"view","type":"function"},{"inputs":[],"name":"ustToken","outputs":[{"internalType":"contract IERC20","name":"","type":"address"}],"stateMutability":"view","type":"function"}]}