{
  "address": "0x173952f281fFe8e2d190C9BB5C30c1E8A21C6bC1",
  "abi": [
    {
      "inputs": [
        {
          "internalType": "address",
          "name": "_owner",
          "type": "address"
        }
      ],
      "stateMutability": "nonpayable",
      "type": "constructor"
    },
    {
      "anonymous": false,
      "inputs": [
        {
          "indexed": true,
          "internalType": "address",
          "name": "owner",
          "type": "address"
        },
        {
          "indexed": true,
          "internalType": "address",
          "name": "approved",
          "type": "address"
        },
        {
          "indexed": true,
          "internalType": "uint256",
          "name": "tokenId",
          "type": "uint256"
        }
      ],
      "name": "Approval",
      "type": "event"
    },
    {
      "anonymous": false,
      "inputs": [
        {
          "indexed": true,
          "internalType": "address",
          "name": "owner",
          "type": "address"
        },
        {
          "indexed": true,
          "internalType": "address",
          "name": "operator",
          "type": "address"
        },
        {
          "indexed": false,
          "internalType": "bool",
          "name": "approved",
          "type": "bool"
        }
      ],
      "name": "ApprovalForAll",
      "type": "event"
    },
    {
      "anonymous": false,
      "inputs": [
        {
          "indexed": true,
          "internalType": "uint256",
          "name": "id",
          "type": "uint256"
        },
        {
          "indexed": false,
          "internalType": "string",
          "name": "donationId",
          "type": "string"
        }
      ],
      "name": "DonationBurned",
      "type": "event"
    },
    {
      "anonymous": false,
      "inputs": [
        {
          "indexed": true,
          "internalType": "uint256",
          "name": "id",
          "type": "uint256"
        },
        {
          "indexed": true,
          "internalType": "uint128",
          "name": "destinationId",
          "type": "uint128"
        },
        {
          "indexed": true,
          "internalType": "bytes32",
          "name": "groupId",
          "type": "bytes32"
        },
        {
          "indexed": false,
          "internalType": "contract IERC20",
          "name": "token",
          "type": "address"
        },
        {
          "indexed": false,
          "internalType": "uint256",
          "name": "expiry",
          "type": "uint256"
        },
        {
          "indexed": false,
          "internalType": "uint256",
          "name": "amount",
          "type": "uint256"
        },
        {
          "indexed": false,
          "internalType": "address",
          "name": "owner",
          "type": "address"
        },
        {
          "indexed": false,
          "internalType": "string",
          "name": "donationId",
          "type": "string"
        }
      ],
      "name": "DonationMinted",
      "type": "event"
    },
    {
      "anonymous": false,
      "inputs": [
        {
          "indexed": true,
          "internalType": "uint128",
          "name": "destinationId",
          "type": "uint128"
        },
        {
          "indexed": true,
          "internalType": "contract IERC20",
          "name": "token",
          "type": "address"
        },
        {
          "indexed": true,
          "internalType": "address",
          "name": "to",
          "type": "address"
        },
        {
          "indexed": false,
          "internalType": "uint256",
          "name": "amount",
          "type": "uint256"
        }
      ],
      "name": "DonationsSent",
      "type": "event"
    },
    {
      "anonymous": false,
      "inputs": [
        {
          "indexed": true,
          "internalType": "bytes32",
          "name": "role",
          "type": "bytes32"
        },
        {
          "indexed": true,
          "internalType": "bytes32",
          "name": "previousAdminRole",
          "type": "bytes32"
        },
        {
          "indexed": true,
          "internalType": "bytes32",
          "name": "newAdminRole",
          "type": "bytes32"
        }
      ],
      "name": "RoleAdminChanged",
      "type": "event"
    },
    {
      "anonymous": false,
      "inputs": [
        {
          "indexed": true,
          "internalType": "bytes32",
          "name": "role",
          "type": "bytes32"
        },
        {
          "indexed": true,
          "internalType": "address",
          "name": "account",
          "type": "address"
        },
        {
          "indexed": true,
          "internalType": "address",
          "name": "sender",
          "type": "address"
        }
      ],
      "name": "RoleGranted",
      "type": "event"
    },
    {
      "anonymous": false,
      "inputs": [
        {
          "indexed": true,
          "internalType": "bytes32",
          "name": "role",
          "type": "bytes32"
        },
        {
          "indexed": true,
          "internalType": "address",
          "name": "account",
          "type": "address"
        },
        {
          "indexed": true,
          "internalType": "address",
          "name": "sender",
          "type": "address"
        }
      ],
      "name": "RoleRevoked",
      "type": "event"
    },
    {
      "anonymous": false,
      "inputs": [
        {
          "indexed": false,
          "internalType": "uint64",
          "name": "ttl",
          "type": "uint64"
        }
      ],
      "name": "TTLUpdated",
      "type": "event"
    },
    {
      "anonymous": false,
      "inputs": [
        {
          "indexed": true,
          "internalType": "address",
          "name": "from",
          "type": "address"
        },
        {
          "indexed": true,
          "internalType": "address",
          "name": "to",
          "type": "address"
        },
        {
          "indexed": true,
          "internalType": "uint256",
          "name": "tokenId",
          "type": "uint256"
        }
      ],
      "name": "Transfer",
      "type": "event"
    },
    {
      "inputs": [],
      "name": "DEFAULT_ADMIN_ROLE",
      "outputs": [
        {
          "internalType": "bytes32",
          "name": "",
          "type": "bytes32"
        }
      ],
      "stateMutability": "view",
      "type": "function"
    },
    {
      "inputs": [],
      "name": "WORKER_ROLE",
      "outputs": [
        {
          "internalType": "bytes32",
          "name": "",
          "type": "bytes32"
        }
      ],
      "stateMutability": "view",
      "type": "function"
    },
    {
      "inputs": [
        {
          "internalType": "address",
          "name": "to",
          "type": "address"
        },
        {
          "internalType": "uint256",
          "name": "tokenId",
          "type": "uint256"
        }
      ],
      "name": "approve",
      "outputs": [],
      "stateMutability": "nonpayable",
      "type": "function"
    },
    {
      "inputs": [
        {
          "internalType": "address",
          "name": "owner",
          "type": "address"
        }
      ],
      "name": "balanceOf",
      "outputs": [
        {
          "internalType": "uint256",
          "name": "",
          "type": "uint256"
        }
      ],
      "stateMutability": "view",
      "type": "function"
    },
    {
      "inputs": [
        {
          "internalType": "uint256",
          "name": "_id",
          "type": "uint256"
        },
        {
          "internalType": "string",
          "name": "donationId",
          "type": "string"
        }
      ],
      "name": "burn",
      "outputs": [],
      "stateMutability": "nonpayable",
      "type": "function"
    },
    {
      "inputs": [
        {
          "internalType": "uint256[]",
          "name": "_ids",
          "type": "uint256[]"
        },
        {
          "internalType": "string[]",
          "name": "donationIds",
          "type": "string[]"
        }
      ],
      "name": "burnBatch",
      "outputs": [],
      "stateMutability": "nonpayable",
      "type": "function"
    },
    {
      "inputs": [
        {
          "internalType": "uint128",
          "name": "_destinationId",
          "type": "uint128"
        },
        {
          "internalType": "contract IERC20",
          "name": "_token",
          "type": "address"
        },
        {
          "internalType": "address",
          "name": "_to",
          "type": "address"
        }
      ],
      "name": "donate",
      "outputs": [],
      "stateMutability": "nonpayable",
      "type": "function"
    },
    {
      "inputs": [
        {
          "internalType": "uint256",
          "name": "tokenId",
          "type": "uint256"
        }
      ],
      "name": "getApproved",
      "outputs": [
        {
          "internalType": "address",
          "name": "",
          "type": "address"
        }
      ],
      "stateMutability": "view",
      "type": "function"
    },
    {
      "inputs": [
        {
          "internalType": "bytes32",
          "name": "role",
          "type": "bytes32"
        }
      ],
      "name": "getRoleAdmin",
      "outputs": [
        {
          "internalType": "bytes32",
          "name": "",
          "type": "bytes32"
        }
      ],
      "stateMutability": "view",
      "type": "function"
    },
    {
      "inputs": [
        {
          "internalType": "bytes32",
          "name": "role",
          "type": "bytes32"
        },
        {
          "internalType": "address",
          "name": "account",
          "type": "address"
        }
      ],
      "name": "grantRole",
      "outputs": [],
      "stateMutability": "nonpayable",
      "type": "function"
    },
    {
      "inputs": [
        {
          "internalType": "bytes32",
          "name": "role",
          "type": "bytes32"
        },
        {
          "internalType": "address",
          "name": "account",
          "type": "address"
        }
      ],
      "name": "hasRole",
      "outputs": [
        {
          "internalType": "bool",
          "name": "",
          "type": "bool"
        }
      ],
      "stateMutability": "view",
      "type": "function"
    },
    {
      "inputs": [
        {
          "internalType": "address",
          "name": "owner",
          "type": "address"
        },
        {
          "internalType": "address",
          "name": "operator",
          "type": "address"
        }
      ],
      "name": "isApprovedForAll",
      "outputs": [
        {
          "internalType": "bool",
          "name": "",
          "type": "bool"
        }
      ],
      "stateMutability": "view",
      "type": "function"
    },
    {
      "inputs": [
        {
          "internalType": "uint256",
          "name": "",
          "type": "uint256"
        }
      ],
      "name": "metadata",
      "outputs": [
        {
          "internalType": "uint128",
          "name": "destinationId",
          "type": "uint128"
        },
        {
          "internalType": "uint64",
          "name": "expiry",
          "type": "uint64"
        },
        {
          "internalType": "contract IERC20",
          "name": "token",
          "type": "address"
        },
        {
          "internalType": "uint256",
          "name": "amount",
          "type": "uint256"
        }
      ],
      "stateMutability": "view",
      "type": "function"
    },
    {
      "inputs": [
        {
          "internalType": "bytes32",
          "name": "_txHash",
          "type": "bytes32"
        },
        {
          "internalType": "uint256",
          "name": "_batchNr",
          "type": "uint256"
        },
        {
          "components": [
            {
              "internalType": "uint128",
              "name": "destinationId",
              "type": "uint128"
            },
            {
              "internalType": "address",
              "name": "owner",
              "type": "address"
            },
            {
              "internalType": "contract IERC20",
              "name": "token",
              "type": "address"
            },
            {
              "internalType": "uint256",
              "name": "amount",
              "type": "uint256"
            },
            {
              "internalType": "string",
              "name": "donationId",
              "type": "string"
            }
          ],
          "internalType": "struct Donations.DonationParams[]",
          "name": "_params",
          "type": "tuple[]"
        }
      ],
      "name": "mint",
      "outputs": [],
      "stateMutability": "nonpayable",
      "type": "function"
    },
    {
      "inputs": [],
      "name": "name",
      "outputs": [
        {
          "internalType": "string",
          "name": "",
          "type": "string"
        }
      ],
      "stateMutability": "view",
      "type": "function"
    },
    {
      "inputs": [
        {
          "internalType": "uint256",
          "name": "tokenId",
          "type": "uint256"
        }
      ],
      "name": "ownerOf",
      "outputs": [
        {
          "internalType": "address",
          "name": "",
          "type": "address"
        }
      ],
      "stateMutability": "view",
      "type": "function"
    },
    {
      "inputs": [
        {
          "internalType": "bytes32",
          "name": "",
          "type": "bytes32"
        }
      ],
      "name": "processedDonationsGroups",
      "outputs": [
        {
          "internalType": "bool",
          "name": "",
          "type": "bool"
        }
      ],
      "stateMutability": "view",
      "type": "function"
    },
    {
      "inputs": [
        {
          "internalType": "bytes32",
          "name": "role",
          "type": "bytes32"
        },
        {
          "internalType": "address",
          "name": "account",
          "type": "address"
        }
      ],
      "name": "renounceRole",
      "outputs": [],
      "stateMutability": "nonpayable",
      "type": "function"
    },
    {
      "inputs": [
        {
          "internalType": "bytes32",
          "name": "role",
          "type": "bytes32"
        },
        {
          "internalType": "address",
          "name": "account",
          "type": "address"
        }
      ],
      "name": "revokeRole",
      "outputs": [],
      "stateMutability": "nonpayable",
      "type": "function"
    },
    {
      "inputs": [
        {
          "internalType": "address",
          "name": "from",
          "type": "address"
        },
        {
          "internalType": "address",
          "name": "to",
          "type": "address"
        },
        {
          "internalType": "uint256",
          "name": "tokenId",
          "type": "uint256"
        }
      ],
      "name": "safeTransferFrom",
      "outputs": [],
      "stateMutability": "nonpayable",
      "type": "function"
    },
    {
      "inputs": [
        {
          "internalType": "address",
          "name": "from",
          "type": "address"
        },
        {
          "internalType": "address",
          "name": "to",
          "type": "address"
        },
        {
          "internalType": "uint256",
          "name": "tokenId",
          "type": "uint256"
        },
        {
          "internalType": "bytes",
          "name": "data",
          "type": "bytes"
        }
      ],
      "name": "safeTransferFrom",
      "outputs": [],
      "stateMutability": "nonpayable",
      "type": "function"
    },
    {
      "inputs": [
        {
          "internalType": "address",
          "name": "operator",
          "type": "address"
        },
        {
          "internalType": "bool",
          "name": "approved",
          "type": "bool"
        }
      ],
      "name": "setApprovalForAll",
      "outputs": [],
      "stateMutability": "nonpayable",
      "type": "function"
    },
    {
      "inputs": [
        {
          "internalType": "uint64",
          "name": "_ttl",
          "type": "uint64"
        }
      ],
      "name": "setTTL",
      "outputs": [],
      "stateMutability": "nonpayable",
      "type": "function"
    },
    {
      "inputs": [
        {
          "internalType": "bytes4",
          "name": "interfaceId",
          "type": "bytes4"
        }
      ],
      "name": "supportsInterface",
      "outputs": [
        {
          "internalType": "bool",
          "name": "",
          "type": "bool"
        }
      ],
      "stateMutability": "view",
      "type": "function"
    },
    {
      "inputs": [],
      "name": "symbol",
      "outputs": [
        {
          "internalType": "string",
          "name": "",
          "type": "string"
        }
      ],
      "stateMutability": "view",
      "type": "function"
    },
    {
      "inputs": [
        {
          "internalType": "uint256",
          "name": "tokenId",
          "type": "uint256"
        }
      ],
      "name": "tokenURI",
      "outputs": [
        {
          "internalType": "string",
          "name": "",
          "type": "string"
        }
      ],
      "stateMutability": "view",
      "type": "function"
    },
    {
      "inputs": [
        {
          "internalType": "address",
          "name": "from",
          "type": "address"
        },
        {
          "internalType": "address",
          "name": "to",
          "type": "address"
        },
        {
          "internalType": "uint256",
          "name": "tokenId",
          "type": "uint256"
        }
      ],
      "name": "transferFrom",
      "outputs": [],
      "stateMutability": "nonpayable",
      "type": "function"
    },
    {
      "inputs": [
        {
          "internalType": "contract IERC20",
          "name": "",
          "type": "address"
        },
        {
          "internalType": "uint128",
          "name": "",
          "type": "uint128"
        }
      ],
      "name": "transferableAmounts",
      "outputs": [
        {
          "internalType": "uint256",
          "name": "",
          "type": "uint256"
        }
      ],
      "stateMutability": "view",
      "type": "function"
    },
    {
      "inputs": [],
      "name": "ttl",
      "outputs": [
        {
          "internalType": "uint64",
          "name": "",
          "type": "uint64"
        }
      ],
      "stateMutability": "view",
      "type": "function"
    }
  ],
  "transactionHash": "0xdaa750089db0b47572671861c463adea78a242709f67e41121349a314577d187",
  "args": [
    "0x8f592F2594C43eA30879f9fbED4d930248D81D41"
  ],
  "numDeployments": 2,
  "solcInputHash": "506e4d701ff4cad88a6318a359a18fdb",
  "bytecode": "0x6080604052600980546001600160401b03191662ed4e001790553480156200002657600080fd5b5060405162002fcb38038062002fcb8339810160408190526200004991620002a3565b604080518082018252601281527129b0b73231b637b1b5902237b730ba34b7b760711b602080830191825283518085019094526009845268446f6e6174696f6e7360b81b908401528151919291620000a491600091620001fd565b508051620000ba906001906020840190620001fd565b5050506001600160a01b038116620001185760405162461bcd60e51b815260206004820152601a60248201527f5661756c743a206f776e65722063616e6e6f7420626520307830000000000000604482015260640160405180910390fd5b6200012560008262000158565b620001517ff1b411d6abb365480ac902cc153c45e9ded5847a2265ce6d01945d253edb6bc78262000158565b5062000312565b60008281526006602090815260408083206001600160a01b038516845290915290205460ff16620001f95760008281526006602090815260408083206001600160a01b03851684529091529020805460ff19166001179055620001b83390565b6001600160a01b0316816001600160a01b0316837f2f8788117e7eff1d82e926ec794901d17c78024a50270940304540a733656f0d60405160405180910390a45b5050565b8280546200020b90620002d5565b90600052602060002090601f0160209004810192826200022f57600085556200027a565b82601f106200024a57805160ff19168380011785556200027a565b828001600101855582156200027a579182015b828111156200027a5782518255916020019190600101906200025d565b50620002889291506200028c565b5090565b5b808211156200028857600081556001016200028d565b600060208284031215620002b657600080fd5b81516001600160a01b0381168114620002ce57600080fd5b9392505050565b600181811c90821680620002ea57607f821691505b602082108114156200030c57634e487b7160e01b600052602260045260246000fd5b50919050565b612ca980620003226000396000f3fe608060405234801561001057600080fd5b50600436106101cf5760003560e01c806370a0823111610104578063a22cb465116100a2578063d824891011610071578063d824891014610464578063e253abdf14610477578063e3684e391461048a578063e985e9c51461051f57600080fd5b8063a22cb46514610418578063b88d4fde1461042b578063c87b56dd1461043e578063d547741f1461045157600080fd5b806391d14854116100de57806391d14854146103a457806395d89b41146103dd57806398831192146103e5578063a217fddf1461041057600080fd5b806370a082311461036b5780637641e6f31461037e5780637cdb74951461039157600080fd5b8063248a9ca31161017157806342842e0e1161014b57806342842e0e146102f15780634e8b1dd514610304578063634252dc146103315780636352211e1461035857600080fd5b8063248a9ca31461029a5780632f2ff15d146102cb57806336568abe146102de57600080fd5b8063081812fc116101ad578063081812fc14610226578063095ea7b31461025157806323b872dd146102645780632408ee801461027757600080fd5b806301ffc9a7146101d457806306f2a6be146101fc57806306fdde0314610211575b600080fd5b6101e76101e2366004612414565b61055b565b60405190151581526020015b60405180910390f35b61020f61020a36600461247d565b61056c565b005b6102196106a2565b6040516101f39190612541565b610239610234366004612554565b610734565b6040516001600160a01b0390911681526020016101f3565b61020f61025f366004612582565b61075b565b61020f6102723660046125ae565b610892565b6101e7610285366004612554565b600a6020526000908152604090205460ff1681565b6102bd6102a8366004612554565b60009081526006602052604090206001015490565b6040519081526020016101f3565b61020f6102d93660046125ef565b610909565b61020f6102ec3660046125ef565b61092e565b61020f6102ff3660046125ae565b6109ba565b6009546103189067ffffffffffffffff1681565b60405167ffffffffffffffff90911681526020016101f3565b6102bd7ff1b411d6abb365480ac902cc153c45e9ded5847a2265ce6d01945d253edb6bc781565b610239610366366004612554565b6109d5565b6102bd61037936600461261f565b610a3a565b61020f61038c36600461263c565b610ad4565b61020f61039f3660046126b8565b610c04565b6101e76103b23660046125ef565b60009182526006602090815260408084206001600160a01b0393909316845291905290205460ff1690565b610219610ffb565b6102bd6103f336600461271b565b600b60209081526000928352604080842090915290825290205481565b6102bd600081565b61020f61042636600461275e565b61100a565b61020f6104393660046127a2565b611015565b61021961044c366004612554565b611093565b61020f61045f3660046125ef565b611107565b61020f610472366004612882565b61112c565b61020f6104853660046128cb565b611251565b6104de610498366004612554565b6008602052600090815260409020805460018201546002909201546001600160801b03821692600160801b90920467ffffffffffffffff16916001600160a01b03169084565b604080516001600160801b03909516855267ffffffffffffffff90931660208501526001600160a01b039091169183019190915260608201526080016101f3565b6101e761052d3660046128f5565b6001600160a01b03918216600090815260056020908152604080832093909416825291909152205460ff1690565b6000610566826112b3565b92915050565b6000808067ffffffffffffffff421686825b818110156106965789898281811061059857610598612923565b602090810292909201356000818152600890935260409092208054929850965050600160801b900467ffffffffffffffff1683119350831561068657600285015460018601546001600160a01b03166000908152600b6020908152604080832089546001600160801b031684529091528120805490919061061a90849061294f565b909155506106299050866112f1565b857f6874c596aaaff0aa80bb2fa847845de413cb824db72206cecb813fdbffcb7cc889898481811061065d5761065d612923565b905060200281019061066f9190612967565b60405161067d9291906129d7565b60405180910390a25b61068f816129eb565b905061057e565b50505050505050505050565b6060600080546106b190612a06565b80601f01602080910402602001604051908101604052809291908181526020018280546106dd90612a06565b801561072a5780601f106106ff5761010080835404028352916020019161072a565b820191906000526020600020905b81548152906001019060200180831161070d57829003601f168201915b5050505050905090565b600061073f82611394565b506000908152600460205260409020546001600160a01b031690565b6000610766826109d5565b9050806001600160a01b0316836001600160a01b031614156107f55760405162461bcd60e51b815260206004820152602160248201527f4552433732313a20617070726f76616c20746f2063757272656e74206f776e6560448201527f720000000000000000000000000000000000000000000000000000000000000060648201526084015b60405180910390fd5b336001600160a01b03821614806108115750610811813361052d565b6108835760405162461bcd60e51b815260206004820152603d60248201527f4552433732313a20617070726f76652063616c6c6572206973206e6f7420746f60448201527f6b656e206f776e6572206f7220617070726f76656420666f7220616c6c00000060648201526084016107ec565b61088d83836113fb565b505050565b61089c3382611469565b6108fe5760405162461bcd60e51b815260206004820152602d60248201527f4552433732313a2063616c6c6572206973206e6f7420746f6b656e206f776e6560448201526c1c881bdc88185c1c1c9bdd9959609a1b60648201526084016107ec565b61088d8383836114e8565b600082815260066020526040902060010154610924816116ee565b61088d83836116f8565b6001600160a01b03811633146109ac5760405162461bcd60e51b815260206004820152602f60248201527f416363657373436f6e74726f6c3a2063616e206f6e6c792072656e6f756e636560448201527f20726f6c657320666f722073656c66000000000000000000000000000000000060648201526084016107ec565b6109b6828261179a565b5050565b61088d83838360405180602001604052806000815250611015565b6000818152600260205260408120546001600160a01b0316806105665760405162461bcd60e51b815260206004820152601860248201527f4552433732313a20696e76616c696420746f6b656e204944000000000000000060448201526064016107ec565b60006001600160a01b038216610ab85760405162461bcd60e51b815260206004820152602960248201527f4552433732313a2061646472657373207a65726f206973206e6f74206120766160448201527f6c6964206f776e6572000000000000000000000000000000000000000000000060648201526084016107ec565b506001600160a01b031660009081526003602052604090205490565b600033610ae0856109d5565b600086815260086020526040902080546001600160a01b039290921692909214925067ffffffffffffffff428116600160801b90920416108280610b215750805b610b6d5760405162461bcd60e51b815260206004820152601660248201527f446f6e6174696f6e733a206e6f7420616c6c6f7765640000000000000000000060448201526064016107ec565b600282015460018301546001600160a01b03166000908152600b6020908152604080832086546001600160801b0316845290915281208054909190610bb390849061294f565b90915550610bc29050866112f1565b857f6874c596aaaff0aa80bb2fa847845de413cb824db72206cecb813fdbffcb7cc88686604051610bf49291906129d7565b60405180910390a2505050505050565b7ff1b411d6abb365480ac902cc153c45e9ded5847a2265ce6d01945d253edb6bc7610c2e816116ee565b604080516020808201889052818301879052825180830384018152606090920183528151918101919091206000818152600a9092529190205460ff1615610cb75760405162461bcd60e51b815260206004820152601c60248201527f446f6e6174696f6e733a20616c72656164792070726f6365737365640000000060448201526064016107ec565b600954600090610cd19067ffffffffffffffff1642612a41565b600754909150849060005b82811015610fd557610ced826129eb565b91506040518060800160405280898984818110610d0c57610d0c612923565b9050602002810190610d1e9190612a6d565b610d2c906020810190612a8d565b6001600160801b031681526020018567ffffffffffffffff168152602001898984818110610d5c57610d5c612923565b9050602002810190610d6e9190612a6d565b610d7f90606081019060400161261f565b6001600160a01b03168152602001898984818110610d9f57610d9f612923565b9050602002810190610db19190612a6d565b606090810135909152600084815260086020908152604091829020845181549286015167ffffffffffffffff16600160801b027fffffffffffffffff0000000000000000000000000000000000000000000000009093166001600160801b0390911617919091178155908301516001820180546001600160a01b039092166001600160a01b0319909216919091179055910151600290910155610e88888883818110610e5f57610e5f612923565b9050602002810190610e719190612a6d565b610e8290604081019060200161261f565b8361181d565b84888883818110610e9b57610e9b612923565b9050602002810190610ead9190612a6d565b610ebb906020810190612a8d565b6001600160801b0316837fdacba2fa7b75fcde690c6d8dae704d859ebc3b89dae3cf49357d6a12a9e0193d8b8b86818110610ef857610ef8612923565b9050602002810190610f0a9190612a6d565b610f1b90606081019060400161261f565b888d8d88818110610f2e57610f2e612923565b9050602002810190610f409190612a6d565b606001358e8e89818110610f5657610f56612923565b9050602002810190610f689190612a6d565b610f7990604081019060200161261f565b8f8f8a818110610f8b57610f8b612923565b9050602002810190610f9d9190612a6d565b610fab906080810190612967565b604051610fbd96959493929190612aa8565b60405180910390a4610fce816129eb565b9050610cdc565b5060075550506000908152600a60205260409020805460ff191660011790555050505050565b6060600180546106b190612a06565b6109b63383836119b6565b61101f3383611469565b6110815760405162461bcd60e51b815260206004820152602d60248201527f4552433732313a2063616c6c6572206973206e6f7420746f6b656e206f776e6560448201526c1c881bdc88185c1c1c9bdd9959609a1b60648201526084016107ec565b61108d84848484611a85565b50505050565b606061109e82611394565b60006110b560408051602081019091526000815290565b905060008151116110d55760405180602001604052806000815250611100565b806110df84611b0e565b6040516020016110f0929190612af7565b6040516020818303038152906040525b9392505050565b600082815260066020526040902060010154611122816116ee565b61088d838361179a565b7ff1b411d6abb365480ac902cc153c45e9ded5847a2265ce6d01945d253edb6bc7611156816116ee565b6001600160a01b0383166000908152600b602090815260408083206001600160801b0388168452909152902054806111d05760405162461bcd60e51b815260206004820152601c60248201527f446f6e6174696f6e733a206e6f7468696e6720746f20646f6e6174650000000060448201526064016107ec565b6001600160a01b038481166000818152600b602090815260408083206001600160801b038b168085529083528184209390935551858152938716937f27c209b93a7fe87531993c3ce2ab9e352e1e022adb1088729759d043daa08757910160405180910390a461124a6001600160a01b0385168483611bb8565b5050505050565b600061125c816116ee565b6009805467ffffffffffffffff191667ffffffffffffffff84169081179091556040519081527f54578ea9dcb2f1fc35e2b4ff6947b808dfa81adf38483eaec4cde6d083cbcf519060200160405180910390a15050565b60006001600160e01b031982167f7965db0b000000000000000000000000000000000000000000000000000000001480610566575061056682611c38565b60006112fc826109d5565b905061130c816000846001611cd3565b611315826109d5565b600083815260046020908152604080832080546001600160a01b03199081169091556001600160a01b0385168085526003845282852080546000190190558785526002909352818420805490911690555192935084927fddf252ad1be2c89b69c2b068fc378daa952ba7f163c4a11628f55a4df523b3ef908390a45050565b6000818152600260205260409020546001600160a01b03166113f85760405162461bcd60e51b815260206004820152601860248201527f4552433732313a20696e76616c696420746f6b656e204944000000000000000060448201526064016107ec565b50565b600081815260046020526040902080546001600160a01b0319166001600160a01b0384169081179091558190611430826109d5565b6001600160a01b03167f8c5be1e5ebec7d5bd14f71427d1e84f3dd0314c0f7b2291e5b200ac8c7c3b92560405160405180910390a45050565b600080611475836109d5565b9050806001600160a01b0316846001600160a01b031614806114bc57506001600160a01b0380821660009081526005602090815260408083209388168352929052205460ff165b806114e05750836001600160a01b03166114d584610734565b6001600160a01b0316145b949350505050565b826001600160a01b03166114fb826109d5565b6001600160a01b03161461155f5760405162461bcd60e51b815260206004820152602560248201527f4552433732313a207472616e736665722066726f6d20696e636f72726563742060448201526437bbb732b960d91b60648201526084016107ec565b6001600160a01b0382166115da5760405162461bcd60e51b8152602060048201526024808201527f4552433732313a207472616e7366657220746f20746865207a65726f2061646460448201527f726573730000000000000000000000000000000000000000000000000000000060648201526084016107ec565b6115e78383836001611cd3565b826001600160a01b03166115fa826109d5565b6001600160a01b03161461165e5760405162461bcd60e51b815260206004820152602560248201527f4552433732313a207472616e736665722066726f6d20696e636f72726563742060448201526437bbb732b960d91b60648201526084016107ec565b600081815260046020908152604080832080546001600160a01b03199081169091556001600160a01b0387811680865260038552838620805460001901905590871680865283862080546001019055868652600290945282852080549092168417909155905184937fddf252ad1be2c89b69c2b068fc378daa952ba7f163c4a11628f55a4df523b3ef91a4505050565b6113f88133611d5b565b60008281526006602090815260408083206001600160a01b038516845290915290205460ff166109b65760008281526006602090815260408083206001600160a01b03851684529091529020805460ff191660011790556117563390565b6001600160a01b0316816001600160a01b0316837f2f8788117e7eff1d82e926ec794901d17c78024a50270940304540a733656f0d60405160405180910390a45050565b60008281526006602090815260408083206001600160a01b038516845290915290205460ff16156109b65760008281526006602090815260408083206001600160a01b0385168085529252808320805460ff1916905551339285917ff6391f5c32d9c69d2a47ea670b442974b53935d1edc7fd64eb21e047a839171b9190a45050565b6001600160a01b0382166118735760405162461bcd60e51b815260206004820181905260248201527f4552433732313a206d696e7420746f20746865207a65726f206164647265737360448201526064016107ec565b6000818152600260205260409020546001600160a01b0316156118d85760405162461bcd60e51b815260206004820152601c60248201527f4552433732313a20746f6b656e20616c7265616479206d696e7465640000000060448201526064016107ec565b6118e6600083836001611cd3565b6000818152600260205260409020546001600160a01b03161561194b5760405162461bcd60e51b815260206004820152601c60248201527f4552433732313a20746f6b656e20616c7265616479206d696e7465640000000060448201526064016107ec565b6001600160a01b038216600081815260036020908152604080832080546001019055848352600290915280822080546001600160a01b0319168417905551839291907fddf252ad1be2c89b69c2b068fc378daa952ba7f163c4a11628f55a4df523b3ef908290a45050565b816001600160a01b0316836001600160a01b03161415611a185760405162461bcd60e51b815260206004820152601960248201527f4552433732313a20617070726f766520746f2063616c6c65720000000000000060448201526064016107ec565b6001600160a01b03838116600081815260056020908152604080832094871680845294825291829020805460ff191686151590811790915591519182527f17307eab39ab6107e8899845ad3d59bd9653f200f220920489ca2b5937696c31910160405180910390a3505050565b611a908484846114e8565b611a9c84848484611dd0565b61108d5760405162461bcd60e51b815260206004820152603260248201527f4552433732313a207472616e7366657220746f206e6f6e20455243373231526560448201527f63656976657220696d706c656d656e746572000000000000000000000000000060648201526084016107ec565b60606000611b1b83611f24565b600101905060008167ffffffffffffffff811115611b3b57611b3b61278c565b6040519080825280601f01601f191660200182016040528015611b65576020820181803683370190505b5090508181016020015b600019017f3031323334353637383961626364656600000000000000000000000000000000600a86061a8153600a8504945084611bab57611bb0565b611b6f565b509392505050565b604080516001600160a01b038416602482015260448082018490528251808303909101815260649091019091526020810180517bffffffffffffffffffffffffffffffffffffffffffffffffffffffff167fa9059cbb0000000000000000000000000000000000000000000000000000000017905261088d908490612006565b60006001600160e01b031982167f80ac58cd000000000000000000000000000000000000000000000000000000001480611c9b57506001600160e01b031982167f5b5e139f00000000000000000000000000000000000000000000000000000000145b8061056657507f01ffc9a7000000000000000000000000000000000000000000000000000000006001600160e01b0319831614610566565b600181111561108d576001600160a01b03841615611d19576001600160a01b03841660009081526003602052604081208054839290611d13908490612b1d565b90915550505b6001600160a01b0383161561108d576001600160a01b03831660009081526003602052604081208054839290611d5090849061294f565b909155505050505050565b60008281526006602090815260408083206001600160a01b038516845290915290205460ff166109b657611d8e816120eb565b611d998360206120fd565b604051602001611daa929190612b34565b60408051601f198184030181529082905262461bcd60e51b82526107ec91600401612541565b60006001600160a01b0384163b15611f1957604051630a85bd0160e11b81526001600160a01b0385169063150b7a0290611e14903390899088908890600401612bb5565b6020604051808303816000875af1925050508015611e4f575060408051601f3d908101601f19168201909252611e4c91810190612bf1565b60015b611eff573d808015611e7d576040519150601f19603f3d011682016040523d82523d6000602084013e611e82565b606091505b508051611ef75760405162461bcd60e51b815260206004820152603260248201527f4552433732313a207472616e7366657220746f206e6f6e20455243373231526560448201527f63656976657220696d706c656d656e746572000000000000000000000000000060648201526084016107ec565b805181602001fd5b6001600160e01b031916630a85bd0160e11b1490506114e0565b506001949350505050565b6000807a184f03e93ff9f4daa797ed6e38ed64bf6a1f0100000000000000008310611f6d577a184f03e93ff9f4daa797ed6e38ed64bf6a1f010000000000000000830492506040015b6d04ee2d6d415b85acef81000000008310611f99576d04ee2d6d415b85acef8100000000830492506020015b662386f26fc100008310611fb757662386f26fc10000830492506010015b6305f5e1008310611fcf576305f5e100830492506008015b6127108310611fe357612710830492506004015b60648310611ff5576064830492506002015b600a83106105665760010192915050565b600061205b826040518060400160405280602081526020017f5361666545524332303a206c6f772d6c6576656c2063616c6c206661696c6564815250856001600160a01b03166122de9092919063ffffffff16565b80519091501561088d57808060200190518101906120799190612c0e565b61088d5760405162461bcd60e51b815260206004820152602a60248201527f5361666545524332303a204552433230206f7065726174696f6e20646964206e60448201527f6f7420737563636565640000000000000000000000000000000000000000000060648201526084016107ec565b60606105666001600160a01b03831660145b6060600061210c836002612c2b565b61211790600261294f565b67ffffffffffffffff81111561212f5761212f61278c565b6040519080825280601f01601f191660200182016040528015612159576020820181803683370190505b5090507f30000000000000000000000000000000000000000000000000000000000000008160008151811061219057612190612923565b60200101906001600160f81b031916908160001a9053507f7800000000000000000000000000000000000000000000000000000000000000816001815181106121db576121db612923565b60200101906001600160f81b031916908160001a90535060006121ff846002612c2b565b61220a90600161294f565b90505b600181111561228f577f303132333435363738396162636465660000000000000000000000000000000085600f166010811061224b5761224b612923565b1a60f81b82828151811061226157612261612923565b60200101906001600160f81b031916908160001a90535060049490941c9361228881612c4a565b905061220d565b5083156111005760405162461bcd60e51b815260206004820181905260248201527f537472696e67733a20686578206c656e67746820696e73756666696369656e7460448201526064016107ec565b60606114e0848460008585600080866001600160a01b031685876040516123059190612c61565b60006040518083038185875af1925050503d8060008114612342576040519150601f19603f3d011682016040523d82523d6000602084013e612347565b606091505b509150915061235887838387612363565b979650505050505050565b606083156123cf5782516123c8576001600160a01b0385163b6123c85760405162461bcd60e51b815260206004820152601d60248201527f416464726573733a2063616c6c20746f206e6f6e2d636f6e747261637400000060448201526064016107ec565b50816114e0565b6114e083838151156123e45781518083602001fd5b8060405162461bcd60e51b81526004016107ec9190612541565b6001600160e01b0319811681146113f857600080fd5b60006020828403121561242657600080fd5b8135611100816123fe565b60008083601f84011261244357600080fd5b50813567ffffffffffffffff81111561245b57600080fd5b6020830191508360208260051b850101111561247657600080fd5b9250929050565b6000806000806040858703121561249357600080fd5b843567ffffffffffffffff808211156124ab57600080fd5b6124b788838901612431565b909650945060208701359150808211156124d057600080fd5b506124dd87828801612431565b95989497509550505050565b60005b838110156125045781810151838201526020016124ec565b8381111561108d5750506000910152565b6000815180845261252d8160208601602086016124e9565b601f01601f19169290920160200192915050565b6020815260006111006020830184612515565b60006020828403121561256657600080fd5b5035919050565b6001600160a01b03811681146113f857600080fd5b6000806040838503121561259557600080fd5b82356125a08161256d565b946020939093013593505050565b6000806000606084860312156125c357600080fd5b83356125ce8161256d565b925060208401356125de8161256d565b929592945050506040919091013590565b6000806040838503121561260257600080fd5b8235915060208301356126148161256d565b809150509250929050565b60006020828403121561263157600080fd5b81356111008161256d565b60008060006040848603121561265157600080fd5b83359250602084013567ffffffffffffffff8082111561267057600080fd5b818601915086601f83011261268457600080fd5b81358181111561269357600080fd5b8760208285010111156126a557600080fd5b6020830194508093505050509250925092565b600080600080606085870312156126ce57600080fd5b8435935060208501359250604085013567ffffffffffffffff8111156126f357600080fd5b6124dd87828801612431565b80356001600160801b038116811461271657600080fd5b919050565b6000806040838503121561272e57600080fd5b82356127398161256d565b9150612747602084016126ff565b90509250929050565b80151581146113f857600080fd5b6000806040838503121561277157600080fd5b823561277c8161256d565b9150602083013561261481612750565b634e487b7160e01b600052604160045260246000fd5b600080600080608085870312156127b857600080fd5b84356127c38161256d565b935060208501356127d38161256d565b925060408501359150606085013567ffffffffffffffff808211156127f757600080fd5b818701915087601f83011261280b57600080fd5b81358181111561281d5761281d61278c565b604051601f8201601f19908116603f011681019083821181831017156128455761284561278c565b816040528281528a602084870101111561285e57600080fd5b82602086016020830137600060208483010152809550505050505092959194509250565b60008060006060848603121561289757600080fd5b6128a0846126ff565b925060208401356128b08161256d565b915060408401356128c08161256d565b809150509250925092565b6000602082840312156128dd57600080fd5b813567ffffffffffffffff8116811461110057600080fd5b6000806040838503121561290857600080fd5b82356129138161256d565b915060208301356126148161256d565b634e487b7160e01b600052603260045260246000fd5b634e487b7160e01b600052601160045260246000fd5b6000821982111561296257612962612939565b500190565b6000808335601e1984360301811261297e57600080fd5b83018035915067ffffffffffffffff82111561299957600080fd5b60200191503681900382131561247657600080fd5b81835281816020850137506000828201602090810191909152601f909101601f19169091010190565b6020815260006114e06020830184866129ae565b60006000198214156129ff576129ff612939565b5060010190565b600181811c90821680612a1a57607f821691505b60208210811415612a3b57634e487b7160e01b600052602260045260246000fd5b50919050565b600067ffffffffffffffff808316818516808303821115612a6457612a64612939565b01949350505050565b60008235609e19833603018112612a8357600080fd5b9190910192915050565b600060208284031215612a9f57600080fd5b611100826126ff565b60006001600160a01b03808916835267ffffffffffffffff8816602084015286604084015280861660608401525060a06080830152612aeb60a0830184866129ae565b98975050505050505050565b60008351612b098184602088016124e9565b835190830190612a648183602088016124e9565b600082821015612b2f57612b2f612939565b500390565b7f416363657373436f6e74726f6c3a206163636f756e7420000000000000000000815260008351612b6c8160178501602088016124e9565b7f206973206d697373696e6720726f6c65200000000000000000000000000000006017918401918201528351612ba98160288401602088016124e9565b01602801949350505050565b60006001600160a01b03808716835280861660208401525083604083015260806060830152612be76080830184612515565b9695505050505050565b600060208284031215612c0357600080fd5b8151611100816123fe565b600060208284031215612c2057600080fd5b815161110081612750565b6000816000190483118215151615612c4557612c45612939565b500290565b600081612c5957612c59612939565b506000190190565b60008251612a838184602087016124e956fea264697066735822122052173ab3111d5c43b61cab219aa5137c91516cf7239173060d05d7e95913ad5f64736f6c634300080a0033",
  "devdoc": {
    "kind": "dev",
    "methods": {
      "approve(address,uint256)": {
        "details": "See {IERC721-approve}."
      },
      "balanceOf(address)": {
        "details": "See {IERC721-balanceOf}."
      },
      "burn(uint256,string)": {
        "params": {
          "_id": "ID of the NFT."
        }
      },
      "burnBatch(uint256[],string[])": {
        "params": {
          "_ids": "IDs of the NFTs."
        }
      },
      "constructor": {
        "params": {
          "_owner": "Account that will receive the admin role."
        }
      },
      "donate(uint128,address,address)": {
        "params": {
          "_destinationId": "ID of the charity.",
          "_to": "Address of the charity.",
          "_token": "Currency to transfer the funds from."
        }
      },
      "getApproved(uint256)": {
        "details": "See {IERC721-getApproved}."
      },
      "getRoleAdmin(bytes32)": {
        "details": "Returns the admin role that controls `role`. See {grantRole} and {revokeRole}. To change a role's admin, use {_setRoleAdmin}."
      },
      "grantRole(bytes32,address)": {
        "details": "Grants `role` to `account`. If `account` had not been already granted `role`, emits a {RoleGranted} event. Requirements: - the caller must have ``role``'s admin role. May emit a {RoleGranted} event."
      },
      "hasRole(bytes32,address)": {
        "details": "Returns `true` if `account` has been granted `role`."
      },
      "isApprovedForAll(address,address)": {
        "details": "See {IERC721-isApprovedForAll}."
      },
      "mint(bytes32,uint256,(uint128,address,address,uint256,string)[])": {
        "params": {
          "_batchNr": "When there are too many donations in a claim, we break them into batches to not reach the gas limit.",
          "_params": "Donation params.",
          "_txHash": "The hash of the transaction where the yield for these donations was claimed."
        }
      },
      "name()": {
        "details": "See {IERC721Metadata-name}."
      },
      "ownerOf(uint256)": {
        "details": "See {IERC721-ownerOf}."
      },
      "renounceRole(bytes32,address)": {
        "details": "Revokes `role` from the calling account. Roles are often managed via {grantRole} and {revokeRole}: this function's purpose is to provide a mechanism for accounts to lose their privileges if they are compromised (such as when a trusted device is misplaced). If the calling account had been revoked `role`, emits a {RoleRevoked} event. Requirements: - the caller must be `account`. May emit a {RoleRevoked} event."
      },
      "revokeRole(bytes32,address)": {
        "details": "Revokes `role` from `account`. If `account` had been granted `role`, emits a {RoleRevoked} event. Requirements: - the caller must have ``role``'s admin role. May emit a {RoleRevoked} event."
      },
      "safeTransferFrom(address,address,uint256)": {
        "details": "See {IERC721-safeTransferFrom}."
      },
      "safeTransferFrom(address,address,uint256,bytes)": {
        "details": "See {IERC721-safeTransferFrom}."
      },
      "setApprovalForAll(address,bool)": {
        "details": "See {IERC721-setApprovalForAll}."
      },
      "setTTL(uint64)": {
        "params": {
          "_ttl": "the new TTL."
        }
      },
      "symbol()": {
        "details": "See {IERC721Metadata-symbol}."
      },
      "tokenURI(uint256)": {
        "details": "See {IERC721Metadata-tokenURI}."
      },
      "transferFrom(address,address,uint256)": {
        "details": "See {IERC721-transferFrom}."
      }
    },
    "version": 1
  },
  "userdoc": {
    "kind": "user",
    "methods": {
      "burn(uint256,string)": {
        "notice": "Burns the NFT and sets the amount donated to be transferred to the charity."
      },
      "burnBatch(uint256[],string[])": {
        "notice": "Basically similar to the above burn() method but is called on an array of _ids Expected to be called by the backend to burn a bunch of NFTs when they expire"
      },
      "processedDonationsGroups(bytes32)": {
        "notice": "Used to indicate whether a group of donations identified by the key has been processed or not."
      },
      "setTTL(uint64)": {
        "notice": "Changes the TTL for new donations."
      },
      "transferableAmounts(address,uint128)": {
        "notice": "Stores how much should be transferred to each charity in each coin."
      },
      "ttl()": {
        "notice": "Duration of the expiration date for new donations."
      }
    },
    "notice": "A contract to store donations before they are transferred to the charities.",
    "version": 1
  },
  "storageLayout": {
    "storage": [
      {
        "astId": 4327,
        "contract": "contracts/Donations.sol:Donations",
        "label": "_name",
        "offset": 0,
        "slot": "0",
        "type": "t_string_storage"
      },
      {
        "astId": 4329,
        "contract": "contracts/Donations.sol:Donations",
        "label": "_symbol",
        "offset": 0,
        "slot": "1",
        "type": "t_string_storage"
      },
      {
        "astId": 4333,
        "contract": "contracts/Donations.sol:Donations",
        "label": "_owners",
        "offset": 0,
        "slot": "2",
        "type": "t_mapping(t_uint256,t_address)"
      },
      {
        "astId": 4337,
        "contract": "contracts/Donations.sol:Donations",
        "label": "_balances",
        "offset": 0,
        "slot": "3",
        "type": "t_mapping(t_address,t_uint256)"
      },
      {
        "astId": 4341,
        "contract": "contracts/Donations.sol:Donations",
        "label": "_tokenApprovals",
        "offset": 0,
        "slot": "4",
        "type": "t_mapping(t_uint256,t_address)"
      },
      {
        "astId": 4347,
        "contract": "contracts/Donations.sol:Donations",
        "label": "_operatorApprovals",
        "offset": 0,
        "slot": "5",
        "type": "t_mapping(t_address,t_mapping(t_address,t_bool))"
      },
      {
        "astId": 2655,
        "contract": "contracts/Donations.sol:Donations",
        "label": "_roles",
        "offset": 0,
        "slot": "6",
        "type": "t_mapping(t_bytes32,t_struct(RoleData)2650_storage)"
      },
      {
        "astId": 7026,
        "contract": "contracts/Donations.sol:Donations",
        "label": "metadataId",
        "offset": 0,
        "slot": "7",
        "type": "t_uint256"
      },
      {
        "astId": 7031,
        "contract": "contracts/Donations.sol:Donations",
        "label": "metadata",
        "offset": 0,
        "slot": "8",
        "type": "t_mapping(t_uint256,t_struct(Metadata)6984_storage)"
      },
      {
        "astId": 7035,
        "contract": "contracts/Donations.sol:Donations",
        "label": "ttl",
        "offset": 0,
        "slot": "9",
        "type": "t_uint64"
      },
      {
        "astId": 7040,
        "contract": "contracts/Donations.sol:Donations",
        "label": "processedDonationsGroups",
        "offset": 0,
        "slot": "10",
        "type": "t_mapping(t_bytes32,t_bool)"
      },
      {
        "astId": 7048,
        "contract": "contracts/Donations.sol:Donations",
        "label": "transferableAmounts",
        "offset": 0,
        "slot": "11",
        "type": "t_mapping(t_contract(IERC20)3959,t_mapping(t_uint128,t_uint256))"
      }
    ],
    "types": {
      "t_address": {
        "encoding": "inplace",
        "label": "address",
        "numberOfBytes": "20"
      },
      "t_bool": {
        "encoding": "inplace",
        "label": "bool",
        "numberOfBytes": "1"
      },
      "t_bytes32": {
        "encoding": "inplace",
        "label": "bytes32",
        "numberOfBytes": "32"
      },
      "t_contract(IERC20)3959": {
        "encoding": "inplace",
        "label": "contract IERC20",
        "numberOfBytes": "20"
      },
      "t_mapping(t_address,t_bool)": {
        "encoding": "mapping",
        "key": "t_address",
        "label": "mapping(address => bool)",
        "numberOfBytes": "32",
        "value": "t_bool"
      },
      "t_mapping(t_address,t_mapping(t_address,t_bool))": {
        "encoding": "mapping",
        "key": "t_address",
        "label": "mapping(address => mapping(address => bool))",
        "numberOfBytes": "32",
        "value": "t_mapping(t_address,t_bool)"
      },
      "t_mapping(t_address,t_uint256)": {
        "encoding": "mapping",
        "key": "t_address",
        "label": "mapping(address => uint256)",
        "numberOfBytes": "32",
        "value": "t_uint256"
      },
      "t_mapping(t_bytes32,t_bool)": {
        "encoding": "mapping",
        "key": "t_bytes32",
        "label": "mapping(bytes32 => bool)",
        "numberOfBytes": "32",
        "value": "t_bool"
      },
      "t_mapping(t_bytes32,t_struct(RoleData)2650_storage)": {
        "encoding": "mapping",
        "key": "t_bytes32",
        "label": "mapping(bytes32 => struct AccessControl.RoleData)",
        "numberOfBytes": "32",
        "value": "t_struct(RoleData)2650_storage"
      },
      "t_mapping(t_contract(IERC20)3959,t_mapping(t_uint128,t_uint256))": {
        "encoding": "mapping",
        "key": "t_contract(IERC20)3959",
        "label": "mapping(contract IERC20 => mapping(uint128 => uint256))",
        "numberOfBytes": "32",
        "value": "t_mapping(t_uint128,t_uint256)"
      },
      "t_mapping(t_uint128,t_uint256)": {
        "encoding": "mapping",
        "key": "t_uint128",
        "label": "mapping(uint128 => uint256)",
        "numberOfBytes": "32",
        "value": "t_uint256"
      },
      "t_mapping(t_uint256,t_address)": {
        "encoding": "mapping",
        "key": "t_uint256",
        "label": "mapping(uint256 => address)",
        "numberOfBytes": "32",
        "value": "t_address"
      },
      "t_mapping(t_uint256,t_struct(Metadata)6984_storage)": {
        "encoding": "mapping",
        "key": "t_uint256",
        "label": "mapping(uint256 => struct Donations.Metadata)",
        "numberOfBytes": "32",
        "value": "t_struct(Metadata)6984_storage"
      },
      "t_string_storage": {
        "encoding": "bytes",
        "label": "string",
        "numberOfBytes": "32"
      },
      "t_struct(Metadata)6984_storage": {
        "encoding": "inplace",
        "label": "struct Donations.Metadata",
        "members": [
          {
            "astId": 6976,
            "contract": "contracts/Donations.sol:Donations",
            "label": "destinationId",
            "offset": 0,
            "slot": "0",
            "type": "t_uint128"
          },
          {
            "astId": 6978,
            "contract": "contracts/Donations.sol:Donations",
            "label": "expiry",
            "offset": 16,
            "slot": "0",
            "type": "t_uint64"
          },
          {
            "astId": 6981,
            "contract": "contracts/Donations.sol:Donations",
            "label": "token",
            "offset": 0,
            "slot": "1",
            "type": "t_contract(IERC20)3959"
          },
          {
            "astId": 6983,
            "contract": "contracts/Donations.sol:Donations",
            "label": "amount",
            "offset": 0,
            "slot": "2",
            "type": "t_uint256"
          }
        ],
        "numberOfBytes": "96"
      },
      "t_struct(RoleData)2650_storage": {
        "encoding": "inplace",
        "label": "struct AccessControl.RoleData",
        "members": [
          {
            "astId": 2647,
            "contract": "contracts/Donations.sol:Donations",
            "label": "members",
            "offset": 0,
            "slot": "0",
            "type": "t_mapping(t_address,t_bool)"
          },
          {
            "astId": 2649,
            "contract": "contracts/Donations.sol:Donations",
            "label": "adminRole",
            "offset": 0,
            "slot": "1",
            "type": "t_bytes32"
          }
        ],
        "numberOfBytes": "64"
      },
      "t_uint128": {
        "encoding": "inplace",
        "label": "uint128",
        "numberOfBytes": "16"
      },
      "t_uint256": {
        "encoding": "inplace",
        "label": "uint256",
        "numberOfBytes": "32"
      },
      "t_uint64": {
        "encoding": "inplace",
        "label": "uint64",
        "numberOfBytes": "8"
      }
    }
  }
}