{"address":"0xf33fb13b1cBbCC4Ae28026Ec9a433A1AD6fea172","bytecode":"0x60a06040523060805234801561001457600080fd5b5060805161268561004c6000396000818161098801528181610a0d01528181610b8f01528181610c140152610cfa01526126856000f3fe60806040526004361061018f5760003560e01c806360b73884116100d6578063b5106add1161007f578063e8b5e51f11610059578063e8b5e51f14610469578063ec87621c1461047e578063fbfa77cf146104b257600080fd5b8063b5106add14610409578063ce8c42e814610429578063d547741f1461044957600080fd5b806391d14854116100b057806391d148541461039a5780639af2e635146103e0578063a217fddf146103f457600080fd5b806360b738841461033a5780636f307dc31461035a5780637f6ec4551461037a57600080fd5b80633659cfe61161013857806352d1902d1161011257806352d1902d146102f057806359db2727146103055780635be9b2d31461032557600080fd5b80633659cfe6146102a85780634ad0b684146102c85780634f1ef286146102dd57600080fd5b8063248a9ca311610169578063248a9ca31461022a5780632f2ff15d1461026857806336568abe1461028857600080fd5b806301ffc9a71461019b578063048c661d146101d05780631459457a1461020857600080fd5b3661019657005b600080fd5b3480156101a757600080fd5b506101bb6101b63660046121ba565b6104d2565b60405190151581526020015b60405180910390f35b3480156101dc57600080fd5b5060fd546101f0906001600160a01b031681565b6040516001600160a01b0390911681526020016101c7565b34801561021457600080fd5b50610228610223366004612200565b610522565b005b34801561023657600080fd5b5061025a610245366004612265565b600090815260c9602052604090206001015490565b6040519081526020016101c7565b34801561027457600080fd5b5061022861028336600461227e565b6108c7565b34801561029457600080fd5b506102286102a336600461227e565b6108f1565b3480156102b457600080fd5b506102286102c33660046122aa565b61097d565b3480156102d457600080fd5b5061025a610af9565b6102286102eb3660046122db565b610b84565b3480156102fc57600080fd5b5061025a610ced565b34801561031157600080fd5b506102286103203660046123e6565b610db2565b34801561033157600080fd5b506101bb610e24565b34801561034657600080fd5b506102286103553660046123e6565b610e35565b34801561036657600080fd5b5060fb546101f0906001600160a01b031681565b34801561038657600080fd5b5060fe546101f0906001600160a01b031681565b3480156103a657600080fd5b506101bb6103b536600461227e565b600091825260c9602090815260408084206001600160a01b0393909316845291905290205460ff1690565b3480156103ec57600080fd5b5060016101bb565b34801561040057600080fd5b5061025a600081565b34801561041557600080fd5b506102286104243660046122aa565b6110b3565b34801561043557600080fd5b50610228610444366004612265565b611182565b34801561045557600080fd5b5061022861046436600461227e565b6114d2565b34801561047557600080fd5b506102286114f7565b34801561048a57600080fd5b5061025a7f241ecf16d79d0f8dbfb92cbc07fe17840425976cf0667f022fe9877caa831b0881565b3480156104be57600080fd5b5060fc546101f0906001600160a01b031681565b60006001600160e01b031982167f7965db0b00000000000000000000000000000000000000000000000000000000148061051c57506301ffc9a760e01b6001600160e01b03198316145b92915050565b600054610100900460ff16158080156105425750600054600160ff909116105b8061055c5750303b15801561055c575060005460ff166001145b6105d35760405162461bcd60e51b815260206004820152602e60248201527f496e697469616c697a61626c653a20636f6e747261637420697320616c72656160448201527f647920696e697469616c697a656400000000000000000000000000000000000060648201526084015b60405180910390fd5b6000805460ff1916600117905580156105f6576000805461ff0019166101001790555b6105fe61168d565b61060661168d565b6001600160a01b03851661062d57604051638f6e893360e01b815260040160405180910390fd5b6001600160a01b03831661066d576040517f96fbf73100000000000000000000000000000000000000000000000000000000815260040160405180910390fd5b6001600160a01b0384166106ad576040517f0f44c88000000000000000000000000000000000000000000000000000000000815260040160405180910390fd5b6001600160a01b0382166106ed576040517f4043fac000000000000000000000000000000000000000000000000000000000815260040160405180910390fd5b6107206001600160a01b0387167f21d982ed0000000000000000000000000000000000000000000000000000000061170c565b610756576040517fd7e681d100000000000000000000000000000000000000000000000000000000815260040160405180910390fd5b6107616000866117ae565b61078b7f241ecf16d79d0f8dbfb92cbc07fe17840425976cf0667f022fe9877caa831b08876117ae565b60fc80546001600160a01b0388811673ffffffffffffffffffffffffffffffffffffffff199283161790925560fb8054858416908316811790915560fd8054888516908416811790915560fe8054948816949093169390931790915560405163095ea7b360e01b8152600481019290925260001960248301529063095ea7b3906044016020604051808303816000875af115801561082d573d6000803e3d6000fd5b505050506040513d601f19601f820116820180604052508101906108519190612467565b610879576040516351be55a360e11b81526001600160a01b03831660048201526024016105ca565b80156108bf576000805461ff0019169055604051600181527f7f26b83ff96e1f2b6a682f133852f6798a09c465da95921460cefb38474024989060200160405180910390a15b505050505050565b600082815260c960205260409020600101546108e281611850565b6108ec83836117ae565b505050565b6001600160a01b038116331461096f5760405162461bcd60e51b815260206004820152602f60248201527f416363657373436f6e74726f6c3a2063616e206f6e6c792072656e6f756e636560448201527f20726f6c657320666f722073656c66000000000000000000000000000000000060648201526084016105ca565b610979828261185a565b5050565b306001600160a01b037f0000000000000000000000000000000000000000000000000000000000000000161415610a0b5760405162461bcd60e51b815260206004820152602c60248201527f46756e6374696f6e206d7573742062652063616c6c6564207468726f7567682060448201526b19195b1959d85d1958d85b1b60a21b60648201526084016105ca565b7f00000000000000000000000000000000000000000000000000000000000000006001600160a01b0316610a667f360894a13ba1a3210667c828492db98dca3e2076cc3735a920a3ca505d382bbc546001600160a01b031690565b6001600160a01b031614610ad15760405162461bcd60e51b815260206004820152602c60248201527f46756e6374696f6e206d7573742062652063616c6c6564207468726f7567682060448201526b6163746976652070726f787960a01b60648201526084016105ca565b610ada816118dd565b60408051600080825260208201909252610af69183919061192c565b50565b60fd546040517f1cdc47000000000000000000000000000000000000000000000000000000000081523060048201526000916001600160a01b031690631cdc470090602401602060405180830381865afa158015610b5b573d6000803e3d6000fd5b505050506040513d601f19601f82011682018060405250810190610b7f9190612489565b905090565b306001600160a01b037f0000000000000000000000000000000000000000000000000000000000000000161415610c125760405162461bcd60e51b815260206004820152602c60248201527f46756e6374696f6e206d7573742062652063616c6c6564207468726f7567682060448201526b19195b1959d85d1958d85b1b60a21b60648201526084016105ca565b7f00000000000000000000000000000000000000000000000000000000000000006001600160a01b0316610c6d7f360894a13ba1a3210667c828492db98dca3e2076cc3735a920a3ca505d382bbc546001600160a01b031690565b6001600160a01b031614610cd85760405162461bcd60e51b815260206004820152602c60248201527f46756e6374696f6e206d7573742062652063616c6c6564207468726f7567682060448201526b6163746976652070726f787960a01b60648201526084016105ca565b610ce1826118dd565b6109798282600161192c565b6000306001600160a01b037f00000000000000000000000000000000000000000000000000000000000000001614610d8d5760405162461bcd60e51b815260206004820152603860248201527f555550535570677261646561626c653a206d757374206e6f742062652063616c60448201527f6c6564207468726f7567682064656c656761746563616c6c000000000000000060648201526084016105ca565b507f360894a13ba1a3210667c828492db98dca3e2076cc3735a920a3ca505d382bbc90565b60fd54604051632e54bf9560e01b8152600060048201526001600160a01b0390911690632e54bf9590602401600060405180830381600087803b158015610df857600080fd5b505af1158015610e0c573d6000803e3d6000fd5b50505050610e1d8585858585610e35565b5050505050565b6000610e2e610af9565b1515919050565b3360009081527f81fe90a866a48a634a12852c1be675b683a22307409932a7443b8029347be756602052604090205460ff16610e84576040516378741b4560e11b815260040160405180910390fd5b6001600160a01b038516610ec4576040517f99c4312400000000000000000000000000000000000000000000000000000000815260040160405180910390fd5b60fe546040516370a0823160e01b81523060048201526000916001600160a01b0316906370a0823190602401602060405180830381865afa158015610f0d573d6000803e3d6000fd5b505050506040513d601f19601f82011682018060405250810190610f319190612489565b90504781158015610f40575080155b15610f77576040517f66a9132900000000000000000000000000000000000000000000000000000000815260040160405180910390fd5b8115610f8957610f8982888888611acc565b8015610f9b57610f9b81888686611c0a565b60fb546040516370a0823160e01b81523060048201526000916001600160a01b0316906370a0823190602401602060405180830381865afa158015610fe4573d6000803e3d6000fd5b505050506040513d601f19601f820116820180604052508101906110089190612489565b905080156110a9576040518181527f95bcedbc3ebe5646433f028d21d86c7e78e25b86b296abcb7b2142771beb0ab19060200160405180910390a160fd54604051635f788d6560e01b815260048101839052600060248201526001600160a01b0390911690635f788d6590604401600060405180830381600087803b15801561109057600080fd5b505af11580156110a4573d6000803e3d6000fd5b505050505b5050505050505050565b3360009081527f81fe90a866a48a634a12852c1be675b683a22307409932a7443b8029347be756602052604090205460ff16611102576040516378741b4560e11b815260040160405180910390fd5b6001600160a01b03811661112957604051638f6e893360e01b815260040160405180910390fd5b6001600160a01b03811633141561116c576040517f8fbf788d00000000000000000000000000000000000000000000000000000000815260040160405180910390fd5b6111776000826117ae565b610af660003361185a565b3360009081527ff5f43b48833b613af61a2aa61573d51591ce86ef304bb6e01e9115b2a39191de602052604090205460ff166111d157604051634cc2cd3760e11b815260040160405180910390fd5b80611208576040517fd45ab8b600000000000000000000000000000000000000000000000000000000815260040160405180910390fd5b611210610af9565b811115611249576040517f8396942200000000000000000000000000000000000000000000000000000000815260040160405180910390fd5b60fd54604051632e54bf9560e01b8152600481018390526001600160a01b0390911690632e54bf9590602401600060405180830381600087803b15801561128f57600080fd5b505af11580156112a3573d6000803e3d6000fd5b505060fe546040516370a0823160e01b8152306004820152600093506001600160a01b0390911691506370a0823190602401602060405180830381865afa1580156112f2573d6000803e3d6000fd5b505050506040513d601f19601f820116820180604052508101906113169190612489565b6040805182815247602082018190529293507f8d1850b625330d001750e7a917bf93ca4a68f3000d3a00c49519862f48c3b8c1910160405180910390a160fb546040516370a0823160e01b81523060048201526000916001600160a01b0316906370a0823190602401602060405180830381865afa15801561139c573d6000803e3d6000fd5b505050506040513d601f19601f820116820180604052508101906113c09190612489565b60fb5460fc546040517fa9059cbb0000000000000000000000000000000000000000000000000000000081526001600160a01b03918216600482015260248101849052929350169063a9059cbb906044016020604051808303816000875af1158015611430573d6000803e3d6000fd5b505050506040513d601f19601f820116820180604052508101906114549190612467565b6114995760fb546040517f4dca0c840000000000000000000000000000000000000000000000000000000081526001600160a01b0390911660048201526024016105ca565b6040518181527f35c4c11317fd96ffa30da51e0a4b85219c4b0f56c1507c3afefe79de0c47ef549060200160405180910390a150505050565b600082815260c960205260409020600101546114ed81611850565b6108ec838361185a565b3360009081527ff5f43b48833b613af61a2aa61573d51591ce86ef304bb6e01e9115b2a39191de602052604090205460ff1661154657604051634cc2cd3760e11b815260040160405180910390fd5b60fb546040516370a0823160e01b81523060048201526000916001600160a01b0316906370a0823190602401602060405180830381865afa15801561158f573d6000803e3d6000fd5b505050506040513d601f19601f820116820180604052508101906115b39190612489565b9050806115ec576040517f378a16c900000000000000000000000000000000000000000000000000000000815260040160405180910390fd5b60fd54604051635f788d6560e01b815260048101839052600060248201526001600160a01b0390911690635f788d6590604401600060405180830381600087803b15801561163957600080fd5b505af115801561164d573d6000803e3d6000fd5b505050507fc68748140896ba027a48ebf3a24735d0afb4ab835f92c4815ddb34f9d6dfd18a8160405161168291815260200190565b60405180910390a150565b600054610100900460ff1661170a5760405162461bcd60e51b815260206004820152602b60248201527f496e697469616c697a61626c653a20636f6e7472616374206973206e6f74206960448201527f6e697469616c697a696e6700000000000000000000000000000000000000000060648201526084016105ca565b565b60008080611721856301ffc9a760e01b611ca4565b9092509050811580611731575080155b156117415760009250505061051c565b611753856001600160e01b0319611ca4565b909250905081158061176457508015155b156117745760009250505061051c565b61177e8585611ca4565b90925090506001821480156117935750806001145b156117a35760019250505061051c565b506000949350505050565b600082815260c9602090815260408083206001600160a01b038516845290915290205460ff1661097957600082815260c9602090815260408083206001600160a01b03851684529091529020805460ff1916600117905561180c3390565b6001600160a01b0316816001600160a01b0316837f2f8788117e7eff1d82e926ec794901d17c78024a50270940304540a733656f0d60405160405180910390a45050565b610af68133611cd8565b600082815260c9602090815260408083206001600160a01b038516845290915290205460ff161561097957600082815260c9602090815260408083206001600160a01b0385168085529252808320805460ff1916905551339285917ff6391f5c32d9c69d2a47ea670b442974b53935d1edc7fd64eb21e047a839171b9190a45050565b3360009081527f81fe90a866a48a634a12852c1be675b683a22307409932a7443b8029347be756602052604090205460ff16610af6576040516378741b4560e11b815260040160405180910390fd5b7f4910fdfa16fed3260ed0e7147f7cc6da11a60208b5b9406d12a635614ffd91435460ff161561195f576108ec83611d58565b826001600160a01b03166352d1902d6040518163ffffffff1660e01b8152600401602060405180830381865afa9250505080156119b9575060408051601f3d908101601f191682019092526119b691810190612489565b60015b611a2b5760405162461bcd60e51b815260206004820152602e60248201527f45524331393637557067726164653a206e657720696d706c656d656e7461746960448201527f6f6e206973206e6f74205555505300000000000000000000000000000000000060648201526084016105ca565b7f360894a13ba1a3210667c828492db98dca3e2076cc3735a920a3ca505d382bbc8114611ac05760405162461bcd60e51b815260206004820152602960248201527f45524331393637557067726164653a20756e737570706f727465642070726f7860448201527f6961626c6555554944000000000000000000000000000000000000000000000060648201526084016105ca565b506108ec838383611e23565b60fe5460405163095ea7b360e01b81526001600160a01b038581166004830152602482018790529091169063095ea7b3906044016020604051808303816000875af1158015611b1f573d6000803e3d6000fd5b505050506040513d601f19601f82011682018060405250810190611b439190612467565b611b6f5760fe546040516351be55a360e11b81526001600160a01b0390911660048201526024016105ca565b6000836001600160a01b031660008484604051611b8d9291906124a2565b60006040518083038185875af1925050503d8060008114611bca576040519150601f19603f3d011682016040523d82523d6000602084013e611bcf565b606091505b5050905080610e1d576040517f56a3cf9a00000000000000000000000000000000000000000000000000000000815260040160405180910390fd5b6000836001600160a01b0316858484604051611c279291906124a2565b60006040518083038185875af1925050503d8060008114611c64576040519150601f19603f3d011682016040523d82523d6000602084013e611c69565b606091505b5050905080610e1d576040517f257745cc00000000000000000000000000000000000000000000000000000000815260040160405180910390fd5b6040516301ffc9a760e01b8082526004820183905260009182919060208160248189617530fa905190969095509350505050565b600082815260c9602090815260408083206001600160a01b038516845290915290205460ff1661097957611d16816001600160a01b03166014611e4e565b611d21836020611e4e565b604051602001611d329291906124de565b60408051601f198184030181529082905262461bcd60e51b82526105ca9160040161255f565b6001600160a01b0381163b611dd55760405162461bcd60e51b815260206004820152602d60248201527f455243313936373a206e657720696d706c656d656e746174696f6e206973206e60448201527f6f74206120636f6e74726163740000000000000000000000000000000000000060648201526084016105ca565b7f360894a13ba1a3210667c828492db98dca3e2076cc3735a920a3ca505d382bbc805473ffffffffffffffffffffffffffffffffffffffff19166001600160a01b0392909216919091179055565b611e2c83612036565b600082511180611e395750805b156108ec57611e488383612076565b50505050565b60606000611e5d8360026125a8565b611e689060026125c7565b67ffffffffffffffff811115611e8057611e806122c5565b6040519080825280601f01601f191660200182016040528015611eaa576020820181803683370190505b5090507f300000000000000000000000000000000000000000000000000000000000000081600081518110611ee157611ee16125df565b60200101906001600160f81b031916908160001a9053507f780000000000000000000000000000000000000000000000000000000000000081600181518110611f2c57611f2c6125df565b60200101906001600160f81b031916908160001a9053506000611f508460026125a8565b611f5b9060016125c7565b90505b6001811115611fe0577f303132333435363738396162636465660000000000000000000000000000000085600f1660108110611f9c57611f9c6125df565b1a60f81b828281518110611fb257611fb26125df565b60200101906001600160f81b031916908160001a90535060049490941c93611fd9816125f5565b9050611f5e565b50831561202f5760405162461bcd60e51b815260206004820181905260248201527f537472696e67733a20686578206c656e67746820696e73756666696369656e7460448201526064016105ca565b9392505050565b61203f81611d58565b6040516001600160a01b038216907fbc7cd75a20ee27fd9adebab32041f755214dbc6bffa90cc0225b39da2e5c2d3b90600090a250565b60606001600160a01b0383163b6120f55760405162461bcd60e51b815260206004820152602660248201527f416464726573733a2064656c65676174652063616c6c20746f206e6f6e2d636f60448201527f6e7472616374000000000000000000000000000000000000000000000000000060648201526084016105ca565b600080846001600160a01b031684604051612110919061260c565b600060405180830381855af49150503d806000811461214b576040519150601f19603f3d011682016040523d82523d6000602084013e612150565b606091505b5091509150612178828260405180606001604052806027815260200161262960279139612181565b95945050505050565b6060831561219057508161202f565b8251156121a05782518084602001fd5b8160405162461bcd60e51b81526004016105ca919061255f565b6000602082840312156121cc57600080fd5b81356001600160e01b03198116811461202f57600080fd5b80356001600160a01b03811681146121fb57600080fd5b919050565b600080600080600060a0868803121561221857600080fd5b612221866121e4565b945061222f602087016121e4565b935061223d604087016121e4565b925061224b606087016121e4565b9150612259608087016121e4565b90509295509295909350565b60006020828403121561227757600080fd5b5035919050565b6000806040838503121561229157600080fd5b823591506122a1602084016121e4565b90509250929050565b6000602082840312156122bc57600080fd5b61202f826121e4565b634e487b7160e01b600052604160045260246000fd5b600080604083850312156122ee57600080fd5b6122f7836121e4565b9150602083013567ffffffffffffffff8082111561231457600080fd5b818501915085601f83011261232857600080fd5b81358181111561233a5761233a6122c5565b604051601f8201601f19908116603f01168101908382118183101715612362576123626122c5565b8160405282815288602084870101111561237b57600080fd5b8260208601602083013760006020848301015280955050505050509250929050565b60008083601f8401126123af57600080fd5b50813567ffffffffffffffff8111156123c757600080fd5b6020830191508360208285010111156123df57600080fd5b9250929050565b6000806000806000606086880312156123fe57600080fd5b612407866121e4565b9450602086013567ffffffffffffffff8082111561242457600080fd5b61243089838a0161239d565b9096509450604088013591508082111561244957600080fd5b506124568882890161239d565b969995985093965092949392505050565b60006020828403121561247957600080fd5b8151801515811461202f57600080fd5b60006020828403121561249b57600080fd5b5051919050565b8183823760009101908152919050565b60005b838110156124cd5781810151838201526020016124b5565b83811115611e485750506000910152565b7f416363657373436f6e74726f6c3a206163636f756e74200000000000000000008152600083516125168160178501602088016124b2565b7f206973206d697373696e6720726f6c652000000000000000000000000000000060179184019182015283516125538160288401602088016124b2565b01602801949350505050565b602081526000825180602084015261257e8160408501602087016124b2565b601f01601f19169190910160400192915050565b634e487b7160e01b600052601160045260246000fd5b60008160001904831182151516156125c2576125c2612592565b500290565b600082198211156125da576125da612592565b500190565b634e487b7160e01b600052603260045260246000fd5b60008161260457612604612592565b506000190190565b6000825161261e8184602087016124b2565b919091019291505056fe416464726573733a206c6f772d6c6576656c2064656c65676174652063616c6c206661696c6564a26469706673582212205fcc5206cff1695638a8c27a6e9898e13ca607602fe4a06f0cb0464129587bf364736f6c634300080a0033","abi":[{"inputs":[],"name":"StrategyAdminCannotBe0Address","type":"error"},{"inputs":[],"name":"StrategyAmountZero","type":"error"},{"inputs":[],"name":"StrategyCallerNotAdmin","type":"error"},{"inputs":[],"name":"StrategyCallerNotManager","type":"error"},{"inputs":[],"name":"StrategyCallerNotSettings","type":"error"},{"inputs":[],"name":"StrategyCannotTransferAdminRightsToSelf","type":"error"},{"inputs":[],"name":"StrategyETHSwapDataEmpty","type":"error"},{"inputs":[],"name":"StrategyETHSwapFailed","type":"error"},{"inputs":[],"name":"StrategyLQTYSwapDataEmpty","type":"error"},{"inputs":[],"name":"StrategyLQTYSwapFailed","type":"error"},{"inputs":[],"name":"StrategyNoUnderlying","type":"error"},{"inputs":[],"name":"StrategyNotEnoughShares","type":"error"},{"inputs":[],"name":"StrategyNotIVault","type":"error"},{"inputs":[],"name":"StrategyNotRunning","type":"error"},{"inputs":[],"name":"StrategyNothingToReinvest","type":"error"},{"inputs":[],"name":"StrategyStabilityPoolCannotBeAddressZero","type":"error"},{"inputs":[],"name":"StrategySwapTargetCannotBe0Address","type":"error"},{"inputs":[{"internalType":"address","name":"token","type":"address"}],"name":"StrategyTokenApprovalFailed","type":"error"},{"inputs":[{"internalType":"address","name":"token","type":"address"}],"name":"StrategyTokenTransferFailed","type":"error"},{"inputs":[],"name":"StrategyUnderlyingCannotBe0Address","type":"error"},{"inputs":[],"name":"StrategyYieldTokenCannotBe0Address","type":"error"},{"inputs":[],"name":"VaultAmountDoesNotMatchParams","type":"error"},{"inputs":[],"name":"VaultAmountLocked","type":"error"},{"inputs":[],"name":"VaultCannotComputeSharesWithoutPrincipal","type":"error"},{"inputs":[],"name":"VaultCannotDeposit0","type":"error"},{"inputs":[],"name":"VaultCannotDepositWhenClaimerInDebt","type":"error"},{"inputs":[],"name":"VaultCannotDepositWhenYieldNegative","type":"error"},{"inputs":[],"name":"VaultCannotSponsor0","type":"error"},{"inputs":[],"name":"VaultCannotTransferOwnershipToSelf","type":"error"},{"inputs":[],"name":"VaultCannotWithdrawMoreThanAvailable","type":"error"},{"inputs":[],"name":"VaultCannotWithdrawWhenYieldNegative","type":"error"},{"inputs":[],"name":"VaultClaimPercentageCannotBe0","type":"error"},{"inputs":[],"name":"VaultClaimerCannotBe0","type":"error"},{"inputs":[],"name":"VaultClaimsDontAddUp","type":"error"},{"inputs":[],"name":"VaultDepositLocked","type":"error"},{"inputs":[],"name":"VaultDepositNameTooShort","type":"error"},{"inputs":[],"name":"VaultDestinationCannotBe0Address","type":"error"},{"inputs":[],"name":"VaultInvalidInvestpct","type":"error"},{"inputs":[],"name":"VaultInvalidLockPeriod","type":"error"},{"inputs":[],"name":"VaultInvalidLossTolerance","type":"error"},{"inputs":[],"name":"VaultInvalidMinLockPeriod","type":"error"},{"inputs":[],"name":"VaultInvalidPerformanceFee","type":"error"},{"inputs":[],"name":"VaultInvalidVault","type":"error"},{"inputs":[],"name":"VaultNoPerformanceFee","type":"error"},{"inputs":[],"name":"VaultNoYieldToClaim","type":"error"},{"inputs":[],"name":"VaultNotAllowed","type":"error"},{"inputs":[],"name":"VaultNotDeposit","type":"error"},{"inputs":[],"name":"VaultNotEnoughFunds","type":"error"},{"inputs":[],"name":"VaultNotEnoughToRebalance","type":"error"},{"inputs":[],"name":"VaultNotOwnerOfDeposit","type":"error"},{"inputs":[],"name":"VaultNotSponsor","type":"error"},{"inputs":[],"name":"VaultNothingToDo","type":"error"},{"inputs":[],"name":"VaultOwnerCannotBe0Address","type":"error"},{"inputs":[],"name":"VaultSenderNotOwnerOfGroupId","type":"error"},{"inputs":[],"name":"VaultStrategyHasInvestedFunds","type":"error"},{"inputs":[],"name":"VaultStrategyNotSet","type":"error"},{"inputs":[],"name":"VaultTreasuryCannotBe0Address","type":"error"},{"inputs":[],"name":"VaultUnderlyingCannotBe0Address","type":"error"},{"anonymous":false,"inputs":[{"indexed":false,"internalType":"address","name":"previousAdmin","type":"address"},{"indexed":false,"internalType":"address","name":"newAdmin","type":"address"}],"name":"AdminChanged","type":"event"},{"anonymous":false,"inputs":[{"indexed":true,"internalType":"address","name":"beacon","type":"address"}],"name":"BeaconUpgraded","type":"event"},{"anonymous":false,"inputs":[{"indexed":false,"internalType":"uint8","name":"version","type":"uint8"}],"name":"Initialized","type":"event"},{"anonymous":false,"inputs":[{"indexed":true,"internalType":"bytes32","name":"role","type":"bytes32"},{"indexed":true,"internalType":"bytes32","name":"previousAdminRole","type":"bytes32"},{"indexed":true,"internalType":"bytes32","name":"newAdminRole","type":"bytes32"}],"name":"RoleAdminChanged","type":"event"},{"anonymous":false,"inputs":[{"indexed":true,"internalType":"bytes32","name":"role","type":"bytes32"},{"indexed":true,"internalType":"address","name":"account","type":"address"},{"indexed":true,"internalType":"address","name":"sender","type":"address"}],"name":"RoleGranted","type":"event"},{"anonymous":false,"inputs":[{"indexed":true,"internalType":"bytes32","name":"role","type":"bytes32"},{"indexed":true,"internalType":"address","name":"account","type":"address"},{"indexed":true,"internalType":"address","name":"sender","type":"address"}],"name":"RoleRevoked","type":"event"},{"anonymous":false,"inputs":[{"indexed":false,"internalType":"uint256","name":"amount","type":"uint256"}],"name":"StrategyInvested","type":"event"},{"anonymous":false,"inputs":[{"indexed":false,"internalType":"uint256","name":"amountInLQTY","type":"uint256"},{"indexed":false,"internalType":"uint256","name":"amountInETH","type":"uint256"}],"name":"StrategyRewardsClaimed","type":"event"},{"anonymous":false,"inputs":[{"indexed":false,"internalType":"uint256","name":"amountInLUSD","type":"uint256"}],"name":"StrategyRewardsReinvested","type":"event"},{"anonymous":false,"inputs":[{"indexed":false,"internalType":"uint256","name":"amount","type":"uint256"}],"name":"StrategyWithdrawn","type":"event"},{"anonymous":false,"inputs":[{"indexed":true,"internalType":"address","name":"implementation","type":"address"}],"name":"Upgraded","type":"event"},{"inputs":[],"name":"DEFAULT_ADMIN_ROLE","outputs":[{"internalType":"bytes32","name":"","type":"bytes32"}],"stateMutability":"view","type":"function"},{"inputs":[],"name":"MANAGER_ROLE","outputs":[{"internalType":"bytes32","name":"","type":"bytes32"}],"stateMutability":"view","type":"function"},{"inputs":[{"internalType":"bytes32","name":"role","type":"bytes32"}],"name":"getRoleAdmin","outputs":[{"internalType":"bytes32","name":"","type":"bytes32"}],"stateMutability":"view","type":"function"},{"inputs":[{"internalType":"bytes32","name":"role","type":"bytes32"},{"internalType":"address","name":"account","type":"address"}],"name":"grantRole","outputs":[],"stateMutability":"nonpayable","type":"function"},{"inputs":[{"internalType":"address","name":"_swapTarget","type":"address"},{"internalType":"bytes","name":"_lqtySwapData","type":"bytes"},{"internalType":"bytes","name":"_ethSwapData","type":"bytes"}],"name":"harvest","outputs":[],"stateMutability":"nonpayable","type":"function"},{"inputs":[],"name":"hasAssets","outputs":[{"internalType":"bool","name":"","type":"bool"}],"stateMutability":"view","type":"function"},{"inputs":[{"internalType":"bytes32","name":"role","type":"bytes32"},{"internalType":"address","name":"account","type":"address"}],"name":"hasRole","outputs":[{"internalType":"bool","name":"","type":"bool"}],"stateMutability":"view","type":"function"},{"inputs":[{"internalType":"address","name":"_vault","type":"address"},{"internalType":"address","name":"_admin","type":"address"},{"internalType":"address","name":"_stabilityPool","type":"address"},{"internalType":"address","name":"_lqty","type":"address"},{"internalType":"address","name":"_underlying","type":"address"}],"name":"initialize","outputs":[],"stateMutability":"nonpayable","type":"function"},{"inputs":[],"name":"invest","outputs":[],"stateMutability":"nonpayable","type":"function"},{"inputs":[],"name":"investedAssets","outputs":[{"internalType":"uint256","name":"","type":"uint256"}],"stateMutability":"view","type":"function"},{"inputs":[],"name":"isSync","outputs":[{"internalType":"bool","name":"","type":"bool"}],"stateMutability":"pure","type":"function"},{"inputs":[],"name":"lqty","outputs":[{"internalType":"contract IERC20","name":"","type":"address"}],"stateMutability":"view","type":"function"},{"inputs":[],"name":"proxiableUUID","outputs":[{"internalType":"bytes32","name":"","type":"bytes32"}],"stateMutability":"view","type":"function"},{"inputs":[{"internalType":"address","name":"_swapTarget","type":"address"},{"internalType":"bytes","name":"_lqtySwapData","type":"bytes"},{"internalType":"bytes","name":"_ethSwapData","type":"bytes"}],"name":"reinvestRewards","outputs":[],"stateMutability":"nonpayable","type":"function"},{"inputs":[{"internalType":"bytes32","name":"role","type":"bytes32"},{"internalType":"address","name":"account","type":"address"}],"name":"renounceRole","outputs":[],"stateMutability":"nonpayable","type":"function"},{"inputs":[{"internalType":"bytes32","name":"role","type":"bytes32"},{"internalType":"address","name":"account","type":"address"}],"name":"revokeRole","outputs":[],"stateMutability":"nonpayable","type":"function"},{"inputs":[],"name":"stabilityPool","outputs":[{"internalType":"contract IStabilityPool","name":"","type":"address"}],"stateMutability":"view","type":"function"},{"inputs":[{"internalType":"bytes4","name":"interfaceId","type":"bytes4"}],"name":"supportsInterface","outputs":[{"internalType":"bool","name":"","type":"bool"}],"stateMutability":"view","type":"function"},{"inputs":[{"internalType":"address","name":"_newAdmin","type":"address"}],"name":"transferAdminRights","outputs":[],"stateMutability":"nonpayable","type":"function"},{"inputs":[],"name":"underlying","outputs":[{"internalType":"contract IERC20","name":"","type":"address"}],"stateMutability":"view","type":"function"},{"inputs":[{"internalType":"address","name":"newImplementation","type":"address"}],"name":"upgradeTo","outputs":[],"stateMutability":"nonpayable","type":"function"},{"inputs":[{"internalType":"address","name":"newImplementation","type":"address"},{"internalType":"bytes","name":"data","type":"bytes"}],"name":"upgradeToAndCall","outputs":[],"stateMutability":"payable","type":"function"},{"inputs":[],"name":"vault","outputs":[{"internalType":"address","name":"","type":"address"}],"stateMutability":"view","type":"function"},{"inputs":[{"internalType":"uint256","name":"amount","type":"uint256"}],"name":"withdrawToVault","outputs":[],"stateMutability":"nonpayable","type":"function"},{"stateMutability":"payable","type":"receive"}]}