{
  "address": "0x8c0792Bfee67c80f0E7D4A2c5808edBC9af85e6F",
  "abi": [
    {
      "inputs": [
        {
          "internalType": "contract IERC20Metadata",
          "name": "_underlying",
          "type": "address"
        },
        {
          "internalType": "uint64",
          "name": "_minLockPeriod",
          "type": "uint64"
        },
        {
          "internalType": "uint16",
          "name": "_investPct",
          "type": "uint16"
        },
        {
          "internalType": "address",
          "name": "_treasury",
          "type": "address"
        },
        {
          "internalType": "address",
          "name": "_admin",
          "type": "address"
        },
        {
          "internalType": "uint16",
          "name": "_perfFeePct",
          "type": "uint16"
        },
        {
          "internalType": "uint16",
          "name": "_lossTolerancePct",
          "type": "uint16"
        },
        {
          "components": [
            {
              "internalType": "address",
              "name": "token",
              "type": "address"
            },
            {
              "internalType": "address",
              "name": "pool",
              "type": "address"
            },
            {
              "internalType": "int128",
              "name": "tokenI",
              "type": "int128"
            },
            {
              "internalType": "int128",
              "name": "underlyingI",
              "type": "int128"
            }
          ],
          "internalType": "struct CurveSwapper.SwapPoolParam[]",
          "name": "_swapPools",
          "type": "tuple[]"
        },
        {
          "internalType": "uint16",
          "name": "_immediateInvestLimitPct",
          "type": "uint16"
        }
      ],
      "stateMutability": "nonpayable",
      "type": "constructor"
    },
    {
      "inputs": [],
      "name": "StrategyAdminCannotBe0Address",
      "type": "error"
    },
    {
      "inputs": [],
      "name": "StrategyAmountZero",
      "type": "error"
    },
    {
      "inputs": [],
      "name": "StrategyCallerNotAdmin",
      "type": "error"
    },
    {
      "inputs": [],
      "name": "StrategyCallerNotKeeper",
      "type": "error"
    },
    {
      "inputs": [],
      "name": "StrategyCallerNotManager",
      "type": "error"
    },
    {
      "inputs": [],
      "name": "StrategyCallerNotSettings",
      "type": "error"
    },
    {
      "inputs": [],
      "name": "StrategyCannotTransferAdminRightsToSelf",
      "type": "error"
    },
    {
      "inputs": [],
      "name": "StrategyKeeperCannotBe0Address",
      "type": "error"
    },
    {
      "inputs": [],
      "name": "StrategyNoUnderlying",
      "type": "error"
    },
    {
      "inputs": [],
      "name": "StrategyNotEnoughShares",
      "type": "error"
    },
    {
      "inputs": [],
      "name": "StrategyNotIVault",
      "type": "error"
    },
    {
      "inputs": [],
      "name": "StrategyNotRunning",
      "type": "error"
    },
    {
      "inputs": [],
      "name": "StrategyUnderlyingCannotBe0Address",
      "type": "error"
    },
    {
      "inputs": [
        {
          "internalType": "address",
          "name": "token",
          "type": "address"
        }
      ],
      "name": "SwapperPoolAlreadyExists",
      "type": "error"
    },
    {
      "inputs": [
        {
          "internalType": "address",
          "name": "token",
          "type": "address"
        }
      ],
      "name": "SwapperPoolDoesNotExist",
      "type": "error"
    },
    {
      "inputs": [
        {
          "internalType": "address",
          "name": "token",
          "type": "address"
        },
        {
          "internalType": "address",
          "name": "underlying",
          "type": "address"
        }
      ],
      "name": "SwapperUnderlyingIndexMismatch",
      "type": "error"
    },
    {
      "inputs": [],
      "name": "VaultAdminCannotBe0Address",
      "type": "error"
    },
    {
      "inputs": [],
      "name": "VaultAmountDoesNotMatchParams",
      "type": "error"
    },
    {
      "inputs": [],
      "name": "VaultAmountLocked",
      "type": "error"
    },
    {
      "inputs": [],
      "name": "VaultCallerNotAdmin",
      "type": "error"
    },
    {
      "inputs": [],
      "name": "VaultCallerNotKeeper",
      "type": "error"
    },
    {
      "inputs": [],
      "name": "VaultCallerNotSettings",
      "type": "error"
    },
    {
      "inputs": [],
      "name": "VaultCallerNotSponsor",
      "type": "error"
    },
    {
      "inputs": [],
      "name": "VaultCannotComputeSharesWithoutPrincipal",
      "type": "error"
    },
    {
      "inputs": [],
      "name": "VaultCannotDeposit0",
      "type": "error"
    },
    {
      "inputs": [],
      "name": "VaultCannotDepositWhenClaimerInDebt",
      "type": "error"
    },
    {
      "inputs": [],
      "name": "VaultCannotDepositWhenYieldNegative",
      "type": "error"
    },
    {
      "inputs": [],
      "name": "VaultCannotSponsor0",
      "type": "error"
    },
    {
      "inputs": [],
      "name": "VaultCannotTransferAdminRightsToSelf",
      "type": "error"
    },
    {
      "inputs": [],
      "name": "VaultCannotWithdrawMoreThanAvailable",
      "type": "error"
    },
    {
      "inputs": [],
      "name": "VaultCannotWithdrawWhenYieldNegative",
      "type": "error"
    },
    {
      "inputs": [],
      "name": "VaultClaimPercentageCannotBe0",
      "type": "error"
    },
    {
      "inputs": [],
      "name": "VaultClaimerCannotBe0",
      "type": "error"
    },
    {
      "inputs": [],
      "name": "VaultClaimsDontAddUp",
      "type": "error"
    },
    {
      "inputs": [],
      "name": "VaultDepositLocked",
      "type": "error"
    },
    {
      "inputs": [],
      "name": "VaultDepositNameTooShort",
      "type": "error"
    },
    {
      "inputs": [],
      "name": "VaultDestinationCannotBe0Address",
      "type": "error"
    },
    {
      "inputs": [],
      "name": "VaultInvalidImmediateInvestLimitPct",
      "type": "error"
    },
    {
      "inputs": [],
      "name": "VaultInvalidInvestPct",
      "type": "error"
    },
    {
      "inputs": [],
      "name": "VaultInvalidLockPeriod",
      "type": "error"
    },
    {
      "inputs": [],
      "name": "VaultInvalidLossTolerance",
      "type": "error"
    },
    {
      "inputs": [],
      "name": "VaultInvalidMinLockPeriod",
      "type": "error"
    },
    {
      "inputs": [],
      "name": "VaultInvalidPerformanceFee",
      "type": "error"
    },
    {
      "inputs": [],
      "name": "VaultInvalidVault",
      "type": "error"
    },
    {
      "inputs": [],
      "name": "VaultMustUseForceWithdrawToAcceptLosses",
      "type": "error"
    },
    {
      "inputs": [],
      "name": "VaultNoPerformanceFee",
      "type": "error"
    },
    {
      "inputs": [],
      "name": "VaultNoYieldToClaim",
      "type": "error"
    },
    {
      "inputs": [],
      "name": "VaultNotAllowed",
      "type": "error"
    },
    {
      "inputs": [],
      "name": "VaultNotDeposit",
      "type": "error"
    },
    {
      "inputs": [],
      "name": "VaultNotEnoughFunds",
      "type": "error"
    },
    {
      "inputs": [],
      "name": "VaultNotEnoughToRebalance",
      "type": "error"
    },
    {
      "inputs": [],
      "name": "VaultNotOwnerOfDeposit",
      "type": "error"
    },
    {
      "inputs": [],
      "name": "VaultNotSponsor",
      "type": "error"
    },
    {
      "inputs": [],
      "name": "VaultNothingToDo",
      "type": "error"
    },
    {
      "inputs": [],
      "name": "VaultSenderNotOwnerOfGroupId",
      "type": "error"
    },
    {
      "inputs": [],
      "name": "VaultStrategyHasInvestedFunds",
      "type": "error"
    },
    {
      "inputs": [],
      "name": "VaultStrategyNotSet",
      "type": "error"
    },
    {
      "inputs": [],
      "name": "VaultTreasuryCannotBe0Address",
      "type": "error"
    },
    {
      "inputs": [],
      "name": "VaultUnderlyingCannotBe0Address",
      "type": "error"
    },
    {
      "anonymous": false,
      "inputs": [
        {
          "indexed": true,
          "internalType": "address",
          "name": "token",
          "type": "address"
        },
        {
          "indexed": true,
          "internalType": "address",
          "name": "pool",
          "type": "address"
        },
        {
          "indexed": false,
          "internalType": "int128",
          "name": "tokenI",
          "type": "int128"
        },
        {
          "indexed": false,
          "internalType": "int128",
          "name": "underlyingI",
          "type": "int128"
        }
      ],
      "name": "CurveSwapPoolAdded",
      "type": "event"
    },
    {
      "anonymous": false,
      "inputs": [
        {
          "indexed": true,
          "internalType": "address",
          "name": "token",
          "type": "address"
        }
      ],
      "name": "CurveSwapPoolRemoved",
      "type": "event"
    },
    {
      "anonymous": false,
      "inputs": [
        {
          "indexed": true,
          "internalType": "uint256",
          "name": "id",
          "type": "uint256"
        },
        {
          "indexed": false,
          "internalType": "uint256",
          "name": "groupId",
          "type": "uint256"
        },
        {
          "indexed": false,
          "internalType": "uint256",
          "name": "amount",
          "type": "uint256"
        },
        {
          "indexed": false,
          "internalType": "uint256",
          "name": "shares",
          "type": "uint256"
        },
        {
          "indexed": true,
          "internalType": "address",
          "name": "depositor",
          "type": "address"
        },
        {
          "indexed": true,
          "internalType": "address",
          "name": "claimer",
          "type": "address"
        },
        {
          "indexed": false,
          "internalType": "address",
          "name": "claimerId",
          "type": "address"
        },
        {
          "indexed": false,
          "internalType": "uint64",
          "name": "lockedUntil",
          "type": "uint64"
        },
        {
          "indexed": false,
          "internalType": "bytes",
          "name": "data",
          "type": "bytes"
        },
        {
          "indexed": false,
          "internalType": "string",
          "name": "name",
          "type": "string"
        }
      ],
      "name": "DepositMinted",
      "type": "event"
    },
    {
      "anonymous": false,
      "inputs": [
        {
          "indexed": true,
          "internalType": "uint256",
          "name": "id",
          "type": "uint256"
        },
        {
          "indexed": false,
          "internalType": "uint256",
          "name": "shares",
          "type": "uint256"
        },
        {
          "indexed": false,
          "internalType": "uint256",
          "name": "amount",
          "type": "uint256"
        },
        {
          "indexed": true,
          "internalType": "address",
          "name": "to",
          "type": "address"
        },
        {
          "indexed": false,
          "internalType": "bool",
          "name": "burned",
          "type": "bool"
        }
      ],
      "name": "DepositWithdrawn",
      "type": "event"
    },
    {
      "anonymous": false,
      "inputs": [
        {
          "indexed": false,
          "internalType": "uint256",
          "name": "amount",
          "type": "uint256"
        }
      ],
      "name": "Disinvested",
      "type": "event"
    },
    {
      "anonymous": false,
      "inputs": [
        {
          "indexed": false,
          "internalType": "address",
          "name": "account",
          "type": "address"
        }
      ],
      "name": "ExitPaused",
      "type": "event"
    },
    {
      "anonymous": false,
      "inputs": [
        {
          "indexed": false,
          "internalType": "address",
          "name": "account",
          "type": "address"
        }
      ],
      "name": "ExitUnpaused",
      "type": "event"
    },
    {
      "anonymous": false,
      "inputs": [
        {
          "indexed": false,
          "internalType": "uint256",
          "name": "amount",
          "type": "uint256"
        }
      ],
      "name": "FeeWithdrawn",
      "type": "event"
    },
    {
      "anonymous": false,
      "inputs": [
        {
          "indexed": false,
          "internalType": "uint256",
          "name": "percentage",
          "type": "uint256"
        }
      ],
      "name": "ImmediateInvestLimitPctUpdated",
      "type": "event"
    },
    {
      "anonymous": false,
      "inputs": [
        {
          "indexed": false,
          "internalType": "uint256",
          "name": "percentage",
          "type": "uint256"
        }
      ],
      "name": "InvestPctUpdated",
      "type": "event"
    },
    {
      "anonymous": false,
      "inputs": [
        {
          "indexed": false,
          "internalType": "uint256",
          "name": "amount",
          "type": "uint256"
        }
      ],
      "name": "Invested",
      "type": "event"
    },
    {
      "anonymous": false,
      "inputs": [
        {
          "indexed": false,
          "internalType": "uint16",
          "name": "pct",
          "type": "uint16"
        }
      ],
      "name": "LossTolerancePctUpdated",
      "type": "event"
    },
    {
      "anonymous": false,
      "inputs": [
        {
          "indexed": false,
          "internalType": "uint64",
          "name": "newMinLockPeriod",
          "type": "uint64"
        }
      ],
      "name": "MinLockPeriodUpdated",
      "type": "event"
    },
    {
      "anonymous": false,
      "inputs": [
        {
          "indexed": false,
          "internalType": "address",
          "name": "account",
          "type": "address"
        }
      ],
      "name": "Paused",
      "type": "event"
    },
    {
      "anonymous": false,
      "inputs": [
        {
          "indexed": false,
          "internalType": "uint16",
          "name": "pct",
          "type": "uint16"
        }
      ],
      "name": "PerfFeePctUpdated",
      "type": "event"
    },
    {
      "anonymous": false,
      "inputs": [
        {
          "indexed": true,
          "internalType": "bytes32",
          "name": "role",
          "type": "bytes32"
        },
        {
          "indexed": true,
          "internalType": "bytes32",
          "name": "previousAdminRole",
          "type": "bytes32"
        },
        {
          "indexed": true,
          "internalType": "bytes32",
          "name": "newAdminRole",
          "type": "bytes32"
        }
      ],
      "name": "RoleAdminChanged",
      "type": "event"
    },
    {
      "anonymous": false,
      "inputs": [
        {
          "indexed": true,
          "internalType": "bytes32",
          "name": "role",
          "type": "bytes32"
        },
        {
          "indexed": true,
          "internalType": "address",
          "name": "account",
          "type": "address"
        },
        {
          "indexed": true,
          "internalType": "address",
          "name": "sender",
          "type": "address"
        }
      ],
      "name": "RoleGranted",
      "type": "event"
    },
    {
      "anonymous": false,
      "inputs": [
        {
          "indexed": true,
          "internalType": "bytes32",
          "name": "role",
          "type": "bytes32"
        },
        {
          "indexed": true,
          "internalType": "address",
          "name": "account",
          "type": "address"
        },
        {
          "indexed": true,
          "internalType": "address",
          "name": "sender",
          "type": "address"
        }
      ],
      "name": "RoleRevoked",
      "type": "event"
    },
    {
      "anonymous": false,
      "inputs": [
        {
          "indexed": true,
          "internalType": "uint256",
          "name": "id",
          "type": "uint256"
        },
        {
          "indexed": false,
          "internalType": "uint256",
          "name": "amount",
          "type": "uint256"
        },
        {
          "indexed": true,
          "internalType": "address",
          "name": "depositor",
          "type": "address"
        },
        {
          "indexed": false,
          "internalType": "uint256",
          "name": "lockedUntil",
          "type": "uint256"
        }
      ],
      "name": "Sponsored",
      "type": "event"
    },
    {
      "anonymous": false,
      "inputs": [
        {
          "indexed": true,
          "internalType": "address",
          "name": "strategy",
          "type": "address"
        }
      ],
      "name": "StrategyUpdated",
      "type": "event"
    },
    {
      "anonymous": false,
      "inputs": [
        {
          "indexed": true,
          "internalType": "address",
          "name": "fromToken",
          "type": "address"
        },
        {
          "indexed": true,
          "internalType": "address",
          "name": "toToken",
          "type": "address"
        },
        {
          "indexed": false,
          "internalType": "uint256",
          "name": "fromAmount",
          "type": "uint256"
        },
        {
          "indexed": false,
          "internalType": "uint256",
          "name": "toAmount",
          "type": "uint256"
        }
      ],
      "name": "Swap",
      "type": "event"
    },
    {
      "anonymous": false,
      "inputs": [
        {
          "indexed": true,
          "internalType": "address",
          "name": "treasury",
          "type": "address"
        }
      ],
      "name": "TreasuryUpdated",
      "type": "event"
    },
    {
      "anonymous": false,
      "inputs": [
        {
          "indexed": false,
          "internalType": "address",
          "name": "account",
          "type": "address"
        }
      ],
      "name": "Unpaused",
      "type": "event"
    },
    {
      "anonymous": false,
      "inputs": [
        {
          "indexed": true,
          "internalType": "uint256",
          "name": "id",
          "type": "uint256"
        },
        {
          "indexed": false,
          "internalType": "uint256",
          "name": "amount",
          "type": "uint256"
        },
        {
          "indexed": true,
          "internalType": "address",
          "name": "to",
          "type": "address"
        },
        {
          "indexed": false,
          "internalType": "bool",
          "name": "burned",
          "type": "bool"
        }
      ],
      "name": "Unsponsored",
      "type": "event"
    },
    {
      "anonymous": false,
      "inputs": [
        {
          "indexed": false,
          "internalType": "address",
          "name": "claimerId",
          "type": "address"
        },
        {
          "indexed": true,
          "internalType": "address",
          "name": "to",
          "type": "address"
        },
        {
          "indexed": false,
          "internalType": "uint256",
          "name": "amount",
          "type": "uint256"
        },
        {
          "indexed": false,
          "internalType": "uint256",
          "name": "burnedShares",
          "type": "uint256"
        },
        {
          "indexed": false,
          "internalType": "uint256",
          "name": "perfFee",
          "type": "uint256"
        },
        {
          "indexed": false,
          "internalType": "uint256",
          "name": "totalUnderlying",
          "type": "uint256"
        },
        {
          "indexed": false,
          "internalType": "uint256",
          "name": "totalShares",
          "type": "uint256"
        }
      ],
      "name": "YieldClaimed",
      "type": "event"
    },
    {
      "inputs": [],
      "name": "DEFAULT_ADMIN_ROLE",
      "outputs": [
        {
          "internalType": "bytes32",
          "name": "",
          "type": "bytes32"
        }
      ],
      "stateMutability": "view",
      "type": "function"
    },
    {
      "inputs": [],
      "name": "KEEPER_ROLE",
      "outputs": [
        {
          "internalType": "bytes32",
          "name": "",
          "type": "bytes32"
        }
      ],
      "stateMutability": "view",
      "type": "function"
    },
    {
      "inputs": [],
      "name": "MAX_DEPOSIT_LOCK_DURATION",
      "outputs": [
        {
          "internalType": "uint64",
          "name": "",
          "type": "uint64"
        }
      ],
      "stateMutability": "view",
      "type": "function"
    },
    {
      "inputs": [],
      "name": "MAX_SPONSOR_LOCK_DURATION",
      "outputs": [
        {
          "internalType": "uint64",
          "name": "",
          "type": "uint64"
        }
      ],
      "stateMutability": "view",
      "type": "function"
    },
    {
      "inputs": [],
      "name": "MIN_SPONSOR_LOCK_DURATION",
      "outputs": [
        {
          "internalType": "uint64",
          "name": "",
          "type": "uint64"
        }
      ],
      "stateMutability": "view",
      "type": "function"
    },
    {
      "inputs": [],
      "name": "SETTINGS_ROLE",
      "outputs": [
        {
          "internalType": "bytes32",
          "name": "",
          "type": "bytes32"
        }
      ],
      "stateMutability": "view",
      "type": "function"
    },
    {
      "inputs": [],
      "name": "SHARES_MULTIPLIER",
      "outputs": [
        {
          "internalType": "uint256",
          "name": "",
          "type": "uint256"
        }
      ],
      "stateMutability": "view",
      "type": "function"
    },
    {
      "inputs": [],
      "name": "SPONSOR_ROLE",
      "outputs": [
        {
          "internalType": "bytes32",
          "name": "",
          "type": "bytes32"
        }
      ],
      "stateMutability": "view",
      "type": "function"
    },
    {
      "inputs": [],
      "name": "accumulatedPerfFee",
      "outputs": [
        {
          "internalType": "uint256",
          "name": "",
          "type": "uint256"
        }
      ],
      "stateMutability": "view",
      "type": "function"
    },
    {
      "inputs": [
        {
          "components": [
            {
              "internalType": "address",
              "name": "token",
              "type": "address"
            },
            {
              "internalType": "address",
              "name": "pool",
              "type": "address"
            },
            {
              "internalType": "int128",
              "name": "tokenI",
              "type": "int128"
            },
            {
              "internalType": "int128",
              "name": "underlyingI",
              "type": "int128"
            }
          ],
          "internalType": "struct CurveSwapper.SwapPoolParam",
          "name": "_param",
          "type": "tuple"
        }
      ],
      "name": "addPool",
      "outputs": [],
      "stateMutability": "nonpayable",
      "type": "function"
    },
    {
      "inputs": [
        {
          "internalType": "address",
          "name": "_to",
          "type": "address"
        }
      ],
      "name": "claimYield",
      "outputs": [],
      "stateMutability": "nonpayable",
      "type": "function"
    },
    {
      "inputs": [
        {
          "internalType": "address",
          "name": "",
          "type": "address"
        }
      ],
      "name": "claimers",
      "outputs": [
        {
          "internalType": "uint256",
          "name": "totalPrincipal",
          "type": "uint256"
        },
        {
          "internalType": "uint256",
          "name": "totalShares",
          "type": "uint256"
        }
      ],
      "stateMutability": "view",
      "type": "function"
    },
    {
      "inputs": [
        {
          "components": [
            {
              "internalType": "address",
              "name": "inputToken",
              "type": "address"
            },
            {
              "internalType": "uint64",
              "name": "lockDuration",
              "type": "uint64"
            },
            {
              "internalType": "uint256",
              "name": "amount",
              "type": "uint256"
            },
            {
              "components": [
                {
                  "internalType": "uint16",
                  "name": "pct",
                  "type": "uint16"
                },
                {
                  "internalType": "address",
                  "name": "beneficiary",
                  "type": "address"
                },
                {
                  "internalType": "bytes",
                  "name": "data",
                  "type": "bytes"
                }
              ],
              "internalType": "struct IVault.ClaimParams[]",
              "name": "claims",
              "type": "tuple[]"
            },
            {
              "internalType": "string",
              "name": "name",
              "type": "string"
            },
            {
              "internalType": "uint256",
              "name": "amountOutMin",
              "type": "uint256"
            }
          ],
          "internalType": "struct IVault.DepositParams",
          "name": "_params",
          "type": "tuple"
        }
      ],
      "name": "deposit",
      "outputs": [
        {
          "internalType": "uint256[]",
          "name": "depositIds",
          "type": "uint256[]"
        }
      ],
      "stateMutability": "nonpayable",
      "type": "function"
    },
    {
      "inputs": [
        {
          "internalType": "uint256",
          "name": "_groupId",
          "type": "uint256"
        },
        {
          "components": [
            {
              "internalType": "address",
              "name": "inputToken",
              "type": "address"
            },
            {
              "internalType": "uint64",
              "name": "lockDuration",
              "type": "uint64"
            },
            {
              "internalType": "uint256",
              "name": "amount",
              "type": "uint256"
            },
            {
              "components": [
                {
                  "internalType": "uint16",
                  "name": "pct",
                  "type": "uint16"
                },
                {
                  "internalType": "address",
                  "name": "beneficiary",
                  "type": "address"
                },
                {
                  "internalType": "bytes",
                  "name": "data",
                  "type": "bytes"
                }
              ],
              "internalType": "struct IVault.ClaimParams[]",
              "name": "claims",
              "type": "tuple[]"
            },
            {
              "internalType": "string",
              "name": "name",
              "type": "string"
            },
            {
              "internalType": "uint256",
              "name": "amountOutMin",
              "type": "uint256"
            }
          ],
          "internalType": "struct IVault.DepositParams",
          "name": "_params",
          "type": "tuple"
        }
      ],
      "name": "depositForGroupId",
      "outputs": [
        {
          "internalType": "uint256[]",
          "name": "depositIds",
          "type": "uint256[]"
        }
      ],
      "stateMutability": "nonpayable",
      "type": "function"
    },
    {
      "inputs": [
        {
          "internalType": "uint256",
          "name": "",
          "type": "uint256"
        }
      ],
      "name": "depositGroupIdOwner",
      "outputs": [
        {
          "internalType": "address",
          "name": "",
          "type": "address"
        }
      ],
      "stateMutability": "view",
      "type": "function"
    },
    {
      "inputs": [
        {
          "internalType": "uint256",
          "name": "",
          "type": "uint256"
        }
      ],
      "name": "deposits",
      "outputs": [
        {
          "internalType": "uint256",
          "name": "amount",
          "type": "uint256"
        },
        {
          "internalType": "address",
          "name": "owner",
          "type": "address"
        },
        {
          "internalType": "address",
          "name": "claimerId",
          "type": "address"
        },
        {
          "internalType": "uint256",
          "name": "lockedUntil",
          "type": "uint256"
        }
      ],
      "stateMutability": "view",
      "type": "function"
    },
    {
      "inputs": [],
      "name": "exitPause",
      "outputs": [],
      "stateMutability": "nonpayable",
      "type": "function"
    },
    {
      "inputs": [],
      "name": "exitPaused",
      "outputs": [
        {
          "internalType": "bool",
          "name": "",
          "type": "bool"
        }
      ],
      "stateMutability": "view",
      "type": "function"
    },
    {
      "inputs": [],
      "name": "exitUnpause",
      "outputs": [],
      "stateMutability": "nonpayable",
      "type": "function"
    },
    {
      "inputs": [
        {
          "internalType": "address",
          "name": "_to",
          "type": "address"
        },
        {
          "internalType": "uint256[]",
          "name": "_ids",
          "type": "uint256[]"
        }
      ],
      "name": "forceWithdraw",
      "outputs": [],
      "stateMutability": "nonpayable",
      "type": "function"
    },
    {
      "inputs": [
        {
          "internalType": "bytes32",
          "name": "role",
          "type": "bytes32"
        }
      ],
      "name": "getRoleAdmin",
      "outputs": [
        {
          "internalType": "bytes32",
          "name": "",
          "type": "bytes32"
        }
      ],
      "stateMutability": "view",
      "type": "function"
    },
    {
      "inputs": [],
      "name": "getUnderlying",
      "outputs": [
        {
          "internalType": "address",
          "name": "",
          "type": "address"
        }
      ],
      "stateMutability": "view",
      "type": "function"
    },
    {
      "inputs": [
        {
          "internalType": "bytes32",
          "name": "role",
          "type": "bytes32"
        },
        {
          "internalType": "address",
          "name": "account",
          "type": "address"
        }
      ],
      "name": "grantRole",
      "outputs": [],
      "stateMutability": "nonpayable",
      "type": "function"
    },
    {
      "inputs": [
        {
          "internalType": "bytes32",
          "name": "role",
          "type": "bytes32"
        },
        {
          "internalType": "address",
          "name": "account",
          "type": "address"
        }
      ],
      "name": "hasRole",
      "outputs": [
        {
          "internalType": "bool",
          "name": "",
          "type": "bool"
        }
      ],
      "stateMutability": "view",
      "type": "function"
    },
    {
      "inputs": [],
      "name": "immediateInvestLimitPct",
      "outputs": [
        {
          "internalType": "uint16",
          "name": "",
          "type": "uint16"
        }
      ],
      "stateMutability": "view",
      "type": "function"
    },
    {
      "inputs": [],
      "name": "investPct",
      "outputs": [
        {
          "internalType": "uint16",
          "name": "",
          "type": "uint16"
        }
      ],
      "stateMutability": "view",
      "type": "function"
    },
    {
      "inputs": [],
      "name": "investState",
      "outputs": [
        {
          "internalType": "uint256",
          "name": "maxInvestableAmount",
          "type": "uint256"
        },
        {
          "internalType": "uint256",
          "name": "alreadyInvested",
          "type": "uint256"
        }
      ],
      "stateMutability": "view",
      "type": "function"
    },
    {
      "inputs": [],
      "name": "lossTolerancePct",
      "outputs": [
        {
          "internalType": "uint16",
          "name": "",
          "type": "uint16"
        }
      ],
      "stateMutability": "view",
      "type": "function"
    },
    {
      "inputs": [],
      "name": "minLockPeriod",
      "outputs": [
        {
          "internalType": "uint64",
          "name": "",
          "type": "uint64"
        }
      ],
      "stateMutability": "view",
      "type": "function"
    },
    {
      "inputs": [
        {
          "internalType": "address",
          "name": "_to",
          "type": "address"
        },
        {
          "internalType": "uint256[]",
          "name": "_ids",
          "type": "uint256[]"
        },
        {
          "internalType": "uint256[]",
          "name": "_amounts",
          "type": "uint256[]"
        }
      ],
      "name": "partialUnsponsor",
      "outputs": [],
      "stateMutability": "nonpayable",
      "type": "function"
    },
    {
      "inputs": [
        {
          "internalType": "address",
          "name": "_to",
          "type": "address"
        },
        {
          "internalType": "uint256[]",
          "name": "_ids",
          "type": "uint256[]"
        },
        {
          "internalType": "uint256[]",
          "name": "_amounts",
          "type": "uint256[]"
        }
      ],
      "name": "partialWithdraw",
      "outputs": [],
      "stateMutability": "nonpayable",
      "type": "function"
    },
    {
      "inputs": [],
      "name": "pause",
      "outputs": [],
      "stateMutability": "nonpayable",
      "type": "function"
    },
    {
      "inputs": [],
      "name": "paused",
      "outputs": [
        {
          "internalType": "bool",
          "name": "",
          "type": "bool"
        }
      ],
      "stateMutability": "view",
      "type": "function"
    },
    {
      "inputs": [],
      "name": "perfFeePct",
      "outputs": [
        {
          "internalType": "uint16",
          "name": "",
          "type": "uint16"
        }
      ],
      "stateMutability": "view",
      "type": "function"
    },
    {
      "inputs": [
        {
          "internalType": "address",
          "name": "claimerId",
          "type": "address"
        }
      ],
      "name": "principalOf",
      "outputs": [
        {
          "internalType": "uint256",
          "name": "",
          "type": "uint256"
        }
      ],
      "stateMutability": "view",
      "type": "function"
    },
    {
      "inputs": [
        {
          "internalType": "address",
          "name": "_inputToken",
          "type": "address"
        }
      ],
      "name": "removePool",
      "outputs": [],
      "stateMutability": "nonpayable",
      "type": "function"
    },
    {
      "inputs": [
        {
          "internalType": "bytes32",
          "name": "role",
          "type": "bytes32"
        },
        {
          "internalType": "address",
          "name": "account",
          "type": "address"
        }
      ],
      "name": "renounceRole",
      "outputs": [],
      "stateMutability": "nonpayable",
      "type": "function"
    },
    {
      "inputs": [
        {
          "internalType": "bytes32",
          "name": "role",
          "type": "bytes32"
        },
        {
          "internalType": "address",
          "name": "account",
          "type": "address"
        }
      ],
      "name": "revokeRole",
      "outputs": [],
      "stateMutability": "nonpayable",
      "type": "function"
    },
    {
      "inputs": [
        {
          "internalType": "uint16",
          "name": "_pct",
          "type": "uint16"
        }
      ],
      "name": "setImmediateInvestLimitPct",
      "outputs": [],
      "stateMutability": "nonpayable",
      "type": "function"
    },
    {
      "inputs": [
        {
          "internalType": "uint16",
          "name": "_investPct",
          "type": "uint16"
        }
      ],
      "name": "setInvestPct",
      "outputs": [],
      "stateMutability": "nonpayable",
      "type": "function"
    },
    {
      "inputs": [
        {
          "internalType": "uint16",
          "name": "_pct",
          "type": "uint16"
        }
      ],
      "name": "setLossTolerancePct",
      "outputs": [],
      "stateMutability": "nonpayable",
      "type": "function"
    },
    {
      "inputs": [
        {
          "internalType": "uint64",
          "name": "_minLockPeriod",
          "type": "uint64"
        }
      ],
      "name": "setMinLockPeriod",
      "outputs": [],
      "stateMutability": "nonpayable",
      "type": "function"
    },
    {
      "inputs": [
        {
          "internalType": "uint16",
          "name": "_perfFeePct",
          "type": "uint16"
        }
      ],
      "name": "setPerfFeePct",
      "outputs": [],
      "stateMutability": "nonpayable",
      "type": "function"
    },
    {
      "inputs": [
        {
          "internalType": "address",
          "name": "_strategy",
          "type": "address"
        }
      ],
      "name": "setStrategy",
      "outputs": [],
      "stateMutability": "nonpayable",
      "type": "function"
    },
    {
      "inputs": [
        {
          "internalType": "address",
          "name": "_treasury",
          "type": "address"
        }
      ],
      "name": "setTreasury",
      "outputs": [],
      "stateMutability": "nonpayable",
      "type": "function"
    },
    {
      "inputs": [
        {
          "internalType": "address",
          "name": "claimerId",
          "type": "address"
        }
      ],
      "name": "sharesOf",
      "outputs": [
        {
          "internalType": "uint256",
          "name": "",
          "type": "uint256"
        }
      ],
      "stateMutability": "view",
      "type": "function"
    },
    {
      "inputs": [
        {
          "internalType": "address",
          "name": "_inputToken",
          "type": "address"
        },
        {
          "internalType": "uint256",
          "name": "_amount",
          "type": "uint256"
        },
        {
          "internalType": "uint256",
          "name": "_lockDuration",
          "type": "uint256"
        },
        {
          "internalType": "uint256",
          "name": "_amountOutMin",
          "type": "uint256"
        }
      ],
      "name": "sponsor",
      "outputs": [],
      "stateMutability": "nonpayable",
      "type": "function"
    },
    {
      "inputs": [],
      "name": "strategy",
      "outputs": [
        {
          "internalType": "contract IStrategy",
          "name": "",
          "type": "address"
        }
      ],
      "stateMutability": "view",
      "type": "function"
    },
    {
      "inputs": [
        {
          "internalType": "bytes4",
          "name": "interfaceId",
          "type": "bytes4"
        }
      ],
      "name": "supportsInterface",
      "outputs": [
        {
          "internalType": "bool",
          "name": "",
          "type": "bool"
        }
      ],
      "stateMutability": "view",
      "type": "function"
    },
    {
      "inputs": [
        {
          "internalType": "address",
          "name": "",
          "type": "address"
        }
      ],
      "name": "swappers",
      "outputs": [
        {
          "internalType": "contract ICurve",
          "name": "pool",
          "type": "address"
        },
        {
          "internalType": "uint8",
          "name": "tokenDecimals",
          "type": "uint8"
        },
        {
          "internalType": "uint8",
          "name": "underlyingDecimals",
          "type": "uint8"
        },
        {
          "internalType": "int128",
          "name": "tokenI",
          "type": "int128"
        },
        {
          "internalType": "int128",
          "name": "underlyingI",
          "type": "int128"
        }
      ],
      "stateMutability": "view",
      "type": "function"
    },
    {
      "inputs": [],
      "name": "totalPrincipal",
      "outputs": [
        {
          "internalType": "uint256",
          "name": "",
          "type": "uint256"
        }
      ],
      "stateMutability": "view",
      "type": "function"
    },
    {
      "inputs": [],
      "name": "totalShares",
      "outputs": [
        {
          "internalType": "uint256",
          "name": "",
          "type": "uint256"
        }
      ],
      "stateMutability": "view",
      "type": "function"
    },
    {
      "inputs": [],
      "name": "totalSponsored",
      "outputs": [
        {
          "internalType": "uint256",
          "name": "",
          "type": "uint256"
        }
      ],
      "stateMutability": "view",
      "type": "function"
    },
    {
      "inputs": [],
      "name": "totalUnderlying",
      "outputs": [
        {
          "internalType": "uint256",
          "name": "",
          "type": "uint256"
        }
      ],
      "stateMutability": "view",
      "type": "function"
    },
    {
      "inputs": [],
      "name": "totalUnderlyingMinusSponsored",
      "outputs": [
        {
          "internalType": "uint256",
          "name": "",
          "type": "uint256"
        }
      ],
      "stateMutability": "view",
      "type": "function"
    },
    {
      "inputs": [
        {
          "internalType": "address",
          "name": "_newAdmin",
          "type": "address"
        }
      ],
      "name": "transferAdminRights",
      "outputs": [],
      "stateMutability": "nonpayable",
      "type": "function"
    },
    {
      "inputs": [],
      "name": "treasury",
      "outputs": [
        {
          "internalType": "address",
          "name": "",
          "type": "address"
        }
      ],
      "stateMutability": "view",
      "type": "function"
    },
    {
      "inputs": [],
      "name": "underlying",
      "outputs": [
        {
          "internalType": "contract IERC20Metadata",
          "name": "",
          "type": "address"
        }
      ],
      "stateMutability": "view",
      "type": "function"
    },
    {
      "inputs": [],
      "name": "unpause",
      "outputs": [],
      "stateMutability": "nonpayable",
      "type": "function"
    },
    {
      "inputs": [
        {
          "internalType": "address",
          "name": "_to",
          "type": "address"
        },
        {
          "internalType": "uint256[]",
          "name": "_ids",
          "type": "uint256[]"
        }
      ],
      "name": "unsponsor",
      "outputs": [],
      "stateMutability": "nonpayable",
      "type": "function"
    },
    {
      "inputs": [],
      "name": "updateInvested",
      "outputs": [],
      "stateMutability": "nonpayable",
      "type": "function"
    },
    {
      "inputs": [
        {
          "internalType": "address",
          "name": "_to",
          "type": "address"
        },
        {
          "internalType": "uint256[]",
          "name": "_ids",
          "type": "uint256[]"
        }
      ],
      "name": "withdraw",
      "outputs": [],
      "stateMutability": "nonpayable",
      "type": "function"
    },
    {
      "inputs": [],
      "name": "withdrawPerformanceFee",
      "outputs": [],
      "stateMutability": "nonpayable",
      "type": "function"
    },
    {
      "inputs": [
        {
          "internalType": "address",
          "name": "_to",
          "type": "address"
        }
      ],
      "name": "yieldFor",
      "outputs": [
        {
          "internalType": "uint256",
          "name": "claimableYield",
          "type": "uint256"
        },
        {
          "internalType": "uint256",
          "name": "shares",
          "type": "uint256"
        },
        {
          "internalType": "uint256",
          "name": "perfFee",
          "type": "uint256"
        }
      ],
      "stateMutability": "view",
      "type": "function"
    }
  ],
  "transactionHash": "0xf03b0009979ad2fe68e8319a44045b745ccfab56cd768c2c67ba8437eb1bfdc2",
  "args": [
    "0x5f98805A4E8be255a32880FDeC7F6728C6568bA0",
    432000,
    9000,
    "0x035F210e5d14054E8AE5A6CFA76d643aA200D56E",
    "0x84f67f75DAf6D57Aef500E0c85C77B7b3bBc92A9",
    0,
    200,
    [
      {
        "token": "0x6B175474E89094C44Da98b954EedeAC495271d0F",
        "pool": "0xEd279fDD11cA84bEef15AF5D39BB4d4bEE23F0cA",
        "tokenI": 1,
        "underlyingI": 0
      },
      {
        "token": "0xA0b86991c6218b36c1d19D4a2e9Eb0cE3606eB48",
        "pool": "0xEd279fDD11cA84bEef15AF5D39BB4d4bEE23F0cA",
        "tokenI": 2,
        "underlyingI": 0
      }
    ],
    0
  ],
  "numDeployments": 1,
  "solcInputHash": "506e4d701ff4cad88a6318a359a18fdb",
  "bytecode": "0x60c06040523480156200001157600080fd5b506040516200680d3803806200680d833981016040819052620000349162000ea2565b60016002556003805461ffff191690556200005f61ffff8216620003e7602090811b6200258a17901c565b6200007d576040516325cd038560e01b815260040160405180910390fd5b620000978761ffff16620003e760201b6200258a1760201c565b620000b55760405163f799c76d60e01b815260040160405180910390fd5b620000cf8461ffff16620003e760201b6200258a1760201c565b620000ed5760405163d25b1e4b60e01b815260040160405180910390fd5b620001078361ffff16620003e760201b6200258a1760201c565b6200012557604051631d05623160e01b815260040160405180910390fd5b6001600160a01b0389166200014d57604051631fc8ba7960e31b815260040160405180910390fd5b6001600160a01b03861662000175576040516335af31e960e11b815260040160405180910390fd5b6001600160a01b0385166200019d576040516330c9889360e01b815260040160405180910390fd5b620001a888620003ef565b620001b560008662000433565b620001e17ffc8737ab85eb45125971625a9ebdb75cc78e01d5c1fa80c4c6e5203f47bc4fab8662000433565b6200020d7ffaf9b26485088dee58863e57c46603d6cdcbadc7475ac6d8910fab0ecf6030958662000433565b620002397f1597bc5e34ff090612f53164e4e642d2ab4fc78bffe19ed1b602a0d12559561a8662000433565b86600360026101000a81548161ffff021916908361ffff160217905550886001600160a01b03166080816001600160a01b03168152505085600d60006101000a8154816001600160a01b0302191690836001600160a01b0316021790555087600360046101000a8154816001600160401b0302191690836001600160401b0316021790555083600d60146101000a81548161ffff021916908361ffff16021790555082600f60006101000a81548161ffff021916908361ffff16021790555080600660006101000a81548161ffff021916908361ffff1602179055506080516001600160a01b031663313ce5676040518163ffffffff1660e01b8152600401602060405180830381865afa15801562000356573d6000803e3d6000fd5b505050506040513d601f19601f820116820180604052508101906200037c919062000f8b565b6200038990600a620010ca565b6200039690600a620010db565b60a052620003a482620004a2565b6040516001600160a01b038716907f7dae230f18360d76a040c81f050aa14eb9d6dc7901b20fc5d855e2a20fe814d190600090a250505050505050505062001215565b612710101590565b6001600160401b038116158062000411575062dd7c006001600160401b038216115b156200043057604051636df7cef760e11b815260040160405180910390fd5b50565b6200043f8282620004f5565b6200049e5760008281526001602081815260408084206001600160a01b0386168086529252808420805460ff19169093179092559051339285917f2f8788117e7eff1d82e926ec794901d17c78024a50270940304540a733656f0d9190a45b5050565b805160005b81811015620004f057620004dd838281518110620004c957620004c9620010fd565b60200260200101516200052260201b60201c565b620004e88162001113565b9050620004a7565b505050565b60008281526001602090815260408083206001600160a01b038516845290915290205460ff165b92915050565b80516001600160a01b039081166000908152602081905260409020541615620005715780516040516326eb155560e01b81526001600160a01b0390911660048201526024015b60405180910390fd5b80602001516001600160a01b031663c661065782606001516001600160801b03166040518263ffffffff1660e01b8152600401620005b191815260200190565b602060405180830381865afa158015620005cf573d6000803e3d6000fd5b505050506040513d601f19601f82011682018060405250810190620005f5919062001131565b6001600160a01b03166200060860805190565b6001600160a01b031614620006495780516080516040516370b45c8f60e01b81526001600160a01b0392831660048201529116602482015260440162000568565b600081600001516001600160a01b031663313ce5676040518163ffffffff1660e01b8152600401602060405180830381865afa1580156200068e573d6000803e3d6000fd5b505050506040513d601f19601f82011682018060405250810190620006b4919062000f8b565b60ff1690506000620006c560805190565b6001600160a01b031663313ce5676040518163ffffffff1660e01b8152600401602060405180830381865afa15801562000703573d6000803e3d6000fd5b505050506040513d601f19601f8201168201806040525081019062000729919062000f8b565b6040805160a0810182526020808701516001600160a01b03908116835260ff8781168385019081529581168486018181528a870151600f90810b60608089019182528d015190910b608088019081528c5186166000908152968790529790952095518654985191518416600160a81b0260ff60a81b1992909416600160a01b026001600160a81b031990991694169390931796909617919091161782555191516001600160801b03908116600160801b02921691909117600190910155905062000801620007f660805190565b602085015162000886565b8251602084015162000814919062000886565b82602001516001600160a01b031683600001516001600160a01b03167f1576b5fcfa863788d9ef6558cab7aa68d4b48c44eb7bacaf1a8ac6d6b9d26f948560400151866060015160405162000879929190600f92830b8152910b602082015260400190565b60405180910390a3505050565b604051636eb1769f60e11b81523060048201526001600160a01b0382811660248301526000919084169063dd62ed3e90604401602060405180830381865afa158015620008d7573d6000803e3d6000fd5b505050506040513d601f19601f82011682018060405250810190620008fd919062001151565b905080620004f057620004f082600019856001600160a01b03166200092c60201b62002592179092919060201c565b801580620009aa5750604051636eb1769f60e11b81523060048201526001600160a01b03838116602483015284169063dd62ed3e90604401602060405180830381865afa15801562000982573d6000803e3d6000fd5b505050506040513d601f19601f82011682018060405250810190620009a8919062001151565b155b62000a1e5760405162461bcd60e51b815260206004820152603660248201527f5361666545524332303a20617070726f76652066726f6d206e6f6e2d7a65726f60448201527f20746f206e6f6e2d7a65726f20616c6c6f77616e636500000000000000000000606482015260840162000568565b604080516001600160a01b038416602482015260448082018490528251808303909101815260649091019091526020810180516001600160e01b0390811663095ea7b360e01b17909152620004f091859162000a7616565b600062000ad2826040518060400160405280602081526020017f5361666545524332303a206c6f772d6c6576656c2063616c6c206661696c6564815250856001600160a01b031662000b5460201b6200270f179092919060201c565b805190915015620004f0578080602001905181019062000af391906200116b565b620004f05760405162461bcd60e51b815260206004820152602a60248201527f5361666545524332303a204552433230206f7065726174696f6e20646964206e6044820152691bdd081cdd58d8d9595960b21b606482015260840162000568565b606062000b65848460008562000b6d565b949350505050565b60608247101562000bd05760405162461bcd60e51b815260206004820152602660248201527f416464726573733a20696e73756666696369656e742062616c616e636520666f6044820152651c8818d85b1b60d21b606482015260840162000568565b600080866001600160a01b0316858760405162000bee9190620011c2565b60006040518083038185875af1925050503d806000811462000c2d576040519150601f19603f3d011682016040523d82523d6000602084013e62000c32565b606091505b50909250905062000c468783838762000c51565b979650505050505050565b6060831562000cc257825162000cba576001600160a01b0385163b62000cba5760405162461bcd60e51b815260206004820152601d60248201527f416464726573733a2063616c6c20746f206e6f6e2d636f6e7472616374000000604482015260640162000568565b508162000b65565b62000b65838381511562000cd95781518083602001fd5b8060405162461bcd60e51b8152600401620005689190620011e0565b6001600160a01b03811681146200043057600080fd5b805161ffff8116811462000d1e57600080fd5b919050565b805162000d1e8162000cf5565b634e487b7160e01b600052604160045260246000fd5b604051608081016001600160401b038111828210171562000d6b5762000d6b62000d30565b60405290565b604051601f8201601f191681016001600160401b038111828210171562000d9c5762000d9c62000d30565b604052919050565b8051600f81900b811462000d1e57600080fd5b600082601f83011262000dc957600080fd5b815160206001600160401b0382111562000de75762000de762000d30565b62000df7818360051b0162000d71565b82815260079290921b8401810191818101908684111562000e1757600080fd5b8286015b8481101562000e97576080818903121562000e365760008081fd5b62000e4062000d46565b815162000e4d8162000cf5565b81528185015162000e5e8162000cf5565b81860152604062000e7183820162000da4565b90820152606062000e8483820162000da4565b9082015283529183019160800162000e1b565b509695505050505050565b60008060008060008060008060006101208a8c03121562000ec257600080fd5b895162000ecf8162000cf5565b60208b01519099506001600160401b03808216821462000eee57600080fd5b81995062000eff60408d0162000d0b565b985060608c0151915062000f138262000cf5565b81975062000f2460808d0162000d23565b965062000f3460a08d0162000d0b565b955062000f4460c08d0162000d0b565b945060e08c015191508082111562000f5b57600080fd5b5062000f6a8c828d0162000db7565b92505062000f7c6101008b0162000d0b565b90509295985092959850929598565b60006020828403121562000f9e57600080fd5b815160ff8116811462000fb057600080fd5b9392505050565b634e487b7160e01b600052601160045260246000fd5b600181815b808511156200100e57816000190482111562000ff25762000ff262000fb7565b808516156200100057918102915b93841c939080029062000fd2565b509250929050565b60008262001027575060016200051c565b8162001036575060006200051c565b81600181146200104f57600281146200105a576200107a565b60019150506200051c565b60ff8411156200106e576200106e62000fb7565b50506001821b6200051c565b5060208310610133831016604e8410600b84101617156200109f575081810a6200051c565b620010ab838362000fcd565b8060001904821115620010c257620010c262000fb7565b029392505050565b600062000fb060ff84168362001016565b6000816000190483118215151615620010f857620010f862000fb7565b500290565b634e487b7160e01b600052603260045260246000fd5b60006000198214156200112a576200112a62000fb7565b5060010190565b6000602082840312156200114457600080fd5b815162000fb08162000cf5565b6000602082840312156200116457600080fd5b5051919050565b6000602082840312156200117e57600080fd5b8151801515811462000fb057600080fd5b60005b83811015620011ac57818101518382015260200162001192565b83811115620011bc576000848401525b50505050565b60008251620011d68184602087016200118f565b9190910192915050565b6020815260008251806020840152620012018160408501602087016200118f565b601f01601f19169190910160400192915050565b60805160a05161555b620012b2600039600081816112660152818161136c015261440c0152600081816105d10152818161074401528181610f0d015281816113bc01528181611a8601528181611f8c015281816120230152818161296b01528181612cc601528181612cf701528181612dcc01528181612f4f01528181613224015281816133000152818161381e015261466a015261555b6000f3fe608060405234801561001057600080fd5b50600436106103d05760003560e01c806391d14854116101ff578063cd00dd411161011a578063e4020fdf116100ad578063f5eb42dc1161007c578063f5eb42dc146109be578063f6289887146109ea578063f78797c014610a11578063fd6e921714610a3a57600080fd5b8063e4020fdf14610981578063e751c14114610994578063eb0ebfbc146109a2578063f0f44260146109ab57600080fd5b8063d7c01e12116100e9578063d7c01e121461091f578063d9db2b7714610932578063da62fba914610947578063df6f9ba71461096e57600080fd5b8063cd00dd41146108d3578063cd0d9ba8146108e6578063cda2695a146108f9578063d547741f1461090c57600080fd5b8063b02c43d011610192578063bd2e3ecd11610161578063bd2e3ecd14610628578063c0ddb6921461089c578063c2d79444146108a4578063c70920bc146108cb57600080fd5b8063b02c43d0146107c9578063b5106add1461083b578063b59a40cb1461084e578063bba97d331461086e57600080fd5b8063a1ac20eb116101ce578063a1ac20eb14610785578063a217fddf14610798578063a8c62e76146107a0578063abaa9d70146107b957600080fd5b806391d14854146107095780639816f47314610742578063999927df14610768578063a164c25d1461077b57600080fd5b80634fc78d68116102ef5780636f307dc3116102825780637e4b8da0116102515780637e4b8da0146106455780638293744b146106585780638456cb591461066b5780638cad7fbe1461067357600080fd5b80636f307dc3146105cc57806373ae54b5146105f357806376490b56146106285780637e2cba6f1461063257600080fd5b80635e848655116102be5780635e8486551461054f57806361d027b31461055757806361e20a1c146105825780636e7007e6146105ab57600080fd5b80634fc78d6814610521578063563233f6146105295780635c975abb1461053c5780635cb0d4061461054757600080fd5b80633a98ef39116103675780633f4ba83a116103365780633f4ba83a146104e057806348b08ee8146104e85780634b1533b2146104fb5780634e813ac41461050457600080fd5b80633a98ef39146104a95780633b7d0946146104b25780633ba52fc6146104c55780633f383236146104cd57600080fd5b80632f2ff15d116103a35780632f2ff15d1461044757806333a100ca1461045c578063364bc15a1461046f57806336568abe1461049657600080fd5b806301ffc9a7146103d55780631325d5f1146103fd57806319d3ee3d1461041a578063248a9ca314610423575b600080fd5b6103e86103e3366004614c2f565b610a4e565b60405190151581526020015b60405180910390f35b61040c670de0b6b3a764000081565b6040519081526020016103f4565b61040c600e5481565b61040c610431366004614c59565b6000908152600160208190526040909120015490565b61045a610455366004614c87565b610ac6565b005b61045a61046a366004614cb7565b610af1565b61040c7ffc8737ab85eb45125971625a9ebdb75cc78e01d5c1fa80c4c6e5203f47bc4fab81565b61045a6104a4366004614c87565b610d46565b61040c60055481565b61045a6104c0366004614cb7565b610dd7565b61045a610e32565b61045a6104db366004614d56565b610f36565b61045a610f8e565b61045a6104f6366004614de9565b610fe7565b61040c600c5481565b61050c6110c5565b604080519283526020830191909152016103f4565b61045a611187565b61045a610537366004614de9565b611491565b60035460ff166103e8565b61045a611591565b61045a6115e8565b600d5461056a906001600160a01b031681565b6040516001600160a01b0390911681526020016103f4565b61040c610590366004614cb7565b6001600160a01b03166000908152600b602052604090205490565b600f546105b99061ffff1681565b60405161ffff90911681526020016103f4565b61056a7f000000000000000000000000000000000000000000000000000000000000000081565b60035461060f90640100000000900467ffffffffffffffff1681565b60405167ffffffffffffffff90911681526020016103f4565b61060f62dd7c0081565b61045a610640366004614de9565b61163f565b61045a610653366004614e50565b611712565b61045a610666366004614ed3565b611767565b61045a6117f8565b6106ca610681366004614cb7565b600060208190529081526040902080546001909101546001600160a01b0382169160ff600160a01b8204811692600160a81b9092041690600f81810b91600160801b9004900b85565b604080516001600160a01b03909616865260ff94851660208701529390921692840192909252600f91820b6060840152900b608082015260a0016103f4565b6103e8610717366004614c87565b60009182526001602090815260408084206001600160a01b0393909316845291905290205460ff1690565b7f000000000000000000000000000000000000000000000000000000000000000061056a565b61045a610776366004614cb7565b61184f565b61060f6212750081565b61045a610793366004614de9565b611abd565b61040c600081565b60065461056a906201000090046001600160a01b031681565b600354610100900460ff166103e8565b61080b6107d7366004614c59565b600960205260009081526040902080546001820154600283015460039093015491926001600160a01b039182169291169084565b6040516103f494939291909384526001600160a01b03928316602085015291166040830152606082015260800190565b61045a610849366004614cb7565b611ba3565b61086161085c366004614f40565b611d87565b6040516103f49190614f75565b61088161087c366004614cb7565b611de4565b604080519384526020840192909252908201526060016103f4565b61040c611ea3565b61040c7f1597bc5e34ff090612f53164e4e642d2ab4fc78bffe19ed1b602a0d12559561a81565b61040c611ee6565b61045a6108e1366004614e50565b612096565b6108616108f4366004614fb9565b6120da565b61045a610907366004615000565b612152565b61045a61091a366004614c87565b61234f565b61045a61092d36600461503b565b612375565b600d546105b990600160a01b900461ffff1681565b61050c610955366004614cb7565b600b602052600090815260409020805460019091015482565b61045a61097c366004614ed3565b61242b565b61045a61098f366004614ed3565b61246f565b6006546105b99061ffff1681565b61040c60045481565b61045a6109b9366004614cb7565b6124b1565b61040c6109cc366004614cb7565b6001600160a01b03166000908152600b602052604090206001015490565b61040c7ffaf9b26485088dee58863e57c46603d6cdcbadc7475ac6d8910fab0ecf60309581565b61056a610a1f366004614c59565b6008602052600090815260409020546001600160a01b031681565b6003546105b99062010000900461ffff1681565b60006001600160e01b031982167f944e9e23000000000000000000000000000000000000000000000000000000001480610ab157506001600160e01b031982167f0fae047800000000000000000000000000000000000000000000000000000000145b80610ac05750610ac082612728565b92915050565b60008281526001602081905260409091200154610ae28161278f565b610aec8383612799565b505050565b3360009081527f473683a5a3e156e4e3a6c3a7a6d9e3d4a58f9392a3bba04b84ad6221b3f7f356602052604090205460ff16610b4057604051631e15456f60e11b815260040160405180910390fd5b6001600160a01b038116610b6757604051634f08b3f360e11b815260040160405180910390fd5b306001600160a01b0316816001600160a01b031663fbfa77cf6040518163ffffffff1660e01b8152600401602060405180830381865afa158015610baf573d6000803e3d6000fd5b505050506040513d601f19601f82011682018060405250810190610bd39190615065565b6001600160a01b031614610c13576040517f0251bab500000000000000000000000000000000000000000000000000000000815260040160405180910390fd5b6006546201000090046001600160a01b031615801590610ca55750600660029054906101000a90046001600160a01b03166001600160a01b0316635be9b2d36040518163ffffffff1660e01b8152600401602060405180830381865afa158015610c81573d6000803e3d6000fd5b505050506040513d601f19601f82011682018060405250810190610ca59190615082565b15610cdc576040517fd28a9fdb00000000000000000000000000000000000000000000000000000000815260040160405180910390fd5b600680547fffffffffffffffffffff0000000000000000000000000000000000000000ffff16620100006001600160a01b038416908102919091179091556040517f4da9c22c924692646a21cf1f423781ae3285198dc22e8a6912835d3272b90b3c90600090a250565b6001600160a01b0381163314610dc95760405162461bcd60e51b815260206004820152602f60248201527f416363657373436f6e74726f6c3a2063616e206f6e6c792072656e6f756e636560448201527f20726f6c657320666f722073656c66000000000000000000000000000000000060648201526084015b60405180910390fd5b610dd38282612820565b5050565b3360009081527fa6eef7e35abe7026729641147f7915573c7e97b47efa546f5f6e3230263bcb49602052604090205460ff16610e2657604051631bacfc6960e01b815260040160405180910390fd5b610e2f816128a3565b50565b3360009081527f10c15aae13326e9b33c92ffbb94efb7492c500f0cca324caca9bd1aca194ed18602052604090205460ff16610e8157604051637660f80560e11b815260040160405180910390fd5b600e5480610ebb576040517f0a33934000000000000000000000000000000000000000000000000000000000815260040160405180910390fd5b6000600e55610ec981612953565b6040518181527fb7eeacba6b133788365610e83d3f130d07b6ef6e78877961f25b3f61fcba07529060200160405180910390a1600d54610e2f906001600160a01b037f00000000000000000000000000000000000000000000000000000000000000008116911683612b87565b3360009081527fa6eef7e35abe7026729641147f7915573c7e97b47efa546f5f6e3230263bcb49602052604090205460ff16610f8557604051631bacfc6960e01b815260040160405180910390fd5b610e2f81612bd0565b3360009081527fa6eef7e35abe7026729641147f7915573c7e97b47efa546f5f6e3230263bcb49602052604090205460ff16610fdd57604051631bacfc6960e01b815260040160405180910390fd5b610fe5612ffe565b565b3360009081527f473683a5a3e156e4e3a6c3a7a6d9e3d4a58f9392a3bba04b84ad6221b3f7f356602052604090205460ff1661103657604051631e15456f60e11b815260040160405180910390fd5b61ffff81166127101015611076576040517f25cd038500000000000000000000000000000000000000000000000000000000815260040160405180910390fd5b60405161ffff821681527fd7adeddbad454575cc686aee138c6f258b6177a977b4e7be7086ebb25de0e9a39060200160405180910390a16006805461ffff191661ffff92909216919091179055565b60065460009081906201000090046001600160a01b03166110e95750600091829150565b6003546111089062010000900461ffff16611102611ee6565b90613050565b9150600660029054906101000a90046001600160a01b03166001600160a01b0316634ad0b6846040518163ffffffff1660e01b8152600401602060405180830381865afa15801561115d573d6000803e3d6000fd5b505050506040513d601f19601f8201168201806040525081019061118191906150a4565b90509091565b3360009081527f10c15aae13326e9b33c92ffbb94efb7492c500f0cca324caca9bd1aca194ed18602052604090205460ff166111d657604051637660f80560e11b815260040160405180910390fd5b6006546201000090046001600160a01b031661120557604051634f08b3f360e11b815260040160405180910390fd5b6000806112106110c5565b915091508082141561124e576040517ff096593000000000000000000000000000000000000000000000000000000000815260040160405180910390fd5b8181111561135c57600061126283836150d3565b90507f00000000000000000000000000000000000000000000000000000000000000008110156112a557604051630e33bdb760e11b815260040160405180910390fd5b6006546040516319d1885d60e31b8152600481018390526000916201000090046001600160a01b03169063ce8c42e8906024016020604051808303816000875af11580156112f7573d6000803e3d6000fd5b505050506040513d601f19601f8201168201806040525081019061131b91906150a4565b90507ff7e72e2f53a982a67fc999c00edfd87a94bdf99e5031c74851276cfd65b0bd298160405161134e91815260200190565b60405180910390a150505050565b600061136882846150d3565b90507f00000000000000000000000000000000000000000000000000000000000000008110156113ab57604051630e33bdb760e11b815260040160405180910390fd5b6006546113eb906001600160a01b037f00000000000000000000000000000000000000000000000000000000000000008116916201000090041683612b87565b600660029054906101000a90046001600160a01b03166001600160a01b031663e8b5e51f6040518163ffffffff1660e01b8152600401600060405180830381600087803b15801561143b57600080fd5b505af115801561144f573d6000803e3d6000fd5b505050507fac9f7997c30b6a3cc9c74953898b5de154359339c7ec0d6d70ceb98e55db1a4b8160405161148491815260200190565b60405180910390a1505050565b3360009081527f473683a5a3e156e4e3a6c3a7a6d9e3d4a58f9392a3bba04b84ad6221b3f7f356602052604090205460ff166114e057604051631e15456f60e11b815260040160405180910390fd5b61ffff81166127101015611520576040517fd25b1e4b00000000000000000000000000000000000000000000000000000000815260040160405180910390fd5b600d80547fffffffffffffffffffff0000ffffffffffffffffffffffffffffffffffffffff16600160a01b61ffff8416908102919091179091556040519081527f16de0efbdf16c568a60b65978ed774bba4e0c179de55ab8f639527e41fd0c861906020015b60405180910390a150565b3360009081527fa6eef7e35abe7026729641147f7915573c7e97b47efa546f5f6e3230263bcb49602052604090205460ff166115e057604051631bacfc6960e01b815260040160405180910390fd5b610fe561306d565b3360009081527fa6eef7e35abe7026729641147f7915573c7e97b47efa546f5f6e3230263bcb49602052604090205460ff1661163757604051631bacfc6960e01b815260040160405180910390fd5b610fe56130ac565b3360009081527f473683a5a3e156e4e3a6c3a7a6d9e3d4a58f9392a3bba04b84ad6221b3f7f356602052604090205460ff1661168e57604051631e15456f60e11b815260040160405180910390fd5b61ffff811661271010156116ce576040517f1d05623100000000000000000000000000000000000000000000000000000000815260040160405180910390fd5b600f805461ffff191661ffff83169081179091556040519081527f5b9aa28fc994f782b33ebebd9947795b5bc59a54203466433eac5f8d9e81940090602001611586565b61171a6130e6565b61172261313e565b6001600160a01b0385166117495760405163f95106ab60e01b815260040160405180910390fd5b6117568585858585613196565b6117606001600255565b5050505050565b61176f6130e6565b61177761313e565b6001600160a01b03831661179e5760405163f95106ab60e01b815260040160405180910390fd5b6117a6611ea3565b600c5411156117e1576040517f0bdd660c00000000000000000000000000000000000000000000000000000000815260040160405180910390fd5b6117ee8383836000613256565b610aec6001600255565b3360009081527fa6eef7e35abe7026729641147f7915573c7e97b47efa546f5f6e3230263bcb49602052604090205460ff1661184757604051631bacfc6960e01b815260040160405180910390fd5b610fe5613331565b6118576130e6565b61185f61313e565b6001600160a01b0381166118865760405163f95106ab60e01b815260040160405180910390fd5b600080600061189433611de4565b92509250925082600014156118d5576040517f58367fe100000000000000000000000000000000000000000000000000000000815260040160405180910390fd5b60006118df611ea3565b90506000600554905082600e60008282546118fa91906150ea565b9091555050336000908152600b6020526040812060010180548692906119219084906150d3565b92505081905550836005600082825461193a91906150d3565b90915550506040805133815260208101879052908101859052606081018490526080810183905260a081018290526001600160a01b038716907f4344accc2a634cf29195bba6fa3d939e3415ecd1ca5c57b322bcf81f920979c89060c00160405180910390a26006546201000090046001600160a01b031615611a70576006546040517fa4ab9fbf0000000000000000000000000000000000000000000000000000000081526001600160a01b03888116600483015260248201889052600092620100009004169063a4ab9fbf906044016020604051808303816000875af1158015611a2a573d6000803e3d6000fd5b505050506040513d601f19601f82011682018060405250810190611a4e91906150a4565b9050858110611a6257505050505050611ab3565b611a6c81876150d3565b9550505b611a7985612953565b611aad6001600160a01b037f0000000000000000000000000000000000000000000000000000000000000000168787612b87565b50505050505b610e2f6001600255565b3360009081527f473683a5a3e156e4e3a6c3a7a6d9e3d4a58f9392a3bba04b84ad6221b3f7f356602052604090205460ff16611b0c57604051631e15456f60e11b815260040160405180910390fd5b61ffff81166127101015611b4c576040517ff799c76d00000000000000000000000000000000000000000000000000000000815260040160405180910390fd5b60405161ffff821681527f40775ca73a6e168d23747bc0200694cf7c99ad2db624d04c095cb59899011a569060200160405180910390a16003805461ffff909216620100000263ffff000019909216919091179055565b3360009081527fa6eef7e35abe7026729641147f7915573c7e97b47efa546f5f6e3230263bcb49602052604090205460ff16611bf257604051631bacfc6960e01b815260040160405180910390fd5b6001600160a01b038116611c32576040517f30c9889300000000000000000000000000000000000000000000000000000000815260040160405180910390fd5b6001600160a01b038116331415611c75576040517f25499f7e00000000000000000000000000000000000000000000000000000000815260040160405180910390fd5b611c80600082612799565b611caa7ffc8737ab85eb45125971625a9ebdb75cc78e01d5c1fa80c4c6e5203f47bc4fab82612799565b611cd47ffaf9b26485088dee58863e57c46603d6cdcbadc7475ac6d8910fab0ecf60309582612799565b611cfe7f1597bc5e34ff090612f53164e4e642d2ab4fc78bffe19ed1b602a0d12559561a82612799565b611d09600033612820565b611d337ffc8737ab85eb45125971625a9ebdb75cc78e01d5c1fa80c4c6e5203f47bc4fab33612820565b611d5d7ffaf9b26485088dee58863e57c46603d6cdcbadc7475ac6d8910fab0ecf60309533612820565b610e2f7f1597bc5e34ff090612f53164e4e642d2ab4fc78bffe19ed1b602a0d12559561a33612820565b6060611d916130e6565b611d9961336e565b600754611da78160016150ea565b600755600081815260086020526040902080546001600160a01b03191633179055611dd281846133c1565b915050611ddf6001600255565b919050565b6001600160a01b0381166000908152600b6020526040812080546001909101548291829182611e11611ea3565b90506000611e2283600554846135b4565b9050838111611e3f57600080600096509650965050505050611e9c565b6000611e4b85836150d3565b9050611e5a81600554856135ec565b96506000611e6b88600554866135b4565b600d54909150611e87908290600160a01b900461ffff16613050565b9650611e9387826150d3565b98505050505050505b9193909250565b600080611eae611ee6565b90506000600e54600454611ec291906150ea565b905081811115611ed55760009250505090565b611edf81836150d3565b9250505090565b6006546000906201000090046001600160a01b03161561200e57600660029054906101000a90046001600160a01b03166001600160a01b0316634ad0b6846040518163ffffffff1660e01b8152600401602060405180830381865afa158015611f53573d6000803e3d6000fd5b505050506040513d601f19601f82011682018060405250810190611f7791906150a4565b6040516370a0823160e01b81523060048201527f00000000000000000000000000000000000000000000000000000000000000006001600160a01b0316906370a0823190602401602060405180830381865afa158015611fdb573d6000803e3d6000fd5b505050506040513d601f19601f82011682018060405250810190611fff91906150a4565b61200991906150ea565b905090565b6040516370a0823160e01b81523060048201527f00000000000000000000000000000000000000000000000000000000000000006001600160a01b0316906370a0823190602401602060405180830381865afa158015612072573d6000803e3d6000fd5b505050506040513d601f19601f8201168201806040525081019061200991906150a4565b61209e6130e6565b6120a661313e565b6001600160a01b0385166120cd5760405163f95106ab60e01b815260040160405180910390fd5b611756858585858561365b565b60606120e46130e6565b6120ec61336e565b6000838152600860205260409020546001600160a01b0316331461213c576040517f9049b68600000000000000000000000000000000000000000000000000000000815260040160405180910390fd5b61214683836133c1565b9050610ac06001600255565b61215a6130e6565b3360009081527f27365024d84ecf053ef4d13025b66be161b03e90a7fc7ff54f74d5533a9f857e602052604090205460ff166121c2576040517f9aff7af000000000000000000000000000000000000000000000000000000000815260040160405180910390fd5b6121ca61336e565b82612201576040517ff712805800000000000000000000000000000000000000000000000000000000815260040160405180910390fd5b62127500821080612214575062dd7c0082115b1561223257604051636235acd960e01b815260040160405180910390fd5b600061223e42846150ea565b905061224e600a80546001019055565b6000612259600a5490565b90506122663387876136e9565b600061227387878661381a565b604080516080810182528281523360208083019182526000838501818152606085018a815289835260099093529481209351845591516001840180546001600160a01b03199081166001600160a01b0393841617909155945160028501805490961691161790935591516003909101556004805492935083929091906122fa9084906150ea565b90915550506040805182815260208101859052339184917f7ca3497675c6d3ec00b1edc13b8e0b06169ee96a663ab25a74af7da53378f09e910160405180910390a35050506123496001600255565b50505050565b6000828152600160208190526040909120015461236b8161278f565b610aec8383612820565b3360009081527f473683a5a3e156e4e3a6c3a7a6d9e3d4a58f9392a3bba04b84ad6221b3f7f356602052604090205460ff166123c457604051631e15456f60e11b815260040160405180910390fd5b6123cd816139ae565b600380546bffffffffffffffff00000000191664010000000067ffffffffffffffff8416908102919091179091556040519081527fdc875ce606492a3222077a7f25eb65b623985a5f201bb572c595551cc99dd5f390602001611586565b6124336130e6565b61243b61313e565b6001600160a01b0383166124625760405163f95106ab60e01b815260040160405180910390fd5b6117ee8383836001613256565b6124776130e6565b61247f61313e565b6001600160a01b0383166124a65760405163f95106ab60e01b815260040160405180910390fd5b6117ee838383613a08565b3360009081527f473683a5a3e156e4e3a6c3a7a6d9e3d4a58f9392a3bba04b84ad6221b3f7f356602052604090205460ff1661250057604051631e15456f60e11b815260040160405180910390fd5b6001600160a01b038116612540576040517f6b5e63d200000000000000000000000000000000000000000000000000000000815260040160405180910390fd5b600d80546001600160a01b0319166001600160a01b0383169081179091556040517f7dae230f18360d76a040c81f050aa14eb9d6dc7901b20fc5d855e2a20fe814d190600090a250565b612710101590565b80158061260c5750604051636eb1769f60e11b81523060048201526001600160a01b03838116602483015284169063dd62ed3e90604401602060405180830381865afa1580156125e6573d6000803e3d6000fd5b505050506040513d601f19601f8201168201806040525081019061260a91906150a4565b155b61267e5760405162461bcd60e51b815260206004820152603660248201527f5361666545524332303a20617070726f76652066726f6d206e6f6e2d7a65726f60448201527f20746f206e6f6e2d7a65726f20616c6c6f77616e6365000000000000000000006064820152608401610dc0565b6040516001600160a01b038316602482015260448101829052610aec9084907f095ea7b300000000000000000000000000000000000000000000000000000000906064015b60408051601f198184030181529190526020810180517bffffffffffffffffffffffffffffffffffffffffffffffffffffffff166001600160e01b031990931692909217909152613a83565b606061271e8484600085613b68565b90505b9392505050565b60006001600160e01b031982167f7965db0b000000000000000000000000000000000000000000000000000000001480610ac057507f01ffc9a7000000000000000000000000000000000000000000000000000000006001600160e01b0319831614610ac0565b610e2f8133613c5c565b60008281526001602090815260408083206001600160a01b038516845290915290205460ff16610dd35760008281526001602081815260408084206001600160a01b0386168086529252808420805460ff19169093179092559051339285917f2f8788117e7eff1d82e926ec794901d17c78024a50270940304540a733656f0d9190a45050565b60008281526001602090815260408083206001600160a01b038516845290915290205460ff1615610dd35760008281526001602090815260408083206001600160a01b0385168085529252808320805460ff1916905551339285917ff6391f5c32d9c69d2a47ea670b442974b53935d1edc7fd64eb21e047a839171b9190a45050565b6001600160a01b03818116600090815260208190526040902054166128e65760405163eb1a7bc960e01b81526001600160a01b0382166004820152602401610dc0565b6001600160a01b03811660008181526020819052604080822080547fffffffffffffffffffff00000000000000000000000000000000000000000000168155600101829055517f94be23730c4398d20227f4e457cf92307b13e5956f2a958e2e368ad44e2f826b9190a250565b6040516370a0823160e01b81523060048201526000907f00000000000000000000000000000000000000000000000000000000000000006001600160a01b0316906370a0823190602401602060405180830381865afa1580156129ba573d6000803e3d6000fd5b505050506040513d601f19601f820116820180604052508101906129de91906150a4565b90508082116129eb575050565b600660029054906101000a90046001600160a01b03166001600160a01b0316639af2e6356040518163ffffffff1660e01b8152600401602060405180830381865afa158015612a3e573d6000803e3d6000fd5b505050506040513d601f19601f82011682018060405250810190612a629190615082565b612a7f57604051635f842b9960e11b815260040160405180910390fd5b600354600090612ab290612a9f9062010000900461ffff16612710615102565b84612aa8611ee6565b61110291906150d3565b9050600082612ac183866150ea565b612acb91906150d3565b6006546040516319d1885d60e31b815260048101839052919250600091620100009091046001600160a01b03169063ce8c42e8906024016020604051808303816000875af1158015612b21573d6000803e3d6000fd5b505050506040513d601f19601f82011682018060405250810190612b4591906150a4565b90507ff7e72e2f53a982a67fc999c00edfd87a94bdf99e5031c74851276cfd65b0bd2981604051612b7891815260200190565b60405180910390a15050505050565b6040516001600160a01b038316602482015260448101829052610aec9084907fa9059cbb00000000000000000000000000000000000000000000000000000000906064016126c3565b80516001600160a01b039081166000908152602081905260409020541615612c325780516040517f26eb15550000000000000000000000000000000000000000000000000000000081526001600160a01b039091166004820152602401610dc0565b80602001516001600160a01b031663c661065782606001516fffffffffffffffffffffffffffffffff166040518263ffffffff1660e01b8152600401612c7a91815260200190565b602060405180830381865afa158015612c97573d6000803e3d6000fd5b505050506040513d601f19601f82011682018060405250810190612cbb9190615065565b6001600160a01b03167f00000000000000000000000000000000000000000000000000000000000000006001600160a01b031614612d5b5780517f00000000000000000000000000000000000000000000000000000000000000006040517f70b45c8f0000000000000000000000000000000000000000000000000000000081526001600160a01b03928316600482015291166024820152604401610dc0565b600081600001516001600160a01b031663313ce5676040518163ffffffff1660e01b8152600401602060405180830381865afa158015612d9f573d6000803e3d6000fd5b505050506040513d601f19601f82011682018060405250810190612dc39190615125565b60ff16905060007f00000000000000000000000000000000000000000000000000000000000000006001600160a01b031663313ce5676040518163ffffffff1660e01b8152600401602060405180830381865afa158015612e28573d6000803e3d6000fd5b505050506040513d601f19601f82011682018060405250810190612e4c9190615125565b6040805160a0810182526020808701516001600160a01b03908116835260ff8781168385019081529581168486018181528a870151600f90810b60608089019182528d015190910b608088019081528c5186166000908152968790529790952095518654985191518416600160a81b027fffffffffffffffffffff00ffffffffffffffffffffffffffffffffffffffffff92909416600160a01b027fffffffffffffffffffffff00000000000000000000000000000000000000000090991694169390931796909617919091161782555191516fffffffffffffffffffffffffffffffff908116600160801b029216919091176001909101559050612f7b612f717f000000000000000000000000000000000000000000000000000000000000000090565b8460200151613cd1565b612f8d83600001518460200151613cd1565b82602001516001600160a01b031683600001516001600160a01b03167f1576b5fcfa863788d9ef6558cab7aa68d4b48c44eb7bacaf1a8ac6d6b9d26f9485604001518660600151604051612ff1929190600f92830b8152910b602082015260400190565b60405180910390a3505050565b613006613d62565b6003805460ff191690557f5db9ee0a495bf2e6ff9c91a7834c1ba4fdd244a5e8aa4e537bd38aeae4b073aa335b6040516001600160a01b03909116815260200160405180910390a1565b600061271061306361ffff841685615148565b6127219190615167565b61307561313e565b6003805461ff0019166101001790557f92493a2527e1a0e4214d0f98b1bedbdc2b53ef81ee4578756108fef0deff09ee6130333390565b6130b4613db4565b6003805461ff00191690557fc47f9c912614e04aeb80c7e6cdc73c0f4368cde4bf42df3b26ad96b898913c7d33613033565b6002805414156131385760405162461bcd60e51b815260206004820152601f60248201527f5265656e7472616e637947756172643a207265656e7472616e742063616c6c006044820152606401610dc0565b60028055565b600354610100900460ff1615610fe55760405162461bcd60e51b815260206004820152601460248201527f5061757361626c653a20457869745061757365640000000000000000000000006044820152606401610dc0565b60055460006131a3611ea3565b9050600085815b8181101561320d576131f18989838181106131c7576131c7615189565b9050602002013586868d60008c8c888181106131e5576131e5615189565b90506020020135613e0b565b6131fb90846150ea565b92506132068161519f565b90506131aa565b5061321782612953565b61324b6001600160a01b037f0000000000000000000000000000000000000000000000000000000000000000168a84612b87565b505050505050505050565b6005546000613263611ea3565b9050600084815b818110156132e9576000600960008a8a8581811061328a5761328a615189565b9050602002013581526020019081526020016000206000015490506132cb8989848181106132ba576132ba615189565b9050602002013587878d8b86613e0b565b6132d590856150ea565b935050806132e29061519f565b905061326a565b506132f382612953565b6133276001600160a01b037f0000000000000000000000000000000000000000000000000000000000000000168984612b87565b5050505050505050565b61333961336e565b6003805460ff191660011790557f62e78cea01bee320cd4e420270b5ea74000d11b0c9f74754ebdbfc544b05a2586130333390565b60035460ff1615610fe55760405162461bcd60e51b815260206004820152601060248201527f5061757361626c653a20706175736564000000000000000000000000000000006044820152606401610dc0565b606060408201356133fe576040517fab59997c00000000000000000000000000000000000000000000000000000000815260040160405180910390fd5b600354640100000000900467ffffffffffffffff16613423604084016020850161503b565b67ffffffffffffffff161080613454575062dd7c00613448604084016020850161503b565b67ffffffffffffffff16115b1561347257604051636235acd960e01b815260040160405180910390fd5b600361348160808401846151ba565b905010156134bb576040517f3867858900000000000000000000000000000000000000000000000000000000815260040160405180910390fd5b60006134c8600c5461416d565b905060006134d4611ea3565b905080821115613510576040517f08063cab00000000000000000000000000000000000000000000000000000000815260040160405180910390fd5b61352b336135216020870187614cb7565b86604001356136e9565b600061354c61353d6020870187614cb7565b86604001358760a0013561381a565b9050600042613561604088016020890161503b565b61356b9190615201565b905061359383838361358060608b018b61522d565b61358d60808d018d6151ba565b8e61418c565b60065490955061ffff16156135aa576135aa6143ce565b5050505092915050565b60008315806135c1575082155b806135ca575081155b156135d757506000612721565b826135e28584615148565b61271e9190615167565b6000836135fb57506000612721565b8261361957613612670de0b6b3a764000085615148565b9050612721565b81613650576040517ff91b6e7b00000000000000000000000000000000000000000000000000000000815260040160405180910390fd5b816135e28486615148565b600083815b818160ff1610156136d557600087878360ff1681811061368257613682615189565b905060200201359050600086868460ff168181106136a2576136a2615189565b9050602002013590506136b68a8383614437565b6136c081866150ea565b94505050806136ce90615277565b9050613660565b506136e08783614614565b50505050505050565b6040516370a0823160e01b81523060048201526000906001600160a01b038416906370a0823190602401602060405180830381865afa158015613730573d6000803e3d6000fd5b505050506040513d601f19601f8201168201806040525081019061375491906150a4565b905061376b6001600160a01b038416853085614691565b6040516370a0823160e01b81523060048201526000906001600160a01b038516906370a0823190602401602060405180830381865afa1580156137b2573d6000803e3d6000fd5b505050506040513d601f19601f820116820180604052508101906137d691906150a4565b90506137e283836150ea565b8114611760576040517f2a25a38b00000000000000000000000000000000000000000000000000000000815260040160405180910390fd5b60007f00000000000000000000000000000000000000000000000000000000000000006001600160a01b03858116908216141561385a5783915050612721565b6001600160a01b03808616600090815260208190526040902080549091166138a05760405163eb1a7bc960e01b81526001600160a01b0387166004820152602401610dc0565b805460018201546040517fa6417ed6000000000000000000000000000000000000000000000000000000008152600f82810b6004830152600160801b90920490910b602482015260448101879052606481018690526001600160a01b039091169063a6417ed6906084016020604051808303816000875af1158015613929573d6000803e3d6000fd5b505050506040513d601f19601f8201168201806040525081019061394d91906150a4565b9250816001600160a01b0316866001600160a01b03167ffa2dda1cc1b86e41239702756b13effbc1a092b5c57e3ad320fbe4f3b13fe235878660405161399d929190918252602082015260400190565b60405180910390a350509392505050565b67ffffffffffffffff811615806139d1575062dd7c0067ffffffffffffffff8216115b15610e2f576040517fdbef9dee00000000000000000000000000000000000000000000000000000000815260040160405180910390fd5b600081815b818160ff161015613a7857600085858360ff16818110613a2f57613a2f615189565b6020908102929092013560008181526009909352604090922054919250613a599050888383614437565b613a6381866150ea565b9450505080613a7190615277565b9050613a0d565b506117608583614614565b6000613ad8826040518060400160405280602081526020017f5361666545524332303a206c6f772d6c6576656c2063616c6c206661696c6564815250856001600160a01b031661270f9092919063ffffffff16565b805190915015610aec5780806020019051810190613af69190615082565b610aec5760405162461bcd60e51b815260206004820152602a60248201527f5361666545524332303a204552433230206f7065726174696f6e20646964206e60448201527f6f742073756363656564000000000000000000000000000000000000000000006064820152608401610dc0565b606082471015613be05760405162461bcd60e51b815260206004820152602660248201527f416464726573733a20696e73756666696369656e742062616c616e636520666f60448201527f722063616c6c00000000000000000000000000000000000000000000000000006064820152608401610dc0565b600080866001600160a01b03168587604051613bfc91906152c3565b60006040518083038185875af1925050503d8060008114613c39576040519150601f19603f3d011682016040523d82523d6000602084013e613c3e565b606091505b5091509150613c4f878383876146e2565b925050505b949350505050565b60008281526001602090815260408083206001600160a01b038516845290915290205460ff16610dd357613c8f81614758565b613c9a83602061476a565b604051602001613cab9291906152df565b60408051601f198184030181529082905262461bcd60e51b8252610dc09160040161538c565b604051636eb1769f60e11b81523060048201526001600160a01b0382811660248301526000919084169063dd62ed3e90604401602060405180830381865afa158015613d21573d6000803e3d6000fd5b505050506040513d601f19601f82011682018060405250810190613d4591906150a4565b905080610aec57610aec6001600160a01b03841683600019612592565b60035460ff16610fe55760405162461bcd60e51b815260206004820152601460248201527f5061757361626c653a206e6f74207061757365640000000000000000000000006044820152606401610dc0565b600354610100900460ff16610fe55760405162461bcd60e51b815260206004820152601860248201527f5061757361626c653a206e6f74204578697450617573656400000000000000006044820152606401610dc0565b6000868152600960205260408120600101546001600160a01b03163314613e5e576040517fff40736100000000000000000000000000000000000000000000000000000000815260040160405180910390fd5b60008781526009602090815260408083208151608081018352815481526001808301546001600160a01b039081168387015260028401541682850181905260039093015460608301908152928652600b85529483902083518085019094528054845290940154928201929092529051421015613f06576040517f0f6268c200000000000000000000000000000000000000000000000000000000815260040160405180910390fd5b60408201516001600160a01b0316613f4a576040517fde8b700400000000000000000000000000000000000000000000000000000000815260040160405180910390fd5b8151841115613f6c57604051635bcd1de160e11b815260040160405180910390fd5b6000613f79858a8a6135ec565b82516020840151919250600091613f909088615148565b613f9a9190615167565b905086158015613fa957508082115b15613fe0576040517f7df2e7ab00000000000000000000000000000000000000000000000000000000815260040160405180910390fd5b81878015613fed57508183115b15613ff55750805b6040808601516001600160a01b03166000908152600b60205290812060010180548392906140249084906150d3565b90915550506040808601516001600160a01b03166000908152600b60205290812080548992906140559084906150d3565b92505081905550806005600082825461406e91906150d3565b9250508190555086600c600082825461408791906150d3565b90915550508451871480156140d05760008d81526009602052604081208181556001810180546001600160a01b03199081169091556002820180549091169055600301556140f4565b60008d815260096020526040812080548a92906140ee9084906150d3565b90915550505b6000614101838e8e6135b4565b90508a6001600160a01b03168e7f14e79002ce0df3ba4381425c583d4c9984c7e2910d3e7e088377db997773153e8584866040516141549392919092835260208301919091521515604082015260600190565b60405180910390a39d9c50505050505050505050505050565b600f5460009061418290839061ffff16613050565b610ac090836150d3565b6040805160a0810182526005548152602081018a90526000918101829052606081810183905260808201879052918667ffffffffffffffff8111156141d3576141d3614cd4565b6040519080825280602002602001820160405280156141fc578160200160208202803683370190505b50905060005b826080015181101561437657600089898381811061422257614222615189565b9050602002810190614234919061539f565b61423d906153b5565b805190915061ffff1661427c576040517f4f287e5000000000000000000000000000000000000000000000000000000000815260040160405180910390fd5b60208101516001600160a01b03166142c0576040517fd444696b00000000000000000000000000000000000000000000000000000000815260040160405180910390fd5b6000600185608001516142d391906150d3565b83146142eb5781516142e6908e90613050565b6142fa565b60608501516142fa908e6150d3565b905061431487828e8589600001518a602001518f8f61494b565b84848151811061432657614326615189565b60209081029190910101528151604086018051614344908390615475565b61ffff1690525060608501805182919061435f9083906150ea565b90525061436f915082905061519f565b9050614202565b5061438a826040015161ffff166127101490565b6143c0576040517fd7b03e8400000000000000000000000000000000000000000000000000000000815260040160405180910390fd5b9a9950505050505050505050565b6000806143d96110c5565b600654919350915061ffff166143ef8284614bf6565b61ffff16106143fc575050565b600061440882846150d3565b90507f00000000000000000000000000000000000000000000000000000000000000008110156113ab57505050565b60008281526009602090815260409182902082516080810184528154815260018201546001600160a01b039081169382018490526002830154169381019390935260030154606083015233146144b9576040517f5040aaa300000000000000000000000000000000000000000000000000000000815260040160405180910390fd5b42816060015111156144f7576040517f4cf1715e00000000000000000000000000000000000000000000000000000000815260040160405180910390fd5b60408101516001600160a01b03161561453c576040517f6f15ccf800000000000000000000000000000000000000000000000000000000815260040160405180910390fd5b805182111561455e57604051635bcd1de160e11b815260040160405180910390fd5b80516040805184815291841460208301819052916001600160a01b0387169186917f8bb6f71206f2ec5e5a42539a0d677bb7e48844b6cefdad5d7139fd68568d7299910160405180910390a3806145d957600084815260096020526040812080548592906145cd9084906150d3565b90915550505050505050565b50505060009081526009602052604081208181556001810180546001600160a01b031990811690915560028201805490911690556003015550565b61461c611ee6565b81111561463c57604051635f842b9960e11b815260040160405180910390fd5b806004600082825461464e91906150d3565b9091555061465d905081612953565b610dd36001600160a01b037f0000000000000000000000000000000000000000000000000000000000000000168383612b87565b6040516001600160a01b03808516602483015283166044820152606481018290526123499085907f23b872dd00000000000000000000000000000000000000000000000000000000906084016126c3565b6060831561474e578251614747576001600160a01b0385163b6147475760405162461bcd60e51b815260206004820152601d60248201527f416464726573733a2063616c6c20746f206e6f6e2d636f6e74726163740000006044820152606401610dc0565b5081613c54565b613c548383614c05565b6060610ac06001600160a01b03831660145b60606000614779836002615148565b6147849060026150ea565b67ffffffffffffffff81111561479c5761479c614cd4565b6040519080825280601f01601f1916602001820160405280156147c6576020820181803683370190505b5090507f3000000000000000000000000000000000000000000000000000000000000000816000815181106147fd576147fd615189565b60200101906001600160f81b031916908160001a9053507f78000000000000000000000000000000000000000000000000000000000000008160018151811061484857614848615189565b60200101906001600160f81b031916908160001a905350600061486c846002615148565b6148779060016150ea565b90505b60018111156148fc577f303132333435363738396162636465660000000000000000000000000000000085600f16601081106148b8576148b8615189565b1a60f81b8282815181106148ce576148ce615189565b60200101906001600160f81b031916908160001a90535060049490941c936148f581615492565b905061487a565b5083156127215760405162461bcd60e51b815260206004820181905260248201527f537472696e67733a20686578206c656e67746820696e73756666696369656e746044820152606401610dc0565b602080860180516001600160a01b039081166000908152600b9093526040808420600101549251909116835282205461498e906149879061416d565b87876135ec565b11156149c6576040517fb010931500000000000000000000000000000000000000000000000000000000815260040160405180910390fd5b6149d4600a80546001019055565b600060405180606001604052806149ec8b89896135ec565b815260200188602001516001600160a01b03168152602001614a0d600a5490565b905280516020808301516001600160a01b03166000908152600b9091526040812060010180549394509192614a439084906150ea565b90915550506020808201516001600160a01b03166000908152600b9091526040812080548b9290614a759084906150ea565b9091555050805160058054600090614a8e9084906150ea565b9250508190555088600c6000828254614aa791906150ea565b9250508190555060405180608001604052808a8152602001336001600160a01b0316815260200182602001516001600160a01b031681526020018967ffffffffffffffff1681525060096000836040015181526020019081526020016000206000820151816000015560208201518160010160006101000a8154816001600160a01b0302191690836001600160a01b0316021790555060408201518160020160006101000a8154816001600160a01b0302191690836001600160a01b031602179055506060820151816003015590505086602001516001600160a01b0316336001600160a01b031682604001517fb26a67c96199378f459c394f9a442f1a94d19837d1ac17c14e3d6366d98223088d8d866000015187602001518f8f604001518d8d604051614bdd9897969594939291906154a9565b60405180910390a4604001519998505050505050505050565b60008161306361271085615148565b815115614c155781518083602001fd5b8060405162461bcd60e51b8152600401610dc0919061538c565b600060208284031215614c4157600080fd5b81356001600160e01b03198116811461272157600080fd5b600060208284031215614c6b57600080fd5b5035919050565b6001600160a01b0381168114610e2f57600080fd5b60008060408385031215614c9a57600080fd5b823591506020830135614cac81614c72565b809150509250929050565b600060208284031215614cc957600080fd5b813561272181614c72565b634e487b7160e01b600052604160045260246000fd5b6040516060810167ffffffffffffffff81118282101715614d0d57614d0d614cd4565b60405290565b604051601f8201601f1916810167ffffffffffffffff81118282101715614d3c57614d3c614cd4565b604052919050565b8035600f81900b8114611ddf57600080fd5b600060808284031215614d6857600080fd5b6040516080810181811067ffffffffffffffff82111715614d8b57614d8b614cd4565b6040528235614d9981614c72565b81526020830135614da981614c72565b6020820152614dba60408401614d44565b6040820152614dcb60608401614d44565b60608201529392505050565b803561ffff81168114611ddf57600080fd5b600060208284031215614dfb57600080fd5b61272182614dd7565b60008083601f840112614e1657600080fd5b50813567ffffffffffffffff811115614e2e57600080fd5b6020830191508360208260051b8501011115614e4957600080fd5b9250929050565b600080600080600060608688031215614e6857600080fd5b8535614e7381614c72565b9450602086013567ffffffffffffffff80821115614e9057600080fd5b614e9c89838a01614e04565b90965094506040880135915080821115614eb557600080fd5b50614ec288828901614e04565b969995985093965092949392505050565b600080600060408486031215614ee857600080fd5b8335614ef381614c72565b9250602084013567ffffffffffffffff811115614f0f57600080fd5b614f1b86828701614e04565b9497909650939450505050565b600060c08284031215614f3a57600080fd5b50919050565b600060208284031215614f5257600080fd5b813567ffffffffffffffff811115614f6957600080fd5b613c5484828501614f28565b6020808252825182820181905260009190848201906040850190845b81811015614fad57835183529284019291840191600101614f91565b50909695505050505050565b60008060408385031215614fcc57600080fd5b82359150602083013567ffffffffffffffff811115614fea57600080fd5b614ff685828601614f28565b9150509250929050565b6000806000806080858703121561501657600080fd5b843561502181614c72565b966020860135965060408601359560600135945092505050565b60006020828403121561504d57600080fd5b813567ffffffffffffffff8116811461272157600080fd5b60006020828403121561507757600080fd5b815161272181614c72565b60006020828403121561509457600080fd5b8151801515811461272157600080fd5b6000602082840312156150b657600080fd5b5051919050565b634e487b7160e01b600052601160045260246000fd5b6000828210156150e5576150e56150bd565b500390565b600082198211156150fd576150fd6150bd565b500190565b600061ffff8381169083168181101561511d5761511d6150bd565b039392505050565b60006020828403121561513757600080fd5b815160ff8116811461272157600080fd5b6000816000190483118215151615615162576151626150bd565b500290565b60008261518457634e487b7160e01b600052601260045260246000fd5b500490565b634e487b7160e01b600052603260045260246000fd5b60006000198214156151b3576151b36150bd565b5060010190565b6000808335601e198436030181126151d157600080fd5b83018035915067ffffffffffffffff8211156151ec57600080fd5b602001915036819003821315614e4957600080fd5b600067ffffffffffffffff808316818516808303821115615224576152246150bd565b01949350505050565b6000808335601e1984360301811261524457600080fd5b83018035915067ffffffffffffffff82111561525f57600080fd5b6020019150600581901b3603821315614e4957600080fd5b600060ff821660ff81141561528e5761528e6150bd565b60010192915050565b60005b838110156152b257818101518382015260200161529a565b838111156123495750506000910152565b600082516152d5818460208701615297565b9190910192915050565b7f416363657373436f6e74726f6c3a206163636f756e7420000000000000000000815260008351615317816017850160208801615297565b7f206973206d697373696e6720726f6c65200000000000000000000000000000006017918401918201528351615354816028840160208801615297565b01602801949350505050565b60008151808452615378816020860160208601615297565b601f01601f19169290920160200192915050565b6020815260006127216020830184615360565b60008235605e198336030181126152d557600080fd5b6000606082360312156153c757600080fd5b6153cf614cea565b6153d883614dd7565b81526020808401356153e981614c72565b82820152604084013567ffffffffffffffff8082111561540857600080fd5b9085019036601f83011261541b57600080fd5b81358181111561542d5761542d614cd4565b61543f601f8201601f19168501614d13565b9150808252368482850101111561545557600080fd5b808484018584013760009082019093019290925250604082015292915050565b600061ffff808316818516808303821115615224576152246150bd565b6000816154a1576154a16150bd565b506000190190565b8881528760208201528660408201526001600160a01b038616606082015267ffffffffffffffff8516608082015260e060a082015260006154ed60e0830186615360565b82810360c0840152838152838560208301376000602085830101526020601f19601f860116820101915050999850505050505050505056fea264697066735822122003012905d8d9f25e0950742a78af59741789b58b6d00617ce2c36f25a9114d2864736f6c634300080a0033",
  "devdoc": {
    "kind": "dev",
    "methods": {
      "addPool((address,address,int128,int128))": {
        "params": {
          "_param": "Swap pool params"
        }
      },
      "claimYield(address)": {
        "params": {
          "_to": "Address that will receive the yield."
        }
      },
      "constructor": {
        "params": {
          "_admin": "Vault admin address",
          "_investPct": "Percentage of the total underlying to invest in the strategy",
          "_lossTolerancePct": "Loss tolerance when investing through the strategy",
          "_minLockPeriod": "Minimum lock period to deposit",
          "_perfFeePct": "Performance fee percentage",
          "_swapPools": "Swap pools used to automatically convert tokens to underlying",
          "_treasury": "Treasury address to collect performance fee",
          "_underlying": "Underlying ERC20 token to use."
        }
      },
      "deposit((address,uint64,uint256,(uint16,address,bytes)[],string,uint256))": {
        "params": {
          "_params": "Deposit params"
        }
      },
      "depositForGroupId(uint256,(address,uint64,uint256,(uint16,address,bytes)[],string,uint256))": {
        "params": {
          "_groupId": "The group id for the new deposit",
          "_params": "Deposit params"
        }
      },
      "exitPaused()": {
        "details": "Returns true if the contract is exitPaused, and false otherwise."
      },
      "forceWithdraw(address,uint256[])": {
        "params": {
          "_ids": "Array with the ids of the deposits.",
          "_to": "Address that will receive the funds."
        }
      },
      "getRoleAdmin(bytes32)": {
        "details": "Returns the admin role that controls `role`. See {grantRole} and {revokeRole}. To change a role's admin, use {_setRoleAdmin}."
      },
      "getUnderlying()": {
        "returns": {
          "_0": "The address of the vault's main underlying token"
        }
      },
      "grantRole(bytes32,address)": {
        "details": "Grants `role` to `account`. If `account` had not been already granted `role`, emits a {RoleGranted} event. Requirements: - the caller must have ``role``'s admin role. May emit a {RoleGranted} event."
      },
      "hasRole(bytes32,address)": {
        "details": "Returns `true` if `account` has been granted `role`."
      },
      "investState()": {
        "returns": {
          "alreadyInvested": "already invested amount",
          "maxInvestableAmount": "maximum investable amount"
        }
      },
      "partialUnsponsor(address,uint256[],uint256[])": {
        "params": {
          "_amounts": "Array with the amounts to withdraw.",
          "_ids": "Array with the ids of the deposits.",
          "_to": "Address that will receive the funds."
        }
      },
      "paused()": {
        "details": "Returns true if the contract is paused, and false otherwise."
      },
      "removePool(address)": {
        "params": {
          "_inputToken": "the token to remove"
        }
      },
      "renounceRole(bytes32,address)": {
        "details": "Revokes `role` from the calling account. Roles are often managed via {grantRole} and {revokeRole}: this function's purpose is to provide a mechanism for accounts to lose their privileges if they are compromised (such as when a trusted device is misplaced). If the calling account had been revoked `role`, emits a {RoleRevoked} event. Requirements: - the caller must be `account`. May emit a {RoleRevoked} event."
      },
      "revokeRole(bytes32,address)": {
        "details": "Revokes `role` from `account`. If `account` had been granted `role`, emits a {RoleRevoked} event. Requirements: - the caller must have ``role``'s admin role. May emit a {RoleRevoked} event."
      },
      "setImmediateInvestLimitPct(uint16)": {
        "params": {
          "_pct": "the new immediate invest limit percentage"
        }
      },
      "setInvestPct(uint16)": {
        "params": {
          "_investPct": "the new invest percentage"
        }
      },
      "setLossTolerancePct(uint16)": {
        "params": {
          "_pct": "the new investment fee estimated percentage."
        }
      },
      "setMinLockPeriod(uint64)": {
        "params": {
          "_minLockPeriod": "Minimum lock period in seconds"
        }
      },
      "setPerfFeePct(uint16)": {
        "params": {
          "_perfFeePct": "the new performance fee."
        }
      },
      "setStrategy(address)": {
        "params": {
          "_strategy": "the new strategy's address."
        }
      },
      "setTreasury(address)": {
        "params": {
          "_treasury": "the new strategy's address."
        }
      },
      "sponsor(address,uint256,uint256,uint256)": {
        "params": {
          "_amount": "Amount to sponsor.",
          "_inputToken": "The input token to deposit.",
          "_lockedUntil": "When the sponsor can unsponsor the amount."
        }
      },
      "totalUnderlyingMinusSponsored()": {
        "returns": {
          "_0": "Total amount of principal and yield help by the vault (not including sponsored amount and performance fee)."
        }
      },
      "transferAdminRights(address)": {
        "params": {
          "_newAdmin": "The new admin account."
        }
      },
      "unsponsor(address,uint256[])": {
        "params": {
          "_ids": "Array with the ids of the deposits.",
          "_to": "Address that will receive the funds."
        }
      },
      "withdraw(address,uint256[])": {
        "params": {
          "_ids": "Array with the ids of the deposits.",
          "_to": "Address that will receive the funds."
        }
      },
      "yieldFor(address)": {
        "params": {
          "_to": "address to consider."
        },
        "returns": {
          "claimableYield": "claimable yield for @param _to, share of generated yield by @param _to,      and performance fee from generated yield"
        }
      }
    },
    "version": 1
  },
  "userdoc": {
    "events": {
      "CurveSwapPoolAdded(address,address,int128,int128)": {
        "notice": "Emitted when a new swap pool is added"
      },
      "CurveSwapPoolRemoved(address)": {
        "notice": "Emitted when a swap pool is removed"
      },
      "Sponsored(uint256,uint256,address,uint256)": {
        "notice": "Emitted when a new sponsor deposit is created"
      },
      "Swap(address,address,uint256,uint256)": {
        "notice": "Emitted after every swap"
      },
      "Unsponsored(uint256,uint256,address,bool)": {
        "notice": "Emitted when an existing sponsor withdraws"
      }
    },
    "kind": "user",
    "methods": {
      "KEEPER_ROLE()": {
        "notice": "Role allowed to invest/desinvest from strategy"
      },
      "MAX_DEPOSIT_LOCK_DURATION()": {
        "notice": "Maximum lock for each deposit"
      },
      "MAX_SPONSOR_LOCK_DURATION()": {
        "notice": "Maximum lock for each sponsor"
      },
      "MIN_SPONSOR_LOCK_DURATION()": {
        "notice": "Minimum lock for each sponsor"
      },
      "SETTINGS_ROLE()": {
        "notice": "Role allowed to change settings such as performance fee and investment fee"
      },
      "SHARES_MULTIPLIER()": {
        "notice": "Helper constant for computing shares without losing precision"
      },
      "SPONSOR_ROLE()": {
        "notice": "Role for sponsors allowed to call sponsor/unsponsor"
      },
      "accumulatedPerfFee()": {
        "notice": "Current accumulated performance fee;"
      },
      "addPool((address,address,int128,int128))": {
        "notice": "Adds a new curve swap pool from an input token to {underlying}"
      },
      "claimYield(address)": {
        "notice": "Accumulate performance fee and transfers rest yield generated for the caller to"
      },
      "claimers(address)": {
        "notice": "claimer address => claimer data"
      },
      "deposit((address,uint64,uint256,(uint16,address,bytes)[],string,uint256))": {
        "notice": "Creates a new deposit"
      },
      "depositForGroupId(uint256,(address,uint64,uint256,(uint16,address,bytes)[],string,uint256))": {
        "notice": "Creates a new deposit using the specified group id"
      },
      "deposits(uint256)": {
        "notice": "deposit ID => deposit data"
      },
      "immediateInvestLimitPct()": {
        "notice": "Percentage of the max investable amount until which a deposit is immediately invested into the strategy."
      },
      "investPct()": {
        "notice": "Percentage of the total underlying to invest in the strategy"
      },
      "investState()": {
        "notice": "Calculate maximum investable amount and already invested amount"
      },
      "lossTolerancePct()": {
        "notice": "Loss tolerance pct"
      },
      "minLockPeriod()": {
        "notice": "Minimum lock period for each deposit"
      },
      "partialUnsponsor(address,uint256[],uint256[])": {
        "notice": "fails if there are not enough funds to withdraw the specified amounts."
      },
      "perfFeePct()": {
        "notice": "Performance fee percentage"
      },
      "removePool(address)": {
        "notice": "Removes an existing swap pool, and the ability to deposit the given token as underlying"
      },
      "setImmediateInvestLimitPct(uint16)": {
        "notice": "Update immediate invest limit percentage Emits {ImmediateInvestLimitPctUpdated} event"
      },
      "setInvestPct(uint16)": {
        "notice": "Update invest percentage Emits {InvestPctUpdated} event"
      },
      "setLossTolerancePct(uint16)": {
        "notice": "Changes the estimated investment fee used by the strategy."
      },
      "setMinLockPeriod(uint64)": {
        "notice": "Sets the minimum lock period for deposits."
      },
      "setPerfFeePct(uint16)": {
        "notice": "Changes the performance fee used by the vault."
      },
      "setStrategy(address)": {
        "notice": "Changes the strategy used by the vault.if there is invested funds in previous strategy, it is not allowed to set new strategy."
      },
      "setTreasury(address)": {
        "notice": "Changes the treasury used by the vault."
      },
      "strategy()": {
        "notice": "The investment strategy"
      },
      "swappers(address)": {
        "notice": "token => curve pool (for trading token/underlying)"
      },
      "totalPrincipal()": {
        "notice": "The total of principal deposited"
      },
      "totalShares()": {
        "notice": "Total amount of shares"
      },
      "totalSponsored()": {
        "notice": "Total amount currently sponsored"
      },
      "totalUnderlying()": {
        "notice": "Total amount of underlying currently controlled by the vault and the its strategy."
      },
      "totalUnderlyingMinusSponsored()": {
        "notice": "Computes the total amount of principal + yield currently controlled by the vault and the strategy. The principal + yield is the total amount of underlying that can be claimed or withdrawn, excluding the sponsored amount and performance fee."
      },
      "transferAdminRights(address)": {
        "notice": "Transfers administrator rights for the Vault to another account, revoking all current admin's roles and setting up the roles for the new admin.Can only be called by the admin."
      },
      "treasury()": {
        "notice": "Treasury address to collect performance fee"
      },
      "underlying()": {
        "notice": "Underlying ERC20 token accepted by the vault"
      },
      "unsponsor(address,uint256[])": {
        "notice": "Withdraws the sponsored amount for the deposits with the ids provided"
      },
      "updateInvested()": {
        "notice": "Update the invested amount;"
      },
      "withdrawPerformanceFee()": {
        "notice": "Withdraws any pending performance fee amount back to the treasury"
      },
      "yieldFor(address)": {
        "notice": "Computes the amount of yield available for an an address."
      }
    },
    "notice": "A vault where other accounts can deposit an underlying token currency and set distribution params for their principal and yieldThe underlying token can be automatically swapped from any configured ERC20 token via {CurveSwapper}",
    "version": 1
  },
  "storageLayout": {
    "storage": [
      {
        "astId": 20865,
        "contract": "contracts/Vault.sol:Vault",
        "label": "swappers",
        "offset": 0,
        "slot": "0",
        "type": "t_mapping(t_address,t_struct(Swapper)20809_storage)"
      },
      {
        "astId": 2655,
        "contract": "contracts/Vault.sol:Vault",
        "label": "_roles",
        "offset": 0,
        "slot": "1",
        "type": "t_mapping(t_bytes32,t_struct(RoleData)2650_storage)"
      },
      {
        "astId": 3251,
        "contract": "contracts/Vault.sol:Vault",
        "label": "_status",
        "offset": 0,
        "slot": "2",
        "type": "t_uint256"
      },
      {
        "astId": 3150,
        "contract": "contracts/Vault.sol:Vault",
        "label": "_paused",
        "offset": 0,
        "slot": "3",
        "type": "t_bool"
      },
      {
        "astId": 13694,
        "contract": "contracts/Vault.sol:Vault",
        "label": "_exitPaused",
        "offset": 1,
        "slot": "3",
        "type": "t_bool"
      },
      {
        "astId": 7576,
        "contract": "contracts/Vault.sol:Vault",
        "label": "investPct",
        "offset": 2,
        "slot": "3",
        "type": "t_uint16"
      },
      {
        "astId": 7581,
        "contract": "contracts/Vault.sol:Vault",
        "label": "minLockPeriod",
        "offset": 4,
        "slot": "3",
        "type": "t_uint64"
      },
      {
        "astId": 7586,
        "contract": "contracts/Vault.sol:Vault",
        "label": "totalSponsored",
        "offset": 0,
        "slot": "4",
        "type": "t_uint256"
      },
      {
        "astId": 7591,
        "contract": "contracts/Vault.sol:Vault",
        "label": "totalShares",
        "offset": 0,
        "slot": "5",
        "type": "t_uint256"
      },
      {
        "astId": 7596,
        "contract": "contracts/Vault.sol:Vault",
        "label": "immediateInvestLimitPct",
        "offset": 0,
        "slot": "6",
        "type": "t_uint16"
      },
      {
        "astId": 7600,
        "contract": "contracts/Vault.sol:Vault",
        "label": "strategy",
        "offset": 2,
        "slot": "6",
        "type": "t_contract(IStrategy)17976"
      },
      {
        "astId": 7603,
        "contract": "contracts/Vault.sol:Vault",
        "label": "_depositGroupIds",
        "offset": 0,
        "slot": "7",
        "type": "t_uint256"
      },
      {
        "astId": 7607,
        "contract": "contracts/Vault.sol:Vault",
        "label": "depositGroupIdOwner",
        "offset": 0,
        "slot": "8",
        "type": "t_mapping(t_uint256,t_address)"
      },
      {
        "astId": 7613,
        "contract": "contracts/Vault.sol:Vault",
        "label": "deposits",
        "offset": 0,
        "slot": "9",
        "type": "t_mapping(t_uint256,t_struct(Deposit)21269_storage)"
      },
      {
        "astId": 7617,
        "contract": "contracts/Vault.sol:Vault",
        "label": "_depositTokenIds",
        "offset": 0,
        "slot": "10",
        "type": "t_struct(Counter)5792_storage"
      },
      {
        "astId": 7623,
        "contract": "contracts/Vault.sol:Vault",
        "label": "claimers",
        "offset": 0,
        "slot": "11",
        "type": "t_mapping(t_address,t_struct(Claimer)21274_storage)"
      },
      {
        "astId": 7628,
        "contract": "contracts/Vault.sol:Vault",
        "label": "totalPrincipal",
        "offset": 0,
        "slot": "12",
        "type": "t_uint256"
      },
      {
        "astId": 7631,
        "contract": "contracts/Vault.sol:Vault",
        "label": "treasury",
        "offset": 0,
        "slot": "13",
        "type": "t_address"
      },
      {
        "astId": 7634,
        "contract": "contracts/Vault.sol:Vault",
        "label": "perfFeePct",
        "offset": 20,
        "slot": "13",
        "type": "t_uint16"
      },
      {
        "astId": 7639,
        "contract": "contracts/Vault.sol:Vault",
        "label": "accumulatedPerfFee",
        "offset": 0,
        "slot": "14",
        "type": "t_uint256"
      },
      {
        "astId": 7642,
        "contract": "contracts/Vault.sol:Vault",
        "label": "lossTolerancePct",
        "offset": 0,
        "slot": "15",
        "type": "t_uint16"
      }
    ],
    "types": {
      "t_address": {
        "encoding": "inplace",
        "label": "address",
        "numberOfBytes": "20"
      },
      "t_bool": {
        "encoding": "inplace",
        "label": "bool",
        "numberOfBytes": "1"
      },
      "t_bytes32": {
        "encoding": "inplace",
        "label": "bytes32",
        "numberOfBytes": "32"
      },
      "t_contract(ICurve)13240": {
        "encoding": "inplace",
        "label": "contract ICurve",
        "numberOfBytes": "20"
      },
      "t_contract(IStrategy)17976": {
        "encoding": "inplace",
        "label": "contract IStrategy",
        "numberOfBytes": "20"
      },
      "t_int128": {
        "encoding": "inplace",
        "label": "int128",
        "numberOfBytes": "16"
      },
      "t_mapping(t_address,t_bool)": {
        "encoding": "mapping",
        "key": "t_address",
        "label": "mapping(address => bool)",
        "numberOfBytes": "32",
        "value": "t_bool"
      },
      "t_mapping(t_address,t_struct(Claimer)21274_storage)": {
        "encoding": "mapping",
        "key": "t_address",
        "label": "mapping(address => struct IVault.Claimer)",
        "numberOfBytes": "32",
        "value": "t_struct(Claimer)21274_storage"
      },
      "t_mapping(t_address,t_struct(Swapper)20809_storage)": {
        "encoding": "mapping",
        "key": "t_address",
        "label": "mapping(address => struct CurveSwapper.Swapper)",
        "numberOfBytes": "32",
        "value": "t_struct(Swapper)20809_storage"
      },
      "t_mapping(t_bytes32,t_struct(RoleData)2650_storage)": {
        "encoding": "mapping",
        "key": "t_bytes32",
        "label": "mapping(bytes32 => struct AccessControl.RoleData)",
        "numberOfBytes": "32",
        "value": "t_struct(RoleData)2650_storage"
      },
      "t_mapping(t_uint256,t_address)": {
        "encoding": "mapping",
        "key": "t_uint256",
        "label": "mapping(uint256 => address)",
        "numberOfBytes": "32",
        "value": "t_address"
      },
      "t_mapping(t_uint256,t_struct(Deposit)21269_storage)": {
        "encoding": "mapping",
        "key": "t_uint256",
        "label": "mapping(uint256 => struct IVault.Deposit)",
        "numberOfBytes": "32",
        "value": "t_struct(Deposit)21269_storage"
      },
      "t_struct(Claimer)21274_storage": {
        "encoding": "inplace",
        "label": "struct IVault.Claimer",
        "members": [
          {
            "astId": 21271,
            "contract": "contracts/Vault.sol:Vault",
            "label": "totalPrincipal",
            "offset": 0,
            "slot": "0",
            "type": "t_uint256"
          },
          {
            "astId": 21273,
            "contract": "contracts/Vault.sol:Vault",
            "label": "totalShares",
            "offset": 0,
            "slot": "1",
            "type": "t_uint256"
          }
        ],
        "numberOfBytes": "64"
      },
      "t_struct(Counter)5792_storage": {
        "encoding": "inplace",
        "label": "struct Counters.Counter",
        "members": [
          {
            "astId": 5791,
            "contract": "contracts/Vault.sol:Vault",
            "label": "_value",
            "offset": 0,
            "slot": "0",
            "type": "t_uint256"
          }
        ],
        "numberOfBytes": "32"
      },
      "t_struct(Deposit)21269_storage": {
        "encoding": "inplace",
        "label": "struct IVault.Deposit",
        "members": [
          {
            "astId": 21259,
            "contract": "contracts/Vault.sol:Vault",
            "label": "amount",
            "offset": 0,
            "slot": "0",
            "type": "t_uint256"
          },
          {
            "astId": 21262,
            "contract": "contracts/Vault.sol:Vault",
            "label": "owner",
            "offset": 0,
            "slot": "1",
            "type": "t_address"
          },
          {
            "astId": 21265,
            "contract": "contracts/Vault.sol:Vault",
            "label": "claimerId",
            "offset": 0,
            "slot": "2",
            "type": "t_address"
          },
          {
            "astId": 21268,
            "contract": "contracts/Vault.sol:Vault",
            "label": "lockedUntil",
            "offset": 0,
            "slot": "3",
            "type": "t_uint256"
          }
        ],
        "numberOfBytes": "128"
      },
      "t_struct(RoleData)2650_storage": {
        "encoding": "inplace",
        "label": "struct AccessControl.RoleData",
        "members": [
          {
            "astId": 2647,
            "contract": "contracts/Vault.sol:Vault",
            "label": "members",
            "offset": 0,
            "slot": "0",
            "type": "t_mapping(t_address,t_bool)"
          },
          {
            "astId": 2649,
            "contract": "contracts/Vault.sol:Vault",
            "label": "adminRole",
            "offset": 0,
            "slot": "1",
            "type": "t_bytes32"
          }
        ],
        "numberOfBytes": "64"
      },
      "t_struct(Swapper)20809_storage": {
        "encoding": "inplace",
        "label": "struct CurveSwapper.Swapper",
        "members": [
          {
            "astId": 20796,
            "contract": "contracts/Vault.sol:Vault",
            "label": "pool",
            "offset": 0,
            "slot": "0",
            "type": "t_contract(ICurve)13240"
          },
          {
            "astId": 20799,
            "contract": "contracts/Vault.sol:Vault",
            "label": "tokenDecimals",
            "offset": 20,
            "slot": "0",
            "type": "t_uint8"
          },
          {
            "astId": 20802,
            "contract": "contracts/Vault.sol:Vault",
            "label": "underlyingDecimals",
            "offset": 21,
            "slot": "0",
            "type": "t_uint8"
          },
          {
            "astId": 20805,
            "contract": "contracts/Vault.sol:Vault",
            "label": "tokenI",
            "offset": 0,
            "slot": "1",
            "type": "t_int128"
          },
          {
            "astId": 20808,
            "contract": "contracts/Vault.sol:Vault",
            "label": "underlyingI",
            "offset": 16,
            "slot": "1",
            "type": "t_int128"
          }
        ],
        "numberOfBytes": "64"
      },
      "t_uint16": {
        "encoding": "inplace",
        "label": "uint16",
        "numberOfBytes": "2"
      },
      "t_uint256": {
        "encoding": "inplace",
        "label": "uint256",
        "numberOfBytes": "32"
      },
      "t_uint64": {
        "encoding": "inplace",
        "label": "uint64",
        "numberOfBytes": "8"
      },
      "t_uint8": {
        "encoding": "inplace",
        "label": "uint8",
        "numberOfBytes": "1"
      }
    }
  }
}