{
  "address": "0x91A6194F1278f6Cf25ae51B604029075695A74E5",
  "abi": [
    {
      "inputs": [
        {
          "internalType": "contract IERC20Metadata",
          "name": "_underlying",
          "type": "address"
        },
        {
          "internalType": "uint64",
          "name": "_minLockPeriod",
          "type": "uint64"
        },
        {
          "internalType": "uint16",
          "name": "_investPct",
          "type": "uint16"
        },
        {
          "internalType": "address",
          "name": "_treasury",
          "type": "address"
        },
        {
          "internalType": "address",
          "name": "_admin",
          "type": "address"
        },
        {
          "internalType": "uint16",
          "name": "_perfFeePct",
          "type": "uint16"
        },
        {
          "internalType": "uint16",
          "name": "_lossTolerancePct",
          "type": "uint16"
        },
        {
          "components": [
            {
              "internalType": "address",
              "name": "token",
              "type": "address"
            },
            {
              "internalType": "address",
              "name": "pool",
              "type": "address"
            },
            {
              "internalType": "int128",
              "name": "tokenI",
              "type": "int128"
            },
            {
              "internalType": "int128",
              "name": "underlyingI",
              "type": "int128"
            }
          ],
          "internalType": "struct CurveSwapper.SwapPoolParam[]",
          "name": "_swapPools",
          "type": "tuple[]"
        }
      ],
      "stateMutability": "nonpayable",
      "type": "constructor"
    },
    {
      "inputs": [],
      "name": "StrategyAdminCannotBe0Address",
      "type": "error"
    },
    {
      "inputs": [],
      "name": "StrategyAmountZero",
      "type": "error"
    },
    {
      "inputs": [],
      "name": "StrategyCallerNotAdmin",
      "type": "error"
    },
    {
      "inputs": [],
      "name": "StrategyCallerNotManager",
      "type": "error"
    },
    {
      "inputs": [],
      "name": "StrategyCallerNotSettings",
      "type": "error"
    },
    {
      "inputs": [],
      "name": "StrategyCannotTransferAdminRightsToSelf",
      "type": "error"
    },
    {
      "inputs": [],
      "name": "StrategyNoUnderlying",
      "type": "error"
    },
    {
      "inputs": [],
      "name": "StrategyNotEnoughShares",
      "type": "error"
    },
    {
      "inputs": [],
      "name": "StrategyNotIVault",
      "type": "error"
    },
    {
      "inputs": [],
      "name": "StrategyNotRunning",
      "type": "error"
    },
    {
      "inputs": [],
      "name": "StrategyUnderlyingCannotBe0Address",
      "type": "error"
    },
    {
      "inputs": [],
      "name": "VaultAdminCannotBe0Address",
      "type": "error"
    },
    {
      "inputs": [],
      "name": "VaultAmountDoesNotMatchParams",
      "type": "error"
    },
    {
      "inputs": [],
      "name": "VaultAmountLocked",
      "type": "error"
    },
    {
      "inputs": [],
      "name": "VaultCallerNotAdmin",
      "type": "error"
    },
    {
      "inputs": [],
      "name": "VaultCallerNotKeeper",
      "type": "error"
    },
    {
      "inputs": [],
      "name": "VaultCallerNotSettings",
      "type": "error"
    },
    {
      "inputs": [],
      "name": "VaultCallerNotSponsor",
      "type": "error"
    },
    {
      "inputs": [],
      "name": "VaultCannotComputeSharesWithoutPrincipal",
      "type": "error"
    },
    {
      "inputs": [],
      "name": "VaultCannotDeposit0",
      "type": "error"
    },
    {
      "inputs": [],
      "name": "VaultCannotDepositWhenClaimerInDebt",
      "type": "error"
    },
    {
      "inputs": [],
      "name": "VaultCannotDepositWhenYieldNegative",
      "type": "error"
    },
    {
      "inputs": [],
      "name": "VaultCannotSponsor0",
      "type": "error"
    },
    {
      "inputs": [],
      "name": "VaultCannotTransferAdminRightsToSelf",
      "type": "error"
    },
    {
      "inputs": [],
      "name": "VaultCannotWithdrawMoreThanAvailable",
      "type": "error"
    },
    {
      "inputs": [],
      "name": "VaultCannotWithdrawWhenYieldNegative",
      "type": "error"
    },
    {
      "inputs": [],
      "name": "VaultClaimPercentageCannotBe0",
      "type": "error"
    },
    {
      "inputs": [],
      "name": "VaultClaimerCannotBe0",
      "type": "error"
    },
    {
      "inputs": [],
      "name": "VaultClaimsDontAddUp",
      "type": "error"
    },
    {
      "inputs": [],
      "name": "VaultDepositLocked",
      "type": "error"
    },
    {
      "inputs": [],
      "name": "VaultDepositNameTooShort",
      "type": "error"
    },
    {
      "inputs": [],
      "name": "VaultDestinationCannotBe0Address",
      "type": "error"
    },
    {
      "inputs": [],
      "name": "VaultInvalidInvestpct",
      "type": "error"
    },
    {
      "inputs": [],
      "name": "VaultInvalidLockPeriod",
      "type": "error"
    },
    {
      "inputs": [],
      "name": "VaultInvalidLossTolerance",
      "type": "error"
    },
    {
      "inputs": [],
      "name": "VaultInvalidMinLockPeriod",
      "type": "error"
    },
    {
      "inputs": [],
      "name": "VaultInvalidPerformanceFee",
      "type": "error"
    },
    {
      "inputs": [],
      "name": "VaultInvalidVault",
      "type": "error"
    },
    {
      "inputs": [],
      "name": "VaultMustUseForceWithdrawToAcceptLosses",
      "type": "error"
    },
    {
      "inputs": [],
      "name": "VaultNoPerformanceFee",
      "type": "error"
    },
    {
      "inputs": [],
      "name": "VaultNoYieldToClaim",
      "type": "error"
    },
    {
      "inputs": [],
      "name": "VaultNotAllowed",
      "type": "error"
    },
    {
      "inputs": [],
      "name": "VaultNotDeposit",
      "type": "error"
    },
    {
      "inputs": [],
      "name": "VaultNotEnoughFunds",
      "type": "error"
    },
    {
      "inputs": [],
      "name": "VaultNotEnoughToRebalance",
      "type": "error"
    },
    {
      "inputs": [],
      "name": "VaultNotOwnerOfDeposit",
      "type": "error"
    },
    {
      "inputs": [],
      "name": "VaultNotSponsor",
      "type": "error"
    },
    {
      "inputs": [],
      "name": "VaultNothingToDo",
      "type": "error"
    },
    {
      "inputs": [],
      "name": "VaultSenderNotOwnerOfGroupId",
      "type": "error"
    },
    {
      "inputs": [],
      "name": "VaultStrategyHasInvestedFunds",
      "type": "error"
    },
    {
      "inputs": [],
      "name": "VaultStrategyNotSet",
      "type": "error"
    },
    {
      "inputs": [],
      "name": "VaultTreasuryCannotBe0Address",
      "type": "error"
    },
    {
      "inputs": [],
      "name": "VaultUnderlyingCannotBe0Address",
      "type": "error"
    },
    {
      "anonymous": false,
      "inputs": [
        {
          "indexed": true,
          "internalType": "address",
          "name": "token",
          "type": "address"
        },
        {
          "indexed": true,
          "internalType": "address",
          "name": "pool",
          "type": "address"
        },
        {
          "indexed": false,
          "internalType": "int128",
          "name": "tokenI",
          "type": "int128"
        },
        {
          "indexed": false,
          "internalType": "int128",
          "name": "underlyingI",
          "type": "int128"
        }
      ],
      "name": "CurveSwapPoolAdded",
      "type": "event"
    },
    {
      "anonymous": false,
      "inputs": [
        {
          "indexed": true,
          "internalType": "address",
          "name": "token",
          "type": "address"
        }
      ],
      "name": "CurveSwapPoolRemoved",
      "type": "event"
    },
    {
      "anonymous": false,
      "inputs": [
        {
          "indexed": true,
          "internalType": "uint256",
          "name": "id",
          "type": "uint256"
        },
        {
          "indexed": false,
          "internalType": "uint256",
          "name": "groupId",
          "type": "uint256"
        },
        {
          "indexed": false,
          "internalType": "uint256",
          "name": "amount",
          "type": "uint256"
        },
        {
          "indexed": false,
          "internalType": "uint256",
          "name": "shares",
          "type": "uint256"
        },
        {
          "indexed": true,
          "internalType": "address",
          "name": "depositor",
          "type": "address"
        },
        {
          "indexed": true,
          "internalType": "address",
          "name": "claimer",
          "type": "address"
        },
        {
          "indexed": false,
          "internalType": "address",
          "name": "claimerId",
          "type": "address"
        },
        {
          "indexed": false,
          "internalType": "uint64",
          "name": "lockedUntil",
          "type": "uint64"
        },
        {
          "indexed": false,
          "internalType": "bytes",
          "name": "data",
          "type": "bytes"
        },
        {
          "indexed": false,
          "internalType": "string",
          "name": "name",
          "type": "string"
        }
      ],
      "name": "DepositMinted",
      "type": "event"
    },
    {
      "anonymous": false,
      "inputs": [
        {
          "indexed": true,
          "internalType": "uint256",
          "name": "id",
          "type": "uint256"
        },
        {
          "indexed": false,
          "internalType": "uint256",
          "name": "shares",
          "type": "uint256"
        },
        {
          "indexed": false,
          "internalType": "uint256",
          "name": "amount",
          "type": "uint256"
        },
        {
          "indexed": true,
          "internalType": "address",
          "name": "to",
          "type": "address"
        },
        {
          "indexed": false,
          "internalType": "bool",
          "name": "burned",
          "type": "bool"
        }
      ],
      "name": "DepositWithdrawn",
      "type": "event"
    },
    {
      "anonymous": false,
      "inputs": [
        {
          "indexed": false,
          "internalType": "uint256",
          "name": "amount",
          "type": "uint256"
        }
      ],
      "name": "Disinvested",
      "type": "event"
    },
    {
      "anonymous": false,
      "inputs": [
        {
          "indexed": false,
          "internalType": "address",
          "name": "account",
          "type": "address"
        }
      ],
      "name": "ExitPaused",
      "type": "event"
    },
    {
      "anonymous": false,
      "inputs": [
        {
          "indexed": false,
          "internalType": "address",
          "name": "account",
          "type": "address"
        }
      ],
      "name": "ExitUnpaused",
      "type": "event"
    },
    {
      "anonymous": false,
      "inputs": [
        {
          "indexed": false,
          "internalType": "uint256",
          "name": "amount",
          "type": "uint256"
        }
      ],
      "name": "FeeWithdrawn",
      "type": "event"
    },
    {
      "anonymous": false,
      "inputs": [
        {
          "indexed": false,
          "internalType": "uint256",
          "name": "percentage",
          "type": "uint256"
        }
      ],
      "name": "InvestPctUpdated",
      "type": "event"
    },
    {
      "anonymous": false,
      "inputs": [
        {
          "indexed": false,
          "internalType": "uint256",
          "name": "amount",
          "type": "uint256"
        }
      ],
      "name": "Invested",
      "type": "event"
    },
    {
      "anonymous": false,
      "inputs": [
        {
          "indexed": false,
          "internalType": "uint16",
          "name": "pct",
          "type": "uint16"
        }
      ],
      "name": "LossTolerancePctUpdated",
      "type": "event"
    },
    {
      "anonymous": false,
      "inputs": [
        {
          "indexed": false,
          "internalType": "address",
          "name": "account",
          "type": "address"
        }
      ],
      "name": "Paused",
      "type": "event"
    },
    {
      "anonymous": false,
      "inputs": [
        {
          "indexed": false,
          "internalType": "uint16",
          "name": "pct",
          "type": "uint16"
        }
      ],
      "name": "PerfFeePctUpdated",
      "type": "event"
    },
    {
      "anonymous": false,
      "inputs": [
        {
          "indexed": true,
          "internalType": "bytes32",
          "name": "role",
          "type": "bytes32"
        },
        {
          "indexed": true,
          "internalType": "bytes32",
          "name": "previousAdminRole",
          "type": "bytes32"
        },
        {
          "indexed": true,
          "internalType": "bytes32",
          "name": "newAdminRole",
          "type": "bytes32"
        }
      ],
      "name": "RoleAdminChanged",
      "type": "event"
    },
    {
      "anonymous": false,
      "inputs": [
        {
          "indexed": true,
          "internalType": "bytes32",
          "name": "role",
          "type": "bytes32"
        },
        {
          "indexed": true,
          "internalType": "address",
          "name": "account",
          "type": "address"
        },
        {
          "indexed": true,
          "internalType": "address",
          "name": "sender",
          "type": "address"
        }
      ],
      "name": "RoleGranted",
      "type": "event"
    },
    {
      "anonymous": false,
      "inputs": [
        {
          "indexed": true,
          "internalType": "bytes32",
          "name": "role",
          "type": "bytes32"
        },
        {
          "indexed": true,
          "internalType": "address",
          "name": "account",
          "type": "address"
        },
        {
          "indexed": true,
          "internalType": "address",
          "name": "sender",
          "type": "address"
        }
      ],
      "name": "RoleRevoked",
      "type": "event"
    },
    {
      "anonymous": false,
      "inputs": [
        {
          "indexed": true,
          "internalType": "uint256",
          "name": "id",
          "type": "uint256"
        },
        {
          "indexed": false,
          "internalType": "uint256",
          "name": "amount",
          "type": "uint256"
        },
        {
          "indexed": true,
          "internalType": "address",
          "name": "depositor",
          "type": "address"
        },
        {
          "indexed": false,
          "internalType": "uint256",
          "name": "lockedUntil",
          "type": "uint256"
        }
      ],
      "name": "Sponsored",
      "type": "event"
    },
    {
      "anonymous": false,
      "inputs": [
        {
          "indexed": true,
          "internalType": "address",
          "name": "strategy",
          "type": "address"
        }
      ],
      "name": "StrategyUpdated",
      "type": "event"
    },
    {
      "anonymous": false,
      "inputs": [
        {
          "indexed": true,
          "internalType": "address",
          "name": "fromToken",
          "type": "address"
        },
        {
          "indexed": true,
          "internalType": "address",
          "name": "toToken",
          "type": "address"
        },
        {
          "indexed": false,
          "internalType": "uint256",
          "name": "fromAmount",
          "type": "uint256"
        },
        {
          "indexed": false,
          "internalType": "uint256",
          "name": "toAmount",
          "type": "uint256"
        }
      ],
      "name": "Swap",
      "type": "event"
    },
    {
      "anonymous": false,
      "inputs": [
        {
          "indexed": true,
          "internalType": "address",
          "name": "treasury",
          "type": "address"
        }
      ],
      "name": "TreasuryUpdated",
      "type": "event"
    },
    {
      "anonymous": false,
      "inputs": [
        {
          "indexed": false,
          "internalType": "address",
          "name": "account",
          "type": "address"
        }
      ],
      "name": "Unpaused",
      "type": "event"
    },
    {
      "anonymous": false,
      "inputs": [
        {
          "indexed": true,
          "internalType": "uint256",
          "name": "id",
          "type": "uint256"
        },
        {
          "indexed": false,
          "internalType": "uint256",
          "name": "amount",
          "type": "uint256"
        },
        {
          "indexed": true,
          "internalType": "address",
          "name": "to",
          "type": "address"
        },
        {
          "indexed": false,
          "internalType": "bool",
          "name": "burned",
          "type": "bool"
        }
      ],
      "name": "Unsponsored",
      "type": "event"
    },
    {
      "anonymous": false,
      "inputs": [
        {
          "indexed": false,
          "internalType": "address",
          "name": "claimerId",
          "type": "address"
        },
        {
          "indexed": true,
          "internalType": "address",
          "name": "to",
          "type": "address"
        },
        {
          "indexed": false,
          "internalType": "uint256",
          "name": "amount",
          "type": "uint256"
        },
        {
          "indexed": false,
          "internalType": "uint256",
          "name": "burnedShares",
          "type": "uint256"
        },
        {
          "indexed": false,
          "internalType": "uint256",
          "name": "perfFee",
          "type": "uint256"
        },
        {
          "indexed": false,
          "internalType": "uint256",
          "name": "totalUnderlying",
          "type": "uint256"
        },
        {
          "indexed": false,
          "internalType": "uint256",
          "name": "totalShares",
          "type": "uint256"
        }
      ],
      "name": "YieldClaimed",
      "type": "event"
    },
    {
      "inputs": [],
      "name": "DEFAULT_ADMIN_ROLE",
      "outputs": [
        {
          "internalType": "bytes32",
          "name": "",
          "type": "bytes32"
        }
      ],
      "stateMutability": "view",
      "type": "function"
    },
    {
      "inputs": [],
      "name": "KEEPER_ROLE",
      "outputs": [
        {
          "internalType": "bytes32",
          "name": "",
          "type": "bytes32"
        }
      ],
      "stateMutability": "view",
      "type": "function"
    },
    {
      "inputs": [],
      "name": "MAX_DEPOSIT_LOCK_DURATION",
      "outputs": [
        {
          "internalType": "uint64",
          "name": "",
          "type": "uint64"
        }
      ],
      "stateMutability": "view",
      "type": "function"
    },
    {
      "inputs": [],
      "name": "MAX_SPONSOR_LOCK_DURATION",
      "outputs": [
        {
          "internalType": "uint64",
          "name": "",
          "type": "uint64"
        }
      ],
      "stateMutability": "view",
      "type": "function"
    },
    {
      "inputs": [],
      "name": "MIN_SPONSOR_LOCK_DURATION",
      "outputs": [
        {
          "internalType": "uint64",
          "name": "",
          "type": "uint64"
        }
      ],
      "stateMutability": "view",
      "type": "function"
    },
    {
      "inputs": [],
      "name": "SETTINGS_ROLE",
      "outputs": [
        {
          "internalType": "bytes32",
          "name": "",
          "type": "bytes32"
        }
      ],
      "stateMutability": "view",
      "type": "function"
    },
    {
      "inputs": [],
      "name": "SHARES_MULTIPLIER",
      "outputs": [
        {
          "internalType": "uint256",
          "name": "",
          "type": "uint256"
        }
      ],
      "stateMutability": "view",
      "type": "function"
    },
    {
      "inputs": [],
      "name": "SPONSOR_ROLE",
      "outputs": [
        {
          "internalType": "bytes32",
          "name": "",
          "type": "bytes32"
        }
      ],
      "stateMutability": "view",
      "type": "function"
    },
    {
      "inputs": [],
      "name": "accumulatedPerfFee",
      "outputs": [
        {
          "internalType": "uint256",
          "name": "",
          "type": "uint256"
        }
      ],
      "stateMutability": "view",
      "type": "function"
    },
    {
      "inputs": [
        {
          "components": [
            {
              "internalType": "address",
              "name": "token",
              "type": "address"
            },
            {
              "internalType": "address",
              "name": "pool",
              "type": "address"
            },
            {
              "internalType": "int128",
              "name": "tokenI",
              "type": "int128"
            },
            {
              "internalType": "int128",
              "name": "underlyingI",
              "type": "int128"
            }
          ],
          "internalType": "struct CurveSwapper.SwapPoolParam",
          "name": "_param",
          "type": "tuple"
        }
      ],
      "name": "addPool",
      "outputs": [],
      "stateMutability": "nonpayable",
      "type": "function"
    },
    {
      "inputs": [
        {
          "internalType": "address",
          "name": "_to",
          "type": "address"
        }
      ],
      "name": "claimYield",
      "outputs": [],
      "stateMutability": "nonpayable",
      "type": "function"
    },
    {
      "inputs": [
        {
          "internalType": "address",
          "name": "",
          "type": "address"
        }
      ],
      "name": "claimer",
      "outputs": [
        {
          "internalType": "uint256",
          "name": "totalPrincipal",
          "type": "uint256"
        },
        {
          "internalType": "uint256",
          "name": "totalShares",
          "type": "uint256"
        }
      ],
      "stateMutability": "view",
      "type": "function"
    },
    {
      "inputs": [
        {
          "components": [
            {
              "internalType": "address",
              "name": "inputToken",
              "type": "address"
            },
            {
              "internalType": "uint64",
              "name": "lockDuration",
              "type": "uint64"
            },
            {
              "internalType": "uint256",
              "name": "amount",
              "type": "uint256"
            },
            {
              "components": [
                {
                  "internalType": "uint16",
                  "name": "pct",
                  "type": "uint16"
                },
                {
                  "internalType": "address",
                  "name": "beneficiary",
                  "type": "address"
                },
                {
                  "internalType": "bytes",
                  "name": "data",
                  "type": "bytes"
                }
              ],
              "internalType": "struct IVault.ClaimParams[]",
              "name": "claims",
              "type": "tuple[]"
            },
            {
              "internalType": "string",
              "name": "name",
              "type": "string"
            },
            {
              "internalType": "uint256",
              "name": "slippage",
              "type": "uint256"
            }
          ],
          "internalType": "struct IVault.DepositParams",
          "name": "_params",
          "type": "tuple"
        }
      ],
      "name": "deposit",
      "outputs": [
        {
          "internalType": "uint256[]",
          "name": "depositIds",
          "type": "uint256[]"
        }
      ],
      "stateMutability": "nonpayable",
      "type": "function"
    },
    {
      "inputs": [
        {
          "internalType": "uint256",
          "name": "_groupId",
          "type": "uint256"
        },
        {
          "components": [
            {
              "internalType": "address",
              "name": "inputToken",
              "type": "address"
            },
            {
              "internalType": "uint64",
              "name": "lockDuration",
              "type": "uint64"
            },
            {
              "internalType": "uint256",
              "name": "amount",
              "type": "uint256"
            },
            {
              "components": [
                {
                  "internalType": "uint16",
                  "name": "pct",
                  "type": "uint16"
                },
                {
                  "internalType": "address",
                  "name": "beneficiary",
                  "type": "address"
                },
                {
                  "internalType": "bytes",
                  "name": "data",
                  "type": "bytes"
                }
              ],
              "internalType": "struct IVault.ClaimParams[]",
              "name": "claims",
              "type": "tuple[]"
            },
            {
              "internalType": "string",
              "name": "name",
              "type": "string"
            },
            {
              "internalType": "uint256",
              "name": "slippage",
              "type": "uint256"
            }
          ],
          "internalType": "struct IVault.DepositParams",
          "name": "_params",
          "type": "tuple"
        }
      ],
      "name": "depositForGroupId",
      "outputs": [
        {
          "internalType": "uint256[]",
          "name": "depositIds",
          "type": "uint256[]"
        }
      ],
      "stateMutability": "nonpayable",
      "type": "function"
    },
    {
      "inputs": [
        {
          "internalType": "uint256",
          "name": "",
          "type": "uint256"
        }
      ],
      "name": "depositGroupIdOwner",
      "outputs": [
        {
          "internalType": "address",
          "name": "",
          "type": "address"
        }
      ],
      "stateMutability": "view",
      "type": "function"
    },
    {
      "inputs": [
        {
          "internalType": "uint256",
          "name": "",
          "type": "uint256"
        }
      ],
      "name": "deposits",
      "outputs": [
        {
          "internalType": "uint256",
          "name": "amount",
          "type": "uint256"
        },
        {
          "internalType": "address",
          "name": "owner",
          "type": "address"
        },
        {
          "internalType": "address",
          "name": "claimerId",
          "type": "address"
        },
        {
          "internalType": "uint256",
          "name": "lockedUntil",
          "type": "uint256"
        }
      ],
      "stateMutability": "view",
      "type": "function"
    },
    {
      "inputs": [],
      "name": "exitPause",
      "outputs": [],
      "stateMutability": "nonpayable",
      "type": "function"
    },
    {
      "inputs": [],
      "name": "exitPaused",
      "outputs": [
        {
          "internalType": "bool",
          "name": "",
          "type": "bool"
        }
      ],
      "stateMutability": "view",
      "type": "function"
    },
    {
      "inputs": [],
      "name": "exitUnpause",
      "outputs": [],
      "stateMutability": "nonpayable",
      "type": "function"
    },
    {
      "inputs": [
        {
          "internalType": "address",
          "name": "_to",
          "type": "address"
        },
        {
          "internalType": "uint256[]",
          "name": "_ids",
          "type": "uint256[]"
        }
      ],
      "name": "forceWithdraw",
      "outputs": [],
      "stateMutability": "nonpayable",
      "type": "function"
    },
    {
      "inputs": [
        {
          "internalType": "bytes32",
          "name": "role",
          "type": "bytes32"
        }
      ],
      "name": "getRoleAdmin",
      "outputs": [
        {
          "internalType": "bytes32",
          "name": "",
          "type": "bytes32"
        }
      ],
      "stateMutability": "view",
      "type": "function"
    },
    {
      "inputs": [],
      "name": "getUnderlying",
      "outputs": [
        {
          "internalType": "address",
          "name": "",
          "type": "address"
        }
      ],
      "stateMutability": "view",
      "type": "function"
    },
    {
      "inputs": [
        {
          "internalType": "bytes32",
          "name": "role",
          "type": "bytes32"
        },
        {
          "internalType": "address",
          "name": "account",
          "type": "address"
        }
      ],
      "name": "grantRole",
      "outputs": [],
      "stateMutability": "nonpayable",
      "type": "function"
    },
    {
      "inputs": [
        {
          "internalType": "bytes32",
          "name": "role",
          "type": "bytes32"
        },
        {
          "internalType": "address",
          "name": "account",
          "type": "address"
        }
      ],
      "name": "hasRole",
      "outputs": [
        {
          "internalType": "bool",
          "name": "",
          "type": "bool"
        }
      ],
      "stateMutability": "view",
      "type": "function"
    },
    {
      "inputs": [],
      "name": "investPct",
      "outputs": [
        {
          "internalType": "uint16",
          "name": "",
          "type": "uint16"
        }
      ],
      "stateMutability": "view",
      "type": "function"
    },
    {
      "inputs": [],
      "name": "investState",
      "outputs": [
        {
          "internalType": "uint256",
          "name": "maxInvestableAmount",
          "type": "uint256"
        },
        {
          "internalType": "uint256",
          "name": "alreadyInvested",
          "type": "uint256"
        }
      ],
      "stateMutability": "view",
      "type": "function"
    },
    {
      "inputs": [],
      "name": "lossTolerancePct",
      "outputs": [
        {
          "internalType": "uint16",
          "name": "",
          "type": "uint16"
        }
      ],
      "stateMutability": "view",
      "type": "function"
    },
    {
      "inputs": [],
      "name": "minLockPeriod",
      "outputs": [
        {
          "internalType": "uint64",
          "name": "",
          "type": "uint64"
        }
      ],
      "stateMutability": "view",
      "type": "function"
    },
    {
      "inputs": [
        {
          "internalType": "address",
          "name": "_to",
          "type": "address"
        },
        {
          "internalType": "uint256[]",
          "name": "_ids",
          "type": "uint256[]"
        },
        {
          "internalType": "uint256[]",
          "name": "_amounts",
          "type": "uint256[]"
        }
      ],
      "name": "partialUnsponsor",
      "outputs": [],
      "stateMutability": "nonpayable",
      "type": "function"
    },
    {
      "inputs": [
        {
          "internalType": "address",
          "name": "_to",
          "type": "address"
        },
        {
          "internalType": "uint256[]",
          "name": "_ids",
          "type": "uint256[]"
        },
        {
          "internalType": "uint256[]",
          "name": "_amounts",
          "type": "uint256[]"
        }
      ],
      "name": "partialWithdraw",
      "outputs": [],
      "stateMutability": "nonpayable",
      "type": "function"
    },
    {
      "inputs": [],
      "name": "pause",
      "outputs": [],
      "stateMutability": "nonpayable",
      "type": "function"
    },
    {
      "inputs": [],
      "name": "paused",
      "outputs": [
        {
          "internalType": "bool",
          "name": "",
          "type": "bool"
        }
      ],
      "stateMutability": "view",
      "type": "function"
    },
    {
      "inputs": [],
      "name": "perfFeePct",
      "outputs": [
        {
          "internalType": "uint16",
          "name": "",
          "type": "uint16"
        }
      ],
      "stateMutability": "view",
      "type": "function"
    },
    {
      "inputs": [
        {
          "internalType": "address",
          "name": "claimerId",
          "type": "address"
        }
      ],
      "name": "principalOf",
      "outputs": [
        {
          "internalType": "uint256",
          "name": "",
          "type": "uint256"
        }
      ],
      "stateMutability": "view",
      "type": "function"
    },
    {
      "inputs": [
        {
          "internalType": "address",
          "name": "_inputToken",
          "type": "address"
        }
      ],
      "name": "removePool",
      "outputs": [],
      "stateMutability": "nonpayable",
      "type": "function"
    },
    {
      "inputs": [
        {
          "internalType": "bytes32",
          "name": "role",
          "type": "bytes32"
        },
        {
          "internalType": "address",
          "name": "account",
          "type": "address"
        }
      ],
      "name": "renounceRole",
      "outputs": [],
      "stateMutability": "nonpayable",
      "type": "function"
    },
    {
      "inputs": [
        {
          "internalType": "bytes32",
          "name": "role",
          "type": "bytes32"
        },
        {
          "internalType": "address",
          "name": "account",
          "type": "address"
        }
      ],
      "name": "revokeRole",
      "outputs": [],
      "stateMutability": "nonpayable",
      "type": "function"
    },
    {
      "inputs": [
        {
          "internalType": "uint16",
          "name": "_investPct",
          "type": "uint16"
        }
      ],
      "name": "setInvestPct",
      "outputs": [],
      "stateMutability": "nonpayable",
      "type": "function"
    },
    {
      "inputs": [
        {
          "internalType": "uint16",
          "name": "pct",
          "type": "uint16"
        }
      ],
      "name": "setLossTolerancePct",
      "outputs": [],
      "stateMutability": "nonpayable",
      "type": "function"
    },
    {
      "inputs": [
        {
          "internalType": "uint16",
          "name": "_perfFeePct",
          "type": "uint16"
        }
      ],
      "name": "setPerfFeePct",
      "outputs": [],
      "stateMutability": "nonpayable",
      "type": "function"
    },
    {
      "inputs": [
        {
          "internalType": "address",
          "name": "_strategy",
          "type": "address"
        }
      ],
      "name": "setStrategy",
      "outputs": [],
      "stateMutability": "nonpayable",
      "type": "function"
    },
    {
      "inputs": [
        {
          "internalType": "address",
          "name": "_treasury",
          "type": "address"
        }
      ],
      "name": "setTreasury",
      "outputs": [],
      "stateMutability": "nonpayable",
      "type": "function"
    },
    {
      "inputs": [
        {
          "internalType": "address",
          "name": "claimerId",
          "type": "address"
        }
      ],
      "name": "sharesOf",
      "outputs": [
        {
          "internalType": "uint256",
          "name": "",
          "type": "uint256"
        }
      ],
      "stateMutability": "view",
      "type": "function"
    },
    {
      "inputs": [
        {
          "internalType": "address",
          "name": "_inputToken",
          "type": "address"
        },
        {
          "internalType": "uint256",
          "name": "_amount",
          "type": "uint256"
        },
        {
          "internalType": "uint256",
          "name": "_lockDuration",
          "type": "uint256"
        },
        {
          "internalType": "uint256",
          "name": "_slippage",
          "type": "uint256"
        }
      ],
      "name": "sponsor",
      "outputs": [],
      "stateMutability": "nonpayable",
      "type": "function"
    },
    {
      "inputs": [],
      "name": "strategy",
      "outputs": [
        {
          "internalType": "contract IStrategy",
          "name": "",
          "type": "address"
        }
      ],
      "stateMutability": "view",
      "type": "function"
    },
    {
      "inputs": [
        {
          "internalType": "bytes4",
          "name": "interfaceId",
          "type": "bytes4"
        }
      ],
      "name": "supportsInterface",
      "outputs": [
        {
          "internalType": "bool",
          "name": "",
          "type": "bool"
        }
      ],
      "stateMutability": "view",
      "type": "function"
    },
    {
      "inputs": [
        {
          "internalType": "address",
          "name": "",
          "type": "address"
        }
      ],
      "name": "swappers",
      "outputs": [
        {
          "internalType": "contract ICurve",
          "name": "pool",
          "type": "address"
        },
        {
          "internalType": "uint8",
          "name": "tokenDecimals",
          "type": "uint8"
        },
        {
          "internalType": "uint8",
          "name": "underlyingDecimals",
          "type": "uint8"
        },
        {
          "internalType": "int128",
          "name": "tokenI",
          "type": "int128"
        },
        {
          "internalType": "int128",
          "name": "underlyingI",
          "type": "int128"
        }
      ],
      "stateMutability": "view",
      "type": "function"
    },
    {
      "inputs": [],
      "name": "totalPrincipal",
      "outputs": [
        {
          "internalType": "uint256",
          "name": "",
          "type": "uint256"
        }
      ],
      "stateMutability": "view",
      "type": "function"
    },
    {
      "inputs": [],
      "name": "totalShares",
      "outputs": [
        {
          "internalType": "uint256",
          "name": "",
          "type": "uint256"
        }
      ],
      "stateMutability": "view",
      "type": "function"
    },
    {
      "inputs": [],
      "name": "totalSponsored",
      "outputs": [
        {
          "internalType": "uint256",
          "name": "",
          "type": "uint256"
        }
      ],
      "stateMutability": "view",
      "type": "function"
    },
    {
      "inputs": [],
      "name": "totalUnderlying",
      "outputs": [
        {
          "internalType": "uint256",
          "name": "",
          "type": "uint256"
        }
      ],
      "stateMutability": "view",
      "type": "function"
    },
    {
      "inputs": [],
      "name": "totalUnderlyingMinusSponsored",
      "outputs": [
        {
          "internalType": "uint256",
          "name": "",
          "type": "uint256"
        }
      ],
      "stateMutability": "view",
      "type": "function"
    },
    {
      "inputs": [
        {
          "internalType": "address",
          "name": "_newAdmin",
          "type": "address"
        }
      ],
      "name": "transferAdminRights",
      "outputs": [],
      "stateMutability": "nonpayable",
      "type": "function"
    },
    {
      "inputs": [],
      "name": "treasury",
      "outputs": [
        {
          "internalType": "address",
          "name": "",
          "type": "address"
        }
      ],
      "stateMutability": "view",
      "type": "function"
    },
    {
      "inputs": [],
      "name": "underlying",
      "outputs": [
        {
          "internalType": "contract IERC20Metadata",
          "name": "",
          "type": "address"
        }
      ],
      "stateMutability": "view",
      "type": "function"
    },
    {
      "inputs": [],
      "name": "unpause",
      "outputs": [],
      "stateMutability": "nonpayable",
      "type": "function"
    },
    {
      "inputs": [
        {
          "internalType": "address",
          "name": "_to",
          "type": "address"
        },
        {
          "internalType": "uint256[]",
          "name": "_ids",
          "type": "uint256[]"
        }
      ],
      "name": "unsponsor",
      "outputs": [],
      "stateMutability": "nonpayable",
      "type": "function"
    },
    {
      "inputs": [],
      "name": "updateInvested",
      "outputs": [],
      "stateMutability": "nonpayable",
      "type": "function"
    },
    {
      "inputs": [
        {
          "internalType": "address",
          "name": "_to",
          "type": "address"
        },
        {
          "internalType": "uint256[]",
          "name": "_ids",
          "type": "uint256[]"
        }
      ],
      "name": "withdraw",
      "outputs": [],
      "stateMutability": "nonpayable",
      "type": "function"
    },
    {
      "inputs": [],
      "name": "withdrawPerformanceFee",
      "outputs": [],
      "stateMutability": "nonpayable",
      "type": "function"
    },
    {
      "inputs": [
        {
          "internalType": "address",
          "name": "_to",
          "type": "address"
        }
      ],
      "name": "yieldFor",
      "outputs": [
        {
          "internalType": "uint256",
          "name": "claimableYield",
          "type": "uint256"
        },
        {
          "internalType": "uint256",
          "name": "shares",
          "type": "uint256"
        },
        {
          "internalType": "uint256",
          "name": "perfFee",
          "type": "uint256"
        }
      ],
      "stateMutability": "view",
      "type": "function"
    }
  ],
  "transactionHash": "0xaa6e0996edd6799612734e437315508afb0c8ed15e513dededa4132cf3c7f360",
  "args": [
    "0x5f98805A4E8be255a32880FDeC7F6728C6568bA0",
    7776000,
    9000,
    "0x035F210e5d14054E8AE5A6CFA76d643aA200D56E",
    "0x84f67f75DAf6D57Aef500E0c85C77B7b3bBc92A9",
    0,
    200,
    [
      {
        "token": "0x6B175474E89094C44Da98b954EedeAC495271d0F",
        "pool": "0xEd279fDD11cA84bEef15AF5D39BB4d4bEE23F0cA",
        "tokenI": 1,
        "underlyingI": 0
      },
      {
        "token": "0xA0b86991c6218b36c1d19D4a2e9Eb0cE3606eB48",
        "pool": "0xEd279fDD11cA84bEef15AF5D39BB4d4bEE23F0cA",
        "tokenI": 2,
        "underlyingI": 0
      }
    ]
  ],
  "numDeployments": 2,
  "solcInputHash": "51565ff48b0d2bb586710b8d23898136",
  "bytecode": "0x60c06040523480156200001157600080fd5b50604051620065c3380380620065c3833981016040819052620000349162000d80565b60016002556003805461ffff191690556200005f61ffff871662000390602090811b6200241617901c565b6200007d5760405163870e44a360e01b815260040160405180910390fd5b620000978361ffff166200039060201b620024161760201c565b620000b55760405163d25b1e4b60e01b815260040160405180910390fd5b620000cf8261ffff166200039060201b620024161760201c565b620000ed57604051631d05623160e01b815260040160405180910390fd5b6001600160a01b0388166200011557604051631fc8ba7960e31b815260040160405180910390fd5b6001600160a01b0385166200013d576040516335af31e960e11b815260040160405180910390fd5b6001600160a01b03841662000165576040516330c9889360e01b815260040160405180910390fd5b6001600160401b038716158062000187575062dd7c006001600160401b038816115b15620001a657604051636df7cef760e11b815260040160405180910390fd5b620001b360008562000398565b620001df7ffc8737ab85eb45125971625a9ebdb75cc78e01d5c1fa80c4c6e5203f47bc4fab8562000398565b6200020b7ffaf9b26485088dee58863e57c46603d6cdcbadc7475ac6d8910fab0ecf6030958562000398565b620002377f1597bc5e34ff090612f53164e4e642d2ab4fc78bffe19ed1b602a0d12559561a8562000398565b6003805462010000600160c01b031916600160b01b61ffff8981169190910262010000600160b01b03191691909117620100006001600160a01b038c811682029290921793849055600d80546001600160401b038d166080528a84166001600160b01b031990911617600160a01b89861602179055600f805461ffff1916938716939093179092556040805163313ce56760e01b8152905192909304169163313ce5679160048083019260209291908290030181865afa15801562000300573d6000803e3d6000fd5b505050506040513d601f19601f8201168201806040525081019062000326919062000f38565b6200033390600a62001070565b6200034090600a62001081565b60a0526200034e8162000407565b6040516001600160a01b038616907f7dae230f18360d76a040c81f050aa14eb9d6dc7901b20fc5d855e2a20fe814d190600090a25050505050505050620011bb565b612710101590565b620003a482826200045a565b620004035760008281526001602081815260408084206001600160a01b0386168086529252808420805460ff19169093179092559051339285917f2f8788117e7eff1d82e926ec794901d17c78024a50270940304540a733656f0d9190a45b5050565b805160005b818110156200045557620004428382815181106200042e576200042e620010a3565b60200260200101516200048760201b60201c565b6200044d81620010b9565b90506200040c565b505050565b60008281526001602090815260408083206001600160a01b038516845290915290205460ff165b92915050565b80516001600160a01b039081166000908152602081905260409020541615620004f75760405162461bcd60e51b815260206004820152601d60248201527f746f6b656e20616c7265616479206861732061207377617020706f6f6c00000060448201526064015b60405180910390fd5b620005106003546201000090046001600160a01b031690565b6001600160a01b031681602001516001600160a01b031663c661065783606001516001600160801b03166040518263ffffffff1660e01b81526004016200055991815260200190565b602060405180830381865afa15801562000577573d6000803e3d6000fd5b505050506040513d601f19601f820116820180604052508101906200059d9190620010d7565b6001600160a01b0316146200060a5760405162461bcd60e51b815260206004820152602c60248201527f5f756e6465726c79696e674920646f6573206e6f74206d6174636820756e646560448201526b39363cb4b733903a37b5b2b760a11b6064820152608401620004ee565b600081600001516001600160a01b031663313ce5676040518163ffffffff1660e01b8152600401602060405180830381865afa1580156200064f573d6000803e3d6000fd5b505050506040513d601f19601f8201168201806040525081019062000675919062000f38565b60ff1690506000620006956003546201000090046001600160a01b031690565b6001600160a01b031663313ce5676040518163ffffffff1660e01b8152600401602060405180830381865afa158015620006d3573d6000803e3d6000fd5b505050506040513d601f19601f82011682018060405250810190620006f9919062000f38565b6040805160a0810182526020808701516001600160a01b03908116835260ff8781168385019081529581168486018181528a870151600f90810b60608089019182528d015190910b608088019081528c5186166000908152968790529790952095518654985191518416600160a81b0260ff60a81b1992909416600160a01b026001600160a81b031990991694169390931796909617919091161782555191516001600160801b03908116600160801b029216919091176001909101559050620007e0620007d56003546201000090046001600160a01b031690565b602085015162000865565b82516020840151620007f3919062000865565b82602001516001600160a01b031683600001516001600160a01b03167f1576b5fcfa863788d9ef6558cab7aa68d4b48c44eb7bacaf1a8ac6d6b9d26f948560400151866060015160405162000858929190600f92830b8152910b602082015260400190565b60405180910390a3505050565b604051636eb1769f60e11b81523060048201526001600160a01b0382811660248301526000919084169063dd62ed3e90604401602060405180830381865afa158015620008b6573d6000803e3d6000fd5b505050506040513d601f19601f82011682018060405250810190620008dc9190620010f7565b90508062000455576200045582600019856001600160a01b03166200090b60201b6200241e179092919060201c565b801580620009895750604051636eb1769f60e11b81523060048201526001600160a01b03838116602483015284169063dd62ed3e90604401602060405180830381865afa15801562000961573d6000803e3d6000fd5b505050506040513d601f19601f82011682018060405250810190620009879190620010f7565b155b620009fd5760405162461bcd60e51b815260206004820152603660248201527f5361666545524332303a20617070726f76652066726f6d206e6f6e2d7a65726f60448201527f20746f206e6f6e2d7a65726f20616c6c6f77616e6365000000000000000000006064820152608401620004ee565b604080516001600160a01b038416602482015260448082018490528251808303909101815260649091019091526020810180516001600160e01b0390811663095ea7b360e01b179091526200045591859162000a5516565b600062000ab1826040518060400160405280602081526020017f5361666545524332303a206c6f772d6c6576656c2063616c6c206661696c6564815250856001600160a01b031662000b3360201b6200259b179092919060201c565b80519091501562000455578080602001905181019062000ad2919062001111565b620004555760405162461bcd60e51b815260206004820152602a60248201527f5361666545524332303a204552433230206f7065726174696f6e20646964206e6044820152691bdd081cdd58d8d9595960b21b6064820152608401620004ee565b606062000b44848460008562000b4e565b90505b9392505050565b60608247101562000bb15760405162461bcd60e51b815260206004820152602660248201527f416464726573733a20696e73756666696369656e742062616c616e636520666f6044820152651c8818d85b1b60d21b6064820152608401620004ee565b6001600160a01b0385163b62000c0a5760405162461bcd60e51b815260206004820152601d60248201527f416464726573733a2063616c6c20746f206e6f6e2d636f6e74726163740000006044820152606401620004ee565b600080866001600160a01b0316858760405162000c28919062001168565b60006040518083038185875af1925050503d806000811462000c67576040519150601f19603f3d011682016040523d82523d6000602084013e62000c6c565b606091505b50909250905062000c7f82828662000c8a565b979650505050505050565b6060831562000c9b57508162000b47565b82511562000cac5782518084602001fd5b8160405162461bcd60e51b8152600401620004ee919062001186565b6001600160a01b038116811462000cde57600080fd5b50565b805161ffff8116811462000cf457600080fd5b919050565b634e487b7160e01b600052604160045260246000fd5b604051608081016001600160401b038111828210171562000d345762000d3462000cf9565b60405290565b604051601f8201601f191681016001600160401b038111828210171562000d655762000d6562000cf9565b604052919050565b8051600f81900b811462000cf457600080fd5b600080600080600080600080610100898b03121562000d9e57600080fd5b885162000dab8162000cc8565b60208a01519098506001600160401b03808216821462000dca57600080fd5b81985062000ddb60408c0162000ce1565b975060608b0151915062000def8262000cc8565b60808b015191965062000e028262000cc8565b81955062000e1360a08c0162000ce1565b945062000e2360c08c0162000ce1565b935060e08b015191508082111562000e3a57600080fd5b818b0191508b601f83011262000e4f57600080fd5b81518181111562000e645762000e6462000cf9565b62000e7560208260051b0162000d3a565b91508181835260208301925060208260071b85010191508d82111562000e9a57600080fd5b6020840193505b8184101562000f24576080848f03121562000ebb57600080fd5b62000ec562000d0f565b845162000ed28162000cc8565b8152602085015162000ee48162000cc8565b602082015262000ef76040860162000d6d565b604082015262000f0a6060860162000d6d565b606082015283526080939093019260209092019162000ea1565b809450505050509295985092959890939650565b60006020828403121562000f4b57600080fd5b815160ff8116811462000b4757600080fd5b634e487b7160e01b600052601160045260246000fd5b600181815b8085111562000fb457816000190482111562000f985762000f9862000f5d565b8085161562000fa657918102915b93841c939080029062000f78565b509250929050565b60008262000fcd5750600162000481565b8162000fdc5750600062000481565b816001811462000ff55760028114620010005762001020565b600191505062000481565b60ff84111562001014576200101462000f5d565b50506001821b62000481565b5060208310610133831016604e8410600b841016171562001045575081810a62000481565b62001051838362000f73565b806000190482111562001068576200106862000f5d565b029392505050565b600062000b4760ff84168362000fbc565b60008160001904831182151516156200109e576200109e62000f5d565b500290565b634e487b7160e01b600052603260045260246000fd5b6000600019821415620010d057620010d062000f5d565b5060010190565b600060208284031215620010ea57600080fd5b815162000b478162000cc8565b6000602082840312156200110a57600080fd5b5051919050565b6000602082840312156200112457600080fd5b8151801515811462000b4757600080fd5b60005b838110156200115257818101518382015260200162001138565b8381111562001162576000848401525b50505050565b600082516200117c81846020870162001135565b9190910192915050565b6020815260008251806020840152620011a781604085016020870162001135565b601f01601f19169190910160400192915050565b60805160a0516153d4620011ef600039600081816110d401526111bf0152600081816105dd01526131e701526153d46000f3fe608060405234801561001057600080fd5b50600436106103af5760003560e01c80638456cb59116101f4578063c0ddb6921161011a578063df6f9ba7116100ad578063f5eb42dc1161007c578063f5eb42dc14610951578063f62898871461097d578063f78797c0146109a4578063fd6e9217146109cd57600080fd5b8063df6f9ba71461090f578063e4020fdf14610922578063eb0ebfbc14610935578063f0f442601461093e57600080fd5b8063cd0d9ba8116100e9578063cd0d9ba8146108c1578063cda2695a146108d4578063d547741f146108e7578063d9db2b77146108fa57600080fd5b8063c0ddb69214610877578063c2d794441461087f578063c70920bc146108a6578063cd00dd41146108ae57600080fd5b8063a217fddf11610192578063b5106add11610161578063b5106add14610816578063b59a40cb14610829578063bba97d3314610849578063bd2e3ecd1461061857600080fd5b8063a217fddf14610779578063a8c62e7614610781578063abaa9d7014610794578063b02c43d0146107a457600080fd5b80639816f473116101ce5780639816f47314610732578063999927df14610749578063a164c25d1461075c578063a1ac20eb1461076657600080fd5b80638456cb591461065b5780638cad7fbe1461066357806391d14854146106f957600080fd5b80634e813ac4116102d957806361e20a1c1161027757806376490b561161024657806376490b56146106185780637e2cba6f146106225780637e4b8da0146106355780638293744b1461064857600080fd5b806361e20a1c146105755780636e7007e61461059e5780636f307dc3146105bf57806373ae54b5146105d857600080fd5b80635c975abb116102b35780635c975abb1461052f5780635cb0d4061461053a5780635e8486551461054257806361d027b31461054a57600080fd5b80634e813ac41461050c5780634fc78d6814610514578063563233f61461051c57600080fd5b8063364bc15a116103515780633ba52fc6116103205780633ba52fc6146104e05780633f383236146104e85780633f4ba83a146104fb5780634b1533b21461050357600080fd5b8063364bc15a1461048a57806336568abe146104b15780633a98ef39146104c45780633b7d0946146104cd57600080fd5b806319d3ee3d1161038d57806319d3ee3d14610435578063248a9ca31461043e5780632f2ff15d1461046257806333a100ca1461047757600080fd5b806301ffc9a7146103b45780631325d5f1146103dc57806313f6686d146103f9575b600080fd5b6103c76103c23660046149a8565b6109e2565b60405190151581526020015b60405180910390f35b6103eb670de0b6b3a764000081565b6040519081526020016103d3565b6104206104073660046149e7565b600b602052600090815260409020805460019091015482565b604080519283526020830191909152016103d3565b6103eb600e5481565b6103eb61044c366004614a04565b6000908152600160208190526040909120015490565b610475610470366004614a1d565b610a5a565b005b6104756104853660046149e7565b610a85565b6103eb7ffc8737ab85eb45125971625a9ebdb75cc78e01d5c1fa80c4c6e5203f47bc4fab81565b6104756104bf366004614a1d565b610cb4565b6103eb60055481565b6104756104db3660046149e7565b610d45565b610475610da0565b6104756104f6366004614ad4565b610e8d565b610475610ee5565b6103eb600c5481565b610420610f3e565b610475610ffb565b61047561052a366004614b67565b6112ba565b60035460ff166103c7565b6104756113ba565b6104756113cd565b600d5461055d906001600160a01b031681565b6040516001600160a01b0390911681526020016103d3565b6103eb6105833660046149e7565b6001600160a01b03166000908152600b602052604090205490565b600f546105ac9061ffff1681565b60405161ffff90911681526020016103d3565b60035461055d906201000090046001600160a01b031681565b6105ff7f000000000000000000000000000000000000000000000000000000000000000081565b60405167ffffffffffffffff90911681526020016103d3565b6105ff62dd7c0081565b610475610630366004614b67565b6113e0565b610475610643366004614bce565b6114b3565b610475610656366004614c51565b611551565b610475611630565b6106ba6106713660046149e7565b600060208190529081526040902080546001909101546001600160a01b0382169160ff600160a01b8204811692600160a81b9092041690600f81810b91600160801b9004900b85565b604080516001600160a01b03909616865260ff94851660208701529390921692840192909252600f91820b6060840152900b608082015260a0016103d3565b6103c7610707366004614a1d565b60009182526001602090815260408084206001600160a01b0393909316845291905290205460ff1690565b6003546201000090046001600160a01b031661055d565b6104756107573660046149e7565b611687565b6105ff6212750081565b610475610774366004614b67565b61185a565b6103eb600081565b60065461055d906001600160a01b031681565b600354610100900460ff166103c7565b6107e66107b2366004614a04565b600960205260009081526040902080546001820154600283015460039093015491926001600160a01b039182169291169084565b6040516103d394939291909384526001600160a01b03928316602085015291166040830152606082015260800190565b6104756108243660046149e7565b61195c565b61083c610837366004614cbe565b611b40565b6040516103d39190614cfb565b61085c6108573660046149e7565b611be5565b604080519384526020840192909252908201526060016103d3565b6103eb611ca4565b6103eb7f1597bc5e34ff090612f53164e4e642d2ab4fc78bffe19ed1b602a0d12559561a81565b6103eb611ce7565b6104756108bc366004614bce565b611e63565b61083c6108cf366004614d3f565b611ef5565b6104756108e2366004614d86565b611faf565b6104756108f5366004614a1d565b6121f5565b600d546105ac90600160a01b900461ffff1681565b61047561091d366004614c51565b61221b565b610475610930366004614c51565b6122ad565b6103eb60045481565b61047561094c3660046149e7565b61233d565b6103eb61095f3660046149e7565b6001600160a01b03166000908152600b602052604090206001015490565b6103eb7ffaf9b26485088dee58863e57c46603d6cdcbadc7475ac6d8910fab0ecf60309581565b61055d6109b2366004614a04565b6008602052600090815260409020546001600160a01b031681565b6003546105ac90600160b01b900461ffff1681565b60006001600160e01b031982167f21d982ed000000000000000000000000000000000000000000000000000000001480610a4557506001600160e01b031982167f0fae047800000000000000000000000000000000000000000000000000000000145b80610a545750610a54826125b4565b92915050565b60008281526001602081905260409091200154610a768161261b565b610a808383612625565b505050565b3360009081527f473683a5a3e156e4e3a6c3a7a6d9e3d4a58f9392a3bba04b84ad6221b3f7f356602052604090205460ff16610ad457604051631e15456f60e11b815260040160405180910390fd5b6001600160a01b038116610afb57604051634f08b3f360e11b815260040160405180910390fd5b306001600160a01b0316816001600160a01b031663fbfa77cf6040518163ffffffff1660e01b8152600401602060405180830381865afa158015610b43573d6000803e3d6000fd5b505050506040513d601f19601f82011682018060405250810190610b679190614dc1565b6001600160a01b031614610ba7576040517f0251bab500000000000000000000000000000000000000000000000000000000815260040160405180910390fd5b6006546001600160a01b031615801590610c335750600660009054906101000a90046001600160a01b03166001600160a01b0316635be9b2d36040518163ffffffff1660e01b8152600401602060405180830381865afa158015610c0f573d6000803e3d6000fd5b505050506040513d601f19601f82011682018060405250810190610c339190614dde565b15610c6a576040517fd28a9fdb00000000000000000000000000000000000000000000000000000000815260040160405180910390fd5b600680546001600160a01b0319166001600160a01b0383169081179091556040517f4da9c22c924692646a21cf1f423781ae3285198dc22e8a6912835d3272b90b3c90600090a250565b6001600160a01b0381163314610d375760405162461bcd60e51b815260206004820152602f60248201527f416363657373436f6e74726f6c3a2063616e206f6e6c792072656e6f756e636560448201527f20726f6c657320666f722073656c66000000000000000000000000000000000060648201526084015b60405180910390fd5b610d4182826126ac565b5050565b3360009081527fa6eef7e35abe7026729641147f7915573c7e97b47efa546f5f6e3230263bcb49602052604090205460ff16610d9457604051631bacfc6960e01b815260040160405180910390fd5b610d9d8161272f565b50565b3360009081527f10c15aae13326e9b33c92ffbb94efb7492c500f0cca324caca9bd1aca194ed18602052604090205460ff16610def57604051637660f80560e11b815260040160405180910390fd5b600e5480610e29576040517f0a33934000000000000000000000000000000000000000000000000000000000815260040160405180910390fd5b6000600e55610e3781612803565b6040518181527fb7eeacba6b133788365610e83d3f130d07b6ef6e78877961f25b3f61fcba07529060200160405180910390a1600d54600354610d9d916001600160a01b03620100009092048216911683612a02565b3360009081527fa6eef7e35abe7026729641147f7915573c7e97b47efa546f5f6e3230263bcb49602052604090205460ff16610edc57604051631bacfc6960e01b815260040160405180910390fd5b610d9d81612a4b565b3360009081527fa6eef7e35abe7026729641147f7915573c7e97b47efa546f5f6e3230263bcb49602052604090205460ff16610f3457604051631bacfc6960e01b815260040160405180910390fd5b610f3c612e62565b565b60065460009081906001600160a01b0316610f5c5750600091829150565b600354610f7c90600160b01b900461ffff16610f76611ce7565b90612eb4565b9150600660009054906101000a90046001600160a01b03166001600160a01b0316634ad0b6846040518163ffffffff1660e01b8152600401602060405180830381865afa158015610fd1573d6000803e3d6000fd5b505050506040513d601f19601f82011682018060405250810190610ff59190614e00565b90509091565b3360009081527f10c15aae13326e9b33c92ffbb94efb7492c500f0cca324caca9bd1aca194ed18602052604090205460ff1661104a57604051637660f80560e11b815260040160405180910390fd5b6006546001600160a01b031661107357604051634f08b3f360e11b815260040160405180910390fd5b60008061107e610f3e565b91509150808214156110bc576040517ff096593000000000000000000000000000000000000000000000000000000000815260040160405180910390fd5b818111156111af5760006110d08383614e2f565b90507f000000000000000000000000000000000000000000000000000000000000000081101561111357604051630e33bdb760e11b815260040160405180910390fd5b6006546040516319d1885d60e31b8152600481018390526001600160a01b039091169063ce8c42e890602401600060405180830381600087803b15801561115957600080fd5b505af115801561116d573d6000803e3d6000fd5b505050507ff7e72e2f53a982a67fc999c00edfd87a94bdf99e5031c74851276cfd65b0bd29816040516111a291815260200190565b60405180910390a1505050565b60006111bb8284614e2f565b90507f00000000000000000000000000000000000000000000000000000000000000008110156111fe57604051630e33bdb760e11b815260040160405180910390fd5b600654600354611221916001600160a01b03620100009092048216911683612a02565b600660009054906101000a90046001600160a01b03166001600160a01b031663e8b5e51f6040518163ffffffff1660e01b8152600401600060405180830381600087803b15801561127157600080fd5b505af1158015611285573d6000803e3d6000fd5b505050507fac9f7997c30b6a3cc9c74953898b5de154359339c7ec0d6d70ceb98e55db1a4b816040516111a291815260200190565b3360009081527f473683a5a3e156e4e3a6c3a7a6d9e3d4a58f9392a3bba04b84ad6221b3f7f356602052604090205460ff1661130957604051631e15456f60e11b815260040160405180910390fd5b61ffff81166127101015611349576040517fd25b1e4b00000000000000000000000000000000000000000000000000000000815260040160405180910390fd5b600d80547fffffffffffffffffffff0000ffffffffffffffffffffffffffffffffffffffff16600160a01b61ffff8416908102919091179091556040519081527f16de0efbdf16c568a60b65978ed774bba4e0c179de55ab8f639527e41fd0c861906020015b60405180910390a150565b60006113c58161261b565b610d9d612ed1565b60006113d88161261b565b610d9d612f10565b3360009081527f473683a5a3e156e4e3a6c3a7a6d9e3d4a58f9392a3bba04b84ad6221b3f7f356602052604090205460ff1661142f57604051631e15456f60e11b815260040160405180910390fd5b61ffff8116612710101561146f576040517f1d05623100000000000000000000000000000000000000000000000000000000815260040160405180910390fd5b600f805461ffff191661ffff83169081179091556040519081527f5b9aa28fc994f782b33ebebd9947795b5bc59a54203466433eac5f8d9e819400906020016113af565b6002805414156115055760405162461bcd60e51b815260206004820152601f60248201527f5265656e7472616e637947756172643a207265656e7472616e742063616c6c006044820152606401610d2e565b60028055611511612f4a565b6001600160a01b0385166115385760405163f95106ab60e01b815260040160405180910390fd5b6115458585858585612fa2565b50506001600255505050565b6002805414156115a35760405162461bcd60e51b815260206004820152601f60248201527f5265656e7472616e637947756172643a207265656e7472616e742063616c6c006044820152606401610d2e565b600280556115af612f4a565b6001600160a01b0383166115d65760405163f95106ab60e01b815260040160405180910390fd5b6115de611ca4565b600c541115611619576040517f0bdd660c00000000000000000000000000000000000000000000000000000000815260040160405180910390fd5b611626838383600061304b565b5050600160025550565b3360009081527fa6eef7e35abe7026729641147f7915573c7e97b47efa546f5f6e3230263bcb49602052604090205460ff1661167f57604051631bacfc6960e01b815260040160405180910390fd5b610f3c61310f565b6002805414156116d95760405162461bcd60e51b815260206004820152601f60248201527f5265656e7472616e637947756172643a207265656e7472616e742063616c6c006044820152606401610d2e565b600280556116e5612f4a565b6001600160a01b03811661170c5760405163f95106ab60e01b815260040160405180910390fd5b600080600061171a33611be5565b925092509250826000141561175b576040517f58367fe100000000000000000000000000000000000000000000000000000000815260040160405180910390fd5b6000611765611ca4565b90506000600554905082600e60008282546117809190614e46565b9091555061178f905085612803565b6003546117ac906201000090046001600160a01b03168787612a02565b336000908152600b6020526040812060010180548692906117ce908490614e2f565b9250508190555083600560008282546117e79190614e2f565b90915550506040805133815260208101879052908101859052606081018490526080810183905260a081018290526001600160a01b038716907f4344accc2a634cf29195bba6fa3d939e3415ecd1ca5c57b322bcf81f920979c89060c00160405180910390a25050600160025550505050565b3360009081527f473683a5a3e156e4e3a6c3a7a6d9e3d4a58f9392a3bba04b84ad6221b3f7f356602052604090205460ff166118a957604051631e15456f60e11b815260040160405180910390fd5b61ffff811661271010156118e9576040517f870e44a300000000000000000000000000000000000000000000000000000000815260040160405180910390fd5b60405161ffff821681527f40775ca73a6e168d23747bc0200694cf7c99ad2db624d04c095cb59899011a569060200160405180910390a16003805461ffff909216600160b01b027fffffffffffffffff0000ffffffffffffffffffffffffffffffffffffffffffff909216919091179055565b3360009081527fa6eef7e35abe7026729641147f7915573c7e97b47efa546f5f6e3230263bcb49602052604090205460ff166119ab57604051631bacfc6960e01b815260040160405180910390fd5b6001600160a01b0381166119eb576040517f30c9889300000000000000000000000000000000000000000000000000000000815260040160405180910390fd5b6001600160a01b038116331415611a2e576040517f25499f7e00000000000000000000000000000000000000000000000000000000815260040160405180910390fd5b611a39600082612625565b611a637ffc8737ab85eb45125971625a9ebdb75cc78e01d5c1fa80c4c6e5203f47bc4fab82612625565b611a8d7ffaf9b26485088dee58863e57c46603d6cdcbadc7475ac6d8910fab0ecf60309582612625565b611ab77f1597bc5e34ff090612f53164e4e642d2ab4fc78bffe19ed1b602a0d12559561a82612625565b611ac26000336126ac565b611aec7ffc8737ab85eb45125971625a9ebdb75cc78e01d5c1fa80c4c6e5203f47bc4fab336126ac565b611b167ffaf9b26485088dee58863e57c46603d6cdcbadc7475ac6d8910fab0ecf603095336126ac565b610d9d7f1597bc5e34ff090612f53164e4e642d2ab4fc78bffe19ed1b602a0d12559561a336126ac565b6060600280541415611b945760405162461bcd60e51b815260206004820152601f60248201527f5265656e7472616e637947756172643a207265656e7472616e742063616c6c006044820152606401610d2e565b60028055611ba061314c565b600754611bae816001614e46565b600755600081815260086020526040902080546001600160a01b03191633179055611bd9818461319f565b60016002559392505050565b6001600160a01b0381166000908152600b6020526040812080546001909101548291829182611c12611ca4565b90506000611c238360055484613392565b9050838111611c4057600080600096509650965050505050611c9d565b6000611c4c8583614e2f565b9050611c5b81600554856133ca565b96506000611c6c8860055486613392565b600d54909150611c88908290600160a01b900461ffff16612eb4565b9650611c948782614e2f565b98505050505050505b9193909250565b600080611caf611ce7565b90506000600e54600454611cc39190614e46565b905081811115611cd65760009250505090565b611ce08183614e2f565b9250505090565b6006546000906001600160a01b031615611df257600660009054906101000a90046001600160a01b03166001600160a01b0316634ad0b6846040518163ffffffff1660e01b8152600401602060405180830381865afa158015611d4e573d6000803e3d6000fd5b505050506040513d601f19601f82011682018060405250810190611d729190614e00565b6003546040516370a0823160e01b8152306004820152620100009091046001600160a01b0316906370a0823190602401602060405180830381865afa158015611dbf573d6000803e3d6000fd5b505050506040513d601f19601f82011682018060405250810190611de39190614e00565b611ded9190614e46565b905090565b6003546040516370a0823160e01b8152306004820152620100009091046001600160a01b0316906370a0823190602401602060405180830381865afa158015611e3f573d6000803e3d6000fd5b505050506040513d601f19601f82011682018060405250810190611ded9190614e00565b600280541415611eb55760405162461bcd60e51b815260206004820152601f60248201527f5265656e7472616e637947756172643a207265656e7472616e742063616c6c006044820152606401610d2e565b60028055611ec1612f4a565b6001600160a01b038516611ee85760405163f95106ab60e01b815260040160405180910390fd5b6115458585858585613439565b6060600280541415611f495760405162461bcd60e51b815260206004820152601f60248201527f5265656e7472616e637947756172643a207265656e7472616e742063616c6c006044820152606401610d2e565b60028055611f5561314c565b6000838152600860205260409020546001600160a01b03163314611fa5576040517f9049b68600000000000000000000000000000000000000000000000000000000815260040160405180910390fd5b611bd9838361319f565b6002805414156120015760405162461bcd60e51b815260206004820152601f60248201527f5265656e7472616e637947756172643a207265656e7472616e742063616c6c006044820152606401610d2e565b600280553360009081527f27365024d84ecf053ef4d13025b66be161b03e90a7fc7ff54f74d5533a9f857e602052604090205460ff1661206d576040517f9aff7af000000000000000000000000000000000000000000000000000000000815260040160405180910390fd5b61207561314c565b826120ac576040517ff712805800000000000000000000000000000000000000000000000000000000815260040160405180910390fd5b621275008210806120bf575062dd7c0082115b156120dd57604051636235acd960e01b815260040160405180910390fd5b60006120e94284614e46565b90506120f9600a80546001019055565b6000612104600a5490565b90506121113387876134c7565b600061211e8787866135ff565b604080516080810182528281523360208083019182526000838501818152606085018a815289835260099093529481209351845591516001840180546001600160a01b03199081166001600160a01b0393841617909155945160028501805490961691161790935591516003909101556004805492935083929091906121a5908490614e46565b90915550506040805182815260208101859052339184917f7ca3497675c6d3ec00b1edc13b8e0b06169ee96a663ab25a74af7da53378f09e910160405180910390a3505060016002555050505050565b600082815260016020819052604090912001546122118161261b565b610a8083836126ac565b60028054141561226d5760405162461bcd60e51b815260206004820152601f60248201527f5265656e7472616e637947756172643a207265656e7472616e742063616c6c006044820152606401610d2e565b60028055612279612f4a565b6001600160a01b0383166122a05760405163f95106ab60e01b815260040160405180910390fd5b611626838383600161304b565b6002805414156122ff5760405162461bcd60e51b815260206004820152601f60248201527f5265656e7472616e637947756172643a207265656e7472616e742063616c6c006044820152606401610d2e565b6002805561230b612f4a565b6001600160a01b0383166123325760405163f95106ab60e01b815260040160405180910390fd5b6116268383836137df565b3360009081527f473683a5a3e156e4e3a6c3a7a6d9e3d4a58f9392a3bba04b84ad6221b3f7f356602052604090205460ff1661238c57604051631e15456f60e11b815260040160405180910390fd5b6001600160a01b0381166123cc576040517f6b5e63d200000000000000000000000000000000000000000000000000000000815260040160405180910390fd5b600d80546001600160a01b0319166001600160a01b0383169081179091556040517f7dae230f18360d76a040c81f050aa14eb9d6dc7901b20fc5d855e2a20fe814d190600090a250565b612710101590565b8015806124985750604051636eb1769f60e11b81523060048201526001600160a01b03838116602483015284169063dd62ed3e90604401602060405180830381865afa158015612472573d6000803e3d6000fd5b505050506040513d601f19601f820116820180604052508101906124969190614e00565b155b61250a5760405162461bcd60e51b815260206004820152603660248201527f5361666545524332303a20617070726f76652066726f6d206e6f6e2d7a65726f60448201527f20746f206e6f6e2d7a65726f20616c6c6f77616e6365000000000000000000006064820152608401610d2e565b6040516001600160a01b038316602482015260448101829052610a809084907f095ea7b300000000000000000000000000000000000000000000000000000000906064015b60408051601f198184030181529190526020810180517bffffffffffffffffffffffffffffffffffffffffffffffffffffffff166001600160e01b03199093169290921790915261385a565b60606125aa848460008561393f565b90505b9392505050565b60006001600160e01b031982167f7965db0b000000000000000000000000000000000000000000000000000000001480610a5457507f01ffc9a7000000000000000000000000000000000000000000000000000000006001600160e01b0319831614610a54565b610d9d8133613a7c565b60008281526001602090815260408083206001600160a01b038516845290915290205460ff16610d415760008281526001602081815260408084206001600160a01b0386168086529252808420805460ff19169093179092559051339285917f2f8788117e7eff1d82e926ec794901d17c78024a50270940304540a733656f0d9190a45050565b60008281526001602090815260408083206001600160a01b038516845290915290205460ff1615610d415760008281526001602090815260408083206001600160a01b0385168085529252808320805460ff1916905551339285917ff6391f5c32d9c69d2a47ea670b442974b53935d1edc7fd64eb21e047a839171b9190a45050565b6001600160a01b03818116600090815260208190526040902054166127965760405162461bcd60e51b815260206004820152601360248201527f706f6f6c20646f6573206e6f74206578697374000000000000000000000000006044820152606401610d2e565b6001600160a01b03811660008181526020819052604080822080547fffffffffffffffffffff00000000000000000000000000000000000000000000168155600101829055517f94be23730c4398d20227f4e457cf92307b13e5956f2a958e2e368ad44e2f826b9190a250565b6003546040516370a0823160e01b81523060048201526000916201000090046001600160a01b0316906370a0823190602401602060405180830381865afa158015612852573d6000803e3d6000fd5b505050506040513d601f19601f820116820180604052508101906128769190614e00565b9050808211612883575050565b600660009054906101000a90046001600160a01b03166001600160a01b0316639af2e6356040518163ffffffff1660e01b8152600401602060405180830381865afa1580156128d6573d6000803e3d6000fd5b505050506040513d601f19601f820116820180604052508101906128fa9190614dde565b61291757604051635f842b9960e11b815260040160405180910390fd5b60035460009061294b9061293890600160b01b900461ffff16612710614e5e565b84612941611ce7565b610f769190614e2f565b905060008261295a8386614e46565b6129649190614e2f565b6006546040516319d1885d60e31b8152600481018390529192506001600160a01b03169063ce8c42e890602401600060405180830381600087803b1580156129ab57600080fd5b505af11580156129bf573d6000803e3d6000fd5b505050507ff7e72e2f53a982a67fc999c00edfd87a94bdf99e5031c74851276cfd65b0bd29816040516129f491815260200190565b60405180910390a150505050565b6040516001600160a01b038316602482015260448101829052610a809084907fa9059cbb000000000000000000000000000000000000000000000000000000009060640161254f565b80516001600160a01b039081166000908152602081905260409020541615612ab55760405162461bcd60e51b815260206004820152601d60248201527f746f6b656e20616c7265616479206861732061207377617020706f6f6c0000006044820152606401610d2e565b6003546201000090046001600160a01b03166001600160a01b031681602001516001600160a01b031663c661065783606001516fffffffffffffffffffffffffffffffff166040518263ffffffff1660e01b8152600401612b1891815260200190565b602060405180830381865afa158015612b35573d6000803e3d6000fd5b505050506040513d601f19601f82011682018060405250810190612b599190614dc1565b6001600160a01b031614612bd55760405162461bcd60e51b815260206004820152602c60248201527f5f756e6465726c79696e674920646f6573206e6f74206d6174636820756e646560448201527f726c79696e6720746f6b656e00000000000000000000000000000000000000006064820152608401610d2e565b600081600001516001600160a01b031663313ce5676040518163ffffffff1660e01b8152600401602060405180830381865afa158015612c19573d6000803e3d6000fd5b505050506040513d601f19601f82011682018060405250810190612c3d9190614e81565b60ff1690506000612c5d6003546001600160a01b03620100009091041690565b6001600160a01b031663313ce5676040518163ffffffff1660e01b8152600401602060405180830381865afa158015612c9a573d6000803e3d6000fd5b505050506040513d601f19601f82011682018060405250810190612cbe9190614e81565b6040805160a0810182526020808701516001600160a01b03908116835260ff8781168385019081529581168486018181528a870151600f90810b60608089019182528d015190910b608088019081528c5186166000908152968790529790952095518654985191518416600160a81b027fffffffffffffffffffff00ffffffffffffffffffffffffffffffffffffffffff92909416600160a01b027fffffffffffffffffffffff00000000000000000000000000000000000000000090991694169390931796909617919091161782555191516fffffffffffffffffffffffffffffffff908116600160801b029216919091176001909101559050612ddf612dd56003546001600160a01b03620100009091041690565b8460200151613afc565b612df183600001518460200151613afc565b82602001516001600160a01b031683600001516001600160a01b03167f1576b5fcfa863788d9ef6558cab7aa68d4b48c44eb7bacaf1a8ac6d6b9d26f9485604001518660600151604051612e55929190600f92830b8152910b602082015260400190565b60405180910390a3505050565b612e6a613b8d565b6003805460ff191690557f5db9ee0a495bf2e6ff9c91a7834c1ba4fdd244a5e8aa4e537bd38aeae4b073aa335b6040516001600160a01b03909116815260200160405180910390a1565b6000612710612ec761ffff841685614ea4565b6125ad9190614ec3565b612ed9612f4a565b6003805461ff0019166101001790557f92493a2527e1a0e4214d0f98b1bedbdc2b53ef81ee4578756108fef0deff09ee612e973390565b612f18613bdf565b6003805461ff00191690557fc47f9c912614e04aeb80c7e6cdc73c0f4368cde4bf42df3b26ad96b898913c7d33612e97565b600354610100900460ff1615610f3c5760405162461bcd60e51b815260206004820152601460248201527f5061757361626c653a20457869745061757365640000000000000000000000006044820152606401610d2e565b6005546000612faf611ca4565b9050600085815b8181101561301957612ffd898983818110612fd357612fd3614ee5565b9050602002013586868d60008c8c88818110612ff157612ff1614ee5565b90506020020135613c36565b6130079084614e46565b925061301281614efb565b9050612fb6565b5061302382612803565b600354613040906201000090046001600160a01b03168a84612a02565b505050505050505050565b6005546000613058611ca4565b9050600084815b818110156130de576000600960008a8a8581811061307f5761307f614ee5565b9050602002013581526020019081526020016000206000015490506130c08989848181106130af576130af614ee5565b9050602002013587878d8b86613c36565b6130ca9085614e46565b935050806130d790614efb565b905061305f565b506130e882612803565b600354613105906201000090046001600160a01b03168984612a02565b5050505050505050565b61311761314c565b6003805460ff191660011790557f62e78cea01bee320cd4e420270b5ea74000d11b0c9f74754ebdbfc544b05a258612e973390565b60035460ff1615610f3c5760405162461bcd60e51b815260206004820152601060248201527f5061757361626c653a20706175736564000000000000000000000000000000006044820152606401610d2e565b606060408201356131dc576040517fab59997c00000000000000000000000000000000000000000000000000000000815260040160405180910390fd5b67ffffffffffffffff7f0000000000000000000000000000000000000000000000000000000000000000166132176040840160208501614f16565b67ffffffffffffffff161080613248575062dd7c0061323c6040840160208501614f16565b67ffffffffffffffff16115b1561326657604051636235acd960e01b815260040160405180910390fd5b60036132756080840184614f40565b905010156132af576040517f3867858900000000000000000000000000000000000000000000000000000000815260040160405180910390fd5b60006132bc600c54613f98565b905060006132c8611ca4565b905080821115613304576040517f08063cab00000000000000000000000000000000000000000000000000000000815260040160405180910390fd5b61331f3361331560208701876149e7565b86604001356134c7565b600061334061333160208701876149e7565b86604001358760a001356135ff565b90506000426133556040880160208901614f16565b61335f9190614f87565b905061338783838361337460608b018b614fb3565b61338160808d018d614f40565b8e613fb7565b979650505050505050565b600083158061339f575082155b806133a8575081155b156133b5575060006125ad565b826133c08584614ea4565b6125aa9190614ec3565b6000836133d9575060006125ad565b826133f7576133f0670de0b6b3a764000085614ea4565b90506125ad565b8161342e576040517ff91b6e7b00000000000000000000000000000000000000000000000000000000815260040160405180910390fd5b816133c08486614ea4565b600083815b818160ff1610156134b357600087878360ff1681811061346057613460614ee5565b905060200201359050600086868460ff1681811061348057613480614ee5565b9050602002013590506134948a83836141f9565b61349e8186614e46565b94505050806134ac90614ffd565b905061343e565b506134be87836143d6565b50505050505050565b6040516370a0823160e01b81523060048201526000906001600160a01b038416906370a0823190602401602060405180830381865afa15801561350e573d6000803e3d6000fd5b505050506040513d601f19601f820116820180604052508101906135329190614e00565b90506135496001600160a01b03841685308561443c565b6040516370a0823160e01b81523060048201526000906001600160a01b038516906370a0823190602401602060405180830381865afa158015613590573d6000803e3d6000fd5b505050506040513d601f19601f820116820180604052508101906135b49190614e00565b90506135c08383614e46565b81146135f8576040517f2a25a38b00000000000000000000000000000000000000000000000000000000815260040160405180910390fd5b5050505050565b60008061361b6003546001600160a01b03620100009091041690565b9050806001600160a01b0316856001600160a01b0316141561364057839150506125ad565b6001600160a01b03808616600090815260208190526040902080549091166136aa5760405162461bcd60e51b815260206004820152601660248201527f6e6f6e2d6578697374696e67207377617020706f6f6c000000000000000000006044820152606401610d2e565b80546000906136cf90879060ff600160a01b8204811691600160a81b90041688614493565b825460018401546040517fa6417ed6000000000000000000000000000000000000000000000000000000008152600f82810b6004830152600160801b90920490910b602482015260448101899052606481018390529192506001600160a01b03169063a6417ed6906084016020604051808303816000875af1158015613759573d6000803e3d6000fd5b505050506040513d601f19601f8201168201806040525081019061377d9190614e00565b9350826001600160a01b0316876001600160a01b03167ffa2dda1cc1b86e41239702756b13effbc1a092b5c57e3ad320fbe4f3b13fe23588876040516137cd929190918252602082015260400190565b60405180910390a35050509392505050565b600081815b818160ff16101561384f57600085858360ff1681811061380657613806614ee5565b602090810292909201356000818152600990935260409092205491925061383090508883836141f9565b61383a8186614e46565b945050508061384890614ffd565b90506137e4565b506135f885836143d6565b60006138af826040518060400160405280602081526020017f5361666545524332303a206c6f772d6c6576656c2063616c6c206661696c6564815250856001600160a01b031661259b9092919063ffffffff16565b805190915015610a8057808060200190518101906138cd9190614dde565b610a805760405162461bcd60e51b815260206004820152602a60248201527f5361666545524332303a204552433230206f7065726174696f6e20646964206e60448201527f6f742073756363656564000000000000000000000000000000000000000000006064820152608401610d2e565b6060824710156139b75760405162461bcd60e51b815260206004820152602660248201527f416464726573733a20696e73756666696369656e742062616c616e636520666f60448201527f722063616c6c00000000000000000000000000000000000000000000000000006064820152608401610d2e565b6001600160a01b0385163b613a0e5760405162461bcd60e51b815260206004820152601d60248201527f416464726573733a2063616c6c20746f206e6f6e2d636f6e74726163740000006044820152606401610d2e565b600080866001600160a01b03168587604051613a2a9190615049565b60006040518083038185875af1925050503d8060008114613a67576040519150601f19603f3d011682016040523d82523d6000602084013e613a6c565b606091505b50915091506133878282866144de565b60008281526001602090815260408083206001600160a01b038516845290915290205460ff16610d4157613aba816001600160a01b03166014614517565b613ac5836020614517565b604051602001613ad6929190615065565b60408051601f198184030181529082905262461bcd60e51b8252610d2e91600401615112565b604051636eb1769f60e11b81523060048201526001600160a01b0382811660248301526000919084169063dd62ed3e90604401602060405180830381865afa158015613b4c573d6000803e3d6000fd5b505050506040513d601f19601f82011682018060405250810190613b709190614e00565b905080610a8057610a806001600160a01b0384168360001961241e565b60035460ff16610f3c5760405162461bcd60e51b815260206004820152601460248201527f5061757361626c653a206e6f74207061757365640000000000000000000000006044820152606401610d2e565b600354610100900460ff16610f3c5760405162461bcd60e51b815260206004820152601860248201527f5061757361626c653a206e6f74204578697450617573656400000000000000006044820152606401610d2e565b6000868152600960205260408120600101546001600160a01b03163314613c89576040517fff40736100000000000000000000000000000000000000000000000000000000815260040160405180910390fd5b60008781526009602090815260408083208151608081018352815481526001808301546001600160a01b039081168387015260028401541682850181905260039093015460608301908152928652600b85529483902083518085019094528054845290940154928201929092529051421015613d31576040517f0f6268c200000000000000000000000000000000000000000000000000000000815260040160405180910390fd5b60408201516001600160a01b0316613d75576040517fde8b700400000000000000000000000000000000000000000000000000000000815260040160405180910390fd5b8151841115613d9757604051635bcd1de160e11b815260040160405180910390fd5b6000613da4858a8a6133ca565b82516020840151919250600091613dbb9088614ea4565b613dc59190614ec3565b905086158015613dd457508082115b15613e0b576040517f7df2e7ab00000000000000000000000000000000000000000000000000000000815260040160405180910390fd5b81878015613e1857508183115b15613e205750805b6040808601516001600160a01b03166000908152600b6020529081206001018054839290613e4f908490614e2f565b90915550506040808601516001600160a01b03166000908152600b6020529081208054899290613e80908490614e2f565b925050819055508060056000828254613e999190614e2f565b9250508190555086600c6000828254613eb29190614e2f565b9091555050845187148015613efb5760008d81526009602052604081208181556001810180546001600160a01b0319908116909155600282018054909116905560030155613f1f565b60008d815260096020526040812080548a9290613f19908490614e2f565b90915550505b6000613f2c838e8e613392565b90508a6001600160a01b03168e7f14e79002ce0df3ba4381425c583d4c9984c7e2910d3e7e088377db997773153e858486604051613f7f9392919092835260208301919091521515604082015260600190565b60405180910390a39d9c50505050505050505050505050565b600f54600090613fad90839061ffff16612eb4565b610a549083614e2f565b6040805160a0810182526005548152602081018a90526000918101829052606081810183905260808201879052918667ffffffffffffffff811115613ffe57613ffe614a4d565b604051908082528060200260200182016040528015614027578160200160208202803683370190505b50905060005b82608001518110156141a157600089898381811061404d5761404d614ee5565b905060200281019061405f9190615125565b6140689061513b565b805190915061ffff166140a7576040517f4f287e5000000000000000000000000000000000000000000000000000000000815260040160405180910390fd5b60208101516001600160a01b03166140eb576040517fd444696b00000000000000000000000000000000000000000000000000000000815260040160405180910390fd5b6000600185608001516140fe9190614e2f565b8314614116578151614111908e90612eb4565b614125565b6060850151614125908e614e2f565b905061413f87828e8589600001518a602001518f8f6146f8565b84848151811061415157614151614ee5565b6020908102919091010152815160408601805161416f9083906151fb565b61ffff1690525060608501805182919061418a908390614e46565b90525061419a9150829050614efb565b905061402d565b506141b5826040015161ffff166127101490565b6141eb576040517fd7b03e8400000000000000000000000000000000000000000000000000000000815260040160405180910390fd5b9a9950505050505050505050565b60008281526009602090815260409182902082516080810184528154815260018201546001600160a01b0390811693820184905260028301541693810193909352600301546060830152331461427b576040517f5040aaa300000000000000000000000000000000000000000000000000000000815260040160405180910390fd5b42816060015111156142b9576040517f4cf1715e00000000000000000000000000000000000000000000000000000000815260040160405180910390fd5b60408101516001600160a01b0316156142fe576040517f6f15ccf800000000000000000000000000000000000000000000000000000000815260040160405180910390fd5b805182111561432057604051635bcd1de160e11b815260040160405180910390fd5b80516040805184815291841460208301819052916001600160a01b0387169186917f8bb6f71206f2ec5e5a42539a0d677bb7e48844b6cefdad5d7139fd68568d7299910160405180910390a38061439b576000848152600960205260408120805485929061438f908490614e2f565b90915550505050505050565b50505060009081526009602052604081208181556001810180546001600160a01b031990811690915560028201805490911690556003015550565b6143de611ce7565b8111156143fe57604051635f842b9960e11b815260040160405180910390fd5b80600460008282546144109190614e2f565b9091555061441f905081612803565b600354610d41906201000090046001600160a01b03168383612a02565b6040516001600160a01b038085166024830152831660448201526064810182905261448d9085907f23b872dd000000000000000000000000000000000000000000000000000000009060840161254f565b50505050565b60006144a084600a6152fc565b6144ac90612710614ea4565b6144b784600a6152fc565b6144c18488614ea4565b6144cb9190614ea4565b6144d59190614ec3565b95945050505050565b606083156144ed5750816125ad565b8251156144fd5782518084602001fd5b8160405162461bcd60e51b8152600401610d2e9190615112565b60606000614526836002614ea4565b614531906002614e46565b67ffffffffffffffff81111561454957614549614a4d565b6040519080825280601f01601f191660200182016040528015614573576020820181803683370190505b5090507f3000000000000000000000000000000000000000000000000000000000000000816000815181106145aa576145aa614ee5565b60200101906001600160f81b031916908160001a9053507f7800000000000000000000000000000000000000000000000000000000000000816001815181106145f5576145f5614ee5565b60200101906001600160f81b031916908160001a9053506000614619846002614ea4565b614624906001614e46565b90505b60018111156146a9577f303132333435363738396162636465660000000000000000000000000000000085600f166010811061466557614665614ee5565b1a60f81b82828151811061467b5761467b614ee5565b60200101906001600160f81b031916908160001a90535060049490941c936146a28161530b565b9050614627565b5083156125ad5760405162461bcd60e51b815260206004820181905260248201527f537472696e67733a20686578206c656e67746820696e73756666696369656e746044820152606401610d2e565b6000614708600a80546001019055565b600060405180606001604052806147208b89896133ca565b815260200188602001516001600160a01b03168152602001614741600a5490565b9052602080820180516001600160a01b039081166000908152600b90935260408084206001015492519091168352909120549192509061478b9061478490613f98565b88886133ca565b11156147c3576040517fb010931500000000000000000000000000000000000000000000000000000000815260040160405180910390fd5b80516020808301516001600160a01b03166000908152600b9091526040812060010180549091906147f5908490614e46565b90915550506020808201516001600160a01b03166000908152600b9091526040812080548b9290614827908490614e46565b9091555050805160058054600090614840908490614e46565b9250508190555088600c60008282546148599190614e46565b9250508190555060405180608001604052808a8152602001336001600160a01b0316815260200182602001516001600160a01b031681526020018967ffffffffffffffff1681525060096000836040015181526020019081526020016000206000820151816000015560208201518160010160006101000a8154816001600160a01b0302191690836001600160a01b0316021790555060408201518160020160006101000a8154816001600160a01b0302191690836001600160a01b031602179055506060820151816003015590505086602001516001600160a01b0316336001600160a01b031682604001517fb26a67c96199378f459c394f9a442f1a94d19837d1ac17c14e3d6366d98223088d8d866000015187602001518f8f604001518d8d60405161498f989796959493929190615322565b60405180910390a4604001519998505050505050505050565b6000602082840312156149ba57600080fd5b81356001600160e01b0319811681146125ad57600080fd5b6001600160a01b0381168114610d9d57600080fd5b6000602082840312156149f957600080fd5b81356125ad816149d2565b600060208284031215614a1657600080fd5b5035919050565b60008060408385031215614a3057600080fd5b823591506020830135614a42816149d2565b809150509250929050565b634e487b7160e01b600052604160045260246000fd5b6040516060810167ffffffffffffffff81118282101715614a8657614a86614a4d565b60405290565b604051601f8201601f1916810167ffffffffffffffff81118282101715614ab557614ab5614a4d565b604052919050565b8035600f81900b8114614acf57600080fd5b919050565b600060808284031215614ae657600080fd5b6040516080810181811067ffffffffffffffff82111715614b0957614b09614a4d565b6040528235614b17816149d2565b81526020830135614b27816149d2565b6020820152614b3860408401614abd565b6040820152614b4960608401614abd565b60608201529392505050565b803561ffff81168114614acf57600080fd5b600060208284031215614b7957600080fd5b6125ad82614b55565b60008083601f840112614b9457600080fd5b50813567ffffffffffffffff811115614bac57600080fd5b6020830191508360208260051b8501011115614bc757600080fd5b9250929050565b600080600080600060608688031215614be657600080fd5b8535614bf1816149d2565b9450602086013567ffffffffffffffff80821115614c0e57600080fd5b614c1a89838a01614b82565b90965094506040880135915080821115614c3357600080fd5b50614c4088828901614b82565b969995985093965092949392505050565b600080600060408486031215614c6657600080fd5b8335614c71816149d2565b9250602084013567ffffffffffffffff811115614c8d57600080fd5b614c9986828701614b82565b9497909650939450505050565b600060c08284031215614cb857600080fd5b50919050565b600060208284031215614cd057600080fd5b813567ffffffffffffffff811115614ce757600080fd5b614cf384828501614ca6565b949350505050565b6020808252825182820181905260009190848201906040850190845b81811015614d3357835183529284019291840191600101614d17565b50909695505050505050565b60008060408385031215614d5257600080fd5b82359150602083013567ffffffffffffffff811115614d7057600080fd5b614d7c85828601614ca6565b9150509250929050565b60008060008060808587031215614d9c57600080fd5b8435614da7816149d2565b966020860135965060408601359560600135945092505050565b600060208284031215614dd357600080fd5b81516125ad816149d2565b600060208284031215614df057600080fd5b815180151581146125ad57600080fd5b600060208284031215614e1257600080fd5b5051919050565b634e487b7160e01b600052601160045260246000fd5b600082821015614e4157614e41614e19565b500390565b60008219821115614e5957614e59614e19565b500190565b600061ffff83811690831681811015614e7957614e79614e19565b039392505050565b600060208284031215614e9357600080fd5b815160ff811681146125ad57600080fd5b6000816000190483118215151615614ebe57614ebe614e19565b500290565b600082614ee057634e487b7160e01b600052601260045260246000fd5b500490565b634e487b7160e01b600052603260045260246000fd5b6000600019821415614f0f57614f0f614e19565b5060010190565b600060208284031215614f2857600080fd5b813567ffffffffffffffff811681146125ad57600080fd5b6000808335601e19843603018112614f5757600080fd5b83018035915067ffffffffffffffff821115614f7257600080fd5b602001915036819003821315614bc757600080fd5b600067ffffffffffffffff808316818516808303821115614faa57614faa614e19565b01949350505050565b6000808335601e19843603018112614fca57600080fd5b83018035915067ffffffffffffffff821115614fe557600080fd5b6020019150600581901b3603821315614bc757600080fd5b600060ff821660ff81141561501457615014614e19565b60010192915050565b60005b83811015615038578181015183820152602001615020565b8381111561448d5750506000910152565b6000825161505b81846020870161501d565b9190910192915050565b7f416363657373436f6e74726f6c3a206163636f756e742000000000000000000081526000835161509d81601785016020880161501d565b7f206973206d697373696e6720726f6c652000000000000000000000000000000060179184019182015283516150da81602884016020880161501d565b01602801949350505050565b600081518084526150fe81602086016020860161501d565b601f01601f19169290920160200192915050565b6020815260006125ad60208301846150e6565b60008235605e1983360301811261505b57600080fd5b60006060823603121561514d57600080fd5b615155614a63565b61515e83614b55565b815260208084013561516f816149d2565b82820152604084013567ffffffffffffffff8082111561518e57600080fd5b9085019036601f8301126151a157600080fd5b8135818111156151b3576151b3614a4d565b6151c5601f8201601f19168501614a8c565b915080825236848285010111156151db57600080fd5b808484018584013760009082019093019290925250604082015292915050565b600061ffff808316818516808303821115614faa57614faa614e19565b600181815b8085111561525357816000190482111561523957615239614e19565b8085161561524657918102915b93841c939080029061521d565b509250929050565b60008261526a57506001610a54565b8161527757506000610a54565b816001811461528d5760028114615297576152b3565b6001915050610a54565b60ff8411156152a8576152a8614e19565b50506001821b610a54565b5060208310610133831016604e8410600b84101617156152d6575081810a610a54565b6152e08383615218565b80600019048211156152f4576152f4614e19565b029392505050565b60006125ad60ff84168361525b565b60008161531a5761531a614e19565b506000190190565b8881528760208201528660408201526001600160a01b038616606082015267ffffffffffffffff8516608082015260e060a0820152600061536660e08301866150e6565b82810360c0840152838152838560208301376000602085830101526020601f19601f860116820101915050999850505050505050505056fea264697066735822122067db7a707d6e781088d1ec391c13c78844a6370488f1a5eca731a1efb57d8d0064736f6c634300080a0033",
  "devdoc": {
    "kind": "dev",
    "methods": {
      "addPool((address,address,int128,int128))": {
        "params": {
          "_param": "Swap pool params"
        }
      },
      "claimYield(address)": {
        "params": {
          "_to": "Address that will receive the yield."
        }
      },
      "constructor": {
        "params": {
          "_admin": "Vault admin address",
          "_investPct": "Percentage of the total underlying to invest in the strategy",
          "_lossTolerancePct": "Loss tolerance when investing through the strategy",
          "_minLockPeriod": "Minimum lock period to deposit",
          "_perfFeePct": "Performance fee percentage",
          "_swapPools": "Swap pools used to automatically convert tokens to underlying",
          "_treasury": "Treasury address to collect performance fee",
          "_underlying": "Underlying ERC20 token to use."
        }
      },
      "deposit((address,uint64,uint256,(uint16,address,bytes)[],string,uint256))": {
        "params": {
          "_params": "Deposit params"
        }
      },
      "depositForGroupId(uint256,(address,uint64,uint256,(uint16,address,bytes)[],string,uint256))": {
        "params": {
          "_groupId": "The group id for the new deposit",
          "_params": "Deposit params"
        }
      },
      "exitPaused()": {
        "details": "Returns true if the contract is exitPaused, and false otherwise."
      },
      "forceWithdraw(address,uint256[])": {
        "params": {
          "_ids": "Array with the ids of the deposits.",
          "_to": "Address that will receive the funds."
        }
      },
      "getRoleAdmin(bytes32)": {
        "details": "Returns the admin role that controls `role`. See {grantRole} and {revokeRole}. To change a role's admin, use {_setRoleAdmin}."
      },
      "getUnderlying()": {
        "returns": {
          "_0": "The address of the vault's main underlying token"
        }
      },
      "grantRole(bytes32,address)": {
        "details": "Grants `role` to `account`. If `account` had not been already granted `role`, emits a {RoleGranted} event. Requirements: - the caller must have ``role``'s admin role. May emit a {RoleGranted} event."
      },
      "hasRole(bytes32,address)": {
        "details": "Returns `true` if `account` has been granted `role`."
      },
      "investState()": {
        "returns": {
          "alreadyInvested": "already invested amount",
          "maxInvestableAmount": "maximum investable amount"
        }
      },
      "partialUnsponsor(address,uint256[],uint256[])": {
        "params": {
          "_amounts": "Array with the amounts to withdraw.",
          "_ids": "Array with the ids of the deposits.",
          "_to": "Address that will receive the funds."
        }
      },
      "paused()": {
        "details": "Returns true if the contract is paused, and false otherwise."
      },
      "removePool(address)": {
        "params": {
          "_inputToken": "the token to remove"
        }
      },
      "renounceRole(bytes32,address)": {
        "details": "Revokes `role` from the calling account. Roles are often managed via {grantRole} and {revokeRole}: this function's purpose is to provide a mechanism for accounts to lose their privileges if they are compromised (such as when a trusted device is misplaced). If the calling account had been revoked `role`, emits a {RoleRevoked} event. Requirements: - the caller must be `account`. May emit a {RoleRevoked} event."
      },
      "revokeRole(bytes32,address)": {
        "details": "Revokes `role` from `account`. If `account` had been granted `role`, emits a {RoleRevoked} event. Requirements: - the caller must have ``role``'s admin role. May emit a {RoleRevoked} event."
      },
      "setInvestPct(uint16)": {
        "params": {
          "_investPct": "the new invest percentage"
        }
      },
      "setLossTolerancePct(uint16)": {
        "params": {
          "_pct": "the new investment fee estimated percentage."
        }
      },
      "setPerfFeePct(uint16)": {
        "params": {
          "_perfFeePct": "the new performance fee."
        }
      },
      "setStrategy(address)": {
        "params": {
          "_strategy": "the new strategy's address."
        }
      },
      "setTreasury(address)": {
        "params": {
          "_treasury": "the new strategy's address."
        }
      },
      "sponsor(address,uint256,uint256,uint256)": {
        "params": {
          "_amount": "Amount to sponsor.",
          "_inputToken": "The input token to deposit.",
          "_lockedUntil": "When the sponsor can unsponsor the amount."
        }
      },
      "totalUnderlyingMinusSponsored()": {
        "returns": {
          "_0": "Total amount of principal and yield help by the vault (not including sponsored amount and performance fee)."
        }
      },
      "transferAdminRights(address)": {
        "params": {
          "_newAdmin": "The new admin account."
        }
      },
      "unsponsor(address,uint256[])": {
        "params": {
          "_ids": "Array with the ids of the deposits.",
          "_to": "Address that will receive the funds."
        }
      },
      "withdraw(address,uint256[])": {
        "params": {
          "_ids": "Array with the ids of the deposits.",
          "_to": "Address that will receive the funds."
        }
      },
      "yieldFor(address)": {
        "params": {
          "_to": "address to consider."
        },
        "returns": {
          "claimableYield": "claimable yield for @param _to, share of generated yield by @param _to,      and performance fee from generated yield"
        }
      }
    },
    "version": 1
  },
  "userdoc": {
    "events": {
      "CurveSwapPoolAdded(address,address,int128,int128)": {
        "notice": "Emitted when a new swap pool is added"
      },
      "CurveSwapPoolRemoved(address)": {
        "notice": "Emitted when a swap pool is removed"
      },
      "Sponsored(uint256,uint256,address,uint256)": {
        "notice": "Emitted when a new sponsor deposit is created"
      },
      "Swap(address,address,uint256,uint256)": {
        "notice": "Emitted after every swap"
      },
      "Unsponsored(uint256,uint256,address,bool)": {
        "notice": "Emitted when an existing sponsor withdraws"
      }
    },
    "kind": "user",
    "methods": {
      "KEEPER_ROLE()": {
        "notice": "Role allowed to invest/desinvest from strategy"
      },
      "MAX_DEPOSIT_LOCK_DURATION()": {
        "notice": "Maximum lock for each deposit"
      },
      "MAX_SPONSOR_LOCK_DURATION()": {
        "notice": "Maximum lock for each sponsor"
      },
      "MIN_SPONSOR_LOCK_DURATION()": {
        "notice": "Minimum lock for each sponsor"
      },
      "SETTINGS_ROLE()": {
        "notice": "Role allowed to change settings such as performance fee and investment fee"
      },
      "SHARES_MULTIPLIER()": {
        "notice": "Helper constant for computing shares without losing precision"
      },
      "SPONSOR_ROLE()": {
        "notice": "Role for sponsors allowed to call sponsor/unsponsor"
      },
      "accumulatedPerfFee()": {
        "notice": "Current accumulated performance fee;"
      },
      "addPool((address,address,int128,int128))": {
        "notice": "Adds a new curve swap pool from an input token to {underlying}"
      },
      "claimYield(address)": {
        "notice": "Accumulate performance fee and transfers rest yield generated for the caller to"
      },
      "claimer(address)": {
        "notice": "claimer address => claimer data"
      },
      "deposit((address,uint64,uint256,(uint16,address,bytes)[],string,uint256))": {
        "notice": "Creates a new deposit"
      },
      "depositForGroupId(uint256,(address,uint64,uint256,(uint16,address,bytes)[],string,uint256))": {
        "notice": "Creates a new deposit using the specified group id"
      },
      "deposits(uint256)": {
        "notice": "deposit ID => deposit data"
      },
      "investPct()": {
        "notice": "Percentage of the total underlying to invest in the strategy"
      },
      "investState()": {
        "notice": "Calculate maximum investable amount and already invested amount"
      },
      "lossTolerancePct()": {
        "notice": "Loss tolerance pct"
      },
      "minLockPeriod()": {
        "notice": "Minimum lock period for each deposit"
      },
      "partialUnsponsor(address,uint256[],uint256[])": {
        "notice": "fails if there are not enough funds to withdraw the specified amounts."
      },
      "perfFeePct()": {
        "notice": "Performance fee percentage"
      },
      "removePool(address)": {
        "notice": "Removes an existing swap pool, and the ability to deposit the given token as underlying"
      },
      "setInvestPct(uint16)": {
        "notice": "Update invest percentage Emits {InvestPercentageUpdated} event"
      },
      "setLossTolerancePct(uint16)": {
        "notice": "Changes the estimated investment fee used by the strategy."
      },
      "setPerfFeePct(uint16)": {
        "notice": "Changes the performance fee used by the vault."
      },
      "setStrategy(address)": {
        "notice": "Changes the strategy used by the vault.if there is invested funds in previous strategy, it is not allowed to set new strategy."
      },
      "setTreasury(address)": {
        "notice": "Changes the treasury used by the vault."
      },
      "strategy()": {
        "notice": "The investment strategy"
      },
      "swappers(address)": {
        "notice": "token => curve pool (for trading token/underlying)"
      },
      "totalPrincipal()": {
        "notice": "The total of principal deposited"
      },
      "totalShares()": {
        "notice": "Total amount of shares"
      },
      "totalSponsored()": {
        "notice": "Total amount currently sponsored"
      },
      "totalUnderlying()": {
        "notice": "Total amount of underlying currently controlled by the vault and the its strategy."
      },
      "totalUnderlyingMinusSponsored()": {
        "notice": "Computes the total amount of principal + yield currently controlled by the vault and the strategy. The principal + yield is the total amount of underlying that can be claimed or withdrawn, excluding the sponsored amount and performance fee."
      },
      "transferAdminRights(address)": {
        "notice": "Transfers administrator rights for the Vault to another account, revoking all current admin's roles and setting up the roles for the new admin.Can only be called by the admin."
      },
      "treasury()": {
        "notice": "Treasury address to collect performance fee"
      },
      "underlying()": {
        "notice": "Underlying ERC20 token accepted by the vault"
      },
      "unsponsor(address,uint256[])": {
        "notice": "Withdraws the sponsored amount for the deposits with the ids provided"
      },
      "updateInvested()": {
        "notice": "Update the invested amount;"
      },
      "withdrawPerformanceFee()": {
        "notice": "Withdraws any pending performance fee amount back to the treasury"
      },
      "yieldFor(address)": {
        "notice": "Computes the amount of yield available for an an address."
      }
    },
    "notice": "A vault where other accounts can deposit an underlying token currency and set distribution params for their principal and yieldThe underlying token can be automatically swapped from any configured ERC20 token via {CurveSwapper}",
    "version": 1
  },
  "storageLayout": {
    "storage": [
      {
        "astId": 15490,
        "contract": "contracts/Vault.sol:Vault",
        "label": "swappers",
        "offset": 0,
        "slot": "0",
        "type": "t_mapping(t_address,t_struct(Swapper)15448_storage)"
      },
      {
        "astId": 1786,
        "contract": "contracts/Vault.sol:Vault",
        "label": "_roles",
        "offset": 0,
        "slot": "1",
        "type": "t_mapping(t_bytes32,t_struct(RoleData)1781_storage)"
      },
      {
        "astId": 2386,
        "contract": "contracts/Vault.sol:Vault",
        "label": "_status",
        "offset": 0,
        "slot": "2",
        "type": "t_uint256"
      },
      {
        "astId": 2285,
        "contract": "contracts/Vault.sol:Vault",
        "label": "_paused",
        "offset": 0,
        "slot": "3",
        "type": "t_bool"
      },
      {
        "astId": 11027,
        "contract": "contracts/Vault.sol:Vault",
        "label": "_exitPaused",
        "offset": 1,
        "slot": "3",
        "type": "t_bool"
      },
      {
        "astId": 5764,
        "contract": "contracts/Vault.sol:Vault",
        "label": "underlying",
        "offset": 2,
        "slot": "3",
        "type": "t_contract(IERC20Metadata)3104"
      },
      {
        "astId": 5769,
        "contract": "contracts/Vault.sol:Vault",
        "label": "investPct",
        "offset": 22,
        "slot": "3",
        "type": "t_uint16"
      },
      {
        "astId": 5779,
        "contract": "contracts/Vault.sol:Vault",
        "label": "totalSponsored",
        "offset": 0,
        "slot": "4",
        "type": "t_uint256"
      },
      {
        "astId": 5784,
        "contract": "contracts/Vault.sol:Vault",
        "label": "totalShares",
        "offset": 0,
        "slot": "5",
        "type": "t_uint256"
      },
      {
        "astId": 5788,
        "contract": "contracts/Vault.sol:Vault",
        "label": "strategy",
        "offset": 0,
        "slot": "6",
        "type": "t_contract(IStrategy)13987"
      },
      {
        "astId": 5791,
        "contract": "contracts/Vault.sol:Vault",
        "label": "_depositGroupIds",
        "offset": 0,
        "slot": "7",
        "type": "t_uint256"
      },
      {
        "astId": 5795,
        "contract": "contracts/Vault.sol:Vault",
        "label": "depositGroupIdOwner",
        "offset": 0,
        "slot": "8",
        "type": "t_mapping(t_uint256,t_address)"
      },
      {
        "astId": 5801,
        "contract": "contracts/Vault.sol:Vault",
        "label": "deposits",
        "offset": 0,
        "slot": "9",
        "type": "t_mapping(t_uint256,t_struct(Deposit)15923_storage)"
      },
      {
        "astId": 5805,
        "contract": "contracts/Vault.sol:Vault",
        "label": "_depositTokenIds",
        "offset": 0,
        "slot": "10",
        "type": "t_struct(Counter)4799_storage"
      },
      {
        "astId": 5811,
        "contract": "contracts/Vault.sol:Vault",
        "label": "claimer",
        "offset": 0,
        "slot": "11",
        "type": "t_mapping(t_address,t_struct(Claimer)15928_storage)"
      },
      {
        "astId": 5814,
        "contract": "contracts/Vault.sol:Vault",
        "label": "totalPrincipal",
        "offset": 0,
        "slot": "12",
        "type": "t_uint256"
      },
      {
        "astId": 5817,
        "contract": "contracts/Vault.sol:Vault",
        "label": "treasury",
        "offset": 0,
        "slot": "13",
        "type": "t_address"
      },
      {
        "astId": 5820,
        "contract": "contracts/Vault.sol:Vault",
        "label": "perfFeePct",
        "offset": 20,
        "slot": "13",
        "type": "t_uint16"
      },
      {
        "astId": 5823,
        "contract": "contracts/Vault.sol:Vault",
        "label": "accumulatedPerfFee",
        "offset": 0,
        "slot": "14",
        "type": "t_uint256"
      },
      {
        "astId": 5826,
        "contract": "contracts/Vault.sol:Vault",
        "label": "lossTolerancePct",
        "offset": 0,
        "slot": "15",
        "type": "t_uint16"
      }
    ],
    "types": {
      "t_address": {
        "encoding": "inplace",
        "label": "address",
        "numberOfBytes": "20"
      },
      "t_bool": {
        "encoding": "inplace",
        "label": "bool",
        "numberOfBytes": "1"
      },
      "t_bytes32": {
        "encoding": "inplace",
        "label": "bytes32",
        "numberOfBytes": "32"
      },
      "t_contract(ICurve)10790": {
        "encoding": "inplace",
        "label": "contract ICurve",
        "numberOfBytes": "20"
      },
      "t_contract(IERC20Metadata)3104": {
        "encoding": "inplace",
        "label": "contract IERC20Metadata",
        "numberOfBytes": "20"
      },
      "t_contract(IStrategy)13987": {
        "encoding": "inplace",
        "label": "contract IStrategy",
        "numberOfBytes": "20"
      },
      "t_int128": {
        "encoding": "inplace",
        "label": "int128",
        "numberOfBytes": "16"
      },
      "t_mapping(t_address,t_bool)": {
        "encoding": "mapping",
        "key": "t_address",
        "label": "mapping(address => bool)",
        "numberOfBytes": "32",
        "value": "t_bool"
      },
      "t_mapping(t_address,t_struct(Claimer)15928_storage)": {
        "encoding": "mapping",
        "key": "t_address",
        "label": "mapping(address => struct IVault.Claimer)",
        "numberOfBytes": "32",
        "value": "t_struct(Claimer)15928_storage"
      },
      "t_mapping(t_address,t_struct(Swapper)15448_storage)": {
        "encoding": "mapping",
        "key": "t_address",
        "label": "mapping(address => struct CurveSwapper.Swapper)",
        "numberOfBytes": "32",
        "value": "t_struct(Swapper)15448_storage"
      },
      "t_mapping(t_bytes32,t_struct(RoleData)1781_storage)": {
        "encoding": "mapping",
        "key": "t_bytes32",
        "label": "mapping(bytes32 => struct AccessControl.RoleData)",
        "numberOfBytes": "32",
        "value": "t_struct(RoleData)1781_storage"
      },
      "t_mapping(t_uint256,t_address)": {
        "encoding": "mapping",
        "key": "t_uint256",
        "label": "mapping(uint256 => address)",
        "numberOfBytes": "32",
        "value": "t_address"
      },
      "t_mapping(t_uint256,t_struct(Deposit)15923_storage)": {
        "encoding": "mapping",
        "key": "t_uint256",
        "label": "mapping(uint256 => struct IVault.Deposit)",
        "numberOfBytes": "32",
        "value": "t_struct(Deposit)15923_storage"
      },
      "t_struct(Claimer)15928_storage": {
        "encoding": "inplace",
        "label": "struct IVault.Claimer",
        "members": [
          {
            "astId": 15925,
            "contract": "contracts/Vault.sol:Vault",
            "label": "totalPrincipal",
            "offset": 0,
            "slot": "0",
            "type": "t_uint256"
          },
          {
            "astId": 15927,
            "contract": "contracts/Vault.sol:Vault",
            "label": "totalShares",
            "offset": 0,
            "slot": "1",
            "type": "t_uint256"
          }
        ],
        "numberOfBytes": "64"
      },
      "t_struct(Counter)4799_storage": {
        "encoding": "inplace",
        "label": "struct Counters.Counter",
        "members": [
          {
            "astId": 4798,
            "contract": "contracts/Vault.sol:Vault",
            "label": "_value",
            "offset": 0,
            "slot": "0",
            "type": "t_uint256"
          }
        ],
        "numberOfBytes": "32"
      },
      "t_struct(Deposit)15923_storage": {
        "encoding": "inplace",
        "label": "struct IVault.Deposit",
        "members": [
          {
            "astId": 15913,
            "contract": "contracts/Vault.sol:Vault",
            "label": "amount",
            "offset": 0,
            "slot": "0",
            "type": "t_uint256"
          },
          {
            "astId": 15916,
            "contract": "contracts/Vault.sol:Vault",
            "label": "owner",
            "offset": 0,
            "slot": "1",
            "type": "t_address"
          },
          {
            "astId": 15919,
            "contract": "contracts/Vault.sol:Vault",
            "label": "claimerId",
            "offset": 0,
            "slot": "2",
            "type": "t_address"
          },
          {
            "astId": 15922,
            "contract": "contracts/Vault.sol:Vault",
            "label": "lockedUntil",
            "offset": 0,
            "slot": "3",
            "type": "t_uint256"
          }
        ],
        "numberOfBytes": "128"
      },
      "t_struct(RoleData)1781_storage": {
        "encoding": "inplace",
        "label": "struct AccessControl.RoleData",
        "members": [
          {
            "astId": 1778,
            "contract": "contracts/Vault.sol:Vault",
            "label": "members",
            "offset": 0,
            "slot": "0",
            "type": "t_mapping(t_address,t_bool)"
          },
          {
            "astId": 1780,
            "contract": "contracts/Vault.sol:Vault",
            "label": "adminRole",
            "offset": 0,
            "slot": "1",
            "type": "t_bytes32"
          }
        ],
        "numberOfBytes": "64"
      },
      "t_struct(Swapper)15448_storage": {
        "encoding": "inplace",
        "label": "struct CurveSwapper.Swapper",
        "members": [
          {
            "astId": 15435,
            "contract": "contracts/Vault.sol:Vault",
            "label": "pool",
            "offset": 0,
            "slot": "0",
            "type": "t_contract(ICurve)10790"
          },
          {
            "astId": 15438,
            "contract": "contracts/Vault.sol:Vault",
            "label": "tokenDecimals",
            "offset": 20,
            "slot": "0",
            "type": "t_uint8"
          },
          {
            "astId": 15441,
            "contract": "contracts/Vault.sol:Vault",
            "label": "underlyingDecimals",
            "offset": 21,
            "slot": "0",
            "type": "t_uint8"
          },
          {
            "astId": 15444,
            "contract": "contracts/Vault.sol:Vault",
            "label": "tokenI",
            "offset": 0,
            "slot": "1",
            "type": "t_int128"
          },
          {
            "astId": 15447,
            "contract": "contracts/Vault.sol:Vault",
            "label": "underlyingI",
            "offset": 16,
            "slot": "1",
            "type": "t_int128"
          }
        ],
        "numberOfBytes": "64"
      },
      "t_uint16": {
        "encoding": "inplace",
        "label": "uint16",
        "numberOfBytes": "2"
      },
      "t_uint256": {
        "encoding": "inplace",
        "label": "uint256",
        "numberOfBytes": "32"
      },
      "t_uint8": {
        "encoding": "inplace",
        "label": "uint8",
        "numberOfBytes": "1"
      }
    }
  }
}