{
  "address": "0x4FE4BF4166744BcBc13C19d959722Ed4540d3f6a",
  "abi": [
    {
      "inputs": [
        {
          "internalType": "contract IERC20Metadata",
          "name": "_underlying",
          "type": "address"
        },
        {
          "internalType": "uint64",
          "name": "_minLockPeriod",
          "type": "uint64"
        },
        {
          "internalType": "uint16",
          "name": "_investPct",
          "type": "uint16"
        },
        {
          "internalType": "address",
          "name": "_treasury",
          "type": "address"
        },
        {
          "internalType": "address",
          "name": "_owner",
          "type": "address"
        },
        {
          "internalType": "uint16",
          "name": "_perfFeePct",
          "type": "uint16"
        },
        {
          "internalType": "uint16",
          "name": "_lossTolerancePct",
          "type": "uint16"
        },
        {
          "components": [
            {
              "internalType": "address",
              "name": "token",
              "type": "address"
            },
            {
              "internalType": "address",
              "name": "pool",
              "type": "address"
            },
            {
              "internalType": "int128",
              "name": "tokenI",
              "type": "int128"
            },
            {
              "internalType": "int128",
              "name": "underlyingI",
              "type": "int128"
            }
          ],
          "internalType": "struct CurveSwapper.SwapPoolParam[]",
          "name": "_swapPools",
          "type": "tuple[]"
        }
      ],
      "stateMutability": "nonpayable",
      "type": "constructor"
    },
    {
      "inputs": [],
      "name": "StrategyAdminCannotBe0Address",
      "type": "error"
    },
    {
      "inputs": [],
      "name": "StrategyAmountZero",
      "type": "error"
    },
    {
      "inputs": [],
      "name": "StrategyCallerNotAdmin",
      "type": "error"
    },
    {
      "inputs": [],
      "name": "StrategyCallerNotManager",
      "type": "error"
    },
    {
      "inputs": [],
      "name": "StrategyCallerNotSettings",
      "type": "error"
    },
    {
      "inputs": [],
      "name": "StrategyCannotTransferAdminRightsToSelf",
      "type": "error"
    },
    {
      "inputs": [],
      "name": "StrategyNoUnderlying",
      "type": "error"
    },
    {
      "inputs": [],
      "name": "StrategyNotEnoughShares",
      "type": "error"
    },
    {
      "inputs": [],
      "name": "StrategyNotIVault",
      "type": "error"
    },
    {
      "inputs": [],
      "name": "StrategyNotRunning",
      "type": "error"
    },
    {
      "inputs": [],
      "name": "StrategyUnderlyingCannotBe0Address",
      "type": "error"
    },
    {
      "inputs": [],
      "name": "VaultAmountDoesNotMatchParams",
      "type": "error"
    },
    {
      "inputs": [],
      "name": "VaultAmountLocked",
      "type": "error"
    },
    {
      "inputs": [],
      "name": "VaultCannotComputeSharesWithoutPrincipal",
      "type": "error"
    },
    {
      "inputs": [],
      "name": "VaultCannotDeposit0",
      "type": "error"
    },
    {
      "inputs": [],
      "name": "VaultCannotDepositWhenClaimerInDebt",
      "type": "error"
    },
    {
      "inputs": [],
      "name": "VaultCannotDepositWhenYieldNegative",
      "type": "error"
    },
    {
      "inputs": [],
      "name": "VaultCannotSponsor0",
      "type": "error"
    },
    {
      "inputs": [],
      "name": "VaultCannotTransferOwnershipToSelf",
      "type": "error"
    },
    {
      "inputs": [],
      "name": "VaultCannotWithdrawMoreThanAvailable",
      "type": "error"
    },
    {
      "inputs": [],
      "name": "VaultCannotWithdrawWhenYieldNegative",
      "type": "error"
    },
    {
      "inputs": [],
      "name": "VaultClaimPercentageCannotBe0",
      "type": "error"
    },
    {
      "inputs": [],
      "name": "VaultClaimerCannotBe0",
      "type": "error"
    },
    {
      "inputs": [],
      "name": "VaultClaimsDontAddUp",
      "type": "error"
    },
    {
      "inputs": [],
      "name": "VaultDepositLocked",
      "type": "error"
    },
    {
      "inputs": [],
      "name": "VaultDepositNameTooShort",
      "type": "error"
    },
    {
      "inputs": [],
      "name": "VaultDestinationCannotBe0Address",
      "type": "error"
    },
    {
      "inputs": [],
      "name": "VaultInvalidInvestpct",
      "type": "error"
    },
    {
      "inputs": [],
      "name": "VaultInvalidLockPeriod",
      "type": "error"
    },
    {
      "inputs": [],
      "name": "VaultInvalidLossTolerance",
      "type": "error"
    },
    {
      "inputs": [],
      "name": "VaultInvalidMinLockPeriod",
      "type": "error"
    },
    {
      "inputs": [],
      "name": "VaultInvalidPerformanceFee",
      "type": "error"
    },
    {
      "inputs": [],
      "name": "VaultInvalidVault",
      "type": "error"
    },
    {
      "inputs": [],
      "name": "VaultNoPerformanceFee",
      "type": "error"
    },
    {
      "inputs": [],
      "name": "VaultNoYieldToClaim",
      "type": "error"
    },
    {
      "inputs": [],
      "name": "VaultNotAllowed",
      "type": "error"
    },
    {
      "inputs": [],
      "name": "VaultNotDeposit",
      "type": "error"
    },
    {
      "inputs": [],
      "name": "VaultNotEnoughFunds",
      "type": "error"
    },
    {
      "inputs": [],
      "name": "VaultNotEnoughToRebalance",
      "type": "error"
    },
    {
      "inputs": [],
      "name": "VaultNotOwnerOfDeposit",
      "type": "error"
    },
    {
      "inputs": [],
      "name": "VaultNotSponsor",
      "type": "error"
    },
    {
      "inputs": [],
      "name": "VaultNothingToDo",
      "type": "error"
    },
    {
      "inputs": [],
      "name": "VaultOwnerCannotBe0Address",
      "type": "error"
    },
    {
      "inputs": [],
      "name": "VaultSenderNotOwnerOfGroupId",
      "type": "error"
    },
    {
      "inputs": [],
      "name": "VaultStrategyHasInvestedFunds",
      "type": "error"
    },
    {
      "inputs": [],
      "name": "VaultStrategyNotSet",
      "type": "error"
    },
    {
      "inputs": [],
      "name": "VaultTreasuryCannotBe0Address",
      "type": "error"
    },
    {
      "inputs": [],
      "name": "VaultUnderlyingCannotBe0Address",
      "type": "error"
    },
    {
      "anonymous": false,
      "inputs": [
        {
          "indexed": true,
          "internalType": "address",
          "name": "token",
          "type": "address"
        },
        {
          "indexed": true,
          "internalType": "address",
          "name": "pool",
          "type": "address"
        },
        {
          "indexed": false,
          "internalType": "int128",
          "name": "tokenI",
          "type": "int128"
        },
        {
          "indexed": false,
          "internalType": "int128",
          "name": "underlyingI",
          "type": "int128"
        }
      ],
      "name": "CurveSwapPoolAdded",
      "type": "event"
    },
    {
      "anonymous": false,
      "inputs": [
        {
          "indexed": true,
          "internalType": "address",
          "name": "token",
          "type": "address"
        }
      ],
      "name": "CurveSwapPoolRemoved",
      "type": "event"
    },
    {
      "anonymous": false,
      "inputs": [
        {
          "indexed": true,
          "internalType": "uint256",
          "name": "id",
          "type": "uint256"
        },
        {
          "indexed": false,
          "internalType": "uint256",
          "name": "groupId",
          "type": "uint256"
        },
        {
          "indexed": false,
          "internalType": "uint256",
          "name": "amount",
          "type": "uint256"
        },
        {
          "indexed": false,
          "internalType": "uint256",
          "name": "shares",
          "type": "uint256"
        },
        {
          "indexed": true,
          "internalType": "address",
          "name": "depositor",
          "type": "address"
        },
        {
          "indexed": true,
          "internalType": "address",
          "name": "claimer",
          "type": "address"
        },
        {
          "indexed": false,
          "internalType": "address",
          "name": "claimerId",
          "type": "address"
        },
        {
          "indexed": false,
          "internalType": "uint64",
          "name": "lockedUntil",
          "type": "uint64"
        },
        {
          "indexed": false,
          "internalType": "bytes",
          "name": "data",
          "type": "bytes"
        },
        {
          "indexed": false,
          "internalType": "string",
          "name": "name",
          "type": "string"
        }
      ],
      "name": "DepositMinted",
      "type": "event"
    },
    {
      "anonymous": false,
      "inputs": [
        {
          "indexed": true,
          "internalType": "uint256",
          "name": "id",
          "type": "uint256"
        },
        {
          "indexed": false,
          "internalType": "uint256",
          "name": "shares",
          "type": "uint256"
        },
        {
          "indexed": false,
          "internalType": "uint256",
          "name": "amount",
          "type": "uint256"
        },
        {
          "indexed": true,
          "internalType": "address",
          "name": "to",
          "type": "address"
        },
        {
          "indexed": false,
          "internalType": "bool",
          "name": "burned",
          "type": "bool"
        }
      ],
      "name": "DepositWithdrawn",
      "type": "event"
    },
    {
      "anonymous": false,
      "inputs": [
        {
          "indexed": false,
          "internalType": "uint256",
          "name": "amount",
          "type": "uint256"
        }
      ],
      "name": "Disinvested",
      "type": "event"
    },
    {
      "anonymous": false,
      "inputs": [
        {
          "indexed": false,
          "internalType": "address",
          "name": "account",
          "type": "address"
        }
      ],
      "name": "ExitPaused",
      "type": "event"
    },
    {
      "anonymous": false,
      "inputs": [
        {
          "indexed": false,
          "internalType": "address",
          "name": "account",
          "type": "address"
        }
      ],
      "name": "ExitUnpaused",
      "type": "event"
    },
    {
      "anonymous": false,
      "inputs": [
        {
          "indexed": false,
          "internalType": "uint256",
          "name": "amount",
          "type": "uint256"
        }
      ],
      "name": "FeeWithdrawn",
      "type": "event"
    },
    {
      "anonymous": false,
      "inputs": [
        {
          "indexed": false,
          "internalType": "uint256",
          "name": "percentage",
          "type": "uint256"
        }
      ],
      "name": "InvestPctUpdated",
      "type": "event"
    },
    {
      "anonymous": false,
      "inputs": [
        {
          "indexed": false,
          "internalType": "uint256",
          "name": "amount",
          "type": "uint256"
        }
      ],
      "name": "Invested",
      "type": "event"
    },
    {
      "anonymous": false,
      "inputs": [
        {
          "indexed": false,
          "internalType": "uint16",
          "name": "pct",
          "type": "uint16"
        }
      ],
      "name": "LossTolerancePctUpdated",
      "type": "event"
    },
    {
      "anonymous": false,
      "inputs": [
        {
          "indexed": true,
          "internalType": "address",
          "name": "previousOwner",
          "type": "address"
        },
        {
          "indexed": true,
          "internalType": "address",
          "name": "newOwner",
          "type": "address"
        }
      ],
      "name": "OwnershipTransferred",
      "type": "event"
    },
    {
      "anonymous": false,
      "inputs": [
        {
          "indexed": false,
          "internalType": "address",
          "name": "account",
          "type": "address"
        }
      ],
      "name": "Paused",
      "type": "event"
    },
    {
      "anonymous": false,
      "inputs": [
        {
          "indexed": false,
          "internalType": "uint16",
          "name": "pct",
          "type": "uint16"
        }
      ],
      "name": "PerfFeePctUpdated",
      "type": "event"
    },
    {
      "anonymous": false,
      "inputs": [
        {
          "indexed": true,
          "internalType": "bytes32",
          "name": "role",
          "type": "bytes32"
        },
        {
          "indexed": true,
          "internalType": "bytes32",
          "name": "previousAdminRole",
          "type": "bytes32"
        },
        {
          "indexed": true,
          "internalType": "bytes32",
          "name": "newAdminRole",
          "type": "bytes32"
        }
      ],
      "name": "RoleAdminChanged",
      "type": "event"
    },
    {
      "anonymous": false,
      "inputs": [
        {
          "indexed": true,
          "internalType": "bytes32",
          "name": "role",
          "type": "bytes32"
        },
        {
          "indexed": true,
          "internalType": "address",
          "name": "account",
          "type": "address"
        },
        {
          "indexed": true,
          "internalType": "address",
          "name": "sender",
          "type": "address"
        }
      ],
      "name": "RoleGranted",
      "type": "event"
    },
    {
      "anonymous": false,
      "inputs": [
        {
          "indexed": true,
          "internalType": "bytes32",
          "name": "role",
          "type": "bytes32"
        },
        {
          "indexed": true,
          "internalType": "address",
          "name": "account",
          "type": "address"
        },
        {
          "indexed": true,
          "internalType": "address",
          "name": "sender",
          "type": "address"
        }
      ],
      "name": "RoleRevoked",
      "type": "event"
    },
    {
      "anonymous": false,
      "inputs": [
        {
          "indexed": true,
          "internalType": "uint256",
          "name": "id",
          "type": "uint256"
        },
        {
          "indexed": false,
          "internalType": "uint256",
          "name": "amount",
          "type": "uint256"
        },
        {
          "indexed": true,
          "internalType": "address",
          "name": "depositor",
          "type": "address"
        },
        {
          "indexed": false,
          "internalType": "uint256",
          "name": "lockedUntil",
          "type": "uint256"
        }
      ],
      "name": "Sponsored",
      "type": "event"
    },
    {
      "anonymous": false,
      "inputs": [
        {
          "indexed": true,
          "internalType": "address",
          "name": "strategy",
          "type": "address"
        }
      ],
      "name": "StrategyUpdated",
      "type": "event"
    },
    {
      "anonymous": false,
      "inputs": [
        {
          "indexed": true,
          "internalType": "address",
          "name": "fromToken",
          "type": "address"
        },
        {
          "indexed": true,
          "internalType": "address",
          "name": "toToken",
          "type": "address"
        },
        {
          "indexed": false,
          "internalType": "uint256",
          "name": "fromAmount",
          "type": "uint256"
        },
        {
          "indexed": false,
          "internalType": "uint256",
          "name": "toAmount",
          "type": "uint256"
        }
      ],
      "name": "Swap",
      "type": "event"
    },
    {
      "anonymous": false,
      "inputs": [
        {
          "indexed": true,
          "internalType": "address",
          "name": "treasury",
          "type": "address"
        }
      ],
      "name": "TreasuryUpdated",
      "type": "event"
    },
    {
      "anonymous": false,
      "inputs": [
        {
          "indexed": false,
          "internalType": "address",
          "name": "account",
          "type": "address"
        }
      ],
      "name": "Unpaused",
      "type": "event"
    },
    {
      "anonymous": false,
      "inputs": [
        {
          "indexed": true,
          "internalType": "uint256",
          "name": "id",
          "type": "uint256"
        }
      ],
      "name": "Unsponsored",
      "type": "event"
    },
    {
      "anonymous": false,
      "inputs": [
        {
          "indexed": false,
          "internalType": "address",
          "name": "claimerId",
          "type": "address"
        },
        {
          "indexed": true,
          "internalType": "address",
          "name": "to",
          "type": "address"
        },
        {
          "indexed": false,
          "internalType": "uint256",
          "name": "amount",
          "type": "uint256"
        },
        {
          "indexed": false,
          "internalType": "uint256",
          "name": "burnedShares",
          "type": "uint256"
        },
        {
          "indexed": false,
          "internalType": "uint256",
          "name": "perfFee",
          "type": "uint256"
        },
        {
          "indexed": false,
          "internalType": "uint256",
          "name": "totalUnderlying",
          "type": "uint256"
        },
        {
          "indexed": false,
          "internalType": "uint256",
          "name": "totalShares",
          "type": "uint256"
        }
      ],
      "name": "YieldClaimed",
      "type": "event"
    },
    {
      "inputs": [],
      "name": "DEFAULT_ADMIN_ROLE",
      "outputs": [
        {
          "internalType": "bytes32",
          "name": "",
          "type": "bytes32"
        }
      ],
      "stateMutability": "view",
      "type": "function"
    },
    {
      "inputs": [],
      "name": "INVESTOR_ROLE",
      "outputs": [
        {
          "internalType": "bytes32",
          "name": "",
          "type": "bytes32"
        }
      ],
      "stateMutability": "view",
      "type": "function"
    },
    {
      "inputs": [],
      "name": "MAX_DEPOSIT_LOCK_DURATION",
      "outputs": [
        {
          "internalType": "uint64",
          "name": "",
          "type": "uint64"
        }
      ],
      "stateMutability": "view",
      "type": "function"
    },
    {
      "inputs": [],
      "name": "MAX_SPONSOR_LOCK_DURATION",
      "outputs": [
        {
          "internalType": "uint64",
          "name": "",
          "type": "uint64"
        }
      ],
      "stateMutability": "view",
      "type": "function"
    },
    {
      "inputs": [],
      "name": "MIN_SPONSOR_LOCK_DURATION",
      "outputs": [
        {
          "internalType": "uint64",
          "name": "",
          "type": "uint64"
        }
      ],
      "stateMutability": "view",
      "type": "function"
    },
    {
      "inputs": [],
      "name": "SETTINGS_ROLE",
      "outputs": [
        {
          "internalType": "bytes32",
          "name": "",
          "type": "bytes32"
        }
      ],
      "stateMutability": "view",
      "type": "function"
    },
    {
      "inputs": [],
      "name": "SHARES_MULTIPLIER",
      "outputs": [
        {
          "internalType": "uint256",
          "name": "",
          "type": "uint256"
        }
      ],
      "stateMutability": "view",
      "type": "function"
    },
    {
      "inputs": [],
      "name": "SPONSOR_ROLE",
      "outputs": [
        {
          "internalType": "bytes32",
          "name": "",
          "type": "bytes32"
        }
      ],
      "stateMutability": "view",
      "type": "function"
    },
    {
      "inputs": [],
      "name": "accumulatedPerfFee",
      "outputs": [
        {
          "internalType": "uint256",
          "name": "",
          "type": "uint256"
        }
      ],
      "stateMutability": "view",
      "type": "function"
    },
    {
      "inputs": [
        {
          "components": [
            {
              "internalType": "address",
              "name": "token",
              "type": "address"
            },
            {
              "internalType": "address",
              "name": "pool",
              "type": "address"
            },
            {
              "internalType": "int128",
              "name": "tokenI",
              "type": "int128"
            },
            {
              "internalType": "int128",
              "name": "underlyingI",
              "type": "int128"
            }
          ],
          "internalType": "struct CurveSwapper.SwapPoolParam",
          "name": "_param",
          "type": "tuple"
        }
      ],
      "name": "addPool",
      "outputs": [],
      "stateMutability": "nonpayable",
      "type": "function"
    },
    {
      "inputs": [
        {
          "internalType": "address",
          "name": "_to",
          "type": "address"
        }
      ],
      "name": "claimYield",
      "outputs": [],
      "stateMutability": "nonpayable",
      "type": "function"
    },
    {
      "inputs": [
        {
          "internalType": "address",
          "name": "",
          "type": "address"
        }
      ],
      "name": "claimer",
      "outputs": [
        {
          "internalType": "uint256",
          "name": "totalPrincipal",
          "type": "uint256"
        },
        {
          "internalType": "uint256",
          "name": "totalShares",
          "type": "uint256"
        }
      ],
      "stateMutability": "view",
      "type": "function"
    },
    {
      "inputs": [
        {
          "components": [
            {
              "internalType": "address",
              "name": "inputToken",
              "type": "address"
            },
            {
              "internalType": "uint64",
              "name": "lockDuration",
              "type": "uint64"
            },
            {
              "internalType": "uint256",
              "name": "amount",
              "type": "uint256"
            },
            {
              "components": [
                {
                  "internalType": "uint16",
                  "name": "pct",
                  "type": "uint16"
                },
                {
                  "internalType": "address",
                  "name": "beneficiary",
                  "type": "address"
                },
                {
                  "internalType": "bytes",
                  "name": "data",
                  "type": "bytes"
                }
              ],
              "internalType": "struct IVault.ClaimParams[]",
              "name": "claims",
              "type": "tuple[]"
            },
            {
              "internalType": "string",
              "name": "name",
              "type": "string"
            },
            {
              "internalType": "uint256",
              "name": "slippage",
              "type": "uint256"
            }
          ],
          "internalType": "struct IVault.DepositParams",
          "name": "_params",
          "type": "tuple"
        }
      ],
      "name": "deposit",
      "outputs": [
        {
          "internalType": "uint256[]",
          "name": "depositIds",
          "type": "uint256[]"
        }
      ],
      "stateMutability": "nonpayable",
      "type": "function"
    },
    {
      "inputs": [
        {
          "internalType": "uint256",
          "name": "_groupId",
          "type": "uint256"
        },
        {
          "components": [
            {
              "internalType": "address",
              "name": "inputToken",
              "type": "address"
            },
            {
              "internalType": "uint64",
              "name": "lockDuration",
              "type": "uint64"
            },
            {
              "internalType": "uint256",
              "name": "amount",
              "type": "uint256"
            },
            {
              "components": [
                {
                  "internalType": "uint16",
                  "name": "pct",
                  "type": "uint16"
                },
                {
                  "internalType": "address",
                  "name": "beneficiary",
                  "type": "address"
                },
                {
                  "internalType": "bytes",
                  "name": "data",
                  "type": "bytes"
                }
              ],
              "internalType": "struct IVault.ClaimParams[]",
              "name": "claims",
              "type": "tuple[]"
            },
            {
              "internalType": "string",
              "name": "name",
              "type": "string"
            },
            {
              "internalType": "uint256",
              "name": "slippage",
              "type": "uint256"
            }
          ],
          "internalType": "struct IVault.DepositParams",
          "name": "_params",
          "type": "tuple"
        }
      ],
      "name": "depositForGroupId",
      "outputs": [
        {
          "internalType": "uint256[]",
          "name": "depositIds",
          "type": "uint256[]"
        }
      ],
      "stateMutability": "nonpayable",
      "type": "function"
    },
    {
      "inputs": [
        {
          "internalType": "uint256",
          "name": "",
          "type": "uint256"
        }
      ],
      "name": "depositGroupIdOwner",
      "outputs": [
        {
          "internalType": "address",
          "name": "",
          "type": "address"
        }
      ],
      "stateMutability": "view",
      "type": "function"
    },
    {
      "inputs": [
        {
          "internalType": "uint256",
          "name": "",
          "type": "uint256"
        }
      ],
      "name": "deposits",
      "outputs": [
        {
          "internalType": "uint256",
          "name": "amount",
          "type": "uint256"
        },
        {
          "internalType": "address",
          "name": "owner",
          "type": "address"
        },
        {
          "internalType": "address",
          "name": "claimerId",
          "type": "address"
        },
        {
          "internalType": "uint256",
          "name": "lockedUntil",
          "type": "uint256"
        }
      ],
      "stateMutability": "view",
      "type": "function"
    },
    {
      "inputs": [],
      "name": "exitPause",
      "outputs": [],
      "stateMutability": "nonpayable",
      "type": "function"
    },
    {
      "inputs": [],
      "name": "exitPaused",
      "outputs": [
        {
          "internalType": "bool",
          "name": "",
          "type": "bool"
        }
      ],
      "stateMutability": "view",
      "type": "function"
    },
    {
      "inputs": [],
      "name": "exitUnpause",
      "outputs": [],
      "stateMutability": "nonpayable",
      "type": "function"
    },
    {
      "inputs": [
        {
          "internalType": "address",
          "name": "_to",
          "type": "address"
        },
        {
          "internalType": "uint256[]",
          "name": "_ids",
          "type": "uint256[]"
        }
      ],
      "name": "forceWithdraw",
      "outputs": [],
      "stateMutability": "nonpayable",
      "type": "function"
    },
    {
      "inputs": [
        {
          "internalType": "bytes32",
          "name": "role",
          "type": "bytes32"
        }
      ],
      "name": "getRoleAdmin",
      "outputs": [
        {
          "internalType": "bytes32",
          "name": "",
          "type": "bytes32"
        }
      ],
      "stateMutability": "view",
      "type": "function"
    },
    {
      "inputs": [],
      "name": "getUnderlying",
      "outputs": [
        {
          "internalType": "address",
          "name": "",
          "type": "address"
        }
      ],
      "stateMutability": "view",
      "type": "function"
    },
    {
      "inputs": [
        {
          "internalType": "bytes32",
          "name": "role",
          "type": "bytes32"
        },
        {
          "internalType": "address",
          "name": "account",
          "type": "address"
        }
      ],
      "name": "grantRole",
      "outputs": [],
      "stateMutability": "nonpayable",
      "type": "function"
    },
    {
      "inputs": [
        {
          "internalType": "bytes32",
          "name": "role",
          "type": "bytes32"
        },
        {
          "internalType": "address",
          "name": "account",
          "type": "address"
        }
      ],
      "name": "hasRole",
      "outputs": [
        {
          "internalType": "bool",
          "name": "",
          "type": "bool"
        }
      ],
      "stateMutability": "view",
      "type": "function"
    },
    {
      "inputs": [],
      "name": "investPct",
      "outputs": [
        {
          "internalType": "uint16",
          "name": "",
          "type": "uint16"
        }
      ],
      "stateMutability": "view",
      "type": "function"
    },
    {
      "inputs": [],
      "name": "investState",
      "outputs": [
        {
          "internalType": "uint256",
          "name": "maxInvestableAmount",
          "type": "uint256"
        },
        {
          "internalType": "uint256",
          "name": "alreadyInvested",
          "type": "uint256"
        }
      ],
      "stateMutability": "view",
      "type": "function"
    },
    {
      "inputs": [],
      "name": "lossTolerancePct",
      "outputs": [
        {
          "internalType": "uint16",
          "name": "",
          "type": "uint16"
        }
      ],
      "stateMutability": "view",
      "type": "function"
    },
    {
      "inputs": [],
      "name": "minLockPeriod",
      "outputs": [
        {
          "internalType": "uint64",
          "name": "",
          "type": "uint64"
        }
      ],
      "stateMutability": "view",
      "type": "function"
    },
    {
      "inputs": [],
      "name": "owner",
      "outputs": [
        {
          "internalType": "address",
          "name": "",
          "type": "address"
        }
      ],
      "stateMutability": "view",
      "type": "function"
    },
    {
      "inputs": [
        {
          "internalType": "address",
          "name": "_to",
          "type": "address"
        },
        {
          "internalType": "uint256[]",
          "name": "_ids",
          "type": "uint256[]"
        },
        {
          "internalType": "uint256[]",
          "name": "_amounts",
          "type": "uint256[]"
        }
      ],
      "name": "partialWithdraw",
      "outputs": [],
      "stateMutability": "nonpayable",
      "type": "function"
    },
    {
      "inputs": [],
      "name": "pause",
      "outputs": [],
      "stateMutability": "nonpayable",
      "type": "function"
    },
    {
      "inputs": [],
      "name": "paused",
      "outputs": [
        {
          "internalType": "bool",
          "name": "",
          "type": "bool"
        }
      ],
      "stateMutability": "view",
      "type": "function"
    },
    {
      "inputs": [],
      "name": "perfFeePct",
      "outputs": [
        {
          "internalType": "uint16",
          "name": "",
          "type": "uint16"
        }
      ],
      "stateMutability": "view",
      "type": "function"
    },
    {
      "inputs": [
        {
          "internalType": "address",
          "name": "claimerId",
          "type": "address"
        }
      ],
      "name": "principalOf",
      "outputs": [
        {
          "internalType": "uint256",
          "name": "",
          "type": "uint256"
        }
      ],
      "stateMutability": "view",
      "type": "function"
    },
    {
      "inputs": [
        {
          "internalType": "address",
          "name": "_inputToken",
          "type": "address"
        }
      ],
      "name": "removePool",
      "outputs": [],
      "stateMutability": "nonpayable",
      "type": "function"
    },
    {
      "inputs": [],
      "name": "renounceOwnership",
      "outputs": [],
      "stateMutability": "nonpayable",
      "type": "function"
    },
    {
      "inputs": [
        {
          "internalType": "bytes32",
          "name": "role",
          "type": "bytes32"
        },
        {
          "internalType": "address",
          "name": "account",
          "type": "address"
        }
      ],
      "name": "renounceRole",
      "outputs": [],
      "stateMutability": "nonpayable",
      "type": "function"
    },
    {
      "inputs": [
        {
          "internalType": "bytes32",
          "name": "role",
          "type": "bytes32"
        },
        {
          "internalType": "address",
          "name": "account",
          "type": "address"
        }
      ],
      "name": "revokeRole",
      "outputs": [],
      "stateMutability": "nonpayable",
      "type": "function"
    },
    {
      "inputs": [
        {
          "internalType": "uint16",
          "name": "_investPct",
          "type": "uint16"
        }
      ],
      "name": "setInvestPct",
      "outputs": [],
      "stateMutability": "nonpayable",
      "type": "function"
    },
    {
      "inputs": [
        {
          "internalType": "uint16",
          "name": "pct",
          "type": "uint16"
        }
      ],
      "name": "setLossTolerancePct",
      "outputs": [],
      "stateMutability": "nonpayable",
      "type": "function"
    },
    {
      "inputs": [
        {
          "internalType": "uint16",
          "name": "_perfFeePct",
          "type": "uint16"
        }
      ],
      "name": "setPerfFeePct",
      "outputs": [],
      "stateMutability": "nonpayable",
      "type": "function"
    },
    {
      "inputs": [
        {
          "internalType": "address",
          "name": "_strategy",
          "type": "address"
        }
      ],
      "name": "setStrategy",
      "outputs": [],
      "stateMutability": "nonpayable",
      "type": "function"
    },
    {
      "inputs": [
        {
          "internalType": "address",
          "name": "_treasury",
          "type": "address"
        }
      ],
      "name": "setTreasury",
      "outputs": [],
      "stateMutability": "nonpayable",
      "type": "function"
    },
    {
      "inputs": [
        {
          "internalType": "address",
          "name": "claimerId",
          "type": "address"
        }
      ],
      "name": "sharesOf",
      "outputs": [
        {
          "internalType": "uint256",
          "name": "",
          "type": "uint256"
        }
      ],
      "stateMutability": "view",
      "type": "function"
    },
    {
      "inputs": [
        {
          "internalType": "address",
          "name": "_inputToken",
          "type": "address"
        },
        {
          "internalType": "uint256",
          "name": "_amount",
          "type": "uint256"
        },
        {
          "internalType": "uint256",
          "name": "_lockDuration",
          "type": "uint256"
        },
        {
          "internalType": "uint256",
          "name": "_slippage",
          "type": "uint256"
        }
      ],
      "name": "sponsor",
      "outputs": [],
      "stateMutability": "nonpayable",
      "type": "function"
    },
    {
      "inputs": [],
      "name": "strategy",
      "outputs": [
        {
          "internalType": "contract IStrategy",
          "name": "",
          "type": "address"
        }
      ],
      "stateMutability": "view",
      "type": "function"
    },
    {
      "inputs": [
        {
          "internalType": "bytes4",
          "name": "interfaceId",
          "type": "bytes4"
        }
      ],
      "name": "supportsInterface",
      "outputs": [
        {
          "internalType": "bool",
          "name": "",
          "type": "bool"
        }
      ],
      "stateMutability": "view",
      "type": "function"
    },
    {
      "inputs": [
        {
          "internalType": "address",
          "name": "",
          "type": "address"
        }
      ],
      "name": "swappers",
      "outputs": [
        {
          "internalType": "contract ICurve",
          "name": "pool",
          "type": "address"
        },
        {
          "internalType": "uint8",
          "name": "tokenDecimals",
          "type": "uint8"
        },
        {
          "internalType": "uint8",
          "name": "underlyingDecimals",
          "type": "uint8"
        },
        {
          "internalType": "int128",
          "name": "tokenI",
          "type": "int128"
        },
        {
          "internalType": "int128",
          "name": "underlyingI",
          "type": "int128"
        }
      ],
      "stateMutability": "view",
      "type": "function"
    },
    {
      "inputs": [],
      "name": "totalPrincipal",
      "outputs": [
        {
          "internalType": "uint256",
          "name": "",
          "type": "uint256"
        }
      ],
      "stateMutability": "view",
      "type": "function"
    },
    {
      "inputs": [],
      "name": "totalShares",
      "outputs": [
        {
          "internalType": "uint256",
          "name": "",
          "type": "uint256"
        }
      ],
      "stateMutability": "view",
      "type": "function"
    },
    {
      "inputs": [],
      "name": "totalSponsored",
      "outputs": [
        {
          "internalType": "uint256",
          "name": "",
          "type": "uint256"
        }
      ],
      "stateMutability": "view",
      "type": "function"
    },
    {
      "inputs": [],
      "name": "totalUnderlying",
      "outputs": [
        {
          "internalType": "uint256",
          "name": "",
          "type": "uint256"
        }
      ],
      "stateMutability": "view",
      "type": "function"
    },
    {
      "inputs": [],
      "name": "totalUnderlyingMinusSponsored",
      "outputs": [
        {
          "internalType": "uint256",
          "name": "",
          "type": "uint256"
        }
      ],
      "stateMutability": "view",
      "type": "function"
    },
    {
      "inputs": [
        {
          "internalType": "address",
          "name": "_newOwner",
          "type": "address"
        }
      ],
      "name": "transferOwnership",
      "outputs": [],
      "stateMutability": "nonpayable",
      "type": "function"
    },
    {
      "inputs": [],
      "name": "treasury",
      "outputs": [
        {
          "internalType": "address",
          "name": "",
          "type": "address"
        }
      ],
      "stateMutability": "view",
      "type": "function"
    },
    {
      "inputs": [],
      "name": "underlying",
      "outputs": [
        {
          "internalType": "contract IERC20Metadata",
          "name": "",
          "type": "address"
        }
      ],
      "stateMutability": "view",
      "type": "function"
    },
    {
      "inputs": [],
      "name": "unpause",
      "outputs": [],
      "stateMutability": "nonpayable",
      "type": "function"
    },
    {
      "inputs": [
        {
          "internalType": "address",
          "name": "_to",
          "type": "address"
        },
        {
          "internalType": "uint256[]",
          "name": "_ids",
          "type": "uint256[]"
        }
      ],
      "name": "unsponsor",
      "outputs": [],
      "stateMutability": "nonpayable",
      "type": "function"
    },
    {
      "inputs": [],
      "name": "updateInvested",
      "outputs": [],
      "stateMutability": "nonpayable",
      "type": "function"
    },
    {
      "inputs": [
        {
          "internalType": "address",
          "name": "_to",
          "type": "address"
        },
        {
          "internalType": "uint256[]",
          "name": "_ids",
          "type": "uint256[]"
        }
      ],
      "name": "withdraw",
      "outputs": [],
      "stateMutability": "nonpayable",
      "type": "function"
    },
    {
      "inputs": [],
      "name": "withdrawPerformanceFee",
      "outputs": [],
      "stateMutability": "nonpayable",
      "type": "function"
    },
    {
      "inputs": [
        {
          "internalType": "address",
          "name": "_to",
          "type": "address"
        }
      ],
      "name": "yieldFor",
      "outputs": [
        {
          "internalType": "uint256",
          "name": "claimableYield",
          "type": "uint256"
        },
        {
          "internalType": "uint256",
          "name": "shares",
          "type": "uint256"
        },
        {
          "internalType": "uint256",
          "name": "perfFee",
          "type": "uint256"
        }
      ],
      "stateMutability": "view",
      "type": "function"
    }
  ],
  "transactionHash": "0x2e74a68039124df461006d527067ffba8091e00b5ccd0b41aaf5a7941458c950",
  "args": [
    "0x5f98805A4E8be255a32880FDeC7F6728C6568bA0",
    7776000,
    9000,
    "0x035F210e5d14054E8AE5A6CFA76d643aA200D56E",
    "0x84f67f75DAf6D57Aef500E0c85C77B7b3bBc92A9",
    0,
    200,
    [
      {
        "token": "0x6B175474E89094C44Da98b954EedeAC495271d0F",
        "pool": "0xEd279fDD11cA84bEef15AF5D39BB4d4bEE23F0cA",
        "tokenI": 1,
        "underlyingI": 0
      },
      {
        "token": "0xA0b86991c6218b36c1d19D4a2e9Eb0cE3606eB48",
        "pool": "0xEd279fDD11cA84bEef15AF5D39BB4d4bEE23F0cA",
        "tokenI": 2,
        "underlyingI": 0
      }
    ]
  ],
  "numDeployments": 2,
  "solcInputHash": "370bb4bab443aa7fe3eaea67372f57d3",
  "bytecode": "0x60c06040523480156200001157600080fd5b50604051620061cc380380620061cc833981016040819052620000349162000dcb565b60016002556003805461ffff191690556200004f3362000389565b620000698661ffff16620003e560201b620020d21760201c565b620000875760405163870e44a360e01b815260040160405180910390fd5b620000a18361ffff16620003e560201b620020d21760201c565b620000bf5760405163d25b1e4b60e01b815260040160405180910390fd5b620000d98261ffff16620003e560201b620020d21760201c565b620000f757604051631d05623160e01b815260040160405180910390fd5b6001600160a01b0388166200011f57604051631fc8ba7960e31b815260040160405180910390fd5b6001600160a01b03851662000147576040516335af31e960e11b815260040160405180910390fd5b6001600160a01b0384166200016f576040516306a8b35560e21b815260040160405180910390fd5b6001600160401b038716158062000191575062dd7c006001600160401b038816115b15620001b057604051636df7cef760e11b815260040160405180910390fd5b620001bb8462000389565b620001c8600085620003ed565b620001f47fb165298935924f540e4181c03493a5d686c54a0aaeb3f6216de85b7ffbba773885620003ed565b620002207ffaf9b26485088dee58863e57c46603d6cdcbadc7475ac6d8910fab0ecf60309585620003ed565b6200024c7f1597bc5e34ff090612f53164e4e642d2ab4fc78bffe19ed1b602a0d12559561a85620003ed565b600480546001600160b01b0319908116600160a01b61ffff8a811682026001600160a01b031916929092176001600160a01b038d81169182178655600e80546001600160401b038f16608052918c169190951617888416909202919091179092556010805461ffff19169186169190911790556040805163313ce56760e01b81529051919263313ce5679282820192602092908290030181865afa158015620002f9573d6000803e3d6000fd5b505050506040513d601f19601f820116820180604052508101906200031f919062000f83565b6200032c90600a620010bb565b6200033990600a620010cc565b60a0526200034781620003fd565b6040516001600160a01b038616907f7dae230f18360d76a040c81f050aa14eb9d6dc7901b20fc5d855e2a20fe814d190600090a2505050505050505062001206565b600380546001600160a01b038381166201000081810262010000600160b01b031985161790945560405193909204169182907f8be0079c531659141344cd1fd0a4f28419497f9722a3daafe3b4186f6b6457e090600090a35050565b612710101590565b620003f9828262000450565b5050565b805160005b818110156200044b5762000438838281518110620004245762000424620010ee565b6020026020010151620004be60201b60201c565b620004438162001104565b905062000402565b505050565b6200045c828262000883565b620003f95760008281526001602081815260408084206001600160a01b0386168086529252808420805460ff19169093179092559051339285917f2f8788117e7eff1d82e926ec794901d17c78024a50270940304540a733656f0d9190a45050565b80516001600160a01b0390811660009081526020819052604090205416156200052e5760405162461bcd60e51b815260206004820152601d60248201527f746f6b656e20616c7265616479206861732061207377617020706f6f6c00000060448201526064015b60405180910390fd5b6004546001600160a01b03166001600160a01b031681602001516001600160a01b031663c661065783606001516001600160801b03166040518263ffffffff1660e01b81526004016200058391815260200190565b602060405180830381865afa158015620005a1573d6000803e3d6000fd5b505050506040513d601f19601f82011682018060405250810190620005c7919062001122565b6001600160a01b031614620006345760405162461bcd60e51b815260206004820152602c60248201527f5f756e6465726c79696e674920646f6573206e6f74206d6174636820756e646560448201526b39363cb4b733903a37b5b2b760a11b606482015260840162000525565b600081600001516001600160a01b031663313ce5676040518163ffffffff1660e01b8152600401602060405180830381865afa15801562000679573d6000803e3d6000fd5b505050506040513d601f19601f820116820180604052508101906200069f919062000f83565b60ff1690506000620006b96004546001600160a01b031690565b6001600160a01b031663313ce5676040518163ffffffff1660e01b8152600401602060405180830381865afa158015620006f7573d6000803e3d6000fd5b505050506040513d601f19601f820116820180604052508101906200071d919062000f83565b6040805160a0810182526020808701516001600160a01b03908116835260ff8781168385019081529581168486018181528a870151600f90810b60608089019182528d015190910b608088019081528c5186166000908152968790529790952095518654985191518416600160a81b0260ff60a81b1992909416600160a01b026001600160a81b031990991694169390931796909617919091161782555191516001600160801b03908116600160801b029216919091176001909101559050620007fe620007f36004546001600160a01b031690565b6020850151620008b0565b82516020840151620008119190620008b0565b82602001516001600160a01b031683600001516001600160a01b03167f1576b5fcfa863788d9ef6558cab7aa68d4b48c44eb7bacaf1a8ac6d6b9d26f948560400151866060015160405162000876929190600f92830b8152910b602082015260400190565b60405180910390a3505050565b60008281526001602090815260408083206001600160a01b038516845290915290205460ff165b92915050565b604051636eb1769f60e11b81523060048201526001600160a01b0382811660248301526000919084169063dd62ed3e90604401602060405180830381865afa15801562000901573d6000803e3d6000fd5b505050506040513d601f19601f8201168201806040525081019062000927919062001142565b9050806200044b576200044b82600019856001600160a01b03166200095660201b620020da179092919060201c565b801580620009d45750604051636eb1769f60e11b81523060048201526001600160a01b03838116602483015284169063dd62ed3e90604401602060405180830381865afa158015620009ac573d6000803e3d6000fd5b505050506040513d601f19601f82011682018060405250810190620009d2919062001142565b155b62000a485760405162461bcd60e51b815260206004820152603660248201527f5361666545524332303a20617070726f76652066726f6d206e6f6e2d7a65726f60448201527f20746f206e6f6e2d7a65726f20616c6c6f77616e636500000000000000000000606482015260840162000525565b604080516001600160a01b038416602482015260448082018490528251808303909101815260649091019091526020810180516001600160e01b0390811663095ea7b360e01b179091526200044b91859162000aa016565b600062000afc826040518060400160405280602081526020017f5361666545524332303a206c6f772d6c6576656c2063616c6c206661696c6564815250856001600160a01b031662000b7e60201b62002257179092919060201c565b8051909150156200044b578080602001905181019062000b1d91906200115c565b6200044b5760405162461bcd60e51b815260206004820152602a60248201527f5361666545524332303a204552433230206f7065726174696f6e20646964206e6044820152691bdd081cdd58d8d9595960b21b606482015260840162000525565b606062000b8f848460008562000b99565b90505b9392505050565b60608247101562000bfc5760405162461bcd60e51b815260206004820152602660248201527f416464726573733a20696e73756666696369656e742062616c616e636520666f6044820152651c8818d85b1b60d21b606482015260840162000525565b6001600160a01b0385163b62000c555760405162461bcd60e51b815260206004820152601d60248201527f416464726573733a2063616c6c20746f206e6f6e2d636f6e7472616374000000604482015260640162000525565b600080866001600160a01b0316858760405162000c739190620011b3565b60006040518083038185875af1925050503d806000811462000cb2576040519150601f19603f3d011682016040523d82523d6000602084013e62000cb7565b606091505b50909250905062000cca82828662000cd5565b979650505050505050565b6060831562000ce657508162000b92565b82511562000cf75782518084602001fd5b8160405162461bcd60e51b8152600401620005259190620011d1565b6001600160a01b038116811462000d2957600080fd5b50565b805161ffff8116811462000d3f57600080fd5b919050565b634e487b7160e01b600052604160045260246000fd5b604051608081016001600160401b038111828210171562000d7f5762000d7f62000d44565b60405290565b604051601f8201601f191681016001600160401b038111828210171562000db05762000db062000d44565b604052919050565b8051600f81900b811462000d3f57600080fd5b600080600080600080600080610100898b03121562000de957600080fd5b885162000df68162000d13565b60208a01519098506001600160401b03808216821462000e1557600080fd5b81985062000e2660408c0162000d2c565b975060608b0151915062000e3a8262000d13565b60808b015191965062000e4d8262000d13565b81955062000e5e60a08c0162000d2c565b945062000e6e60c08c0162000d2c565b935060e08b015191508082111562000e8557600080fd5b818b0191508b601f83011262000e9a57600080fd5b81518181111562000eaf5762000eaf62000d44565b62000ec060208260051b0162000d85565b91508181835260208301925060208260071b85010191508d82111562000ee557600080fd5b6020840193505b8184101562000f6f576080848f03121562000f0657600080fd5b62000f1062000d5a565b845162000f1d8162000d13565b8152602085015162000f2f8162000d13565b602082015262000f426040860162000db8565b604082015262000f556060860162000db8565b606082015283526080939093019260209092019162000eec565b809450505050509295985092959890939650565b60006020828403121562000f9657600080fd5b815160ff8116811462000b9257600080fd5b634e487b7160e01b600052601160045260246000fd5b600181815b8085111562000fff57816000190482111562000fe35762000fe362000fa8565b8085161562000ff157918102915b93841c939080029062000fc3565b509250929050565b6000826200101857506001620008aa565b816200102757506000620008aa565b81600181146200104057600281146200104b576200106b565b6001915050620008aa565b60ff8411156200105f576200105f62000fa8565b50506001821b620008aa565b5060208310610133831016604e8410600b841016171562001090575081810a620008aa565b6200109c838362000fbe565b8060001904821115620010b357620010b362000fa8565b029392505050565b600062000b9260ff84168362001007565b6000816000190483118215151615620010e957620010e962000fa8565b500290565b634e487b7160e01b600052603260045260246000fd5b60006000198214156200111b576200111b62000fa8565b5060010190565b6000602082840312156200113557600080fd5b815162000b928162000d13565b6000602082840312156200115557600080fd5b5051919050565b6000602082840312156200116f57600080fd5b8151801515811462000b9257600080fd5b60005b838110156200119d57818101518382015260200162001183565b83811115620011ad576000848401525b50505050565b60008251620011c781846020870162001180565b9190910192915050565b6020815260008251806020840152620011f281604085016020870162001180565b601f01601f19169190910160400192915050565b60805160a051614f926200123a60003960008181610f9d015261108a0152600081816105c30152612ee90152614f926000f3fe608060405234801561001057600080fd5b50600436106103ba5760003560e01c80638456cb59116101f4578063c0ddb6921161011a578063e4020fdf116100ad578063f5eb42dc1161007c578063f5eb42dc1461095c578063f628988714610988578063f78797c0146109af578063fd6e9217146109d857600080fd5b8063e4020fdf1461091a578063eb0ebfbc1461092d578063f0f4426014610936578063f2fde38b1461094957600080fd5b8063cda2695a116100e9578063cda2695a146108cc578063d547741f146108df578063d9db2b77146108f2578063df6f9ba71461090757600080fd5b8063c0ddb69214610882578063c2d794441461088a578063c70920bc146108b1578063cd0d9ba8146108b957600080fd5b8063a1ac20eb11610192578063b02c43d011610161578063b02c43d0146107c2578063b59a40cb14610834578063bba97d3314610854578063bd2e3ecd1461062557600080fd5b8063a1ac20eb14610784578063a217fddf14610797578063a8c62e761461079f578063abaa9d70146107b257600080fd5b806391d14854116101ce57806391d148541461071d5780639816f47314610756578063999927df14610767578063a164c25d1461077a57600080fd5b80638456cb59146106685780638cad7fbe146106705780638da5cb5b1461070657600080fd5b80634fc78d68116102e45780636f307dc31161027757806376490b561161024657806376490b56146106255780637e2cba6f1461062f5780637e4b8da0146106425780638293744b1461065557600080fd5b80636f307dc3146105a3578063715018a6146105b657806373ae54b5146105be57806376082a5e146105fe57600080fd5b80635e848655116102b35780635e8486551461052657806361d027b31461052e57806361e20a1c146105595780636e7007e61461058257600080fd5b80634fc78d68146104f8578063563233f6146105005780635c975abb146105135780635cb0d4061461051e57600080fd5b806336568abe1161035c5780633f3832361161032b5780633f383236146104cc5780633f4ba83a146104df5780634b1533b2146104e75780634e813ac4146104f057600080fd5b806336568abe146104955780633a98ef39146104a85780633b7d0946146104b15780633ba52fc6146104c457600080fd5b806319d3ee3d1161039857806319d3ee3d14610440578063248a9ca3146104495780632f2ff15d1461046d57806333a100ca1461048257600080fd5b806301ffc9a7146103bf5780631325d5f1146103e757806313f6686d14610404575b600080fd5b6103d26103cd366004614566565b6109ed565b60405190151581526020015b60405180910390f35b6103f6670de0b6b3a764000081565b6040519081526020016103de565b61042b6104123660046145a5565b600c602052600090815260409020805460019091015482565b604080519283526020830191909152016103de565b6103f6600f5481565b6103f66104573660046145c2565b6000908152600160208190526040909120015490565b61048061047b3660046145db565b610a65565b005b6104806104903660046145a5565b610a90565b6104806104a33660046145db565b610c9b565b6103f660065481565b6104806104bf3660046145a5565b610d2c565b610480610d40565b6104806104da366004614692565b610e02565b610480610e16565b6103f6600d5481565b61042b610e2c565b610480610ee9565b61048061050e366004614725565b61117f565b60035460ff166103d2565b610480611241565b610480611254565b600e54610541906001600160a01b031681565b6040516001600160a01b0390911681526020016103de565b6103f66105673660046145a5565b6001600160a01b03166000908152600c602052604090205490565b6010546105909061ffff1681565b60405161ffff90911681526020016103de565b600454610541906001600160a01b031681565b610480611267565b6105e57f000000000000000000000000000000000000000000000000000000000000000081565b60405167ffffffffffffffff90911681526020016103de565b6103f67fb165298935924f540e4181c03493a5d686c54a0aaeb3f6216de85b7ffbba773881565b6105e562dd7c0081565b61048061063d366004614725565b61127b565b61048061065036600461478c565b611329565b61048061066336600461480f565b6113c7565b6104806114a6565b6106c761067e3660046145a5565b600060208190529081526040902080546001909101546001600160a01b0382169160ff600160a01b8204811692600160a81b9092041690600f81810b91600160801b9004900b85565b604080516001600160a01b03909616865260ff94851660208701529390921692840192909252600f91820b6060840152900b608082015260a0016103de565b6003546201000090046001600160a01b0316610541565b6103d261072b3660046145db565b60009182526001602090815260408084206001600160a01b0393909316845291905290205460ff1690565b6004546001600160a01b0316610541565b6104806107753660046145a5565b6114b9565b6105e56212750081565b610480610792366004614725565b611686565b6103f6600081565b600754610541906001600160a01b031681565b600354610100900460ff166103d2565b6108046107d03660046145c2565b600a60205260009081526040902080546001820154600283015460039093015491926001600160a01b039182169291169084565b6040516103de94939291909384526001600160a01b03928316602085015291166040830152606082015260800190565b61084761084236600461487c565b61174a565b6040516103de91906148b9565b6108676108623660046145a5565b6117ef565b604080519384526020840192909252908201526060016103de565b6103f66118b5565b6103f67f1597bc5e34ff090612f53164e4e642d2ab4fc78bffe19ed1b602a0d12559561a81565b6103f66118f8565b6108476108c73660046148fd565b611a6c565b6104806108da366004614944565b611b26565b6104806108ed3660046145db565b611d2f565b600e5461059090600160a01b900461ffff1681565b61048061091536600461480f565b611d55565b61048061092836600461480f565b611de7565b6103f660055481565b6104806109443660046145a5565b611e77565b6104806109573660046145a5565b611f2c565b6103f661096a3660046145a5565b6001600160a01b03166000908152600c602052604090206001015490565b6103f67ffaf9b26485088dee58863e57c46603d6cdcbadc7475ac6d8910fab0ecf60309581565b6105416109bd3660046145c2565b6009602052600090815260409020546001600160a01b031681565b60045461059090600160a01b900461ffff1681565b60006001600160e01b031982167f21d982ed000000000000000000000000000000000000000000000000000000001480610a5057506001600160e01b031982167fc2aed93900000000000000000000000000000000000000000000000000000000145b80610a5f5750610a5f82612270565b92915050565b60008281526001602081905260409091200154610a81816122d7565b610a8b83836122e1565b505050565b7ffaf9b26485088dee58863e57c46603d6cdcbadc7475ac6d8910fab0ecf603095610aba816122d7565b6001600160a01b038216610ae157604051634f08b3f360e11b815260040160405180910390fd5b306001600160a01b0316826001600160a01b031663fbfa77cf6040518163ffffffff1660e01b8152600401602060405180830381865afa158015610b29573d6000803e3d6000fd5b505050506040513d601f19601f82011682018060405250810190610b4d919061497f565b6001600160a01b031614610b8d576040517f0251bab500000000000000000000000000000000000000000000000000000000815260040160405180910390fd5b6007546001600160a01b031615801590610c195750600760009054906101000a90046001600160a01b03166001600160a01b0316635be9b2d36040518163ffffffff1660e01b8152600401602060405180830381865afa158015610bf5573d6000803e3d6000fd5b505050506040513d601f19601f82011682018060405250810190610c19919061499c565b15610c50576040517fd28a9fdb00000000000000000000000000000000000000000000000000000000815260040160405180910390fd5b600780546001600160a01b0319166001600160a01b0384169081179091556040517f4da9c22c924692646a21cf1f423781ae3285198dc22e8a6912835d3272b90b3c90600090a25050565b6001600160a01b0381163314610d1e5760405162461bcd60e51b815260206004820152602f60248201527f416363657373436f6e74726f6c3a2063616e206f6e6c792072656e6f756e636560448201527f20726f6c657320666f722073656c66000000000000000000000000000000000060648201526084015b60405180910390fd5b610d288282612368565b5050565b6000610d37816122d7565b610d28826123eb565b7fb165298935924f540e4181c03493a5d686c54a0aaeb3f6216de85b7ffbba7738610d6a816122d7565b600f5480610da4576040517f0a33934000000000000000000000000000000000000000000000000000000000815260040160405180910390fd5b6000600f55610db2816124bf565b6040518181527fb7eeacba6b133788365610e83d3f130d07b6ef6e78877961f25b3f61fcba07529060200160405180910390a1600e54600454610d28916001600160a01b03918216911683612651565b6000610e0d816122d7565b610d288261269a565b6000610e21816122d7565b610e29612a9d565b50565b60075460009081906001600160a01b0316610e4a5750600091829150565b600454610e6a90600160a01b900461ffff16610e646118f8565b90612aef565b9150600760009054906101000a90046001600160a01b03166001600160a01b0316634ad0b6846040518163ffffffff1660e01b8152600401602060405180830381865afa158015610ebf573d6000803e3d6000fd5b505050506040513d601f19601f82011682018060405250810190610ee391906149be565b90509091565b7fb165298935924f540e4181c03493a5d686c54a0aaeb3f6216de85b7ffbba7738610f13816122d7565b6007546001600160a01b0316610f3c57604051634f08b3f360e11b815260040160405180910390fd5b600080610f47610e2c565b9150915080821415610f85576040517ff096593000000000000000000000000000000000000000000000000000000000815260040160405180910390fd5b8181111561107a576000610f9983836149ed565b90507f0000000000000000000000000000000000000000000000000000000000000000811015610fdc57604051630e33bdb760e11b815260040160405180910390fd5b6007546040516319d1885d60e31b8152600481018390526001600160a01b039091169063ce8c42e8906024015b600060405180830381600087803b15801561102357600080fd5b505af1158015611037573d6000803e3d6000fd5b505050507ff7e72e2f53a982a67fc999c00edfd87a94bdf99e5031c74851276cfd65b0bd298160405161106c91815260200190565b60405180910390a150505050565b600061108682846149ed565b90507f00000000000000000000000000000000000000000000000000000000000000008110156110c957604051630e33bdb760e11b815260040160405180910390fd5b6007546004546110e6916001600160a01b03918216911683612651565b600760009054906101000a90046001600160a01b03166001600160a01b031663e8b5e51f6040518163ffffffff1660e01b8152600401600060405180830381600087803b15801561113657600080fd5b505af115801561114a573d6000803e3d6000fd5b505050507fac9f7997c30b6a3cc9c74953898b5de154359339c7ec0d6d70ceb98e55db1a4b8160405161106c91815260200190565b7ffaf9b26485088dee58863e57c46603d6cdcbadc7475ac6d8910fab0ecf6030956111a9816122d7565b61ffff821661271010156111e9576040517fd25b1e4b00000000000000000000000000000000000000000000000000000000815260040160405180910390fd5b600e805461ffff60a01b1916600160a01b61ffff8516908102919091179091556040519081527f16de0efbdf16c568a60b65978ed774bba4e0c179de55ab8f639527e41fd0c861906020015b60405180910390a15050565b600061124c816122d7565b610e29612b0c565b600061125f816122d7565b610e29612b4b565b61126f612b85565b6112796000612be6565b565b7ffaf9b26485088dee58863e57c46603d6cdcbadc7475ac6d8910fab0ecf6030956112a5816122d7565b61ffff821661271010156112e5576040517f1d05623100000000000000000000000000000000000000000000000000000000815260040160405180910390fd5b6010805461ffff191661ffff84169081179091556040519081527f5b9aa28fc994f782b33ebebd9947795b5bc59a54203466433eac5f8d9e81940090602001611235565b60028054141561137b5760405162461bcd60e51b815260206004820152601f60248201527f5265656e7472616e637947756172643a207265656e7472616e742063616c6c006044820152606401610d15565b60028055611387612c58565b6001600160a01b0385166113ae5760405163f95106ab60e01b815260040160405180910390fd5b6113bb8585858585612cb0565b50506001600255505050565b6002805414156114195760405162461bcd60e51b815260206004820152601f60248201527f5265656e7472616e637947756172643a207265656e7472616e742063616c6c006044820152606401610d15565b60028055611425612c58565b6001600160a01b03831661144c5760405163f95106ab60e01b815260040160405180910390fd5b6114546118b5565b600d54111561148f576040517f0bdd660c00000000000000000000000000000000000000000000000000000000815260040160405180910390fd5b61149c8383836000612d53565b5050600160025550565b60006114b1816122d7565b610e29612e11565b60028054141561150b5760405162461bcd60e51b815260206004820152601f60248201527f5265656e7472616e637947756172643a207265656e7472616e742063616c6c006044820152606401610d15565b60028055611517612c58565b6001600160a01b03811661153e5760405163f95106ab60e01b815260040160405180910390fd5b600080600061154c336117ef565b925092509250826000141561158d576040517f58367fe100000000000000000000000000000000000000000000000000000000815260040160405180910390fd5b60006115976118b5565b90506000600654905082600f60008282546115b29190614a04565b909155506115c19050856124bf565b6004546115d8906001600160a01b03168787612651565b336000908152600c6020526040812060010180548692906115fa9084906149ed565b92505081905550836006600082825461161391906149ed565b90915550506040805133815260208101879052908101859052606081018490526080810183905260a081018290526001600160a01b038716907f4344accc2a634cf29195bba6fa3d939e3415ecd1ca5c57b322bcf81f920979c89060c00160405180910390a25050600160025550505050565b7ffaf9b26485088dee58863e57c46603d6cdcbadc7475ac6d8910fab0ecf6030956116b0816122d7565b61ffff821661271010156116f0576040517f870e44a300000000000000000000000000000000000000000000000000000000815260040160405180910390fd5b60405161ffff831681527f40775ca73a6e168d23747bc0200694cf7c99ad2db624d04c095cb59899011a569060200160405180910390a1506004805461ffff909216600160a01b0261ffff60a01b19909216919091179055565b606060028054141561179e5760405162461bcd60e51b815260206004820152601f60248201527f5265656e7472616e637947756172643a207265656e7472616e742063616c6c006044820152606401610d15565b600280556117aa612e4e565b6008546117b8816001614a04565b600855600081815260096020526040902080546001600160a01b031916331790556117e38184612ea1565b60016002559392505050565b6001600160a01b0381166000908152600c602052604081208054600190910154600654839283929091839061182d9083906118286118b5565b613094565b90508281116118495760008060009550955095505050506118ae565b600061185584836149ed565b905061186b816006546118666118b5565b6130cc565b9550600061187e876006546118286118b5565b600e5490915061189a908290600160a01b900461ffff16612aef565b95506118a686826149ed565b975050505050505b9193909250565b6000806118c06118f8565b90506000600f546005546118d49190614a04565b9050818111156118e75760009250505090565b6118f181836149ed565b9250505090565b6007546000906001600160a01b0316156119ff57600760009054906101000a90046001600160a01b03166001600160a01b0316634ad0b6846040518163ffffffff1660e01b8152600401602060405180830381865afa15801561195f573d6000803e3d6000fd5b505050506040513d601f19601f8201168201806040525081019061198391906149be565b600480546040516370a0823160e01b815230928101929092526001600160a01b0316906370a0823190602401602060405180830381865afa1580156119cc573d6000803e3d6000fd5b505050506040513d601f19601f820116820180604052508101906119f091906149be565b6119fa9190614a04565b905090565b600480546040516370a0823160e01b815230928101929092526001600160a01b0316906370a0823190602401602060405180830381865afa158015611a48573d6000803e3d6000fd5b505050506040513d601f19601f820116820180604052508101906119fa91906149be565b6060600280541415611ac05760405162461bcd60e51b815260206004820152601f60248201527f5265656e7472616e637947756172643a207265656e7472616e742063616c6c006044820152606401610d15565b60028055611acc612e4e565b6000838152600960205260409020546001600160a01b03163314611b1c576040517f9049b68600000000000000000000000000000000000000000000000000000000815260040160405180910390fd5b6117e38383612ea1565b600280541415611b785760405162461bcd60e51b815260206004820152601f60248201527f5265656e7472616e637947756172643a207265656e7472616e742063616c6c006044820152606401610d15565b600280557f1597bc5e34ff090612f53164e4e642d2ab4fc78bffe19ed1b602a0d12559561a611ba6816122d7565b611bae612e4e565b83611be5576040517ff712805800000000000000000000000000000000000000000000000000000000815260040160405180910390fd5b62127500831080611bf8575062dd7c0083115b15611c1657604051636235acd960e01b815260040160405180910390fd5b6000611c224285614a04565b9050611c32600b80546001019055565b6000611c3d600b5490565b9050611c4a33888861313b565b6000611c57888887613273565b604080516080810182528281523360208083019182526000838501818152606085018a8152898352600a9093529481209351845591516001840180546001600160a01b03199081166001600160a01b039384161790915594516002850180549096169116179093559151600390910155600580549293508392909190611cde908490614a04565b90915550506040805182815260208101859052339184917f7ca3497675c6d3ec00b1edc13b8e0b06169ee96a663ab25a74af7da53378f09e910160405180910390a350506001600255505050505050565b60008281526001602081905260409091200154611d4b816122d7565b610a8b8383612368565b600280541415611da75760405162461bcd60e51b815260206004820152601f60248201527f5265656e7472616e637947756172643a207265656e7472616e742063616c6c006044820152606401610d15565b60028055611db3612c58565b6001600160a01b038316611dda5760405163f95106ab60e01b815260040160405180910390fd5b61149c8383836001612d53565b600280541415611e395760405162461bcd60e51b815260206004820152601f60248201527f5265656e7472616e637947756172643a207265656e7472616e742063616c6c006044820152606401610d15565b60028055611e45612c58565b6001600160a01b038316611e6c5760405163f95106ab60e01b815260040160405180910390fd5b61149c83838361344c565b7ffaf9b26485088dee58863e57c46603d6cdcbadc7475ac6d8910fab0ecf603095611ea1816122d7565b6001600160a01b038216611ee1576040517f6b5e63d200000000000000000000000000000000000000000000000000000000815260040160405180910390fd5b600e80546001600160a01b0319166001600160a01b0384169081179091556040517f7dae230f18360d76a040c81f050aa14eb9d6dc7901b20fc5d855e2a20fe814d190600090a25050565b611f34612b85565b6001600160a01b038116611f74576040517f1aa2cd5400000000000000000000000000000000000000000000000000000000815260040160405180910390fd5b6001600160a01b038116331415611fb7576040517f0b2d307300000000000000000000000000000000000000000000000000000000815260040160405180910390fd5b611fc081612be6565b611fcb60008261366a565b611ff57fb165298935924f540e4181c03493a5d686c54a0aaeb3f6216de85b7ffbba77388261366a565b61201f7ffaf9b26485088dee58863e57c46603d6cdcbadc7475ac6d8910fab0ecf6030958261366a565b6120497f1597bc5e34ff090612f53164e4e642d2ab4fc78bffe19ed1b602a0d12559561a8261366a565b612054600033612368565b61207e7fb165298935924f540e4181c03493a5d686c54a0aaeb3f6216de85b7ffbba773833612368565b6120a87ffaf9b26485088dee58863e57c46603d6cdcbadc7475ac6d8910fab0ecf60309533612368565b610e297f1597bc5e34ff090612f53164e4e642d2ab4fc78bffe19ed1b602a0d12559561a33612368565b612710101590565b8015806121545750604051636eb1769f60e11b81523060048201526001600160a01b03838116602483015284169063dd62ed3e90604401602060405180830381865afa15801561212e573d6000803e3d6000fd5b505050506040513d601f19601f8201168201806040525081019061215291906149be565b155b6121c65760405162461bcd60e51b815260206004820152603660248201527f5361666545524332303a20617070726f76652066726f6d206e6f6e2d7a65726f60448201527f20746f206e6f6e2d7a65726f20616c6c6f77616e6365000000000000000000006064820152608401610d15565b6040516001600160a01b038316602482015260448101829052610a8b9084907f095ea7b300000000000000000000000000000000000000000000000000000000906064015b60408051601f198184030181529190526020810180517bffffffffffffffffffffffffffffffffffffffffffffffffffffffff166001600160e01b031990931692909217909152613674565b60606122668484600085613759565b90505b9392505050565b60006001600160e01b031982167f7965db0b000000000000000000000000000000000000000000000000000000001480610a5f57507f01ffc9a7000000000000000000000000000000000000000000000000000000006001600160e01b0319831614610a5f565b610e298133613896565b60008281526001602090815260408083206001600160a01b038516845290915290205460ff16610d285760008281526001602081815260408084206001600160a01b0386168086529252808420805460ff19169093179092559051339285917f2f8788117e7eff1d82e926ec794901d17c78024a50270940304540a733656f0d9190a45050565b60008281526001602090815260408083206001600160a01b038516845290915290205460ff1615610d285760008281526001602090815260408083206001600160a01b0385168085529252808320805460ff1916905551339285917ff6391f5c32d9c69d2a47ea670b442974b53935d1edc7fd64eb21e047a839171b9190a45050565b6001600160a01b03818116600090815260208190526040902054166124525760405162461bcd60e51b815260206004820152601360248201527f706f6f6c20646f6573206e6f74206578697374000000000000000000000000006044820152606401610d15565b6001600160a01b03811660008181526020819052604080822080547fffffffffffffffffffff00000000000000000000000000000000000000000000168155600101829055517f94be23730c4398d20227f4e457cf92307b13e5956f2a958e2e368ad44e2f826b9190a250565b600480546040516370a0823160e01b815230928101929092526000916001600160a01b03909116906370a0823190602401602060405180830381865afa15801561250d573d6000803e3d6000fd5b505050506040513d601f19601f8201168201806040525081019061253191906149be565b905080821161253e575050565b600760009054906101000a90046001600160a01b03166001600160a01b0316639af2e6356040518163ffffffff1660e01b8152600401602060405180830381865afa158015612591573d6000803e3d6000fd5b505050506040513d601f19601f820116820180604052508101906125b5919061499c565b6125d257604051635f842b9960e11b815260040160405180910390fd5b600454600090612606906125f390600160a01b900461ffff16612710614a1c565b846125fc6118f8565b610e6491906149ed565b90506000826126158386614a04565b61261f91906149ed565b6007546040516319d1885d60e31b8152600481018390529192506001600160a01b03169063ce8c42e890602401611009565b6040516001600160a01b038316602482015260448101829052610a8b9084907fa9059cbb000000000000000000000000000000000000000000000000000000009060640161220b565b80516001600160a01b0390811660009081526020819052604090205416156127045760405162461bcd60e51b815260206004820152601d60248201527f746f6b656e20616c7265616479206861732061207377617020706f6f6c0000006044820152606401610d15565b6004546001600160a01b03166001600160a01b031681602001516001600160a01b031663c661065783606001516fffffffffffffffffffffffffffffffff166040518263ffffffff1660e01b815260040161276191815260200190565b602060405180830381865afa15801561277e573d6000803e3d6000fd5b505050506040513d601f19601f820116820180604052508101906127a2919061497f565b6001600160a01b03161461281e5760405162461bcd60e51b815260206004820152602c60248201527f5f756e6465726c79696e674920646f6573206e6f74206d6174636820756e646560448201527f726c79696e6720746f6b656e00000000000000000000000000000000000000006064820152608401610d15565b600081600001516001600160a01b031663313ce5676040518163ffffffff1660e01b8152600401602060405180830381865afa158015612862573d6000803e3d6000fd5b505050506040513d601f19601f820116820180604052508101906128869190614a3f565b60ff169050600061289f6004546001600160a01b031690565b6001600160a01b031663313ce5676040518163ffffffff1660e01b8152600401602060405180830381865afa1580156128dc573d6000803e3d6000fd5b505050506040513d601f19601f820116820180604052508101906129009190614a3f565b6040805160a0810182526020808701516001600160a01b03908116835260ff8781168385019081529581168486018181528a870151600f90810b60608089019182528d015190910b608088019081528c5186166000908152968790529790952095518654985191518416600160a81b027fffffffffffffffffffff00ffffffffffffffffffffffffffffffffffffffffff92909416600160a01b027fffffffffffffffffffffff00000000000000000000000000000000000000000090991694169390931796909617919091161782555191516fffffffffffffffffffffffffffffffff908116600160801b029216919091176001909101559050612a1a612a106004546001600160a01b031690565b8460200151613916565b612a2c83600001518460200151613916565b82602001516001600160a01b031683600001516001600160a01b03167f1576b5fcfa863788d9ef6558cab7aa68d4b48c44eb7bacaf1a8ac6d6b9d26f9485604001518660600151604051612a90929190600f92830b8152910b602082015260400190565b60405180910390a3505050565b612aa56139a7565b6003805460ff191690557f5db9ee0a495bf2e6ff9c91a7834c1ba4fdd244a5e8aa4e537bd38aeae4b073aa335b6040516001600160a01b03909116815260200160405180910390a1565b6000612710612b0261ffff841685614a62565b6122699190614a81565b612b14612c58565b6003805461ff0019166101001790557f92493a2527e1a0e4214d0f98b1bedbdc2b53ef81ee4578756108fef0deff09ee612ad23390565b612b536139f9565b6003805461ff00191690557fc47f9c912614e04aeb80c7e6cdc73c0f4368cde4bf42df3b26ad96b898913c7d33612ad2565b6003546001600160a01b03620100009091041633146112795760405162461bcd60e51b815260206004820181905260248201527f4f776e61626c653a2063616c6c6572206973206e6f7420746865206f776e65726044820152606401610d15565b600380546001600160a01b03838116620100008181027fffffffffffffffffffff0000000000000000000000000000000000000000ffff85161790945560405193909204169182907f8be0079c531659141344cd1fd0a4f28419497f9722a3daafe3b4186f6b6457e090600090a35050565b600354610100900460ff16156112795760405162461bcd60e51b815260206004820152601460248201527f5061757361626c653a20457869745061757365640000000000000000000000006044820152606401610d15565b6006546000612cbd6118b5565b9050600085815b81811015612d2757612d0b898983818110612ce157612ce1614aa3565b9050602002013586868d60008c8c88818110612cff57612cff614aa3565b90506020020135613a50565b612d159084614a04565b9250612d2081614ab9565b9050612cc4565b50612d31826124bf565b600454612d48906001600160a01b03168a84612651565b505050505050505050565b6006546000612d606118b5565b9050600084815b81811015612de6576000600a60008a8a85818110612d8757612d87614aa3565b905060200201358152602001908152602001600020600001549050612dc8898984818110612db757612db7614aa3565b9050602002013587878d8b86613a50565b612dd29085614a04565b93505080612ddf90614ab9565b9050612d67565b50612df0826124bf565b600454612e07906001600160a01b03168984612651565b5050505050505050565b612e19612e4e565b6003805460ff191660011790557f62e78cea01bee320cd4e420270b5ea74000d11b0c9f74754ebdbfc544b05a258612ad23390565b60035460ff16156112795760405162461bcd60e51b815260206004820152601060248201527f5061757361626c653a20706175736564000000000000000000000000000000006044820152606401610d15565b60606040820135612ede576040517fab59997c00000000000000000000000000000000000000000000000000000000815260040160405180910390fd5b67ffffffffffffffff7f000000000000000000000000000000000000000000000000000000000000000016612f196040840160208501614ad4565b67ffffffffffffffff161080612f4a575062dd7c00612f3e6040840160208501614ad4565b67ffffffffffffffff16115b15612f6857604051636235acd960e01b815260040160405180910390fd5b6003612f776080840184614afe565b90501015612fb1576040517f3867858900000000000000000000000000000000000000000000000000000000815260040160405180910390fd5b6000612fbe600d54613d99565b90506000612fca6118b5565b905080821115613006576040517f08063cab00000000000000000000000000000000000000000000000000000000815260040160405180910390fd5b6130213361301760208701876145a5565b866040013561313b565b600061304261303360208701876145a5565b86604001358760a00135613273565b90506000426130576040880160208901614ad4565b6130619190614b45565b905061308983838361307660608b018b614b71565b61308360808d018d614afe565b8e613db8565b979650505050505050565b60008315806130a1575082155b806130aa575081155b156130b757506000612269565b826130c28584614a62565b6122669190614a81565b6000836130db57506000612269565b826130f9576130f2670de0b6b3a764000085614a62565b9050612269565b81613130576040517ff91b6e7b00000000000000000000000000000000000000000000000000000000815260040160405180910390fd5b816130c28486614a62565b6040516370a0823160e01b81523060048201526000906001600160a01b038416906370a0823190602401602060405180830381865afa158015613182573d6000803e3d6000fd5b505050506040513d601f19601f820116820180604052508101906131a691906149be565b90506131bd6001600160a01b038416853085613ffa565b6040516370a0823160e01b81523060048201526000906001600160a01b038516906370a0823190602401602060405180830381865afa158015613204573d6000803e3d6000fd5b505050506040513d601f19601f8201168201806040525081019061322891906149be565b90506132348383614a04565b811461326c576040517f2a25a38b00000000000000000000000000000000000000000000000000000000815260040160405180910390fd5b5050505050565b6000806132886004546001600160a01b031690565b9050806001600160a01b0316856001600160a01b031614156132ad5783915050612269565b6001600160a01b03808616600090815260208190526040902080549091166133175760405162461bcd60e51b815260206004820152601660248201527f6e6f6e2d6578697374696e67207377617020706f6f6c000000000000000000006044820152606401610d15565b805460009061333c90879060ff600160a01b8204811691600160a81b90041688614051565b825460018401546040517fa6417ed6000000000000000000000000000000000000000000000000000000008152600f82810b6004830152600160801b90920490910b602482015260448101899052606481018390529192506001600160a01b03169063a6417ed6906084016020604051808303816000875af11580156133c6573d6000803e3d6000fd5b505050506040513d601f19601f820116820180604052508101906133ea91906149be565b9350826001600160a01b0316876001600160a01b03167ffa2dda1cc1b86e41239702756b13effbc1a092b5c57e3ad320fbe4f3b13fe235888760405161343a929190918252602082015260400190565b60405180910390a35050509392505050565b600081815b818160ff16101561360957600085858360ff1681811061347357613473614aa3565b602090810292909201356000818152600a84526040908190208151608081018352815480825260018301546001600160a01b03908116978301889052600284015416938201849052600390920154606082018190529396509492935090919033821461350b576040517f5040aaa300000000000000000000000000000000000000000000000000000000815260040160405180910390fd5b42841115613545576040517f4cf1715e00000000000000000000000000000000000000000000000000000000815260040160405180910390fd5b6001600160a01b03831615613586576040517f6f15ccf800000000000000000000000000000000000000000000000000000000815260040160405180910390fd5b613590818a614a04565b6000878152600a60205260408082208281556001810180546001600160a01b0319908116909155600282018054909116905560030182905551919a5087917f05394e48d744e4a16d65f52f88cdaf0f60f5d18af259df878d44cb80826d221f9190a25050505050508061360290614bbb565b9050613451565b506136126118f8565b82111561363257604051635f842b9960e11b815260040160405180910390fd5b816005600082825461364491906149ed565b909155506136539050826124bf565b60045461326c906001600160a01b03168684612651565b610d2882826122e1565b60006136c9826040518060400160405280602081526020017f5361666545524332303a206c6f772d6c6576656c2063616c6c206661696c6564815250856001600160a01b03166122579092919063ffffffff16565b805190915015610a8b57808060200190518101906136e7919061499c565b610a8b5760405162461bcd60e51b815260206004820152602a60248201527f5361666545524332303a204552433230206f7065726174696f6e20646964206e60448201527f6f742073756363656564000000000000000000000000000000000000000000006064820152608401610d15565b6060824710156137d15760405162461bcd60e51b815260206004820152602660248201527f416464726573733a20696e73756666696369656e742062616c616e636520666f60448201527f722063616c6c00000000000000000000000000000000000000000000000000006064820152608401610d15565b6001600160a01b0385163b6138285760405162461bcd60e51b815260206004820152601d60248201527f416464726573733a2063616c6c20746f206e6f6e2d636f6e74726163740000006044820152606401610d15565b600080866001600160a01b031685876040516138449190614c07565b60006040518083038185875af1925050503d8060008114613881576040519150601f19603f3d011682016040523d82523d6000602084013e613886565b606091505b509150915061308982828661409c565b60008281526001602090815260408083206001600160a01b038516845290915290205460ff16610d28576138d4816001600160a01b031660146140d5565b6138df8360206140d5565b6040516020016138f0929190614c23565b60408051601f198184030181529082905262461bcd60e51b8252610d1591600401614cd0565b604051636eb1769f60e11b81523060048201526001600160a01b0382811660248301526000919084169063dd62ed3e90604401602060405180830381865afa158015613966573d6000803e3d6000fd5b505050506040513d601f19601f8201168201806040525081019061398a91906149be565b905080610a8b57610a8b6001600160a01b038416836000196120da565b60035460ff166112795760405162461bcd60e51b815260206004820152601460248201527f5061757361626c653a206e6f74207061757365640000000000000000000000006044820152606401610d15565b600354610100900460ff166112795760405162461bcd60e51b815260206004820152601860248201527f5061757361626c653a206e6f74204578697450617573656400000000000000006044820152606401610d15565b6000868152600a60205260408120600101546001600160a01b03163314613aa3576040517fff40736100000000000000000000000000000000000000000000000000000000815260040160405180910390fd5b6000878152600a602090815260408083208151608081018352815481526001808301546001600160a01b039081168387015260028401541682850181905260039093015460608301908152928652600c85529483902083518085019094528054845290940154928201929092529051421015613b4b576040517f0f6268c200000000000000000000000000000000000000000000000000000000815260040160405180910390fd5b60408201516001600160a01b0316613b8f576040517fde8b700400000000000000000000000000000000000000000000000000000000815260040160405180910390fd5b8151841115613bb157604051635bcd1de160e11b815260040160405180910390fd5b6000613bbe858a8a6130cc565b82516020840151919250600091613bd59088614a62565b613bdf9190614a81565b905086158015613bee57508082115b15613c0c57604051635bcd1de160e11b815260040160405180910390fd5b81878015613c1957508183115b15613c215750805b6040808601516001600160a01b03166000908152600c6020529081206001018054839290613c509084906149ed565b90915550506040808601516001600160a01b03166000908152600c6020529081208054899290613c819084906149ed565b925050819055508060066000828254613c9a91906149ed565b9250508190555086600d6000828254613cb391906149ed565b9091555050845187148015613cfc5760008d8152600a602052604081208181556001810180546001600160a01b0319908116909155600282018054909116905560030155613d20565b60008d8152600a6020526040812080548a9290613d1a9084906149ed565b90915550505b6000613d2d838e8e613094565b90508a6001600160a01b03168e7f14e79002ce0df3ba4381425c583d4c9984c7e2910d3e7e088377db997773153e858486604051613d809392919092835260208301919091521515604082015260600190565b60405180910390a39d9c50505050505050505050505050565b601054600090613dae90839061ffff16612aef565b610a5f90836149ed565b6040805160a0810182526006548152602081018a90526000918101829052606081810183905260808201879052918667ffffffffffffffff811115613dff57613dff61460b565b604051908082528060200260200182016040528015613e28578160200160208202803683370190505b50905060005b8260800151811015613fa2576000898983818110613e4e57613e4e614aa3565b9050602002810190613e609190614ce3565b613e6990614cf9565b805190915061ffff16613ea8576040517f4f287e5000000000000000000000000000000000000000000000000000000000815260040160405180910390fd5b60208101516001600160a01b0316613eec576040517fd444696b00000000000000000000000000000000000000000000000000000000815260040160405180910390fd5b600060018560800151613eff91906149ed565b8314613f17578151613f12908e90612aef565b613f26565b6060850151613f26908e6149ed565b9050613f4087828e8589600001518a602001518f8f6142b6565b848481518110613f5257613f52614aa3565b60209081029190910101528151604086018051613f70908390614db9565b61ffff16905250606085018051829190613f8b908390614a04565b905250613f9b9150829050614ab9565b9050613e2e565b50613fb6826040015161ffff166127101490565b613fec576040517fd7b03e8400000000000000000000000000000000000000000000000000000000815260040160405180910390fd5b9a9950505050505050505050565b6040516001600160a01b038085166024830152831660448201526064810182905261404b9085907f23b872dd000000000000000000000000000000000000000000000000000000009060840161220b565b50505050565b600061405e84600a614eba565b61406a90612710614a62565b61407584600a614eba565b61407f8488614a62565b6140899190614a62565b6140939190614a81565b95945050505050565b606083156140ab575081612269565b8251156140bb5782518084602001fd5b8160405162461bcd60e51b8152600401610d159190614cd0565b606060006140e4836002614a62565b6140ef906002614a04565b67ffffffffffffffff8111156141075761410761460b565b6040519080825280601f01601f191660200182016040528015614131576020820181803683370190505b5090507f30000000000000000000000000000000000000000000000000000000000000008160008151811061416857614168614aa3565b60200101906001600160f81b031916908160001a9053507f7800000000000000000000000000000000000000000000000000000000000000816001815181106141b3576141b3614aa3565b60200101906001600160f81b031916908160001a90535060006141d7846002614a62565b6141e2906001614a04565b90505b6001811115614267577f303132333435363738396162636465660000000000000000000000000000000085600f166010811061422357614223614aa3565b1a60f81b82828151811061423957614239614aa3565b60200101906001600160f81b031916908160001a90535060049490941c9361426081614ec9565b90506141e5565b5083156122695760405162461bcd60e51b815260206004820181905260248201527f537472696e67733a20686578206c656e67746820696e73756666696369656e746044820152606401610d15565b60006142c6600b80546001019055565b600060405180606001604052806142de8b89896130cc565b815260200188602001516001600160a01b031681526020016142ff600b5490565b9052602080820180516001600160a01b039081166000908152600c9093526040808420600101549251909116835290912054919250906143499061434290613d99565b88886130cc565b1115614381576040517fb010931500000000000000000000000000000000000000000000000000000000815260040160405180910390fd5b80516020808301516001600160a01b03166000908152600c9091526040812060010180549091906143b3908490614a04565b90915550506020808201516001600160a01b03166000908152600c9091526040812080548b92906143e5908490614a04565b90915550508051600680546000906143fe908490614a04565b9250508190555088600d60008282546144179190614a04565b9250508190555060405180608001604052808a8152602001336001600160a01b0316815260200182602001516001600160a01b031681526020018967ffffffffffffffff16815250600a6000836040015181526020019081526020016000206000820151816000015560208201518160010160006101000a8154816001600160a01b0302191690836001600160a01b0316021790555060408201518160020160006101000a8154816001600160a01b0302191690836001600160a01b031602179055506060820151816003015590505086602001516001600160a01b0316336001600160a01b031682604001517fb26a67c96199378f459c394f9a442f1a94d19837d1ac17c14e3d6366d98223088d8d866000015187602001518f8f604001518d8d60405161454d989796959493929190614ee0565b60405180910390a4604001519998505050505050505050565b60006020828403121561457857600080fd5b81356001600160e01b03198116811461226957600080fd5b6001600160a01b0381168114610e2957600080fd5b6000602082840312156145b757600080fd5b813561226981614590565b6000602082840312156145d457600080fd5b5035919050565b600080604083850312156145ee57600080fd5b82359150602083013561460081614590565b809150509250929050565b634e487b7160e01b600052604160045260246000fd5b6040516060810167ffffffffffffffff811182821017156146445761464461460b565b60405290565b604051601f8201601f1916810167ffffffffffffffff811182821017156146735761467361460b565b604052919050565b8035600f81900b811461468d57600080fd5b919050565b6000608082840312156146a457600080fd5b6040516080810181811067ffffffffffffffff821117156146c7576146c761460b565b60405282356146d581614590565b815260208301356146e581614590565b60208201526146f66040840161467b565b60408201526147076060840161467b565b60608201529392505050565b803561ffff8116811461468d57600080fd5b60006020828403121561473757600080fd5b61226982614713565b60008083601f84011261475257600080fd5b50813567ffffffffffffffff81111561476a57600080fd5b6020830191508360208260051b850101111561478557600080fd5b9250929050565b6000806000806000606086880312156147a457600080fd5b85356147af81614590565b9450602086013567ffffffffffffffff808211156147cc57600080fd5b6147d889838a01614740565b909650945060408801359150808211156147f157600080fd5b506147fe88828901614740565b969995985093965092949392505050565b60008060006040848603121561482457600080fd5b833561482f81614590565b9250602084013567ffffffffffffffff81111561484b57600080fd5b61485786828701614740565b9497909650939450505050565b600060c0828403121561487657600080fd5b50919050565b60006020828403121561488e57600080fd5b813567ffffffffffffffff8111156148a557600080fd5b6148b184828501614864565b949350505050565b6020808252825182820181905260009190848201906040850190845b818110156148f1578351835292840192918401916001016148d5565b50909695505050505050565b6000806040838503121561491057600080fd5b82359150602083013567ffffffffffffffff81111561492e57600080fd5b61493a85828601614864565b9150509250929050565b6000806000806080858703121561495a57600080fd5b843561496581614590565b966020860135965060408601359560600135945092505050565b60006020828403121561499157600080fd5b815161226981614590565b6000602082840312156149ae57600080fd5b8151801515811461226957600080fd5b6000602082840312156149d057600080fd5b5051919050565b634e487b7160e01b600052601160045260246000fd5b6000828210156149ff576149ff6149d7565b500390565b60008219821115614a1757614a176149d7565b500190565b600061ffff83811690831681811015614a3757614a376149d7565b039392505050565b600060208284031215614a5157600080fd5b815160ff8116811461226957600080fd5b6000816000190483118215151615614a7c57614a7c6149d7565b500290565b600082614a9e57634e487b7160e01b600052601260045260246000fd5b500490565b634e487b7160e01b600052603260045260246000fd5b6000600019821415614acd57614acd6149d7565b5060010190565b600060208284031215614ae657600080fd5b813567ffffffffffffffff8116811461226957600080fd5b6000808335601e19843603018112614b1557600080fd5b83018035915067ffffffffffffffff821115614b3057600080fd5b60200191503681900382131561478557600080fd5b600067ffffffffffffffff808316818516808303821115614b6857614b686149d7565b01949350505050565b6000808335601e19843603018112614b8857600080fd5b83018035915067ffffffffffffffff821115614ba357600080fd5b6020019150600581901b360382131561478557600080fd5b600060ff821660ff811415614bd257614bd26149d7565b60010192915050565b60005b83811015614bf6578181015183820152602001614bde565b8381111561404b5750506000910152565b60008251614c19818460208701614bdb565b9190910192915050565b7f416363657373436f6e74726f6c3a206163636f756e7420000000000000000000815260008351614c5b816017850160208801614bdb565b7f206973206d697373696e6720726f6c65200000000000000000000000000000006017918401918201528351614c98816028840160208801614bdb565b01602801949350505050565b60008151808452614cbc816020860160208601614bdb565b601f01601f19169290920160200192915050565b6020815260006122696020830184614ca4565b60008235605e19833603018112614c1957600080fd5b600060608236031215614d0b57600080fd5b614d13614621565b614d1c83614713565b8152602080840135614d2d81614590565b82820152604084013567ffffffffffffffff80821115614d4c57600080fd5b9085019036601f830112614d5f57600080fd5b813581811115614d7157614d7161460b565b614d83601f8201601f1916850161464a565b91508082523684828501011115614d9957600080fd5b808484018584013760009082019093019290925250604082015292915050565b600061ffff808316818516808303821115614b6857614b686149d7565b600181815b80851115614e11578160001904821115614df757614df76149d7565b80851615614e0457918102915b93841c9390800290614ddb565b509250929050565b600082614e2857506001610a5f565b81614e3557506000610a5f565b8160018114614e4b5760028114614e5557614e71565b6001915050610a5f565b60ff841115614e6657614e666149d7565b50506001821b610a5f565b5060208310610133831016604e8410600b8410161715614e94575081810a610a5f565b614e9e8383614dd6565b8060001904821115614eb257614eb26149d7565b029392505050565b600061226960ff841683614e19565b600081614ed857614ed86149d7565b506000190190565b8881528760208201528660408201526001600160a01b038616606082015267ffffffffffffffff8516608082015260e060a08201526000614f2460e0830186614ca4565b82810360c0840152838152838560208301376000602085830101526020601f19601f860116820101915050999850505050505050505056fea2646970667358221220c8851d869239f7bed15bd8844f25528c796b35495eccfc54e8364898747271c464736f6c634300080a0033",
  "devdoc": {
    "kind": "dev",
    "methods": {
      "addPool((address,address,int128,int128))": {
        "params": {
          "_param": "Swap pool params"
        }
      },
      "claimYield(address)": {
        "params": {
          "_to": "Address that will receive the yield."
        }
      },
      "constructor": {
        "params": {
          "_investPct": "Percentage of the total underlying to invest in the strategy",
          "_lossTolerancePct": "Loss tolerance when investing through the strategy",
          "_minLockPeriod": "Minimum lock period to deposit",
          "_owner": "Vault admin address",
          "_perfFeePct": "Performance fee percentage",
          "_swapPools": "Swap pools used to automatically convert tokens to underlying",
          "_treasury": "Treasury address to collect performance fee",
          "_underlying": "Underlying ERC20 token to use."
        }
      },
      "deposit((address,uint64,uint256,(uint16,address,bytes)[],string,uint256))": {
        "params": {
          "_params": "Deposit params"
        }
      },
      "depositForGroupId(uint256,(address,uint64,uint256,(uint16,address,bytes)[],string,uint256))": {
        "params": {
          "_groupId": "The group id for the new deposit",
          "_params": "Deposit params"
        }
      },
      "exitPaused()": {
        "details": "Returns true if the contract is exitPaused, and false otherwise."
      },
      "forceWithdraw(address,uint256[])": {
        "params": {
          "_ids": "Array with the ids of the deposits.",
          "_to": "Address that will receive the funds."
        }
      },
      "getRoleAdmin(bytes32)": {
        "details": "Returns the admin role that controls `role`. See {grantRole} and {revokeRole}. To change a role's admin, use {_setRoleAdmin}."
      },
      "getUnderlying()": {
        "returns": {
          "_0": "The address of the vault's main underlying token"
        }
      },
      "grantRole(bytes32,address)": {
        "details": "Grants `role` to `account`. If `account` had not been already granted `role`, emits a {RoleGranted} event. Requirements: - the caller must have ``role``'s admin role. May emit a {RoleGranted} event."
      },
      "hasRole(bytes32,address)": {
        "details": "Returns `true` if `account` has been granted `role`."
      },
      "investState()": {
        "returns": {
          "alreadyInvested": "already invested amount",
          "maxInvestableAmount": "maximum investable amount"
        }
      },
      "owner()": {
        "details": "Returns the address of the current owner."
      },
      "paused()": {
        "details": "Returns true if the contract is paused, and false otherwise."
      },
      "removePool(address)": {
        "params": {
          "_inputToken": "the token to remove"
        }
      },
      "renounceOwnership()": {
        "details": "Leaves the contract without owner. It will not be possible to call `onlyOwner` functions anymore. Can only be called by the current owner. NOTE: Renouncing ownership will leave the contract without an owner, thereby removing any functionality that is only available to the owner."
      },
      "renounceRole(bytes32,address)": {
        "details": "Revokes `role` from the calling account. Roles are often managed via {grantRole} and {revokeRole}: this function's purpose is to provide a mechanism for accounts to lose their privileges if they are compromised (such as when a trusted device is misplaced). If the calling account had been revoked `role`, emits a {RoleRevoked} event. Requirements: - the caller must be `account`. May emit a {RoleRevoked} event."
      },
      "revokeRole(bytes32,address)": {
        "details": "Revokes `role` from `account`. If `account` had been granted `role`, emits a {RoleRevoked} event. Requirements: - the caller must have ``role``'s admin role. May emit a {RoleRevoked} event."
      },
      "setInvestPct(uint16)": {
        "params": {
          "_investPct": "the new invest percentage"
        }
      },
      "setLossTolerancePct(uint16)": {
        "params": {
          "_pct": "the new investment fee estimated percentage."
        }
      },
      "setPerfFeePct(uint16)": {
        "params": {
          "_perfFeePct": "the new performance fee."
        }
      },
      "setStrategy(address)": {
        "params": {
          "_strategy": "the new strategy's address."
        }
      },
      "setTreasury(address)": {
        "params": {
          "_treasury": "the new strategy's address."
        }
      },
      "sponsor(address,uint256,uint256,uint256)": {
        "params": {
          "_amount": "Amount to sponsor.",
          "_inputToken": "The input token to deposit.",
          "_lockedUntil": "When the sponsor can unsponsor the amount."
        }
      },
      "totalUnderlyingMinusSponsored()": {
        "returns": {
          "_0": "Total amount of principal and yield help by the vault (not including sponsored amount and performance fee)."
        }
      },
      "transferOwnership(address)": {
        "params": {
          "_newOwner": "The new owner of the contract."
        }
      },
      "unsponsor(address,uint256[])": {
        "params": {
          "_ids": "Array with the ids of the deposits.",
          "_to": "Address that will receive the funds."
        }
      },
      "withdraw(address,uint256[])": {
        "params": {
          "_ids": "Array with the ids of the deposits.",
          "_to": "Address that will receive the funds."
        }
      },
      "yieldFor(address)": {
        "params": {
          "_to": "address to consider."
        },
        "returns": {
          "claimableYield": "claimable yield for @param _to, share of generated yield by @param _to,      and performance fee from generated yield"
        }
      }
    },
    "version": 1
  },
  "userdoc": {
    "events": {
      "CurveSwapPoolAdded(address,address,int128,int128)": {
        "notice": "Emitted when a new swap pool is added"
      },
      "CurveSwapPoolRemoved(address)": {
        "notice": "Emitted when a swap pool is removed"
      },
      "Sponsored(uint256,uint256,address,uint256)": {
        "notice": "Emitted when a new sponsor deposit is created"
      },
      "Swap(address,address,uint256,uint256)": {
        "notice": "Emitted after every swap"
      },
      "Unsponsored(uint256)": {
        "notice": "Emitted when an existing sponsor withdraws"
      }
    },
    "kind": "user",
    "methods": {
      "INVESTOR_ROLE()": {
        "notice": "Role allowed to invest/desinvest from strategy"
      },
      "MAX_DEPOSIT_LOCK_DURATION()": {
        "notice": "Maximum lock for each deposit"
      },
      "MAX_SPONSOR_LOCK_DURATION()": {
        "notice": "Maximum lock for each sponsor"
      },
      "MIN_SPONSOR_LOCK_DURATION()": {
        "notice": "Minimum lock for each sponsor"
      },
      "SETTINGS_ROLE()": {
        "notice": "Role allowed to change settings such as performance fee and investment fee"
      },
      "SHARES_MULTIPLIER()": {
        "notice": "Helper constant for computing shares without losing precision"
      },
      "SPONSOR_ROLE()": {
        "notice": "Role for sponsors allowed to call sponsor/unsponsor"
      },
      "accumulatedPerfFee()": {
        "notice": "Current accumulated performance fee;"
      },
      "addPool((address,address,int128,int128))": {
        "notice": "Adds a new curve swap pool from an input token to {underlying}"
      },
      "claimYield(address)": {
        "notice": "Accumulate performance fee and transfers rest yield generated for the caller to"
      },
      "claimer(address)": {
        "notice": "claimer address => claimer data"
      },
      "deposit((address,uint64,uint256,(uint16,address,bytes)[],string,uint256))": {
        "notice": "Creates a new deposit"
      },
      "depositForGroupId(uint256,(address,uint64,uint256,(uint16,address,bytes)[],string,uint256))": {
        "notice": "Creates a new deposit using the specified group id"
      },
      "deposits(uint256)": {
        "notice": "deposit ID => deposit data"
      },
      "investPct()": {
        "notice": "Percentage of the total underlying to invest in the strategy"
      },
      "investState()": {
        "notice": "Calculate maximum investable amount and already invested amount"
      },
      "lossTolerancePct()": {
        "notice": "Loss tolerance pct"
      },
      "minLockPeriod()": {
        "notice": "Minimum lock period for each deposit"
      },
      "perfFeePct()": {
        "notice": "Performance fee percentage"
      },
      "removePool(address)": {
        "notice": "Removes an existing swap pool, and the ability to deposit the given token as underlying"
      },
      "setInvestPct(uint16)": {
        "notice": "Update invest percentage Emits {InvestPercentageUpdated} event"
      },
      "setLossTolerancePct(uint16)": {
        "notice": "Changes the estimated investment fee used by the strategy."
      },
      "setPerfFeePct(uint16)": {
        "notice": "Changes the performance fee used by the vault."
      },
      "setStrategy(address)": {
        "notice": "Changes the strategy used by the vault.if there is invested funds in previous strategy, it is not allowed to set new strategy."
      },
      "setTreasury(address)": {
        "notice": "Changes the treasury used by the vault."
      },
      "strategy()": {
        "notice": "The investment strategy"
      },
      "swappers(address)": {
        "notice": "token => curve pool (for trading token/underlying)"
      },
      "totalPrincipal()": {
        "notice": "The total of principal deposited"
      },
      "totalShares()": {
        "notice": "Total amount of shares"
      },
      "totalSponsored()": {
        "notice": "Total amount currently sponsored"
      },
      "totalUnderlying()": {
        "notice": "Total amount of underlying currently controlled by the vault and the its strategy."
      },
      "totalUnderlyingMinusSponsored()": {
        "notice": "Computes the total amount of principal + yield currently controlled by the vault and the strategy. The principal + yield is the total amount of underlying that can be claimed or withdrawn, excluding the sponsored amount and performance fee."
      },
      "transferOwnership(address)": {
        "notice": "Transfers ownership of the Vault to another account, revoking all of previous owner's roles and setting them up for the new owner.Can only be called by the current owner."
      },
      "treasury()": {
        "notice": "Treasury address to collect performance fee"
      },
      "underlying()": {
        "notice": "Underlying ERC20 token accepted by the vault"
      },
      "unsponsor(address,uint256[])": {
        "notice": "Withdraws the sponsored amount for the deposits with the ids provided"
      },
      "updateInvested()": {
        "notice": "Update the invested amount;"
      },
      "withdrawPerformanceFee()": {
        "notice": "Withdraws any pending performance fee amount back to the treasury"
      },
      "yieldFor(address)": {
        "notice": "Computes the amount of yield available for an an address."
      }
    },
    "notice": "A vault where other accounts can deposit an underlying token currency and set distribution params for their principal and yieldThe underlying token can be automatically swapped from any configured ERC20 token via {CurveSwapper}",
    "version": 1
  },
  "storageLayout": {
    "storage": [
      {
        "astId": 12351,
        "contract": "contracts/Vault.sol:Vault",
        "label": "swappers",
        "offset": 0,
        "slot": "0",
        "type": "t_mapping(t_address,t_struct(Swapper)12309_storage)"
      },
      {
        "astId": 70,
        "contract": "contracts/Vault.sol:Vault",
        "label": "_roles",
        "offset": 0,
        "slot": "1",
        "type": "t_mapping(t_bytes32,t_struct(RoleData)65_storage)"
      },
      {
        "astId": 670,
        "contract": "contracts/Vault.sol:Vault",
        "label": "_status",
        "offset": 0,
        "slot": "2",
        "type": "t_uint256"
      },
      {
        "astId": 569,
        "contract": "contracts/Vault.sol:Vault",
        "label": "_paused",
        "offset": 0,
        "slot": "3",
        "type": "t_bool"
      },
      {
        "astId": 9060,
        "contract": "contracts/Vault.sol:Vault",
        "label": "_exitPaused",
        "offset": 1,
        "slot": "3",
        "type": "t_bool"
      },
      {
        "astId": 446,
        "contract": "contracts/Vault.sol:Vault",
        "label": "_owner",
        "offset": 2,
        "slot": "3",
        "type": "t_address"
      },
      {
        "astId": 4052,
        "contract": "contracts/Vault.sol:Vault",
        "label": "underlying",
        "offset": 0,
        "slot": "4",
        "type": "t_contract(IERC20Metadata)1388"
      },
      {
        "astId": 4057,
        "contract": "contracts/Vault.sol:Vault",
        "label": "investPct",
        "offset": 20,
        "slot": "4",
        "type": "t_uint16"
      },
      {
        "astId": 4067,
        "contract": "contracts/Vault.sol:Vault",
        "label": "totalSponsored",
        "offset": 0,
        "slot": "5",
        "type": "t_uint256"
      },
      {
        "astId": 4072,
        "contract": "contracts/Vault.sol:Vault",
        "label": "totalShares",
        "offset": 0,
        "slot": "6",
        "type": "t_uint256"
      },
      {
        "astId": 4076,
        "contract": "contracts/Vault.sol:Vault",
        "label": "strategy",
        "offset": 0,
        "slot": "7",
        "type": "t_contract(IStrategy)11584"
      },
      {
        "astId": 4079,
        "contract": "contracts/Vault.sol:Vault",
        "label": "_depositGroupIds",
        "offset": 0,
        "slot": "8",
        "type": "t_uint256"
      },
      {
        "astId": 4083,
        "contract": "contracts/Vault.sol:Vault",
        "label": "depositGroupIdOwner",
        "offset": 0,
        "slot": "9",
        "type": "t_mapping(t_uint256,t_address)"
      },
      {
        "astId": 4089,
        "contract": "contracts/Vault.sol:Vault",
        "label": "deposits",
        "offset": 0,
        "slot": "10",
        "type": "t_mapping(t_uint256,t_struct(Deposit)12784_storage)"
      },
      {
        "astId": 4093,
        "contract": "contracts/Vault.sol:Vault",
        "label": "_depositTokenIds",
        "offset": 0,
        "slot": "11",
        "type": "t_struct(Counter)3083_storage"
      },
      {
        "astId": 4099,
        "contract": "contracts/Vault.sol:Vault",
        "label": "claimer",
        "offset": 0,
        "slot": "12",
        "type": "t_mapping(t_address,t_struct(Claimer)12789_storage)"
      },
      {
        "astId": 4102,
        "contract": "contracts/Vault.sol:Vault",
        "label": "totalPrincipal",
        "offset": 0,
        "slot": "13",
        "type": "t_uint256"
      },
      {
        "astId": 4105,
        "contract": "contracts/Vault.sol:Vault",
        "label": "treasury",
        "offset": 0,
        "slot": "14",
        "type": "t_address"
      },
      {
        "astId": 4108,
        "contract": "contracts/Vault.sol:Vault",
        "label": "perfFeePct",
        "offset": 20,
        "slot": "14",
        "type": "t_uint16"
      },
      {
        "astId": 4111,
        "contract": "contracts/Vault.sol:Vault",
        "label": "accumulatedPerfFee",
        "offset": 0,
        "slot": "15",
        "type": "t_uint256"
      },
      {
        "astId": 4114,
        "contract": "contracts/Vault.sol:Vault",
        "label": "lossTolerancePct",
        "offset": 0,
        "slot": "16",
        "type": "t_uint16"
      }
    ],
    "types": {
      "t_address": {
        "encoding": "inplace",
        "label": "address",
        "numberOfBytes": "20"
      },
      "t_bool": {
        "encoding": "inplace",
        "label": "bool",
        "numberOfBytes": "1"
      },
      "t_bytes32": {
        "encoding": "inplace",
        "label": "bytes32",
        "numberOfBytes": "32"
      },
      "t_contract(ICurve)8887": {
        "encoding": "inplace",
        "label": "contract ICurve",
        "numberOfBytes": "20"
      },
      "t_contract(IERC20Metadata)1388": {
        "encoding": "inplace",
        "label": "contract IERC20Metadata",
        "numberOfBytes": "20"
      },
      "t_contract(IStrategy)11584": {
        "encoding": "inplace",
        "label": "contract IStrategy",
        "numberOfBytes": "20"
      },
      "t_int128": {
        "encoding": "inplace",
        "label": "int128",
        "numberOfBytes": "16"
      },
      "t_mapping(t_address,t_bool)": {
        "encoding": "mapping",
        "key": "t_address",
        "label": "mapping(address => bool)",
        "numberOfBytes": "32",
        "value": "t_bool"
      },
      "t_mapping(t_address,t_struct(Claimer)12789_storage)": {
        "encoding": "mapping",
        "key": "t_address",
        "label": "mapping(address => struct IVault.Claimer)",
        "numberOfBytes": "32",
        "value": "t_struct(Claimer)12789_storage"
      },
      "t_mapping(t_address,t_struct(Swapper)12309_storage)": {
        "encoding": "mapping",
        "key": "t_address",
        "label": "mapping(address => struct CurveSwapper.Swapper)",
        "numberOfBytes": "32",
        "value": "t_struct(Swapper)12309_storage"
      },
      "t_mapping(t_bytes32,t_struct(RoleData)65_storage)": {
        "encoding": "mapping",
        "key": "t_bytes32",
        "label": "mapping(bytes32 => struct AccessControl.RoleData)",
        "numberOfBytes": "32",
        "value": "t_struct(RoleData)65_storage"
      },
      "t_mapping(t_uint256,t_address)": {
        "encoding": "mapping",
        "key": "t_uint256",
        "label": "mapping(uint256 => address)",
        "numberOfBytes": "32",
        "value": "t_address"
      },
      "t_mapping(t_uint256,t_struct(Deposit)12784_storage)": {
        "encoding": "mapping",
        "key": "t_uint256",
        "label": "mapping(uint256 => struct IVault.Deposit)",
        "numberOfBytes": "32",
        "value": "t_struct(Deposit)12784_storage"
      },
      "t_struct(Claimer)12789_storage": {
        "encoding": "inplace",
        "label": "struct IVault.Claimer",
        "members": [
          {
            "astId": 12786,
            "contract": "contracts/Vault.sol:Vault",
            "label": "totalPrincipal",
            "offset": 0,
            "slot": "0",
            "type": "t_uint256"
          },
          {
            "astId": 12788,
            "contract": "contracts/Vault.sol:Vault",
            "label": "totalShares",
            "offset": 0,
            "slot": "1",
            "type": "t_uint256"
          }
        ],
        "numberOfBytes": "64"
      },
      "t_struct(Counter)3083_storage": {
        "encoding": "inplace",
        "label": "struct Counters.Counter",
        "members": [
          {
            "astId": 3082,
            "contract": "contracts/Vault.sol:Vault",
            "label": "_value",
            "offset": 0,
            "slot": "0",
            "type": "t_uint256"
          }
        ],
        "numberOfBytes": "32"
      },
      "t_struct(Deposit)12784_storage": {
        "encoding": "inplace",
        "label": "struct IVault.Deposit",
        "members": [
          {
            "astId": 12774,
            "contract": "contracts/Vault.sol:Vault",
            "label": "amount",
            "offset": 0,
            "slot": "0",
            "type": "t_uint256"
          },
          {
            "astId": 12777,
            "contract": "contracts/Vault.sol:Vault",
            "label": "owner",
            "offset": 0,
            "slot": "1",
            "type": "t_address"
          },
          {
            "astId": 12780,
            "contract": "contracts/Vault.sol:Vault",
            "label": "claimerId",
            "offset": 0,
            "slot": "2",
            "type": "t_address"
          },
          {
            "astId": 12783,
            "contract": "contracts/Vault.sol:Vault",
            "label": "lockedUntil",
            "offset": 0,
            "slot": "3",
            "type": "t_uint256"
          }
        ],
        "numberOfBytes": "128"
      },
      "t_struct(RoleData)65_storage": {
        "encoding": "inplace",
        "label": "struct AccessControl.RoleData",
        "members": [
          {
            "astId": 62,
            "contract": "contracts/Vault.sol:Vault",
            "label": "members",
            "offset": 0,
            "slot": "0",
            "type": "t_mapping(t_address,t_bool)"
          },
          {
            "astId": 64,
            "contract": "contracts/Vault.sol:Vault",
            "label": "adminRole",
            "offset": 0,
            "slot": "1",
            "type": "t_bytes32"
          }
        ],
        "numberOfBytes": "64"
      },
      "t_struct(Swapper)12309_storage": {
        "encoding": "inplace",
        "label": "struct CurveSwapper.Swapper",
        "members": [
          {
            "astId": 12296,
            "contract": "contracts/Vault.sol:Vault",
            "label": "pool",
            "offset": 0,
            "slot": "0",
            "type": "t_contract(ICurve)8887"
          },
          {
            "astId": 12299,
            "contract": "contracts/Vault.sol:Vault",
            "label": "tokenDecimals",
            "offset": 20,
            "slot": "0",
            "type": "t_uint8"
          },
          {
            "astId": 12302,
            "contract": "contracts/Vault.sol:Vault",
            "label": "underlyingDecimals",
            "offset": 21,
            "slot": "0",
            "type": "t_uint8"
          },
          {
            "astId": 12305,
            "contract": "contracts/Vault.sol:Vault",
            "label": "tokenI",
            "offset": 0,
            "slot": "1",
            "type": "t_int128"
          },
          {
            "astId": 12308,
            "contract": "contracts/Vault.sol:Vault",
            "label": "underlyingI",
            "offset": 16,
            "slot": "1",
            "type": "t_int128"
          }
        ],
        "numberOfBytes": "64"
      },
      "t_uint16": {
        "encoding": "inplace",
        "label": "uint16",
        "numberOfBytes": "2"
      },
      "t_uint256": {
        "encoding": "inplace",
        "label": "uint256",
        "numberOfBytes": "32"
      },
      "t_uint8": {
        "encoding": "inplace",
        "label": "uint8",
        "numberOfBytes": "1"
      }
    }
  }
}