{
  "address": "0x4C09E88594635393DBfD4fda6C842a051573c32C",
  "abi": [
    {
      "inputs": [
        {
          "internalType": "address",
          "name": "_vault",
          "type": "address"
        },
        {
          "internalType": "address",
          "name": "_admin",
          "type": "address"
        },
        {
          "internalType": "address",
          "name": "_yVault",
          "type": "address"
        },
        {
          "internalType": "address",
          "name": "_underlying",
          "type": "address"
        }
      ],
      "stateMutability": "nonpayable",
      "type": "constructor"
    },
    {
      "inputs": [],
      "name": "StrategyAdminCannotBe0Address",
      "type": "error"
    },
    {
      "inputs": [],
      "name": "StrategyAmountZero",
      "type": "error"
    },
    {
      "inputs": [],
      "name": "StrategyCallerNotAdmin",
      "type": "error"
    },
    {
      "inputs": [],
      "name": "StrategyCallerNotManager",
      "type": "error"
    },
    {
      "inputs": [],
      "name": "StrategyCallerNotSettings",
      "type": "error"
    },
    {
      "inputs": [],
      "name": "StrategyCannotTransferAdminRightsToSelf",
      "type": "error"
    },
    {
      "inputs": [],
      "name": "StrategyMaxLossOnWithdrawTooLarge",
      "type": "error"
    },
    {
      "inputs": [],
      "name": "StrategyNoUnderlying",
      "type": "error"
    },
    {
      "inputs": [],
      "name": "StrategyNotEnoughShares",
      "type": "error"
    },
    {
      "inputs": [],
      "name": "StrategyNotIVault",
      "type": "error"
    },
    {
      "inputs": [],
      "name": "StrategyNotRunning",
      "type": "error"
    },
    {
      "inputs": [],
      "name": "StrategyUnderlyingCannotBe0Address",
      "type": "error"
    },
    {
      "inputs": [],
      "name": "StrategyYearnVaultCannotBe0Address",
      "type": "error"
    },
    {
      "inputs": [],
      "name": "VaultAmountDoesNotMatchParams",
      "type": "error"
    },
    {
      "inputs": [],
      "name": "VaultAmountLocked",
      "type": "error"
    },
    {
      "inputs": [],
      "name": "VaultCannotComputeSharesWithoutPrincipal",
      "type": "error"
    },
    {
      "inputs": [],
      "name": "VaultCannotDeposit0",
      "type": "error"
    },
    {
      "inputs": [],
      "name": "VaultCannotDepositWhenClaimerInDebt",
      "type": "error"
    },
    {
      "inputs": [],
      "name": "VaultCannotDepositWhenYieldNegative",
      "type": "error"
    },
    {
      "inputs": [],
      "name": "VaultCannotSponsor0",
      "type": "error"
    },
    {
      "inputs": [],
      "name": "VaultCannotTransferOwnershipToSelf",
      "type": "error"
    },
    {
      "inputs": [],
      "name": "VaultCannotWithdrawMoreThanAvailable",
      "type": "error"
    },
    {
      "inputs": [],
      "name": "VaultCannotWithdrawWhenYieldNegative",
      "type": "error"
    },
    {
      "inputs": [],
      "name": "VaultClaimPercentageCannotBe0",
      "type": "error"
    },
    {
      "inputs": [],
      "name": "VaultClaimerCannotBe0",
      "type": "error"
    },
    {
      "inputs": [],
      "name": "VaultClaimsDontAddUp",
      "type": "error"
    },
    {
      "inputs": [],
      "name": "VaultDepositLocked",
      "type": "error"
    },
    {
      "inputs": [],
      "name": "VaultDepositNameTooShort",
      "type": "error"
    },
    {
      "inputs": [],
      "name": "VaultDestinationCannotBe0Address",
      "type": "error"
    },
    {
      "inputs": [],
      "name": "VaultInvalidInvestpct",
      "type": "error"
    },
    {
      "inputs": [],
      "name": "VaultInvalidLockPeriod",
      "type": "error"
    },
    {
      "inputs": [],
      "name": "VaultInvalidLossTolerance",
      "type": "error"
    },
    {
      "inputs": [],
      "name": "VaultInvalidMinLockPeriod",
      "type": "error"
    },
    {
      "inputs": [],
      "name": "VaultInvalidPerformanceFee",
      "type": "error"
    },
    {
      "inputs": [],
      "name": "VaultInvalidVault",
      "type": "error"
    },
    {
      "inputs": [],
      "name": "VaultNoPerformanceFee",
      "type": "error"
    },
    {
      "inputs": [],
      "name": "VaultNoYieldToClaim",
      "type": "error"
    },
    {
      "inputs": [],
      "name": "VaultNotAllowed",
      "type": "error"
    },
    {
      "inputs": [],
      "name": "VaultNotDeposit",
      "type": "error"
    },
    {
      "inputs": [],
      "name": "VaultNotEnoughFunds",
      "type": "error"
    },
    {
      "inputs": [],
      "name": "VaultNotEnoughToRebalance",
      "type": "error"
    },
    {
      "inputs": [],
      "name": "VaultNotOwnerOfDeposit",
      "type": "error"
    },
    {
      "inputs": [],
      "name": "VaultNotSponsor",
      "type": "error"
    },
    {
      "inputs": [],
      "name": "VaultNothingToDo",
      "type": "error"
    },
    {
      "inputs": [],
      "name": "VaultOwnerCannotBe0Address",
      "type": "error"
    },
    {
      "inputs": [],
      "name": "VaultSenderNotOwnerOfGroupId",
      "type": "error"
    },
    {
      "inputs": [],
      "name": "VaultStrategyHasInvestedFunds",
      "type": "error"
    },
    {
      "inputs": [],
      "name": "VaultStrategyNotSet",
      "type": "error"
    },
    {
      "inputs": [],
      "name": "VaultTreasuryCannotBe0Address",
      "type": "error"
    },
    {
      "inputs": [],
      "name": "VaultUnderlyingCannotBe0Address",
      "type": "error"
    },
    {
      "anonymous": false,
      "inputs": [
        {
          "indexed": true,
          "internalType": "bytes32",
          "name": "role",
          "type": "bytes32"
        },
        {
          "indexed": true,
          "internalType": "bytes32",
          "name": "previousAdminRole",
          "type": "bytes32"
        },
        {
          "indexed": true,
          "internalType": "bytes32",
          "name": "newAdminRole",
          "type": "bytes32"
        }
      ],
      "name": "RoleAdminChanged",
      "type": "event"
    },
    {
      "anonymous": false,
      "inputs": [
        {
          "indexed": true,
          "internalType": "bytes32",
          "name": "role",
          "type": "bytes32"
        },
        {
          "indexed": true,
          "internalType": "address",
          "name": "account",
          "type": "address"
        },
        {
          "indexed": true,
          "internalType": "address",
          "name": "sender",
          "type": "address"
        }
      ],
      "name": "RoleGranted",
      "type": "event"
    },
    {
      "anonymous": false,
      "inputs": [
        {
          "indexed": true,
          "internalType": "bytes32",
          "name": "role",
          "type": "bytes32"
        },
        {
          "indexed": true,
          "internalType": "address",
          "name": "account",
          "type": "address"
        },
        {
          "indexed": true,
          "internalType": "address",
          "name": "sender",
          "type": "address"
        }
      ],
      "name": "RoleRevoked",
      "type": "event"
    },
    {
      "anonymous": false,
      "inputs": [
        {
          "indexed": false,
          "internalType": "uint256",
          "name": "amount",
          "type": "uint256"
        }
      ],
      "name": "StrategyInvested",
      "type": "event"
    },
    {
      "anonymous": false,
      "inputs": [
        {
          "indexed": false,
          "internalType": "uint256",
          "name": "maxLoss",
          "type": "uint256"
        }
      ],
      "name": "StrategyMaxLossOnWithdrawChanged",
      "type": "event"
    },
    {
      "anonymous": false,
      "inputs": [
        {
          "indexed": false,
          "internalType": "uint256",
          "name": "amount",
          "type": "uint256"
        }
      ],
      "name": "StrategyWithdrawn",
      "type": "event"
    },
    {
      "inputs": [],
      "name": "DEFAULT_ADMIN_ROLE",
      "outputs": [
        {
          "internalType": "bytes32",
          "name": "",
          "type": "bytes32"
        }
      ],
      "stateMutability": "view",
      "type": "function"
    },
    {
      "inputs": [],
      "name": "MANAGER_ROLE",
      "outputs": [
        {
          "internalType": "bytes32",
          "name": "",
          "type": "bytes32"
        }
      ],
      "stateMutability": "view",
      "type": "function"
    },
    {
      "inputs": [],
      "name": "SETTINGS_ROLE",
      "outputs": [
        {
          "internalType": "bytes32",
          "name": "",
          "type": "bytes32"
        }
      ],
      "stateMutability": "view",
      "type": "function"
    },
    {
      "inputs": [],
      "name": "conversionMultiplier",
      "outputs": [
        {
          "internalType": "uint128",
          "name": "",
          "type": "uint128"
        }
      ],
      "stateMutability": "view",
      "type": "function"
    },
    {
      "inputs": [
        {
          "internalType": "bytes32",
          "name": "role",
          "type": "bytes32"
        }
      ],
      "name": "getRoleAdmin",
      "outputs": [
        {
          "internalType": "bytes32",
          "name": "",
          "type": "bytes32"
        }
      ],
      "stateMutability": "view",
      "type": "function"
    },
    {
      "inputs": [
        {
          "internalType": "bytes32",
          "name": "role",
          "type": "bytes32"
        },
        {
          "internalType": "address",
          "name": "account",
          "type": "address"
        }
      ],
      "name": "grantRole",
      "outputs": [],
      "stateMutability": "nonpayable",
      "type": "function"
    },
    {
      "inputs": [],
      "name": "hasAssets",
      "outputs": [
        {
          "internalType": "bool",
          "name": "",
          "type": "bool"
        }
      ],
      "stateMutability": "view",
      "type": "function"
    },
    {
      "inputs": [
        {
          "internalType": "bytes32",
          "name": "role",
          "type": "bytes32"
        },
        {
          "internalType": "address",
          "name": "account",
          "type": "address"
        }
      ],
      "name": "hasRole",
      "outputs": [
        {
          "internalType": "bool",
          "name": "",
          "type": "bool"
        }
      ],
      "stateMutability": "view",
      "type": "function"
    },
    {
      "inputs": [],
      "name": "invest",
      "outputs": [],
      "stateMutability": "nonpayable",
      "type": "function"
    },
    {
      "inputs": [],
      "name": "investedAssets",
      "outputs": [
        {
          "internalType": "uint256",
          "name": "",
          "type": "uint256"
        }
      ],
      "stateMutability": "view",
      "type": "function"
    },
    {
      "inputs": [],
      "name": "isSync",
      "outputs": [
        {
          "internalType": "bool",
          "name": "",
          "type": "bool"
        }
      ],
      "stateMutability": "pure",
      "type": "function"
    },
    {
      "inputs": [],
      "name": "maxLossOnWithdraw",
      "outputs": [
        {
          "internalType": "uint128",
          "name": "",
          "type": "uint128"
        }
      ],
      "stateMutability": "view",
      "type": "function"
    },
    {
      "inputs": [
        {
          "internalType": "bytes32",
          "name": "role",
          "type": "bytes32"
        },
        {
          "internalType": "address",
          "name": "account",
          "type": "address"
        }
      ],
      "name": "renounceRole",
      "outputs": [],
      "stateMutability": "nonpayable",
      "type": "function"
    },
    {
      "inputs": [
        {
          "internalType": "bytes32",
          "name": "role",
          "type": "bytes32"
        },
        {
          "internalType": "address",
          "name": "account",
          "type": "address"
        }
      ],
      "name": "revokeRole",
      "outputs": [],
      "stateMutability": "nonpayable",
      "type": "function"
    },
    {
      "inputs": [
        {
          "internalType": "uint128",
          "name": "_maxLoss",
          "type": "uint128"
        }
      ],
      "name": "setMaxLossOnWithdraw",
      "outputs": [],
      "stateMutability": "nonpayable",
      "type": "function"
    },
    {
      "inputs": [
        {
          "internalType": "bytes4",
          "name": "interfaceId",
          "type": "bytes4"
        }
      ],
      "name": "supportsInterface",
      "outputs": [
        {
          "internalType": "bool",
          "name": "",
          "type": "bool"
        }
      ],
      "stateMutability": "view",
      "type": "function"
    },
    {
      "inputs": [
        {
          "internalType": "address",
          "name": "_newAdmin",
          "type": "address"
        }
      ],
      "name": "transferAdminRights",
      "outputs": [],
      "stateMutability": "nonpayable",
      "type": "function"
    },
    {
      "inputs": [],
      "name": "underlying",
      "outputs": [
        {
          "internalType": "contract IERC20",
          "name": "",
          "type": "address"
        }
      ],
      "stateMutability": "view",
      "type": "function"
    },
    {
      "inputs": [],
      "name": "vault",
      "outputs": [
        {
          "internalType": "address",
          "name": "",
          "type": "address"
        }
      ],
      "stateMutability": "view",
      "type": "function"
    },
    {
      "inputs": [
        {
          "internalType": "uint256",
          "name": "_amount",
          "type": "uint256"
        }
      ],
      "name": "withdrawToVault",
      "outputs": [],
      "stateMutability": "nonpayable",
      "type": "function"
    },
    {
      "inputs": [],
      "name": "yVault",
      "outputs": [
        {
          "internalType": "contract IYearnVault",
          "name": "",
          "type": "address"
        }
      ],
      "stateMutability": "view",
      "type": "function"
    }
  ],
  "transactionHash": "0xb95621b9aa3e934d1abc6d9818fb257500a1c0b4438912f7170981e01f11abfb",
  "args": [
    "0xBBB08bba6fc4F5C17EF001e508FB72912916820E",
    "0x84f67f75DAf6D57Aef500E0c85C77B7b3bBc92A9",
    "0x378cb52b00F9D0921cb46dFc099CFf73b42419dC",
    "0x5f98805A4E8be255a32880FDeC7F6728C6568bA0"
  ],
  "numDeployments": 1,
  "solcInputHash": "80fd616d15f4adcdc5382c968b375311",
  "bytecode": "0x610100604052600180546001600160801b031916811790553480156200002457600080fd5b5060405162001ec238038062001ec2833981016040819052620000479162000438565b6001600160a01b0383166200006f57604051638f6e893360e01b815260040160405180910390fd5b6001600160a01b0382166200009757604051631d97a8dd60e31b815260040160405180910390fd5b6001600160a01b038116620000bf576040516301010feb60e61b815260040160405180910390fd5b620000e96321d982ed60e01b856001600160a01b03166200028460201b62000b801790919060201c565b620001075760405163d7e681d160e01b815260040160405180910390fd5b6200011460008462000337565b620001407ffaf9b26485088dee58863e57c46603d6cdcbadc7475ac6d8910fab0ecf6030958462000337565b6200016c7f241ecf16d79d0f8dbfb92cbc07fe17840425976cf0667f022fe9877caa831b088562000337565b6001600160a01b0380851660a052821660c08190526040805163313ce56760e01b8152905163313ce567916004808201926020929091908290030181865afa158015620001bd573d6000803e3d6000fd5b505050506040513d601f19601f82011682018060405250810190620001e3919062000495565b620001f090600a620005c2565b6001600160801b031660e0526001600160a01b03818116608081905260405163095ea7b360e01b8152918416600483015260001960248301529063095ea7b3906044016020604051808303816000875af115801562000253573d6000803e3d6000fd5b505050506040513d601f19601f82011682018060405250810190620002799190620005d7565b5050505050620005fb565b600080806200029b856301ffc9a760e01b62000347565b9092509050811580620002ac575080155b15620002be5760009250505062000331565b620002d2856001600160e01b031962000347565b9092509050811580620002e457508015155b15620002f65760009250505062000331565b62000302858562000347565b9092509050600182148015620003185750806001145b156200032a5760019250505062000331565b6000925050505b92915050565b6200034382826200037b565b5050565b6040516301ffc9a760e01b8082526004820183905260009182919060208160248189617530fa905190969095509350505050565b6000828152602081815260408083206001600160a01b038516845290915290205460ff1662000343576000828152602081815260408083206001600160a01b03851684529091529020805460ff19166001179055620003d73390565b6001600160a01b0316816001600160a01b0316837f2f8788117e7eff1d82e926ec794901d17c78024a50270940304540a733656f0d60405160405180910390a45050565b80516001600160a01b03811681146200043357600080fd5b919050565b600080600080608085870312156200044f57600080fd5b6200045a856200041b565b93506200046a602086016200041b565b92506200047a604086016200041b565b91506200048a606086016200041b565b905092959194509250565b600060208284031215620004a857600080fd5b5051919050565b634e487b7160e01b600052601160045260246000fd5b600181815b8085111562000506578160001904821115620004ea57620004ea620004af565b80851615620004f857918102915b93841c9390800290620004ca565b509250929050565b6000826200051f5750600162000331565b816200052e5750600062000331565b8160018114620005475760028114620005525762000572565b600191505062000331565b60ff841115620005665762000566620004af565b50506001821b62000331565b5060208310610133831016604e8410600b841016171562000597575081810a62000331565b620005a38383620004c5565b8060001904821115620005ba57620005ba620004af565b029392505050565b6000620005d083836200050e565b9392505050565b600060208284031215620005ea57600080fd5b81518015158114620005d057600080fd5b60805160a05160c05160e0516118476200067b6000396000818161032201528181610e280152610f810152600081816101ef015281816107ad01528181610ac501528181610ded01528181610e520152610ef40152600081816103b20152610862015260008181610251015281816108400152610d6101526118476000f3fe608060405234801561001057600080fd5b50600436106101775760003560e01c8063a217fddf116100d8578063d9c83fb51161008c578063ec87621c11610066578063ec87621c1461035f578063f628988714610386578063fbfa77cf146103ad57600080fd5b8063d9c83fb51461031d578063df5fffc814610344578063e8b5e51f1461035757600080fd5b8063b5106add116100bd578063b5106add146102e4578063ce8c42e8146102f7578063d547741f1461030a57600080fd5b8063a217fddf146102b1578063b09820ad146102b957600080fd5b80634ad0b6841161012f5780636f307dc3116101145780636f307dc31461024c57806391d14854146102735780639af2e635146102aa57600080fd5b80634ad0b6841461023c5780635be9b2d31461024457600080fd5b80632f2ff15d116101605780632f2ff15d146101d557806333303f8e146101ea57806336568abe1461022957600080fd5b806301ffc9a71461017c578063248a9ca3146101a4575b600080fd5b61018f61018a36600461153e565b6103d4565b60405190151581526020015b60405180910390f35b6101c76101b2366004611568565b60009081526020819052604090206001015490565b60405190815260200161019b565b6101e86101e336600461159d565b610424565b005b6102117f000000000000000000000000000000000000000000000000000000000000000081565b6040516001600160a01b03909116815260200161019b565b6101e861023736600461159d565b61044e565b6101c76104df565b61018f610508565b6102117f000000000000000000000000000000000000000000000000000000000000000081565b61018f61028136600461159d565b6000918252602082815260408084206001600160a01b0393909316845291905290205460ff1690565b600161018f565b6101c7600081565b6001546102cc906001600160801b031681565b6040516001600160801b03909116815260200161019b565b6101e86102f23660046115c9565b610519565b6101e8610305366004611568565b610671565b6101e861031836600461159d565b6108bf565b6102cc7f000000000000000000000000000000000000000000000000000000000000000081565b6101e86103523660046115e4565b6108e4565b6101e86109fd565b6101c77f241ecf16d79d0f8dbfb92cbc07fe17840425976cf0667f022fe9877caa831b0881565b6101c77ffaf9b26485088dee58863e57c46603d6cdcbadc7475ac6d8910fab0ecf60309581565b6102117f000000000000000000000000000000000000000000000000000000000000000081565b60006001600160e01b031982167f7965db0b00000000000000000000000000000000000000000000000000000000148061041e57506301ffc9a760e01b6001600160e01b03198316145b92915050565b60008281526020819052604090206001015461043f81610c22565b6104498383610c2c565b505050565b6001600160a01b03811633146104d15760405162461bcd60e51b815260206004820152602f60248201527f416363657373436f6e74726f6c3a2063616e206f6e6c792072656e6f756e636560448201527f20726f6c657320666f722073656c66000000000000000000000000000000000060648201526084015b60405180910390fd5b6104db8282610cca565b5050565b60006104e9610d49565b6104f96104f4610dd5565b610e24565b6105039190611623565b905090565b6000610512610dd5565b1515919050565b3360009081527fad3228b676f7d3cd4284a5443f17f1962b36e491b30a40b2405849e597ba5fb5602052604090205460ff16610581576040517ff0e8368a00000000000000000000000000000000000000000000000000000000815260040160405180910390fd5b6001600160a01b0381166105c1576040517f8f6e893300000000000000000000000000000000000000000000000000000000815260040160405180910390fd5b6001600160a01b038116331415610604576040517f8fbf788d00000000000000000000000000000000000000000000000000000000815260040160405180910390fd5b61060f600082610ee6565b6106397ffaf9b26485088dee58863e57c46603d6cdcbadc7475ac6d8910fab0ecf60309582610ee6565b610644600033610cca565b61066e7ffaf9b26485088dee58863e57c46603d6cdcbadc7475ac6d8910fab0ecf60309533610cca565b50565b3360009081527fe84508f2c7fa9c351146748b3025cb78b45df37d868e48c6a75102fecdeee645602052604090205460ff166106c057604051634cc2cd3760e11b815260040160405180910390fd5b806106f7576040517fd45ab8b600000000000000000000000000000000000000000000000000000000815260040160405180910390fd5b6000610701610d49565b90508082111561083357600061071f61071a838561163b565b610ef0565b9050610729610dd5565b811115610762576040517f8396942200000000000000000000000000000000000000000000000000000000815260040160405180910390fd5b6001546040517fe63697c8000000000000000000000000000000000000000000000000000000008152600481018390523060248201526001600160801b0390911660448201526000907f00000000000000000000000000000000000000000000000000000000000000006001600160a01b03169063e63697c8906064016020604051808303816000875af11580156107fe573d6000803e3d6000fd5b505050506040513d601f19601f820116820180604052508101906108229190611652565b905061082e8184611623565b935050505b6108876001600160a01b037f0000000000000000000000000000000000000000000000000000000000000000167f000000000000000000000000000000000000000000000000000000000000000084610fa7565b6040518281527f35c4c11317fd96ffa30da51e0a4b85219c4b0f56c1507c3afefe79de0c47ef54906020015b60405180910390a15050565b6000828152602081905260409020600101546108da81610c22565b6104498383610cca565b3360009081527f36fe723da0d85a4c7acef11a805a080284ea91d0f6591ba1fc9b9c7ef3840adc602052604090205460ff1661094c576040517f70c4ee8d00000000000000000000000000000000000000000000000000000000815260040160405180910390fd5b612710816001600160801b03161115610991576040517f4368b5c400000000000000000000000000000000000000000000000000000000815260040160405180910390fd5b600180547fffffffffffffffffffffffffffffffff00000000000000000000000000000000166001600160801b0383169081179091556040519081527f3e529cb895baac79fb1aebca59e62bff108d38e35b216da22bf64844fcb81c559060200160405180910390a150565b3360009081527fe84508f2c7fa9c351146748b3025cb78b45df37d868e48c6a75102fecdeee645602052604090205460ff16610a4c57604051634cc2cd3760e11b815260040160405180910390fd5b6000610a56610d49565b905080610a8f576040517f378a16c900000000000000000000000000000000000000000000000000000000815260040160405180910390fd5b6040517f6e553f6500000000000000000000000000000000000000000000000000000000815260001960048201523060248201527f00000000000000000000000000000000000000000000000000000000000000006001600160a01b031690636e553f65906044016020604051808303816000875af1158015610b16573d6000803e3d6000fd5b505050506040513d601f19601f82011682018060405250810190610b3a9190611652565b506000610b45610d49565b90507fc68748140896ba027a48ebf3a24735d0afb4ab835f92c4815ddb34f9d6dfd18a610b72828461163b565b6040519081526020016108b3565b60008080610b95856301ffc9a760e01b611027565b9092509050811580610ba5575080155b15610bb55760009250505061041e565b610bc7856001600160e01b0319611027565b9092509050811580610bd857508015155b15610be85760009250505061041e565b610bf28585611027565b9092509050600182148015610c075750806001145b15610c175760019250505061041e565b506000949350505050565b61066e813361105b565b6000828152602081815260408083206001600160a01b038516845290915290205460ff166104db576000828152602081815260408083206001600160a01b03851684529091529020805460ff19166001179055610c863390565b6001600160a01b0316816001600160a01b0316837f2f8788117e7eff1d82e926ec794901d17c78024a50270940304540a733656f0d60405160405180910390a45050565b6000828152602081815260408083206001600160a01b038516845290915290205460ff16156104db576000828152602081815260408083206001600160a01b0385168085529252808320805460ff1916905551339285917ff6391f5c32d9c69d2a47ea670b442974b53935d1edc7fd64eb21e047a839171b9190a45050565b6040516370a0823160e01b81523060048201526000907f00000000000000000000000000000000000000000000000000000000000000006001600160a01b0316906370a08231906024015b602060405180830381865afa158015610db1573d6000803e3d6000fd5b505050506040513d601f19601f820116820180604052508101906105039190611652565b6040516370a0823160e01b81523060048201526000907f00000000000000000000000000000000000000000000000000000000000000006001600160a01b0316906370a0823190602401610d94565b60007f00000000000000000000000000000000000000000000000000000000000000006001600160801b03167f00000000000000000000000000000000000000000000000000000000000000006001600160a01b03166399530b066040518163ffffffff1660e01b8152600401602060405180830381865afa158015610eae573d6000803e3d6000fd5b505050506040513d601f19601f82011682018060405250810190610ed29190611652565b610edc908461166b565b61041e919061168a565b6104db8282610c2c565b60007f00000000000000000000000000000000000000000000000000000000000000006001600160a01b03166399530b066040518163ffffffff1660e01b8152600401602060405180830381865afa158015610f50573d6000803e3d6000fd5b505050506040513d601f19601f82011682018060405250810190610f749190611652565b610edc6001600160801b037f0000000000000000000000000000000000000000000000000000000000000000168461166b565b604080516001600160a01b038416602482015260448082018490528251808303909101815260649091019091526020810180517bffffffffffffffffffffffffffffffffffffffffffffffffffffffff167fa9059cbb000000000000000000000000000000000000000000000000000000001790526104499084906110d9565b6040516301ffc9a760e01b8082526004820183905260009182919060208160248189617530fa905190969095509350505050565b6000828152602081815260408083206001600160a01b038516845290915290205460ff166104db57611097816001600160a01b031660146111be565b6110a28360206111be565b6040516020016110b39291906116dc565b60408051601f198184030181529082905262461bcd60e51b82526104c89160040161175d565b600061112e826040518060400160405280602081526020017f5361666545524332303a206c6f772d6c6576656c2063616c6c206661696c6564815250856001600160a01b03166113a69092919063ffffffff16565b805190915015610449578080602001905181019061114c9190611790565b6104495760405162461bcd60e51b815260206004820152602a60248201527f5361666545524332303a204552433230206f7065726174696f6e20646964206e60448201527f6f7420737563636565640000000000000000000000000000000000000000000060648201526084016104c8565b606060006111cd83600261166b565b6111d8906002611623565b67ffffffffffffffff8111156111f0576111f06117b2565b6040519080825280601f01601f19166020018201604052801561121a576020820181803683370190505b5090507f300000000000000000000000000000000000000000000000000000000000000081600081518110611251576112516117c8565b60200101906001600160f81b031916908160001a9053507f78000000000000000000000000000000000000000000000000000000000000008160018151811061129c5761129c6117c8565b60200101906001600160f81b031916908160001a90535060006112c084600261166b565b6112cb906001611623565b90505b6001811115611350577f303132333435363738396162636465660000000000000000000000000000000085600f166010811061130c5761130c6117c8565b1a60f81b828281518110611322576113226117c8565b60200101906001600160f81b031916908160001a90535060049490941c93611349816117de565b90506112ce565b50831561139f5760405162461bcd60e51b815260206004820181905260248201527f537472696e67733a20686578206c656e67746820696e73756666696369656e7460448201526064016104c8565b9392505050565b60606113b584846000856113bd565b949350505050565b6060824710156114355760405162461bcd60e51b815260206004820152602660248201527f416464726573733a20696e73756666696369656e742062616c616e636520666f60448201527f722063616c6c000000000000000000000000000000000000000000000000000060648201526084016104c8565b6001600160a01b0385163b61148c5760405162461bcd60e51b815260206004820152601d60248201527f416464726573733a2063616c6c20746f206e6f6e2d636f6e747261637400000060448201526064016104c8565b600080866001600160a01b031685876040516114a891906117f5565b60006040518083038185875af1925050503d80600081146114e5576040519150601f19603f3d011682016040523d82523d6000602084013e6114ea565b606091505b50915091506114fa828286611505565b979650505050505050565b6060831561151457508161139f565b8251156115245782518084602001fd5b8160405162461bcd60e51b81526004016104c8919061175d565b60006020828403121561155057600080fd5b81356001600160e01b03198116811461139f57600080fd5b60006020828403121561157a57600080fd5b5035919050565b80356001600160a01b038116811461159857600080fd5b919050565b600080604083850312156115b057600080fd5b823591506115c060208401611581565b90509250929050565b6000602082840312156115db57600080fd5b61139f82611581565b6000602082840312156115f657600080fd5b81356001600160801b038116811461139f57600080fd5b634e487b7160e01b600052601160045260246000fd5b600082198211156116365761163661160d565b500190565b60008282101561164d5761164d61160d565b500390565b60006020828403121561166457600080fd5b5051919050565b60008160001904831182151516156116855761168561160d565b500290565b6000826116a757634e487b7160e01b600052601260045260246000fd5b500490565b60005b838110156116c75781810151838201526020016116af565b838111156116d6576000848401525b50505050565b7f416363657373436f6e74726f6c3a206163636f756e74200000000000000000008152600083516117148160178501602088016116ac565b7f206973206d697373696e6720726f6c652000000000000000000000000000000060179184019182015283516117518160288401602088016116ac565b01602801949350505050565b602081526000825180602084015261177c8160408501602087016116ac565b601f01601f19169190910160400192915050565b6000602082840312156117a257600080fd5b8151801515811461139f57600080fd5b634e487b7160e01b600052604160045260246000fd5b634e487b7160e01b600052603260045260246000fd5b6000816117ed576117ed61160d565b506000190190565b600082516118078184602087016116ac565b919091019291505056fea26469706673582212207bc98105d816e8427dcb0b7e8c265fad882ec04abf53afaa3412d8b5bd00f0ac64736f6c634300080a0033",
  "devdoc": {
    "events": {
      "StrategyMaxLossOnWithdrawChanged(uint256)": {
        "params": {
          "maxLoss": "new value for max loss withdraw param"
        }
      }
    },
    "kind": "dev",
    "methods": {
      "constructor": {
        "params": {
          "_admin": "address of the administrator account for this strategy",
          "_underlying": "address of the underlying token",
          "_vault": "address of the vault that will use this strategy",
          "_yVault": "address of the yearn vault that this strategy is using"
        }
      },
      "getRoleAdmin(bytes32)": {
        "details": "Returns the admin role that controls `role`. See {grantRole} and {revokeRole}. To change a role's admin, use {_setRoleAdmin}."
      },
      "grantRole(bytes32,address)": {
        "details": "Grants `role` to `account`. If `account` had not been already granted `role`, emits a {RoleGranted} event. Requirements: - the caller must have ``role``'s admin role. May emit a {RoleGranted} event."
      },
      "hasAssets()": {
        "returns": {
          "_0": "true if assets invested, false if nothing invested."
        }
      },
      "hasRole(bytes32,address)": {
        "details": "Returns `true` if `account` has been granted `role`."
      },
      "investedAssets()": {
        "returns": {
          "_0": "The total amount of underlying"
        }
      },
      "isSync()": {
        "returns": {
          "_0": "true always"
        }
      },
      "renounceRole(bytes32,address)": {
        "details": "Revokes `role` from the calling account. Roles are often managed via {grantRole} and {revokeRole}: this function's purpose is to provide a mechanism for accounts to lose their privileges if they are compromised (such as when a trusted device is misplaced). If the calling account had been revoked `role`, emits a {RoleRevoked} event. Requirements: - the caller must be `account`. May emit a {RoleRevoked} event."
      },
      "revokeRole(bytes32,address)": {
        "details": "Revokes `role` from `account`. If `account` had been granted `role`, emits a {RoleRevoked} event. Requirements: - the caller must have ``role``'s admin role. May emit a {RoleRevoked} event."
      },
      "setMaxLossOnWithdraw(uint128)": {
        "params": {
          "_maxLoss": "The max loss percentage to use when withdrawing from the Yearn vault. Value of 1 equals 0.01% loss."
        }
      },
      "supportsInterface(bytes4)": {
        "details": "See {IERC165-supportsInterface}."
      },
      "transferAdminRights(address)": {
        "params": {
          "_newAdmin": "The new Strategy admin account."
        }
      },
      "withdrawToVault(uint256)": {
        "params": {
          "amount": "Amount to withdraw"
        }
      }
    },
    "stateVariables": {
      "vault": {
        "return": "The vault's address",
        "returns": {
          "_0": "The vault's address"
        }
      }
    },
    "version": 1
  },
  "userdoc": {
    "events": {
      "StrategyInvested(uint256)": {
        "notice": "Emmited when funds are invested by the strategy."
      },
      "StrategyMaxLossOnWithdrawChanged(uint256)": {
        "notice": "Emmited when the maxLossOnWithdraw (from Yearn vault) is changed."
      },
      "StrategyWithdrawn(uint256)": {
        "notice": "Emmited when funds are withdrawn (disinvested) by the strategy."
      }
    },
    "kind": "user",
    "methods": {
      "MANAGER_ROLE()": {
        "notice": "role allowed to invest/withdraw from yearn vault"
      },
      "SETTINGS_ROLE()": {
        "notice": "role allowed to change settings such as max loss on withdraw from yearn vault"
      },
      "hasAssets()": {
        "notice": "Indicates if assets are invested into strategy or not.this will be used when removing the strategy from the vault"
      },
      "invest()": {
        "notice": "Deposits of all the available underlying into the yield generating protocol."
      },
      "investedAssets()": {
        "notice": "Amount of the underlying currency currently invested by the strategy.both held and invested amounts are included here, using the latest known exchange rates to the underlying currency"
      },
      "isSync()": {
        "notice": "Yearn strategy is synchronous meaning it supports immediate withdrawals."
      },
      "setMaxLossOnWithdraw(uint128)": {
        "notice": "Sets the max loss percentage used when withdrawing from the Yearn vault.Can only be called by the account with settings role."
      },
      "transferAdminRights(address)": {
        "notice": "Transfers administrator rights for the Strategy to another account, revoking current admin roles and setting up the roles for the new admin.Can only be called by the account with the ADMIN role."
      },
      "vault()": {
        "notice": "The vault linked to this strategy."
      },
      "withdrawToVault(uint256)": {
        "notice": "Withdraws the specified amount back to the vault (disinvests)"
      }
    },
    "notice": "YearnStrategy generates yield by investing into a Yearn vault.This strategy is syncrhonous (supports immediate withdrawals).",
    "version": 1
  },
  "storageLayout": {
    "storage": [
      {
        "astId": 70,
        "contract": "contracts/strategy/yearn/YearnStrategy.sol:YearnStrategy",
        "label": "_roles",
        "offset": 0,
        "slot": "0",
        "type": "t_mapping(t_bytes32,t_struct(RoleData)65_storage)"
      },
      {
        "astId": 11654,
        "contract": "contracts/strategy/yearn/YearnStrategy.sol:YearnStrategy",
        "label": "maxLossOnWithdraw",
        "offset": 0,
        "slot": "1",
        "type": "t_uint128"
      }
    ],
    "types": {
      "t_address": {
        "encoding": "inplace",
        "label": "address",
        "numberOfBytes": "20"
      },
      "t_bool": {
        "encoding": "inplace",
        "label": "bool",
        "numberOfBytes": "1"
      },
      "t_bytes32": {
        "encoding": "inplace",
        "label": "bytes32",
        "numberOfBytes": "32"
      },
      "t_mapping(t_address,t_bool)": {
        "encoding": "mapping",
        "key": "t_address",
        "label": "mapping(address => bool)",
        "numberOfBytes": "32",
        "value": "t_bool"
      },
      "t_mapping(t_bytes32,t_struct(RoleData)65_storage)": {
        "encoding": "mapping",
        "key": "t_bytes32",
        "label": "mapping(bytes32 => struct AccessControl.RoleData)",
        "numberOfBytes": "32",
        "value": "t_struct(RoleData)65_storage"
      },
      "t_struct(RoleData)65_storage": {
        "encoding": "inplace",
        "label": "struct AccessControl.RoleData",
        "members": [
          {
            "astId": 62,
            "contract": "contracts/strategy/yearn/YearnStrategy.sol:YearnStrategy",
            "label": "members",
            "offset": 0,
            "slot": "0",
            "type": "t_mapping(t_address,t_bool)"
          },
          {
            "astId": 64,
            "contract": "contracts/strategy/yearn/YearnStrategy.sol:YearnStrategy",
            "label": "adminRole",
            "offset": 0,
            "slot": "1",
            "type": "t_bytes32"
          }
        ],
        "numberOfBytes": "64"
      },
      "t_uint128": {
        "encoding": "inplace",
        "label": "uint128",
        "numberOfBytes": "16"
      }
    }
  }
}