{
  "address": "0x7357681A94B7cBc94c6C6877DD6101FA36dF4D20",
  "abi": [
    {
      "anonymous": false,
      "inputs": [
        {
          "indexed": true,
          "internalType": "address",
          "name": "previousOwner",
          "type": "address"
        },
        {
          "indexed": true,
          "internalType": "address",
          "name": "newOwner",
          "type": "address"
        }
      ],
      "name": "OwnershipTransferred",
      "type": "event"
    },
    {
      "inputs": [
        {
          "internalType": "int128",
          "name": "i",
          "type": "int128"
        },
        {
          "internalType": "contract IERC20",
          "name": "token",
          "type": "address"
        }
      ],
      "name": "addToken",
      "outputs": [],
      "stateMutability": "nonpayable",
      "type": "function"
    },
    {
      "inputs": [
        {
          "internalType": "uint256",
          "name": "i",
          "type": "uint256"
        }
      ],
      "name": "coins",
      "outputs": [
        {
          "internalType": "address",
          "name": "",
          "type": "address"
        }
      ],
      "stateMutability": "view",
      "type": "function"
    },
    {
      "inputs": [
        {
          "internalType": "int128",
          "name": "i",
          "type": "int128"
        },
        {
          "internalType": "int128",
          "name": "j",
          "type": "int128"
        },
        {
          "internalType": "uint256",
          "name": "dx",
          "type": "uint256"
        },
        {
          "internalType": "uint256",
          "name": "min_dy",
          "type": "uint256"
        }
      ],
      "name": "exchange_underlying",
      "outputs": [
        {
          "internalType": "uint256",
          "name": "",
          "type": "uint256"
        }
      ],
      "stateMutability": "nonpayable",
      "type": "function"
    },
    {
      "inputs": [],
      "name": "owner",
      "outputs": [
        {
          "internalType": "address",
          "name": "",
          "type": "address"
        }
      ],
      "stateMutability": "view",
      "type": "function"
    },
    {
      "inputs": [
        {
          "internalType": "int128",
          "name": "",
          "type": "int128"
        },
        {
          "internalType": "int128",
          "name": "",
          "type": "int128"
        }
      ],
      "name": "rate",
      "outputs": [
        {
          "internalType": "uint256",
          "name": "",
          "type": "uint256"
        }
      ],
      "stateMutability": "view",
      "type": "function"
    },
    {
      "inputs": [],
      "name": "renounceOwnership",
      "outputs": [],
      "stateMutability": "nonpayable",
      "type": "function"
    },
    {
      "inputs": [
        {
          "internalType": "int128",
          "name": "",
          "type": "int128"
        }
      ],
      "name": "tokens",
      "outputs": [
        {
          "internalType": "contract IERC20",
          "name": "",
          "type": "address"
        }
      ],
      "stateMutability": "view",
      "type": "function"
    },
    {
      "inputs": [
        {
          "internalType": "address",
          "name": "newOwner",
          "type": "address"
        }
      ],
      "name": "transferOwnership",
      "outputs": [],
      "stateMutability": "nonpayable",
      "type": "function"
    },
    {
      "inputs": [
        {
          "internalType": "int128",
          "name": "i",
          "type": "int128"
        },
        {
          "internalType": "int128",
          "name": "j",
          "type": "int128"
        },
        {
          "internalType": "uint256",
          "name": "_rate",
          "type": "uint256"
        }
      ],
      "name": "updateRate",
      "outputs": [],
      "stateMutability": "nonpayable",
      "type": "function"
    },
    {
      "inputs": [
        {
          "internalType": "contract IERC20",
          "name": "token",
          "type": "address"
        },
        {
          "internalType": "uint256",
          "name": "amount",
          "type": "uint256"
        }
      ],
      "name": "withdraw",
      "outputs": [],
      "stateMutability": "nonpayable",
      "type": "function"
    }
  ],
  "transactionHash": "0x1387389ece168ab55d739b2bfa5f470125f164fa359b00955c49bb6784357510",
  "args": [],
  "numDeployments": 1,
  "solcInputHash": "605203067dc2e8da0ac508a5d6151f12",
  "bytecode": "0x608060405234801561001057600080fd5b5061001a3361001f565b61006f565b600080546001600160a01b038381166001600160a01b0319831681178455604051919092169283917f8be0079c531659141344cd1fd0a4f28419497f9722a3daafe3b4186f6b6457e09190a35050565b610aad8061007e6000396000f3fe608060405234801561001057600080fd5b50600436106100be5760003560e01c8063c661065711610076578063eed97efd1161005b578063eed97efd146101ab578063f2fde38b146101df578063f3fef3a3146101f257600080fd5b8063c66106571461016c578063e7bb02ec1461019857600080fd5b80639262c8dd116100a75780639262c8dd146100f757806398ad389d14610130578063a6417ed61461015957600080fd5b8063715018a6146100c35780638da5cb5b146100cd575b600080fd5b6100cb610205565b005b6000546001600160a01b03165b6040516001600160a01b0390911681526020015b60405180910390f35b610122610105366004610811565b600260209081526000928352604080842090915290825290205481565b6040519081526020016100ee565b6100da61013e366004610844565b6001602052600090815260409020546001600160a01b031681565b61012261016736600461085f565b610219565b6100da61017a3660046108a1565b600f0b6000908152600160205260409020546001600160a01b031690565b6100cb6101a63660046108cf565b6102c2565b6100cb6101b9366004610906565b600f92830b60009081526002602090815260408083209490950b82529290925291902055565b6100cb6101ed366004610942565b61030a565b6100cb61020036600461095f565b61039f565b61020d6103bf565b6102176000610419565b565b600f84900b600090815260016020526040812054610242906001600160a01b0316333086610476565b600f85810b60009081526002602090815260408083209388900b83529290529081205461027785670de0b6b3a764000061098b565b61028191906109b8565b600f86900b6000908152600160205260409020549091506102ac906001600160a01b0316338361052d565b828110156102b957600080fd5b95945050505050565b6102ca6103bf565b600f9190910b6000908152600160205260409020805473ffffffffffffffffffffffffffffffffffffffff19166001600160a01b03909216919091179055565b6103126103bf565b6001600160a01b0381166103935760405162461bcd60e51b815260206004820152602660248201527f4f776e61626c653a206e6577206f776e657220697320746865207a65726f206160448201527f646472657373000000000000000000000000000000000000000000000000000060648201526084015b60405180910390fd5b61039c81610419565b50565b6103a76103bf565b6103bb6001600160a01b038316338361052d565b5050565b6000546001600160a01b031633146102175760405162461bcd60e51b815260206004820181905260248201527f4f776e61626c653a2063616c6c6572206973206e6f7420746865206f776e6572604482015260640161038a565b600080546001600160a01b0383811673ffffffffffffffffffffffffffffffffffffffff19831681178455604051919092169283917f8be0079c531659141344cd1fd0a4f28419497f9722a3daafe3b4186f6b6457e09190a35050565b6040516001600160a01b03808516602483015283166044820152606481018290526105279085907f23b872dd00000000000000000000000000000000000000000000000000000000906084015b60408051601f198184030181529190526020810180517bffffffffffffffffffffffffffffffffffffffffffffffffffffffff167fffffffff000000000000000000000000000000000000000000000000000000009093169290921790915261057b565b50505050565b6040516001600160a01b0383166024820152604481018290526105769084907fa9059cbb00000000000000000000000000000000000000000000000000000000906064016104c3565b505050565b60006105d0826040518060400160405280602081526020017f5361666545524332303a206c6f772d6c6576656c2063616c6c206661696c6564815250856001600160a01b03166106609092919063ffffffff16565b80519091501561057657808060200190518101906105ee91906109da565b6105765760405162461bcd60e51b815260206004820152602a60248201527f5361666545524332303a204552433230206f7065726174696f6e20646964206e60448201527f6f74207375636365656400000000000000000000000000000000000000000000606482015260840161038a565b606061066f8484600085610679565b90505b9392505050565b6060824710156106f15760405162461bcd60e51b815260206004820152602660248201527f416464726573733a20696e73756666696369656e742062616c616e636520666f60448201527f722063616c6c0000000000000000000000000000000000000000000000000000606482015260840161038a565b6001600160a01b0385163b6107485760405162461bcd60e51b815260206004820152601d60248201527f416464726573733a2063616c6c20746f206e6f6e2d636f6e7472616374000000604482015260640161038a565b600080866001600160a01b031685876040516107649190610a28565b60006040518083038185875af1925050503d80600081146107a1576040519150601f19603f3d011682016040523d82523d6000602084013e6107a6565b606091505b50915091506107b68282866107c1565b979650505050505050565b606083156107d0575081610672565b8251156107e05782518084602001fd5b8160405162461bcd60e51b815260040161038a9190610a44565b8035600f81900b811461080c57600080fd5b919050565b6000806040838503121561082457600080fd5b61082d836107fa565b915061083b602084016107fa565b90509250929050565b60006020828403121561085657600080fd5b610672826107fa565b6000806000806080858703121561087557600080fd5b61087e856107fa565b935061088c602086016107fa565b93969395505050506040820135916060013590565b6000602082840312156108b357600080fd5b5035919050565b6001600160a01b038116811461039c57600080fd5b600080604083850312156108e257600080fd5b6108eb836107fa565b915060208301356108fb816108ba565b809150509250929050565b60008060006060848603121561091b57600080fd5b610924846107fa565b9250610932602085016107fa565b9150604084013590509250925092565b60006020828403121561095457600080fd5b8135610672816108ba565b6000806040838503121561097257600080fd5b823561097d816108ba565b946020939093013593505050565b60008160001904831182151516156109b357634e487b7160e01b600052601160045260246000fd5b500290565b6000826109d557634e487b7160e01b600052601260045260246000fd5b500490565b6000602082840312156109ec57600080fd5b8151801515811461067257600080fd5b60005b83811015610a175781810151838201526020016109ff565b838111156105275750506000910152565b60008251610a3a8184602087016109fc565b9190910192915050565b6020815260008251806020840152610a638160408501602087016109fc565b601f01601f1916919091016040019291505056fea264697066735822122021ea158cd9c48175b4d7456a0262b1e03d86a3b1ae5abc4614860f84d67e7aee64736f6c634300080a0033",
  "devdoc": {
    "kind": "dev",
    "methods": {
      "owner()": {
        "details": "Returns the address of the current owner."
      },
      "renounceOwnership()": {
        "details": "Leaves the contract without owner. It will not be possible to call `onlyOwner` functions anymore. Can only be called by the current owner. NOTE: Renouncing ownership will leave the contract without an owner, thereby removing any functionality that is only available to the owner."
      },
      "transferOwnership(address)": {
        "details": "Transfers ownership of the contract to a new account (`newOwner`). Can only be called by the current owner."
      }
    },
    "version": 1
  },
  "userdoc": {
    "kind": "user",
    "methods": {},
    "version": 1
  },
  "storageLayout": {
    "storage": [
      {
        "astId": 2162,
        "contract": "contracts/mock/MockCurvePool.sol:MockCurve",
        "label": "_owner",
        "offset": 0,
        "slot": "0",
        "type": "t_address"
      },
      {
        "astId": 11316,
        "contract": "contracts/mock/MockCurvePool.sol:MockCurve",
        "label": "tokens",
        "offset": 0,
        "slot": "1",
        "type": "t_mapping(t_int128,t_contract(IERC20)3079)"
      },
      {
        "astId": 11322,
        "contract": "contracts/mock/MockCurvePool.sol:MockCurve",
        "label": "rate",
        "offset": 0,
        "slot": "2",
        "type": "t_mapping(t_int128,t_mapping(t_int128,t_uint256))"
      }
    ],
    "types": {
      "t_address": {
        "encoding": "inplace",
        "label": "address",
        "numberOfBytes": "20"
      },
      "t_contract(IERC20)3079": {
        "encoding": "inplace",
        "label": "contract IERC20",
        "numberOfBytes": "20"
      },
      "t_int128": {
        "encoding": "inplace",
        "label": "int128",
        "numberOfBytes": "16"
      },
      "t_mapping(t_int128,t_contract(IERC20)3079)": {
        "encoding": "mapping",
        "key": "t_int128",
        "label": "mapping(int128 => contract IERC20)",
        "numberOfBytes": "32",
        "value": "t_contract(IERC20)3079"
      },
      "t_mapping(t_int128,t_mapping(t_int128,t_uint256))": {
        "encoding": "mapping",
        "key": "t_int128",
        "label": "mapping(int128 => mapping(int128 => uint256))",
        "numberOfBytes": "32",
        "value": "t_mapping(t_int128,t_uint256)"
      },
      "t_mapping(t_int128,t_uint256)": {
        "encoding": "mapping",
        "key": "t_int128",
        "label": "mapping(int128 => uint256)",
        "numberOfBytes": "32",
        "value": "t_uint256"
      },
      "t_uint256": {
        "encoding": "inplace",
        "label": "uint256",
        "numberOfBytes": "32"
      }
    }
  }
}