{
  "address": "0x173952f281fFe8e2d190C9BB5C30c1E8A21C6bC1",
  "abi": [
    {
      "inputs": [
        {
          "internalType": "uint256",
          "name": "supply",
          "type": "uint256"
        }
      ],
      "stateMutability": "nonpayable",
      "type": "constructor"
    },
    {
      "anonymous": false,
      "inputs": [
        {
          "indexed": true,
          "internalType": "address",
          "name": "owner",
          "type": "address"
        },
        {
          "indexed": true,
          "internalType": "address",
          "name": "spender",
          "type": "address"
        },
        {
          "indexed": false,
          "internalType": "uint256",
          "name": "value",
          "type": "uint256"
        }
      ],
      "name": "Approval",
      "type": "event"
    },
    {
      "anonymous": false,
      "inputs": [
        {
          "indexed": true,
          "internalType": "address",
          "name": "from",
          "type": "address"
        },
        {
          "indexed": true,
          "internalType": "address",
          "name": "to",
          "type": "address"
        },
        {
          "indexed": false,
          "internalType": "uint256",
          "name": "value",
          "type": "uint256"
        }
      ],
      "name": "Transfer",
      "type": "event"
    },
    {
      "inputs": [
        {
          "internalType": "address",
          "name": "owner",
          "type": "address"
        },
        {
          "internalType": "address",
          "name": "spender",
          "type": "address"
        }
      ],
      "name": "allowance",
      "outputs": [
        {
          "internalType": "uint256",
          "name": "",
          "type": "uint256"
        }
      ],
      "stateMutability": "view",
      "type": "function"
    },
    {
      "inputs": [
        {
          "internalType": "address",
          "name": "spender",
          "type": "address"
        },
        {
          "internalType": "uint256",
          "name": "amount",
          "type": "uint256"
        }
      ],
      "name": "approve",
      "outputs": [
        {
          "internalType": "bool",
          "name": "",
          "type": "bool"
        }
      ],
      "stateMutability": "nonpayable",
      "type": "function"
    },
    {
      "inputs": [
        {
          "internalType": "address",
          "name": "account",
          "type": "address"
        }
      ],
      "name": "balanceOf",
      "outputs": [
        {
          "internalType": "uint256",
          "name": "",
          "type": "uint256"
        }
      ],
      "stateMutability": "view",
      "type": "function"
    },
    {
      "inputs": [
        {
          "internalType": "address",
          "name": "_user",
          "type": "address"
        },
        {
          "internalType": "uint256",
          "name": "_amount",
          "type": "uint256"
        }
      ],
      "name": "burn",
      "outputs": [],
      "stateMutability": "nonpayable",
      "type": "function"
    },
    {
      "inputs": [],
      "name": "decimals",
      "outputs": [
        {
          "internalType": "uint8",
          "name": "",
          "type": "uint8"
        }
      ],
      "stateMutability": "view",
      "type": "function"
    },
    {
      "inputs": [
        {
          "internalType": "address",
          "name": "spender",
          "type": "address"
        },
        {
          "internalType": "uint256",
          "name": "subtractedValue",
          "type": "uint256"
        }
      ],
      "name": "decreaseAllowance",
      "outputs": [
        {
          "internalType": "bool",
          "name": "",
          "type": "bool"
        }
      ],
      "stateMutability": "nonpayable",
      "type": "function"
    },
    {
      "inputs": [
        {
          "internalType": "address",
          "name": "spender",
          "type": "address"
        },
        {
          "internalType": "uint256",
          "name": "addedValue",
          "type": "uint256"
        }
      ],
      "name": "increaseAllowance",
      "outputs": [
        {
          "internalType": "bool",
          "name": "",
          "type": "bool"
        }
      ],
      "stateMutability": "nonpayable",
      "type": "function"
    },
    {
      "inputs": [
        {
          "internalType": "address",
          "name": "_user",
          "type": "address"
        },
        {
          "internalType": "uint256",
          "name": "_amount",
          "type": "uint256"
        }
      ],
      "name": "mint",
      "outputs": [],
      "stateMutability": "nonpayable",
      "type": "function"
    },
    {
      "inputs": [],
      "name": "name",
      "outputs": [
        {
          "internalType": "string",
          "name": "",
          "type": "string"
        }
      ],
      "stateMutability": "view",
      "type": "function"
    },
    {
      "inputs": [
        {
          "internalType": "uint256",
          "name": "_fee",
          "type": "uint256"
        }
      ],
      "name": "setFee",
      "outputs": [],
      "stateMutability": "nonpayable",
      "type": "function"
    },
    {
      "inputs": [],
      "name": "symbol",
      "outputs": [
        {
          "internalType": "string",
          "name": "",
          "type": "string"
        }
      ],
      "stateMutability": "view",
      "type": "function"
    },
    {
      "inputs": [],
      "name": "totalSupply",
      "outputs": [
        {
          "internalType": "uint256",
          "name": "",
          "type": "uint256"
        }
      ],
      "stateMutability": "view",
      "type": "function"
    },
    {
      "inputs": [
        {
          "internalType": "address",
          "name": "to",
          "type": "address"
        },
        {
          "internalType": "uint256",
          "name": "amount",
          "type": "uint256"
        }
      ],
      "name": "transfer",
      "outputs": [
        {
          "internalType": "bool",
          "name": "",
          "type": "bool"
        }
      ],
      "stateMutability": "nonpayable",
      "type": "function"
    },
    {
      "inputs": [
        {
          "internalType": "address",
          "name": "from",
          "type": "address"
        },
        {
          "internalType": "address",
          "name": "to",
          "type": "address"
        },
        {
          "internalType": "uint256",
          "name": "amount",
          "type": "uint256"
        }
      ],
      "name": "transferFrom",
      "outputs": [
        {
          "internalType": "bool",
          "name": "",
          "type": "bool"
        }
      ],
      "stateMutability": "nonpayable",
      "type": "function"
    },
    {
      "inputs": [
        {
          "internalType": "uint8",
          "name": "_decimals",
          "type": "uint8"
        }
      ],
      "name": "updateDecimals",
      "outputs": [],
      "stateMutability": "nonpayable",
      "type": "function"
    }
  ],
  "transactionHash": "0xd7cc5fdf515ec92462f05cd190596e37e6023e196f9b579f3da8308cdd9a5e00",
  "args": [
    0
  ],
  "numDeployments": 1,
  "solcInputHash": "605203067dc2e8da0ac508a5d6151f12",
  "bytecode": "0x60806040523480156200001157600080fd5b506040516200105438038062001054833981016040819052620000349162000264565b604051806040016040528060088152602001674d6f636b2044414960c01b815250604051806040016040528060078152602001666d6f636b44414960c81b8152506012838383816003908051906020019062000092929190620001be565b508051620000a8906004906020840190620001be565b50506000600655506005805460ff191660ff8416179055620000cb3382620000d6565b5050505050620002e2565b6001600160a01b038216620001315760405162461bcd60e51b815260206004820152601f60248201527f45524332303a206d696e7420746f20746865207a65726f206164647265737300604482015260640160405180910390fd5b80600260008282546200014591906200027e565b90915550506001600160a01b03821660009081526020819052604081208054839290620001749084906200027e565b90915550506040518181526001600160a01b038316906000907fddf252ad1be2c89b69c2b068fc378daa952ba7f163c4a11628f55a4df523b3ef9060200160405180910390a35050565b828054620001cc90620002a5565b90600052602060002090601f016020900481019282620001f057600085556200023b565b82601f106200020b57805160ff19168380011785556200023b565b828001600101855582156200023b579182015b828111156200023b5782518255916020019190600101906200021e565b50620002499291506200024d565b5090565b5b808211156200024957600081556001016200024e565b6000602082840312156200027757600080fd5b5051919050565b60008219821115620002a057634e487b7160e01b600052601160045260246000fd5b500190565b600181811c90821680620002ba57607f821691505b60208210811415620002dc57634e487b7160e01b600052602260045260246000fd5b50919050565b610d6280620002f26000396000f3fe608060405234801561001057600080fd5b50600436106100f55760003560e01c806340c10f19116100975780639dc29fac116100665780639dc29fac14610205578063a457c2d714610218578063a9059cbb1461022b578063dd62ed3e1461023e57600080fd5b806340c10f19146101ae57806369fe0e2d146101c157806370a08231146101d457806395d89b41146101fd57600080fd5b806318160ddd116100d357806318160ddd1461016157806323b872dd14610173578063313ce56714610186578063395093511461019b57600080fd5b806306fdde03146100fa578063095ea7b3146101185780630ce83a611461013b575b600080fd5b610102610277565b60405161010f9190610b03565b60405180910390f35b61012b610126366004610b74565b610309565b604051901515815260200161010f565b61015f610149366004610b9e565b6005805460ff191660ff92909216919091179055565b005b6002545b60405190815260200161010f565b61012b610181366004610bc8565b610321565b60055460405160ff909116815260200161010f565b61012b6101a9366004610b74565b610345565b61015f6101bc366004610b74565b610384565b61015f6101cf366004610c04565b600655565b6101656101e2366004610c1d565b6001600160a01b031660009081526020819052604090205490565b610102610392565b61015f610213366004610b74565b6103a1565b61012b610226366004610b74565b6103ab565b61012b610239366004610b74565b61045a565b61016561024c366004610c38565b6001600160a01b03918216600090815260016020908152604080832093909416825291909152205490565b60606003805461028690610c6b565b80601f01602080910402602001604051908101604052809291908181526020018280546102b290610c6b565b80156102ff5780601f106102d4576101008083540402835291602001916102ff565b820191906000526020600020905b8154815290600101906020018083116102e257829003601f168201915b5050505050905090565b600033610317818585610468565b5060019392505050565b60003361032f8582856105c0565b61033a858585610652565b506001949350505050565b3360008181526001602090815260408083206001600160a01b0387168452909152812054909190610317908290869061037f908790610cbc565b610468565b61038e8282610688565b5050565b60606004805461028690610c6b565b61038e8282610767565b3360008181526001602090815260408083206001600160a01b03871684529091528120549091908381101561044d5760405162461bcd60e51b815260206004820152602560248201527f45524332303a2064656372656173656420616c6c6f77616e63652062656c6f7760448201527f207a65726f00000000000000000000000000000000000000000000000000000060648201526084015b60405180910390fd5b61033a8286868403610468565b600033610317818585610652565b6001600160a01b0383166104e35760405162461bcd60e51b8152602060048201526024808201527f45524332303a20617070726f76652066726f6d20746865207a65726f2061646460448201527f72657373000000000000000000000000000000000000000000000000000000006064820152608401610444565b6001600160a01b03821661055f5760405162461bcd60e51b815260206004820152602260248201527f45524332303a20617070726f766520746f20746865207a65726f20616464726560448201527f73730000000000000000000000000000000000000000000000000000000000006064820152608401610444565b6001600160a01b0383811660008181526001602090815260408083209487168084529482529182902085905590518481527f8c5be1e5ebec7d5bd14f71427d1e84f3dd0314c0f7b2291e5b200ac8c7c3b925910160405180910390a3505050565b6001600160a01b03838116600090815260016020908152604080832093861683529290522054600019811461064c578181101561063f5760405162461bcd60e51b815260206004820152601d60248201527f45524332303a20696e73756666696369656e7420616c6c6f77616e63650000006044820152606401610444565b61064c8484848403610468565b50505050565b610683838361271060065461271061066a9190610cd4565b6106749086610ceb565b61067e9190610d0a565b6108ec565b505050565b6001600160a01b0382166106de5760405162461bcd60e51b815260206004820152601f60248201527f45524332303a206d696e7420746f20746865207a65726f2061646472657373006044820152606401610444565b80600260008282546106f09190610cbc565b90915550506001600160a01b0382166000908152602081905260408120805483929061071d908490610cbc565b90915550506040518181526001600160a01b038316906000907fddf252ad1be2c89b69c2b068fc378daa952ba7f163c4a11628f55a4df523b3ef9060200160405180910390a35050565b6001600160a01b0382166107e35760405162461bcd60e51b815260206004820152602160248201527f45524332303a206275726e2066726f6d20746865207a65726f2061646472657360448201527f73000000000000000000000000000000000000000000000000000000000000006064820152608401610444565b6001600160a01b038216600090815260208190526040902054818110156108725760405162461bcd60e51b815260206004820152602260248201527f45524332303a206275726e20616d6f756e7420657863656564732062616c616e60448201527f63650000000000000000000000000000000000000000000000000000000000006064820152608401610444565b6001600160a01b03831660009081526020819052604081208383039055600280548492906108a1908490610cd4565b90915550506040518281526000906001600160a01b038516907fddf252ad1be2c89b69c2b068fc378daa952ba7f163c4a11628f55a4df523b3ef9060200160405180910390a3505050565b6001600160a01b0383166109685760405162461bcd60e51b815260206004820152602560248201527f45524332303a207472616e736665722066726f6d20746865207a65726f20616460448201527f64726573730000000000000000000000000000000000000000000000000000006064820152608401610444565b6001600160a01b0382166109e45760405162461bcd60e51b815260206004820152602360248201527f45524332303a207472616e7366657220746f20746865207a65726f206164647260448201527f65737300000000000000000000000000000000000000000000000000000000006064820152608401610444565b6001600160a01b03831660009081526020819052604090205481811015610a735760405162461bcd60e51b815260206004820152602660248201527f45524332303a207472616e7366657220616d6f756e742065786365656473206260448201527f616c616e636500000000000000000000000000000000000000000000000000006064820152608401610444565b6001600160a01b03808516600090815260208190526040808220858503905591851681529081208054849290610aaa908490610cbc565b92505081905550826001600160a01b0316846001600160a01b03167fddf252ad1be2c89b69c2b068fc378daa952ba7f163c4a11628f55a4df523b3ef84604051610af691815260200190565b60405180910390a361064c565b600060208083528351808285015260005b81811015610b3057858101830151858201604001528201610b14565b81811115610b42576000604083870101525b50601f01601f1916929092016040019392505050565b80356001600160a01b0381168114610b6f57600080fd5b919050565b60008060408385031215610b8757600080fd5b610b9083610b58565b946020939093013593505050565b600060208284031215610bb057600080fd5b813560ff81168114610bc157600080fd5b9392505050565b600080600060608486031215610bdd57600080fd5b610be684610b58565b9250610bf460208501610b58565b9150604084013590509250925092565b600060208284031215610c1657600080fd5b5035919050565b600060208284031215610c2f57600080fd5b610bc182610b58565b60008060408385031215610c4b57600080fd5b610c5483610b58565b9150610c6260208401610b58565b90509250929050565b600181811c90821680610c7f57607f821691505b60208210811415610ca057634e487b7160e01b600052602260045260246000fd5b50919050565b634e487b7160e01b600052601160045260246000fd5b60008219821115610ccf57610ccf610ca6565b500190565b600082821015610ce657610ce6610ca6565b500390565b6000816000190483118215151615610d0557610d05610ca6565b500290565b600082610d2757634e487b7160e01b600052601260045260246000fd5b50049056fea2646970667358221220c15ce960a0d4e8d49dfeaafcee8a0820447eb424a6d85797952be4e842e6a55864736f6c634300080a0033",
  "devdoc": {
    "kind": "dev",
    "methods": {
      "allowance(address,address)": {
        "details": "See {IERC20-allowance}."
      },
      "approve(address,uint256)": {
        "details": "See {IERC20-approve}. NOTE: If `amount` is the maximum `uint256`, the allowance is not updated on `transferFrom`. This is semantically equivalent to an infinite approval. Requirements: - `spender` cannot be the zero address."
      },
      "balanceOf(address)": {
        "details": "See {IERC20-balanceOf}."
      },
      "decimals()": {
        "details": "Returns the number of decimals used to get its user representation. For example, if `decimals` equals `2`, a balance of `505` tokens should be displayed to a user as `5.05` (`505 / 10 ** 2`). Tokens usually opt for a value of 18, imitating the relationship between Ether and Wei. This is the value {ERC20} uses, unless this function is overridden; NOTE: This information is only used for _display_ purposes: it in no way affects any of the arithmetic of the contract, including {IERC20-balanceOf} and {IERC20-transfer}."
      },
      "decreaseAllowance(address,uint256)": {
        "details": "Atomically decreases the allowance granted to `spender` by the caller. This is an alternative to {approve} that can be used as a mitigation for problems described in {IERC20-approve}. Emits an {Approval} event indicating the updated allowance. Requirements: - `spender` cannot be the zero address. - `spender` must have allowance for the caller of at least `subtractedValue`."
      },
      "increaseAllowance(address,uint256)": {
        "details": "Atomically increases the allowance granted to `spender` by the caller. This is an alternative to {approve} that can be used as a mitigation for problems described in {IERC20-approve}. Emits an {Approval} event indicating the updated allowance. Requirements: - `spender` cannot be the zero address."
      },
      "name()": {
        "details": "Returns the name of the token."
      },
      "symbol()": {
        "details": "Returns the symbol of the token, usually a shorter version of the name."
      },
      "totalSupply()": {
        "details": "See {IERC20-totalSupply}."
      },
      "transfer(address,uint256)": {
        "details": "See {IERC20-transfer}. Requirements: - `to` cannot be the zero address. - the caller must have a balance of at least `amount`."
      },
      "transferFrom(address,address,uint256)": {
        "details": "See {IERC20-transferFrom}. Emits an {Approval} event indicating the updated allowance. This is not required by the EIP. See the note at the beginning of {ERC20}. NOTE: Does not update the allowance if the current allowance is the maximum `uint256`. Requirements: - `from` and `to` cannot be the zero address. - `from` must have a balance of at least `amount`. - the caller must have allowance for ``from``'s tokens of at least `amount`."
      }
    },
    "version": 1
  },
  "userdoc": {
    "kind": "user",
    "methods": {},
    "version": 1
  },
  "storageLayout": {
    "storage": [
      {
        "astId": 2431,
        "contract": "contracts/mock/MockERC20.sol:MockDAI",
        "label": "_balances",
        "offset": 0,
        "slot": "0",
        "type": "t_mapping(t_address,t_uint256)"
      },
      {
        "astId": 2437,
        "contract": "contracts/mock/MockERC20.sol:MockDAI",
        "label": "_allowances",
        "offset": 0,
        "slot": "1",
        "type": "t_mapping(t_address,t_mapping(t_address,t_uint256))"
      },
      {
        "astId": 2439,
        "contract": "contracts/mock/MockERC20.sol:MockDAI",
        "label": "_totalSupply",
        "offset": 0,
        "slot": "2",
        "type": "t_uint256"
      },
      {
        "astId": 2441,
        "contract": "contracts/mock/MockERC20.sol:MockDAI",
        "label": "_name",
        "offset": 0,
        "slot": "3",
        "type": "t_string_storage"
      },
      {
        "astId": 2443,
        "contract": "contracts/mock/MockERC20.sol:MockDAI",
        "label": "_symbol",
        "offset": 0,
        "slot": "4",
        "type": "t_string_storage"
      },
      {
        "astId": 11465,
        "contract": "contracts/mock/MockERC20.sol:MockDAI",
        "label": "decimals_",
        "offset": 0,
        "slot": "5",
        "type": "t_uint8"
      },
      {
        "astId": 11467,
        "contract": "contracts/mock/MockERC20.sol:MockDAI",
        "label": "fee",
        "offset": 0,
        "slot": "6",
        "type": "t_uint256"
      }
    ],
    "types": {
      "t_address": {
        "encoding": "inplace",
        "label": "address",
        "numberOfBytes": "20"
      },
      "t_mapping(t_address,t_mapping(t_address,t_uint256))": {
        "encoding": "mapping",
        "key": "t_address",
        "label": "mapping(address => mapping(address => uint256))",
        "numberOfBytes": "32",
        "value": "t_mapping(t_address,t_uint256)"
      },
      "t_mapping(t_address,t_uint256)": {
        "encoding": "mapping",
        "key": "t_address",
        "label": "mapping(address => uint256)",
        "numberOfBytes": "32",
        "value": "t_uint256"
      },
      "t_string_storage": {
        "encoding": "bytes",
        "label": "string",
        "numberOfBytes": "32"
      },
      "t_uint256": {
        "encoding": "inplace",
        "label": "uint256",
        "numberOfBytes": "32"
      },
      "t_uint8": {
        "encoding": "inplace",
        "label": "uint8",
        "numberOfBytes": "1"
      }
    }
  }
}