{
  "address": "0x040841b82d60Da4e4FAbF7Ec6AdE8b0023B2fE85",
  "abi": [
    {
      "anonymous": false,
      "inputs": [
        {
          "indexed": false,
          "internalType": "uint256",
          "name": "_lastGoodPrice",
          "type": "uint256"
        }
      ],
      "name": "LastGoodPriceUpdated",
      "type": "event"
    },
    {
      "inputs": [],
      "name": "NAME",
      "outputs": [
        {
          "internalType": "string",
          "name": "",
          "type": "string"
        }
      ],
      "stateMutability": "view",
      "type": "function"
    },
    {
      "inputs": [],
      "name": "fetchPrice",
      "outputs": [
        {
          "internalType": "uint256",
          "name": "",
          "type": "uint256"
        }
      ],
      "stateMutability": "view",
      "type": "function"
    },
    {
      "inputs": [],
      "name": "lastGoodPrice",
      "outputs": [
        {
          "internalType": "uint256",
          "name": "",
          "type": "uint256"
        }
      ],
      "stateMutability": "view",
      "type": "function"
    },
    {
      "inputs": [
        {
          "internalType": "uint256",
          "name": "price",
          "type": "uint256"
        }
      ],
      "name": "setPrice",
      "outputs": [],
      "stateMutability": "nonpayable",
      "type": "function"
    }
  ],
  "transactionHash": "0x3a28ed5ba95333a43f1f1a17433578da902bce934a6f685a12246d9ca0684415",
  "args": [],
  "numDeployments": 1,
  "solcInputHash": "866940c47c205b55e227476be4afea55",
  "bytecode": "0x608060405234801561001057600080fd5b506101b2806100206000396000f3fe608060405234801561001057600080fd5b506004361061004c5760003560e01c80630490be83146100515780630fdb11cf1461006d57806391b7f5ed14610075578063a3f4df7e1461008a575b600080fd5b61005a60005481565b6040519081526020015b60405180910390f35b60005461005a565b61008861008336600461010e565b6100d3565b005b6100c66040518060400160405280600981526020017f507269636546656564000000000000000000000000000000000000000000000081525081565b6040516100649190610127565b60008190556040518181527f4d29de21de555af78a62fc82dd4bc05e9ae5b0660a37f04729527e0f22780cd39060200160405180910390a150565b60006020828403121561012057600080fd5b5035919050565b600060208083528351808285015260005b8181101561015457858101830151858201604001528201610138565b81811115610166576000604083870101525b50601f01601f191692909201604001939250505056fea2646970667358221220c697fe05390d6cc9db633abddeb059ae70258bd14bfca9d5e5f443345ffa25e864736f6c634300080a0033",
  "devdoc": {
    "kind": "dev",
    "methods": {},
    "version": 1
  },
  "userdoc": {
    "kind": "user",
    "methods": {},
    "version": 1
  },
  "storageLayout": {
    "storage": [
      {
        "astId": 21,
        "contract": "contracts/mock/liquity/MockLiquityPriceFeed.sol:MockLiquityPriceFeed",
        "label": "lastGoodPrice",
        "offset": 0,
        "slot": "0",
        "type": "t_uint256"
      }
    ],
    "types": {
      "t_uint256": {
        "encoding": "inplace",
        "label": "uint256",
        "numberOfBytes": "32"
      }
    }
  }
}