{
  "address": "0x95D5A4378b73Cd8be4215BA51f6fB30f0BBAb19d",
  "abi": [
    {
      "inputs": [
        {
          "internalType": "address",
          "name": "_stabilityPool",
          "type": "address"
        },
        {
          "internalType": "address",
          "name": "_priceFeed",
          "type": "address"
        }
      ],
      "stateMutability": "nonpayable",
      "type": "constructor"
    },
    {
      "anonymous": false,
      "inputs": [
        {
          "indexed": false,
          "internalType": "uint256",
          "name": "_liquidatedDebt",
          "type": "uint256"
        },
        {
          "indexed": false,
          "internalType": "uint256",
          "name": "_liquidatedColl",
          "type": "uint256"
        },
        {
          "indexed": false,
          "internalType": "uint256",
          "name": "_collGasCompensation",
          "type": "uint256"
        },
        {
          "indexed": false,
          "internalType": "uint256",
          "name": "_LUSDGasCompensation",
          "type": "uint256"
        }
      ],
      "name": "Liquidation",
      "type": "event"
    },
    {
      "inputs": [],
      "name": "NAME",
      "outputs": [
        {
          "internalType": "string",
          "name": "",
          "type": "string"
        }
      ],
      "stateMutability": "view",
      "type": "function"
    },
    {
      "inputs": [
        {
          "internalType": "uint256",
          "name": "_liquidatedDebt",
          "type": "uint256"
        },
        {
          "internalType": "uint256",
          "name": "_liquidatedColl",
          "type": "uint256"
        },
        {
          "internalType": "uint256",
          "name": "_collGasCompensation",
          "type": "uint256"
        },
        {
          "internalType": "uint256",
          "name": "_LUSDGasCompensation",
          "type": "uint256"
        }
      ],
      "name": "liquidation",
      "outputs": [],
      "stateMutability": "nonpayable",
      "type": "function"
    },
    {
      "inputs": [],
      "name": "priceFeed",
      "outputs": [
        {
          "internalType": "address",
          "name": "",
          "type": "address"
        }
      ],
      "stateMutability": "view",
      "type": "function"
    },
    {
      "inputs": [],
      "name": "stabilityPool",
      "outputs": [
        {
          "internalType": "address",
          "name": "",
          "type": "address"
        }
      ],
      "stateMutability": "view",
      "type": "function"
    }
  ],
  "transactionHash": "0x2ff4d16bc56c33acdf3f1c39fbda3e519af7a402cce747f9bde635ef17c76fbf",
  "args": [
    "0x8981BFECe0b2bF08a7d03Fefc27eF61b851b228F",
    "0xa5D42FBF2Fc632C6201B94BA4fb7e92f09D2A8ce"
  ],
  "numDeployments": 1,
  "solcInputHash": "d3836542e048a56ea51940fa540e4d27",
  "bytecode": "0x608060405234801561001057600080fd5b506040516102e23803806102e283398101604081905261002f9161007c565b600080546001600160a01b039384166001600160a01b031991821617909155600180549290931691161790556100af565b80516001600160a01b038116811461007757600080fd5b919050565b6000806040838503121561008f57600080fd5b61009883610060565b91506100a660208401610060565b90509250929050565b610224806100be6000396000f3fe608060405234801561001057600080fd5b506004361061004c5760003560e01c8063048c661d14610051578063375443101461009b578063741bef1a146100b0578063a3f4df7e146100d0575b600080fd5b6000546100719073ffffffffffffffffffffffffffffffffffffffff1681565b60405173ffffffffffffffffffffffffffffffffffffffff90911681526020015b60405180910390f35b6100ae6100a9366004610167565b610119565b005b6001546100719073ffffffffffffffffffffffffffffffffffffffff1681565b61010c6040518060400160405280600c81526020017f54726f76654d616e61676572000000000000000000000000000000000000000081525081565b6040516100929190610199565b6040805185815260208101859052908101839052606081018290527f4152c73dd2614c4f9fc35e8c9cf16013cd588c75b49a4c1673ecffdcbcda94039060800160405180910390a150505050565b6000806000806080858703121561017d57600080fd5b5050823594602084013594506040840135936060013592509050565b600060208083528351808285015260005b818110156101c6578581018301518582016040015282016101aa565b818111156101d8576000604083870101525b50601f01601f191692909201604001939250505056fea2646970667358221220299055e04330afef66bdad138350a9c7e7035353e6205859148b7588247762ba64736f6c634300080a0033",
  "devdoc": {
    "kind": "dev",
    "methods": {},
    "version": 1
  },
  "userdoc": {
    "kind": "user",
    "methods": {},
    "version": 1
  },
  "storageLayout": {
    "storage": [
      {
        "astId": 14837,
        "contract": "contracts/mock/liquity/MockTroveManager.sol:MockTroveManager",
        "label": "stabilityPool",
        "offset": 0,
        "slot": "0",
        "type": "t_address"
      },
      {
        "astId": 14839,
        "contract": "contracts/mock/liquity/MockTroveManager.sol:MockTroveManager",
        "label": "priceFeed",
        "offset": 0,
        "slot": "1",
        "type": "t_address"
      }
    ],
    "types": {
      "t_address": {
        "encoding": "inplace",
        "label": "address",
        "numberOfBytes": "20"
      }
    }
  }
}