{
  "address": "0x0f56DDfe38DCDE6d4E6e3681E10A634fA8884A46",
  "abi": [
    {
      "inputs": [
        {
          "internalType": "contract IERC20Metadata",
          "name": "_underlying",
          "type": "address"
        },
        {
          "internalType": "uint64",
          "name": "_minLockPeriod",
          "type": "uint64"
        },
        {
          "internalType": "uint16",
          "name": "_investPct",
          "type": "uint16"
        },
        {
          "internalType": "address",
          "name": "_treasury",
          "type": "address"
        },
        {
          "internalType": "address",
          "name": "_admin",
          "type": "address"
        },
        {
          "internalType": "uint16",
          "name": "_perfFeePct",
          "type": "uint16"
        },
        {
          "internalType": "uint16",
          "name": "_lossTolerancePct",
          "type": "uint16"
        },
        {
          "components": [
            {
              "internalType": "address",
              "name": "token",
              "type": "address"
            },
            {
              "internalType": "address",
              "name": "pool",
              "type": "address"
            },
            {
              "internalType": "int128",
              "name": "tokenI",
              "type": "int128"
            },
            {
              "internalType": "int128",
              "name": "underlyingI",
              "type": "int128"
            }
          ],
          "internalType": "struct CurveSwapper.SwapPoolParam[]",
          "name": "_swapPools",
          "type": "tuple[]"
        },
        {
          "internalType": "uint16",
          "name": "_immediateInvestLimitPct",
          "type": "uint16"
        }
      ],
      "stateMutability": "nonpayable",
      "type": "constructor"
    },
    {
      "inputs": [],
      "name": "StrategyAdminCannotBe0Address",
      "type": "error"
    },
    {
      "inputs": [],
      "name": "StrategyAmountZero",
      "type": "error"
    },
    {
      "inputs": [],
      "name": "StrategyCallerNotAdmin",
      "type": "error"
    },
    {
      "inputs": [],
      "name": "StrategyCallerNotKeeper",
      "type": "error"
    },
    {
      "inputs": [],
      "name": "StrategyCallerNotManager",
      "type": "error"
    },
    {
      "inputs": [],
      "name": "StrategyCallerNotSettings",
      "type": "error"
    },
    {
      "inputs": [],
      "name": "StrategyCannotTransferAdminRightsToSelf",
      "type": "error"
    },
    {
      "inputs": [],
      "name": "StrategyKeeperCannotBe0Address",
      "type": "error"
    },
    {
      "inputs": [],
      "name": "StrategyNoUnderlying",
      "type": "error"
    },
    {
      "inputs": [],
      "name": "StrategyNotEnoughShares",
      "type": "error"
    },
    {
      "inputs": [],
      "name": "StrategyNotIVault",
      "type": "error"
    },
    {
      "inputs": [],
      "name": "StrategyNotRunning",
      "type": "error"
    },
    {
      "inputs": [],
      "name": "StrategyUnderlyingCannotBe0Address",
      "type": "error"
    },
    {
      "inputs": [],
      "name": "VaultAdminCannotBe0Address",
      "type": "error"
    },
    {
      "inputs": [],
      "name": "VaultAmountDoesNotMatchParams",
      "type": "error"
    },
    {
      "inputs": [],
      "name": "VaultAmountLocked",
      "type": "error"
    },
    {
      "inputs": [],
      "name": "VaultCallerNotAdmin",
      "type": "error"
    },
    {
      "inputs": [],
      "name": "VaultCallerNotKeeper",
      "type": "error"
    },
    {
      "inputs": [],
      "name": "VaultCallerNotSettings",
      "type": "error"
    },
    {
      "inputs": [],
      "name": "VaultCallerNotSponsor",
      "type": "error"
    },
    {
      "inputs": [],
      "name": "VaultCannotComputeSharesWithoutPrincipal",
      "type": "error"
    },
    {
      "inputs": [],
      "name": "VaultCannotDeposit0",
      "type": "error"
    },
    {
      "inputs": [],
      "name": "VaultCannotDepositWhenClaimerInDebt",
      "type": "error"
    },
    {
      "inputs": [],
      "name": "VaultCannotDepositWhenYieldNegative",
      "type": "error"
    },
    {
      "inputs": [],
      "name": "VaultCannotSponsor0",
      "type": "error"
    },
    {
      "inputs": [],
      "name": "VaultCannotTransferAdminRightsToSelf",
      "type": "error"
    },
    {
      "inputs": [],
      "name": "VaultCannotWithdrawMoreThanAvailable",
      "type": "error"
    },
    {
      "inputs": [],
      "name": "VaultCannotWithdrawWhenYieldNegative",
      "type": "error"
    },
    {
      "inputs": [],
      "name": "VaultClaimPercentageCannotBe0",
      "type": "error"
    },
    {
      "inputs": [],
      "name": "VaultClaimerCannotBe0",
      "type": "error"
    },
    {
      "inputs": [],
      "name": "VaultClaimsDontAddUp",
      "type": "error"
    },
    {
      "inputs": [],
      "name": "VaultDepositLocked",
      "type": "error"
    },
    {
      "inputs": [],
      "name": "VaultDepositNameTooShort",
      "type": "error"
    },
    {
      "inputs": [],
      "name": "VaultDestinationCannotBe0Address",
      "type": "error"
    },
    {
      "inputs": [],
      "name": "VaultInvalidImmediateInvestLimitPct",
      "type": "error"
    },
    {
      "inputs": [],
      "name": "VaultInvalidInvestPct",
      "type": "error"
    },
    {
      "inputs": [],
      "name": "VaultInvalidLockPeriod",
      "type": "error"
    },
    {
      "inputs": [],
      "name": "VaultInvalidLossTolerance",
      "type": "error"
    },
    {
      "inputs": [],
      "name": "VaultInvalidMinLockPeriod",
      "type": "error"
    },
    {
      "inputs": [],
      "name": "VaultInvalidPerformanceFee",
      "type": "error"
    },
    {
      "inputs": [],
      "name": "VaultInvalidVault",
      "type": "error"
    },
    {
      "inputs": [],
      "name": "VaultMustUseForceWithdrawToAcceptLosses",
      "type": "error"
    },
    {
      "inputs": [],
      "name": "VaultNoPerformanceFee",
      "type": "error"
    },
    {
      "inputs": [],
      "name": "VaultNoYieldToClaim",
      "type": "error"
    },
    {
      "inputs": [],
      "name": "VaultNotAllowed",
      "type": "error"
    },
    {
      "inputs": [],
      "name": "VaultNotDeposit",
      "type": "error"
    },
    {
      "inputs": [],
      "name": "VaultNotEnoughFunds",
      "type": "error"
    },
    {
      "inputs": [],
      "name": "VaultNotEnoughToRebalance",
      "type": "error"
    },
    {
      "inputs": [],
      "name": "VaultNotOwnerOfDeposit",
      "type": "error"
    },
    {
      "inputs": [],
      "name": "VaultNotSponsor",
      "type": "error"
    },
    {
      "inputs": [],
      "name": "VaultNothingToDo",
      "type": "error"
    },
    {
      "inputs": [],
      "name": "VaultSenderNotOwnerOfGroupId",
      "type": "error"
    },
    {
      "inputs": [],
      "name": "VaultStrategyHasInvestedFunds",
      "type": "error"
    },
    {
      "inputs": [],
      "name": "VaultStrategyNotSet",
      "type": "error"
    },
    {
      "inputs": [],
      "name": "VaultTreasuryCannotBe0Address",
      "type": "error"
    },
    {
      "inputs": [],
      "name": "VaultUnderlyingCannotBe0Address",
      "type": "error"
    },
    {
      "anonymous": false,
      "inputs": [
        {
          "indexed": true,
          "internalType": "address",
          "name": "token",
          "type": "address"
        },
        {
          "indexed": true,
          "internalType": "address",
          "name": "pool",
          "type": "address"
        },
        {
          "indexed": false,
          "internalType": "int128",
          "name": "tokenI",
          "type": "int128"
        },
        {
          "indexed": false,
          "internalType": "int128",
          "name": "underlyingI",
          "type": "int128"
        }
      ],
      "name": "CurveSwapPoolAdded",
      "type": "event"
    },
    {
      "anonymous": false,
      "inputs": [
        {
          "indexed": true,
          "internalType": "address",
          "name": "token",
          "type": "address"
        }
      ],
      "name": "CurveSwapPoolRemoved",
      "type": "event"
    },
    {
      "anonymous": false,
      "inputs": [
        {
          "indexed": true,
          "internalType": "uint256",
          "name": "id",
          "type": "uint256"
        },
        {
          "indexed": false,
          "internalType": "uint256",
          "name": "groupId",
          "type": "uint256"
        },
        {
          "indexed": false,
          "internalType": "uint256",
          "name": "amount",
          "type": "uint256"
        },
        {
          "indexed": false,
          "internalType": "uint256",
          "name": "shares",
          "type": "uint256"
        },
        {
          "indexed": true,
          "internalType": "address",
          "name": "depositor",
          "type": "address"
        },
        {
          "indexed": true,
          "internalType": "address",
          "name": "claimer",
          "type": "address"
        },
        {
          "indexed": false,
          "internalType": "address",
          "name": "claimerId",
          "type": "address"
        },
        {
          "indexed": false,
          "internalType": "uint64",
          "name": "lockedUntil",
          "type": "uint64"
        },
        {
          "indexed": false,
          "internalType": "bytes",
          "name": "data",
          "type": "bytes"
        },
        {
          "indexed": false,
          "internalType": "string",
          "name": "name",
          "type": "string"
        }
      ],
      "name": "DepositMinted",
      "type": "event"
    },
    {
      "anonymous": false,
      "inputs": [
        {
          "indexed": true,
          "internalType": "uint256",
          "name": "id",
          "type": "uint256"
        },
        {
          "indexed": false,
          "internalType": "uint256",
          "name": "shares",
          "type": "uint256"
        },
        {
          "indexed": false,
          "internalType": "uint256",
          "name": "amount",
          "type": "uint256"
        },
        {
          "indexed": true,
          "internalType": "address",
          "name": "to",
          "type": "address"
        },
        {
          "indexed": false,
          "internalType": "bool",
          "name": "burned",
          "type": "bool"
        }
      ],
      "name": "DepositWithdrawn",
      "type": "event"
    },
    {
      "anonymous": false,
      "inputs": [
        {
          "indexed": false,
          "internalType": "uint256",
          "name": "amount",
          "type": "uint256"
        }
      ],
      "name": "Disinvested",
      "type": "event"
    },
    {
      "anonymous": false,
      "inputs": [
        {
          "indexed": false,
          "internalType": "address",
          "name": "account",
          "type": "address"
        }
      ],
      "name": "ExitPaused",
      "type": "event"
    },
    {
      "anonymous": false,
      "inputs": [
        {
          "indexed": false,
          "internalType": "address",
          "name": "account",
          "type": "address"
        }
      ],
      "name": "ExitUnpaused",
      "type": "event"
    },
    {
      "anonymous": false,
      "inputs": [
        {
          "indexed": false,
          "internalType": "uint256",
          "name": "amount",
          "type": "uint256"
        }
      ],
      "name": "FeeWithdrawn",
      "type": "event"
    },
    {
      "anonymous": false,
      "inputs": [
        {
          "indexed": false,
          "internalType": "uint256",
          "name": "percentage",
          "type": "uint256"
        }
      ],
      "name": "ImmediateInvestLimitPctUpdated",
      "type": "event"
    },
    {
      "anonymous": false,
      "inputs": [
        {
          "indexed": false,
          "internalType": "uint256",
          "name": "percentage",
          "type": "uint256"
        }
      ],
      "name": "InvestPctUpdated",
      "type": "event"
    },
    {
      "anonymous": false,
      "inputs": [
        {
          "indexed": false,
          "internalType": "uint256",
          "name": "amount",
          "type": "uint256"
        }
      ],
      "name": "Invested",
      "type": "event"
    },
    {
      "anonymous": false,
      "inputs": [
        {
          "indexed": false,
          "internalType": "uint16",
          "name": "pct",
          "type": "uint16"
        }
      ],
      "name": "LossTolerancePctUpdated",
      "type": "event"
    },
    {
      "anonymous": false,
      "inputs": [
        {
          "indexed": false,
          "internalType": "uint64",
          "name": "newMinLockPeriod",
          "type": "uint64"
        }
      ],
      "name": "MinLockPeriodUpdated",
      "type": "event"
    },
    {
      "anonymous": false,
      "inputs": [
        {
          "indexed": false,
          "internalType": "address",
          "name": "account",
          "type": "address"
        }
      ],
      "name": "Paused",
      "type": "event"
    },
    {
      "anonymous": false,
      "inputs": [
        {
          "indexed": false,
          "internalType": "uint16",
          "name": "pct",
          "type": "uint16"
        }
      ],
      "name": "PerfFeePctUpdated",
      "type": "event"
    },
    {
      "anonymous": false,
      "inputs": [
        {
          "indexed": true,
          "internalType": "bytes32",
          "name": "role",
          "type": "bytes32"
        },
        {
          "indexed": true,
          "internalType": "bytes32",
          "name": "previousAdminRole",
          "type": "bytes32"
        },
        {
          "indexed": true,
          "internalType": "bytes32",
          "name": "newAdminRole",
          "type": "bytes32"
        }
      ],
      "name": "RoleAdminChanged",
      "type": "event"
    },
    {
      "anonymous": false,
      "inputs": [
        {
          "indexed": true,
          "internalType": "bytes32",
          "name": "role",
          "type": "bytes32"
        },
        {
          "indexed": true,
          "internalType": "address",
          "name": "account",
          "type": "address"
        },
        {
          "indexed": true,
          "internalType": "address",
          "name": "sender",
          "type": "address"
        }
      ],
      "name": "RoleGranted",
      "type": "event"
    },
    {
      "anonymous": false,
      "inputs": [
        {
          "indexed": true,
          "internalType": "bytes32",
          "name": "role",
          "type": "bytes32"
        },
        {
          "indexed": true,
          "internalType": "address",
          "name": "account",
          "type": "address"
        },
        {
          "indexed": true,
          "internalType": "address",
          "name": "sender",
          "type": "address"
        }
      ],
      "name": "RoleRevoked",
      "type": "event"
    },
    {
      "anonymous": false,
      "inputs": [
        {
          "indexed": true,
          "internalType": "uint256",
          "name": "id",
          "type": "uint256"
        },
        {
          "indexed": false,
          "internalType": "uint256",
          "name": "amount",
          "type": "uint256"
        },
        {
          "indexed": true,
          "internalType": "address",
          "name": "depositor",
          "type": "address"
        },
        {
          "indexed": false,
          "internalType": "uint256",
          "name": "lockedUntil",
          "type": "uint256"
        }
      ],
      "name": "Sponsored",
      "type": "event"
    },
    {
      "anonymous": false,
      "inputs": [
        {
          "indexed": true,
          "internalType": "address",
          "name": "strategy",
          "type": "address"
        }
      ],
      "name": "StrategyUpdated",
      "type": "event"
    },
    {
      "anonymous": false,
      "inputs": [
        {
          "indexed": true,
          "internalType": "address",
          "name": "fromToken",
          "type": "address"
        },
        {
          "indexed": true,
          "internalType": "address",
          "name": "toToken",
          "type": "address"
        },
        {
          "indexed": false,
          "internalType": "uint256",
          "name": "fromAmount",
          "type": "uint256"
        },
        {
          "indexed": false,
          "internalType": "uint256",
          "name": "toAmount",
          "type": "uint256"
        }
      ],
      "name": "Swap",
      "type": "event"
    },
    {
      "anonymous": false,
      "inputs": [
        {
          "indexed": true,
          "internalType": "address",
          "name": "treasury",
          "type": "address"
        }
      ],
      "name": "TreasuryUpdated",
      "type": "event"
    },
    {
      "anonymous": false,
      "inputs": [
        {
          "indexed": false,
          "internalType": "address",
          "name": "account",
          "type": "address"
        }
      ],
      "name": "Unpaused",
      "type": "event"
    },
    {
      "anonymous": false,
      "inputs": [
        {
          "indexed": true,
          "internalType": "uint256",
          "name": "id",
          "type": "uint256"
        },
        {
          "indexed": false,
          "internalType": "uint256",
          "name": "amount",
          "type": "uint256"
        },
        {
          "indexed": true,
          "internalType": "address",
          "name": "to",
          "type": "address"
        },
        {
          "indexed": false,
          "internalType": "bool",
          "name": "burned",
          "type": "bool"
        }
      ],
      "name": "Unsponsored",
      "type": "event"
    },
    {
      "anonymous": false,
      "inputs": [
        {
          "indexed": false,
          "internalType": "address",
          "name": "claimerId",
          "type": "address"
        },
        {
          "indexed": true,
          "internalType": "address",
          "name": "to",
          "type": "address"
        },
        {
          "indexed": false,
          "internalType": "uint256",
          "name": "amount",
          "type": "uint256"
        },
        {
          "indexed": false,
          "internalType": "uint256",
          "name": "burnedShares",
          "type": "uint256"
        },
        {
          "indexed": false,
          "internalType": "uint256",
          "name": "perfFee",
          "type": "uint256"
        },
        {
          "indexed": false,
          "internalType": "uint256",
          "name": "totalUnderlying",
          "type": "uint256"
        },
        {
          "indexed": false,
          "internalType": "uint256",
          "name": "totalShares",
          "type": "uint256"
        }
      ],
      "name": "YieldClaimed",
      "type": "event"
    },
    {
      "inputs": [],
      "name": "DEFAULT_ADMIN_ROLE",
      "outputs": [
        {
          "internalType": "bytes32",
          "name": "",
          "type": "bytes32"
        }
      ],
      "stateMutability": "view",
      "type": "function"
    },
    {
      "inputs": [],
      "name": "KEEPER_ROLE",
      "outputs": [
        {
          "internalType": "bytes32",
          "name": "",
          "type": "bytes32"
        }
      ],
      "stateMutability": "view",
      "type": "function"
    },
    {
      "inputs": [],
      "name": "MAX_DEPOSIT_LOCK_DURATION",
      "outputs": [
        {
          "internalType": "uint64",
          "name": "",
          "type": "uint64"
        }
      ],
      "stateMutability": "view",
      "type": "function"
    },
    {
      "inputs": [],
      "name": "MAX_SPONSOR_LOCK_DURATION",
      "outputs": [
        {
          "internalType": "uint64",
          "name": "",
          "type": "uint64"
        }
      ],
      "stateMutability": "view",
      "type": "function"
    },
    {
      "inputs": [],
      "name": "MIN_SPONSOR_LOCK_DURATION",
      "outputs": [
        {
          "internalType": "uint64",
          "name": "",
          "type": "uint64"
        }
      ],
      "stateMutability": "view",
      "type": "function"
    },
    {
      "inputs": [],
      "name": "SETTINGS_ROLE",
      "outputs": [
        {
          "internalType": "bytes32",
          "name": "",
          "type": "bytes32"
        }
      ],
      "stateMutability": "view",
      "type": "function"
    },
    {
      "inputs": [],
      "name": "SHARES_MULTIPLIER",
      "outputs": [
        {
          "internalType": "uint256",
          "name": "",
          "type": "uint256"
        }
      ],
      "stateMutability": "view",
      "type": "function"
    },
    {
      "inputs": [],
      "name": "SPONSOR_ROLE",
      "outputs": [
        {
          "internalType": "bytes32",
          "name": "",
          "type": "bytes32"
        }
      ],
      "stateMutability": "view",
      "type": "function"
    },
    {
      "inputs": [],
      "name": "accumulatedPerfFee",
      "outputs": [
        {
          "internalType": "uint256",
          "name": "",
          "type": "uint256"
        }
      ],
      "stateMutability": "view",
      "type": "function"
    },
    {
      "inputs": [
        {
          "components": [
            {
              "internalType": "address",
              "name": "token",
              "type": "address"
            },
            {
              "internalType": "address",
              "name": "pool",
              "type": "address"
            },
            {
              "internalType": "int128",
              "name": "tokenI",
              "type": "int128"
            },
            {
              "internalType": "int128",
              "name": "underlyingI",
              "type": "int128"
            }
          ],
          "internalType": "struct CurveSwapper.SwapPoolParam",
          "name": "_param",
          "type": "tuple"
        }
      ],
      "name": "addPool",
      "outputs": [],
      "stateMutability": "nonpayable",
      "type": "function"
    },
    {
      "inputs": [
        {
          "internalType": "address",
          "name": "_to",
          "type": "address"
        }
      ],
      "name": "claimYield",
      "outputs": [],
      "stateMutability": "nonpayable",
      "type": "function"
    },
    {
      "inputs": [
        {
          "internalType": "address",
          "name": "",
          "type": "address"
        }
      ],
      "name": "claimers",
      "outputs": [
        {
          "internalType": "uint256",
          "name": "totalPrincipal",
          "type": "uint256"
        },
        {
          "internalType": "uint256",
          "name": "totalShares",
          "type": "uint256"
        }
      ],
      "stateMutability": "view",
      "type": "function"
    },
    {
      "inputs": [
        {
          "components": [
            {
              "internalType": "address",
              "name": "inputToken",
              "type": "address"
            },
            {
              "internalType": "uint64",
              "name": "lockDuration",
              "type": "uint64"
            },
            {
              "internalType": "uint256",
              "name": "amount",
              "type": "uint256"
            },
            {
              "components": [
                {
                  "internalType": "uint16",
                  "name": "pct",
                  "type": "uint16"
                },
                {
                  "internalType": "address",
                  "name": "beneficiary",
                  "type": "address"
                },
                {
                  "internalType": "bytes",
                  "name": "data",
                  "type": "bytes"
                }
              ],
              "internalType": "struct IVault.ClaimParams[]",
              "name": "claims",
              "type": "tuple[]"
            },
            {
              "internalType": "string",
              "name": "name",
              "type": "string"
            },
            {
              "internalType": "uint256",
              "name": "slippage",
              "type": "uint256"
            }
          ],
          "internalType": "struct IVault.DepositParams",
          "name": "_params",
          "type": "tuple"
        }
      ],
      "name": "deposit",
      "outputs": [
        {
          "internalType": "uint256[]",
          "name": "depositIds",
          "type": "uint256[]"
        }
      ],
      "stateMutability": "nonpayable",
      "type": "function"
    },
    {
      "inputs": [
        {
          "internalType": "uint256",
          "name": "_groupId",
          "type": "uint256"
        },
        {
          "components": [
            {
              "internalType": "address",
              "name": "inputToken",
              "type": "address"
            },
            {
              "internalType": "uint64",
              "name": "lockDuration",
              "type": "uint64"
            },
            {
              "internalType": "uint256",
              "name": "amount",
              "type": "uint256"
            },
            {
              "components": [
                {
                  "internalType": "uint16",
                  "name": "pct",
                  "type": "uint16"
                },
                {
                  "internalType": "address",
                  "name": "beneficiary",
                  "type": "address"
                },
                {
                  "internalType": "bytes",
                  "name": "data",
                  "type": "bytes"
                }
              ],
              "internalType": "struct IVault.ClaimParams[]",
              "name": "claims",
              "type": "tuple[]"
            },
            {
              "internalType": "string",
              "name": "name",
              "type": "string"
            },
            {
              "internalType": "uint256",
              "name": "slippage",
              "type": "uint256"
            }
          ],
          "internalType": "struct IVault.DepositParams",
          "name": "_params",
          "type": "tuple"
        }
      ],
      "name": "depositForGroupId",
      "outputs": [
        {
          "internalType": "uint256[]",
          "name": "depositIds",
          "type": "uint256[]"
        }
      ],
      "stateMutability": "nonpayable",
      "type": "function"
    },
    {
      "inputs": [
        {
          "internalType": "uint256",
          "name": "",
          "type": "uint256"
        }
      ],
      "name": "depositGroupIdOwner",
      "outputs": [
        {
          "internalType": "address",
          "name": "",
          "type": "address"
        }
      ],
      "stateMutability": "view",
      "type": "function"
    },
    {
      "inputs": [
        {
          "internalType": "uint256",
          "name": "",
          "type": "uint256"
        }
      ],
      "name": "deposits",
      "outputs": [
        {
          "internalType": "uint256",
          "name": "amount",
          "type": "uint256"
        },
        {
          "internalType": "address",
          "name": "owner",
          "type": "address"
        },
        {
          "internalType": "address",
          "name": "claimerId",
          "type": "address"
        },
        {
          "internalType": "uint256",
          "name": "lockedUntil",
          "type": "uint256"
        }
      ],
      "stateMutability": "view",
      "type": "function"
    },
    {
      "inputs": [],
      "name": "exitPause",
      "outputs": [],
      "stateMutability": "nonpayable",
      "type": "function"
    },
    {
      "inputs": [],
      "name": "exitPaused",
      "outputs": [
        {
          "internalType": "bool",
          "name": "",
          "type": "bool"
        }
      ],
      "stateMutability": "view",
      "type": "function"
    },
    {
      "inputs": [],
      "name": "exitUnpause",
      "outputs": [],
      "stateMutability": "nonpayable",
      "type": "function"
    },
    {
      "inputs": [
        {
          "internalType": "address",
          "name": "_to",
          "type": "address"
        },
        {
          "internalType": "uint256[]",
          "name": "_ids",
          "type": "uint256[]"
        }
      ],
      "name": "forceWithdraw",
      "outputs": [],
      "stateMutability": "nonpayable",
      "type": "function"
    },
    {
      "inputs": [
        {
          "internalType": "bytes32",
          "name": "role",
          "type": "bytes32"
        }
      ],
      "name": "getRoleAdmin",
      "outputs": [
        {
          "internalType": "bytes32",
          "name": "",
          "type": "bytes32"
        }
      ],
      "stateMutability": "view",
      "type": "function"
    },
    {
      "inputs": [],
      "name": "getUnderlying",
      "outputs": [
        {
          "internalType": "address",
          "name": "",
          "type": "address"
        }
      ],
      "stateMutability": "view",
      "type": "function"
    },
    {
      "inputs": [
        {
          "internalType": "bytes32",
          "name": "role",
          "type": "bytes32"
        },
        {
          "internalType": "address",
          "name": "account",
          "type": "address"
        }
      ],
      "name": "grantRole",
      "outputs": [],
      "stateMutability": "nonpayable",
      "type": "function"
    },
    {
      "inputs": [
        {
          "internalType": "bytes32",
          "name": "role",
          "type": "bytes32"
        },
        {
          "internalType": "address",
          "name": "account",
          "type": "address"
        }
      ],
      "name": "hasRole",
      "outputs": [
        {
          "internalType": "bool",
          "name": "",
          "type": "bool"
        }
      ],
      "stateMutability": "view",
      "type": "function"
    },
    {
      "inputs": [],
      "name": "immediateInvestLimitPct",
      "outputs": [
        {
          "internalType": "uint16",
          "name": "",
          "type": "uint16"
        }
      ],
      "stateMutability": "view",
      "type": "function"
    },
    {
      "inputs": [],
      "name": "investPct",
      "outputs": [
        {
          "internalType": "uint16",
          "name": "",
          "type": "uint16"
        }
      ],
      "stateMutability": "view",
      "type": "function"
    },
    {
      "inputs": [],
      "name": "investState",
      "outputs": [
        {
          "internalType": "uint256",
          "name": "maxInvestableAmount",
          "type": "uint256"
        },
        {
          "internalType": "uint256",
          "name": "alreadyInvested",
          "type": "uint256"
        }
      ],
      "stateMutability": "view",
      "type": "function"
    },
    {
      "inputs": [],
      "name": "lossTolerancePct",
      "outputs": [
        {
          "internalType": "uint16",
          "name": "",
          "type": "uint16"
        }
      ],
      "stateMutability": "view",
      "type": "function"
    },
    {
      "inputs": [],
      "name": "minLockPeriod",
      "outputs": [
        {
          "internalType": "uint64",
          "name": "",
          "type": "uint64"
        }
      ],
      "stateMutability": "view",
      "type": "function"
    },
    {
      "inputs": [
        {
          "internalType": "address",
          "name": "_to",
          "type": "address"
        },
        {
          "internalType": "uint256[]",
          "name": "_ids",
          "type": "uint256[]"
        },
        {
          "internalType": "uint256[]",
          "name": "_amounts",
          "type": "uint256[]"
        }
      ],
      "name": "partialUnsponsor",
      "outputs": [],
      "stateMutability": "nonpayable",
      "type": "function"
    },
    {
      "inputs": [
        {
          "internalType": "address",
          "name": "_to",
          "type": "address"
        },
        {
          "internalType": "uint256[]",
          "name": "_ids",
          "type": "uint256[]"
        },
        {
          "internalType": "uint256[]",
          "name": "_amounts",
          "type": "uint256[]"
        }
      ],
      "name": "partialWithdraw",
      "outputs": [],
      "stateMutability": "nonpayable",
      "type": "function"
    },
    {
      "inputs": [],
      "name": "pause",
      "outputs": [],
      "stateMutability": "nonpayable",
      "type": "function"
    },
    {
      "inputs": [],
      "name": "paused",
      "outputs": [
        {
          "internalType": "bool",
          "name": "",
          "type": "bool"
        }
      ],
      "stateMutability": "view",
      "type": "function"
    },
    {
      "inputs": [],
      "name": "perfFeePct",
      "outputs": [
        {
          "internalType": "uint16",
          "name": "",
          "type": "uint16"
        }
      ],
      "stateMutability": "view",
      "type": "function"
    },
    {
      "inputs": [
        {
          "internalType": "address",
          "name": "claimerId",
          "type": "address"
        }
      ],
      "name": "principalOf",
      "outputs": [
        {
          "internalType": "uint256",
          "name": "",
          "type": "uint256"
        }
      ],
      "stateMutability": "view",
      "type": "function"
    },
    {
      "inputs": [
        {
          "internalType": "address",
          "name": "_inputToken",
          "type": "address"
        }
      ],
      "name": "removePool",
      "outputs": [],
      "stateMutability": "nonpayable",
      "type": "function"
    },
    {
      "inputs": [
        {
          "internalType": "bytes32",
          "name": "role",
          "type": "bytes32"
        },
        {
          "internalType": "address",
          "name": "account",
          "type": "address"
        }
      ],
      "name": "renounceRole",
      "outputs": [],
      "stateMutability": "nonpayable",
      "type": "function"
    },
    {
      "inputs": [
        {
          "internalType": "bytes32",
          "name": "role",
          "type": "bytes32"
        },
        {
          "internalType": "address",
          "name": "account",
          "type": "address"
        }
      ],
      "name": "revokeRole",
      "outputs": [],
      "stateMutability": "nonpayable",
      "type": "function"
    },
    {
      "inputs": [
        {
          "internalType": "uint16",
          "name": "_pct",
          "type": "uint16"
        }
      ],
      "name": "setImmediateInvestLimitPct",
      "outputs": [],
      "stateMutability": "nonpayable",
      "type": "function"
    },
    {
      "inputs": [
        {
          "internalType": "uint16",
          "name": "_investPct",
          "type": "uint16"
        }
      ],
      "name": "setInvestPct",
      "outputs": [],
      "stateMutability": "nonpayable",
      "type": "function"
    },
    {
      "inputs": [
        {
          "internalType": "uint16",
          "name": "_pct",
          "type": "uint16"
        }
      ],
      "name": "setLossTolerancePct",
      "outputs": [],
      "stateMutability": "nonpayable",
      "type": "function"
    },
    {
      "inputs": [
        {
          "internalType": "uint64",
          "name": "_minLockPeriod",
          "type": "uint64"
        }
      ],
      "name": "setMinLockPeriod",
      "outputs": [],
      "stateMutability": "nonpayable",
      "type": "function"
    },
    {
      "inputs": [
        {
          "internalType": "uint16",
          "name": "_perfFeePct",
          "type": "uint16"
        }
      ],
      "name": "setPerfFeePct",
      "outputs": [],
      "stateMutability": "nonpayable",
      "type": "function"
    },
    {
      "inputs": [
        {
          "internalType": "address",
          "name": "_strategy",
          "type": "address"
        }
      ],
      "name": "setStrategy",
      "outputs": [],
      "stateMutability": "nonpayable",
      "type": "function"
    },
    {
      "inputs": [
        {
          "internalType": "address",
          "name": "_treasury",
          "type": "address"
        }
      ],
      "name": "setTreasury",
      "outputs": [],
      "stateMutability": "nonpayable",
      "type": "function"
    },
    {
      "inputs": [
        {
          "internalType": "address",
          "name": "claimerId",
          "type": "address"
        }
      ],
      "name": "sharesOf",
      "outputs": [
        {
          "internalType": "uint256",
          "name": "",
          "type": "uint256"
        }
      ],
      "stateMutability": "view",
      "type": "function"
    },
    {
      "inputs": [
        {
          "internalType": "address",
          "name": "_inputToken",
          "type": "address"
        },
        {
          "internalType": "uint256",
          "name": "_amount",
          "type": "uint256"
        },
        {
          "internalType": "uint256",
          "name": "_lockDuration",
          "type": "uint256"
        },
        {
          "internalType": "uint256",
          "name": "_slippage",
          "type": "uint256"
        }
      ],
      "name": "sponsor",
      "outputs": [],
      "stateMutability": "nonpayable",
      "type": "function"
    },
    {
      "inputs": [],
      "name": "strategy",
      "outputs": [
        {
          "internalType": "contract IStrategy",
          "name": "",
          "type": "address"
        }
      ],
      "stateMutability": "view",
      "type": "function"
    },
    {
      "inputs": [
        {
          "internalType": "bytes4",
          "name": "interfaceId",
          "type": "bytes4"
        }
      ],
      "name": "supportsInterface",
      "outputs": [
        {
          "internalType": "bool",
          "name": "",
          "type": "bool"
        }
      ],
      "stateMutability": "view",
      "type": "function"
    },
    {
      "inputs": [
        {
          "internalType": "address",
          "name": "",
          "type": "address"
        }
      ],
      "name": "swappers",
      "outputs": [
        {
          "internalType": "contract ICurve",
          "name": "pool",
          "type": "address"
        },
        {
          "internalType": "uint8",
          "name": "tokenDecimals",
          "type": "uint8"
        },
        {
          "internalType": "uint8",
          "name": "underlyingDecimals",
          "type": "uint8"
        },
        {
          "internalType": "int128",
          "name": "tokenI",
          "type": "int128"
        },
        {
          "internalType": "int128",
          "name": "underlyingI",
          "type": "int128"
        }
      ],
      "stateMutability": "view",
      "type": "function"
    },
    {
      "inputs": [],
      "name": "totalPrincipal",
      "outputs": [
        {
          "internalType": "uint256",
          "name": "",
          "type": "uint256"
        }
      ],
      "stateMutability": "view",
      "type": "function"
    },
    {
      "inputs": [],
      "name": "totalShares",
      "outputs": [
        {
          "internalType": "uint256",
          "name": "",
          "type": "uint256"
        }
      ],
      "stateMutability": "view",
      "type": "function"
    },
    {
      "inputs": [],
      "name": "totalSponsored",
      "outputs": [
        {
          "internalType": "uint256",
          "name": "",
          "type": "uint256"
        }
      ],
      "stateMutability": "view",
      "type": "function"
    },
    {
      "inputs": [],
      "name": "totalUnderlying",
      "outputs": [
        {
          "internalType": "uint256",
          "name": "",
          "type": "uint256"
        }
      ],
      "stateMutability": "view",
      "type": "function"
    },
    {
      "inputs": [],
      "name": "totalUnderlyingMinusSponsored",
      "outputs": [
        {
          "internalType": "uint256",
          "name": "",
          "type": "uint256"
        }
      ],
      "stateMutability": "view",
      "type": "function"
    },
    {
      "inputs": [
        {
          "internalType": "address",
          "name": "_newAdmin",
          "type": "address"
        }
      ],
      "name": "transferAdminRights",
      "outputs": [],
      "stateMutability": "nonpayable",
      "type": "function"
    },
    {
      "inputs": [],
      "name": "treasury",
      "outputs": [
        {
          "internalType": "address",
          "name": "",
          "type": "address"
        }
      ],
      "stateMutability": "view",
      "type": "function"
    },
    {
      "inputs": [],
      "name": "underlying",
      "outputs": [
        {
          "internalType": "contract IERC20Metadata",
          "name": "",
          "type": "address"
        }
      ],
      "stateMutability": "view",
      "type": "function"
    },
    {
      "inputs": [],
      "name": "unpause",
      "outputs": [],
      "stateMutability": "nonpayable",
      "type": "function"
    },
    {
      "inputs": [
        {
          "internalType": "address",
          "name": "_to",
          "type": "address"
        },
        {
          "internalType": "uint256[]",
          "name": "_ids",
          "type": "uint256[]"
        }
      ],
      "name": "unsponsor",
      "outputs": [],
      "stateMutability": "nonpayable",
      "type": "function"
    },
    {
      "inputs": [],
      "name": "updateInvested",
      "outputs": [],
      "stateMutability": "nonpayable",
      "type": "function"
    },
    {
      "inputs": [
        {
          "internalType": "address",
          "name": "_to",
          "type": "address"
        },
        {
          "internalType": "uint256[]",
          "name": "_ids",
          "type": "uint256[]"
        }
      ],
      "name": "withdraw",
      "outputs": [],
      "stateMutability": "nonpayable",
      "type": "function"
    },
    {
      "inputs": [],
      "name": "withdrawPerformanceFee",
      "outputs": [],
      "stateMutability": "nonpayable",
      "type": "function"
    },
    {
      "inputs": [
        {
          "internalType": "address",
          "name": "_to",
          "type": "address"
        }
      ],
      "name": "yieldFor",
      "outputs": [
        {
          "internalType": "uint256",
          "name": "claimableYield",
          "type": "uint256"
        },
        {
          "internalType": "uint256",
          "name": "shares",
          "type": "uint256"
        },
        {
          "internalType": "uint256",
          "name": "perfFee",
          "type": "uint256"
        }
      ],
      "stateMutability": "view",
      "type": "function"
    }
  ],
  "transactionHash": "0x7a0b02656cd558a0a41a466312728162dbb6bfa470c20a51cb0ca5b615a44189",
  "args": [
    "0x6199f797b524166122f1c6E6a78fF321389bB686",
    1,
    9000,
    "0xCfF577D4072BF126Cdd73CDC7353637A1Fa5f4CE",
    "0xCfF577D4072BF126Cdd73CDC7353637A1Fa5f4CE",
    100,
    200,
    [
      {
        "token": "0xfE89B9085FB0f8cdf2726638B1BB0688A3A4D25a",
        "pool": "0x57Dced1AAF160AC6e90656321245673951c26B6a",
        "tokenI": 1,
        "underlyingI": 0
      },
      {
        "token": "0x30e2B7a907997fDC5a71E377Ece54FAae9F5392D",
        "pool": "0x57Dced1AAF160AC6e90656321245673951c26B6a",
        "tokenI": 2,
        "underlyingI": 0
      }
    ],
    0
  ],
  "numDeployments": 1,
  "solcInputHash": "b6d329131ba458f736cd0ea1d29cae64",
  "bytecode": "0x60c06040523480156200001157600080fd5b5060405162006a1538038062006a15833981016040819052620000349162000ee8565b60016002556003805461ffff191690556200005f61ffff8216620003e7602090811b6200258a17901c565b6200007d576040516325cd038560e01b815260040160405180910390fd5b620000978761ffff16620003e760201b6200258a1760201c565b620000b55760405163f799c76d60e01b815260040160405180910390fd5b620000cf8461ffff16620003e760201b6200258a1760201c565b620000ed5760405163d25b1e4b60e01b815260040160405180910390fd5b620001078361ffff16620003e760201b6200258a1760201c565b6200012557604051631d05623160e01b815260040160405180910390fd5b6001600160a01b0389166200014d57604051631fc8ba7960e31b815260040160405180910390fd5b6001600160a01b03861662000175576040516335af31e960e11b815260040160405180910390fd5b6001600160a01b0385166200019d576040516330c9889360e01b815260040160405180910390fd5b620001a888620003ef565b620001b560008662000433565b620001e17ffc8737ab85eb45125971625a9ebdb75cc78e01d5c1fa80c4c6e5203f47bc4fab8662000433565b6200020d7ffaf9b26485088dee58863e57c46603d6cdcbadc7475ac6d8910fab0ecf6030958662000433565b620002397f1597bc5e34ff090612f53164e4e642d2ab4fc78bffe19ed1b602a0d12559561a8662000433565b86600360026101000a81548161ffff021916908361ffff160217905550886001600160a01b03166080816001600160a01b03168152505085600d60006101000a8154816001600160a01b0302191690836001600160a01b0316021790555087600360046101000a8154816001600160401b0302191690836001600160401b0316021790555083600d60146101000a81548161ffff021916908361ffff16021790555082600f60006101000a81548161ffff021916908361ffff16021790555080600660006101000a81548161ffff021916908361ffff1602179055506080516001600160a01b031663313ce5676040518163ffffffff1660e01b8152600401602060405180830381865afa15801562000356573d6000803e3d6000fd5b505050506040513d601f19601f820116820180604052508101906200037c919062000fd1565b6200038990600a62001110565b6200039690600a62001121565b60a052620003a482620004a2565b6040516001600160a01b038716907f7dae230f18360d76a040c81f050aa14eb9d6dc7901b20fc5d855e2a20fe814d190600090a25050505050505050506200125b565b612710101590565b6001600160401b038116158062000411575062dd7c006001600160401b038216115b156200043057604051636df7cef760e11b815260040160405180910390fd5b50565b6200043f8282620004f5565b6200049e5760008281526001602081815260408084206001600160a01b0386168086529252808420805460ff19169093179092559051339285917f2f8788117e7eff1d82e926ec794901d17c78024a50270940304540a733656f0d9190a45b5050565b805160005b81811015620004f057620004dd838281518110620004c957620004c962001143565b60200260200101516200052260201b60201c565b620004e88162001159565b9050620004a7565b505050565b60008281526001602090815260408083206001600160a01b038516845290915290205460ff165b92915050565b80516001600160a01b039081166000908152602081905260409020541615620005925760405162461bcd60e51b815260206004820152601d60248201527f746f6b656e20616c7265616479206861732061207377617020706f6f6c00000060448201526064015b60405180910390fd5b6080516001600160a01b031681602001516001600160a01b031663c661065783606001516001600160801b03166040518263ffffffff1660e01b8152600401620005de91815260200190565b602060405180830381865afa158015620005fc573d6000803e3d6000fd5b505050506040513d601f19601f8201168201806040525081019062000622919062001177565b6001600160a01b0316146200068f5760405162461bcd60e51b815260206004820152602c60248201527f5f756e6465726c79696e674920646f6573206e6f74206d6174636820756e646560448201526b39363cb4b733903a37b5b2b760a11b606482015260840162000589565b600081600001516001600160a01b031663313ce5676040518163ffffffff1660e01b8152600401602060405180830381865afa158015620006d4573d6000803e3d6000fd5b505050506040513d601f19601f82011682018060405250810190620006fa919062000fd1565b60ff16905060006200070b60805190565b6001600160a01b031663313ce5676040518163ffffffff1660e01b8152600401602060405180830381865afa15801562000749573d6000803e3d6000fd5b505050506040513d601f19601f820116820180604052508101906200076f919062000fd1565b6040805160a0810182526020808701516001600160a01b03908116835260ff8781168385019081529581168486018181528a870151600f90810b60608089019182528d015190910b608088019081528c5186166000908152968790529790952095518654985191518416600160a81b0260ff60a81b1992909416600160a01b026001600160a81b031990991694169390931796909617919091161782555191516001600160801b03908116600160801b029216919091176001909101559050620008476200083c60805190565b6020850151620008cc565b825160208401516200085a9190620008cc565b82602001516001600160a01b031683600001516001600160a01b03167f1576b5fcfa863788d9ef6558cab7aa68d4b48c44eb7bacaf1a8ac6d6b9d26f9485604001518660600151604051620008bf929190600f92830b8152910b602082015260400190565b60405180910390a3505050565b604051636eb1769f60e11b81523060048201526001600160a01b0382811660248301526000919084169063dd62ed3e90604401602060405180830381865afa1580156200091d573d6000803e3d6000fd5b505050506040513d601f19601f8201168201806040525081019062000943919062001197565b905080620004f057620004f082600019856001600160a01b03166200097260201b62002592179092919060201c565b801580620009f05750604051636eb1769f60e11b81523060048201526001600160a01b03838116602483015284169063dd62ed3e90604401602060405180830381865afa158015620009c8573d6000803e3d6000fd5b505050506040513d601f19601f82011682018060405250810190620009ee919062001197565b155b62000a645760405162461bcd60e51b815260206004820152603660248201527f5361666545524332303a20617070726f76652066726f6d206e6f6e2d7a65726f60448201527f20746f206e6f6e2d7a65726f20616c6c6f77616e636500000000000000000000606482015260840162000589565b604080516001600160a01b038416602482015260448082018490528251808303909101815260649091019091526020810180516001600160e01b0390811663095ea7b360e01b17909152620004f091859162000abc16565b600062000b18826040518060400160405280602081526020017f5361666545524332303a206c6f772d6c6576656c2063616c6c206661696c6564815250856001600160a01b031662000b9a60201b6200270f179092919060201c565b805190915015620004f0578080602001905181019062000b399190620011b1565b620004f05760405162461bcd60e51b815260206004820152602a60248201527f5361666545524332303a204552433230206f7065726174696f6e20646964206e6044820152691bdd081cdd58d8d9595960b21b606482015260840162000589565b606062000bab848460008562000bb3565b949350505050565b60608247101562000c165760405162461bcd60e51b815260206004820152602660248201527f416464726573733a20696e73756666696369656e742062616c616e636520666f6044820152651c8818d85b1b60d21b606482015260840162000589565b600080866001600160a01b0316858760405162000c34919062001208565b60006040518083038185875af1925050503d806000811462000c73576040519150601f19603f3d011682016040523d82523d6000602084013e62000c78565b606091505b50909250905062000c8c8783838762000c97565b979650505050505050565b6060831562000d0857825162000d00576001600160a01b0385163b62000d005760405162461bcd60e51b815260206004820152601d60248201527f416464726573733a2063616c6c20746f206e6f6e2d636f6e7472616374000000604482015260640162000589565b508162000bab565b62000bab838381511562000d1f5781518083602001fd5b8060405162461bcd60e51b815260040162000589919062001226565b6001600160a01b03811681146200043057600080fd5b805161ffff8116811462000d6457600080fd5b919050565b805162000d648162000d3b565b634e487b7160e01b600052604160045260246000fd5b604051608081016001600160401b038111828210171562000db15762000db162000d76565b60405290565b604051601f8201601f191681016001600160401b038111828210171562000de25762000de262000d76565b604052919050565b8051600f81900b811462000d6457600080fd5b600082601f83011262000e0f57600080fd5b815160206001600160401b0382111562000e2d5762000e2d62000d76565b62000e3d818360051b0162000db7565b82815260079290921b8401810191818101908684111562000e5d57600080fd5b8286015b8481101562000edd576080818903121562000e7c5760008081fd5b62000e8662000d8c565b815162000e938162000d3b565b81528185015162000ea48162000d3b565b81860152604062000eb783820162000dea565b90820152606062000eca83820162000dea565b9082015283529183019160800162000e61565b509695505050505050565b60008060008060008060008060006101208a8c03121562000f0857600080fd5b895162000f158162000d3b565b60208b01519099506001600160401b03808216821462000f3457600080fd5b81995062000f4560408d0162000d51565b985060608c0151915062000f598262000d3b565b81975062000f6a60808d0162000d69565b965062000f7a60a08d0162000d51565b955062000f8a60c08d0162000d51565b945060e08c015191508082111562000fa157600080fd5b5062000fb08c828d0162000dfd565b92505062000fc26101008b0162000d51565b90509295985092959850929598565b60006020828403121562000fe457600080fd5b815160ff8116811462000ff657600080fd5b9392505050565b634e487b7160e01b600052601160045260246000fd5b600181815b808511156200105457816000190482111562001038576200103862000ffd565b808516156200104657918102915b93841c939080029062001018565b509250929050565b6000826200106d575060016200051c565b816200107c575060006200051c565b8160018114620010955760028114620010a057620010c0565b60019150506200051c565b60ff841115620010b457620010b462000ffd565b50506001821b6200051c565b5060208310610133831016604e8410600b8410161715620010e5575081810a6200051c565b620010f1838362001013565b806000190482111562001108576200110862000ffd565b029392505050565b600062000ff660ff8416836200105c565b60008160001904831182151516156200113e576200113e62000ffd565b500290565b634e487b7160e01b600052603260045260246000fd5b600060001982141562001170576200117062000ffd565b5060010190565b6000602082840312156200118a57600080fd5b815162000ff68162000d3b565b600060208284031215620011aa57600080fd5b5051919050565b600060208284031215620011c457600080fd5b8151801515811462000ff657600080fd5b60005b83811015620011f2578181015183820152602001620011d8565b8381111562001202576000848401525b50505050565b600082516200121c818460208701620011d5565b9190910192915050565b602081526000825180602084015262001247816040850160208701620011d5565b601f01601f19169190910160400192915050565b60805160a051615724620012f1600039600081816112660152818161136c01526144970152600081816105d10152818161074401528181610f0d015281816113bc01528181611a8601528181611f8c015281816120230152818161298f01528181612cb101528181612e0c01528181612f8f01528181613264015281816133400152818161385e01526146f501526157246000f3fe608060405234801561001057600080fd5b50600436106103d05760003560e01c806391d14854116101ff578063cd00dd411161011a578063e4020fdf116100ad578063f5eb42dc1161007c578063f5eb42dc146109be578063f6289887146109ea578063f78797c014610a11578063fd6e921714610a3a57600080fd5b8063e4020fdf14610981578063e751c14114610994578063eb0ebfbc146109a2578063f0f44260146109ab57600080fd5b8063d7c01e12116100e9578063d7c01e121461091f578063d9db2b7714610932578063da62fba914610947578063df6f9ba71461096e57600080fd5b8063cd00dd41146108d3578063cd0d9ba8146108e6578063cda2695a146108f9578063d547741f1461090c57600080fd5b8063b02c43d011610192578063bd2e3ecd11610161578063bd2e3ecd14610628578063c0ddb6921461089c578063c2d79444146108a4578063c70920bc146108cb57600080fd5b8063b02c43d0146107c9578063b5106add1461083b578063b59a40cb1461084e578063bba97d331461086e57600080fd5b8063a1ac20eb116101ce578063a1ac20eb14610785578063a217fddf14610798578063a8c62e76146107a0578063abaa9d70146107b957600080fd5b806391d14854146107095780639816f47314610742578063999927df14610768578063a164c25d1461077b57600080fd5b80634fc78d68116102ef5780636f307dc3116102825780637e4b8da0116102515780637e4b8da0146106455780638293744b146106585780638456cb591461066b5780638cad7fbe1461067357600080fd5b80636f307dc3146105cc57806373ae54b5146105f357806376490b56146106285780637e2cba6f1461063257600080fd5b80635e848655116102be5780635e8486551461054f57806361d027b31461055757806361e20a1c146105825780636e7007e6146105ab57600080fd5b80634fc78d6814610521578063563233f6146105295780635c975abb1461053c5780635cb0d4061461054757600080fd5b80633a98ef39116103675780633f4ba83a116103365780633f4ba83a146104e057806348b08ee8146104e85780634b1533b2146104fb5780634e813ac41461050457600080fd5b80633a98ef39146104a95780633b7d0946146104b25780633ba52fc6146104c55780633f383236146104cd57600080fd5b80632f2ff15d116103a35780632f2ff15d1461044757806333a100ca1461045c578063364bc15a1461046f57806336568abe1461049657600080fd5b806301ffc9a7146103d55780631325d5f1146103fd57806319d3ee3d1461041a578063248a9ca314610423575b600080fd5b6103e86103e3366004614d05565b610a4e565b60405190151581526020015b60405180910390f35b61040c670de0b6b3a764000081565b6040519081526020016103f4565b61040c600e5481565b61040c610431366004614d2f565b6000908152600160208190526040909120015490565b61045a610455366004614d5d565b610ac6565b005b61045a61046a366004614d8d565b610af1565b61040c7ffc8737ab85eb45125971625a9ebdb75cc78e01d5c1fa80c4c6e5203f47bc4fab81565b61045a6104a4366004614d5d565b610d46565b61040c60055481565b61045a6104c0366004614d8d565b610dd7565b61045a610e32565b61045a6104db366004614e2c565b610f36565b61045a610f8e565b61045a6104f6366004614ebf565b610fe7565b61040c600c5481565b61050c6110c5565b604080519283526020830191909152016103f4565b61045a611187565b61045a610537366004614ebf565b611491565b60035460ff166103e8565b61045a611591565b61045a6115e8565b600d5461056a906001600160a01b031681565b6040516001600160a01b0390911681526020016103f4565b61040c610590366004614d8d565b6001600160a01b03166000908152600b602052604090205490565b600f546105b99061ffff1681565b60405161ffff90911681526020016103f4565b61056a7f000000000000000000000000000000000000000000000000000000000000000081565b60035461060f90640100000000900467ffffffffffffffff1681565b60405167ffffffffffffffff90911681526020016103f4565b61060f62dd7c0081565b61045a610640366004614ebf565b61163f565b61045a610653366004614f26565b611712565b61045a610666366004614fa9565b611767565b61045a6117f8565b6106ca610681366004614d8d565b600060208190529081526040902080546001909101546001600160a01b0382169160ff600160a01b8204811692600160a81b9092041690600f81810b91600160801b9004900b85565b604080516001600160a01b03909616865260ff94851660208701529390921692840192909252600f91820b6060840152900b608082015260a0016103f4565b6103e8610717366004614d5d565b60009182526001602090815260408084206001600160a01b0393909316845291905290205460ff1690565b7f000000000000000000000000000000000000000000000000000000000000000061056a565b61045a610776366004614d8d565b61184f565b61060f6212750081565b61045a610793366004614ebf565b611abd565b61040c600081565b60065461056a906201000090046001600160a01b031681565b600354610100900460ff166103e8565b61080b6107d7366004614d2f565b600960205260009081526040902080546001820154600283015460039093015491926001600160a01b039182169291169084565b6040516103f494939291909384526001600160a01b03928316602085015291166040830152606082015260800190565b61045a610849366004614d8d565b611ba3565b61086161085c366004615016565b611d87565b6040516103f4919061504b565b61088161087c366004614d8d565b611de4565b604080519384526020840192909252908201526060016103f4565b61040c611ea3565b61040c7f1597bc5e34ff090612f53164e4e642d2ab4fc78bffe19ed1b602a0d12559561a81565b61040c611ee6565b61045a6108e1366004614f26565b612096565b6108616108f436600461508f565b6120da565b61045a6109073660046150d6565b612152565b61045a61091a366004614d5d565b61234f565b61045a61092d366004615111565b612375565b600d546105b990600160a01b900461ffff1681565b61050c610955366004614d8d565b600b602052600090815260409020805460019091015482565b61045a61097c366004614fa9565b61242b565b61045a61098f366004614fa9565b61246f565b6006546105b99061ffff1681565b61040c60045481565b61045a6109b9366004614d8d565b6124b1565b61040c6109cc366004614d8d565b6001600160a01b03166000908152600b602052604090206001015490565b61040c7ffaf9b26485088dee58863e57c46603d6cdcbadc7475ac6d8910fab0ecf60309581565b61056a610a1f366004614d2f565b6008602052600090815260409020546001600160a01b031681565b6003546105b99062010000900461ffff1681565b60006001600160e01b031982167f944e9e23000000000000000000000000000000000000000000000000000000001480610ab157506001600160e01b031982167f0fae047800000000000000000000000000000000000000000000000000000000145b80610ac05750610ac082612728565b92915050565b60008281526001602081905260409091200154610ae28161278f565b610aec8383612799565b505050565b3360009081527f473683a5a3e156e4e3a6c3a7a6d9e3d4a58f9392a3bba04b84ad6221b3f7f356602052604090205460ff16610b4057604051631e15456f60e11b815260040160405180910390fd5b6001600160a01b038116610b6757604051634f08b3f360e11b815260040160405180910390fd5b306001600160a01b0316816001600160a01b031663fbfa77cf6040518163ffffffff1660e01b8152600401602060405180830381865afa158015610baf573d6000803e3d6000fd5b505050506040513d601f19601f82011682018060405250810190610bd3919061513b565b6001600160a01b031614610c13576040517f0251bab500000000000000000000000000000000000000000000000000000000815260040160405180910390fd5b6006546201000090046001600160a01b031615801590610ca55750600660029054906101000a90046001600160a01b03166001600160a01b0316635be9b2d36040518163ffffffff1660e01b8152600401602060405180830381865afa158015610c81573d6000803e3d6000fd5b505050506040513d601f19601f82011682018060405250810190610ca59190615158565b15610cdc576040517fd28a9fdb00000000000000000000000000000000000000000000000000000000815260040160405180910390fd5b600680547fffffffffffffffffffff0000000000000000000000000000000000000000ffff16620100006001600160a01b038416908102919091179091556040517f4da9c22c924692646a21cf1f423781ae3285198dc22e8a6912835d3272b90b3c90600090a250565b6001600160a01b0381163314610dc95760405162461bcd60e51b815260206004820152602f60248201527f416363657373436f6e74726f6c3a2063616e206f6e6c792072656e6f756e636560448201527f20726f6c657320666f722073656c66000000000000000000000000000000000060648201526084015b60405180910390fd5b610dd38282612820565b5050565b3360009081527fa6eef7e35abe7026729641147f7915573c7e97b47efa546f5f6e3230263bcb49602052604090205460ff16610e2657604051631bacfc6960e01b815260040160405180910390fd5b610e2f816128a3565b50565b3360009081527f10c15aae13326e9b33c92ffbb94efb7492c500f0cca324caca9bd1aca194ed18602052604090205460ff16610e8157604051637660f80560e11b815260040160405180910390fd5b600e5480610ebb576040517f0a33934000000000000000000000000000000000000000000000000000000000815260040160405180910390fd5b6000600e55610ec981612977565b6040518181527fb7eeacba6b133788365610e83d3f130d07b6ef6e78877961f25b3f61fcba07529060200160405180910390a1600d54610e2f906001600160a01b037f00000000000000000000000000000000000000000000000000000000000000008116911683612bab565b3360009081527fa6eef7e35abe7026729641147f7915573c7e97b47efa546f5f6e3230263bcb49602052604090205460ff16610f8557604051631bacfc6960e01b815260040160405180910390fd5b610e2f81612bf4565b3360009081527fa6eef7e35abe7026729641147f7915573c7e97b47efa546f5f6e3230263bcb49602052604090205460ff16610fdd57604051631bacfc6960e01b815260040160405180910390fd5b610fe561303e565b565b3360009081527f473683a5a3e156e4e3a6c3a7a6d9e3d4a58f9392a3bba04b84ad6221b3f7f356602052604090205460ff1661103657604051631e15456f60e11b815260040160405180910390fd5b61ffff81166127101015611076576040517f25cd038500000000000000000000000000000000000000000000000000000000815260040160405180910390fd5b60405161ffff821681527fd7adeddbad454575cc686aee138c6f258b6177a977b4e7be7086ebb25de0e9a39060200160405180910390a16006805461ffff191661ffff92909216919091179055565b60065460009081906201000090046001600160a01b03166110e95750600091829150565b6003546111089062010000900461ffff16611102611ee6565b90613090565b9150600660029054906101000a90046001600160a01b03166001600160a01b0316634ad0b6846040518163ffffffff1660e01b8152600401602060405180830381865afa15801561115d573d6000803e3d6000fd5b505050506040513d601f19601f82011682018060405250810190611181919061517a565b90509091565b3360009081527f10c15aae13326e9b33c92ffbb94efb7492c500f0cca324caca9bd1aca194ed18602052604090205460ff166111d657604051637660f80560e11b815260040160405180910390fd5b6006546201000090046001600160a01b031661120557604051634f08b3f360e11b815260040160405180910390fd5b6000806112106110c5565b915091508082141561124e576040517ff096593000000000000000000000000000000000000000000000000000000000815260040160405180910390fd5b8181111561135c57600061126283836151a9565b90507f00000000000000000000000000000000000000000000000000000000000000008110156112a557604051630e33bdb760e11b815260040160405180910390fd5b6006546040516319d1885d60e31b8152600481018390526000916201000090046001600160a01b03169063ce8c42e8906024016020604051808303816000875af11580156112f7573d6000803e3d6000fd5b505050506040513d601f19601f8201168201806040525081019061131b919061517a565b90507ff7e72e2f53a982a67fc999c00edfd87a94bdf99e5031c74851276cfd65b0bd298160405161134e91815260200190565b60405180910390a150505050565b600061136882846151a9565b90507f00000000000000000000000000000000000000000000000000000000000000008110156113ab57604051630e33bdb760e11b815260040160405180910390fd5b6006546113eb906001600160a01b037f00000000000000000000000000000000000000000000000000000000000000008116916201000090041683612bab565b600660029054906101000a90046001600160a01b03166001600160a01b031663e8b5e51f6040518163ffffffff1660e01b8152600401600060405180830381600087803b15801561143b57600080fd5b505af115801561144f573d6000803e3d6000fd5b505050507fac9f7997c30b6a3cc9c74953898b5de154359339c7ec0d6d70ceb98e55db1a4b8160405161148491815260200190565b60405180910390a1505050565b3360009081527f473683a5a3e156e4e3a6c3a7a6d9e3d4a58f9392a3bba04b84ad6221b3f7f356602052604090205460ff166114e057604051631e15456f60e11b815260040160405180910390fd5b61ffff81166127101015611520576040517fd25b1e4b00000000000000000000000000000000000000000000000000000000815260040160405180910390fd5b600d80547fffffffffffffffffffff0000ffffffffffffffffffffffffffffffffffffffff16600160a01b61ffff8416908102919091179091556040519081527f16de0efbdf16c568a60b65978ed774bba4e0c179de55ab8f639527e41fd0c861906020015b60405180910390a150565b3360009081527fa6eef7e35abe7026729641147f7915573c7e97b47efa546f5f6e3230263bcb49602052604090205460ff166115e057604051631bacfc6960e01b815260040160405180910390fd5b610fe56130ad565b3360009081527fa6eef7e35abe7026729641147f7915573c7e97b47efa546f5f6e3230263bcb49602052604090205460ff1661163757604051631bacfc6960e01b815260040160405180910390fd5b610fe56130ec565b3360009081527f473683a5a3e156e4e3a6c3a7a6d9e3d4a58f9392a3bba04b84ad6221b3f7f356602052604090205460ff1661168e57604051631e15456f60e11b815260040160405180910390fd5b61ffff811661271010156116ce576040517f1d05623100000000000000000000000000000000000000000000000000000000815260040160405180910390fd5b600f805461ffff191661ffff83169081179091556040519081527f5b9aa28fc994f782b33ebebd9947795b5bc59a54203466433eac5f8d9e81940090602001611586565b61171a613126565b61172261317e565b6001600160a01b0385166117495760405163f95106ab60e01b815260040160405180910390fd5b61175685858585856131d6565b6117606001600255565b5050505050565b61176f613126565b61177761317e565b6001600160a01b03831661179e5760405163f95106ab60e01b815260040160405180910390fd5b6117a6611ea3565b600c5411156117e1576040517f0bdd660c00000000000000000000000000000000000000000000000000000000815260040160405180910390fd5b6117ee8383836000613296565b610aec6001600255565b3360009081527fa6eef7e35abe7026729641147f7915573c7e97b47efa546f5f6e3230263bcb49602052604090205460ff1661184757604051631bacfc6960e01b815260040160405180910390fd5b610fe5613371565b611857613126565b61185f61317e565b6001600160a01b0381166118865760405163f95106ab60e01b815260040160405180910390fd5b600080600061189433611de4565b92509250925082600014156118d5576040517f58367fe100000000000000000000000000000000000000000000000000000000815260040160405180910390fd5b60006118df611ea3565b90506000600554905082600e60008282546118fa91906151c0565b9091555050336000908152600b6020526040812060010180548692906119219084906151a9565b92505081905550836005600082825461193a91906151a9565b90915550506040805133815260208101879052908101859052606081018490526080810183905260a081018290526001600160a01b038716907f4344accc2a634cf29195bba6fa3d939e3415ecd1ca5c57b322bcf81f920979c89060c00160405180910390a26006546201000090046001600160a01b031615611a70576006546040517fa4ab9fbf0000000000000000000000000000000000000000000000000000000081526001600160a01b03888116600483015260248201889052600092620100009004169063a4ab9fbf906044016020604051808303816000875af1158015611a2a573d6000803e3d6000fd5b505050506040513d601f19601f82011682018060405250810190611a4e919061517a565b9050858110611a6257505050505050611ab3565b611a6c81876151a9565b9550505b611a7985612977565b611aad6001600160a01b037f0000000000000000000000000000000000000000000000000000000000000000168787612bab565b50505050505b610e2f6001600255565b3360009081527f473683a5a3e156e4e3a6c3a7a6d9e3d4a58f9392a3bba04b84ad6221b3f7f356602052604090205460ff16611b0c57604051631e15456f60e11b815260040160405180910390fd5b61ffff81166127101015611b4c576040517ff799c76d00000000000000000000000000000000000000000000000000000000815260040160405180910390fd5b60405161ffff821681527f40775ca73a6e168d23747bc0200694cf7c99ad2db624d04c095cb59899011a569060200160405180910390a16003805461ffff909216620100000263ffff000019909216919091179055565b3360009081527fa6eef7e35abe7026729641147f7915573c7e97b47efa546f5f6e3230263bcb49602052604090205460ff16611bf257604051631bacfc6960e01b815260040160405180910390fd5b6001600160a01b038116611c32576040517f30c9889300000000000000000000000000000000000000000000000000000000815260040160405180910390fd5b6001600160a01b038116331415611c75576040517f25499f7e00000000000000000000000000000000000000000000000000000000815260040160405180910390fd5b611c80600082612799565b611caa7ffc8737ab85eb45125971625a9ebdb75cc78e01d5c1fa80c4c6e5203f47bc4fab82612799565b611cd47ffaf9b26485088dee58863e57c46603d6cdcbadc7475ac6d8910fab0ecf60309582612799565b611cfe7f1597bc5e34ff090612f53164e4e642d2ab4fc78bffe19ed1b602a0d12559561a82612799565b611d09600033612820565b611d337ffc8737ab85eb45125971625a9ebdb75cc78e01d5c1fa80c4c6e5203f47bc4fab33612820565b611d5d7ffaf9b26485088dee58863e57c46603d6cdcbadc7475ac6d8910fab0ecf60309533612820565b610e2f7f1597bc5e34ff090612f53164e4e642d2ab4fc78bffe19ed1b602a0d12559561a33612820565b6060611d91613126565b611d996133ae565b600754611da78160016151c0565b600755600081815260086020526040902080546001600160a01b03191633179055611dd28184613401565b915050611ddf6001600255565b919050565b6001600160a01b0381166000908152600b6020526040812080546001909101548291829182611e11611ea3565b90506000611e2283600554846135f4565b9050838111611e3f57600080600096509650965050505050611e9c565b6000611e4b85836151a9565b9050611e5a816005548561362c565b96506000611e6b88600554866135f4565b600d54909150611e87908290600160a01b900461ffff16613090565b9650611e9387826151a9565b98505050505050505b9193909250565b600080611eae611ee6565b90506000600e54600454611ec291906151c0565b905081811115611ed55760009250505090565b611edf81836151a9565b9250505090565b6006546000906201000090046001600160a01b03161561200e57600660029054906101000a90046001600160a01b03166001600160a01b0316634ad0b6846040518163ffffffff1660e01b8152600401602060405180830381865afa158015611f53573d6000803e3d6000fd5b505050506040513d601f19601f82011682018060405250810190611f77919061517a565b6040516370a0823160e01b81523060048201527f00000000000000000000000000000000000000000000000000000000000000006001600160a01b0316906370a0823190602401602060405180830381865afa158015611fdb573d6000803e3d6000fd5b505050506040513d601f19601f82011682018060405250810190611fff919061517a565b61200991906151c0565b905090565b6040516370a0823160e01b81523060048201527f00000000000000000000000000000000000000000000000000000000000000006001600160a01b0316906370a0823190602401602060405180830381865afa158015612072573d6000803e3d6000fd5b505050506040513d601f19601f82011682018060405250810190612009919061517a565b61209e613126565b6120a661317e565b6001600160a01b0385166120cd5760405163f95106ab60e01b815260040160405180910390fd5b611756858585858561369b565b60606120e4613126565b6120ec6133ae565b6000838152600860205260409020546001600160a01b0316331461213c576040517f9049b68600000000000000000000000000000000000000000000000000000000815260040160405180910390fd5b6121468383613401565b9050610ac06001600255565b61215a613126565b3360009081527f27365024d84ecf053ef4d13025b66be161b03e90a7fc7ff54f74d5533a9f857e602052604090205460ff166121c2576040517f9aff7af000000000000000000000000000000000000000000000000000000000815260040160405180910390fd5b6121ca6133ae565b82612201576040517ff712805800000000000000000000000000000000000000000000000000000000815260040160405180910390fd5b62127500821080612214575062dd7c0082115b1561223257604051636235acd960e01b815260040160405180910390fd5b600061223e42846151c0565b905061224e600a80546001019055565b6000612259600a5490565b9050612266338787613729565b600061227387878661385a565b604080516080810182528281523360208083019182526000838501818152606085018a815289835260099093529481209351845591516001840180546001600160a01b03199081166001600160a01b0393841617909155945160028501805490961691161790935591516003909101556004805492935083929091906122fa9084906151c0565b90915550506040805182815260208101859052339184917f7ca3497675c6d3ec00b1edc13b8e0b06169ee96a663ab25a74af7da53378f09e910160405180910390a35050506123496001600255565b50505050565b6000828152600160208190526040909120015461236b8161278f565b610aec8383612820565b3360009081527f473683a5a3e156e4e3a6c3a7a6d9e3d4a58f9392a3bba04b84ad6221b3f7f356602052604090205460ff166123c457604051631e15456f60e11b815260040160405180910390fd5b6123cd81613a39565b600380546bffffffffffffffff00000000191664010000000067ffffffffffffffff8416908102919091179091556040519081527fdc875ce606492a3222077a7f25eb65b623985a5f201bb572c595551cc99dd5f390602001611586565b612433613126565b61243b61317e565b6001600160a01b0383166124625760405163f95106ab60e01b815260040160405180910390fd5b6117ee8383836001613296565b612477613126565b61247f61317e565b6001600160a01b0383166124a65760405163f95106ab60e01b815260040160405180910390fd5b6117ee838383613a93565b3360009081527f473683a5a3e156e4e3a6c3a7a6d9e3d4a58f9392a3bba04b84ad6221b3f7f356602052604090205460ff1661250057604051631e15456f60e11b815260040160405180910390fd5b6001600160a01b038116612540576040517f6b5e63d200000000000000000000000000000000000000000000000000000000815260040160405180910390fd5b600d80546001600160a01b0319166001600160a01b0383169081179091556040517f7dae230f18360d76a040c81f050aa14eb9d6dc7901b20fc5d855e2a20fe814d190600090a250565b612710101590565b80158061260c5750604051636eb1769f60e11b81523060048201526001600160a01b03838116602483015284169063dd62ed3e90604401602060405180830381865afa1580156125e6573d6000803e3d6000fd5b505050506040513d601f19601f8201168201806040525081019061260a919061517a565b155b61267e5760405162461bcd60e51b815260206004820152603660248201527f5361666545524332303a20617070726f76652066726f6d206e6f6e2d7a65726f60448201527f20746f206e6f6e2d7a65726f20616c6c6f77616e6365000000000000000000006064820152608401610dc0565b6040516001600160a01b038316602482015260448101829052610aec9084907f095ea7b300000000000000000000000000000000000000000000000000000000906064015b60408051601f198184030181529190526020810180517bffffffffffffffffffffffffffffffffffffffffffffffffffffffff166001600160e01b031990931692909217909152613b0e565b606061271e8484600085613bf3565b90505b9392505050565b60006001600160e01b031982167f7965db0b000000000000000000000000000000000000000000000000000000001480610ac057507f01ffc9a7000000000000000000000000000000000000000000000000000000006001600160e01b0319831614610ac0565b610e2f8133613ce7565b60008281526001602090815260408083206001600160a01b038516845290915290205460ff16610dd35760008281526001602081815260408084206001600160a01b0386168086529252808420805460ff19169093179092559051339285917f2f8788117e7eff1d82e926ec794901d17c78024a50270940304540a733656f0d9190a45050565b60008281526001602090815260408083206001600160a01b038516845290915290205460ff1615610dd35760008281526001602090815260408083206001600160a01b0385168085529252808320805460ff1916905551339285917ff6391f5c32d9c69d2a47ea670b442974b53935d1edc7fd64eb21e047a839171b9190a45050565b6001600160a01b038181166000908152602081905260409020541661290a5760405162461bcd60e51b815260206004820152601360248201527f706f6f6c20646f6573206e6f74206578697374000000000000000000000000006044820152606401610dc0565b6001600160a01b03811660008181526020819052604080822080547fffffffffffffffffffff00000000000000000000000000000000000000000000168155600101829055517f94be23730c4398d20227f4e457cf92307b13e5956f2a958e2e368ad44e2f826b9190a250565b6040516370a0823160e01b81523060048201526000907f00000000000000000000000000000000000000000000000000000000000000006001600160a01b0316906370a0823190602401602060405180830381865afa1580156129de573d6000803e3d6000fd5b505050506040513d601f19601f82011682018060405250810190612a02919061517a565b9050808211612a0f575050565b600660029054906101000a90046001600160a01b03166001600160a01b0316639af2e6356040518163ffffffff1660e01b8152600401602060405180830381865afa158015612a62573d6000803e3d6000fd5b505050506040513d601f19601f82011682018060405250810190612a869190615158565b612aa357604051635f842b9960e11b815260040160405180910390fd5b600354600090612ad690612ac39062010000900461ffff166127106151d8565b84612acc611ee6565b61110291906151a9565b9050600082612ae583866151c0565b612aef91906151a9565b6006546040516319d1885d60e31b815260048101839052919250600091620100009091046001600160a01b03169063ce8c42e8906024016020604051808303816000875af1158015612b45573d6000803e3d6000fd5b505050506040513d601f19601f82011682018060405250810190612b69919061517a565b90507ff7e72e2f53a982a67fc999c00edfd87a94bdf99e5031c74851276cfd65b0bd2981604051612b9c91815260200190565b60405180910390a15050505050565b6040516001600160a01b038316602482015260448101829052610aec9084907fa9059cbb00000000000000000000000000000000000000000000000000000000906064016126c3565b80516001600160a01b039081166000908152602081905260409020541615612c5e5760405162461bcd60e51b815260206004820152601d60248201527f746f6b656e20616c7265616479206861732061207377617020706f6f6c0000006044820152606401610dc0565b602081015160608201516040517fc66106570000000000000000000000000000000000000000000000000000000081526fffffffffffffffffffffffffffffffff90911660048201526001600160a01b037f0000000000000000000000000000000000000000000000000000000000000000811692169063c661065790602401602060405180830381865afa158015612cfb573d6000803e3d6000fd5b505050506040513d601f19601f82011682018060405250810190612d1f919061513b565b6001600160a01b031614612d9b5760405162461bcd60e51b815260206004820152602c60248201527f5f756e6465726c79696e674920646f6573206e6f74206d6174636820756e646560448201527f726c79696e6720746f6b656e00000000000000000000000000000000000000006064820152608401610dc0565b600081600001516001600160a01b031663313ce5676040518163ffffffff1660e01b8152600401602060405180830381865afa158015612ddf573d6000803e3d6000fd5b505050506040513d601f19601f82011682018060405250810190612e0391906151fb565b60ff16905060007f00000000000000000000000000000000000000000000000000000000000000006001600160a01b031663313ce5676040518163ffffffff1660e01b8152600401602060405180830381865afa158015612e68573d6000803e3d6000fd5b505050506040513d601f19601f82011682018060405250810190612e8c91906151fb565b6040805160a0810182526020808701516001600160a01b03908116835260ff8781168385019081529581168486018181528a870151600f90810b60608089019182528d015190910b608088019081528c5186166000908152968790529790952095518654985191518416600160a81b027fffffffffffffffffffff00ffffffffffffffffffffffffffffffffffffffffff92909416600160a01b027fffffffffffffffffffffff00000000000000000000000000000000000000000090991694169390931796909617919091161782555191516fffffffffffffffffffffffffffffffff908116600160801b029216919091176001909101559050612fbb612fb17f000000000000000000000000000000000000000000000000000000000000000090565b8460200151613d5c565b612fcd83600001518460200151613d5c565b82602001516001600160a01b031683600001516001600160a01b03167f1576b5fcfa863788d9ef6558cab7aa68d4b48c44eb7bacaf1a8ac6d6b9d26f9485604001518660600151604051613031929190600f92830b8152910b602082015260400190565b60405180910390a3505050565b613046613ded565b6003805460ff191690557f5db9ee0a495bf2e6ff9c91a7834c1ba4fdd244a5e8aa4e537bd38aeae4b073aa335b6040516001600160a01b03909116815260200160405180910390a1565b60006127106130a361ffff84168561521e565b612721919061523d565b6130b561317e565b6003805461ff0019166101001790557f92493a2527e1a0e4214d0f98b1bedbdc2b53ef81ee4578756108fef0deff09ee6130733390565b6130f4613e3f565b6003805461ff00191690557fc47f9c912614e04aeb80c7e6cdc73c0f4368cde4bf42df3b26ad96b898913c7d33613073565b6002805414156131785760405162461bcd60e51b815260206004820152601f60248201527f5265656e7472616e637947756172643a207265656e7472616e742063616c6c006044820152606401610dc0565b60028055565b600354610100900460ff1615610fe55760405162461bcd60e51b815260206004820152601460248201527f5061757361626c653a20457869745061757365640000000000000000000000006044820152606401610dc0565b60055460006131e3611ea3565b9050600085815b8181101561324d576132318989838181106132075761320761525f565b9050602002013586868d60008c8c888181106132255761322561525f565b90506020020135613e96565b61323b90846151c0565b925061324681615275565b90506131ea565b5061325782612977565b61328b6001600160a01b037f0000000000000000000000000000000000000000000000000000000000000000168a84612bab565b505050505050505050565b60055460006132a3611ea3565b9050600084815b81811015613329576000600960008a8a858181106132ca576132ca61525f565b90506020020135815260200190815260200160002060000154905061330b8989848181106132fa576132fa61525f565b9050602002013587878d8b86613e96565b61331590856151c0565b9350508061332290615275565b90506132aa565b5061333382612977565b6133676001600160a01b037f0000000000000000000000000000000000000000000000000000000000000000168984612bab565b5050505050505050565b6133796133ae565b6003805460ff191660011790557f62e78cea01bee320cd4e420270b5ea74000d11b0c9f74754ebdbfc544b05a2586130733390565b60035460ff1615610fe55760405162461bcd60e51b815260206004820152601060248201527f5061757361626c653a20706175736564000000000000000000000000000000006044820152606401610dc0565b6060604082013561343e576040517fab59997c00000000000000000000000000000000000000000000000000000000815260040160405180910390fd5b600354640100000000900467ffffffffffffffff166134636040840160208501615111565b67ffffffffffffffff161080613494575062dd7c006134886040840160208501615111565b67ffffffffffffffff16115b156134b257604051636235acd960e01b815260040160405180910390fd5b60036134c16080840184615290565b905010156134fb576040517f3867858900000000000000000000000000000000000000000000000000000000815260040160405180910390fd5b6000613508600c546141f8565b90506000613514611ea3565b905080821115613550576040517f08063cab00000000000000000000000000000000000000000000000000000000815260040160405180910390fd5b61356b336135616020870187614d8d565b8660400135613729565b600061358c61357d6020870187614d8d565b86604001358760a0013561385a565b90506000426135a16040880160208901615111565b6135ab91906152d7565b90506135d38383836135c060608b018b615303565b6135cd60808d018d615290565b8e614217565b60065490955061ffff16156135ea576135ea614459565b5050505092915050565b6000831580613601575082155b8061360a575081155b1561361757506000612721565b82613622858461521e565b61271e919061523d565b60008361363b57506000612721565b8261365957613652670de0b6b3a76400008561521e565b9050612721565b81613690576040517ff91b6e7b00000000000000000000000000000000000000000000000000000000815260040160405180910390fd5b81613622848661521e565b600083815b818160ff16101561371557600087878360ff168181106136c2576136c261525f565b905060200201359050600086868460ff168181106136e2576136e261525f565b9050602002013590506136f68a83836144c2565b61370081866151c0565b945050508061370e9061534d565b90506136a0565b50613720878361469f565b50505050505050565b6040516370a0823160e01b81523060048201526000906001600160a01b038416906370a0823190602401602060405180830381865afa158015613770573d6000803e3d6000fd5b505050506040513d601f19601f82011682018060405250810190613794919061517a565b90506137ab6001600160a01b03841685308561471c565b6040516370a0823160e01b81523060048201526000906001600160a01b038516906370a0823190602401602060405180830381865afa1580156137f2573d6000803e3d6000fd5b505050506040513d601f19601f82011682018060405250810190613816919061517a565b905061382283836151c0565b8114611760576040517f2a25a38b00000000000000000000000000000000000000000000000000000000815260040160405180910390fd5b60007f00000000000000000000000000000000000000000000000000000000000000006001600160a01b03858116908216141561389a5783915050612721565b6001600160a01b03808616600090815260208190526040902080549091166139045760405162461bcd60e51b815260206004820152601660248201527f6e6f6e2d6578697374696e67207377617020706f6f6c000000000000000000006044820152606401610dc0565b805460009061392990879060ff600160a01b8204811691600160a81b9004168861476d565b825460018401546040517fa6417ed6000000000000000000000000000000000000000000000000000000008152600f82810b6004830152600160801b90920490910b602482015260448101899052606481018390529192506001600160a01b03169063a6417ed6906084016020604051808303816000875af11580156139b3573d6000803e3d6000fd5b505050506040513d601f19601f820116820180604052508101906139d7919061517a565b9350826001600160a01b0316876001600160a01b03167ffa2dda1cc1b86e41239702756b13effbc1a092b5c57e3ad320fbe4f3b13fe2358887604051613a27929190918252602082015260400190565b60405180910390a35050509392505050565b67ffffffffffffffff81161580613a5c575062dd7c0067ffffffffffffffff8216115b15610e2f576040517fdbef9dee00000000000000000000000000000000000000000000000000000000815260040160405180910390fd5b600081815b818160ff161015613b0357600085858360ff16818110613aba57613aba61525f565b6020908102929092013560008181526009909352604090922054919250613ae490508883836144c2565b613aee81866151c0565b9450505080613afc9061534d565b9050613a98565b50611760858361469f565b6000613b63826040518060400160405280602081526020017f5361666545524332303a206c6f772d6c6576656c2063616c6c206661696c6564815250856001600160a01b031661270f9092919063ffffffff16565b805190915015610aec5780806020019051810190613b819190615158565b610aec5760405162461bcd60e51b815260206004820152602a60248201527f5361666545524332303a204552433230206f7065726174696f6e20646964206e60448201527f6f742073756363656564000000000000000000000000000000000000000000006064820152608401610dc0565b606082471015613c6b5760405162461bcd60e51b815260206004820152602660248201527f416464726573733a20696e73756666696369656e742062616c616e636520666f60448201527f722063616c6c00000000000000000000000000000000000000000000000000006064820152608401610dc0565b600080866001600160a01b03168587604051613c879190615399565b60006040518083038185875af1925050503d8060008114613cc4576040519150601f19603f3d011682016040523d82523d6000602084013e613cc9565b606091505b5091509150613cda878383876147b8565b925050505b949350505050565b60008281526001602090815260408083206001600160a01b038516845290915290205460ff16610dd357613d1a8161482e565b613d25836020614840565b604051602001613d369291906153b5565b60408051601f198184030181529082905262461bcd60e51b8252610dc091600401615462565b604051636eb1769f60e11b81523060048201526001600160a01b0382811660248301526000919084169063dd62ed3e90604401602060405180830381865afa158015613dac573d6000803e3d6000fd5b505050506040513d601f19601f82011682018060405250810190613dd0919061517a565b905080610aec57610aec6001600160a01b03841683600019612592565b60035460ff16610fe55760405162461bcd60e51b815260206004820152601460248201527f5061757361626c653a206e6f74207061757365640000000000000000000000006044820152606401610dc0565b600354610100900460ff16610fe55760405162461bcd60e51b815260206004820152601860248201527f5061757361626c653a206e6f74204578697450617573656400000000000000006044820152606401610dc0565b6000868152600960205260408120600101546001600160a01b03163314613ee9576040517fff40736100000000000000000000000000000000000000000000000000000000815260040160405180910390fd5b60008781526009602090815260408083208151608081018352815481526001808301546001600160a01b039081168387015260028401541682850181905260039093015460608301908152928652600b85529483902083518085019094528054845290940154928201929092529051421015613f91576040517f0f6268c200000000000000000000000000000000000000000000000000000000815260040160405180910390fd5b60408201516001600160a01b0316613fd5576040517fde8b700400000000000000000000000000000000000000000000000000000000815260040160405180910390fd5b8151841115613ff757604051635bcd1de160e11b815260040160405180910390fd5b6000614004858a8a61362c565b8251602084015191925060009161401b908861521e565b614025919061523d565b90508615801561403457508082115b1561406b576040517f7df2e7ab00000000000000000000000000000000000000000000000000000000815260040160405180910390fd5b8187801561407857508183115b156140805750805b6040808601516001600160a01b03166000908152600b60205290812060010180548392906140af9084906151a9565b90915550506040808601516001600160a01b03166000908152600b60205290812080548992906140e09084906151a9565b9250508190555080600560008282546140f991906151a9565b9250508190555086600c600082825461411291906151a9565b909155505084518714801561415b5760008d81526009602052604081208181556001810180546001600160a01b031990811690915560028201805490911690556003015561417f565b60008d815260096020526040812080548a92906141799084906151a9565b90915550505b600061418c838e8e6135f4565b90508a6001600160a01b03168e7f14e79002ce0df3ba4381425c583d4c9984c7e2910d3e7e088377db997773153e8584866040516141df9392919092835260208301919091521515604082015260600190565b60405180910390a39d9c50505050505050505050505050565b600f5460009061420d90839061ffff16613090565b610ac090836151a9565b6040805160a0810182526005548152602081018a90526000918101829052606081810183905260808201879052918667ffffffffffffffff81111561425e5761425e614daa565b604051908082528060200260200182016040528015614287578160200160208202803683370190505b50905060005b82608001518110156144015760008989838181106142ad576142ad61525f565b90506020028101906142bf9190615475565b6142c89061548b565b805190915061ffff16614307576040517f4f287e5000000000000000000000000000000000000000000000000000000000815260040160405180910390fd5b60208101516001600160a01b031661434b576040517fd444696b00000000000000000000000000000000000000000000000000000000815260040160405180910390fd5b60006001856080015161435e91906151a9565b8314614376578151614371908e90613090565b614385565b6060850151614385908e6151a9565b905061439f87828e8589600001518a602001518f8f614a21565b8484815181106143b1576143b161525f565b602090810291909101015281516040860180516143cf90839061554b565b61ffff169052506060850180518291906143ea9083906151c0565b9052506143fa9150829050615275565b905061428d565b50614415826040015161ffff166127101490565b61444b576040517fd7b03e8400000000000000000000000000000000000000000000000000000000815260040160405180910390fd5b9a9950505050505050505050565b6000806144646110c5565b600654919350915061ffff1661447a8284614ccc565b61ffff1610614487575050565b600061449382846151a9565b90507f00000000000000000000000000000000000000000000000000000000000000008110156113ab57505050565b60008281526009602090815260409182902082516080810184528154815260018201546001600160a01b03908116938201849052600283015416938101939093526003015460608301523314614544576040517f5040aaa300000000000000000000000000000000000000000000000000000000815260040160405180910390fd5b4281606001511115614582576040517f4cf1715e00000000000000000000000000000000000000000000000000000000815260040160405180910390fd5b60408101516001600160a01b0316156145c7576040517f6f15ccf800000000000000000000000000000000000000000000000000000000815260040160405180910390fd5b80518211156145e957604051635bcd1de160e11b815260040160405180910390fd5b80516040805184815291841460208301819052916001600160a01b0387169186917f8bb6f71206f2ec5e5a42539a0d677bb7e48844b6cefdad5d7139fd68568d7299910160405180910390a38061466457600084815260096020526040812080548592906146589084906151a9565b90915550505050505050565b50505060009081526009602052604081208181556001810180546001600160a01b031990811690915560028201805490911690556003015550565b6146a7611ee6565b8111156146c757604051635f842b9960e11b815260040160405180910390fd5b80600460008282546146d991906151a9565b909155506146e8905081612977565b610dd36001600160a01b037f0000000000000000000000000000000000000000000000000000000000000000168383612bab565b6040516001600160a01b03808516602483015283166044820152606481018290526123499085907f23b872dd00000000000000000000000000000000000000000000000000000000906084016126c3565b600061477a84600a61564c565b6147869061271061521e565b61479184600a61564c565b61479b848861521e565b6147a5919061521e565b6147af919061523d565b95945050505050565b6060831561482457825161481d576001600160a01b0385163b61481d5760405162461bcd60e51b815260206004820152601d60248201527f416464726573733a2063616c6c20746f206e6f6e2d636f6e74726163740000006044820152606401610dc0565b5081613cdf565b613cdf8383614cdb565b6060610ac06001600160a01b03831660145b6060600061484f83600261521e565b61485a9060026151c0565b67ffffffffffffffff81111561487257614872614daa565b6040519080825280601f01601f19166020018201604052801561489c576020820181803683370190505b5090507f3000000000000000000000000000000000000000000000000000000000000000816000815181106148d3576148d361525f565b60200101906001600160f81b031916908160001a9053507f78000000000000000000000000000000000000000000000000000000000000008160018151811061491e5761491e61525f565b60200101906001600160f81b031916908160001a905350600061494284600261521e565b61494d9060016151c0565b90505b60018111156149d2577f303132333435363738396162636465660000000000000000000000000000000085600f166010811061498e5761498e61525f565b1a60f81b8282815181106149a4576149a461525f565b60200101906001600160f81b031916908160001a90535060049490941c936149cb8161565b565b9050614950565b5083156127215760405162461bcd60e51b815260206004820181905260248201527f537472696e67733a20686578206c656e67746820696e73756666696369656e746044820152606401610dc0565b602080860180516001600160a01b039081166000908152600b90935260408084206001015492519091168352822054614a6490614a5d906141f8565b878761362c565b1115614a9c576040517fb010931500000000000000000000000000000000000000000000000000000000815260040160405180910390fd5b614aaa600a80546001019055565b60006040518060600160405280614ac28b898961362c565b815260200188602001516001600160a01b03168152602001614ae3600a5490565b905280516020808301516001600160a01b03166000908152600b9091526040812060010180549394509192614b199084906151c0565b90915550506020808201516001600160a01b03166000908152600b9091526040812080548b9290614b4b9084906151c0565b9091555050805160058054600090614b649084906151c0565b9250508190555088600c6000828254614b7d91906151c0565b9250508190555060405180608001604052808a8152602001336001600160a01b0316815260200182602001516001600160a01b031681526020018967ffffffffffffffff1681525060096000836040015181526020019081526020016000206000820151816000015560208201518160010160006101000a8154816001600160a01b0302191690836001600160a01b0316021790555060408201518160020160006101000a8154816001600160a01b0302191690836001600160a01b031602179055506060820151816003015590505086602001516001600160a01b0316336001600160a01b031682604001517fb26a67c96199378f459c394f9a442f1a94d19837d1ac17c14e3d6366d98223088d8d866000015187602001518f8f604001518d8d604051614cb3989796959493929190615672565b60405180910390a4604001519998505050505050505050565b6000816130a36127108561521e565b815115614ceb5781518083602001fd5b8060405162461bcd60e51b8152600401610dc09190615462565b600060208284031215614d1757600080fd5b81356001600160e01b03198116811461272157600080fd5b600060208284031215614d4157600080fd5b5035919050565b6001600160a01b0381168114610e2f57600080fd5b60008060408385031215614d7057600080fd5b823591506020830135614d8281614d48565b809150509250929050565b600060208284031215614d9f57600080fd5b813561272181614d48565b634e487b7160e01b600052604160045260246000fd5b6040516060810167ffffffffffffffff81118282101715614de357614de3614daa565b60405290565b604051601f8201601f1916810167ffffffffffffffff81118282101715614e1257614e12614daa565b604052919050565b8035600f81900b8114611ddf57600080fd5b600060808284031215614e3e57600080fd5b6040516080810181811067ffffffffffffffff82111715614e6157614e61614daa565b6040528235614e6f81614d48565b81526020830135614e7f81614d48565b6020820152614e9060408401614e1a565b6040820152614ea160608401614e1a565b60608201529392505050565b803561ffff81168114611ddf57600080fd5b600060208284031215614ed157600080fd5b61272182614ead565b60008083601f840112614eec57600080fd5b50813567ffffffffffffffff811115614f0457600080fd5b6020830191508360208260051b8501011115614f1f57600080fd5b9250929050565b600080600080600060608688031215614f3e57600080fd5b8535614f4981614d48565b9450602086013567ffffffffffffffff80821115614f6657600080fd5b614f7289838a01614eda565b90965094506040880135915080821115614f8b57600080fd5b50614f9888828901614eda565b969995985093965092949392505050565b600080600060408486031215614fbe57600080fd5b8335614fc981614d48565b9250602084013567ffffffffffffffff811115614fe557600080fd5b614ff186828701614eda565b9497909650939450505050565b600060c0828403121561501057600080fd5b50919050565b60006020828403121561502857600080fd5b813567ffffffffffffffff81111561503f57600080fd5b613cdf84828501614ffe565b6020808252825182820181905260009190848201906040850190845b8181101561508357835183529284019291840191600101615067565b50909695505050505050565b600080604083850312156150a257600080fd5b82359150602083013567ffffffffffffffff8111156150c057600080fd5b6150cc85828601614ffe565b9150509250929050565b600080600080608085870312156150ec57600080fd5b84356150f781614d48565b966020860135965060408601359560600135945092505050565b60006020828403121561512357600080fd5b813567ffffffffffffffff8116811461272157600080fd5b60006020828403121561514d57600080fd5b815161272181614d48565b60006020828403121561516a57600080fd5b8151801515811461272157600080fd5b60006020828403121561518c57600080fd5b5051919050565b634e487b7160e01b600052601160045260246000fd5b6000828210156151bb576151bb615193565b500390565b600082198211156151d3576151d3615193565b500190565b600061ffff838116908316818110156151f3576151f3615193565b039392505050565b60006020828403121561520d57600080fd5b815160ff8116811461272157600080fd5b600081600019048311821515161561523857615238615193565b500290565b60008261525a57634e487b7160e01b600052601260045260246000fd5b500490565b634e487b7160e01b600052603260045260246000fd5b600060001982141561528957615289615193565b5060010190565b6000808335601e198436030181126152a757600080fd5b83018035915067ffffffffffffffff8211156152c257600080fd5b602001915036819003821315614f1f57600080fd5b600067ffffffffffffffff8083168185168083038211156152fa576152fa615193565b01949350505050565b6000808335601e1984360301811261531a57600080fd5b83018035915067ffffffffffffffff82111561533557600080fd5b6020019150600581901b3603821315614f1f57600080fd5b600060ff821660ff81141561536457615364615193565b60010192915050565b60005b83811015615388578181015183820152602001615370565b838111156123495750506000910152565b600082516153ab81846020870161536d565b9190910192915050565b7f416363657373436f6e74726f6c3a206163636f756e74200000000000000000008152600083516153ed81601785016020880161536d565b7f206973206d697373696e6720726f6c6520000000000000000000000000000000601791840191820152835161542a81602884016020880161536d565b01602801949350505050565b6000815180845261544e81602086016020860161536d565b601f01601f19169290920160200192915050565b6020815260006127216020830184615436565b60008235605e198336030181126153ab57600080fd5b60006060823603121561549d57600080fd5b6154a5614dc0565b6154ae83614ead565b81526020808401356154bf81614d48565b82820152604084013567ffffffffffffffff808211156154de57600080fd5b9085019036601f8301126154f157600080fd5b81358181111561550357615503614daa565b615515601f8201601f19168501614de9565b9150808252368482850101111561552b57600080fd5b808484018584013760009082019093019290925250604082015292915050565b600061ffff8083168185168083038211156152fa576152fa615193565b600181815b808511156155a357816000190482111561558957615589615193565b8085161561559657918102915b93841c939080029061556d565b509250929050565b6000826155ba57506001610ac0565b816155c757506000610ac0565b81600181146155dd57600281146155e757615603565b6001915050610ac0565b60ff8411156155f8576155f8615193565b50506001821b610ac0565b5060208310610133831016604e8410600b8410161715615626575081810a610ac0565b6156308383615568565b806000190482111561564457615644615193565b029392505050565b600061272160ff8416836155ab565b60008161566a5761566a615193565b506000190190565b8881528760208201528660408201526001600160a01b038616606082015267ffffffffffffffff8516608082015260e060a082015260006156b660e0830186615436565b82810360c0840152838152838560208301376000602085830101526020601f19601f860116820101915050999850505050505050505056fea26469706673582212202b19a59d083f09a0ea5f5f1930782b575020cf3bbe91b219ceaa4bed204e340964736f6c634300080a0033",
  "devdoc": {
    "kind": "dev",
    "methods": {
      "addPool((address,address,int128,int128))": {
        "params": {
          "_param": "Swap pool params"
        }
      },
      "claimYield(address)": {
        "params": {
          "_to": "Address that will receive the yield."
        }
      },
      "constructor": {
        "params": {
          "_admin": "Vault admin address",
          "_investPct": "Percentage of the total underlying to invest in the strategy",
          "_lossTolerancePct": "Loss tolerance when investing through the strategy",
          "_minLockPeriod": "Minimum lock period to deposit",
          "_perfFeePct": "Performance fee percentage",
          "_swapPools": "Swap pools used to automatically convert tokens to underlying",
          "_treasury": "Treasury address to collect performance fee",
          "_underlying": "Underlying ERC20 token to use."
        }
      },
      "deposit((address,uint64,uint256,(uint16,address,bytes)[],string,uint256))": {
        "params": {
          "_params": "Deposit params"
        }
      },
      "depositForGroupId(uint256,(address,uint64,uint256,(uint16,address,bytes)[],string,uint256))": {
        "params": {
          "_groupId": "The group id for the new deposit",
          "_params": "Deposit params"
        }
      },
      "exitPaused()": {
        "details": "Returns true if the contract is exitPaused, and false otherwise."
      },
      "forceWithdraw(address,uint256[])": {
        "params": {
          "_ids": "Array with the ids of the deposits.",
          "_to": "Address that will receive the funds."
        }
      },
      "getRoleAdmin(bytes32)": {
        "details": "Returns the admin role that controls `role`. See {grantRole} and {revokeRole}. To change a role's admin, use {_setRoleAdmin}."
      },
      "getUnderlying()": {
        "returns": {
          "_0": "The address of the vault's main underlying token"
        }
      },
      "grantRole(bytes32,address)": {
        "details": "Grants `role` to `account`. If `account` had not been already granted `role`, emits a {RoleGranted} event. Requirements: - the caller must have ``role``'s admin role. May emit a {RoleGranted} event."
      },
      "hasRole(bytes32,address)": {
        "details": "Returns `true` if `account` has been granted `role`."
      },
      "investState()": {
        "returns": {
          "alreadyInvested": "already invested amount",
          "maxInvestableAmount": "maximum investable amount"
        }
      },
      "partialUnsponsor(address,uint256[],uint256[])": {
        "params": {
          "_amounts": "Array with the amounts to withdraw.",
          "_ids": "Array with the ids of the deposits.",
          "_to": "Address that will receive the funds."
        }
      },
      "paused()": {
        "details": "Returns true if the contract is paused, and false otherwise."
      },
      "removePool(address)": {
        "params": {
          "_inputToken": "the token to remove"
        }
      },
      "renounceRole(bytes32,address)": {
        "details": "Revokes `role` from the calling account. Roles are often managed via {grantRole} and {revokeRole}: this function's purpose is to provide a mechanism for accounts to lose their privileges if they are compromised (such as when a trusted device is misplaced). If the calling account had been revoked `role`, emits a {RoleRevoked} event. Requirements: - the caller must be `account`. May emit a {RoleRevoked} event."
      },
      "revokeRole(bytes32,address)": {
        "details": "Revokes `role` from `account`. If `account` had been granted `role`, emits a {RoleRevoked} event. Requirements: - the caller must have ``role``'s admin role. May emit a {RoleRevoked} event."
      },
      "setImmediateInvestLimitPct(uint16)": {
        "params": {
          "_pct": "the new immediate invest limit percentage"
        }
      },
      "setInvestPct(uint16)": {
        "params": {
          "_investPct": "the new invest percentage"
        }
      },
      "setLossTolerancePct(uint16)": {
        "params": {
          "_pct": "the new investment fee estimated percentage."
        }
      },
      "setMinLockPeriod(uint64)": {
        "params": {
          "_minLockPeriod": "Minimum lock period in seconds"
        }
      },
      "setPerfFeePct(uint16)": {
        "params": {
          "_perfFeePct": "the new performance fee."
        }
      },
      "setStrategy(address)": {
        "params": {
          "_strategy": "the new strategy's address."
        }
      },
      "setTreasury(address)": {
        "params": {
          "_treasury": "the new strategy's address."
        }
      },
      "sponsor(address,uint256,uint256,uint256)": {
        "params": {
          "_amount": "Amount to sponsor.",
          "_inputToken": "The input token to deposit.",
          "_lockedUntil": "When the sponsor can unsponsor the amount."
        }
      },
      "totalUnderlyingMinusSponsored()": {
        "returns": {
          "_0": "Total amount of principal and yield help by the vault (not including sponsored amount and performance fee)."
        }
      },
      "transferAdminRights(address)": {
        "params": {
          "_newAdmin": "The new admin account."
        }
      },
      "unsponsor(address,uint256[])": {
        "params": {
          "_ids": "Array with the ids of the deposits.",
          "_to": "Address that will receive the funds."
        }
      },
      "withdraw(address,uint256[])": {
        "params": {
          "_ids": "Array with the ids of the deposits.",
          "_to": "Address that will receive the funds."
        }
      },
      "yieldFor(address)": {
        "params": {
          "_to": "address to consider."
        },
        "returns": {
          "claimableYield": "claimable yield for @param _to, share of generated yield by @param _to,      and performance fee from generated yield"
        }
      }
    },
    "version": 1
  },
  "userdoc": {
    "events": {
      "CurveSwapPoolAdded(address,address,int128,int128)": {
        "notice": "Emitted when a new swap pool is added"
      },
      "CurveSwapPoolRemoved(address)": {
        "notice": "Emitted when a swap pool is removed"
      },
      "Sponsored(uint256,uint256,address,uint256)": {
        "notice": "Emitted when a new sponsor deposit is created"
      },
      "Swap(address,address,uint256,uint256)": {
        "notice": "Emitted after every swap"
      },
      "Unsponsored(uint256,uint256,address,bool)": {
        "notice": "Emitted when an existing sponsor withdraws"
      }
    },
    "kind": "user",
    "methods": {
      "KEEPER_ROLE()": {
        "notice": "Role allowed to invest/desinvest from strategy"
      },
      "MAX_DEPOSIT_LOCK_DURATION()": {
        "notice": "Maximum lock for each deposit"
      },
      "MAX_SPONSOR_LOCK_DURATION()": {
        "notice": "Maximum lock for each sponsor"
      },
      "MIN_SPONSOR_LOCK_DURATION()": {
        "notice": "Minimum lock for each sponsor"
      },
      "SETTINGS_ROLE()": {
        "notice": "Role allowed to change settings such as performance fee and investment fee"
      },
      "SHARES_MULTIPLIER()": {
        "notice": "Helper constant for computing shares without losing precision"
      },
      "SPONSOR_ROLE()": {
        "notice": "Role for sponsors allowed to call sponsor/unsponsor"
      },
      "accumulatedPerfFee()": {
        "notice": "Current accumulated performance fee;"
      },
      "addPool((address,address,int128,int128))": {
        "notice": "Adds a new curve swap pool from an input token to {underlying}"
      },
      "claimYield(address)": {
        "notice": "Accumulate performance fee and transfers rest yield generated for the caller to"
      },
      "claimers(address)": {
        "notice": "claimer address => claimer data"
      },
      "deposit((address,uint64,uint256,(uint16,address,bytes)[],string,uint256))": {
        "notice": "Creates a new deposit"
      },
      "depositForGroupId(uint256,(address,uint64,uint256,(uint16,address,bytes)[],string,uint256))": {
        "notice": "Creates a new deposit using the specified group id"
      },
      "deposits(uint256)": {
        "notice": "deposit ID => deposit data"
      },
      "immediateInvestLimitPct()": {
        "notice": "Percentage of the max investable amount until which a deposit is immediately invested into the strategy."
      },
      "investPct()": {
        "notice": "Percentage of the total underlying to invest in the strategy"
      },
      "investState()": {
        "notice": "Calculate maximum investable amount and already invested amount"
      },
      "lossTolerancePct()": {
        "notice": "Loss tolerance pct"
      },
      "minLockPeriod()": {
        "notice": "Minimum lock period for each deposit"
      },
      "partialUnsponsor(address,uint256[],uint256[])": {
        "notice": "fails if there are not enough funds to withdraw the specified amounts."
      },
      "perfFeePct()": {
        "notice": "Performance fee percentage"
      },
      "removePool(address)": {
        "notice": "Removes an existing swap pool, and the ability to deposit the given token as underlying"
      },
      "setImmediateInvestLimitPct(uint16)": {
        "notice": "Update immediate invest limit percentage Emits {ImmediateInvestLimitPctUpdated} event"
      },
      "setInvestPct(uint16)": {
        "notice": "Update invest percentage Emits {InvestPctUpdated} event"
      },
      "setLossTolerancePct(uint16)": {
        "notice": "Changes the estimated investment fee used by the strategy."
      },
      "setMinLockPeriod(uint64)": {
        "notice": "Sets the minimum lock period for deposits."
      },
      "setPerfFeePct(uint16)": {
        "notice": "Changes the performance fee used by the vault."
      },
      "setStrategy(address)": {
        "notice": "Changes the strategy used by the vault.if there is invested funds in previous strategy, it is not allowed to set new strategy."
      },
      "setTreasury(address)": {
        "notice": "Changes the treasury used by the vault."
      },
      "strategy()": {
        "notice": "The investment strategy"
      },
      "swappers(address)": {
        "notice": "token => curve pool (for trading token/underlying)"
      },
      "totalPrincipal()": {
        "notice": "The total of principal deposited"
      },
      "totalShares()": {
        "notice": "Total amount of shares"
      },
      "totalSponsored()": {
        "notice": "Total amount currently sponsored"
      },
      "totalUnderlying()": {
        "notice": "Total amount of underlying currently controlled by the vault and the its strategy."
      },
      "totalUnderlyingMinusSponsored()": {
        "notice": "Computes the total amount of principal + yield currently controlled by the vault and the strategy. The principal + yield is the total amount of underlying that can be claimed or withdrawn, excluding the sponsored amount and performance fee."
      },
      "transferAdminRights(address)": {
        "notice": "Transfers administrator rights for the Vault to another account, revoking all current admin's roles and setting up the roles for the new admin.Can only be called by the admin."
      },
      "treasury()": {
        "notice": "Treasury address to collect performance fee"
      },
      "underlying()": {
        "notice": "Underlying ERC20 token accepted by the vault"
      },
      "unsponsor(address,uint256[])": {
        "notice": "Withdraws the sponsored amount for the deposits with the ids provided"
      },
      "updateInvested()": {
        "notice": "Update the invested amount;"
      },
      "withdrawPerformanceFee()": {
        "notice": "Withdraws any pending performance fee amount back to the treasury"
      },
      "yieldFor(address)": {
        "notice": "Computes the amount of yield available for an an address."
      }
    },
    "notice": "A vault where other accounts can deposit an underlying token currency and set distribution params for their principal and yieldThe underlying token can be automatically swapped from any configured ERC20 token via {CurveSwapper}",
    "version": 1
  },
  "storageLayout": {
    "storage": [
      {
        "astId": 20851,
        "contract": "contracts/Vault.sol:Vault",
        "label": "swappers",
        "offset": 0,
        "slot": "0",
        "type": "t_mapping(t_address,t_struct(Swapper)20809_storage)"
      },
      {
        "astId": 2655,
        "contract": "contracts/Vault.sol:Vault",
        "label": "_roles",
        "offset": 0,
        "slot": "1",
        "type": "t_mapping(t_bytes32,t_struct(RoleData)2650_storage)"
      },
      {
        "astId": 3251,
        "contract": "contracts/Vault.sol:Vault",
        "label": "_status",
        "offset": 0,
        "slot": "2",
        "type": "t_uint256"
      },
      {
        "astId": 3150,
        "contract": "contracts/Vault.sol:Vault",
        "label": "_paused",
        "offset": 0,
        "slot": "3",
        "type": "t_bool"
      },
      {
        "astId": 13694,
        "contract": "contracts/Vault.sol:Vault",
        "label": "_exitPaused",
        "offset": 1,
        "slot": "3",
        "type": "t_bool"
      },
      {
        "astId": 7576,
        "contract": "contracts/Vault.sol:Vault",
        "label": "investPct",
        "offset": 2,
        "slot": "3",
        "type": "t_uint16"
      },
      {
        "astId": 7581,
        "contract": "contracts/Vault.sol:Vault",
        "label": "minLockPeriod",
        "offset": 4,
        "slot": "3",
        "type": "t_uint64"
      },
      {
        "astId": 7586,
        "contract": "contracts/Vault.sol:Vault",
        "label": "totalSponsored",
        "offset": 0,
        "slot": "4",
        "type": "t_uint256"
      },
      {
        "astId": 7591,
        "contract": "contracts/Vault.sol:Vault",
        "label": "totalShares",
        "offset": 0,
        "slot": "5",
        "type": "t_uint256"
      },
      {
        "astId": 7596,
        "contract": "contracts/Vault.sol:Vault",
        "label": "immediateInvestLimitPct",
        "offset": 0,
        "slot": "6",
        "type": "t_uint16"
      },
      {
        "astId": 7600,
        "contract": "contracts/Vault.sol:Vault",
        "label": "strategy",
        "offset": 2,
        "slot": "6",
        "type": "t_contract(IStrategy)17976"
      },
      {
        "astId": 7603,
        "contract": "contracts/Vault.sol:Vault",
        "label": "_depositGroupIds",
        "offset": 0,
        "slot": "7",
        "type": "t_uint256"
      },
      {
        "astId": 7607,
        "contract": "contracts/Vault.sol:Vault",
        "label": "depositGroupIdOwner",
        "offset": 0,
        "slot": "8",
        "type": "t_mapping(t_uint256,t_address)"
      },
      {
        "astId": 7613,
        "contract": "contracts/Vault.sol:Vault",
        "label": "deposits",
        "offset": 0,
        "slot": "9",
        "type": "t_mapping(t_uint256,t_struct(Deposit)21284_storage)"
      },
      {
        "astId": 7617,
        "contract": "contracts/Vault.sol:Vault",
        "label": "_depositTokenIds",
        "offset": 0,
        "slot": "10",
        "type": "t_struct(Counter)5792_storage"
      },
      {
        "astId": 7623,
        "contract": "contracts/Vault.sol:Vault",
        "label": "claimers",
        "offset": 0,
        "slot": "11",
        "type": "t_mapping(t_address,t_struct(Claimer)21289_storage)"
      },
      {
        "astId": 7628,
        "contract": "contracts/Vault.sol:Vault",
        "label": "totalPrincipal",
        "offset": 0,
        "slot": "12",
        "type": "t_uint256"
      },
      {
        "astId": 7631,
        "contract": "contracts/Vault.sol:Vault",
        "label": "treasury",
        "offset": 0,
        "slot": "13",
        "type": "t_address"
      },
      {
        "astId": 7634,
        "contract": "contracts/Vault.sol:Vault",
        "label": "perfFeePct",
        "offset": 20,
        "slot": "13",
        "type": "t_uint16"
      },
      {
        "astId": 7639,
        "contract": "contracts/Vault.sol:Vault",
        "label": "accumulatedPerfFee",
        "offset": 0,
        "slot": "14",
        "type": "t_uint256"
      },
      {
        "astId": 7642,
        "contract": "contracts/Vault.sol:Vault",
        "label": "lossTolerancePct",
        "offset": 0,
        "slot": "15",
        "type": "t_uint16"
      }
    ],
    "types": {
      "t_address": {
        "encoding": "inplace",
        "label": "address",
        "numberOfBytes": "20"
      },
      "t_bool": {
        "encoding": "inplace",
        "label": "bool",
        "numberOfBytes": "1"
      },
      "t_bytes32": {
        "encoding": "inplace",
        "label": "bytes32",
        "numberOfBytes": "32"
      },
      "t_contract(ICurve)13240": {
        "encoding": "inplace",
        "label": "contract ICurve",
        "numberOfBytes": "20"
      },
      "t_contract(IStrategy)17976": {
        "encoding": "inplace",
        "label": "contract IStrategy",
        "numberOfBytes": "20"
      },
      "t_int128": {
        "encoding": "inplace",
        "label": "int128",
        "numberOfBytes": "16"
      },
      "t_mapping(t_address,t_bool)": {
        "encoding": "mapping",
        "key": "t_address",
        "label": "mapping(address => bool)",
        "numberOfBytes": "32",
        "value": "t_bool"
      },
      "t_mapping(t_address,t_struct(Claimer)21289_storage)": {
        "encoding": "mapping",
        "key": "t_address",
        "label": "mapping(address => struct IVault.Claimer)",
        "numberOfBytes": "32",
        "value": "t_struct(Claimer)21289_storage"
      },
      "t_mapping(t_address,t_struct(Swapper)20809_storage)": {
        "encoding": "mapping",
        "key": "t_address",
        "label": "mapping(address => struct CurveSwapper.Swapper)",
        "numberOfBytes": "32",
        "value": "t_struct(Swapper)20809_storage"
      },
      "t_mapping(t_bytes32,t_struct(RoleData)2650_storage)": {
        "encoding": "mapping",
        "key": "t_bytes32",
        "label": "mapping(bytes32 => struct AccessControl.RoleData)",
        "numberOfBytes": "32",
        "value": "t_struct(RoleData)2650_storage"
      },
      "t_mapping(t_uint256,t_address)": {
        "encoding": "mapping",
        "key": "t_uint256",
        "label": "mapping(uint256 => address)",
        "numberOfBytes": "32",
        "value": "t_address"
      },
      "t_mapping(t_uint256,t_struct(Deposit)21284_storage)": {
        "encoding": "mapping",
        "key": "t_uint256",
        "label": "mapping(uint256 => struct IVault.Deposit)",
        "numberOfBytes": "32",
        "value": "t_struct(Deposit)21284_storage"
      },
      "t_struct(Claimer)21289_storage": {
        "encoding": "inplace",
        "label": "struct IVault.Claimer",
        "members": [
          {
            "astId": 21286,
            "contract": "contracts/Vault.sol:Vault",
            "label": "totalPrincipal",
            "offset": 0,
            "slot": "0",
            "type": "t_uint256"
          },
          {
            "astId": 21288,
            "contract": "contracts/Vault.sol:Vault",
            "label": "totalShares",
            "offset": 0,
            "slot": "1",
            "type": "t_uint256"
          }
        ],
        "numberOfBytes": "64"
      },
      "t_struct(Counter)5792_storage": {
        "encoding": "inplace",
        "label": "struct Counters.Counter",
        "members": [
          {
            "astId": 5791,
            "contract": "contracts/Vault.sol:Vault",
            "label": "_value",
            "offset": 0,
            "slot": "0",
            "type": "t_uint256"
          }
        ],
        "numberOfBytes": "32"
      },
      "t_struct(Deposit)21284_storage": {
        "encoding": "inplace",
        "label": "struct IVault.Deposit",
        "members": [
          {
            "astId": 21274,
            "contract": "contracts/Vault.sol:Vault",
            "label": "amount",
            "offset": 0,
            "slot": "0",
            "type": "t_uint256"
          },
          {
            "astId": 21277,
            "contract": "contracts/Vault.sol:Vault",
            "label": "owner",
            "offset": 0,
            "slot": "1",
            "type": "t_address"
          },
          {
            "astId": 21280,
            "contract": "contracts/Vault.sol:Vault",
            "label": "claimerId",
            "offset": 0,
            "slot": "2",
            "type": "t_address"
          },
          {
            "astId": 21283,
            "contract": "contracts/Vault.sol:Vault",
            "label": "lockedUntil",
            "offset": 0,
            "slot": "3",
            "type": "t_uint256"
          }
        ],
        "numberOfBytes": "128"
      },
      "t_struct(RoleData)2650_storage": {
        "encoding": "inplace",
        "label": "struct AccessControl.RoleData",
        "members": [
          {
            "astId": 2647,
            "contract": "contracts/Vault.sol:Vault",
            "label": "members",
            "offset": 0,
            "slot": "0",
            "type": "t_mapping(t_address,t_bool)"
          },
          {
            "astId": 2649,
            "contract": "contracts/Vault.sol:Vault",
            "label": "adminRole",
            "offset": 0,
            "slot": "1",
            "type": "t_bytes32"
          }
        ],
        "numberOfBytes": "64"
      },
      "t_struct(Swapper)20809_storage": {
        "encoding": "inplace",
        "label": "struct CurveSwapper.Swapper",
        "members": [
          {
            "astId": 20796,
            "contract": "contracts/Vault.sol:Vault",
            "label": "pool",
            "offset": 0,
            "slot": "0",
            "type": "t_contract(ICurve)13240"
          },
          {
            "astId": 20799,
            "contract": "contracts/Vault.sol:Vault",
            "label": "tokenDecimals",
            "offset": 20,
            "slot": "0",
            "type": "t_uint8"
          },
          {
            "astId": 20802,
            "contract": "contracts/Vault.sol:Vault",
            "label": "underlyingDecimals",
            "offset": 21,
            "slot": "0",
            "type": "t_uint8"
          },
          {
            "astId": 20805,
            "contract": "contracts/Vault.sol:Vault",
            "label": "tokenI",
            "offset": 0,
            "slot": "1",
            "type": "t_int128"
          },
          {
            "astId": 20808,
            "contract": "contracts/Vault.sol:Vault",
            "label": "underlyingI",
            "offset": 16,
            "slot": "1",
            "type": "t_int128"
          }
        ],
        "numberOfBytes": "64"
      },
      "t_uint16": {
        "encoding": "inplace",
        "label": "uint16",
        "numberOfBytes": "2"
      },
      "t_uint256": {
        "encoding": "inplace",
        "label": "uint256",
        "numberOfBytes": "32"
      },
      "t_uint64": {
        "encoding": "inplace",
        "label": "uint64",
        "numberOfBytes": "8"
      },
      "t_uint8": {
        "encoding": "inplace",
        "label": "uint8",
        "numberOfBytes": "1"
      }
    }
  }
}