{
  "address": "0x3f89AC2196f84C0C9D72E23c6baCAE358Ea6C343",
  "abi": [
    {
      "inputs": [
        {
          "internalType": "address",
          "name": "_lusd",
          "type": "address"
        },
        {
          "internalType": "address",
          "name": "_priceFeed",
          "type": "address"
        }
      ],
      "stateMutability": "nonpayable",
      "type": "constructor"
    },
    {
      "anonymous": false,
      "inputs": [
        {
          "indexed": true,
          "internalType": "address",
          "name": "_depositor",
          "type": "address"
        },
        {
          "indexed": false,
          "internalType": "uint256",
          "name": "_ETH",
          "type": "uint256"
        },
        {
          "indexed": false,
          "internalType": "uint256",
          "name": "_LUSDLoss",
          "type": "uint256"
        }
      ],
      "name": "ETHGainWithdrawn",
      "type": "event"
    },
    {
      "anonymous": false,
      "inputs": [
        {
          "indexed": false,
          "internalType": "uint256",
          "name": "_newBalance",
          "type": "uint256"
        }
      ],
      "name": "StabilityPoolETHBalanceUpdated",
      "type": "event"
    },
    {
      "inputs": [
        {
          "internalType": "address",
          "name": "",
          "type": "address"
        }
      ],
      "name": "balances",
      "outputs": [
        {
          "internalType": "uint256",
          "name": "",
          "type": "uint256"
        }
      ],
      "stateMutability": "view",
      "type": "function"
    },
    {
      "inputs": [
        {
          "internalType": "address",
          "name": "_depositor",
          "type": "address"
        }
      ],
      "name": "getCompoundedLUSDDeposit",
      "outputs": [
        {
          "internalType": "uint256",
          "name": "",
          "type": "uint256"
        }
      ],
      "stateMutability": "view",
      "type": "function"
    },
    {
      "inputs": [
        {
          "internalType": "address",
          "name": "",
          "type": "address"
        }
      ],
      "name": "getDepositorETHGain",
      "outputs": [
        {
          "internalType": "uint256",
          "name": "",
          "type": "uint256"
        }
      ],
      "stateMutability": "view",
      "type": "function"
    },
    {
      "inputs": [
        {
          "internalType": "address",
          "name": "",
          "type": "address"
        }
      ],
      "name": "getDepositorLQTYGain",
      "outputs": [
        {
          "internalType": "uint256",
          "name": "",
          "type": "uint256"
        }
      ],
      "stateMutability": "pure",
      "type": "function"
    },
    {
      "inputs": [],
      "name": "lusd",
      "outputs": [
        {
          "internalType": "contract MockLUSD",
          "name": "",
          "type": "address"
        }
      ],
      "stateMutability": "view",
      "type": "function"
    },
    {
      "inputs": [
        {
          "internalType": "uint256",
          "name": "_debtToOffset",
          "type": "uint256"
        },
        {
          "internalType": "uint256",
          "name": "_collToAdd",
          "type": "uint256"
        }
      ],
      "name": "offset",
      "outputs": [],
      "stateMutability": "nonpayable",
      "type": "function"
    },
    {
      "inputs": [],
      "name": "priceFeed",
      "outputs": [
        {
          "internalType": "address",
          "name": "",
          "type": "address"
        }
      ],
      "stateMutability": "view",
      "type": "function"
    },
    {
      "inputs": [
        {
          "internalType": "uint256",
          "name": "_amount",
          "type": "uint256"
        },
        {
          "internalType": "address",
          "name": "",
          "type": "address"
        }
      ],
      "name": "provideToSP",
      "outputs": [],
      "stateMutability": "nonpayable",
      "type": "function"
    },
    {
      "inputs": [
        {
          "internalType": "address",
          "name": "_depositor",
          "type": "address"
        },
        {
          "internalType": "uint256",
          "name": "_amount",
          "type": "uint256"
        }
      ],
      "name": "reduceDepositorLUSDBalance",
      "outputs": [],
      "stateMutability": "nonpayable",
      "type": "function"
    },
    {
      "inputs": [],
      "name": "troveManager",
      "outputs": [
        {
          "internalType": "address",
          "name": "",
          "type": "address"
        }
      ],
      "stateMutability": "pure",
      "type": "function"
    },
    {
      "inputs": [
        {
          "internalType": "uint256",
          "name": "_amount",
          "type": "uint256"
        }
      ],
      "name": "withdrawFromSP",
      "outputs": [],
      "stateMutability": "nonpayable",
      "type": "function"
    },
    {
      "stateMutability": "payable",
      "type": "receive"
    }
  ],
  "transactionHash": "0x34951256d7c49bd856dc8cc14a1f638d2ecced933bcc530be4f8386218f2bf5b",
  "args": [
    "0x6199f797b524166122f1c6E6a78fF321389bB686",
    "0xa5D42FBF2Fc632C6201B94BA4fb7e92f09D2A8ce"
  ],
  "numDeployments": 2,
  "solcInputHash": "f0bd4bd80696e5678bace3d03b670da1",
  "bytecode": "0x60a060405234801561001057600080fd5b506040516107d93803806107d983398101604081905261002f91610073565b6001600160a01b03918216608052600180546001600160a01b031916919092161790556100a6565b80516001600160a01b038116811461006e57600080fd5b919050565b6000806040838503121561008657600080fd5b61008f83610057565b915061009d60208401610057565b90509250929050565b6080516107036100d66000396000818161023d015281816102f501528181610416015261051601526107036000f3fe6080604052600436106100c05760003560e01c80633d83908a116100745780638dd9e8b81161004e5780638dd9e8b81461020b57806399ad68a71461022b578063f5f1595d1461025f57600080fd5b80633d83908a146101a35780635f788d65146101cb578063741bef1a146101eb57600080fd5b80632e54bf95116100a55780632e54bf9514610142578063335525ad14610164578063389e92a51461018357600080fd5b80631cdc4700146100cc57806327e235e31461011557600080fd5b366100c757005b600080fd5b3480156100d857600080fd5b506101026100e736600461059a565b6001600160a01b031660009081526020819052604090205490565b6040519081526020015b60405180910390f35b34801561012157600080fd5b5061010261013036600461059a565b60006020819052908152604090205481565b34801561014e57600080fd5b5061016261015d3660046105bc565b610280565b005b34801561017057600080fd5b5061016261017f3660046105d5565b5050565b34801561018f57600080fd5b5061010261019e36600461059a565b504790565b3480156101af57600080fd5b5060005b6040516001600160a01b03909116815260200161010c565b3480156101d757600080fd5b506101626101e63660046105f7565b6103db565b3480156101f757600080fd5b506001546101b3906001600160a01b031681565b34801561021757600080fd5b50610162610226366004610623565b6104b4565b34801561023757600080fd5b506101b37f000000000000000000000000000000000000000000000000000000000000000081565b34801561026b57600080fd5b5061010261027a36600461059a565b50600090565b336000908152602081905260409020548082111561029c578091505b33600090815260208190526040812080548492906102bb90849061067c565b90915550506040517fa9059cbb000000000000000000000000000000000000000000000000000000008152336004820152602481018390527f00000000000000000000000000000000000000000000000000000000000000006001600160a01b03169063a9059cbb906044016020604051808303816000875af1158015610346573d6000803e3d6000fd5b505050506040513d601f19601f8201168201806040525081019061036a9190610693565b506040514790339082156108fc029083906000818181858888f1935050505015801561039a573d6000803e3d6000fd5b50604080518281526000602082015233917f51457222ebca92c335c9c86e2baa1cc0e40ffaa9084a51452980d5ba8dec2f63910160405180910390a2505050565b6040517f23b872dd000000000000000000000000000000000000000000000000000000008152336004820152306024820152604481018390527f00000000000000000000000000000000000000000000000000000000000000006001600160a01b0316906323b872dd906064016020604051808303816000875af1158015610467573d6000803e3d6000fd5b505050506040513d601f19601f8201168201806040525081019061048b9190610693565b5033600090815260208190526040812080548492906104ab9084906106b5565b90915550505050565b6001600160a01b038216600090815260208190526040812080548392906104dc90849061067c565b90915550506040517f9dc29fac000000000000000000000000000000000000000000000000000000008152306004820152602481018290527f00000000000000000000000000000000000000000000000000000000000000006001600160a01b031690639dc29fac90604401600060405180830381600087803b15801561056257600080fd5b505af1158015610576573d6000803e3d6000fd5b505050505050565b80356001600160a01b038116811461059557600080fd5b919050565b6000602082840312156105ac57600080fd5b6105b58261057e565b9392505050565b6000602082840312156105ce57600080fd5b5035919050565b600080604083850312156105e857600080fd5b50508035926020909101359150565b6000806040838503121561060a57600080fd5b8235915061061a6020840161057e565b90509250929050565b6000806040838503121561063657600080fd5b61063f8361057e565b946020939093013593505050565b7f4e487b7100000000000000000000000000000000000000000000000000000000600052601160045260246000fd5b60008282101561068e5761068e61064d565b500390565b6000602082840312156106a557600080fd5b815180151581146105b557600080fd5b600082198211156106c8576106c861064d565b50019056fea26469706673582212208515038a3711eb763b783026530a56a8420c10635a873d3e5dfb56456f0b5b7064736f6c634300080a0033",
  "devdoc": {
    "kind": "dev",
    "methods": {},
    "version": 1
  },
  "userdoc": {
    "kind": "user",
    "methods": {},
    "version": 1
  },
  "storageLayout": {
    "storage": [
      {
        "astId": 16526,
        "contract": "contracts/mock/liquity/MockStabilityPool.sol:MockStabilityPool",
        "label": "balances",
        "offset": 0,
        "slot": "0",
        "type": "t_mapping(t_address,t_uint256)"
      },
      {
        "astId": 16528,
        "contract": "contracts/mock/liquity/MockStabilityPool.sol:MockStabilityPool",
        "label": "priceFeed",
        "offset": 0,
        "slot": "1",
        "type": "t_address"
      }
    ],
    "types": {
      "t_address": {
        "encoding": "inplace",
        "label": "address",
        "numberOfBytes": "20"
      },
      "t_mapping(t_address,t_uint256)": {
        "encoding": "mapping",
        "key": "t_address",
        "label": "mapping(address => uint256)",
        "numberOfBytes": "32",
        "value": "t_uint256"
      },
      "t_uint256": {
        "encoding": "inplace",
        "label": "uint256",
        "numberOfBytes": "32"
      }
    }
  }
}