{
  "address": "0xAC1cbA4dAA7f7D2f404d446535Cb78088c64e905",
  "abi": [
    {
      "inputs": [
        {
          "internalType": "address",
          "name": "_lusd",
          "type": "address"
        },
        {
          "internalType": "address",
          "name": "_priceFeed",
          "type": "address"
        }
      ],
      "stateMutability": "nonpayable",
      "type": "constructor"
    },
    {
      "anonymous": false,
      "inputs": [
        {
          "indexed": true,
          "internalType": "address",
          "name": "_depositor",
          "type": "address"
        },
        {
          "indexed": false,
          "internalType": "uint256",
          "name": "_ETH",
          "type": "uint256"
        },
        {
          "indexed": false,
          "internalType": "uint256",
          "name": "_LUSDLoss",
          "type": "uint256"
        }
      ],
      "name": "ETHGainWithdrawn",
      "type": "event"
    },
    {
      "anonymous": false,
      "inputs": [
        {
          "indexed": false,
          "internalType": "uint256",
          "name": "_newBalance",
          "type": "uint256"
        }
      ],
      "name": "StabilityPoolETHBalanceUpdated",
      "type": "event"
    },
    {
      "inputs": [
        {
          "internalType": "address",
          "name": "",
          "type": "address"
        }
      ],
      "name": "balances",
      "outputs": [
        {
          "internalType": "uint256",
          "name": "",
          "type": "uint256"
        }
      ],
      "stateMutability": "view",
      "type": "function"
    },
    {
      "inputs": [
        {
          "internalType": "address",
          "name": "_depositor",
          "type": "address"
        }
      ],
      "name": "getCompoundedLUSDDeposit",
      "outputs": [
        {
          "internalType": "uint256",
          "name": "",
          "type": "uint256"
        }
      ],
      "stateMutability": "view",
      "type": "function"
    },
    {
      "inputs": [
        {
          "internalType": "address",
          "name": "",
          "type": "address"
        }
      ],
      "name": "getDepositorETHGain",
      "outputs": [
        {
          "internalType": "uint256",
          "name": "",
          "type": "uint256"
        }
      ],
      "stateMutability": "view",
      "type": "function"
    },
    {
      "inputs": [
        {
          "internalType": "address",
          "name": "",
          "type": "address"
        }
      ],
      "name": "getDepositorLQTYGain",
      "outputs": [
        {
          "internalType": "uint256",
          "name": "",
          "type": "uint256"
        }
      ],
      "stateMutability": "pure",
      "type": "function"
    },
    {
      "inputs": [],
      "name": "lusd",
      "outputs": [
        {
          "internalType": "contract IERC20",
          "name": "",
          "type": "address"
        }
      ],
      "stateMutability": "view",
      "type": "function"
    },
    {
      "inputs": [
        {
          "internalType": "uint256",
          "name": "_debtToOffset",
          "type": "uint256"
        },
        {
          "internalType": "uint256",
          "name": "_collToAdd",
          "type": "uint256"
        }
      ],
      "name": "offset",
      "outputs": [],
      "stateMutability": "nonpayable",
      "type": "function"
    },
    {
      "inputs": [],
      "name": "priceFeed",
      "outputs": [
        {
          "internalType": "address",
          "name": "",
          "type": "address"
        }
      ],
      "stateMutability": "view",
      "type": "function"
    },
    {
      "inputs": [
        {
          "internalType": "uint256",
          "name": "_amount",
          "type": "uint256"
        },
        {
          "internalType": "address",
          "name": "",
          "type": "address"
        }
      ],
      "name": "provideToSP",
      "outputs": [],
      "stateMutability": "nonpayable",
      "type": "function"
    },
    {
      "inputs": [],
      "name": "troveManager",
      "outputs": [
        {
          "internalType": "address",
          "name": "",
          "type": "address"
        }
      ],
      "stateMutability": "pure",
      "type": "function"
    },
    {
      "inputs": [
        {
          "internalType": "uint256",
          "name": "_amount",
          "type": "uint256"
        }
      ],
      "name": "withdrawFromSP",
      "outputs": [],
      "stateMutability": "nonpayable",
      "type": "function"
    },
    {
      "stateMutability": "payable",
      "type": "receive"
    }
  ],
  "transactionHash": "0xc21adbc92947d2604a5292037b10e208929c366a4a6ea277c73e6ae0024878b0",
  "args": [
    "0xb6C0754530B89C80A2eb5068589ea0A8c854D636",
    "0x70cF3348bDc555df91F0CcAc8f0476b4Db8ba0B7"
  ],
  "numDeployments": 1,
  "solcInputHash": "f86497a869232b57c1fcb6ae1006bf5f",
  "bytecode": "0x60a060405234801561001057600080fd5b506040516106b33803806106b383398101604081905261002f91610073565b6001600160a01b03918216608052600180546001600160a01b031916919092161790556100a6565b80516001600160a01b038116811461006e57600080fd5b919050565b6000806040838503121561008657600080fd5b61008f83610057565b915061009d60208401610057565b90509250929050565b6080516105e46100cf60003960008181610212015281816102ca01526103eb01526105e46000f3fe6080604052600436106100b55760003560e01c80633d83908a11610069578063741bef1a1161004e578063741bef1a146101e057806399ad68a714610200578063f5f1595d1461023457600080fd5b80633d83908a146101985780635f788d65146101c057600080fd5b80632e54bf951161009a5780632e54bf9514610137578063335525ad14610159578063389e92a51461017857600080fd5b80631cdc4700146100c157806327e235e31461010a57600080fd5b366100bc57005b600080fd5b3480156100cd57600080fd5b506100f76100dc3660046104a5565b6001600160a01b031660009081526020819052604090205490565b6040519081526020015b60405180910390f35b34801561011657600080fd5b506100f76101253660046104a5565b60006020819052908152604090205481565b34801561014357600080fd5b506101576101523660046104c7565b610255565b005b34801561016557600080fd5b506101576101743660046104e0565b5050565b34801561018457600080fd5b506100f76101933660046104a5565b504790565b3480156101a457600080fd5b5060005b6040516001600160a01b039091168152602001610101565b3480156101cc57600080fd5b506101576101db366004610502565b6103b0565b3480156101ec57600080fd5b506001546101a8906001600160a01b031681565b34801561020c57600080fd5b506101a87f000000000000000000000000000000000000000000000000000000000000000081565b34801561024057600080fd5b506100f761024f3660046104a5565b50600090565b3360009081526020819052604090205480821115610271578091505b336000908152602081905260408120805484929061029090849061055d565b90915550506040517fa9059cbb000000000000000000000000000000000000000000000000000000008152336004820152602481018390527f00000000000000000000000000000000000000000000000000000000000000006001600160a01b03169063a9059cbb906044016020604051808303816000875af115801561031b573d6000803e3d6000fd5b505050506040513d601f19601f8201168201806040525081019061033f9190610574565b506040514790339082156108fc029083906000818181858888f1935050505015801561036f573d6000803e3d6000fd5b50604080518281526000602082015233917f51457222ebca92c335c9c86e2baa1cc0e40ffaa9084a51452980d5ba8dec2f63910160405180910390a2505050565b6040517f23b872dd000000000000000000000000000000000000000000000000000000008152336004820152306024820152604481018390527f00000000000000000000000000000000000000000000000000000000000000006001600160a01b0316906323b872dd906064016020604051808303816000875af115801561043c573d6000803e3d6000fd5b505050506040513d601f19601f820116820180604052508101906104609190610574565b503360009081526020819052604081208054849290610480908490610596565b90915550505050565b80356001600160a01b03811681146104a057600080fd5b919050565b6000602082840312156104b757600080fd5b6104c082610489565b9392505050565b6000602082840312156104d957600080fd5b5035919050565b600080604083850312156104f357600080fd5b50508035926020909101359150565b6000806040838503121561051557600080fd5b8235915061052560208401610489565b90509250929050565b7f4e487b7100000000000000000000000000000000000000000000000000000000600052601160045260246000fd5b60008282101561056f5761056f61052e565b500390565b60006020828403121561058657600080fd5b815180151581146104c057600080fd5b600082198211156105a9576105a961052e565b50019056fea264697066735822122046edba6ceecbd4adf5a92134b7bc5757cb69e3aeee0ca098a788f7c5b8dbc3b164736f6c634300080a0033",
  "devdoc": {
    "kind": "dev",
    "methods": {},
    "version": 1
  },
  "userdoc": {
    "kind": "user",
    "methods": {},
    "version": 1
  },
  "storageLayout": {
    "storage": [
      {
        "astId": 14681,
        "contract": "contracts/mock/liquity/MockStabilityPool.sol:MockStabilityPool",
        "label": "balances",
        "offset": 0,
        "slot": "0",
        "type": "t_mapping(t_address,t_uint256)"
      },
      {
        "astId": 14683,
        "contract": "contracts/mock/liquity/MockStabilityPool.sol:MockStabilityPool",
        "label": "priceFeed",
        "offset": 0,
        "slot": "1",
        "type": "t_address"
      }
    ],
    "types": {
      "t_address": {
        "encoding": "inplace",
        "label": "address",
        "numberOfBytes": "20"
      },
      "t_mapping(t_address,t_uint256)": {
        "encoding": "mapping",
        "key": "t_address",
        "label": "mapping(address => uint256)",
        "numberOfBytes": "32",
        "value": "t_uint256"
      },
      "t_uint256": {
        "encoding": "inplace",
        "label": "uint256",
        "numberOfBytes": "32"
      }
    }
  }
}