{
  "address": "0xC42CcecF6CEC5377f206706482B0fe0871d0626f",
  "abi": [
    {
      "inputs": [],
      "name": "StrategyAdminCannotBe0Address",
      "type": "error"
    },
    {
      "inputs": [],
      "name": "StrategyAmountZero",
      "type": "error"
    },
    {
      "inputs": [],
      "name": "StrategyCallerNotAdmin",
      "type": "error"
    },
    {
      "inputs": [],
      "name": "StrategyCallerNotKeeper",
      "type": "error"
    },
    {
      "inputs": [],
      "name": "StrategyCallerNotManager",
      "type": "error"
    },
    {
      "inputs": [],
      "name": "StrategyCallerNotSettings",
      "type": "error"
    },
    {
      "inputs": [],
      "name": "StrategyCannotTransferAdminRightsToSelf",
      "type": "error"
    },
    {
      "inputs": [],
      "name": "StrategyCurveExchangeCannotBe0Address",
      "type": "error"
    },
    {
      "inputs": [],
      "name": "StrategyETHSwapFailed",
      "type": "error"
    },
    {
      "inputs": [],
      "name": "StrategyInsufficientOutputAmount",
      "type": "error"
    },
    {
      "inputs": [],
      "name": "StrategyKeeperCannotBe0Address",
      "type": "error"
    },
    {
      "inputs": [],
      "name": "StrategyLQTYSwapFailed",
      "type": "error"
    },
    {
      "inputs": [],
      "name": "StrategyMinimumAssetsProtection",
      "type": "error"
    },
    {
      "inputs": [],
      "name": "StrategyNoUnderlying",
      "type": "error"
    },
    {
      "inputs": [],
      "name": "StrategyNotEnoughETH",
      "type": "error"
    },
    {
      "inputs": [],
      "name": "StrategyNotEnoughLQTY",
      "type": "error"
    },
    {
      "inputs": [],
      "name": "StrategyNotEnoughShares",
      "type": "error"
    },
    {
      "inputs": [],
      "name": "StrategyNotIVault",
      "type": "error"
    },
    {
      "inputs": [],
      "name": "StrategyNotRunning",
      "type": "error"
    },
    {
      "inputs": [],
      "name": "StrategyNothingToReinvest",
      "type": "error"
    },
    {
      "inputs": [],
      "name": "StrategyStabilityPoolCannotBe0Address",
      "type": "error"
    },
    {
      "inputs": [],
      "name": "StrategySwapTargetCannotBe0Address",
      "type": "error"
    },
    {
      "inputs": [],
      "name": "StrategySwapTargetNotAllowed",
      "type": "error"
    },
    {
      "inputs": [],
      "name": "StrategyUnderlyingCannotBe0Address",
      "type": "error"
    },
    {
      "inputs": [],
      "name": "StrategyYieldTokenCannotBe0Address",
      "type": "error"
    },
    {
      "inputs": [],
      "name": "VaultAdminCannotBe0Address",
      "type": "error"
    },
    {
      "inputs": [],
      "name": "VaultAmountDoesNotMatchParams",
      "type": "error"
    },
    {
      "inputs": [],
      "name": "VaultAmountLocked",
      "type": "error"
    },
    {
      "inputs": [],
      "name": "VaultCallerNotAdmin",
      "type": "error"
    },
    {
      "inputs": [],
      "name": "VaultCallerNotKeeper",
      "type": "error"
    },
    {
      "inputs": [],
      "name": "VaultCallerNotSettings",
      "type": "error"
    },
    {
      "inputs": [],
      "name": "VaultCallerNotSponsor",
      "type": "error"
    },
    {
      "inputs": [],
      "name": "VaultCannotComputeSharesWithoutPrincipal",
      "type": "error"
    },
    {
      "inputs": [],
      "name": "VaultCannotDeposit0",
      "type": "error"
    },
    {
      "inputs": [],
      "name": "VaultCannotDepositWhenClaimerInDebt",
      "type": "error"
    },
    {
      "inputs": [],
      "name": "VaultCannotDepositWhenYieldNegative",
      "type": "error"
    },
    {
      "inputs": [],
      "name": "VaultCannotSponsor0",
      "type": "error"
    },
    {
      "inputs": [],
      "name": "VaultCannotTransferAdminRightsToSelf",
      "type": "error"
    },
    {
      "inputs": [],
      "name": "VaultCannotWithdrawMoreThanAvailable",
      "type": "error"
    },
    {
      "inputs": [],
      "name": "VaultCannotWithdrawWhenYieldNegative",
      "type": "error"
    },
    {
      "inputs": [],
      "name": "VaultClaimPercentageCannotBe0",
      "type": "error"
    },
    {
      "inputs": [],
      "name": "VaultClaimerCannotBe0",
      "type": "error"
    },
    {
      "inputs": [],
      "name": "VaultClaimsDontAddUp",
      "type": "error"
    },
    {
      "inputs": [],
      "name": "VaultDepositLocked",
      "type": "error"
    },
    {
      "inputs": [],
      "name": "VaultDepositNameTooShort",
      "type": "error"
    },
    {
      "inputs": [],
      "name": "VaultDestinationCannotBe0Address",
      "type": "error"
    },
    {
      "inputs": [],
      "name": "VaultInvalidImmediateInvestLimitPct",
      "type": "error"
    },
    {
      "inputs": [],
      "name": "VaultInvalidInvestPct",
      "type": "error"
    },
    {
      "inputs": [],
      "name": "VaultInvalidLockPeriod",
      "type": "error"
    },
    {
      "inputs": [],
      "name": "VaultInvalidLossTolerance",
      "type": "error"
    },
    {
      "inputs": [],
      "name": "VaultInvalidMinLockPeriod",
      "type": "error"
    },
    {
      "inputs": [],
      "name": "VaultInvalidPerformanceFee",
      "type": "error"
    },
    {
      "inputs": [],
      "name": "VaultInvalidVault",
      "type": "error"
    },
    {
      "inputs": [],
      "name": "VaultMustUseForceWithdrawToAcceptLosses",
      "type": "error"
    },
    {
      "inputs": [],
      "name": "VaultNoPerformanceFee",
      "type": "error"
    },
    {
      "inputs": [],
      "name": "VaultNoYieldToClaim",
      "type": "error"
    },
    {
      "inputs": [],
      "name": "VaultNotAllowed",
      "type": "error"
    },
    {
      "inputs": [],
      "name": "VaultNotDeposit",
      "type": "error"
    },
    {
      "inputs": [],
      "name": "VaultNotEnoughFunds",
      "type": "error"
    },
    {
      "inputs": [],
      "name": "VaultNotEnoughToRebalance",
      "type": "error"
    },
    {
      "inputs": [],
      "name": "VaultNotOwnerOfDeposit",
      "type": "error"
    },
    {
      "inputs": [],
      "name": "VaultNotSponsor",
      "type": "error"
    },
    {
      "inputs": [],
      "name": "VaultNothingToDo",
      "type": "error"
    },
    {
      "inputs": [],
      "name": "VaultSenderNotOwnerOfGroupId",
      "type": "error"
    },
    {
      "inputs": [],
      "name": "VaultStrategyHasInvestedFunds",
      "type": "error"
    },
    {
      "inputs": [],
      "name": "VaultStrategyNotSet",
      "type": "error"
    },
    {
      "inputs": [],
      "name": "VaultTreasuryCannotBe0Address",
      "type": "error"
    },
    {
      "inputs": [],
      "name": "VaultUnderlyingCannotBe0Address",
      "type": "error"
    },
    {
      "anonymous": false,
      "inputs": [
        {
          "indexed": false,
          "internalType": "address",
          "name": "previousAdmin",
          "type": "address"
        },
        {
          "indexed": false,
          "internalType": "address",
          "name": "newAdmin",
          "type": "address"
        }
      ],
      "name": "AdminChanged",
      "type": "event"
    },
    {
      "anonymous": false,
      "inputs": [
        {
          "indexed": true,
          "internalType": "address",
          "name": "beacon",
          "type": "address"
        }
      ],
      "name": "BeaconUpgraded",
      "type": "event"
    },
    {
      "anonymous": false,
      "inputs": [
        {
          "indexed": false,
          "internalType": "uint8",
          "name": "version",
          "type": "uint8"
        }
      ],
      "name": "Initialized",
      "type": "event"
    },
    {
      "anonymous": false,
      "inputs": [
        {
          "indexed": true,
          "internalType": "bytes32",
          "name": "role",
          "type": "bytes32"
        },
        {
          "indexed": true,
          "internalType": "bytes32",
          "name": "previousAdminRole",
          "type": "bytes32"
        },
        {
          "indexed": true,
          "internalType": "bytes32",
          "name": "newAdminRole",
          "type": "bytes32"
        }
      ],
      "name": "RoleAdminChanged",
      "type": "event"
    },
    {
      "anonymous": false,
      "inputs": [
        {
          "indexed": true,
          "internalType": "bytes32",
          "name": "role",
          "type": "bytes32"
        },
        {
          "indexed": true,
          "internalType": "address",
          "name": "account",
          "type": "address"
        },
        {
          "indexed": true,
          "internalType": "address",
          "name": "sender",
          "type": "address"
        }
      ],
      "name": "RoleGranted",
      "type": "event"
    },
    {
      "anonymous": false,
      "inputs": [
        {
          "indexed": true,
          "internalType": "bytes32",
          "name": "role",
          "type": "bytes32"
        },
        {
          "indexed": true,
          "internalType": "address",
          "name": "account",
          "type": "address"
        },
        {
          "indexed": true,
          "internalType": "address",
          "name": "sender",
          "type": "address"
        }
      ],
      "name": "RoleRevoked",
      "type": "event"
    },
    {
      "anonymous": false,
      "inputs": [
        {
          "indexed": false,
          "internalType": "uint256",
          "name": "amount",
          "type": "uint256"
        }
      ],
      "name": "StrategyInvested",
      "type": "event"
    },
    {
      "anonymous": false,
      "inputs": [
        {
          "indexed": false,
          "internalType": "uint256",
          "name": "amountInLUSD",
          "type": "uint256"
        }
      ],
      "name": "StrategyReinvested",
      "type": "event"
    },
    {
      "anonymous": false,
      "inputs": [
        {
          "indexed": false,
          "internalType": "uint256",
          "name": "amount",
          "type": "uint256"
        }
      ],
      "name": "StrategyWithdrawn",
      "type": "event"
    },
    {
      "anonymous": false,
      "inputs": [
        {
          "indexed": true,
          "internalType": "address",
          "name": "implementation",
          "type": "address"
        }
      ],
      "name": "Upgraded",
      "type": "event"
    },
    {
      "inputs": [],
      "name": "CURVE_ROUTER",
      "outputs": [
        {
          "internalType": "address",
          "name": "",
          "type": "address"
        }
      ],
      "stateMutability": "view",
      "type": "function"
    },
    {
      "inputs": [],
      "name": "DEFAULT_ADMIN_ROLE",
      "outputs": [
        {
          "internalType": "bytes32",
          "name": "",
          "type": "bytes32"
        }
      ],
      "stateMutability": "view",
      "type": "function"
    },
    {
      "inputs": [],
      "name": "KEEPER_ROLE",
      "outputs": [
        {
          "internalType": "bytes32",
          "name": "",
          "type": "bytes32"
        }
      ],
      "stateMutability": "view",
      "type": "function"
    },
    {
      "inputs": [],
      "name": "LUSD_CURVE_POOL",
      "outputs": [
        {
          "internalType": "address",
          "name": "",
          "type": "address"
        }
      ],
      "stateMutability": "view",
      "type": "function"
    },
    {
      "inputs": [],
      "name": "MANAGER_ROLE",
      "outputs": [
        {
          "internalType": "bytes32",
          "name": "",
          "type": "bytes32"
        }
      ],
      "stateMutability": "view",
      "type": "function"
    },
    {
      "inputs": [],
      "name": "SETTINGS_ROLE",
      "outputs": [
        {
          "internalType": "bytes32",
          "name": "",
          "type": "bytes32"
        }
      ],
      "stateMutability": "view",
      "type": "function"
    },
    {
      "inputs": [],
      "name": "USDT",
      "outputs": [
        {
          "internalType": "address",
          "name": "",
          "type": "address"
        }
      ],
      "stateMutability": "view",
      "type": "function"
    },
    {
      "inputs": [],
      "name": "WETH",
      "outputs": [
        {
          "internalType": "address",
          "name": "",
          "type": "address"
        }
      ],
      "stateMutability": "view",
      "type": "function"
    },
    {
      "inputs": [],
      "name": "WETH_CURVE_POOL",
      "outputs": [
        {
          "internalType": "address",
          "name": "",
          "type": "address"
        }
      ],
      "stateMutability": "view",
      "type": "function"
    },
    {
      "inputs": [
        {
          "internalType": "address",
          "name": "_swapTarget",
          "type": "address"
        }
      ],
      "name": "allowSwapTarget",
      "outputs": [],
      "stateMutability": "nonpayable",
      "type": "function"
    },
    {
      "inputs": [
        {
          "internalType": "address",
          "name": "",
          "type": "address"
        }
      ],
      "name": "allowedSwapTargets",
      "outputs": [
        {
          "internalType": "bool",
          "name": "",
          "type": "bool"
        }
      ],
      "stateMutability": "view",
      "type": "function"
    },
    {
      "inputs": [],
      "name": "curveExchange",
      "outputs": [
        {
          "internalType": "contract ICurveExchange",
          "name": "",
          "type": "address"
        }
      ],
      "stateMutability": "view",
      "type": "function"
    },
    {
      "inputs": [
        {
          "internalType": "address",
          "name": "_swapTarget",
          "type": "address"
        }
      ],
      "name": "denySwapTarget",
      "outputs": [],
      "stateMutability": "nonpayable",
      "type": "function"
    },
    {
      "inputs": [
        {
          "internalType": "bytes32",
          "name": "role",
          "type": "bytes32"
        }
      ],
      "name": "getRoleAdmin",
      "outputs": [
        {
          "internalType": "bytes32",
          "name": "",
          "type": "bytes32"
        }
      ],
      "stateMutability": "view",
      "type": "function"
    },
    {
      "inputs": [
        {
          "internalType": "bytes32",
          "name": "role",
          "type": "bytes32"
        },
        {
          "internalType": "address",
          "name": "account",
          "type": "address"
        }
      ],
      "name": "grantRole",
      "outputs": [],
      "stateMutability": "nonpayable",
      "type": "function"
    },
    {
      "inputs": [],
      "name": "harvest",
      "outputs": [],
      "stateMutability": "nonpayable",
      "type": "function"
    },
    {
      "inputs": [],
      "name": "hasAssets",
      "outputs": [
        {
          "internalType": "bool",
          "name": "",
          "type": "bool"
        }
      ],
      "stateMutability": "view",
      "type": "function"
    },
    {
      "inputs": [
        {
          "internalType": "bytes32",
          "name": "role",
          "type": "bytes32"
        },
        {
          "internalType": "address",
          "name": "account",
          "type": "address"
        }
      ],
      "name": "hasRole",
      "outputs": [
        {
          "internalType": "bool",
          "name": "",
          "type": "bool"
        }
      ],
      "stateMutability": "view",
      "type": "function"
    },
    {
      "inputs": [
        {
          "internalType": "address",
          "name": "_vault",
          "type": "address"
        },
        {
          "internalType": "address",
          "name": "_admin",
          "type": "address"
        },
        {
          "internalType": "address",
          "name": "_stabilityPool",
          "type": "address"
        },
        {
          "internalType": "address",
          "name": "_lqty",
          "type": "address"
        },
        {
          "internalType": "address",
          "name": "_underlying",
          "type": "address"
        },
        {
          "internalType": "address",
          "name": "_keeper",
          "type": "address"
        },
        {
          "internalType": "uint16",
          "name": "_minProtectedAssetsPct",
          "type": "uint16"
        },
        {
          "internalType": "address",
          "name": "_curveExchange",
          "type": "address"
        }
      ],
      "name": "initialize",
      "outputs": [],
      "stateMutability": "nonpayable",
      "type": "function"
    },
    {
      "inputs": [],
      "name": "invest",
      "outputs": [],
      "stateMutability": "nonpayable",
      "type": "function"
    },
    {
      "inputs": [],
      "name": "investedAssets",
      "outputs": [
        {
          "internalType": "uint256",
          "name": "",
          "type": "uint256"
        }
      ],
      "stateMutability": "view",
      "type": "function"
    },
    {
      "inputs": [],
      "name": "isSync",
      "outputs": [
        {
          "internalType": "bool",
          "name": "",
          "type": "bool"
        }
      ],
      "stateMutability": "pure",
      "type": "function"
    },
    {
      "inputs": [],
      "name": "lqty",
      "outputs": [
        {
          "internalType": "contract IERC20",
          "name": "",
          "type": "address"
        }
      ],
      "stateMutability": "view",
      "type": "function"
    },
    {
      "inputs": [],
      "name": "minProtectedAssetsPct",
      "outputs": [
        {
          "internalType": "uint16",
          "name": "",
          "type": "uint16"
        }
      ],
      "stateMutability": "view",
      "type": "function"
    },
    {
      "inputs": [],
      "name": "proxiableUUID",
      "outputs": [
        {
          "internalType": "bytes32",
          "name": "",
          "type": "bytes32"
        }
      ],
      "stateMutability": "view",
      "type": "function"
    },
    {
      "inputs": [
        {
          "internalType": "address",
          "name": "_swapTarget",
          "type": "address"
        },
        {
          "internalType": "uint256",
          "name": "_lqtyAmount",
          "type": "uint256"
        },
        {
          "internalType": "bytes",
          "name": "_lqtySwapData",
          "type": "bytes"
        },
        {
          "internalType": "uint256",
          "name": "_ethAmount",
          "type": "uint256"
        },
        {
          "internalType": "bytes",
          "name": "_ethSwapData",
          "type": "bytes"
        },
        {
          "internalType": "uint256",
          "name": "_amountOutMin",
          "type": "uint256"
        }
      ],
      "name": "reinvest",
      "outputs": [],
      "stateMutability": "nonpayable",
      "type": "function"
    },
    {
      "inputs": [
        {
          "internalType": "bytes32",
          "name": "role",
          "type": "bytes32"
        },
        {
          "internalType": "address",
          "name": "account",
          "type": "address"
        }
      ],
      "name": "renounceRole",
      "outputs": [],
      "stateMutability": "nonpayable",
      "type": "function"
    },
    {
      "inputs": [
        {
          "internalType": "bytes32",
          "name": "role",
          "type": "bytes32"
        },
        {
          "internalType": "address",
          "name": "account",
          "type": "address"
        }
      ],
      "name": "revokeRole",
      "outputs": [],
      "stateMutability": "nonpayable",
      "type": "function"
    },
    {
      "inputs": [
        {
          "internalType": "uint16",
          "name": "_pct",
          "type": "uint16"
        }
      ],
      "name": "setMinProtectedAssetsPct",
      "outputs": [],
      "stateMutability": "nonpayable",
      "type": "function"
    },
    {
      "inputs": [],
      "name": "stabilityPool",
      "outputs": [
        {
          "internalType": "contract IStabilityPool",
          "name": "",
          "type": "address"
        }
      ],
      "stateMutability": "view",
      "type": "function"
    },
    {
      "inputs": [
        {
          "internalType": "bytes4",
          "name": "interfaceId",
          "type": "bytes4"
        }
      ],
      "name": "supportsInterface",
      "outputs": [
        {
          "internalType": "bool",
          "name": "",
          "type": "bool"
        }
      ],
      "stateMutability": "view",
      "type": "function"
    },
    {
      "inputs": [
        {
          "internalType": "address",
          "name": "_newAdmin",
          "type": "address"
        }
      ],
      "name": "transferAdminRights",
      "outputs": [],
      "stateMutability": "nonpayable",
      "type": "function"
    },
    {
      "inputs": [
        {
          "internalType": "address",
          "name": "",
          "type": "address"
        },
        {
          "internalType": "uint256",
          "name": "",
          "type": "uint256"
        }
      ],
      "name": "transferYield",
      "outputs": [
        {
          "internalType": "uint256",
          "name": "",
          "type": "uint256"
        }
      ],
      "stateMutability": "nonpayable",
      "type": "function"
    },
    {
      "inputs": [],
      "name": "underlying",
      "outputs": [
        {
          "internalType": "contract IERC20",
          "name": "",
          "type": "address"
        }
      ],
      "stateMutability": "view",
      "type": "function"
    },
    {
      "inputs": [
        {
          "internalType": "address",
          "name": "newImplementation",
          "type": "address"
        }
      ],
      "name": "upgradeTo",
      "outputs": [],
      "stateMutability": "nonpayable",
      "type": "function"
    },
    {
      "inputs": [
        {
          "internalType": "address",
          "name": "newImplementation",
          "type": "address"
        },
        {
          "internalType": "bytes",
          "name": "data",
          "type": "bytes"
        }
      ],
      "name": "upgradeToAndCall",
      "outputs": [],
      "stateMutability": "payable",
      "type": "function"
    },
    {
      "inputs": [],
      "name": "vault",
      "outputs": [
        {
          "internalType": "address",
          "name": "",
          "type": "address"
        }
      ],
      "stateMutability": "view",
      "type": "function"
    },
    {
      "inputs": [
        {
          "internalType": "uint256",
          "name": "amount",
          "type": "uint256"
        }
      ],
      "name": "withdrawToVault",
      "outputs": [
        {
          "internalType": "uint256",
          "name": "",
          "type": "uint256"
        }
      ],
      "stateMutability": "nonpayable",
      "type": "function"
    },
    {
      "stateMutability": "payable",
      "type": "receive"
    }
  ],
  "transactionHash": "0x23f32fea96bac837929c935ed0dc296e76f2a11f2d7ef850d731c85772366ee5",
  "args": [],
  "numDeployments": 1,
  "solcInputHash": "0877a4a3b2989af9030a9650abc7f9f6",
  "bytecode": "0x60a06040523060805234801561001457600080fd5b506080516133f461004c60003960008181610a0401528181610a8901528181610f6901528181610fee01526110d401526133f46000f3fe6080604052600436106102895760003560e01c80636ff902e711610153578063b5106add116100cb578063e49b30da1161007f578063ec87621c11610064578063ec87621c14610771578063f6289887146107a5578063fbfa77cf146107d957600080fd5b8063e49b30da14610734578063e8b5e51f1461075c57600080fd5b8063ce8c42e8116100b0578063ce8c42e8146106be578063d547741f146106de578063dd1a0937146106fe57600080fd5b8063b5106add14610676578063c54e44eb1461069657600080fd5b80639af2e63511610122578063a217fddf11610107578063a217fddf14610619578063a4ab9fbf1461062e578063ad5c46481461064e57600080fd5b80639af2e635146105e45780639fd8f216146105f857600080fd5b80636ff902e7146105365780637f6ec4551461055e578063865a3e471461057e57806391d148541461059e57600080fd5b806336568abe116102015780634f1ef286116101b55780635be9b2d31161019a5780635be9b2d3146104e15780635d3a3890146104f65780636f307dc31461051657600080fd5b80634f1ef286146104b957806352d1902d146104cc57600080fd5b80633c265231116101e65780633c2652311461046f5780634641257d1461048f5780634ad0b684146104a457600080fd5b806336568abe1461042f5780633659cfe61461044f57600080fd5b806321bc5df4116102585780632f2ff15d1161023d5780632f2ff15d146103b357806330d8a9e8146103d3578063364bc15a146103fb57600080fd5b806321bc5df414610355578063248a9ca31461037557600080fd5b806301ffc9a714610295578063048c661d146102ca578063129d91ab146103025780631fa1fe361461032457600080fd5b3661029057005b600080fd5b3480156102a157600080fd5b506102b56102b0366004612e69565b6107f9565b60405190151581526020015b60405180910390f35b3480156102d657600080fd5b5060fd546102ea906001600160a01b031681565b6040516001600160a01b0390911681526020016102c1565b34801561030e57600080fd5b5061032261031d366004612eaa565b610849565b005b34801561033057600080fd5b506102b561033f366004612eaa565b60ff602081905260009182526040909120541681565b34801561036157600080fd5b50610322610370366004612eaa565b6108c2565b34801561038157600080fd5b506103a5610390366004612ec5565b600090815260c9602052604090206001015490565b6040519081526020016102c1565b3480156103bf57600080fd5b506103226103ce366004612ede565b61093e565b3480156103df57600080fd5b506102ea73ed279fdd11ca84beef15af5d39bb4d4bee23f0ca81565b34801561040757600080fd5b506103a57ffc8737ab85eb45125971625a9ebdb75cc78e01d5c1fa80c4c6e5203f47bc4fab81565b34801561043b57600080fd5b5061032261044a366004612ede565b610968565b34801561045b57600080fd5b5061032261046a366004612eaa565b6109f9565b34801561047b57600080fd5b5061032261048a366004612f1c565b610b75565b34801561049b57600080fd5b50610322610c01565b3480156104b057600080fd5b506103a5610c61565b6103226104c7366004612f4d565b610f5e565b3480156104d857600080fd5b506103a56110c7565b3480156104ed57600080fd5b506102b561118c565b34801561050257600080fd5b5061032261051136600461300f565b61119d565b34801561052257600080fd5b5060fb546102ea906001600160a01b031681565b34801561054257600080fd5b506102ea73d51a44d3fae010294c616388b506acda1bfaae4681565b34801561056a57600080fd5b5060fe546102ea906001600160a01b031681565b34801561058a57600080fd5b506103226105993660046130ef565b611655565b3480156105aa57600080fd5b506102b56105b9366004612ede565b600091825260c9602090815260408084206001600160a01b0393909316845291905290205460ff1690565b3480156105f057600080fd5b5060016102b5565b34801561060457600080fd5b50610100546102ea906001600160a01b031681565b34801561062557600080fd5b506103a5600081565b34801561063a57600080fd5b506103a561064936600461318a565b61185d565b34801561065a57600080fd5b506102ea73c02aaa39b223fe8d0a0e5c4f27ead9083c756cc281565b34801561068257600080fd5b50610322610691366004612eaa565b6118b5565b3480156106a257600080fd5b506102ea73dac17f958d2ee523a2206206994597c13d831ec781565b3480156106ca57600080fd5b506103a56106d9366004612ec5565b611a2c565b3480156106ea57600080fd5b506103226106f9366004612ede565b611c90565b34801561070a57600080fd5b506101005461072190600160a01b900461ffff1681565b60405161ffff90911681526020016102c1565b34801561074057600080fd5b506102ea7381c46feca27b31f3adc2b91ee4be9717d1cd3dd781565b34801561076857600080fd5b50610322611cb5565b34801561077d57600080fd5b506103a57f241ecf16d79d0f8dbfb92cbc07fe17840425976cf0667f022fe9877caa831b0881565b3480156107b157600080fd5b506103a57ffaf9b26485088dee58863e57c46603d6cdcbadc7475ac6d8910fab0ecf60309581565b3480156107e557600080fd5b5060fc546102ea906001600160a01b031681565b60006001600160e01b031982167f7965db0b00000000000000000000000000000000000000000000000000000000148061084357506301ffc9a760e01b6001600160e01b03198316145b92915050565b3360009081527fdf9e05033a6c4e281e51ff7ac61d3a2fec43ac6ee7b61abf4c8074f4927147b7602052604090205460ff16610898576040516370c4ee8d60e01b815260040160405180910390fd5b6108a181611e4b565b6001600160a01b0316600090815260ff60205260409020805460ff19169055565b3360009081527fdf9e05033a6c4e281e51ff7ac61d3a2fec43ac6ee7b61abf4c8074f4927147b7602052604090205460ff16610911576040516370c4ee8d60e01b815260040160405180910390fd5b61091a81611e4b565b6001600160a01b0316600090815260ff60205260409020805460ff19166001179055565b600082815260c9602052604090206001015461095981611e8b565b6109638383611e95565b505050565b6001600160a01b03811633146109eb5760405162461bcd60e51b815260206004820152602f60248201527f416363657373436f6e74726f6c3a2063616e206f6e6c792072656e6f756e636560448201527f20726f6c657320666f722073656c66000000000000000000000000000000000060648201526084015b60405180910390fd5b6109f58282611f37565b5050565b306001600160a01b037f0000000000000000000000000000000000000000000000000000000000000000161415610a875760405162461bcd60e51b815260206004820152602c60248201527f46756e6374696f6e206d7573742062652063616c6c6564207468726f7567682060448201526b19195b1959d85d1958d85b1b60a21b60648201526084016109e2565b7f00000000000000000000000000000000000000000000000000000000000000006001600160a01b0316610ae27f360894a13ba1a3210667c828492db98dca3e2076cc3735a920a3ca505d382bbc546001600160a01b031690565b6001600160a01b031614610b4d5760405162461bcd60e51b815260206004820152602c60248201527f46756e6374696f6e206d7573742062652063616c6c6564207468726f7567682060448201526b6163746976652070726f787960a01b60648201526084016109e2565b610b5681611fba565b60408051600080825260208201909252610b7291839190612009565b50565b3360009081527fdf9e05033a6c4e281e51ff7ac61d3a2fec43ac6ee7b61abf4c8074f4927147b7602052604090205460ff16610bc4576040516370c4ee8d60e01b815260040160405180910390fd5b610100805461ffff909216600160a01b027fffffffffffffffffffff0000ffffffffffffffffffffffffffffffffffffffff909216919091179055565b60fd54604051632e54bf9560e01b8152600060048201526001600160a01b0390911690632e54bf9590602401600060405180830381600087803b158015610c4757600080fd5b505af1158015610c5b573d6000803e3d6000fd5b50505050565b60fd546040517f389e92a500000000000000000000000000000000000000000000000000000000815230600482015260009182916001600160a01b039091169063389e92a590602401602060405180830381865afa158015610cc7573d6000803e3d6000fd5b505050506040513d601f19601f82011682018060405250810190610ceb91906131b4565b610cf590476131e3565b905080610d6d5760fd54604051621cdc4760e81b81523060048201526001600160a01b0390911690631cdc470090602401602060405180830381865afa158015610d43573d6000803e3d6000fd5b505050506040513d601f19601f82011682018060405250810190610d6791906131b4565b91505090565b61010054604051630e5cfa0d60e21b815273d51a44d3fae010294c616388b506acda1bfaae46600482015273c02aaa39b223fe8d0a0e5c4f27ead9083c756cc2602482015273dac17f958d2ee523a2206206994597c13d831ec76044820152606481018390526000916001600160a01b031690633973e83490608401602060405180830381865afa158015610e06573d6000803e3d6000fd5b505050506040513d601f19601f82011682018060405250810190610e2a91906131b4565b6101005460fb54604051630e5cfa0d60e21b815273ed279fdd11ca84beef15af5d39bb4d4bee23f0ca600482015273dac17f958d2ee523a2206206994597c13d831ec760248201526001600160a01b03918216604482015260648101849052929350600092911690633973e83490608401602060405180830381865afa158015610eb8573d6000803e3d6000fd5b505050506040513d601f19601f82011682018060405250810190610edc91906131b4565b60fd54604051621cdc4760e81b815230600482015291925082916001600160a01b0390911690631cdc470090602401602060405180830381865afa158015610f28573d6000803e3d6000fd5b505050506040513d601f19601f82011682018060405250810190610f4c91906131b4565b610f5691906131e3565b935050505090565b306001600160a01b037f0000000000000000000000000000000000000000000000000000000000000000161415610fec5760405162461bcd60e51b815260206004820152602c60248201527f46756e6374696f6e206d7573742062652063616c6c6564207468726f7567682060448201526b19195b1959d85d1958d85b1b60a21b60648201526084016109e2565b7f00000000000000000000000000000000000000000000000000000000000000006001600160a01b03166110477f360894a13ba1a3210667c828492db98dca3e2076cc3735a920a3ca505d382bbc546001600160a01b031690565b6001600160a01b0316146110b25760405162461bcd60e51b815260206004820152602c60248201527f46756e6374696f6e206d7573742062652063616c6c6564207468726f7567682060448201526b6163746976652070726f787960a01b60648201526084016109e2565b6110bb82611fba565b6109f582826001612009565b6000306001600160a01b037f000000000000000000000000000000000000000000000000000000000000000016146111675760405162461bcd60e51b815260206004820152603860248201527f555550535570677261646561626c653a206d757374206e6f742062652063616c60448201527f6c6564207468726f7567682064656c656761746563616c6c000000000000000060648201526084016109e2565b507f360894a13ba1a3210667c828492db98dca3e2076cc3735a920a3ca505d382bbc90565b6000611196610c61565b1515919050565b600054610100900460ff16158080156111bd5750600054600160ff909116105b806111d75750303b1580156111d7575060005460ff166001145b6112495760405162461bcd60e51b815260206004820152602e60248201527f496e697469616c697a61626c653a20636f6e747261637420697320616c72656160448201527f647920696e697469616c697a656400000000000000000000000000000000000060648201526084016109e2565b6000805460ff19166001179055801561126c576000805461ff0019166101001790555b6112746121a9565b61127c6121a9565b6001600160a01b0388166112a357604051638f6e893360e01b815260040160405180910390fd5b6001600160a01b0386166112e3576040517f96fbf73100000000000000000000000000000000000000000000000000000000815260040160405180910390fd5b6001600160a01b038716611323576040517f3c6bc13d00000000000000000000000000000000000000000000000000000000815260040160405180910390fd5b6001600160a01b038516611363576040517f4043fac000000000000000000000000000000000000000000000000000000000815260040160405180910390fd5b6113966001600160a01b038a167f944e9e2300000000000000000000000000000000000000000000000000000000612228565b6113cc576040517fd7e681d100000000000000000000000000000000000000000000000000000000815260040160405180910390fd5b6001600160a01b03841661140c576040517f39f97e6400000000000000000000000000000000000000000000000000000000815260040160405180910390fd5b6001600160a01b03821661144c576040517fcd30b0f500000000000000000000000000000000000000000000000000000000815260040160405180910390fd5b611457600089611e95565b6114817ffc8737ab85eb45125971625a9ebdb75cc78e01d5c1fa80c4c6e5203f47bc4fab89611e95565b6114ab7ffaf9b26485088dee58863e57c46603d6cdcbadc7475ac6d8910fab0ecf60309589611e95565b6114d57f241ecf16d79d0f8dbfb92cbc07fe17840425976cf0667f022fe9877caa831b088a611e95565b6114ff7ffc8737ab85eb45125971625a9ebdb75cc78e01d5c1fa80c4c6e5203f47bc4fab85611e95565b60fc805473ffffffffffffffffffffffffffffffffffffffff199081166001600160a01b038c81169190911790925560fb8054821688841690811790915560fd805483168b8516908117909155610100805460fe80549095168c8716179094559386167fffffffffffffffffffff0000000000000000000000000000000000000000000090931692909217600160a01b61ffff8816021790925560405163095ea7b360e01b81526004810191909152600019602482015263095ea7b3906044016020604051808303816000875af11580156115de573d6000803e3d6000fd5b505050506040513d601f19601f8201168201806040525081019061160291906131fb565b50801561164a576000805461ff0019169055604051600181527f7f26b83ff96e1f2b6a682f133852f6798a09c465da95921460cefb3847402498906020015b60405180910390a15b505050505050505050565b3360009081527fa54cab3e0e5c813b18c71e4e96696bc5fad68ff5192a677568a6b075ee26500e602052604090205460ff166116bd576040517f81389f2000000000000000000000000000000000000000000000000000000000815260040160405180910390fd5b6116c6886122ca565b6116cf81612326565b6116db8888888861266d565b6116e788858585612846565b60fb546040516370a0823160e01b81523060048201526000916001600160a01b0316906370a0823190602401602060405180830381865afa158015611730573d6000803e3d6000fd5b505050506040513d601f19601f8201168201806040525081019061175491906131b4565b90508061178d576040517f66a9132900000000000000000000000000000000000000000000000000000000815260040160405180910390fd5b818110156117c7576040517ff0b5161200000000000000000000000000000000000000000000000000000000815260040160405180910390fd5b60fd54604051635f788d6560e01b815260048101839052600060248201526001600160a01b0390911690635f788d6590604401600060405180830381600087803b15801561181457600080fd5b505af1158015611828573d6000803e3d6000fd5b505050507fe2cd27e14f657c20a75ca97eb4b59f450a055c24916d27034e78933b8c7d75638160405161164191815260200190565b3360009081527ff5f43b48833b613af61a2aa61573d51591ce86ef304bb6e01e9115b2a39191de602052604081205460ff166118ac57604051634cc2cd3760e11b815260040160405180910390fd5b50600092915050565b3360009081527f81fe90a866a48a634a12852c1be675b683a22307409932a7443b8029347be756602052604090205460ff16611904576040516378741b4560e11b815260040160405180910390fd5b6001600160a01b03811661192b57604051638f6e893360e01b815260040160405180910390fd5b6001600160a01b03811633141561196e576040517f8fbf788d00000000000000000000000000000000000000000000000000000000815260040160405180910390fd5b611979600082611e95565b6119a37ffc8737ab85eb45125971625a9ebdb75cc78e01d5c1fa80c4c6e5203f47bc4fab82611e95565b6119cd7ffaf9b26485088dee58863e57c46603d6cdcbadc7475ac6d8910fab0ecf60309582611e95565b6119d8600033611f37565b611a027ffc8737ab85eb45125971625a9ebdb75cc78e01d5c1fa80c4c6e5203f47bc4fab33611f37565b610b727ffaf9b26485088dee58863e57c46603d6cdcbadc7475ac6d8910fab0ecf60309533611f37565b3360009081527ff5f43b48833b613af61a2aa61573d51591ce86ef304bb6e01e9115b2a39191de602052604081205460ff16611a7b57604051634cc2cd3760e11b815260040160405180910390fd5b81611ab2576040517fd45ab8b600000000000000000000000000000000000000000000000000000000815260040160405180910390fd5b611aba610c61565b821115611af3576040517f8396942200000000000000000000000000000000000000000000000000000000815260040160405180910390fd5b60fd54604051632e54bf9560e01b8152600481018490526001600160a01b0390911690632e54bf9590602401600060405180830381600087803b158015611b3957600080fd5b505af1158015611b4d573d6000803e3d6000fd5b505060fb546040516370a0823160e01b8152306004820152600093506001600160a01b0390911691506370a0823190602401602060405180830381865afa158015611b9c573d6000803e3d6000fd5b505050506040513d601f19601f82011682018060405250810190611bc091906131b4565b60fb5460fc546040517fa9059cbb0000000000000000000000000000000000000000000000000000000081526001600160a01b03918216600482015260248101849052929350169063a9059cbb906044016020604051808303816000875af1158015611c30573d6000803e3d6000fd5b505050506040513d601f19601f82011682018060405250810190611c5491906131fb565b506040518181527f35c4c11317fd96ffa30da51e0a4b85219c4b0f56c1507c3afefe79de0c47ef549060200160405180910390a190505b919050565b600082815260c96020526040902060010154611cab81611e8b565b6109638383611f37565b3360009081527ff5f43b48833b613af61a2aa61573d51591ce86ef304bb6e01e9115b2a39191de602052604090205460ff16611d0457604051634cc2cd3760e11b815260040160405180910390fd5b60fb546040516370a0823160e01b81523060048201526000916001600160a01b0316906370a0823190602401602060405180830381865afa158015611d4d573d6000803e3d6000fd5b505050506040513d601f19601f82011682018060405250810190611d7191906131b4565b905080611daa576040517f378a16c900000000000000000000000000000000000000000000000000000000815260040160405180910390fd5b60fd54604051635f788d6560e01b815260048101839052600060248201526001600160a01b0390911690635f788d6590604401600060405180830381600087803b158015611df757600080fd5b505af1158015611e0b573d6000803e3d6000fd5b505050507fc68748140896ba027a48ebf3a24735d0afb4ab835f92c4815ddb34f9d6dfd18a81604051611e4091815260200190565b60405180910390a150565b6001600160a01b038116610b72576040517f99c4312400000000000000000000000000000000000000000000000000000000815260040160405180910390fd5b610b728133612930565b600082815260c9602090815260408083206001600160a01b038516845290915290205460ff166109f557600082815260c9602090815260408083206001600160a01b03851684529091529020805460ff19166001179055611ef33390565b6001600160a01b0316816001600160a01b0316837f2f8788117e7eff1d82e926ec794901d17c78024a50270940304540a733656f0d60405160405180910390a45050565b600082815260c9602090815260408083206001600160a01b038516845290915290205460ff16156109f557600082815260c9602090815260408083206001600160a01b0385168085529252808320805460ff1916905551339285917ff6391f5c32d9c69d2a47ea670b442974b53935d1edc7fd64eb21e047a839171b9190a45050565b3360009081527f81fe90a866a48a634a12852c1be675b683a22307409932a7443b8029347be756602052604090205460ff16610b72576040516378741b4560e11b815260040160405180910390fd5b7f4910fdfa16fed3260ed0e7147f7cc6da11a60208b5b9406d12a635614ffd91435460ff161561203c57610963836129a5565b826001600160a01b03166352d1902d6040518163ffffffff1660e01b8152600401602060405180830381865afa925050508015612096575060408051601f3d908101601f19168201909252612093918101906131b4565b60015b6121085760405162461bcd60e51b815260206004820152602e60248201527f45524331393637557067726164653a206e657720696d706c656d656e7461746960448201527f6f6e206973206e6f74205555505300000000000000000000000000000000000060648201526084016109e2565b7f360894a13ba1a3210667c828492db98dca3e2076cc3735a920a3ca505d382bbc811461219d5760405162461bcd60e51b815260206004820152602960248201527f45524331393637557067726164653a20756e737570706f727465642070726f7860448201527f6961626c6555554944000000000000000000000000000000000000000000000060648201526084016109e2565b50610963838383612a70565b600054610100900460ff166122265760405162461bcd60e51b815260206004820152602b60248201527f496e697469616c697a61626c653a20636f6e7472616374206973206e6f74206960448201527f6e697469616c697a696e6700000000000000000000000000000000000000000060648201526084016109e2565b565b6000808061223d856301ffc9a760e01b612a95565b909250905081158061224d575080155b1561225d57600092505050610843565b61226f856001600160e01b0319612a95565b909250905081158061228057508015155b1561229057600092505050610843565b61229a8585612a95565b90925090506001821480156122af5750806001145b156122bf57600192505050610843565b506000949350505050565b6122d381611e4b565b6001600160a01b038116600090815260ff602081905260409091205416610b72576040517f9e98954000000000000000000000000000000000000000000000000000000000815260040160405180910390fd5b60006124bc61010060149054906101000a900461ffff1660fc60009054906101000a90046001600160a01b03166001600160a01b03166319d3ee3d6040518163ffffffff1660e01b8152600401602060405180830381865afa158015612390573d6000803e3d6000fd5b505050506040513d601f19601f820116820180604052508101906123b491906131b4565b60fc60009054906101000a90046001600160a01b03166001600160a01b031663eb0ebfbc6040518163ffffffff1660e01b8152600401602060405180830381865afa158015612407573d6000803e3d6000fd5b505050506040513d601f19601f8201168201806040525081019061242b91906131b4565b60fc60009054906101000a90046001600160a01b03166001600160a01b0316634b1533b26040518163ffffffff1660e01b8152600401602060405180830381865afa15801561247e573d6000803e3d6000fd5b505050506040513d601f19601f820116820180604052508101906124a291906131b4565b6124ac91906131e3565b6124b691906131e3565b90612ac9565b90508060fc60009054906101000a90046001600160a01b03166001600160a01b031663c70920bc6040518163ffffffff1660e01b8152600401602060405180830381865afa158015612512573d6000803e3d6000fd5b505050506040513d601f19601f8201168201806040525081019061253691906131b4565b1015612540575050565b60fb5460fc546040516370a0823160e01b81526001600160a01b0391821660048201528392859216906370a0823190602401602060405180830381865afa15801561258f573d6000803e3d6000fd5b505050506040513d601f19601f820116820180604052508101906125b391906131b4565b60fd54604051621cdc4760e81b81523060048201526001600160a01b0390911690631cdc470090602401602060405180830381865afa1580156125fa573d6000803e3d6000fd5b505050506040513d601f19601f8201168201806040525081019061261e91906131b4565b61262891906131e3565b61263291906131e3565b1061263b575050565b6040517fdfa85b6500000000000000000000000000000000000000000000000000000000815260040160405180910390fd5b821580612678575080155b1561268257610c5b565b60fe546040516370a0823160e01b81523060048201526000916001600160a01b0316906370a0823190602401602060405180830381865afa1580156126cb573d6000803e3d6000fd5b505050506040513d601f19601f820116820180604052508101906126ef91906131b4565b90508084111561272b576040517f19736e2600000000000000000000000000000000000000000000000000000000815260040160405180910390fd5b60fe5460405163095ea7b360e01b81526001600160a01b038781166004830152602482018790529091169063095ea7b3906044016020604051808303816000875af115801561277e573d6000803e3d6000fd5b505050506040513d601f19601f820116820180604052508101906127a291906131fb565b506000856001600160a01b0316600085856040516127c192919061321d565b60006040518083038185875af1925050503d80600081146127fe576040519150601f19603f3d011682016040523d82523d6000602084013e612803565b606091505b505090508061283e576040517f56a3cf9a00000000000000000000000000000000000000000000000000000000815260040160405180910390fd5b505050505050565b821580612851575080155b1561285b57610c5b565b4780841115612896576040517f0d38adfa00000000000000000000000000000000000000000000000000000000815260040160405180910390fd5b6000856001600160a01b03168585856040516128b392919061321d565b60006040518083038185875af1925050503d80600081146128f0576040519150601f19603f3d011682016040523d82523d6000602084013e6128f5565b606091505b505090508061283e576040517f257745cc00000000000000000000000000000000000000000000000000000000815260040160405180910390fd5b600082815260c9602090815260408083206001600160a01b038516845290915290205460ff166109f55761296381612aed565b61296e836020612aff565b60405160200161297f929190613259565b60408051601f198184030181529082905262461bcd60e51b82526109e2916004016132da565b6001600160a01b0381163b612a225760405162461bcd60e51b815260206004820152602d60248201527f455243313936373a206e657720696d706c656d656e746174696f6e206973206e60448201527f6f74206120636f6e74726163740000000000000000000000000000000000000060648201526084016109e2565b7f360894a13ba1a3210667c828492db98dca3e2076cc3735a920a3ca505d382bbc805473ffffffffffffffffffffffffffffffffffffffff19166001600160a01b0392909216919091179055565b612a7983612ce0565b600082511180612a865750805b1561096357610c5b8383612d20565b6040516301ffc9a760e01b8082526004820183905260009182919060208160248189617530fa905190969095509350505050565b6000612710612adc61ffff84168561330d565b612ae6919061332c565b9392505050565b60606108436001600160a01b03831660145b60606000612b0e83600261330d565b612b199060026131e3565b67ffffffffffffffff811115612b3157612b31612f37565b6040519080825280601f01601f191660200182016040528015612b5b576020820181803683370190505b5090507f300000000000000000000000000000000000000000000000000000000000000081600081518110612b9257612b9261334e565b60200101906001600160f81b031916908160001a9053507f780000000000000000000000000000000000000000000000000000000000000081600181518110612bdd57612bdd61334e565b60200101906001600160f81b031916908160001a9053506000612c0184600261330d565b612c0c9060016131e3565b90505b6001811115612c91577f303132333435363738396162636465660000000000000000000000000000000085600f1660108110612c4d57612c4d61334e565b1a60f81b828281518110612c6357612c6361334e565b60200101906001600160f81b031916908160001a90535060049490941c93612c8a81613364565b9050612c0f565b508315612ae65760405162461bcd60e51b815260206004820181905260248201527f537472696e67733a20686578206c656e67746820696e73756666696369656e7460448201526064016109e2565b612ce9816129a5565b6040516001600160a01b038216907fbc7cd75a20ee27fd9adebab32041f755214dbc6bffa90cc0225b39da2e5c2d3b90600090a250565b60606001600160a01b0383163b612d9f5760405162461bcd60e51b815260206004820152602660248201527f416464726573733a2064656c65676174652063616c6c20746f206e6f6e2d636f60448201527f6e7472616374000000000000000000000000000000000000000000000000000060648201526084016109e2565b600080846001600160a01b031684604051612dba919061337b565b600060405180830381855af49150503d8060008114612df5576040519150601f19603f3d011682016040523d82523d6000602084013e612dfa565b606091505b5091509150612e22828260405180606001604052806027815260200161339860279139612e2b565b95945050505050565b60608315612e3a575081612ae6565b612ae68383815115612e4f5781518083602001fd5b8060405162461bcd60e51b81526004016109e291906132da565b600060208284031215612e7b57600080fd5b81356001600160e01b031981168114612ae657600080fd5b80356001600160a01b0381168114611c8b57600080fd5b600060208284031215612ebc57600080fd5b612ae682612e93565b600060208284031215612ed757600080fd5b5035919050565b60008060408385031215612ef157600080fd5b82359150612f0160208401612e93565b90509250929050565b803561ffff81168114611c8b57600080fd5b600060208284031215612f2e57600080fd5b612ae682612f0a565b634e487b7160e01b600052604160045260246000fd5b60008060408385031215612f6057600080fd5b612f6983612e93565b9150602083013567ffffffffffffffff80821115612f8657600080fd5b818501915085601f830112612f9a57600080fd5b813581811115612fac57612fac612f37565b604051601f8201601f19908116603f01168101908382118183101715612fd457612fd4612f37565b81604052828152886020848701011115612fed57600080fd5b8260208601602083013760006020848301015280955050505050509250929050565b600080600080600080600080610100898b03121561302c57600080fd5b61303589612e93565b975061304360208a01612e93565b965061305160408a01612e93565b955061305f60608a01612e93565b945061306d60808a01612e93565b935061307b60a08a01612e93565b925061308960c08a01612f0a565b915061309760e08a01612e93565b90509295985092959890939650565b60008083601f8401126130b857600080fd5b50813567ffffffffffffffff8111156130d057600080fd5b6020830191508360208285010111156130e857600080fd5b9250929050565b60008060008060008060008060c0898b03121561310b57600080fd5b61311489612e93565b975060208901359650604089013567ffffffffffffffff8082111561313857600080fd5b6131448c838d016130a6565b909850965060608b0135955060808b013591508082111561316457600080fd5b506131718b828c016130a6565b999c989b50969995989497949560a00135949350505050565b6000806040838503121561319d57600080fd5b6131a683612e93565b946020939093013593505050565b6000602082840312156131c657600080fd5b5051919050565b634e487b7160e01b600052601160045260246000fd5b600082198211156131f6576131f66131cd565b500190565b60006020828403121561320d57600080fd5b81518015158114612ae657600080fd5b8183823760009101908152919050565b60005b83811015613248578181015183820152602001613230565b83811115610c5b5750506000910152565b7f416363657373436f6e74726f6c3a206163636f756e742000000000000000000081526000835161329181601785016020880161322d565b7f206973206d697373696e6720726f6c652000000000000000000000000000000060179184019182015283516132ce81602884016020880161322d565b01602801949350505050565b60208152600082518060208401526132f981604085016020870161322d565b601f01601f19169190910160400192915050565b6000816000190483118215151615613327576133276131cd565b500290565b60008261334957634e487b7160e01b600052601260045260246000fd5b500490565b634e487b7160e01b600052603260045260246000fd5b600081613373576133736131cd565b506000190190565b6000825161338d81846020870161322d565b919091019291505056fe416464726573733a206c6f772d6c6576656c2064656c65676174652063616c6c206661696c6564a2646970667358221220659b6979205cb7142dbbba280ddc2091807d7e1ee4186bd84920740f40e6462e64736f6c634300080a0033",
  "devdoc": {
    "kind": "dev",
    "methods": {
      "getRoleAdmin(bytes32)": {
        "details": "Returns the admin role that controls `role`. See {grantRole} and {revokeRole}. To change a role's admin, use {_setRoleAdmin}."
      },
      "grantRole(bytes32,address)": {
        "details": "Grants `role` to `account`. If `account` had not been already granted `role`, emits a {RoleGranted} event. Requirements: - the caller must have ``role``'s admin role. May emit a {RoleGranted} event."
      },
      "hasAssets()": {
        "returns": {
          "_0": "true if assets invested, false if nothing invested."
        }
      },
      "hasRole(bytes32,address)": {
        "details": "Returns `true` if `account` has been granted `role`."
      },
      "investedAssets()": {
        "returns": {
          "_0": "The total amount of underlying"
        }
      },
      "isSync()": {
        "returns": {
          "_0": "true if the strategy is synchronous, false otherwise"
        }
      },
      "proxiableUUID()": {
        "details": "Implementation of the ERC1822 {proxiableUUID} function. This returns the storage slot used by the implementation. It is used to validate the implementation's compatibility when performing an upgrade. IMPORTANT: A proxy pointing at a proxiable contract should not be considered proxiable itself, because this risks bricking a proxy that upgrades to it, by delegating to itself until out of gas. Thus it is critical that this function revert if invoked through a proxy. This is guaranteed by the `notDelegated` modifier."
      },
      "reinvest(address,uint256,bytes,uint256,bytes,uint256)": {
        "params": {
          "_amountOutMin": "the minimum amount of LUSD to be received after the ETH & LQTY -> LUSD swap.",
          "_ethAmount": "amount of ETH to swap to LUSD, has to match with the amount used to obtain @param _ethSwapData.",
          "_ethSwapData": "data used to perform ETH -> LUSD swap. Leave empty to skip this swap.",
          "_lqtySwapData": "data used to perform LQTY -> LUSD swap. Leave empty to skip this swap.",
          "_swapTarget": "the address of the '0x' contract performing the tokens swap."
        }
      },
      "renounceRole(bytes32,address)": {
        "details": "Revokes `role` from the calling account. Roles are often managed via {grantRole} and {revokeRole}: this function's purpose is to provide a mechanism for accounts to lose their privileges if they are compromised (such as when a trusted device is misplaced). If the calling account had been revoked `role`, emits a {RoleRevoked} event. Requirements: - the caller must be `account`. May emit a {RoleRevoked} event."
      },
      "revokeRole(bytes32,address)": {
        "details": "Revokes `role` from `account`. If `account` had been granted `role`, emits a {RoleRevoked} event. Requirements: - the caller must have ``role``'s admin role. May emit a {RoleRevoked} event."
      },
      "setMinProtectedAssetsPct(uint16)": {
        "params": {
          "_pct": "The new minimum assets protection percentage."
        }
      },
      "supportsInterface(bytes4)": {
        "details": "See {IERC165-supportsInterface}."
      },
      "transferAdminRights(address)": {
        "params": {
          "_newAdmin": "The new Strategy admin account."
        }
      },
      "transferYield(address,uint256)": {
        "params": {
          "_amount": "amount to transfer.",
          "_to": "address that will receive the funds."
        },
        "returns": {
          "_0": "amount in underlying equivalent to amount transferred in other currency."
        }
      },
      "upgradeTo(address)": {
        "details": "Upgrade the implementation of the proxy to `newImplementation`. Calls {_authorizeUpgrade}. Emits an {Upgraded} event."
      },
      "upgradeToAndCall(address,bytes)": {
        "details": "Upgrade the implementation of the proxy to `newImplementation`, and subsequently execute the function call encoded in `data`. Calls {_authorizeUpgrade}. Emits an {Upgraded} event."
      },
      "withdrawToVault(uint256)": {
        "params": {
          "amount": "Amount to withdraw"
        },
        "returns": {
          "_0": "actual amount withdrawn"
        }
      }
    },
    "stateVariables": {
      "vault": {
        "return": "The vault's address",
        "returns": {
          "_0": "The vault's address"
        }
      }
    },
    "version": 1
  },
  "userdoc": {
    "events": {
      "StrategyInvested(uint256)": {
        "notice": "Emmited when funds are invested by the strategy."
      },
      "StrategyWithdrawn(uint256)": {
        "notice": "Emmited when funds are withdrawn (disinvested) by the strategy."
      }
    },
    "kind": "user",
    "methods": {
      "allowSwapTarget(address)": {
        "notice": "Allows an address to be used as a swap target by adding it on the whitelist.Can only be called by the account with the SETTINGS role.Swap targets are addresses of 0x contracts used for swapping ETH and LQTY tokens held by the strategy."
      },
      "denySwapTarget(address)": {
        "notice": "Denies an address to be used as a swap target by removing it from the whitelist.Can only be called by the account with the SETTINGS role."
      },
      "harvest()": {
        "notice": "Collects the LQTY & ETH rewards from the stability pool."
      },
      "hasAssets()": {
        "notice": "Indicates if assets are invested into strategy or not.this will be used when removing the strategy from the vault"
      },
      "invest()": {
        "notice": "this will also claim any unclaimed gains in the stability pool"
      },
      "investedAssets()": {
        "notice": "LQTY rewards of the strategy waiting to be claimed in the liquity stability pool are not includedbut the ETH rewards are included"
      },
      "isSync()": {
        "notice": "Provides information about wether the strategy is synchronous or asynchronous.Synchronous strategies support instant withdrawals, while asynchronous strategies impose a delay before withdrawals can be made."
      },
      "minProtectedAssetsPct()": {
        "notice": "A percentage that specifies the minimum amount of assets to protect in the strategy. Protected assets are kept in LUSD and include principal, sponsored and accumulated performance fees. This value acts as a threshold and is applied only when the total underlying assets are grater than the minimum protected assets. For instance, the minimum protected assets percentage is 150%, the total principal is 100 LUSD, sponsored and perf fees are both 0, and the total yield is 100 LUSD. When the backend rebalances the strategy (calls #reinvest), it has to ensure that at least 50 ETH+LQTY is converted to LUSD to maintain a 150% minimum protected assets (150 LUSD)."
      },
      "reinvest(address,uint256,bytes,uint256,bytes,uint256)": {
        "notice": "Swaps LQTY tokens and ETH held by the strategy to LUSD, and reinvests the swapped LUSD amount into the stability pool.Can only be called by the account with the KEEPER role.Swap data arguments provided are real-time data obtained from '0x' api."
      },
      "setMinProtectedAssetsPct(uint16)": {
        "notice": "Set the minimum protected assets percentage."
      },
      "transferAdminRights(address)": {
        "notice": "Transfers administrator rights for the Strategy to another account, revoking current admin roles and setting up the roles for the new admin.Can only be called by the account with the ADMIN role."
      },
      "vault()": {
        "notice": "The vault linked to this strategy."
      },
      "withdrawToVault(uint256)": {
        "notice": "will also claim unclaimed LQTY & ETH gainswhen amount > total deposited, all available funds will be withdrawn"
      }
    },
    "version": 1
  },
  "storageLayout": {
    "storage": [
      {
        "astId": 850,
        "contract": "contracts/strategy/liquity/LiquityStrategy.sol:LiquityStrategy",
        "label": "_initialized",
        "offset": 0,
        "slot": "0",
        "type": "t_uint8"
      },
      {
        "astId": 853,
        "contract": "contracts/strategy/liquity/LiquityStrategy.sol:LiquityStrategy",
        "label": "_initializing",
        "offset": 1,
        "slot": "0",
        "type": "t_bool"
      },
      {
        "astId": 832,
        "contract": "contracts/strategy/liquity/LiquityStrategy.sol:LiquityStrategy",
        "label": "__gap",
        "offset": 0,
        "slot": "1",
        "type": "t_array(t_uint256)50_storage"
      },
      {
        "astId": 1147,
        "contract": "contracts/strategy/liquity/LiquityStrategy.sol:LiquityStrategy",
        "label": "__gap",
        "offset": 0,
        "slot": "51",
        "type": "t_array(t_uint256)50_storage"
      },
      {
        "astId": 1473,
        "contract": "contracts/strategy/liquity/LiquityStrategy.sol:LiquityStrategy",
        "label": "__gap",
        "offset": 0,
        "slot": "101",
        "type": "t_array(t_uint256)50_storage"
      },
      {
        "astId": 1752,
        "contract": "contracts/strategy/liquity/LiquityStrategy.sol:LiquityStrategy",
        "label": "__gap",
        "offset": 0,
        "slot": "151",
        "type": "t_array(t_uint256)50_storage"
      },
      {
        "astId": 85,
        "contract": "contracts/strategy/liquity/LiquityStrategy.sol:LiquityStrategy",
        "label": "_roles",
        "offset": 0,
        "slot": "201",
        "type": "t_mapping(t_bytes32,t_struct(RoleData)80_storage)"
      },
      {
        "astId": 380,
        "contract": "contracts/strategy/liquity/LiquityStrategy.sol:LiquityStrategy",
        "label": "__gap",
        "offset": 0,
        "slot": "202",
        "type": "t_array(t_uint256)49_storage"
      },
      {
        "astId": 18319,
        "contract": "contracts/strategy/liquity/LiquityStrategy.sol:LiquityStrategy",
        "label": "underlying",
        "offset": 0,
        "slot": "251",
        "type": "t_contract(IERC20)3959"
      },
      {
        "astId": 18324,
        "contract": "contracts/strategy/liquity/LiquityStrategy.sol:LiquityStrategy",
        "label": "vault",
        "offset": 0,
        "slot": "252",
        "type": "t_address"
      },
      {
        "astId": 18327,
        "contract": "contracts/strategy/liquity/LiquityStrategy.sol:LiquityStrategy",
        "label": "stabilityPool",
        "offset": 0,
        "slot": "253",
        "type": "t_contract(IStabilityPool)13316"
      },
      {
        "astId": 18330,
        "contract": "contracts/strategy/liquity/LiquityStrategy.sol:LiquityStrategy",
        "label": "lqty",
        "offset": 0,
        "slot": "254",
        "type": "t_contract(IERC20)3959"
      },
      {
        "astId": 18334,
        "contract": "contracts/strategy/liquity/LiquityStrategy.sol:LiquityStrategy",
        "label": "allowedSwapTargets",
        "offset": 0,
        "slot": "255",
        "type": "t_mapping(t_address,t_bool)"
      },
      {
        "astId": 18337,
        "contract": "contracts/strategy/liquity/LiquityStrategy.sol:LiquityStrategy",
        "label": "curveExchange",
        "offset": 0,
        "slot": "256",
        "type": "t_contract(ICurveExchange)13256"
      },
      {
        "astId": 18340,
        "contract": "contracts/strategy/liquity/LiquityStrategy.sol:LiquityStrategy",
        "label": "minProtectedAssetsPct",
        "offset": 20,
        "slot": "256",
        "type": "t_uint16"
      }
    ],
    "types": {
      "t_address": {
        "encoding": "inplace",
        "label": "address",
        "numberOfBytes": "20"
      },
      "t_array(t_uint256)49_storage": {
        "base": "t_uint256",
        "encoding": "inplace",
        "label": "uint256[49]",
        "numberOfBytes": "1568"
      },
      "t_array(t_uint256)50_storage": {
        "base": "t_uint256",
        "encoding": "inplace",
        "label": "uint256[50]",
        "numberOfBytes": "1600"
      },
      "t_bool": {
        "encoding": "inplace",
        "label": "bool",
        "numberOfBytes": "1"
      },
      "t_bytes32": {
        "encoding": "inplace",
        "label": "bytes32",
        "numberOfBytes": "32"
      },
      "t_contract(ICurveExchange)13256": {
        "encoding": "inplace",
        "label": "contract ICurveExchange",
        "numberOfBytes": "20"
      },
      "t_contract(IERC20)3959": {
        "encoding": "inplace",
        "label": "contract IERC20",
        "numberOfBytes": "20"
      },
      "t_contract(IStabilityPool)13316": {
        "encoding": "inplace",
        "label": "contract IStabilityPool",
        "numberOfBytes": "20"
      },
      "t_mapping(t_address,t_bool)": {
        "encoding": "mapping",
        "key": "t_address",
        "label": "mapping(address => bool)",
        "numberOfBytes": "32",
        "value": "t_bool"
      },
      "t_mapping(t_bytes32,t_struct(RoleData)80_storage)": {
        "encoding": "mapping",
        "key": "t_bytes32",
        "label": "mapping(bytes32 => struct AccessControlUpgradeable.RoleData)",
        "numberOfBytes": "32",
        "value": "t_struct(RoleData)80_storage"
      },
      "t_struct(RoleData)80_storage": {
        "encoding": "inplace",
        "label": "struct AccessControlUpgradeable.RoleData",
        "members": [
          {
            "astId": 77,
            "contract": "contracts/strategy/liquity/LiquityStrategy.sol:LiquityStrategy",
            "label": "members",
            "offset": 0,
            "slot": "0",
            "type": "t_mapping(t_address,t_bool)"
          },
          {
            "astId": 79,
            "contract": "contracts/strategy/liquity/LiquityStrategy.sol:LiquityStrategy",
            "label": "adminRole",
            "offset": 0,
            "slot": "1",
            "type": "t_bytes32"
          }
        ],
        "numberOfBytes": "64"
      },
      "t_uint16": {
        "encoding": "inplace",
        "label": "uint16",
        "numberOfBytes": "2"
      },
      "t_uint256": {
        "encoding": "inplace",
        "label": "uint256",
        "numberOfBytes": "32"
      },
      "t_uint8": {
        "encoding": "inplace",
        "label": "uint8",
        "numberOfBytes": "1"
      }
    }
  }
}