{
  "address": "0x630c8C88b538598a50F05AC06647C8d1Da36C957",
  "abi": [
    {
      "stateMutability": "payable",
      "type": "fallback"
    },
    {
      "inputs": [
        {
          "internalType": "address",
          "name": "_from",
          "type": "address"
        },
        {
          "internalType": "address",
          "name": "_to",
          "type": "address"
        }
      ],
      "name": "getExchangeRate",
      "outputs": [
        {
          "internalType": "uint256",
          "name": "",
          "type": "uint256"
        }
      ],
      "stateMutability": "view",
      "type": "function"
    },
    {
      "inputs": [
        {
          "internalType": "address",
          "name": "_from",
          "type": "address"
        },
        {
          "internalType": "address",
          "name": "_to",
          "type": "address"
        },
        {
          "internalType": "uint256",
          "name": "_rate",
          "type": "uint256"
        }
      ],
      "name": "setExchageRate",
      "outputs": [],
      "stateMutability": "nonpayable",
      "type": "function"
    },
    {
      "inputs": [
        {
          "internalType": "address",
          "name": "_from",
          "type": "address"
        },
        {
          "internalType": "address",
          "name": "_to",
          "type": "address"
        },
        {
          "internalType": "uint256",
          "name": "_amount",
          "type": "uint256"
        }
      ],
      "name": "swapTokens",
      "outputs": [],
      "stateMutability": "payable",
      "type": "function"
    },
    {
      "stateMutability": "payable",
      "type": "receive"
    }
  ],
  "transactionHash": "0x45f9173baccd72379ded283479da632882e6ab19ccaa95f5043312ccc0afd130",
  "args": [],
  "numDeployments": 1,
  "solcInputHash": "535d1e8abee701d9b9e88f6935fd1381",
  "bytecode": "0x608060405234801561001057600080fd5b50610478806100206000396000f3fe6080604052600436106100385760003560e01c80638633b1fa1461006a578063baaa61be146100c2578063ec6cc0cc146100f45761003f565b3661003f57005b6000808061004d3682610379565b92509250925061005e838383610102565b60405160018152602081f35b34801561007657600080fd5b506100c0610085366004610379565b7401fffffffffffffffffffffffffffffffffffffffe60019390931b92909216186001600160a01b0316600090815260208190526040902055565b005b3480156100ce57600080fd5b506100e26100dd3660046103ba565b61030e565b60405190815260200160405180910390f35b6100c0610102366004610379565b6001600160a01b03821661016957336108fc670de0b6b3a7640000610127868661030e565b61013190856103f3565b61013b9190610420565b6040518115909202916000818181858888f19350505050158015610163573d6000803e3d6000fd5b50610210565b6000670de0b6b3a764000061017e858561030e565b61018890846103f3565b6101929190610420565b6040517f40c10f19000000000000000000000000000000000000000000000000000000008152336004820152602481018290529091506001600160a01b038416906340c10f1990604401600060405180830381600087803b1580156101f657600080fd5b505af115801561020a573d6000803e3d6000fd5b50505050505b6001600160a01b0383166102905780341461028b576040517f08c379a000000000000000000000000000000000000000000000000000000000815260206004820152601e60248201527f4d6f636b45786368616e67653a20696e73756666696369656e74204554480000604482015260640160405180910390fd5b505050565b6040517f9dc29fac000000000000000000000000000000000000000000000000000000008152336004820152602481018290526001600160a01b03841690639dc29fac90604401600060405180830381600087803b1580156102f157600080fd5b505af1158015610305573d6000803e3d6000fd5b50505050505050565b6001600160a01b03600183901b7401fffffffffffffffffffffffffffffffffffffffe168218166000908152602081905260408120548061035757670de0b6b3a7640000610359565b805b949350505050565b6001600160a01b038116811461037657600080fd5b50565b60008060006060848603121561038e57600080fd5b833561039981610361565b925060208401356103a981610361565b929592945050506040919091013590565b600080604083850312156103cd57600080fd5b82356103d881610361565b915060208301356103e881610361565b809150509250929050565b600081600019048311821515161561041b57634e487b7160e01b600052601160045260246000fd5b500290565b60008261043d57634e487b7160e01b600052601260045260246000fd5b50049056fea26469706673582212202efaddaf154f6ec4ac3ae587e5aa2a2c6cb449d0059af8e9d8ab6b64a13a2cab64736f6c634300080a0033",
  "devdoc": {
    "kind": "dev",
    "methods": {},
    "version": 1
  },
  "userdoc": {
    "kind": "user",
    "methods": {},
    "version": 1
  },
  "storageLayout": {
    "storage": [
      {
        "astId": 11679,
        "contract": "contracts/mock/Mock0x.sol:Mock0x",
        "label": "exchageRates",
        "offset": 0,
        "slot": "0",
        "type": "t_mapping(t_uint160,t_uint256)"
      }
    ],
    "types": {
      "t_mapping(t_uint160,t_uint256)": {
        "encoding": "mapping",
        "key": "t_uint160",
        "label": "mapping(uint160 => uint256)",
        "numberOfBytes": "32",
        "value": "t_uint256"
      },
      "t_uint160": {
        "encoding": "inplace",
        "label": "uint160",
        "numberOfBytes": "20"
      },
      "t_uint256": {
        "encoding": "inplace",
        "label": "uint256",
        "numberOfBytes": "32"
      }
    }
  }
}