{
  "address": "0x35BFB62942E9bDffB95E5A2a0d7F24F88522cFc3",
  "abi": [
    {
      "inputs": [
        {
          "internalType": "contract IERC20Metadata",
          "name": "_underlying",
          "type": "address"
        },
        {
          "internalType": "uint64",
          "name": "_minLockPeriod",
          "type": "uint64"
        },
        {
          "internalType": "uint16",
          "name": "_investPct",
          "type": "uint16"
        },
        {
          "internalType": "address",
          "name": "_treasury",
          "type": "address"
        },
        {
          "internalType": "address",
          "name": "_admin",
          "type": "address"
        },
        {
          "internalType": "uint16",
          "name": "_perfFeePct",
          "type": "uint16"
        },
        {
          "internalType": "uint16",
          "name": "_lossTolerancePct",
          "type": "uint16"
        },
        {
          "components": [
            {
              "internalType": "address",
              "name": "token",
              "type": "address"
            },
            {
              "internalType": "address",
              "name": "pool",
              "type": "address"
            },
            {
              "internalType": "int128",
              "name": "tokenI",
              "type": "int128"
            },
            {
              "internalType": "int128",
              "name": "underlyingI",
              "type": "int128"
            }
          ],
          "internalType": "struct CurveSwapper.SwapPoolParam[]",
          "name": "_swapPools",
          "type": "tuple[]"
        },
        {
          "internalType": "uint16",
          "name": "_immediateInvestLimitPct",
          "type": "uint16"
        }
      ],
      "stateMutability": "nonpayable",
      "type": "constructor"
    },
    {
      "inputs": [],
      "name": "StrategyAdminCannotBe0Address",
      "type": "error"
    },
    {
      "inputs": [],
      "name": "StrategyAmountZero",
      "type": "error"
    },
    {
      "inputs": [],
      "name": "StrategyCallerNotAdmin",
      "type": "error"
    },
    {
      "inputs": [],
      "name": "StrategyCallerNotKeeper",
      "type": "error"
    },
    {
      "inputs": [],
      "name": "StrategyCallerNotManager",
      "type": "error"
    },
    {
      "inputs": [],
      "name": "StrategyCallerNotSettings",
      "type": "error"
    },
    {
      "inputs": [],
      "name": "StrategyCannotTransferAdminRightsToSelf",
      "type": "error"
    },
    {
      "inputs": [],
      "name": "StrategyKeeperCannotBe0Address",
      "type": "error"
    },
    {
      "inputs": [],
      "name": "StrategyNoUnderlying",
      "type": "error"
    },
    {
      "inputs": [],
      "name": "StrategyNotEnoughShares",
      "type": "error"
    },
    {
      "inputs": [],
      "name": "StrategyNotIVault",
      "type": "error"
    },
    {
      "inputs": [],
      "name": "StrategyNotRunning",
      "type": "error"
    },
    {
      "inputs": [],
      "name": "StrategyUnderlyingCannotBe0Address",
      "type": "error"
    },
    {
      "inputs": [],
      "name": "VaultAdminCannotBe0Address",
      "type": "error"
    },
    {
      "inputs": [],
      "name": "VaultAmountDoesNotMatchParams",
      "type": "error"
    },
    {
      "inputs": [],
      "name": "VaultAmountLocked",
      "type": "error"
    },
    {
      "inputs": [],
      "name": "VaultCallerNotAdmin",
      "type": "error"
    },
    {
      "inputs": [],
      "name": "VaultCallerNotKeeper",
      "type": "error"
    },
    {
      "inputs": [],
      "name": "VaultCallerNotSettings",
      "type": "error"
    },
    {
      "inputs": [],
      "name": "VaultCallerNotSponsor",
      "type": "error"
    },
    {
      "inputs": [],
      "name": "VaultCannotComputeSharesWithoutPrincipal",
      "type": "error"
    },
    {
      "inputs": [],
      "name": "VaultCannotDeposit0",
      "type": "error"
    },
    {
      "inputs": [],
      "name": "VaultCannotDepositWhenClaimerInDebt",
      "type": "error"
    },
    {
      "inputs": [],
      "name": "VaultCannotDepositWhenYieldNegative",
      "type": "error"
    },
    {
      "inputs": [],
      "name": "VaultCannotSponsor0",
      "type": "error"
    },
    {
      "inputs": [],
      "name": "VaultCannotTransferAdminRightsToSelf",
      "type": "error"
    },
    {
      "inputs": [],
      "name": "VaultCannotWithdrawMoreThanAvailable",
      "type": "error"
    },
    {
      "inputs": [],
      "name": "VaultCannotWithdrawWhenYieldNegative",
      "type": "error"
    },
    {
      "inputs": [],
      "name": "VaultClaimPercentageCannotBe0",
      "type": "error"
    },
    {
      "inputs": [],
      "name": "VaultClaimerCannotBe0",
      "type": "error"
    },
    {
      "inputs": [],
      "name": "VaultClaimsDontAddUp",
      "type": "error"
    },
    {
      "inputs": [],
      "name": "VaultDepositLocked",
      "type": "error"
    },
    {
      "inputs": [],
      "name": "VaultDepositNameTooShort",
      "type": "error"
    },
    {
      "inputs": [],
      "name": "VaultDestinationCannotBe0Address",
      "type": "error"
    },
    {
      "inputs": [],
      "name": "VaultInvalidImmediateInvestLimitPct",
      "type": "error"
    },
    {
      "inputs": [],
      "name": "VaultInvalidInvestPct",
      "type": "error"
    },
    {
      "inputs": [],
      "name": "VaultInvalidLockPeriod",
      "type": "error"
    },
    {
      "inputs": [],
      "name": "VaultInvalidLossTolerance",
      "type": "error"
    },
    {
      "inputs": [],
      "name": "VaultInvalidMinLockPeriod",
      "type": "error"
    },
    {
      "inputs": [],
      "name": "VaultInvalidPerformanceFee",
      "type": "error"
    },
    {
      "inputs": [],
      "name": "VaultInvalidVault",
      "type": "error"
    },
    {
      "inputs": [],
      "name": "VaultMustUseForceWithdrawToAcceptLosses",
      "type": "error"
    },
    {
      "inputs": [],
      "name": "VaultNoPerformanceFee",
      "type": "error"
    },
    {
      "inputs": [],
      "name": "VaultNoYieldToClaim",
      "type": "error"
    },
    {
      "inputs": [],
      "name": "VaultNotAllowed",
      "type": "error"
    },
    {
      "inputs": [],
      "name": "VaultNotDeposit",
      "type": "error"
    },
    {
      "inputs": [],
      "name": "VaultNotEnoughFunds",
      "type": "error"
    },
    {
      "inputs": [],
      "name": "VaultNotEnoughToRebalance",
      "type": "error"
    },
    {
      "inputs": [],
      "name": "VaultNotOwnerOfDeposit",
      "type": "error"
    },
    {
      "inputs": [],
      "name": "VaultNotSponsor",
      "type": "error"
    },
    {
      "inputs": [],
      "name": "VaultNothingToDo",
      "type": "error"
    },
    {
      "inputs": [],
      "name": "VaultSenderNotOwnerOfGroupId",
      "type": "error"
    },
    {
      "inputs": [],
      "name": "VaultStrategyHasInvestedFunds",
      "type": "error"
    },
    {
      "inputs": [],
      "name": "VaultStrategyNotSet",
      "type": "error"
    },
    {
      "inputs": [],
      "name": "VaultTreasuryCannotBe0Address",
      "type": "error"
    },
    {
      "inputs": [],
      "name": "VaultUnderlyingCannotBe0Address",
      "type": "error"
    },
    {
      "anonymous": false,
      "inputs": [
        {
          "indexed": true,
          "internalType": "address",
          "name": "token",
          "type": "address"
        },
        {
          "indexed": true,
          "internalType": "address",
          "name": "pool",
          "type": "address"
        },
        {
          "indexed": false,
          "internalType": "int128",
          "name": "tokenI",
          "type": "int128"
        },
        {
          "indexed": false,
          "internalType": "int128",
          "name": "underlyingI",
          "type": "int128"
        }
      ],
      "name": "CurveSwapPoolAdded",
      "type": "event"
    },
    {
      "anonymous": false,
      "inputs": [
        {
          "indexed": true,
          "internalType": "address",
          "name": "token",
          "type": "address"
        }
      ],
      "name": "CurveSwapPoolRemoved",
      "type": "event"
    },
    {
      "anonymous": false,
      "inputs": [
        {
          "indexed": true,
          "internalType": "uint256",
          "name": "id",
          "type": "uint256"
        },
        {
          "indexed": false,
          "internalType": "uint256",
          "name": "groupId",
          "type": "uint256"
        },
        {
          "indexed": false,
          "internalType": "uint256",
          "name": "amount",
          "type": "uint256"
        },
        {
          "indexed": false,
          "internalType": "uint256",
          "name": "shares",
          "type": "uint256"
        },
        {
          "indexed": true,
          "internalType": "address",
          "name": "depositor",
          "type": "address"
        },
        {
          "indexed": true,
          "internalType": "address",
          "name": "claimer",
          "type": "address"
        },
        {
          "indexed": false,
          "internalType": "address",
          "name": "claimerId",
          "type": "address"
        },
        {
          "indexed": false,
          "internalType": "uint64",
          "name": "lockedUntil",
          "type": "uint64"
        },
        {
          "indexed": false,
          "internalType": "bytes",
          "name": "data",
          "type": "bytes"
        },
        {
          "indexed": false,
          "internalType": "string",
          "name": "name",
          "type": "string"
        }
      ],
      "name": "DepositMinted",
      "type": "event"
    },
    {
      "anonymous": false,
      "inputs": [
        {
          "indexed": true,
          "internalType": "uint256",
          "name": "id",
          "type": "uint256"
        },
        {
          "indexed": false,
          "internalType": "uint256",
          "name": "shares",
          "type": "uint256"
        },
        {
          "indexed": false,
          "internalType": "uint256",
          "name": "amount",
          "type": "uint256"
        },
        {
          "indexed": true,
          "internalType": "address",
          "name": "to",
          "type": "address"
        },
        {
          "indexed": false,
          "internalType": "bool",
          "name": "burned",
          "type": "bool"
        }
      ],
      "name": "DepositWithdrawn",
      "type": "event"
    },
    {
      "anonymous": false,
      "inputs": [
        {
          "indexed": false,
          "internalType": "uint256",
          "name": "amount",
          "type": "uint256"
        }
      ],
      "name": "Disinvested",
      "type": "event"
    },
    {
      "anonymous": false,
      "inputs": [
        {
          "indexed": false,
          "internalType": "address",
          "name": "account",
          "type": "address"
        }
      ],
      "name": "ExitPaused",
      "type": "event"
    },
    {
      "anonymous": false,
      "inputs": [
        {
          "indexed": false,
          "internalType": "address",
          "name": "account",
          "type": "address"
        }
      ],
      "name": "ExitUnpaused",
      "type": "event"
    },
    {
      "anonymous": false,
      "inputs": [
        {
          "indexed": false,
          "internalType": "uint256",
          "name": "amount",
          "type": "uint256"
        }
      ],
      "name": "FeeWithdrawn",
      "type": "event"
    },
    {
      "anonymous": false,
      "inputs": [
        {
          "indexed": false,
          "internalType": "uint256",
          "name": "percentage",
          "type": "uint256"
        }
      ],
      "name": "ImmediateInvestLimitPctUpdated",
      "type": "event"
    },
    {
      "anonymous": false,
      "inputs": [
        {
          "indexed": false,
          "internalType": "uint256",
          "name": "percentage",
          "type": "uint256"
        }
      ],
      "name": "InvestPctUpdated",
      "type": "event"
    },
    {
      "anonymous": false,
      "inputs": [
        {
          "indexed": false,
          "internalType": "uint256",
          "name": "amount",
          "type": "uint256"
        }
      ],
      "name": "Invested",
      "type": "event"
    },
    {
      "anonymous": false,
      "inputs": [
        {
          "indexed": false,
          "internalType": "uint16",
          "name": "pct",
          "type": "uint16"
        }
      ],
      "name": "LossTolerancePctUpdated",
      "type": "event"
    },
    {
      "anonymous": false,
      "inputs": [
        {
          "indexed": false,
          "internalType": "address",
          "name": "account",
          "type": "address"
        }
      ],
      "name": "Paused",
      "type": "event"
    },
    {
      "anonymous": false,
      "inputs": [
        {
          "indexed": false,
          "internalType": "uint16",
          "name": "pct",
          "type": "uint16"
        }
      ],
      "name": "PerfFeePctUpdated",
      "type": "event"
    },
    {
      "anonymous": false,
      "inputs": [
        {
          "indexed": true,
          "internalType": "bytes32",
          "name": "role",
          "type": "bytes32"
        },
        {
          "indexed": true,
          "internalType": "bytes32",
          "name": "previousAdminRole",
          "type": "bytes32"
        },
        {
          "indexed": true,
          "internalType": "bytes32",
          "name": "newAdminRole",
          "type": "bytes32"
        }
      ],
      "name": "RoleAdminChanged",
      "type": "event"
    },
    {
      "anonymous": false,
      "inputs": [
        {
          "indexed": true,
          "internalType": "bytes32",
          "name": "role",
          "type": "bytes32"
        },
        {
          "indexed": true,
          "internalType": "address",
          "name": "account",
          "type": "address"
        },
        {
          "indexed": true,
          "internalType": "address",
          "name": "sender",
          "type": "address"
        }
      ],
      "name": "RoleGranted",
      "type": "event"
    },
    {
      "anonymous": false,
      "inputs": [
        {
          "indexed": true,
          "internalType": "bytes32",
          "name": "role",
          "type": "bytes32"
        },
        {
          "indexed": true,
          "internalType": "address",
          "name": "account",
          "type": "address"
        },
        {
          "indexed": true,
          "internalType": "address",
          "name": "sender",
          "type": "address"
        }
      ],
      "name": "RoleRevoked",
      "type": "event"
    },
    {
      "anonymous": false,
      "inputs": [
        {
          "indexed": true,
          "internalType": "uint256",
          "name": "id",
          "type": "uint256"
        },
        {
          "indexed": false,
          "internalType": "uint256",
          "name": "amount",
          "type": "uint256"
        },
        {
          "indexed": true,
          "internalType": "address",
          "name": "depositor",
          "type": "address"
        },
        {
          "indexed": false,
          "internalType": "uint256",
          "name": "lockedUntil",
          "type": "uint256"
        }
      ],
      "name": "Sponsored",
      "type": "event"
    },
    {
      "anonymous": false,
      "inputs": [
        {
          "indexed": true,
          "internalType": "address",
          "name": "strategy",
          "type": "address"
        }
      ],
      "name": "StrategyUpdated",
      "type": "event"
    },
    {
      "anonymous": false,
      "inputs": [
        {
          "indexed": true,
          "internalType": "address",
          "name": "fromToken",
          "type": "address"
        },
        {
          "indexed": true,
          "internalType": "address",
          "name": "toToken",
          "type": "address"
        },
        {
          "indexed": false,
          "internalType": "uint256",
          "name": "fromAmount",
          "type": "uint256"
        },
        {
          "indexed": false,
          "internalType": "uint256",
          "name": "toAmount",
          "type": "uint256"
        }
      ],
      "name": "Swap",
      "type": "event"
    },
    {
      "anonymous": false,
      "inputs": [
        {
          "indexed": true,
          "internalType": "address",
          "name": "treasury",
          "type": "address"
        }
      ],
      "name": "TreasuryUpdated",
      "type": "event"
    },
    {
      "anonymous": false,
      "inputs": [
        {
          "indexed": false,
          "internalType": "address",
          "name": "account",
          "type": "address"
        }
      ],
      "name": "Unpaused",
      "type": "event"
    },
    {
      "anonymous": false,
      "inputs": [
        {
          "indexed": true,
          "internalType": "uint256",
          "name": "id",
          "type": "uint256"
        },
        {
          "indexed": false,
          "internalType": "uint256",
          "name": "amount",
          "type": "uint256"
        },
        {
          "indexed": true,
          "internalType": "address",
          "name": "to",
          "type": "address"
        },
        {
          "indexed": false,
          "internalType": "bool",
          "name": "burned",
          "type": "bool"
        }
      ],
      "name": "Unsponsored",
      "type": "event"
    },
    {
      "anonymous": false,
      "inputs": [
        {
          "indexed": false,
          "internalType": "address",
          "name": "claimerId",
          "type": "address"
        },
        {
          "indexed": true,
          "internalType": "address",
          "name": "to",
          "type": "address"
        },
        {
          "indexed": false,
          "internalType": "uint256",
          "name": "amount",
          "type": "uint256"
        },
        {
          "indexed": false,
          "internalType": "uint256",
          "name": "burnedShares",
          "type": "uint256"
        },
        {
          "indexed": false,
          "internalType": "uint256",
          "name": "perfFee",
          "type": "uint256"
        },
        {
          "indexed": false,
          "internalType": "uint256",
          "name": "totalUnderlying",
          "type": "uint256"
        },
        {
          "indexed": false,
          "internalType": "uint256",
          "name": "totalShares",
          "type": "uint256"
        }
      ],
      "name": "YieldClaimed",
      "type": "event"
    },
    {
      "inputs": [],
      "name": "DEFAULT_ADMIN_ROLE",
      "outputs": [
        {
          "internalType": "bytes32",
          "name": "",
          "type": "bytes32"
        }
      ],
      "stateMutability": "view",
      "type": "function"
    },
    {
      "inputs": [],
      "name": "KEEPER_ROLE",
      "outputs": [
        {
          "internalType": "bytes32",
          "name": "",
          "type": "bytes32"
        }
      ],
      "stateMutability": "view",
      "type": "function"
    },
    {
      "inputs": [],
      "name": "MAX_DEPOSIT_LOCK_DURATION",
      "outputs": [
        {
          "internalType": "uint64",
          "name": "",
          "type": "uint64"
        }
      ],
      "stateMutability": "view",
      "type": "function"
    },
    {
      "inputs": [],
      "name": "MAX_SPONSOR_LOCK_DURATION",
      "outputs": [
        {
          "internalType": "uint64",
          "name": "",
          "type": "uint64"
        }
      ],
      "stateMutability": "view",
      "type": "function"
    },
    {
      "inputs": [],
      "name": "MIN_SPONSOR_LOCK_DURATION",
      "outputs": [
        {
          "internalType": "uint64",
          "name": "",
          "type": "uint64"
        }
      ],
      "stateMutability": "view",
      "type": "function"
    },
    {
      "inputs": [],
      "name": "SETTINGS_ROLE",
      "outputs": [
        {
          "internalType": "bytes32",
          "name": "",
          "type": "bytes32"
        }
      ],
      "stateMutability": "view",
      "type": "function"
    },
    {
      "inputs": [],
      "name": "SHARES_MULTIPLIER",
      "outputs": [
        {
          "internalType": "uint256",
          "name": "",
          "type": "uint256"
        }
      ],
      "stateMutability": "view",
      "type": "function"
    },
    {
      "inputs": [],
      "name": "SPONSOR_ROLE",
      "outputs": [
        {
          "internalType": "bytes32",
          "name": "",
          "type": "bytes32"
        }
      ],
      "stateMutability": "view",
      "type": "function"
    },
    {
      "inputs": [],
      "name": "accumulatedPerfFee",
      "outputs": [
        {
          "internalType": "uint256",
          "name": "",
          "type": "uint256"
        }
      ],
      "stateMutability": "view",
      "type": "function"
    },
    {
      "inputs": [
        {
          "components": [
            {
              "internalType": "address",
              "name": "token",
              "type": "address"
            },
            {
              "internalType": "address",
              "name": "pool",
              "type": "address"
            },
            {
              "internalType": "int128",
              "name": "tokenI",
              "type": "int128"
            },
            {
              "internalType": "int128",
              "name": "underlyingI",
              "type": "int128"
            }
          ],
          "internalType": "struct CurveSwapper.SwapPoolParam",
          "name": "_param",
          "type": "tuple"
        }
      ],
      "name": "addPool",
      "outputs": [],
      "stateMutability": "nonpayable",
      "type": "function"
    },
    {
      "inputs": [
        {
          "internalType": "address",
          "name": "_to",
          "type": "address"
        }
      ],
      "name": "claimYield",
      "outputs": [],
      "stateMutability": "nonpayable",
      "type": "function"
    },
    {
      "inputs": [
        {
          "internalType": "address",
          "name": "",
          "type": "address"
        }
      ],
      "name": "claimers",
      "outputs": [
        {
          "internalType": "uint256",
          "name": "totalPrincipal",
          "type": "uint256"
        },
        {
          "internalType": "uint256",
          "name": "totalShares",
          "type": "uint256"
        }
      ],
      "stateMutability": "view",
      "type": "function"
    },
    {
      "inputs": [
        {
          "components": [
            {
              "internalType": "address",
              "name": "inputToken",
              "type": "address"
            },
            {
              "internalType": "uint64",
              "name": "lockDuration",
              "type": "uint64"
            },
            {
              "internalType": "uint256",
              "name": "amount",
              "type": "uint256"
            },
            {
              "components": [
                {
                  "internalType": "uint16",
                  "name": "pct",
                  "type": "uint16"
                },
                {
                  "internalType": "address",
                  "name": "beneficiary",
                  "type": "address"
                },
                {
                  "internalType": "bytes",
                  "name": "data",
                  "type": "bytes"
                }
              ],
              "internalType": "struct IVault.ClaimParams[]",
              "name": "claims",
              "type": "tuple[]"
            },
            {
              "internalType": "string",
              "name": "name",
              "type": "string"
            },
            {
              "internalType": "uint256",
              "name": "slippage",
              "type": "uint256"
            }
          ],
          "internalType": "struct IVault.DepositParams",
          "name": "_params",
          "type": "tuple"
        }
      ],
      "name": "deposit",
      "outputs": [
        {
          "internalType": "uint256[]",
          "name": "depositIds",
          "type": "uint256[]"
        }
      ],
      "stateMutability": "nonpayable",
      "type": "function"
    },
    {
      "inputs": [
        {
          "internalType": "uint256",
          "name": "_groupId",
          "type": "uint256"
        },
        {
          "components": [
            {
              "internalType": "address",
              "name": "inputToken",
              "type": "address"
            },
            {
              "internalType": "uint64",
              "name": "lockDuration",
              "type": "uint64"
            },
            {
              "internalType": "uint256",
              "name": "amount",
              "type": "uint256"
            },
            {
              "components": [
                {
                  "internalType": "uint16",
                  "name": "pct",
                  "type": "uint16"
                },
                {
                  "internalType": "address",
                  "name": "beneficiary",
                  "type": "address"
                },
                {
                  "internalType": "bytes",
                  "name": "data",
                  "type": "bytes"
                }
              ],
              "internalType": "struct IVault.ClaimParams[]",
              "name": "claims",
              "type": "tuple[]"
            },
            {
              "internalType": "string",
              "name": "name",
              "type": "string"
            },
            {
              "internalType": "uint256",
              "name": "slippage",
              "type": "uint256"
            }
          ],
          "internalType": "struct IVault.DepositParams",
          "name": "_params",
          "type": "tuple"
        }
      ],
      "name": "depositForGroupId",
      "outputs": [
        {
          "internalType": "uint256[]",
          "name": "depositIds",
          "type": "uint256[]"
        }
      ],
      "stateMutability": "nonpayable",
      "type": "function"
    },
    {
      "inputs": [
        {
          "internalType": "uint256",
          "name": "",
          "type": "uint256"
        }
      ],
      "name": "depositGroupIdOwner",
      "outputs": [
        {
          "internalType": "address",
          "name": "",
          "type": "address"
        }
      ],
      "stateMutability": "view",
      "type": "function"
    },
    {
      "inputs": [
        {
          "internalType": "uint256",
          "name": "",
          "type": "uint256"
        }
      ],
      "name": "deposits",
      "outputs": [
        {
          "internalType": "uint256",
          "name": "amount",
          "type": "uint256"
        },
        {
          "internalType": "address",
          "name": "owner",
          "type": "address"
        },
        {
          "internalType": "address",
          "name": "claimerId",
          "type": "address"
        },
        {
          "internalType": "uint256",
          "name": "lockedUntil",
          "type": "uint256"
        }
      ],
      "stateMutability": "view",
      "type": "function"
    },
    {
      "inputs": [],
      "name": "exitPause",
      "outputs": [],
      "stateMutability": "nonpayable",
      "type": "function"
    },
    {
      "inputs": [],
      "name": "exitPaused",
      "outputs": [
        {
          "internalType": "bool",
          "name": "",
          "type": "bool"
        }
      ],
      "stateMutability": "view",
      "type": "function"
    },
    {
      "inputs": [],
      "name": "exitUnpause",
      "outputs": [],
      "stateMutability": "nonpayable",
      "type": "function"
    },
    {
      "inputs": [
        {
          "internalType": "address",
          "name": "_to",
          "type": "address"
        },
        {
          "internalType": "uint256[]",
          "name": "_ids",
          "type": "uint256[]"
        }
      ],
      "name": "forceWithdraw",
      "outputs": [],
      "stateMutability": "nonpayable",
      "type": "function"
    },
    {
      "inputs": [
        {
          "internalType": "bytes32",
          "name": "role",
          "type": "bytes32"
        }
      ],
      "name": "getRoleAdmin",
      "outputs": [
        {
          "internalType": "bytes32",
          "name": "",
          "type": "bytes32"
        }
      ],
      "stateMutability": "view",
      "type": "function"
    },
    {
      "inputs": [],
      "name": "getUnderlying",
      "outputs": [
        {
          "internalType": "address",
          "name": "",
          "type": "address"
        }
      ],
      "stateMutability": "view",
      "type": "function"
    },
    {
      "inputs": [
        {
          "internalType": "bytes32",
          "name": "role",
          "type": "bytes32"
        },
        {
          "internalType": "address",
          "name": "account",
          "type": "address"
        }
      ],
      "name": "grantRole",
      "outputs": [],
      "stateMutability": "nonpayable",
      "type": "function"
    },
    {
      "inputs": [
        {
          "internalType": "bytes32",
          "name": "role",
          "type": "bytes32"
        },
        {
          "internalType": "address",
          "name": "account",
          "type": "address"
        }
      ],
      "name": "hasRole",
      "outputs": [
        {
          "internalType": "bool",
          "name": "",
          "type": "bool"
        }
      ],
      "stateMutability": "view",
      "type": "function"
    },
    {
      "inputs": [],
      "name": "immediateInvestLimitPct",
      "outputs": [
        {
          "internalType": "uint16",
          "name": "",
          "type": "uint16"
        }
      ],
      "stateMutability": "view",
      "type": "function"
    },
    {
      "inputs": [],
      "name": "investPct",
      "outputs": [
        {
          "internalType": "uint16",
          "name": "",
          "type": "uint16"
        }
      ],
      "stateMutability": "view",
      "type": "function"
    },
    {
      "inputs": [],
      "name": "investState",
      "outputs": [
        {
          "internalType": "uint256",
          "name": "maxInvestableAmount",
          "type": "uint256"
        },
        {
          "internalType": "uint256",
          "name": "alreadyInvested",
          "type": "uint256"
        }
      ],
      "stateMutability": "view",
      "type": "function"
    },
    {
      "inputs": [],
      "name": "lossTolerancePct",
      "outputs": [
        {
          "internalType": "uint16",
          "name": "",
          "type": "uint16"
        }
      ],
      "stateMutability": "view",
      "type": "function"
    },
    {
      "inputs": [],
      "name": "minLockPeriod",
      "outputs": [
        {
          "internalType": "uint64",
          "name": "",
          "type": "uint64"
        }
      ],
      "stateMutability": "view",
      "type": "function"
    },
    {
      "inputs": [
        {
          "internalType": "address",
          "name": "_to",
          "type": "address"
        },
        {
          "internalType": "uint256[]",
          "name": "_ids",
          "type": "uint256[]"
        },
        {
          "internalType": "uint256[]",
          "name": "_amounts",
          "type": "uint256[]"
        }
      ],
      "name": "partialUnsponsor",
      "outputs": [],
      "stateMutability": "nonpayable",
      "type": "function"
    },
    {
      "inputs": [
        {
          "internalType": "address",
          "name": "_to",
          "type": "address"
        },
        {
          "internalType": "uint256[]",
          "name": "_ids",
          "type": "uint256[]"
        },
        {
          "internalType": "uint256[]",
          "name": "_amounts",
          "type": "uint256[]"
        }
      ],
      "name": "partialWithdraw",
      "outputs": [],
      "stateMutability": "nonpayable",
      "type": "function"
    },
    {
      "inputs": [],
      "name": "pause",
      "outputs": [],
      "stateMutability": "nonpayable",
      "type": "function"
    },
    {
      "inputs": [],
      "name": "paused",
      "outputs": [
        {
          "internalType": "bool",
          "name": "",
          "type": "bool"
        }
      ],
      "stateMutability": "view",
      "type": "function"
    },
    {
      "inputs": [],
      "name": "perfFeePct",
      "outputs": [
        {
          "internalType": "uint16",
          "name": "",
          "type": "uint16"
        }
      ],
      "stateMutability": "view",
      "type": "function"
    },
    {
      "inputs": [
        {
          "internalType": "address",
          "name": "claimerId",
          "type": "address"
        }
      ],
      "name": "principalOf",
      "outputs": [
        {
          "internalType": "uint256",
          "name": "",
          "type": "uint256"
        }
      ],
      "stateMutability": "view",
      "type": "function"
    },
    {
      "inputs": [
        {
          "internalType": "address",
          "name": "_inputToken",
          "type": "address"
        }
      ],
      "name": "removePool",
      "outputs": [],
      "stateMutability": "nonpayable",
      "type": "function"
    },
    {
      "inputs": [
        {
          "internalType": "bytes32",
          "name": "role",
          "type": "bytes32"
        },
        {
          "internalType": "address",
          "name": "account",
          "type": "address"
        }
      ],
      "name": "renounceRole",
      "outputs": [],
      "stateMutability": "nonpayable",
      "type": "function"
    },
    {
      "inputs": [
        {
          "internalType": "bytes32",
          "name": "role",
          "type": "bytes32"
        },
        {
          "internalType": "address",
          "name": "account",
          "type": "address"
        }
      ],
      "name": "revokeRole",
      "outputs": [],
      "stateMutability": "nonpayable",
      "type": "function"
    },
    {
      "inputs": [
        {
          "internalType": "uint16",
          "name": "_pct",
          "type": "uint16"
        }
      ],
      "name": "setImmediateInvestLimitPct",
      "outputs": [],
      "stateMutability": "nonpayable",
      "type": "function"
    },
    {
      "inputs": [
        {
          "internalType": "uint16",
          "name": "_investPct",
          "type": "uint16"
        }
      ],
      "name": "setInvestPct",
      "outputs": [],
      "stateMutability": "nonpayable",
      "type": "function"
    },
    {
      "inputs": [
        {
          "internalType": "uint16",
          "name": "pct",
          "type": "uint16"
        }
      ],
      "name": "setLossTolerancePct",
      "outputs": [],
      "stateMutability": "nonpayable",
      "type": "function"
    },
    {
      "inputs": [
        {
          "internalType": "uint16",
          "name": "_perfFeePct",
          "type": "uint16"
        }
      ],
      "name": "setPerfFeePct",
      "outputs": [],
      "stateMutability": "nonpayable",
      "type": "function"
    },
    {
      "inputs": [
        {
          "internalType": "address",
          "name": "_strategy",
          "type": "address"
        }
      ],
      "name": "setStrategy",
      "outputs": [],
      "stateMutability": "nonpayable",
      "type": "function"
    },
    {
      "inputs": [
        {
          "internalType": "address",
          "name": "_treasury",
          "type": "address"
        }
      ],
      "name": "setTreasury",
      "outputs": [],
      "stateMutability": "nonpayable",
      "type": "function"
    },
    {
      "inputs": [
        {
          "internalType": "address",
          "name": "claimerId",
          "type": "address"
        }
      ],
      "name": "sharesOf",
      "outputs": [
        {
          "internalType": "uint256",
          "name": "",
          "type": "uint256"
        }
      ],
      "stateMutability": "view",
      "type": "function"
    },
    {
      "inputs": [
        {
          "internalType": "address",
          "name": "_inputToken",
          "type": "address"
        },
        {
          "internalType": "uint256",
          "name": "_amount",
          "type": "uint256"
        },
        {
          "internalType": "uint256",
          "name": "_lockDuration",
          "type": "uint256"
        },
        {
          "internalType": "uint256",
          "name": "_slippage",
          "type": "uint256"
        }
      ],
      "name": "sponsor",
      "outputs": [],
      "stateMutability": "nonpayable",
      "type": "function"
    },
    {
      "inputs": [],
      "name": "strategy",
      "outputs": [
        {
          "internalType": "contract IStrategy",
          "name": "",
          "type": "address"
        }
      ],
      "stateMutability": "view",
      "type": "function"
    },
    {
      "inputs": [
        {
          "internalType": "bytes4",
          "name": "interfaceId",
          "type": "bytes4"
        }
      ],
      "name": "supportsInterface",
      "outputs": [
        {
          "internalType": "bool",
          "name": "",
          "type": "bool"
        }
      ],
      "stateMutability": "view",
      "type": "function"
    },
    {
      "inputs": [
        {
          "internalType": "address",
          "name": "",
          "type": "address"
        }
      ],
      "name": "swappers",
      "outputs": [
        {
          "internalType": "contract ICurve",
          "name": "pool",
          "type": "address"
        },
        {
          "internalType": "uint8",
          "name": "tokenDecimals",
          "type": "uint8"
        },
        {
          "internalType": "uint8",
          "name": "underlyingDecimals",
          "type": "uint8"
        },
        {
          "internalType": "int128",
          "name": "tokenI",
          "type": "int128"
        },
        {
          "internalType": "int128",
          "name": "underlyingI",
          "type": "int128"
        }
      ],
      "stateMutability": "view",
      "type": "function"
    },
    {
      "inputs": [],
      "name": "totalPrincipal",
      "outputs": [
        {
          "internalType": "uint256",
          "name": "",
          "type": "uint256"
        }
      ],
      "stateMutability": "view",
      "type": "function"
    },
    {
      "inputs": [],
      "name": "totalShares",
      "outputs": [
        {
          "internalType": "uint256",
          "name": "",
          "type": "uint256"
        }
      ],
      "stateMutability": "view",
      "type": "function"
    },
    {
      "inputs": [],
      "name": "totalSponsored",
      "outputs": [
        {
          "internalType": "uint256",
          "name": "",
          "type": "uint256"
        }
      ],
      "stateMutability": "view",
      "type": "function"
    },
    {
      "inputs": [],
      "name": "totalUnderlying",
      "outputs": [
        {
          "internalType": "uint256",
          "name": "",
          "type": "uint256"
        }
      ],
      "stateMutability": "view",
      "type": "function"
    },
    {
      "inputs": [],
      "name": "totalUnderlyingMinusSponsored",
      "outputs": [
        {
          "internalType": "uint256",
          "name": "",
          "type": "uint256"
        }
      ],
      "stateMutability": "view",
      "type": "function"
    },
    {
      "inputs": [
        {
          "internalType": "address",
          "name": "_newAdmin",
          "type": "address"
        }
      ],
      "name": "transferAdminRights",
      "outputs": [],
      "stateMutability": "nonpayable",
      "type": "function"
    },
    {
      "inputs": [],
      "name": "treasury",
      "outputs": [
        {
          "internalType": "address",
          "name": "",
          "type": "address"
        }
      ],
      "stateMutability": "view",
      "type": "function"
    },
    {
      "inputs": [],
      "name": "underlying",
      "outputs": [
        {
          "internalType": "contract IERC20Metadata",
          "name": "",
          "type": "address"
        }
      ],
      "stateMutability": "view",
      "type": "function"
    },
    {
      "inputs": [],
      "name": "unpause",
      "outputs": [],
      "stateMutability": "nonpayable",
      "type": "function"
    },
    {
      "inputs": [
        {
          "internalType": "address",
          "name": "_to",
          "type": "address"
        },
        {
          "internalType": "uint256[]",
          "name": "_ids",
          "type": "uint256[]"
        }
      ],
      "name": "unsponsor",
      "outputs": [],
      "stateMutability": "nonpayable",
      "type": "function"
    },
    {
      "inputs": [],
      "name": "updateInvested",
      "outputs": [],
      "stateMutability": "nonpayable",
      "type": "function"
    },
    {
      "inputs": [
        {
          "internalType": "address",
          "name": "_to",
          "type": "address"
        },
        {
          "internalType": "uint256[]",
          "name": "_ids",
          "type": "uint256[]"
        }
      ],
      "name": "withdraw",
      "outputs": [],
      "stateMutability": "nonpayable",
      "type": "function"
    },
    {
      "inputs": [],
      "name": "withdrawPerformanceFee",
      "outputs": [],
      "stateMutability": "nonpayable",
      "type": "function"
    },
    {
      "inputs": [
        {
          "internalType": "address",
          "name": "_to",
          "type": "address"
        }
      ],
      "name": "yieldFor",
      "outputs": [
        {
          "internalType": "uint256",
          "name": "claimableYield",
          "type": "uint256"
        },
        {
          "internalType": "uint256",
          "name": "shares",
          "type": "uint256"
        },
        {
          "internalType": "uint256",
          "name": "perfFee",
          "type": "uint256"
        }
      ],
      "stateMutability": "view",
      "type": "function"
    }
  ],
  "transactionHash": "0xe1966f44c9bad8fe6aaf9a046db4581e7551513fa04650baee9b57c83956c490",
  "args": [
    "0xb6C0754530B89C80A2eb5068589ea0A8c854D636",
    1,
    9000,
    "0xCfF577D4072BF126Cdd73CDC7353637A1Fa5f4CE",
    "0xCfF577D4072BF126Cdd73CDC7353637A1Fa5f4CE",
    100,
    200,
    [
      {
        "token": "0x173952f281fFe8e2d190C9BB5C30c1E8A21C6bC1",
        "pool": "0x7357681A94B7cBc94c6C6877DD6101FA36dF4D20",
        "tokenI": 1,
        "underlyingI": 0
      },
      {
        "token": "0x9d5fCB5b31E8Eba24D8A47ed28c94c93e72d98B1",
        "pool": "0x7357681A94B7cBc94c6C6877DD6101FA36dF4D20",
        "tokenI": 2,
        "underlyingI": 0
      }
    ],
    0
  ],
  "numDeployments": 2,
  "solcInputHash": "e0752d7526ed9b7295ab47e7b3ee8c8b",
  "bytecode": "0x60e06040523480156200001157600080fd5b5060405162006ae638038062006ae6833981016040819052620000349162000e74565b60016002556003805461ffff191690556200005f61ffff8216620003c0602090811b6200276117901c565b6200007d576040516325cd038560e01b815260040160405180910390fd5b620000978761ffff16620003c060201b620027611760201c565b620000b55760405163f799c76d60e01b815260040160405180910390fd5b620000cf8461ffff16620003c060201b620027611760201c565b620000ed5760405163d25b1e4b60e01b815260040160405180910390fd5b620001078361ffff16620003c060201b620027611760201c565b6200012557604051631d05623160e01b815260040160405180910390fd5b6001600160a01b0389166200014d57604051631fc8ba7960e31b815260040160405180910390fd5b6001600160a01b03861662000175576040516335af31e960e11b815260040160405180910390fd5b6001600160a01b0385166200019d576040516330c9889360e01b815260040160405180910390fd5b6001600160401b0388161580620001bf575062dd7c006001600160401b038916115b15620001de57604051636df7cef760e11b815260040160405180910390fd5b620001eb600086620003c8565b620002177ffc8737ab85eb45125971625a9ebdb75cc78e01d5c1fa80c4c6e5203f47bc4fab86620003c8565b620002437ffaf9b26485088dee58863e57c46603d6cdcbadc7475ac6d8910fab0ecf60309586620003c8565b6200026f7f1597bc5e34ff090612f53164e4e642d2ab4fc78bffe19ed1b602a0d12559561a86620003c8565b6003805463ffff000019166201000061ffff8a811691909102919091179091556001600160a01b038a81166080819052600d80546001600160401b038d1660a052928a166001600160b01b031990931692909217600160a01b8885160217909155600f805461ffff199081168785161790915560068054909116928416929092179091556040805163313ce56760e01b8152905163313ce567916004808201926020929091908290030181865afa1580156200032f573d6000803e3d6000fd5b505050506040513d601f19601f8201168201806040525081019062000355919062000f5d565b6200036290600a62001095565b6200036f90600a620010a6565b60c0526200037d8262000437565b6040516001600160a01b038716907f7dae230f18360d76a040c81f050aa14eb9d6dc7901b20fc5d855e2a20fe814d190600090a2505050505050505050620011e0565b612710101590565b620003d482826200048a565b620004335760008281526001602081815260408084206001600160a01b0386168086529252808420805460ff19169093179092559051339285917f2f8788117e7eff1d82e926ec794901d17c78024a50270940304540a733656f0d9190a45b5050565b805160005b818110156200048557620004728382815181106200045e576200045e620010c8565b6020026020010151620004b760201b60201c565b6200047d81620010de565b90506200043c565b505050565b60008281526001602090815260408083206001600160a01b038516845290915290205460ff165b92915050565b80516001600160a01b039081166000908152602081905260409020541615620005275760405162461bcd60e51b815260206004820152601d60248201527f746f6b656e20616c7265616479206861732061207377617020706f6f6c00000060448201526064015b60405180910390fd5b6080516001600160a01b031681602001516001600160a01b031663c661065783606001516001600160801b03166040518263ffffffff1660e01b81526004016200057391815260200190565b602060405180830381865afa15801562000591573d6000803e3d6000fd5b505050506040513d601f19601f82011682018060405250810190620005b79190620010fc565b6001600160a01b031614620006245760405162461bcd60e51b815260206004820152602c60248201527f5f756e6465726c79696e674920646f6573206e6f74206d6174636820756e646560448201526b39363cb4b733903a37b5b2b760a11b60648201526084016200051e565b600081600001516001600160a01b031663313ce5676040518163ffffffff1660e01b8152600401602060405180830381865afa15801562000669573d6000803e3d6000fd5b505050506040513d601f19601f820116820180604052508101906200068f919062000f5d565b60ff1690506000620006a060805190565b6001600160a01b031663313ce5676040518163ffffffff1660e01b8152600401602060405180830381865afa158015620006de573d6000803e3d6000fd5b505050506040513d601f19601f8201168201806040525081019062000704919062000f5d565b6040805160a0810182526020808701516001600160a01b03908116835260ff8781168385019081529581168486018181528a870151600f90810b60608089019182528d015190910b608088019081528c5186166000908152968790529790952095518654985191518416600160a81b0260ff60a81b1992909416600160a01b026001600160a81b031990991694169390931796909617919091161782555191516001600160801b03908116600160801b029216919091176001909101559050620007dc620007d160805190565b602085015162000861565b82516020840151620007ef919062000861565b82602001516001600160a01b031683600001516001600160a01b03167f1576b5fcfa863788d9ef6558cab7aa68d4b48c44eb7bacaf1a8ac6d6b9d26f948560400151866060015160405162000854929190600f92830b8152910b602082015260400190565b60405180910390a3505050565b604051636eb1769f60e11b81523060048201526001600160a01b0382811660248301526000919084169063dd62ed3e90604401602060405180830381865afa158015620008b2573d6000803e3d6000fd5b505050506040513d601f19601f82011682018060405250810190620008d891906200111c565b90508062000485576200048582600019856001600160a01b03166200090760201b62002769179092919060201c565b801580620009855750604051636eb1769f60e11b81523060048201526001600160a01b03838116602483015284169063dd62ed3e90604401602060405180830381865afa1580156200095d573d6000803e3d6000fd5b505050506040513d601f19601f820116820180604052508101906200098391906200111c565b155b620009f95760405162461bcd60e51b815260206004820152603660248201527f5361666545524332303a20617070726f76652066726f6d206e6f6e2d7a65726f60448201527f20746f206e6f6e2d7a65726f20616c6c6f77616e63650000000000000000000060648201526084016200051e565b604080516001600160a01b038416602482015260448082018490528251808303909101815260649091019091526020810180516001600160e01b0390811663095ea7b360e01b179091526200048591859162000a5116565b600062000aad826040518060400160405280602081526020017f5361666545524332303a206c6f772d6c6576656c2063616c6c206661696c6564815250856001600160a01b031662000b2f60201b620028e6179092919060201c565b80519091501562000485578080602001905181019062000ace919062001136565b620004855760405162461bcd60e51b815260206004820152602a60248201527f5361666545524332303a204552433230206f7065726174696f6e20646964206e6044820152691bdd081cdd58d8d9595960b21b60648201526084016200051e565b606062000b40848460008562000b4a565b90505b9392505050565b60608247101562000bad5760405162461bcd60e51b815260206004820152602660248201527f416464726573733a20696e73756666696369656e742062616c616e636520666f6044820152651c8818d85b1b60d21b60648201526084016200051e565b6001600160a01b0385163b62000c065760405162461bcd60e51b815260206004820152601d60248201527f416464726573733a2063616c6c20746f206e6f6e2d636f6e747261637400000060448201526064016200051e565b600080866001600160a01b0316858760405162000c2491906200118d565b60006040518083038185875af1925050503d806000811462000c63576040519150601f19603f3d011682016040523d82523d6000602084013e62000c68565b606091505b50909250905062000c7b82828662000c86565b979650505050505050565b6060831562000c9757508162000b43565b82511562000ca85782518084602001fd5b8160405162461bcd60e51b81526004016200051e9190620011ab565b6001600160a01b038116811462000cda57600080fd5b50565b805161ffff8116811462000cf057600080fd5b919050565b805162000cf08162000cc4565b634e487b7160e01b600052604160045260246000fd5b604051608081016001600160401b038111828210171562000d3d5762000d3d62000d02565b60405290565b604051601f8201601f191681016001600160401b038111828210171562000d6e5762000d6e62000d02565b604052919050565b8051600f81900b811462000cf057600080fd5b600082601f83011262000d9b57600080fd5b815160206001600160401b0382111562000db95762000db962000d02565b62000dc9818360051b0162000d43565b82815260079290921b8401810191818101908684111562000de957600080fd5b8286015b8481101562000e69576080818903121562000e085760008081fd5b62000e1262000d18565b815162000e1f8162000cc4565b81528185015162000e308162000cc4565b81860152604062000e4383820162000d76565b90820152606062000e5683820162000d76565b9082015283529183019160800162000ded565b509695505050505050565b60008060008060008060008060006101208a8c03121562000e9457600080fd5b895162000ea18162000cc4565b60208b01519099506001600160401b03808216821462000ec057600080fd5b81995062000ed160408d0162000cdd565b985060608c0151915062000ee58262000cc4565b81975062000ef660808d0162000cf5565b965062000f0660a08d0162000cdd565b955062000f1660c08d0162000cdd565b945060e08c015191508082111562000f2d57600080fd5b5062000f3c8c828d0162000d89565b92505062000f4e6101008b0162000cdd565b90509295985092959850929598565b60006020828403121562000f7057600080fd5b815160ff8116811462000b4357600080fd5b634e487b7160e01b600052601160045260246000fd5b600181815b8085111562000fd957816000190482111562000fbd5762000fbd62000f82565b8085161562000fcb57918102915b93841c939080029062000f9d565b509250929050565b60008262000ff257506001620004b1565b816200100157506000620004b1565b81600181146200101a5760028114620010255762001045565b6001915050620004b1565b60ff84111562001039576200103962000f82565b50506001821b620004b1565b5060208310610133831016604e8410600b84101617156200106a575081810a620004b1565b62001076838362000f98565b80600019048211156200108d576200108d62000f82565b029392505050565b600062000b4360ff84168362000fe1565b6000816000190483118215151615620010c357620010c362000f82565b500290565b634e487b7160e01b600052603260045260246000fd5b6000600019821415620010f557620010f562000f82565b5060010190565b6000602082840312156200110f57600080fd5b815162000b438162000cc4565b6000602082840312156200112f57600080fd5b5051919050565b6000602082840312156200114957600080fd5b8151801515811462000b4357600080fd5b60005b83811015620011775781810151838201526020016200115d565b8381111562001187576000848401525b50505050565b60008251620011a18184602087016200115a565b9190910192915050565b6020815260008251806020840152620011cc8160408501602087016200115a565b601f01601f19169190910160400192915050565b60805160a05160c05161585f62001287600039600081816112530152818161135901526146380152600081816105ed01526135c80152600081816105c60152818161074401528181610efa015281816113a901528181611b58015281816120a40152818161213b01528181612b6601528181612e8801528181612fe301528181613166015281816133e3015281816134bf015281816139fa0152614896015261585f6000f3fe608060405234801561001057600080fd5b50600436106103c55760003560e01c80638cad7fbe116101ff578063c70920bc1161011a578063e4020fdf116100ad578063f5eb42dc1161007c578063f5eb42dc146109ab578063f6289887146109d7578063f78797c0146109fe578063fd6e921714610a2757600080fd5b8063e4020fdf1461096e578063e751c14114610981578063eb0ebfbc1461098f578063f0f442601461099857600080fd5b8063d547741f116100e9578063d547741f1461090c578063d9db2b771461091f578063da62fba914610934578063df6f9ba71461095b57600080fd5b8063c70920bc146108cb578063cd00dd41146108d3578063cd0d9ba8146108e6578063cda2695a146108f957600080fd5b8063abaa9d7011610192578063bba97d3311610161578063bba97d331461086e578063bd2e3ecd14610628578063c0ddb6921461089c578063c2d79444146108a457600080fd5b8063abaa9d70146107b9578063b02c43d0146107c9578063b5106add1461083b578063b59a40cb1461084e57600080fd5b8063a164c25d116101ce578063a164c25d1461077b578063a1ac20eb14610785578063a217fddf14610798578063a8c62e76146107a057600080fd5b80638cad7fbe1461067357806391d14854146107095780639816f47314610742578063999927df1461076857600080fd5b80634e813ac4116102ef5780636e7007e6116102825780637e2cba6f116102515780637e2cba6f146106325780637e4b8da0146106455780638293744b146106585780638456cb591461066b57600080fd5b80636e7007e6146105a05780636f307dc3146105c157806373ae54b5146105e857806376490b561461062857600080fd5b80635cb0d406116102be5780635cb0d4061461053c5780635e8486551461054457806361d027b31461054c57806361e20a1c1461057757600080fd5b80634e813ac4146104f95780634fc78d6814610516578063563233f61461051e5780635c975abb1461053157600080fd5b806336568abe116103675780633f383236116103365780633f383236146104c25780633f4ba83a146104d557806348b08ee8146104dd5780634b1533b2146104f057600080fd5b806336568abe1461048b5780633a98ef391461049e5780633b7d0946146104a75780633ba52fc6146104ba57600080fd5b8063248a9ca3116103a3578063248a9ca3146104185780632f2ff15d1461043c57806333a100ca14610451578063364bc15a1461046457600080fd5b806301ffc9a7146103ca5780631325d5f1146103f257806319d3ee3d1461040f575b600080fd5b6103dd6103d8366004614e33565b610a3b565b60405190151581526020015b60405180910390f35b610401670de0b6b3a764000081565b6040519081526020016103e9565b610401600e5481565b610401610426366004614e5d565b6000908152600160208190526040909120015490565b61044f61044a366004614e8b565b610ab3565b005b61044f61045f366004614ebb565b610ade565b6104017ffc8737ab85eb45125971625a9ebdb75cc78e01d5c1fa80c4c6e5203f47bc4fab81565b61044f610499366004614e8b565b610d33565b61040160055481565b61044f6104b5366004614ebb565b610dc4565b61044f610e1f565b61044f6104d0366004614f5f565b610f23565b61044f610f7b565b61044f6104eb366004614ff2565b610fd4565b610401600c5481565b6105016110b2565b604080519283526020830191909152016103e9565b61044f611174565b61044f61052c366004614ff2565b61147e565b60035460ff166103dd565b61044f61157e565b61044f6115d5565b600d5461055f906001600160a01b031681565b6040516001600160a01b0390911681526020016103e9565b610401610585366004614ebb565b6001600160a01b03166000908152600b602052604090205490565b600f546105ae9061ffff1681565b60405161ffff90911681526020016103e9565b61055f7f000000000000000000000000000000000000000000000000000000000000000081565b61060f7f000000000000000000000000000000000000000000000000000000000000000081565b60405167ffffffffffffffff90911681526020016103e9565b61060f62dd7c0081565b61044f610640366004614ff2565b61162c565b61044f610653366004615059565b6116ff565b61044f6106663660046150dc565b61179d565b61044f61187c565b6106ca610681366004614ebb565b600060208190529081526040902080546001909101546001600160a01b0382169160ff600160a01b8204811692600160a81b9092041690600f81810b91600160801b9004900b85565b604080516001600160a01b03909616865260ff94851660208701529390921692840192909252600f91820b6060840152900b608082015260a0016103e9565b6103dd610717366004614e8b565b60009182526001602090815260408084206001600160a01b0393909316845291905290205460ff1690565b7f000000000000000000000000000000000000000000000000000000000000000061055f565b61044f610776366004614ebb565b6118d3565b61060f6212750081565b61044f610793366004614ff2565b611b8d565b610401600081565b60065461055f906201000090046001600160a01b031681565b600354610100900460ff166103dd565b61080b6107d7366004614e5d565b600960205260009081526040902080546001820154600283015460039093015491926001600160a01b039182169291169084565b6040516103e994939291909384526001600160a01b03928316602085015291166040830152606082015260800190565b61044f610849366004614ebb565b611c73565b61086161085c366004615149565b611e57565b6040516103e99190615186565b61088161087c366004614ebb565b611efc565b604080519384526020840192909252908201526060016103e9565b610401611fbb565b6104017f1597bc5e34ff090612f53164e4e642d2ab4fc78bffe19ed1b602a0d12559561a81565b610401611ffe565b61044f6108e1366004615059565b6121ae565b6108616108f43660046151ca565b612240565b61044f610907366004615211565b6122fa565b61044f61091a366004614e8b565b612540565b600d546105ae90600160a01b900461ffff1681565b610501610942366004614ebb565b600b602052600090815260409020805460019091015482565b61044f6109693660046150dc565b612566565b61044f61097c3660046150dc565b6125f8565b6006546105ae9061ffff1681565b61040160045481565b61044f6109a6366004614ebb565b612688565b6104016109b9366004614ebb565b6001600160a01b03166000908152600b602052604090206001015490565b6104017ffaf9b26485088dee58863e57c46603d6cdcbadc7475ac6d8910fab0ecf60309581565b61055f610a0c366004614e5d565b6008602052600090815260409020546001600160a01b031681565b6003546105ae9062010000900461ffff1681565b60006001600160e01b031982167f8d9d701e000000000000000000000000000000000000000000000000000000001480610a9e57506001600160e01b031982167f0fae047800000000000000000000000000000000000000000000000000000000145b80610aad5750610aad826128ff565b92915050565b60008281526001602081905260409091200154610acf81612966565b610ad98383612970565b505050565b3360009081527f473683a5a3e156e4e3a6c3a7a6d9e3d4a58f9392a3bba04b84ad6221b3f7f356602052604090205460ff16610b2d57604051631e15456f60e11b815260040160405180910390fd5b6001600160a01b038116610b5457604051634f08b3f360e11b815260040160405180910390fd5b306001600160a01b0316816001600160a01b031663fbfa77cf6040518163ffffffff1660e01b8152600401602060405180830381865afa158015610b9c573d6000803e3d6000fd5b505050506040513d601f19601f82011682018060405250810190610bc0919061524c565b6001600160a01b031614610c00576040517f0251bab500000000000000000000000000000000000000000000000000000000815260040160405180910390fd5b6006546201000090046001600160a01b031615801590610c925750600660029054906101000a90046001600160a01b03166001600160a01b0316635be9b2d36040518163ffffffff1660e01b8152600401602060405180830381865afa158015610c6e573d6000803e3d6000fd5b505050506040513d601f19601f82011682018060405250810190610c929190615269565b15610cc9576040517fd28a9fdb00000000000000000000000000000000000000000000000000000000815260040160405180910390fd5b600680547fffffffffffffffffffff0000000000000000000000000000000000000000ffff16620100006001600160a01b038416908102919091179091556040517f4da9c22c924692646a21cf1f423781ae3285198dc22e8a6912835d3272b90b3c90600090a250565b6001600160a01b0381163314610db65760405162461bcd60e51b815260206004820152602f60248201527f416363657373436f6e74726f6c3a2063616e206f6e6c792072656e6f756e636560448201527f20726f6c657320666f722073656c66000000000000000000000000000000000060648201526084015b60405180910390fd5b610dc082826129f7565b5050565b3360009081527fa6eef7e35abe7026729641147f7915573c7e97b47efa546f5f6e3230263bcb49602052604090205460ff16610e1357604051631bacfc6960e01b815260040160405180910390fd5b610e1c81612a7a565b50565b3360009081527f10c15aae13326e9b33c92ffbb94efb7492c500f0cca324caca9bd1aca194ed18602052604090205460ff16610e6e57604051637660f80560e11b815260040160405180910390fd5b600e5480610ea8576040517f0a33934000000000000000000000000000000000000000000000000000000000815260040160405180910390fd5b6000600e55610eb681612b4e565b6040518181527fb7eeacba6b133788365610e83d3f130d07b6ef6e78877961f25b3f61fcba07529060200160405180910390a1600d54610e1c906001600160a01b037f00000000000000000000000000000000000000000000000000000000000000008116911683612d82565b3360009081527fa6eef7e35abe7026729641147f7915573c7e97b47efa546f5f6e3230263bcb49602052604090205460ff16610f7257604051631bacfc6960e01b815260040160405180910390fd5b610e1c81612dcb565b3360009081527fa6eef7e35abe7026729641147f7915573c7e97b47efa546f5f6e3230263bcb49602052604090205460ff16610fca57604051631bacfc6960e01b815260040160405180910390fd5b610fd2613215565b565b3360009081527f473683a5a3e156e4e3a6c3a7a6d9e3d4a58f9392a3bba04b84ad6221b3f7f356602052604090205460ff1661102357604051631e15456f60e11b815260040160405180910390fd5b61ffff81166127101015611063576040517f25cd038500000000000000000000000000000000000000000000000000000000815260040160405180910390fd5b60405161ffff821681527fd7adeddbad454575cc686aee138c6f258b6177a977b4e7be7086ebb25de0e9a39060200160405180910390a16006805461ffff191661ffff92909216919091179055565b60065460009081906201000090046001600160a01b03166110d65750600091829150565b6003546110f59062010000900461ffff166110ef611ffe565b90613267565b9150600660029054906101000a90046001600160a01b03166001600160a01b0316634ad0b6846040518163ffffffff1660e01b8152600401602060405180830381865afa15801561114a573d6000803e3d6000fd5b505050506040513d601f19601f8201168201806040525081019061116e919061528b565b90509091565b3360009081527f10c15aae13326e9b33c92ffbb94efb7492c500f0cca324caca9bd1aca194ed18602052604090205460ff166111c357604051637660f80560e11b815260040160405180910390fd5b6006546201000090046001600160a01b03166111f257604051634f08b3f360e11b815260040160405180910390fd5b6000806111fd6110b2565b915091508082141561123b576040517ff096593000000000000000000000000000000000000000000000000000000000815260040160405180910390fd5b8181111561134957600061124f83836152ba565b90507f000000000000000000000000000000000000000000000000000000000000000081101561129257604051630e33bdb760e11b815260040160405180910390fd5b6006546040516319d1885d60e31b8152600481018390526000916201000090046001600160a01b03169063ce8c42e8906024016020604051808303816000875af11580156112e4573d6000803e3d6000fd5b505050506040513d601f19601f82011682018060405250810190611308919061528b565b90507ff7e72e2f53a982a67fc999c00edfd87a94bdf99e5031c74851276cfd65b0bd298160405161133b91815260200190565b60405180910390a150505050565b600061135582846152ba565b90507f000000000000000000000000000000000000000000000000000000000000000081101561139857604051630e33bdb760e11b815260040160405180910390fd5b6006546113d8906001600160a01b037f00000000000000000000000000000000000000000000000000000000000000008116916201000090041683612d82565b600660029054906101000a90046001600160a01b03166001600160a01b031663e8b5e51f6040518163ffffffff1660e01b8152600401600060405180830381600087803b15801561142857600080fd5b505af115801561143c573d6000803e3d6000fd5b505050507fac9f7997c30b6a3cc9c74953898b5de154359339c7ec0d6d70ceb98e55db1a4b8160405161147191815260200190565b60405180910390a1505050565b3360009081527f473683a5a3e156e4e3a6c3a7a6d9e3d4a58f9392a3bba04b84ad6221b3f7f356602052604090205460ff166114cd57604051631e15456f60e11b815260040160405180910390fd5b61ffff8116612710101561150d576040517fd25b1e4b00000000000000000000000000000000000000000000000000000000815260040160405180910390fd5b600d80547fffffffffffffffffffff0000ffffffffffffffffffffffffffffffffffffffff16600160a01b61ffff8416908102919091179091556040519081527f16de0efbdf16c568a60b65978ed774bba4e0c179de55ab8f639527e41fd0c861906020015b60405180910390a150565b3360009081527fa6eef7e35abe7026729641147f7915573c7e97b47efa546f5f6e3230263bcb49602052604090205460ff166115cd57604051631bacfc6960e01b815260040160405180910390fd5b610fd2613284565b3360009081527fa6eef7e35abe7026729641147f7915573c7e97b47efa546f5f6e3230263bcb49602052604090205460ff1661162457604051631bacfc6960e01b815260040160405180910390fd5b610fd26132c3565b3360009081527f473683a5a3e156e4e3a6c3a7a6d9e3d4a58f9392a3bba04b84ad6221b3f7f356602052604090205460ff1661167b57604051631e15456f60e11b815260040160405180910390fd5b61ffff811661271010156116bb576040517f1d05623100000000000000000000000000000000000000000000000000000000815260040160405180910390fd5b600f805461ffff191661ffff83169081179091556040519081527f5b9aa28fc994f782b33ebebd9947795b5bc59a54203466433eac5f8d9e81940090602001611573565b6002805414156117515760405162461bcd60e51b815260206004820152601f60248201527f5265656e7472616e637947756172643a207265656e7472616e742063616c6c006044820152606401610dad565b6002805561175d6132fd565b6001600160a01b0385166117845760405163f95106ab60e01b815260040160405180910390fd5b6117918585858585613355565b50506001600255505050565b6002805414156117ef5760405162461bcd60e51b815260206004820152601f60248201527f5265656e7472616e637947756172643a207265656e7472616e742063616c6c006044820152606401610dad565b600280556117fb6132fd565b6001600160a01b0383166118225760405163f95106ab60e01b815260040160405180910390fd5b61182a611fbb565b600c541115611865576040517f0bdd660c00000000000000000000000000000000000000000000000000000000815260040160405180910390fd5b6118728383836000613415565b5050600160025550565b3360009081527fa6eef7e35abe7026729641147f7915573c7e97b47efa546f5f6e3230263bcb49602052604090205460ff166118cb57604051631bacfc6960e01b815260040160405180910390fd5b610fd26134f0565b6002805414156119255760405162461bcd60e51b815260206004820152601f60248201527f5265656e7472616e637947756172643a207265656e7472616e742063616c6c006044820152606401610dad565b600280556119316132fd565b6001600160a01b0381166119585760405163f95106ab60e01b815260040160405180910390fd5b600080600061196633611efc565b92509250925082600014156119a7576040517f58367fe100000000000000000000000000000000000000000000000000000000815260040160405180910390fd5b60006119b1611fbb565b90506000600554905082600e60008282546119cc91906152d1565b9091555050336000908152600b6020526040812060010180548692906119f39084906152ba565b925050819055508360056000828254611a0c91906152ba565b90915550506040805133815260208101879052908101859052606081018490526080810183905260a081018290526001600160a01b038716907f4344accc2a634cf29195bba6fa3d939e3415ecd1ca5c57b322bcf81f920979c89060c00160405180910390a26006546201000090046001600160a01b031615611b42576006546040517fa4ab9fbf0000000000000000000000000000000000000000000000000000000081526001600160a01b03888116600483015260248201889052600092620100009004169063a4ab9fbf906044016020604051808303816000875af1158015611afc573d6000803e3d6000fd5b505050506040513d601f19601f82011682018060405250810190611b20919061528b565b9050858110611b3457505050505050611b85565b611b3e81876152ba565b9550505b611b4b85612b4e565b611b7f6001600160a01b037f0000000000000000000000000000000000000000000000000000000000000000168787612d82565b50505050505b506001600255565b3360009081527f473683a5a3e156e4e3a6c3a7a6d9e3d4a58f9392a3bba04b84ad6221b3f7f356602052604090205460ff16611bdc57604051631e15456f60e11b815260040160405180910390fd5b61ffff81166127101015611c1c576040517ff799c76d00000000000000000000000000000000000000000000000000000000815260040160405180910390fd5b60405161ffff821681527f40775ca73a6e168d23747bc0200694cf7c99ad2db624d04c095cb59899011a569060200160405180910390a16003805461ffff909216620100000263ffff000019909216919091179055565b3360009081527fa6eef7e35abe7026729641147f7915573c7e97b47efa546f5f6e3230263bcb49602052604090205460ff16611cc257604051631bacfc6960e01b815260040160405180910390fd5b6001600160a01b038116611d02576040517f30c9889300000000000000000000000000000000000000000000000000000000815260040160405180910390fd5b6001600160a01b038116331415611d45576040517f25499f7e00000000000000000000000000000000000000000000000000000000815260040160405180910390fd5b611d50600082612970565b611d7a7ffc8737ab85eb45125971625a9ebdb75cc78e01d5c1fa80c4c6e5203f47bc4fab82612970565b611da47ffaf9b26485088dee58863e57c46603d6cdcbadc7475ac6d8910fab0ecf60309582612970565b611dce7f1597bc5e34ff090612f53164e4e642d2ab4fc78bffe19ed1b602a0d12559561a82612970565b611dd96000336129f7565b611e037ffc8737ab85eb45125971625a9ebdb75cc78e01d5c1fa80c4c6e5203f47bc4fab336129f7565b611e2d7ffaf9b26485088dee58863e57c46603d6cdcbadc7475ac6d8910fab0ecf603095336129f7565b610e1c7f1597bc5e34ff090612f53164e4e642d2ab4fc78bffe19ed1b602a0d12559561a336129f7565b6060600280541415611eab5760405162461bcd60e51b815260206004820152601f60248201527f5265656e7472616e637947756172643a207265656e7472616e742063616c6c006044820152606401610dad565b60028055611eb761352d565b600754611ec58160016152d1565b600755600081815260086020526040902080546001600160a01b03191633179055611ef08184613580565b60016002559392505050565b6001600160a01b0381166000908152600b6020526040812080546001909101548291829182611f29611fbb565b90506000611f3a8360055484613789565b9050838111611f5757600080600096509650965050505050611fb4565b6000611f6385836152ba565b9050611f7281600554856137c1565b96506000611f838860055486613789565b600d54909150611f9f908290600160a01b900461ffff16613267565b9650611fab87826152ba565b98505050505050505b9193909250565b600080611fc6611ffe565b90506000600e54600454611fda91906152d1565b905081811115611fed5760009250505090565b611ff781836152ba565b9250505090565b6006546000906201000090046001600160a01b03161561212657600660029054906101000a90046001600160a01b03166001600160a01b0316634ad0b6846040518163ffffffff1660e01b8152600401602060405180830381865afa15801561206b573d6000803e3d6000fd5b505050506040513d601f19601f8201168201806040525081019061208f919061528b565b6040516370a0823160e01b81523060048201527f00000000000000000000000000000000000000000000000000000000000000006001600160a01b0316906370a0823190602401602060405180830381865afa1580156120f3573d6000803e3d6000fd5b505050506040513d601f19601f82011682018060405250810190612117919061528b565b61212191906152d1565b905090565b6040516370a0823160e01b81523060048201527f00000000000000000000000000000000000000000000000000000000000000006001600160a01b0316906370a0823190602401602060405180830381865afa15801561218a573d6000803e3d6000fd5b505050506040513d601f19601f82011682018060405250810190612121919061528b565b6002805414156122005760405162461bcd60e51b815260206004820152601f60248201527f5265656e7472616e637947756172643a207265656e7472616e742063616c6c006044820152606401610dad565b6002805561220c6132fd565b6001600160a01b0385166122335760405163f95106ab60e01b815260040160405180910390fd5b6117918585858585613830565b60606002805414156122945760405162461bcd60e51b815260206004820152601f60248201527f5265656e7472616e637947756172643a207265656e7472616e742063616c6c006044820152606401610dad565b600280556122a061352d565b6000838152600860205260409020546001600160a01b031633146122f0576040517f9049b68600000000000000000000000000000000000000000000000000000000815260040160405180910390fd5b611ef08383613580565b60028054141561234c5760405162461bcd60e51b815260206004820152601f60248201527f5265656e7472616e637947756172643a207265656e7472616e742063616c6c006044820152606401610dad565b600280553360009081527f27365024d84ecf053ef4d13025b66be161b03e90a7fc7ff54f74d5533a9f857e602052604090205460ff166123b8576040517f9aff7af000000000000000000000000000000000000000000000000000000000815260040160405180910390fd5b6123c061352d565b826123f7576040517ff712805800000000000000000000000000000000000000000000000000000000815260040160405180910390fd5b6212750082108061240a575062dd7c0082115b1561242857604051636235acd960e01b815260040160405180910390fd5b600061243442846152d1565b9050612444600a80546001019055565b600061244f600a5490565b905061245c3387876138be565b60006124698787866139f6565b604080516080810182528281523360208083019182526000838501818152606085018a815289835260099093529481209351845591516001840180546001600160a01b03199081166001600160a01b0393841617909155945160028501805490961691161790935591516003909101556004805492935083929091906124f09084906152d1565b90915550506040805182815260208101859052339184917f7ca3497675c6d3ec00b1edc13b8e0b06169ee96a663ab25a74af7da53378f09e910160405180910390a3505060016002555050505050565b6000828152600160208190526040909120015461255c81612966565b610ad983836129f7565b6002805414156125b85760405162461bcd60e51b815260206004820152601f60248201527f5265656e7472616e637947756172643a207265656e7472616e742063616c6c006044820152606401610dad565b600280556125c46132fd565b6001600160a01b0383166125eb5760405163f95106ab60e01b815260040160405180910390fd5b6118728383836001613415565b60028054141561264a5760405162461bcd60e51b815260206004820152601f60248201527f5265656e7472616e637947756172643a207265656e7472616e742063616c6c006044820152606401610dad565b600280556126566132fd565b6001600160a01b03831661267d5760405163f95106ab60e01b815260040160405180910390fd5b611872838383613bd5565b3360009081527f473683a5a3e156e4e3a6c3a7a6d9e3d4a58f9392a3bba04b84ad6221b3f7f356602052604090205460ff166126d757604051631e15456f60e11b815260040160405180910390fd5b6001600160a01b038116612717576040517f6b5e63d200000000000000000000000000000000000000000000000000000000815260040160405180910390fd5b600d80546001600160a01b0319166001600160a01b0383169081179091556040517f7dae230f18360d76a040c81f050aa14eb9d6dc7901b20fc5d855e2a20fe814d190600090a250565b612710101590565b8015806127e35750604051636eb1769f60e11b81523060048201526001600160a01b03838116602483015284169063dd62ed3e90604401602060405180830381865afa1580156127bd573d6000803e3d6000fd5b505050506040513d601f19601f820116820180604052508101906127e1919061528b565b155b6128555760405162461bcd60e51b815260206004820152603660248201527f5361666545524332303a20617070726f76652066726f6d206e6f6e2d7a65726f60448201527f20746f206e6f6e2d7a65726f20616c6c6f77616e6365000000000000000000006064820152608401610dad565b6040516001600160a01b038316602482015260448101829052610ad99084907f095ea7b300000000000000000000000000000000000000000000000000000000906064015b60408051601f198184030181529190526020810180517bffffffffffffffffffffffffffffffffffffffffffffffffffffffff166001600160e01b031990931692909217909152613c50565b60606128f58484600085613d35565b90505b9392505050565b60006001600160e01b031982167f7965db0b000000000000000000000000000000000000000000000000000000001480610aad57507f01ffc9a7000000000000000000000000000000000000000000000000000000006001600160e01b0319831614610aad565b610e1c8133613e7d565b60008281526001602090815260408083206001600160a01b038516845290915290205460ff16610dc05760008281526001602081815260408084206001600160a01b0386168086529252808420805460ff19169093179092559051339285917f2f8788117e7eff1d82e926ec794901d17c78024a50270940304540a733656f0d9190a45050565b60008281526001602090815260408083206001600160a01b038516845290915290205460ff1615610dc05760008281526001602090815260408083206001600160a01b0385168085529252808320805460ff1916905551339285917ff6391f5c32d9c69d2a47ea670b442974b53935d1edc7fd64eb21e047a839171b9190a45050565b6001600160a01b0381811660009081526020819052604090205416612ae15760405162461bcd60e51b815260206004820152601360248201527f706f6f6c20646f6573206e6f74206578697374000000000000000000000000006044820152606401610dad565b6001600160a01b03811660008181526020819052604080822080547fffffffffffffffffffff00000000000000000000000000000000000000000000168155600101829055517f94be23730c4398d20227f4e457cf92307b13e5956f2a958e2e368ad44e2f826b9190a250565b6040516370a0823160e01b81523060048201526000907f00000000000000000000000000000000000000000000000000000000000000006001600160a01b0316906370a0823190602401602060405180830381865afa158015612bb5573d6000803e3d6000fd5b505050506040513d601f19601f82011682018060405250810190612bd9919061528b565b9050808211612be6575050565b600660029054906101000a90046001600160a01b03166001600160a01b0316639af2e6356040518163ffffffff1660e01b8152600401602060405180830381865afa158015612c39573d6000803e3d6000fd5b505050506040513d601f19601f82011682018060405250810190612c5d9190615269565b612c7a57604051635f842b9960e11b815260040160405180910390fd5b600354600090612cad90612c9a9062010000900461ffff166127106152e9565b84612ca3611ffe565b6110ef91906152ba565b9050600082612cbc83866152d1565b612cc691906152ba565b6006546040516319d1885d60e31b815260048101839052919250600091620100009091046001600160a01b03169063ce8c42e8906024016020604051808303816000875af1158015612d1c573d6000803e3d6000fd5b505050506040513d601f19601f82011682018060405250810190612d40919061528b565b90507ff7e72e2f53a982a67fc999c00edfd87a94bdf99e5031c74851276cfd65b0bd2981604051612d7391815260200190565b60405180910390a15050505050565b6040516001600160a01b038316602482015260448101829052610ad99084907fa9059cbb000000000000000000000000000000000000000000000000000000009060640161289a565b80516001600160a01b039081166000908152602081905260409020541615612e355760405162461bcd60e51b815260206004820152601d60248201527f746f6b656e20616c7265616479206861732061207377617020706f6f6c0000006044820152606401610dad565b602081015160608201516040517fc66106570000000000000000000000000000000000000000000000000000000081526fffffffffffffffffffffffffffffffff90911660048201526001600160a01b037f0000000000000000000000000000000000000000000000000000000000000000811692169063c661065790602401602060405180830381865afa158015612ed2573d6000803e3d6000fd5b505050506040513d601f19601f82011682018060405250810190612ef6919061524c565b6001600160a01b031614612f725760405162461bcd60e51b815260206004820152602c60248201527f5f756e6465726c79696e674920646f6573206e6f74206d6174636820756e646560448201527f726c79696e6720746f6b656e00000000000000000000000000000000000000006064820152608401610dad565b600081600001516001600160a01b031663313ce5676040518163ffffffff1660e01b8152600401602060405180830381865afa158015612fb6573d6000803e3d6000fd5b505050506040513d601f19601f82011682018060405250810190612fda919061530c565b60ff16905060007f00000000000000000000000000000000000000000000000000000000000000006001600160a01b031663313ce5676040518163ffffffff1660e01b8152600401602060405180830381865afa15801561303f573d6000803e3d6000fd5b505050506040513d601f19601f82011682018060405250810190613063919061530c565b6040805160a0810182526020808701516001600160a01b03908116835260ff8781168385019081529581168486018181528a870151600f90810b60608089019182528d015190910b608088019081528c5186166000908152968790529790952095518654985191518416600160a81b027fffffffffffffffffffff00ffffffffffffffffffffffffffffffffffffffffff92909416600160a01b027fffffffffffffffffffffff00000000000000000000000000000000000000000090991694169390931796909617919091161782555191516fffffffffffffffffffffffffffffffff908116600160801b0292169190911760019091015590506131926131887f000000000000000000000000000000000000000000000000000000000000000090565b8460200151613efd565b6131a483600001518460200151613efd565b82602001516001600160a01b031683600001516001600160a01b03167f1576b5fcfa863788d9ef6558cab7aa68d4b48c44eb7bacaf1a8ac6d6b9d26f9485604001518660600151604051613208929190600f92830b8152910b602082015260400190565b60405180910390a3505050565b61321d613f8e565b6003805460ff191690557f5db9ee0a495bf2e6ff9c91a7834c1ba4fdd244a5e8aa4e537bd38aeae4b073aa335b6040516001600160a01b03909116815260200160405180910390a1565b600061271061327a61ffff84168561532f565b6128f8919061534e565b61328c6132fd565b6003805461ff0019166101001790557f92493a2527e1a0e4214d0f98b1bedbdc2b53ef81ee4578756108fef0deff09ee61324a3390565b6132cb613fe0565b6003805461ff00191690557fc47f9c912614e04aeb80c7e6cdc73c0f4368cde4bf42df3b26ad96b898913c7d3361324a565b600354610100900460ff1615610fd25760405162461bcd60e51b815260206004820152601460248201527f5061757361626c653a20457869745061757365640000000000000000000000006044820152606401610dad565b6005546000613362611fbb565b9050600085815b818110156133cc576133b089898381811061338657613386615370565b9050602002013586868d60008c8c888181106133a4576133a4615370565b90506020020135614037565b6133ba90846152d1565b92506133c581615386565b9050613369565b506133d682612b4e565b61340a6001600160a01b037f0000000000000000000000000000000000000000000000000000000000000000168a84612d82565b505050505050505050565b6005546000613422611fbb565b9050600084815b818110156134a8576000600960008a8a8581811061344957613449615370565b90506020020135815260200190815260200160002060000154905061348a89898481811061347957613479615370565b9050602002013587878d8b86614037565b61349490856152d1565b935050806134a190615386565b9050613429565b506134b282612b4e565b6134e66001600160a01b037f0000000000000000000000000000000000000000000000000000000000000000168984612d82565b5050505050505050565b6134f861352d565b6003805460ff191660011790557f62e78cea01bee320cd4e420270b5ea74000d11b0c9f74754ebdbfc544b05a25861324a3390565b60035460ff1615610fd25760405162461bcd60e51b815260206004820152601060248201527f5061757361626c653a20706175736564000000000000000000000000000000006044820152606401610dad565b606060408201356135bd576040517fab59997c00000000000000000000000000000000000000000000000000000000815260040160405180910390fd5b67ffffffffffffffff7f0000000000000000000000000000000000000000000000000000000000000000166135f860408401602085016153a1565b67ffffffffffffffff161080613629575062dd7c0061361d60408401602085016153a1565b67ffffffffffffffff16115b1561364757604051636235acd960e01b815260040160405180910390fd5b600361365660808401846153cb565b90501015613690576040517f3867858900000000000000000000000000000000000000000000000000000000815260040160405180910390fd5b600061369d600c54614399565b905060006136a9611fbb565b9050808211156136e5576040517f08063cab00000000000000000000000000000000000000000000000000000000815260040160405180910390fd5b613700336136f66020870187614ebb565b86604001356138be565b60006137216137126020870187614ebb565b86604001358760a001356139f6565b905060004261373660408801602089016153a1565b6137409190615412565b905061376883838361375560608b018b61543e565b61376260808d018d6153cb565b8e6143b8565b60065490955061ffff161561377f5761377f6145fa565b5050505092915050565b6000831580613796575082155b8061379f575081155b156137ac575060006128f8565b826137b7858461532f565b6128f5919061534e565b6000836137d0575060006128f8565b826137ee576137e7670de0b6b3a76400008561532f565b90506128f8565b81613825576040517ff91b6e7b00000000000000000000000000000000000000000000000000000000815260040160405180910390fd5b816137b7848661532f565b600083815b818160ff1610156138aa57600087878360ff1681811061385757613857615370565b905060200201359050600086868460ff1681811061387757613877615370565b90506020020135905061388b8a8383614663565b61389581866152d1565b94505050806138a390615488565b9050613835565b506138b58783614840565b50505050505050565b6040516370a0823160e01b81523060048201526000906001600160a01b038416906370a0823190602401602060405180830381865afa158015613905573d6000803e3d6000fd5b505050506040513d601f19601f82011682018060405250810190613929919061528b565b90506139406001600160a01b0384168530856148bd565b6040516370a0823160e01b81523060048201526000906001600160a01b038516906370a0823190602401602060405180830381865afa158015613987573d6000803e3d6000fd5b505050506040513d601f19601f820116820180604052508101906139ab919061528b565b90506139b783836152d1565b81146139ef576040517f2a25a38b00000000000000000000000000000000000000000000000000000000815260040160405180910390fd5b5050505050565b60007f00000000000000000000000000000000000000000000000000000000000000006001600160a01b038581169082161415613a3657839150506128f8565b6001600160a01b0380861660009081526020819052604090208054909116613aa05760405162461bcd60e51b815260206004820152601660248201527f6e6f6e2d6578697374696e67207377617020706f6f6c000000000000000000006044820152606401610dad565b8054600090613ac590879060ff600160a01b8204811691600160a81b90041688614914565b825460018401546040517fa6417ed6000000000000000000000000000000000000000000000000000000008152600f82810b6004830152600160801b90920490910b602482015260448101899052606481018390529192506001600160a01b03169063a6417ed6906084016020604051808303816000875af1158015613b4f573d6000803e3d6000fd5b505050506040513d601f19601f82011682018060405250810190613b73919061528b565b9350826001600160a01b0316876001600160a01b03167ffa2dda1cc1b86e41239702756b13effbc1a092b5c57e3ad320fbe4f3b13fe2358887604051613bc3929190918252602082015260400190565b60405180910390a35050509392505050565b600081815b818160ff161015613c4557600085858360ff16818110613bfc57613bfc615370565b6020908102929092013560008181526009909352604090922054919250613c269050888383614663565b613c3081866152d1565b9450505080613c3e90615488565b9050613bda565b506139ef8583614840565b6000613ca5826040518060400160405280602081526020017f5361666545524332303a206c6f772d6c6576656c2063616c6c206661696c6564815250856001600160a01b03166128e69092919063ffffffff16565b805190915015610ad95780806020019051810190613cc39190615269565b610ad95760405162461bcd60e51b815260206004820152602a60248201527f5361666545524332303a204552433230206f7065726174696f6e20646964206e60448201527f6f742073756363656564000000000000000000000000000000000000000000006064820152608401610dad565b606082471015613dad5760405162461bcd60e51b815260206004820152602660248201527f416464726573733a20696e73756666696369656e742062616c616e636520666f60448201527f722063616c6c00000000000000000000000000000000000000000000000000006064820152608401610dad565b6001600160a01b0385163b613e045760405162461bcd60e51b815260206004820152601d60248201527f416464726573733a2063616c6c20746f206e6f6e2d636f6e74726163740000006044820152606401610dad565b600080866001600160a01b03168587604051613e2091906154d4565b60006040518083038185875af1925050503d8060008114613e5d576040519150601f19603f3d011682016040523d82523d6000602084013e613e62565b606091505b5091509150613e7282828661495f565b979650505050505050565b60008281526001602090815260408083206001600160a01b038516845290915290205460ff16610dc057613ebb816001600160a01b03166014614998565b613ec6836020614998565b604051602001613ed79291906154f0565b60408051601f198184030181529082905262461bcd60e51b8252610dad9160040161559d565b604051636eb1769f60e11b81523060048201526001600160a01b0382811660248301526000919084169063dd62ed3e90604401602060405180830381865afa158015613f4d573d6000803e3d6000fd5b505050506040513d601f19601f82011682018060405250810190613f71919061528b565b905080610ad957610ad96001600160a01b03841683600019612769565b60035460ff16610fd25760405162461bcd60e51b815260206004820152601460248201527f5061757361626c653a206e6f74207061757365640000000000000000000000006044820152606401610dad565b600354610100900460ff16610fd25760405162461bcd60e51b815260206004820152601860248201527f5061757361626c653a206e6f74204578697450617573656400000000000000006044820152606401610dad565b6000868152600960205260408120600101546001600160a01b0316331461408a576040517fff40736100000000000000000000000000000000000000000000000000000000815260040160405180910390fd5b60008781526009602090815260408083208151608081018352815481526001808301546001600160a01b039081168387015260028401541682850181905260039093015460608301908152928652600b85529483902083518085019094528054845290940154928201929092529051421015614132576040517f0f6268c200000000000000000000000000000000000000000000000000000000815260040160405180910390fd5b60408201516001600160a01b0316614176576040517fde8b700400000000000000000000000000000000000000000000000000000000815260040160405180910390fd5b815184111561419857604051635bcd1de160e11b815260040160405180910390fd5b60006141a5858a8a6137c1565b825160208401519192506000916141bc908861532f565b6141c6919061534e565b9050861580156141d557508082115b1561420c576040517f7df2e7ab00000000000000000000000000000000000000000000000000000000815260040160405180910390fd5b8187801561421957508183115b156142215750805b6040808601516001600160a01b03166000908152600b60205290812060010180548392906142509084906152ba565b90915550506040808601516001600160a01b03166000908152600b60205290812080548992906142819084906152ba565b92505081905550806005600082825461429a91906152ba565b9250508190555086600c60008282546142b391906152ba565b90915550508451871480156142fc5760008d81526009602052604081208181556001810180546001600160a01b0319908116909155600282018054909116905560030155614320565b60008d815260096020526040812080548a929061431a9084906152ba565b90915550505b600061432d838e8e613789565b90508a6001600160a01b03168e7f14e79002ce0df3ba4381425c583d4c9984c7e2910d3e7e088377db997773153e8584866040516143809392919092835260208301919091521515604082015260600190565b60405180910390a39d9c50505050505050505050505050565b600f546000906143ae90839061ffff16613267565b610aad90836152ba565b6040805160a0810182526005548152602081018a90526000918101829052606081810183905260808201879052918667ffffffffffffffff8111156143ff576143ff614ed8565b604051908082528060200260200182016040528015614428578160200160208202803683370190505b50905060005b82608001518110156145a257600089898381811061444e5761444e615370565b905060200281019061446091906155b0565b614469906155c6565b805190915061ffff166144a8576040517f4f287e5000000000000000000000000000000000000000000000000000000000815260040160405180910390fd5b60208101516001600160a01b03166144ec576040517fd444696b00000000000000000000000000000000000000000000000000000000815260040160405180910390fd5b6000600185608001516144ff91906152ba565b8314614517578151614512908e90613267565b614526565b6060850151614526908e6152ba565b905061454087828e8589600001518a602001518f8f614b79565b84848151811061455257614552615370565b60209081029190910101528151604086018051614570908390615686565b61ffff1690525060608501805182919061458b9083906152d1565b90525061459b9150829050615386565b905061442e565b506145b6826040015161ffff166127101490565b6145ec576040517fd7b03e8400000000000000000000000000000000000000000000000000000000815260040160405180910390fd5b9a9950505050505050505050565b6000806146056110b2565b600654919350915061ffff1661461b8284614e24565b61ffff1610614628575050565b600061463482846152ba565b90507f000000000000000000000000000000000000000000000000000000000000000081101561139857505050565b60008281526009602090815260409182902082516080810184528154815260018201546001600160a01b039081169382018490526002830154169381019390935260030154606083015233146146e5576040517f5040aaa300000000000000000000000000000000000000000000000000000000815260040160405180910390fd5b4281606001511115614723576040517f4cf1715e00000000000000000000000000000000000000000000000000000000815260040160405180910390fd5b60408101516001600160a01b031615614768576040517f6f15ccf800000000000000000000000000000000000000000000000000000000815260040160405180910390fd5b805182111561478a57604051635bcd1de160e11b815260040160405180910390fd5b80516040805184815291841460208301819052916001600160a01b0387169186917f8bb6f71206f2ec5e5a42539a0d677bb7e48844b6cefdad5d7139fd68568d7299910160405180910390a38061480557600084815260096020526040812080548592906147f99084906152ba565b90915550505050505050565b50505060009081526009602052604081208181556001810180546001600160a01b031990811690915560028201805490911690556003015550565b614848611ffe565b81111561486857604051635f842b9960e11b815260040160405180910390fd5b806004600082825461487a91906152ba565b90915550614889905081612b4e565b610dc06001600160a01b037f0000000000000000000000000000000000000000000000000000000000000000168383612d82565b6040516001600160a01b038085166024830152831660448201526064810182905261490e9085907f23b872dd000000000000000000000000000000000000000000000000000000009060840161289a565b50505050565b600061492184600a615787565b61492d9061271061532f565b61493884600a615787565b614942848861532f565b61494c919061532f565b614956919061534e565b95945050505050565b6060831561496e5750816128f8565b82511561497e5782518084602001fd5b8160405162461bcd60e51b8152600401610dad919061559d565b606060006149a783600261532f565b6149b29060026152d1565b67ffffffffffffffff8111156149ca576149ca614ed8565b6040519080825280601f01601f1916602001820160405280156149f4576020820181803683370190505b5090507f300000000000000000000000000000000000000000000000000000000000000081600081518110614a2b57614a2b615370565b60200101906001600160f81b031916908160001a9053507f780000000000000000000000000000000000000000000000000000000000000081600181518110614a7657614a76615370565b60200101906001600160f81b031916908160001a9053506000614a9a84600261532f565b614aa59060016152d1565b90505b6001811115614b2a577f303132333435363738396162636465660000000000000000000000000000000085600f1660108110614ae657614ae6615370565b1a60f81b828281518110614afc57614afc615370565b60200101906001600160f81b031916908160001a90535060049490941c93614b2381615796565b9050614aa8565b5083156128f85760405162461bcd60e51b815260206004820181905260248201527f537472696e67733a20686578206c656e67746820696e73756666696369656e746044820152606401610dad565b602080860180516001600160a01b039081166000908152600b90935260408084206001015492519091168352822054614bbc90614bb590614399565b87876137c1565b1115614bf4576040517fb010931500000000000000000000000000000000000000000000000000000000815260040160405180910390fd5b614c02600a80546001019055565b60006040518060600160405280614c1a8b89896137c1565b815260200188602001516001600160a01b03168152602001614c3b600a5490565b905280516020808301516001600160a01b03166000908152600b9091526040812060010180549394509192614c719084906152d1565b90915550506020808201516001600160a01b03166000908152600b9091526040812080548b9290614ca39084906152d1565b9091555050805160058054600090614cbc9084906152d1565b9250508190555088600c6000828254614cd591906152d1565b9250508190555060405180608001604052808a8152602001336001600160a01b0316815260200182602001516001600160a01b031681526020018967ffffffffffffffff1681525060096000836040015181526020019081526020016000206000820151816000015560208201518160010160006101000a8154816001600160a01b0302191690836001600160a01b0316021790555060408201518160020160006101000a8154816001600160a01b0302191690836001600160a01b031602179055506060820151816003015590505086602001516001600160a01b0316336001600160a01b031682604001517fb26a67c96199378f459c394f9a442f1a94d19837d1ac17c14e3d6366d98223088d8d866000015187602001518f8f604001518d8d604051614e0b9897969594939291906157ad565b60405180910390a4604001519998505050505050505050565b60008161327a6127108561532f565b600060208284031215614e4557600080fd5b81356001600160e01b0319811681146128f857600080fd5b600060208284031215614e6f57600080fd5b5035919050565b6001600160a01b0381168114610e1c57600080fd5b60008060408385031215614e9e57600080fd5b823591506020830135614eb081614e76565b809150509250929050565b600060208284031215614ecd57600080fd5b81356128f881614e76565b634e487b7160e01b600052604160045260246000fd5b6040516060810167ffffffffffffffff81118282101715614f1157614f11614ed8565b60405290565b604051601f8201601f1916810167ffffffffffffffff81118282101715614f4057614f40614ed8565b604052919050565b8035600f81900b8114614f5a57600080fd5b919050565b600060808284031215614f7157600080fd5b6040516080810181811067ffffffffffffffff82111715614f9457614f94614ed8565b6040528235614fa281614e76565b81526020830135614fb281614e76565b6020820152614fc360408401614f48565b6040820152614fd460608401614f48565b60608201529392505050565b803561ffff81168114614f5a57600080fd5b60006020828403121561500457600080fd5b6128f882614fe0565b60008083601f84011261501f57600080fd5b50813567ffffffffffffffff81111561503757600080fd5b6020830191508360208260051b850101111561505257600080fd5b9250929050565b60008060008060006060868803121561507157600080fd5b853561507c81614e76565b9450602086013567ffffffffffffffff8082111561509957600080fd5b6150a589838a0161500d565b909650945060408801359150808211156150be57600080fd5b506150cb8882890161500d565b969995985093965092949392505050565b6000806000604084860312156150f157600080fd5b83356150fc81614e76565b9250602084013567ffffffffffffffff81111561511857600080fd5b6151248682870161500d565b9497909650939450505050565b600060c0828403121561514357600080fd5b50919050565b60006020828403121561515b57600080fd5b813567ffffffffffffffff81111561517257600080fd5b61517e84828501615131565b949350505050565b6020808252825182820181905260009190848201906040850190845b818110156151be578351835292840192918401916001016151a2565b50909695505050505050565b600080604083850312156151dd57600080fd5b82359150602083013567ffffffffffffffff8111156151fb57600080fd5b61520785828601615131565b9150509250929050565b6000806000806080858703121561522757600080fd5b843561523281614e76565b966020860135965060408601359560600135945092505050565b60006020828403121561525e57600080fd5b81516128f881614e76565b60006020828403121561527b57600080fd5b815180151581146128f857600080fd5b60006020828403121561529d57600080fd5b5051919050565b634e487b7160e01b600052601160045260246000fd5b6000828210156152cc576152cc6152a4565b500390565b600082198211156152e4576152e46152a4565b500190565b600061ffff83811690831681811015615304576153046152a4565b039392505050565b60006020828403121561531e57600080fd5b815160ff811681146128f857600080fd5b6000816000190483118215151615615349576153496152a4565b500290565b60008261536b57634e487b7160e01b600052601260045260246000fd5b500490565b634e487b7160e01b600052603260045260246000fd5b600060001982141561539a5761539a6152a4565b5060010190565b6000602082840312156153b357600080fd5b813567ffffffffffffffff811681146128f857600080fd5b6000808335601e198436030181126153e257600080fd5b83018035915067ffffffffffffffff8211156153fd57600080fd5b60200191503681900382131561505257600080fd5b600067ffffffffffffffff808316818516808303821115615435576154356152a4565b01949350505050565b6000808335601e1984360301811261545557600080fd5b83018035915067ffffffffffffffff82111561547057600080fd5b6020019150600581901b360382131561505257600080fd5b600060ff821660ff81141561549f5761549f6152a4565b60010192915050565b60005b838110156154c35781810151838201526020016154ab565b8381111561490e5750506000910152565b600082516154e68184602087016154a8565b9190910192915050565b7f416363657373436f6e74726f6c3a206163636f756e74200000000000000000008152600083516155288160178501602088016154a8565b7f206973206d697373696e6720726f6c652000000000000000000000000000000060179184019182015283516155658160288401602088016154a8565b01602801949350505050565b600081518084526155898160208601602086016154a8565b601f01601f19169290920160200192915050565b6020815260006128f86020830184615571565b60008235605e198336030181126154e657600080fd5b6000606082360312156155d857600080fd5b6155e0614eee565b6155e983614fe0565b81526020808401356155fa81614e76565b82820152604084013567ffffffffffffffff8082111561561957600080fd5b9085019036601f83011261562c57600080fd5b81358181111561563e5761563e614ed8565b615650601f8201601f19168501614f17565b9150808252368482850101111561566657600080fd5b808484018584013760009082019093019290925250604082015292915050565b600061ffff808316818516808303821115615435576154356152a4565b600181815b808511156156de5781600019048211156156c4576156c46152a4565b808516156156d157918102915b93841c93908002906156a8565b509250929050565b6000826156f557506001610aad565b8161570257506000610aad565b816001811461571857600281146157225761573e565b6001915050610aad565b60ff841115615733576157336152a4565b50506001821b610aad565b5060208310610133831016604e8410600b8410161715615761575081810a610aad565b61576b83836156a3565b806000190482111561577f5761577f6152a4565b029392505050565b60006128f860ff8416836156e6565b6000816157a5576157a56152a4565b506000190190565b8881528760208201528660408201526001600160a01b038616606082015267ffffffffffffffff8516608082015260e060a082015260006157f160e0830186615571565b82810360c0840152838152838560208301376000602085830101526020601f19601f860116820101915050999850505050505050505056fea26469706673582212202a20725b85dffd8a1d0b1cfced27f2c2eefca63a8f9b8d0c957dc78d7f3a5d4564736f6c634300080a0033",
  "devdoc": {
    "kind": "dev",
    "methods": {
      "addPool((address,address,int128,int128))": {
        "params": {
          "_param": "Swap pool params"
        }
      },
      "claimYield(address)": {
        "params": {
          "_to": "Address that will receive the yield."
        }
      },
      "constructor": {
        "params": {
          "_admin": "Vault admin address",
          "_investPct": "Percentage of the total underlying to invest in the strategy",
          "_lossTolerancePct": "Loss tolerance when investing through the strategy",
          "_minLockPeriod": "Minimum lock period to deposit",
          "_perfFeePct": "Performance fee percentage",
          "_swapPools": "Swap pools used to automatically convert tokens to underlying",
          "_treasury": "Treasury address to collect performance fee",
          "_underlying": "Underlying ERC20 token to use."
        }
      },
      "deposit((address,uint64,uint256,(uint16,address,bytes)[],string,uint256))": {
        "params": {
          "_params": "Deposit params"
        }
      },
      "depositForGroupId(uint256,(address,uint64,uint256,(uint16,address,bytes)[],string,uint256))": {
        "params": {
          "_groupId": "The group id for the new deposit",
          "_params": "Deposit params"
        }
      },
      "exitPaused()": {
        "details": "Returns true if the contract is exitPaused, and false otherwise."
      },
      "forceWithdraw(address,uint256[])": {
        "params": {
          "_ids": "Array with the ids of the deposits.",
          "_to": "Address that will receive the funds."
        }
      },
      "getRoleAdmin(bytes32)": {
        "details": "Returns the admin role that controls `role`. See {grantRole} and {revokeRole}. To change a role's admin, use {_setRoleAdmin}."
      },
      "getUnderlying()": {
        "returns": {
          "_0": "The address of the vault's main underlying token"
        }
      },
      "grantRole(bytes32,address)": {
        "details": "Grants `role` to `account`. If `account` had not been already granted `role`, emits a {RoleGranted} event. Requirements: - the caller must have ``role``'s admin role. May emit a {RoleGranted} event."
      },
      "hasRole(bytes32,address)": {
        "details": "Returns `true` if `account` has been granted `role`."
      },
      "investState()": {
        "returns": {
          "alreadyInvested": "already invested amount",
          "maxInvestableAmount": "maximum investable amount"
        }
      },
      "partialUnsponsor(address,uint256[],uint256[])": {
        "params": {
          "_amounts": "Array with the amounts to withdraw.",
          "_ids": "Array with the ids of the deposits.",
          "_to": "Address that will receive the funds."
        }
      },
      "paused()": {
        "details": "Returns true if the contract is paused, and false otherwise."
      },
      "removePool(address)": {
        "params": {
          "_inputToken": "the token to remove"
        }
      },
      "renounceRole(bytes32,address)": {
        "details": "Revokes `role` from the calling account. Roles are often managed via {grantRole} and {revokeRole}: this function's purpose is to provide a mechanism for accounts to lose their privileges if they are compromised (such as when a trusted device is misplaced). If the calling account had been revoked `role`, emits a {RoleRevoked} event. Requirements: - the caller must be `account`. May emit a {RoleRevoked} event."
      },
      "revokeRole(bytes32,address)": {
        "details": "Revokes `role` from `account`. If `account` had been granted `role`, emits a {RoleRevoked} event. Requirements: - the caller must have ``role``'s admin role. May emit a {RoleRevoked} event."
      },
      "setImmediateInvestLimitPct(uint16)": {
        "params": {
          "_pct": "the new immediate invest limit percentage"
        }
      },
      "setInvestPct(uint16)": {
        "params": {
          "_investPct": "the new invest percentage"
        }
      },
      "setLossTolerancePct(uint16)": {
        "params": {
          "_pct": "the new investment fee estimated percentage."
        }
      },
      "setPerfFeePct(uint16)": {
        "params": {
          "_perfFeePct": "the new performance fee."
        }
      },
      "setStrategy(address)": {
        "params": {
          "_strategy": "the new strategy's address."
        }
      },
      "setTreasury(address)": {
        "params": {
          "_treasury": "the new strategy's address."
        }
      },
      "sponsor(address,uint256,uint256,uint256)": {
        "params": {
          "_amount": "Amount to sponsor.",
          "_inputToken": "The input token to deposit.",
          "_lockedUntil": "When the sponsor can unsponsor the amount."
        }
      },
      "totalUnderlyingMinusSponsored()": {
        "returns": {
          "_0": "Total amount of principal and yield help by the vault (not including sponsored amount and performance fee)."
        }
      },
      "transferAdminRights(address)": {
        "params": {
          "_newAdmin": "The new admin account."
        }
      },
      "unsponsor(address,uint256[])": {
        "params": {
          "_ids": "Array with the ids of the deposits.",
          "_to": "Address that will receive the funds."
        }
      },
      "withdraw(address,uint256[])": {
        "params": {
          "_ids": "Array with the ids of the deposits.",
          "_to": "Address that will receive the funds."
        }
      },
      "yieldFor(address)": {
        "params": {
          "_to": "address to consider."
        },
        "returns": {
          "claimableYield": "claimable yield for @param _to, share of generated yield by @param _to,      and performance fee from generated yield"
        }
      }
    },
    "version": 1
  },
  "userdoc": {
    "events": {
      "CurveSwapPoolAdded(address,address,int128,int128)": {
        "notice": "Emitted when a new swap pool is added"
      },
      "CurveSwapPoolRemoved(address)": {
        "notice": "Emitted when a swap pool is removed"
      },
      "Sponsored(uint256,uint256,address,uint256)": {
        "notice": "Emitted when a new sponsor deposit is created"
      },
      "Swap(address,address,uint256,uint256)": {
        "notice": "Emitted after every swap"
      },
      "Unsponsored(uint256,uint256,address,bool)": {
        "notice": "Emitted when an existing sponsor withdraws"
      }
    },
    "kind": "user",
    "methods": {
      "KEEPER_ROLE()": {
        "notice": "Role allowed to invest/desinvest from strategy"
      },
      "MAX_DEPOSIT_LOCK_DURATION()": {
        "notice": "Maximum lock for each deposit"
      },
      "MAX_SPONSOR_LOCK_DURATION()": {
        "notice": "Maximum lock for each sponsor"
      },
      "MIN_SPONSOR_LOCK_DURATION()": {
        "notice": "Minimum lock for each sponsor"
      },
      "SETTINGS_ROLE()": {
        "notice": "Role allowed to change settings such as performance fee and investment fee"
      },
      "SHARES_MULTIPLIER()": {
        "notice": "Helper constant for computing shares without losing precision"
      },
      "SPONSOR_ROLE()": {
        "notice": "Role for sponsors allowed to call sponsor/unsponsor"
      },
      "accumulatedPerfFee()": {
        "notice": "Current accumulated performance fee;"
      },
      "addPool((address,address,int128,int128))": {
        "notice": "Adds a new curve swap pool from an input token to {underlying}"
      },
      "claimYield(address)": {
        "notice": "Accumulate performance fee and transfers rest yield generated for the caller to"
      },
      "claimers(address)": {
        "notice": "claimer address => claimer data"
      },
      "deposit((address,uint64,uint256,(uint16,address,bytes)[],string,uint256))": {
        "notice": "Creates a new deposit"
      },
      "depositForGroupId(uint256,(address,uint64,uint256,(uint16,address,bytes)[],string,uint256))": {
        "notice": "Creates a new deposit using the specified group id"
      },
      "deposits(uint256)": {
        "notice": "deposit ID => deposit data"
      },
      "immediateInvestLimitPct()": {
        "notice": "Percentage of the max investable amount until which a deposit is immediately invested into the strategy."
      },
      "investPct()": {
        "notice": "Percentage of the total underlying to invest in the strategy"
      },
      "investState()": {
        "notice": "Calculate maximum investable amount and already invested amount"
      },
      "lossTolerancePct()": {
        "notice": "Loss tolerance pct"
      },
      "minLockPeriod()": {
        "notice": "Minimum lock period for each deposit"
      },
      "partialUnsponsor(address,uint256[],uint256[])": {
        "notice": "fails if there are not enough funds to withdraw the specified amounts."
      },
      "perfFeePct()": {
        "notice": "Performance fee percentage"
      },
      "removePool(address)": {
        "notice": "Removes an existing swap pool, and the ability to deposit the given token as underlying"
      },
      "setImmediateInvestLimitPct(uint16)": {
        "notice": "Update immediate invest limit percentage Emits {ImmediateInvestLimitPctUpdated} event"
      },
      "setInvestPct(uint16)": {
        "notice": "Update invest percentage Emits {InvestPctUpdated} event"
      },
      "setLossTolerancePct(uint16)": {
        "notice": "Changes the estimated investment fee used by the strategy."
      },
      "setPerfFeePct(uint16)": {
        "notice": "Changes the performance fee used by the vault."
      },
      "setStrategy(address)": {
        "notice": "Changes the strategy used by the vault.if there is invested funds in previous strategy, it is not allowed to set new strategy."
      },
      "setTreasury(address)": {
        "notice": "Changes the treasury used by the vault."
      },
      "strategy()": {
        "notice": "The investment strategy"
      },
      "swappers(address)": {
        "notice": "token => curve pool (for trading token/underlying)"
      },
      "totalPrincipal()": {
        "notice": "The total of principal deposited"
      },
      "totalShares()": {
        "notice": "Total amount of shares"
      },
      "totalSponsored()": {
        "notice": "Total amount currently sponsored"
      },
      "totalUnderlying()": {
        "notice": "Total amount of underlying currently controlled by the vault and the its strategy."
      },
      "totalUnderlyingMinusSponsored()": {
        "notice": "Computes the total amount of principal + yield currently controlled by the vault and the strategy. The principal + yield is the total amount of underlying that can be claimed or withdrawn, excluding the sponsored amount and performance fee."
      },
      "transferAdminRights(address)": {
        "notice": "Transfers administrator rights for the Vault to another account, revoking all current admin's roles and setting up the roles for the new admin.Can only be called by the admin."
      },
      "treasury()": {
        "notice": "Treasury address to collect performance fee"
      },
      "underlying()": {
        "notice": "Underlying ERC20 token accepted by the vault"
      },
      "unsponsor(address,uint256[])": {
        "notice": "Withdraws the sponsored amount for the deposits with the ids provided"
      },
      "updateInvested()": {
        "notice": "Update the invested amount;"
      },
      "withdrawPerformanceFee()": {
        "notice": "Withdraws any pending performance fee amount back to the treasury"
      },
      "yieldFor(address)": {
        "notice": "Computes the amount of yield available for an an address."
      }
    },
    "notice": "A vault where other accounts can deposit an underlying token currency and set distribution params for their principal and yieldThe underlying token can be automatically swapped from any configured ERC20 token via {CurveSwapper}",
    "version": 1
  },
  "storageLayout": {
    "storage": [
      {
        "astId": 18967,
        "contract": "contracts/Vault.sol:Vault",
        "label": "swappers",
        "offset": 0,
        "slot": "0",
        "type": "t_mapping(t_address,t_struct(Swapper)18925_storage)"
      },
      {
        "astId": 1786,
        "contract": "contracts/Vault.sol:Vault",
        "label": "_roles",
        "offset": 0,
        "slot": "1",
        "type": "t_mapping(t_bytes32,t_struct(RoleData)1781_storage)"
      },
      {
        "astId": 2386,
        "contract": "contracts/Vault.sol:Vault",
        "label": "_status",
        "offset": 0,
        "slot": "2",
        "type": "t_uint256"
      },
      {
        "astId": 2285,
        "contract": "contracts/Vault.sol:Vault",
        "label": "_paused",
        "offset": 0,
        "slot": "3",
        "type": "t_bool"
      },
      {
        "astId": 11851,
        "contract": "contracts/Vault.sol:Vault",
        "label": "_exitPaused",
        "offset": 1,
        "slot": "3",
        "type": "t_bool"
      },
      {
        "astId": 5769,
        "contract": "contracts/Vault.sol:Vault",
        "label": "investPct",
        "offset": 2,
        "slot": "3",
        "type": "t_uint16"
      },
      {
        "astId": 5779,
        "contract": "contracts/Vault.sol:Vault",
        "label": "totalSponsored",
        "offset": 0,
        "slot": "4",
        "type": "t_uint256"
      },
      {
        "astId": 5784,
        "contract": "contracts/Vault.sol:Vault",
        "label": "totalShares",
        "offset": 0,
        "slot": "5",
        "type": "t_uint256"
      },
      {
        "astId": 5789,
        "contract": "contracts/Vault.sol:Vault",
        "label": "immediateInvestLimitPct",
        "offset": 0,
        "slot": "6",
        "type": "t_uint16"
      },
      {
        "astId": 5793,
        "contract": "contracts/Vault.sol:Vault",
        "label": "strategy",
        "offset": 2,
        "slot": "6",
        "type": "t_contract(IStrategy)16107"
      },
      {
        "astId": 5796,
        "contract": "contracts/Vault.sol:Vault",
        "label": "_depositGroupIds",
        "offset": 0,
        "slot": "7",
        "type": "t_uint256"
      },
      {
        "astId": 5800,
        "contract": "contracts/Vault.sol:Vault",
        "label": "depositGroupIdOwner",
        "offset": 0,
        "slot": "8",
        "type": "t_mapping(t_uint256,t_address)"
      },
      {
        "astId": 5806,
        "contract": "contracts/Vault.sol:Vault",
        "label": "deposits",
        "offset": 0,
        "slot": "9",
        "type": "t_mapping(t_uint256,t_struct(Deposit)19400_storage)"
      },
      {
        "astId": 5810,
        "contract": "contracts/Vault.sol:Vault",
        "label": "_depositTokenIds",
        "offset": 0,
        "slot": "10",
        "type": "t_struct(Counter)4799_storage"
      },
      {
        "astId": 5816,
        "contract": "contracts/Vault.sol:Vault",
        "label": "claimers",
        "offset": 0,
        "slot": "11",
        "type": "t_mapping(t_address,t_struct(Claimer)19405_storage)"
      },
      {
        "astId": 5821,
        "contract": "contracts/Vault.sol:Vault",
        "label": "totalPrincipal",
        "offset": 0,
        "slot": "12",
        "type": "t_uint256"
      },
      {
        "astId": 5824,
        "contract": "contracts/Vault.sol:Vault",
        "label": "treasury",
        "offset": 0,
        "slot": "13",
        "type": "t_address"
      },
      {
        "astId": 5827,
        "contract": "contracts/Vault.sol:Vault",
        "label": "perfFeePct",
        "offset": 20,
        "slot": "13",
        "type": "t_uint16"
      },
      {
        "astId": 5830,
        "contract": "contracts/Vault.sol:Vault",
        "label": "accumulatedPerfFee",
        "offset": 0,
        "slot": "14",
        "type": "t_uint256"
      },
      {
        "astId": 5833,
        "contract": "contracts/Vault.sol:Vault",
        "label": "lossTolerancePct",
        "offset": 0,
        "slot": "15",
        "type": "t_uint16"
      }
    ],
    "types": {
      "t_address": {
        "encoding": "inplace",
        "label": "address",
        "numberOfBytes": "20"
      },
      "t_bool": {
        "encoding": "inplace",
        "label": "bool",
        "numberOfBytes": "1"
      },
      "t_bytes32": {
        "encoding": "inplace",
        "label": "bytes32",
        "numberOfBytes": "32"
      },
      "t_contract(ICurve)11397": {
        "encoding": "inplace",
        "label": "contract ICurve",
        "numberOfBytes": "20"
      },
      "t_contract(IStrategy)16107": {
        "encoding": "inplace",
        "label": "contract IStrategy",
        "numberOfBytes": "20"
      },
      "t_int128": {
        "encoding": "inplace",
        "label": "int128",
        "numberOfBytes": "16"
      },
      "t_mapping(t_address,t_bool)": {
        "encoding": "mapping",
        "key": "t_address",
        "label": "mapping(address => bool)",
        "numberOfBytes": "32",
        "value": "t_bool"
      },
      "t_mapping(t_address,t_struct(Claimer)19405_storage)": {
        "encoding": "mapping",
        "key": "t_address",
        "label": "mapping(address => struct IVault.Claimer)",
        "numberOfBytes": "32",
        "value": "t_struct(Claimer)19405_storage"
      },
      "t_mapping(t_address,t_struct(Swapper)18925_storage)": {
        "encoding": "mapping",
        "key": "t_address",
        "label": "mapping(address => struct CurveSwapper.Swapper)",
        "numberOfBytes": "32",
        "value": "t_struct(Swapper)18925_storage"
      },
      "t_mapping(t_bytes32,t_struct(RoleData)1781_storage)": {
        "encoding": "mapping",
        "key": "t_bytes32",
        "label": "mapping(bytes32 => struct AccessControl.RoleData)",
        "numberOfBytes": "32",
        "value": "t_struct(RoleData)1781_storage"
      },
      "t_mapping(t_uint256,t_address)": {
        "encoding": "mapping",
        "key": "t_uint256",
        "label": "mapping(uint256 => address)",
        "numberOfBytes": "32",
        "value": "t_address"
      },
      "t_mapping(t_uint256,t_struct(Deposit)19400_storage)": {
        "encoding": "mapping",
        "key": "t_uint256",
        "label": "mapping(uint256 => struct IVault.Deposit)",
        "numberOfBytes": "32",
        "value": "t_struct(Deposit)19400_storage"
      },
      "t_struct(Claimer)19405_storage": {
        "encoding": "inplace",
        "label": "struct IVault.Claimer",
        "members": [
          {
            "astId": 19402,
            "contract": "contracts/Vault.sol:Vault",
            "label": "totalPrincipal",
            "offset": 0,
            "slot": "0",
            "type": "t_uint256"
          },
          {
            "astId": 19404,
            "contract": "contracts/Vault.sol:Vault",
            "label": "totalShares",
            "offset": 0,
            "slot": "1",
            "type": "t_uint256"
          }
        ],
        "numberOfBytes": "64"
      },
      "t_struct(Counter)4799_storage": {
        "encoding": "inplace",
        "label": "struct Counters.Counter",
        "members": [
          {
            "astId": 4798,
            "contract": "contracts/Vault.sol:Vault",
            "label": "_value",
            "offset": 0,
            "slot": "0",
            "type": "t_uint256"
          }
        ],
        "numberOfBytes": "32"
      },
      "t_struct(Deposit)19400_storage": {
        "encoding": "inplace",
        "label": "struct IVault.Deposit",
        "members": [
          {
            "astId": 19390,
            "contract": "contracts/Vault.sol:Vault",
            "label": "amount",
            "offset": 0,
            "slot": "0",
            "type": "t_uint256"
          },
          {
            "astId": 19393,
            "contract": "contracts/Vault.sol:Vault",
            "label": "owner",
            "offset": 0,
            "slot": "1",
            "type": "t_address"
          },
          {
            "astId": 19396,
            "contract": "contracts/Vault.sol:Vault",
            "label": "claimerId",
            "offset": 0,
            "slot": "2",
            "type": "t_address"
          },
          {
            "astId": 19399,
            "contract": "contracts/Vault.sol:Vault",
            "label": "lockedUntil",
            "offset": 0,
            "slot": "3",
            "type": "t_uint256"
          }
        ],
        "numberOfBytes": "128"
      },
      "t_struct(RoleData)1781_storage": {
        "encoding": "inplace",
        "label": "struct AccessControl.RoleData",
        "members": [
          {
            "astId": 1778,
            "contract": "contracts/Vault.sol:Vault",
            "label": "members",
            "offset": 0,
            "slot": "0",
            "type": "t_mapping(t_address,t_bool)"
          },
          {
            "astId": 1780,
            "contract": "contracts/Vault.sol:Vault",
            "label": "adminRole",
            "offset": 0,
            "slot": "1",
            "type": "t_bytes32"
          }
        ],
        "numberOfBytes": "64"
      },
      "t_struct(Swapper)18925_storage": {
        "encoding": "inplace",
        "label": "struct CurveSwapper.Swapper",
        "members": [
          {
            "astId": 18912,
            "contract": "contracts/Vault.sol:Vault",
            "label": "pool",
            "offset": 0,
            "slot": "0",
            "type": "t_contract(ICurve)11397"
          },
          {
            "astId": 18915,
            "contract": "contracts/Vault.sol:Vault",
            "label": "tokenDecimals",
            "offset": 20,
            "slot": "0",
            "type": "t_uint8"
          },
          {
            "astId": 18918,
            "contract": "contracts/Vault.sol:Vault",
            "label": "underlyingDecimals",
            "offset": 21,
            "slot": "0",
            "type": "t_uint8"
          },
          {
            "astId": 18921,
            "contract": "contracts/Vault.sol:Vault",
            "label": "tokenI",
            "offset": 0,
            "slot": "1",
            "type": "t_int128"
          },
          {
            "astId": 18924,
            "contract": "contracts/Vault.sol:Vault",
            "label": "underlyingI",
            "offset": 16,
            "slot": "1",
            "type": "t_int128"
          }
        ],
        "numberOfBytes": "64"
      },
      "t_uint16": {
        "encoding": "inplace",
        "label": "uint16",
        "numberOfBytes": "2"
      },
      "t_uint256": {
        "encoding": "inplace",
        "label": "uint256",
        "numberOfBytes": "32"
      },
      "t_uint8": {
        "encoding": "inplace",
        "label": "uint8",
        "numberOfBytes": "1"
      }
    }
  }
}